{
	"DepositForce.sol": {
		"DepositForce": {
			"abi": [
				{
					"inputs": [],
					"stateMutability": "payable",
					"type": "constructor"
				},
				{
					"inputs": [],
					"name": "hi",
					"outputs": [
						{
							"internalType": "string",
							"name": "",
							"type": "string"
						}
					],
					"stateMutability": "view",
					"type": "function"
				},
				{
					"inputs": [
						{
							"internalType": "address payable",
							"name": "_to",
							"type": "address"
						}
					],
					"name": "quickTransfer",
					"outputs": [],
					"stateMutability": "payable",
					"type": "function"
				},
				{
					"inputs": [],
					"name": "withdrawNotPayable",
					"outputs": [],
					"stateMutability": "payable",
					"type": "function"
				},
				{
					"inputs": [],
					"name": "withdrawPayable",
					"outputs": [],
					"stateMutability": "payable",
					"type": "function"
				}
			],
			"devdoc": {
				"kind": "dev",
				"methods": {},
				"version": 1
			},
			"evm": {
				"assembly": "    /* \"DepositForce.sol\":58:766  contract DepositForce {... */\n  mstore(0x40, 0x80)\n    /* \"DepositForce.sol\":91:116  string public hi = \"meow\" */\n  mload(0x40)\n  dup1\n  0x40\n  add\n  0x40\n  mstore\n  dup1\n  0x04\n  dup2\n  mstore\n  0x20\n  add\n  0x6d656f7700000000000000000000000000000000000000000000000000000000\n  dup2\n  mstore\n  pop\n  0x00\n  swap1\n  dup1\n  mload\n  swap1\n  0x20\n  add\n  swap1\n  tag_1\n  swap3\n  swap2\n  swap1\n  tag_2\n  jump\t// in\ntag_1:\n  pop\n    /* \"DepositForce.sol\":164:206  0xE3f80bA82FcAf5946306D32E782378A4a50da5ff */\n  0xe3f80ba82fcaf5946306d32e782378a4a50da5ff\n    /* \"DepositForce.sol\":151:206  address to = 0xE3f80bA82FcAf5946306D32E782378A4a50da5ff */\n  0x01\n  exp(0x0100, 0x00)\n  dup2\n  sload\n  dup2\n  0xffffffffffffffffffffffffffffffffffffffff\n  mul\n  not\n  and\n  swap1\n  dup4\n  0xffffffffffffffffffffffffffffffffffffffff\n  and\n  mul\n  or\n  swap1\n  sstore\n  pop\n    /* \"DepositForce.sol\":58:766  contract DepositForce {... */\n  jump(tag_5)\ntag_2:\n  dup3\n  dup1\n  sload\n  tag_6\n  swap1\n  tag_7\n  jump\t// in\ntag_6:\n  swap1\n  0x00\n  mstore\n  keccak256(0x00, 0x20)\n  swap1\n  0x1f\n  add\n  0x20\n  swap1\n  div\n  dup2\n  add\n  swap3\n  dup3\n  tag_9\n  jumpi\n  0x00\n  dup6\n  sstore\n  jump(tag_8)\ntag_9:\n  dup3\n  0x1f\n  lt\n  tag_10\n  jumpi\n  dup1\n  mload\n  not(0xff)\n  and\n  dup4\n  dup1\n  add\n  or\n  dup6\n  sstore\n  jump(tag_8)\ntag_10:\n  dup3\n  dup1\n  add\n  0x01\n  add\n  dup6\n  sstore\n  dup3\n  iszero\n  tag_8\n  jumpi\n  swap2\n  dup3\n  add\ntag_11:\n  dup3\n  dup2\n  gt\n  iszero\n  tag_12\n  jumpi\n  dup3\n  mload\n  dup3\n  sstore\n  swap2\n  0x20\n  add\n  swap2\n  swap1\n  0x01\n  add\n  swap1\n  jump(tag_11)\ntag_12:\ntag_8:\n  pop\n  swap1\n  pop\n  tag_13\n  swap2\n  swap1\n  tag_14\n  jump\t// in\ntag_13:\n  pop\n  swap1\n  jump\t// out\ntag_14:\ntag_15:\n  dup1\n  dup3\n  gt\n  iszero\n  tag_16\n  jumpi\n  0x00\n  dup2\n  0x00\n  swap1\n  sstore\n  pop\n  0x01\n  add\n  jump(tag_15)\ntag_16:\n  pop\n  swap1\n  jump\t// out\n    /* \"#utility.yul\":7:327   */\ntag_7:\n  0x00\n    /* \"#utility.yul\":88:89   */\n  0x02\n    /* \"#utility.yul\":82:86   */\n  dup3\n    /* \"#utility.yul\":78:90   */\n  div\n    /* \"#utility.yul\":68:90   */\n  swap1\n  pop\n    /* \"#utility.yul\":135:136   */\n  0x01\n    /* \"#utility.yul\":129:133   */\n  dup3\n    /* \"#utility.yul\":125:137   */\n  and\n    /* \"#utility.yul\":156:174   */\n  dup1\n    /* \"#utility.yul\":146:148   */\n  tag_19\n  jumpi\n    /* \"#utility.yul\":212:216   */\n  0x7f\n    /* \"#utility.yul\":204:210   */\n  dup3\n    /* \"#utility.yul\":200:217   */\n  and\n    /* \"#utility.yul\":190:217   */\n  swap2\n  pop\n    /* \"#utility.yul\":146:148   */\ntag_19:\n    /* \"#utility.yul\":274:276   */\n  0x20\n    /* \"#utility.yul\":266:272   */\n  dup3\n    /* \"#utility.yul\":263:277   */\n  lt\n    /* \"#utility.yul\":243:261   */\n  dup2\n    /* \"#utility.yul\":240:278   */\n  eq\n    /* \"#utility.yul\":237:239   */\n  iszero\n  tag_20\n  jumpi\n    /* \"#utility.yul\":293:311   */\n  tag_21\n  tag_22\n  jump\t// in\ntag_21:\n    /* \"#utility.yul\":237:239   */\ntag_20:\n    /* \"#utility.yul\":58:327   */\n  pop\n  swap2\n  swap1\n  pop\n  jump\t// out\n    /* \"#utility.yul\":333:513   */\ntag_22:\n    /* \"#utility.yul\":381:458   */\n  0x4e487b7100000000000000000000000000000000000000000000000000000000\n    /* \"#utility.yul\":378:379   */\n  0x00\n    /* \"#utility.yul\":371:459   */\n  mstore\n    /* \"#utility.yul\":478:482   */\n  0x22\n    /* \"#utility.yul\":475:476   */\n  0x04\n    /* \"#utility.yul\":468:483   */\n  mstore\n    /* \"#utility.yul\":502:506   */\n  0x24\n    /* \"#utility.yul\":499:500   */\n  0x00\n    /* \"#utility.yul\":492:507   */\n  revert\n    /* \"DepositForce.sol\":58:766  contract DepositForce {... */\ntag_5:\n  dataSize(sub_0)\n  dup1\n  dataOffset(sub_0)\n  0x00\n  codecopy\n  0x00\n  return\nstop\n\nsub_0: assembly {\n        /* \"DepositForce.sol\":58:766  contract DepositForce {... */\n      mstore(0x40, 0x80)\n      jumpi(tag_1, lt(calldatasize, 0x04))\n      shr(0xe0, calldataload(0x00))\n      dup1\n      0x08b2770f\n      eq\n      tag_2\n      jumpi\n      dup1\n      0xa99dca3f\n      eq\n      tag_3\n      jumpi\n      dup1\n      0xf3562841\n      eq\n      tag_4\n      jumpi\n      dup1\n      0xf775ea22\n      eq\n      tag_5\n      jumpi\n    tag_1:\n      0x00\n      dup1\n      revert\n        /* \"DepositForce.sol\":609:763  function withdrawPayable() public payable {... */\n    tag_2:\n      tag_6\n      tag_7\n      jump\t// in\n    tag_6:\n      stop\n        /* \"DepositForce.sol\":91:116  string public hi = \"meow\" */\n    tag_3:\n      callvalue\n      dup1\n      iszero\n      tag_8\n      jumpi\n      0x00\n      dup1\n      revert\n    tag_8:\n      pop\n      tag_9\n      tag_10\n      jump\t// in\n    tag_9:\n      mload(0x40)\n      tag_11\n      swap2\n      swap1\n      tag_12\n      jump\t// in\n    tag_11:\n      mload(0x40)\n      dup1\n      swap2\n      sub\n      swap1\n      return\n        /* \"DepositForce.sol\":286:440  function quickTransfer(address payable _to) public payable {... */\n    tag_4:\n      tag_13\n      0x04\n      dup1\n      calldatasize\n      sub\n      dup2\n      add\n      swap1\n      tag_14\n      swap2\n      swap1\n      tag_15\n      jump\t// in\n    tag_14:\n      tag_16\n      jump\t// in\n    tag_13:\n      stop\n        /* \"DepositForce.sol\":446:603  function withdrawNotPayable() public payable {... */\n    tag_5:\n      tag_17\n      tag_18\n      jump\t// in\n    tag_17:\n      stop\n        /* \"DepositForce.sol\":609:763  function withdrawPayable() public payable {... */\n    tag_7:\n        /* \"DepositForce.sol\":658:667  bool sent */\n      0x00\n        /* \"DepositForce.sol\":669:686  bytes memory data */\n      dup1\n        /* \"DepositForce.sol\":690:692  to */\n      0x01\n      0x00\n      swap1\n      sload\n      swap1\n      0x0100\n      exp\n      swap1\n      div\n      0xffffffffffffffffffffffffffffffffffffffff\n      and\n        /* \"DepositForce.sol\":690:697  to.call */\n      0xffffffffffffffffffffffffffffffffffffffff\n      and\n        /* \"DepositForce.sol\":703:708  10000 */\n      0x2710\n        /* \"DepositForce.sol\":717:726  msg.value */\n      callvalue\n        /* \"DepositForce.sol\":728:755  abi.encodeWithSignature(\"\") */\n      add(0x24, mload(0x40))\n      mload(0x40)\n      0x20\n      dup2\n      dup4\n      sub\n      sub\n      dup2\n      mstore\n      swap1\n      0x40\n      mstore\n      and(not(0xffffffffffffffffffffffffffffffffffffffffffffffffffffffff), 0xc5d2460100000000000000000000000000000000000000000000000000000000)\n      0x20\n      dup3\n      add\n      dup1\n      mload\n      0xffffffffffffffffffffffffffffffffffffffffffffffffffffffff\n      dup4\n      dup2\n      dup4\n      and\n      or\n      dup4\n      mstore\n      pop\n      pop\n      pop\n      pop\n        /* \"DepositForce.sol\":690:756  to.call{gas :10000, value: msg.value}(abi.encodeWithSignature(\"\")) */\n      mload(0x40)\n      tag_20\n      swap2\n      swap1\n      tag_21\n      jump\t// in\n    tag_20:\n      0x00\n      mload(0x40)\n      dup1\n      dup4\n      sub\n      dup2\n      dup6\n      dup9\n      dup9\n      call\n      swap4\n      pop\n      pop\n      pop\n      pop\n      returndatasize\n      dup1\n      0x00\n      dup2\n      eq\n      tag_24\n      jumpi\n      mload(0x40)\n      swap2\n      pop\n      and(add(returndatasize, 0x3f), not(0x1f))\n      dup3\n      add\n      0x40\n      mstore\n      returndatasize\n      dup3\n      mstore\n      returndatasize\n      0x00\n      0x20\n      dup5\n      add\n      returndatacopy\n      jump(tag_23)\n    tag_24:\n      0x60\n      swap2\n      pop\n    tag_23:\n      pop\n        /* \"DepositForce.sol\":657:756  (bool sent, bytes memory data) = to.call{gas :10000, value: msg.value}(abi.encodeWithSignature(\"\")) */\n      swap2\n      pop\n      swap2\n      pop\n        /* \"DepositForce.sol\":609:763  function withdrawPayable() public payable {... */\n      pop\n      pop\n      jump\t// out\n        /* \"DepositForce.sol\":91:116  string public hi = \"meow\" */\n    tag_10:\n      0x00\n      dup1\n      sload\n      tag_25\n      swap1\n      tag_26\n      jump\t// in\n    tag_25:\n      dup1\n      0x1f\n      add\n      0x20\n      dup1\n      swap2\n      div\n      mul\n      0x20\n      add\n      mload(0x40)\n      swap1\n      dup2\n      add\n      0x40\n      mstore\n      dup1\n      swap3\n      swap2\n      swap1\n      dup2\n      dup2\n      mstore\n      0x20\n      add\n      dup3\n      dup1\n      sload\n      tag_27\n      swap1\n      tag_26\n      jump\t// in\n    tag_27:\n      dup1\n      iszero\n      tag_28\n      jumpi\n      dup1\n      0x1f\n      lt\n      tag_29\n      jumpi\n      0x0100\n      dup1\n      dup4\n      sload\n      div\n      mul\n      dup4\n      mstore\n      swap2\n      0x20\n      add\n      swap2\n      jump(tag_28)\n    tag_29:\n      dup3\n      add\n      swap2\n      swap1\n      0x00\n      mstore\n      keccak256(0x00, 0x20)\n      swap1\n    tag_30:\n      dup2\n      sload\n      dup2\n      mstore\n      swap1\n      0x01\n      add\n      swap1\n      0x20\n      add\n      dup1\n      dup4\n      gt\n      tag_30\n      jumpi\n      dup3\n      swap1\n      sub\n      0x1f\n      and\n      dup3\n      add\n      swap2\n    tag_28:\n      pop\n      pop\n      pop\n      pop\n      pop\n      dup2\n      jump\t// out\n        /* \"DepositForce.sol\":286:440  function quickTransfer(address payable _to) public payable {... */\n    tag_16:\n        /* \"DepositForce.sol\":355:364  bool sent */\n      0x00\n        /* \"DepositForce.sol\":367:370  _to */\n      dup2\n        /* \"DepositForce.sol\":367:375  _to.send */\n      0xffffffffffffffffffffffffffffffffffffffff\n      and\n        /* \"DepositForce.sol\":367:386  _to.send(msg.value) */\n      0x08fc\n        /* \"DepositForce.sol\":376:385  msg.value */\n      callvalue\n        /* \"DepositForce.sol\":367:386  _to.send(msg.value) */\n      swap1\n      dup2\n      iszero\n      mul\n      swap1\n      mload(0x40)\n      0x00\n      mload(0x40)\n      dup1\n      dup4\n      sub\n      dup2\n      dup6\n      dup9\n      dup9\n      call\n      swap4\n      pop\n      pop\n      pop\n      pop\n        /* \"DepositForce.sol\":355:386  bool sent = _to.send(msg.value) */\n      swap1\n      pop\n        /* \"DepositForce.sol\":404:408  sent */\n      dup1\n        /* \"DepositForce.sol\":396:433  require(sent, \"Failed to send Ether\") */\n      tag_33\n      jumpi\n      mload(0x40)\n      0x08c379a000000000000000000000000000000000000000000000000000000000\n      dup2\n      mstore\n      0x04\n      add\n      tag_34\n      swap1\n      tag_35\n      jump\t// in\n    tag_34:\n      mload(0x40)\n      dup1\n      swap2\n      sub\n      swap1\n      revert\n    tag_33:\n        /* \"DepositForce.sol\":286:440  function quickTransfer(address payable _to) public payable {... */\n      pop\n      pop\n      jump\t// out\n        /* \"DepositForce.sol\":446:603  function withdrawNotPayable() public payable {... */\n    tag_18:\n        /* \"DepositForce.sol\":498:507  bool sent */\n      0x00\n        /* \"DepositForce.sol\":509:526  bytes memory data */\n      dup1\n        /* \"DepositForce.sol\":530:532  to */\n      0x01\n      0x00\n      swap1\n      sload\n      swap1\n      0x0100\n      exp\n      swap1\n      div\n      0xffffffffffffffffffffffffffffffffffffffff\n      and\n        /* \"DepositForce.sol\":530:537  to.call */\n      0xffffffffffffffffffffffffffffffffffffffff\n      and\n        /* \"DepositForce.sol\":543:548  10000 */\n      0x2710\n        /* \"DepositForce.sol\":557:566  msg.value */\n      callvalue\n        /* \"DepositForce.sol\":568:595  abi.encodeWithSignature(\"\") */\n      add(0x24, mload(0x40))\n      mload(0x40)\n      0x20\n      dup2\n      dup4\n      sub\n      sub\n      dup2\n      mstore\n      swap1\n      0x40\n      mstore\n      and(not(0xffffffffffffffffffffffffffffffffffffffffffffffffffffffff), 0xc5d2460100000000000000000000000000000000000000000000000000000000)\n      0x20\n      dup3\n      add\n      dup1\n      mload\n      0xffffffffffffffffffffffffffffffffffffffffffffffffffffffff\n      dup4\n      dup2\n      dup4\n      and\n      or\n      dup4\n      mstore\n      pop\n      pop\n      pop\n      pop\n        /* \"DepositForce.sol\":530:596  to.call{gas :10000, value: msg.value}(abi.encodeWithSignature(\"\")) */\n      mload(0x40)\n      tag_37\n      swap2\n      swap1\n      tag_21\n      jump\t// in\n    tag_37:\n      0x00\n      mload(0x40)\n      dup1\n      dup4\n      sub\n      dup2\n      dup6\n      dup9\n      dup9\n      call\n      swap4\n      pop\n      pop\n      pop\n      pop\n      returndatasize\n      dup1\n      0x00\n      dup2\n      eq\n      tag_40\n      jumpi\n      mload(0x40)\n      swap2\n      pop\n      and(add(returndatasize, 0x3f), not(0x1f))\n      dup3\n      add\n      0x40\n      mstore\n      returndatasize\n      dup3\n      mstore\n      returndatasize\n      0x00\n      0x20\n      dup5\n      add\n      returndatacopy\n      jump(tag_39)\n    tag_40:\n      0x60\n      swap2\n      pop\n    tag_39:\n      pop\n        /* \"DepositForce.sol\":497:596  (bool sent, bytes memory data) = to.call{gas :10000, value: msg.value}(abi.encodeWithSignature(\"\")) */\n      swap2\n      pop\n      swap2\n      pop\n        /* \"DepositForce.sol\":446:603  function withdrawNotPayable() public payable {... */\n      pop\n      pop\n      jump\t// out\n        /* \"#utility.yul\":7:162   */\n    tag_42:\n      0x00\n        /* \"#utility.yul\":99:105   */\n      dup2\n        /* \"#utility.yul\":86:106   */\n      calldataload\n        /* \"#utility.yul\":77:106   */\n      swap1\n      pop\n        /* \"#utility.yul\":115:156   */\n      tag_44\n        /* \"#utility.yul\":150:155   */\n      dup2\n        /* \"#utility.yul\":115:156   */\n      tag_45\n      jump\t// in\n    tag_44:\n        /* \"#utility.yul\":67:162   */\n      swap3\n      swap2\n      pop\n      pop\n      jump\t// out\n        /* \"#utility.yul\":168:446   */\n    tag_15:\n      0x00\n        /* \"#utility.yul\":284:286   */\n      0x20\n        /* \"#utility.yul\":272:281   */\n      dup3\n        /* \"#utility.yul\":263:270   */\n      dup5\n        /* \"#utility.yul\":259:282   */\n      sub\n        /* \"#utility.yul\":255:287   */\n      slt\n        /* \"#utility.yul\":252:254   */\n      iszero\n      tag_47\n      jumpi\n        /* \"#utility.yul\":300:301   */\n      0x00\n        /* \"#utility.yul\":297:298   */\n      dup1\n        /* \"#utility.yul\":290:302   */\n      revert\n        /* \"#utility.yul\":252:254   */\n    tag_47:\n        /* \"#utility.yul\":343:344   */\n      0x00\n        /* \"#utility.yul\":368:429   */\n      tag_48\n        /* \"#utility.yul\":421:428   */\n      dup5\n        /* \"#utility.yul\":412:418   */\n      dup3\n        /* \"#utility.yul\":401:410   */\n      dup6\n        /* \"#utility.yul\":397:419   */\n      add\n        /* \"#utility.yul\":368:429   */\n      tag_42\n      jump\t// in\n    tag_48:\n        /* \"#utility.yul\":358:429   */\n      swap2\n      pop\n        /* \"#utility.yul\":314:439   */\n      pop\n        /* \"#utility.yul\":242:446   */\n      swap3\n      swap2\n      pop\n      pop\n      jump\t// out\n        /* \"#utility.yul\":452:825   */\n    tag_49:\n      0x00\n        /* \"#utility.yul\":584:622   */\n      tag_51\n        /* \"#utility.yul\":616:621   */\n      dup3\n        /* \"#utility.yul\":584:622   */\n      tag_52\n      jump\t// in\n    tag_51:\n        /* \"#utility.yul\":638:726   */\n      tag_53\n        /* \"#utility.yul\":719:725   */\n      dup2\n        /* \"#utility.yul\":714:717   */\n      dup6\n        /* \"#utility.yul\":638:726   */\n      tag_54\n      jump\t// in\n    tag_53:\n        /* \"#utility.yul\":631:726   */\n      swap4\n      pop\n        /* \"#utility.yul\":735:787   */\n      tag_55\n        /* \"#utility.yul\":780:786   */\n      dup2\n        /* \"#utility.yul\":775:778   */\n      dup6\n        /* \"#utility.yul\":768:772   */\n      0x20\n        /* \"#utility.yul\":761:766   */\n      dup7\n        /* \"#utility.yul\":757:773   */\n      add\n        /* \"#utility.yul\":735:787   */\n      tag_56\n      jump\t// in\n    tag_55:\n        /* \"#utility.yul\":812:818   */\n      dup1\n        /* \"#utility.yul\":807:810   */\n      dup5\n        /* \"#utility.yul\":803:819   */\n      add\n        /* \"#utility.yul\":796:819   */\n      swap2\n      pop\n        /* \"#utility.yul\":560:825   */\n      pop\n      swap3\n      swap2\n      pop\n      pop\n      jump\t// out\n        /* \"#utility.yul\":831:1195   */\n    tag_57:\n      0x00\n        /* \"#utility.yul\":947:986   */\n      tag_59\n        /* \"#utility.yul\":980:985   */\n      dup3\n        /* \"#utility.yul\":947:986   */\n      tag_60\n      jump\t// in\n    tag_59:\n        /* \"#utility.yul\":1002:1073   */\n      tag_61\n        /* \"#utility.yul\":1066:1072   */\n      dup2\n        /* \"#utility.yul\":1061:1064   */\n      dup6\n        /* \"#utility.yul\":1002:1073   */\n      tag_62\n      jump\t// in\n    tag_61:\n        /* \"#utility.yul\":995:1073   */\n      swap4\n      pop\n        /* \"#utility.yul\":1082:1134   */\n      tag_63\n        /* \"#utility.yul\":1127:1133   */\n      dup2\n        /* \"#utility.yul\":1122:1125   */\n      dup6\n        /* \"#utility.yul\":1115:1119   */\n      0x20\n        /* \"#utility.yul\":1108:1113   */\n      dup7\n        /* \"#utility.yul\":1104:1120   */\n      add\n        /* \"#utility.yul\":1082:1134   */\n      tag_56\n      jump\t// in\n    tag_63:\n        /* \"#utility.yul\":1159:1188   */\n      tag_64\n        /* \"#utility.yul\":1181:1187   */\n      dup2\n        /* \"#utility.yul\":1159:1188   */\n      tag_65\n      jump\t// in\n    tag_64:\n        /* \"#utility.yul\":1154:1157   */\n      dup5\n        /* \"#utility.yul\":1150:1189   */\n      add\n        /* \"#utility.yul\":1143:1189   */\n      swap2\n      pop\n        /* \"#utility.yul\":923:1195   */\n      pop\n      swap3\n      swap2\n      pop\n      pop\n      jump\t// out\n        /* \"#utility.yul\":1201:1519   */\n    tag_66:\n      0x00\n        /* \"#utility.yul\":1364:1431   */\n      tag_68\n        /* \"#utility.yul\":1428:1430   */\n      0x14\n        /* \"#utility.yul\":1423:1426   */\n      dup4\n        /* \"#utility.yul\":1364:1431   */\n      tag_62\n      jump\t// in\n    tag_68:\n        /* \"#utility.yul\":1357:1431   */\n      swap2\n      pop\n        /* \"#utility.yul\":1461:1483   */\n      0x4661696c656420746f2073656e64204574686572000000000000000000000000\n        /* \"#utility.yul\":1457:1458   */\n      0x00\n        /* \"#utility.yul\":1452:1455   */\n      dup4\n        /* \"#utility.yul\":1448:1459   */\n      add\n        /* \"#utility.yul\":1441:1484   */\n      mstore\n        /* \"#utility.yul\":1510:1512   */\n      0x20\n        /* \"#utility.yul\":1505:1508   */\n      dup3\n        /* \"#utility.yul\":1501:1513   */\n      add\n        /* \"#utility.yul\":1494:1513   */\n      swap1\n      pop\n        /* \"#utility.yul\":1347:1519   */\n      swap2\n      swap1\n      pop\n      jump\t// out\n        /* \"#utility.yul\":1525:1796   */\n    tag_21:\n      0x00\n        /* \"#utility.yul\":1677:1770   */\n      tag_70\n        /* \"#utility.yul\":1766:1769   */\n      dup3\n        /* \"#utility.yul\":1757:1763   */\n      dup5\n        /* \"#utility.yul\":1677:1770   */\n      tag_49\n      jump\t// in\n    tag_70:\n        /* \"#utility.yul\":1670:1770   */\n      swap2\n      pop\n        /* \"#utility.yul\":1787:1790   */\n      dup2\n        /* \"#utility.yul\":1780:1790   */\n      swap1\n      pop\n        /* \"#utility.yul\":1659:1796   */\n      swap3\n      swap2\n      pop\n      pop\n      jump\t// out\n        /* \"#utility.yul\":1802:2115   */\n    tag_12:\n      0x00\n        /* \"#utility.yul\":1953:1955   */\n      0x20\n        /* \"#utility.yul\":1942:1951   */\n      dup3\n        /* \"#utility.yul\":1938:1956   */\n      add\n        /* \"#utility.yul\":1930:1956   */\n      swap1\n      pop\n        /* \"#utility.yul\":2002:2011   */\n      dup2\n        /* \"#utility.yul\":1996:2000   */\n      dup2\n        /* \"#utility.yul\":1992:2012   */\n      sub\n        /* \"#utility.yul\":1988:1989   */\n      0x00\n        /* \"#utility.yul\":1977:1986   */\n      dup4\n        /* \"#utility.yul\":1973:1990   */\n      add\n        /* \"#utility.yul\":1966:2013   */\n      mstore\n        /* \"#utility.yul\":2030:2108   */\n      tag_72\n        /* \"#utility.yul\":2103:2107   */\n      dup2\n        /* \"#utility.yul\":2094:2100   */\n      dup5\n        /* \"#utility.yul\":2030:2108   */\n      tag_57\n      jump\t// in\n    tag_72:\n        /* \"#utility.yul\":2022:2108   */\n      swap1\n      pop\n        /* \"#utility.yul\":1920:2115   */\n      swap3\n      swap2\n      pop\n      pop\n      jump\t// out\n        /* \"#utility.yul\":2121:2540   */\n    tag_35:\n      0x00\n        /* \"#utility.yul\":2325:2327   */\n      0x20\n        /* \"#utility.yul\":2314:2323   */\n      dup3\n        /* \"#utility.yul\":2310:2328   */\n      add\n        /* \"#utility.yul\":2302:2328   */\n      swap1\n      pop\n        /* \"#utility.yul\":2374:2383   */\n      dup2\n        /* \"#utility.yul\":2368:2372   */\n      dup2\n        /* \"#utility.yul\":2364:2384   */\n      sub\n        /* \"#utility.yul\":2360:2361   */\n      0x00\n        /* \"#utility.yul\":2349:2358   */\n      dup4\n        /* \"#utility.yul\":2345:2362   */\n      add\n        /* \"#utility.yul\":2338:2385   */\n      mstore\n        /* \"#utility.yul\":2402:2533   */\n      tag_74\n        /* \"#utility.yul\":2528:2532   */\n      dup2\n        /* \"#utility.yul\":2402:2533   */\n      tag_66\n      jump\t// in\n    tag_74:\n        /* \"#utility.yul\":2394:2533   */\n      swap1\n      pop\n        /* \"#utility.yul\":2292:2540   */\n      swap2\n      swap1\n      pop\n      jump\t// out\n        /* \"#utility.yul\":2546:2644   */\n    tag_52:\n      0x00\n        /* \"#utility.yul\":2631:2636   */\n      dup2\n        /* \"#utility.yul\":2625:2637   */\n      mload\n        /* \"#utility.yul\":2615:2637   */\n      swap1\n      pop\n        /* \"#utility.yul\":2604:2644   */\n      swap2\n      swap1\n      pop\n      jump\t// out\n        /* \"#utility.yul\":2650:2749   */\n    tag_60:\n      0x00\n        /* \"#utility.yul\":2736:2741   */\n      dup2\n        /* \"#utility.yul\":2730:2742   */\n      mload\n        /* \"#utility.yul\":2720:2742   */\n      swap1\n      pop\n        /* \"#utility.yul\":2709:2749   */\n      swap2\n      swap1\n      pop\n      jump\t// out\n        /* \"#utility.yul\":2755:2902   */\n    tag_54:\n      0x00\n        /* \"#utility.yul\":2893:2896   */\n      dup2\n        /* \"#utility.yul\":2878:2896   */\n      swap1\n      pop\n        /* \"#utility.yul\":2868:2902   */\n      swap3\n      swap2\n      pop\n      pop\n      jump\t// out\n        /* \"#utility.yul\":2908:3077   */\n    tag_62:\n      0x00\n        /* \"#utility.yul\":3026:3032   */\n      dup3\n        /* \"#utility.yul\":3021:3024   */\n      dup3\n        /* \"#utility.yul\":3014:3033   */\n      mstore\n        /* \"#utility.yul\":3066:3070   */\n      0x20\n        /* \"#utility.yul\":3061:3064   */\n      dup3\n        /* \"#utility.yul\":3057:3071   */\n      add\n        /* \"#utility.yul\":3042:3071   */\n      swap1\n      pop\n        /* \"#utility.yul\":3004:3077   */\n      swap3\n      swap2\n      pop\n      pop\n      jump\t// out\n        /* \"#utility.yul\":3083:3187   */\n    tag_79:\n      0x00\n        /* \"#utility.yul\":3157:3181   */\n      tag_81\n        /* \"#utility.yul\":3175:3180   */\n      dup3\n        /* \"#utility.yul\":3157:3181   */\n      tag_82\n      jump\t// in\n    tag_81:\n        /* \"#utility.yul\":3146:3181   */\n      swap1\n      pop\n        /* \"#utility.yul\":3136:3187   */\n      swap2\n      swap1\n      pop\n      jump\t// out\n        /* \"#utility.yul\":3193:3319   */\n    tag_82:\n      0x00\n        /* \"#utility.yul\":3270:3312   */\n      0xffffffffffffffffffffffffffffffffffffffff\n        /* \"#utility.yul\":3263:3268   */\n      dup3\n        /* \"#utility.yul\":3259:3313   */\n      and\n        /* \"#utility.yul\":3248:3313   */\n      swap1\n      pop\n        /* \"#utility.yul\":3238:3319   */\n      swap2\n      swap1\n      pop\n      jump\t// out\n        /* \"#utility.yul\":3325:3632   */\n    tag_56:\n        /* \"#utility.yul\":3393:3394   */\n      0x00\n        /* \"#utility.yul\":3403:3516   */\n    tag_85:\n        /* \"#utility.yul\":3417:3423   */\n      dup4\n        /* \"#utility.yul\":3414:3415   */\n      dup2\n        /* \"#utility.yul\":3411:3424   */\n      lt\n        /* \"#utility.yul\":3403:3516   */\n      iszero\n      tag_87\n      jumpi\n        /* \"#utility.yul\":3502:3503   */\n      dup1\n        /* \"#utility.yul\":3497:3500   */\n      dup3\n        /* \"#utility.yul\":3493:3504   */\n      add\n        /* \"#utility.yul\":3487:3505   */\n      mload\n        /* \"#utility.yul\":3483:3484   */\n      dup2\n        /* \"#utility.yul\":3478:3481   */\n      dup5\n        /* \"#utility.yul\":3474:3485   */\n      add\n        /* \"#utility.yul\":3467:3506   */\n      mstore\n        /* \"#utility.yul\":3439:3441   */\n      0x20\n        /* \"#utility.yul\":3436:3437   */\n      dup2\n        /* \"#utility.yul\":3432:3442   */\n      add\n        /* \"#utility.yul\":3427:3442   */\n      swap1\n      pop\n        /* \"#utility.yul\":3403:3516   */\n      jump(tag_85)\n    tag_87:\n        /* \"#utility.yul\":3534:3540   */\n      dup4\n        /* \"#utility.yul\":3531:3532   */\n      dup2\n        /* \"#utility.yul\":3528:3541   */\n      gt\n        /* \"#utility.yul\":3525:3527   */\n      iszero\n      tag_88\n      jumpi\n        /* \"#utility.yul\":3614:3615   */\n      0x00\n        /* \"#utility.yul\":3605:3611   */\n      dup5\n        /* \"#utility.yul\":3600:3603   */\n      dup5\n        /* \"#utility.yul\":3596:3612   */\n      add\n        /* \"#utility.yul\":3589:3616   */\n      mstore\n        /* \"#utility.yul\":3525:3527   */\n    tag_88:\n        /* \"#utility.yul\":3374:3632   */\n      pop\n      pop\n      pop\n      pop\n      jump\t// out\n        /* \"#utility.yul\":3638:3958   */\n    tag_26:\n      0x00\n        /* \"#utility.yul\":3719:3720   */\n      0x02\n        /* \"#utility.yul\":3713:3717   */\n      dup3\n        /* \"#utility.yul\":3709:3721   */\n      div\n        /* \"#utility.yul\":3699:3721   */\n      swap1\n      pop\n        /* \"#utility.yul\":3766:3767   */\n      0x01\n        /* \"#utility.yul\":3760:3764   */\n      dup3\n        /* \"#utility.yul\":3756:3768   */\n      and\n        /* \"#utility.yul\":3787:3805   */\n      dup1\n        /* \"#utility.yul\":3777:3779   */\n      tag_90\n      jumpi\n        /* \"#utility.yul\":3843:3847   */\n      0x7f\n        /* \"#utility.yul\":3835:3841   */\n      dup3\n        /* \"#utility.yul\":3831:3848   */\n      and\n        /* \"#utility.yul\":3821:3848   */\n      swap2\n      pop\n        /* \"#utility.yul\":3777:3779   */\n    tag_90:\n        /* \"#utility.yul\":3905:3907   */\n      0x20\n        /* \"#utility.yul\":3897:3903   */\n      dup3\n        /* \"#utility.yul\":3894:3908   */\n      lt\n        /* \"#utility.yul\":3874:3892   */\n      dup2\n        /* \"#utility.yul\":3871:3909   */\n      eq\n        /* \"#utility.yul\":3868:3870   */\n      iszero\n      tag_91\n      jumpi\n        /* \"#utility.yul\":3924:3942   */\n      tag_92\n      tag_93\n      jump\t// in\n    tag_92:\n        /* \"#utility.yul\":3868:3870   */\n    tag_91:\n        /* \"#utility.yul\":3689:3958   */\n      pop\n      swap2\n      swap1\n      pop\n      jump\t// out\n        /* \"#utility.yul\":3964:4144   */\n    tag_93:\n        /* \"#utility.yul\":4012:4089   */\n      0x4e487b7100000000000000000000000000000000000000000000000000000000\n        /* \"#utility.yul\":4009:4010   */\n      0x00\n        /* \"#utility.yul\":4002:4090   */\n      mstore\n        /* \"#utility.yul\":4109:4113   */\n      0x22\n        /* \"#utility.yul\":4106:4107   */\n      0x04\n        /* \"#utility.yul\":4099:4114   */\n      mstore\n        /* \"#utility.yul\":4133:4137   */\n      0x24\n        /* \"#utility.yul\":4130:4131   */\n      0x00\n        /* \"#utility.yul\":4123:4138   */\n      revert\n        /* \"#utility.yul\":4150:4252   */\n    tag_65:\n      0x00\n        /* \"#utility.yul\":4242:4244   */\n      0x1f\n        /* \"#utility.yul\":4238:4245   */\n      not\n        /* \"#utility.yul\":4233:4235   */\n      0x1f\n        /* \"#utility.yul\":4226:4231   */\n      dup4\n        /* \"#utility.yul\":4222:4236   */\n      add\n        /* \"#utility.yul\":4218:4246   */\n      and\n        /* \"#utility.yul\":4208:4246   */\n      swap1\n      pop\n        /* \"#utility.yul\":4198:4252   */\n      swap2\n      swap1\n      pop\n      jump\t// out\n        /* \"#utility.yul\":4258:4396   */\n    tag_45:\n        /* \"#utility.yul\":4339:4371   */\n      tag_97\n        /* \"#utility.yul\":4365:4370   */\n      dup2\n        /* \"#utility.yul\":4339:4371   */\n      tag_79\n      jump\t// in\n    tag_97:\n        /* \"#utility.yul\":4332:4337   */\n      dup2\n        /* \"#utility.yul\":4329:4372   */\n      eq\n        /* \"#utility.yul\":4319:4321   */\n      tag_98\n      jumpi\n        /* \"#utility.yul\":4386:4387   */\n      0x00\n        /* \"#utility.yul\":4383:4384   */\n      dup1\n        /* \"#utility.yul\":4376:4388   */\n      revert\n        /* \"#utility.yul\":4319:4321   */\n    tag_98:\n        /* \"#utility.yul\":4309:4396   */\n      pop\n      jump\t// out\n\n    auxdata: 0xa26469706673582212200d08b22f506b01128cc4aa53e53e1d9d83265aa30105146be811c3e6883457f764736f6c63430008000033\n}\n",
				"bytecode": {
					"linkReferences": {},
					"object": "60806040526040518060400160405280600481526020017f6d656f77000000000000000000000000000000000000000000000000000000008152506000908051906020019061004f9291906100aa565b5073e3f80ba82fcaf5946306d32e782378a4a50da5ff600160006101000a81548173ffffffffffffffffffffffffffffffffffffffff021916908373ffffffffffffffffffffffffffffffffffffffff1602179055506101ae565b8280546100b69061014d565b90600052602060002090601f0160209004810192826100d8576000855561011f565b82601f106100f157805160ff191683800117855561011f565b8280016001018555821561011f579182015b8281111561011e578251825591602001919060010190610103565b5b50905061012c9190610130565b5090565b5b80821115610149576000816000905550600101610131565b5090565b6000600282049050600182168061016557607f821691505b602082108114156101795761017861017f565b5b50919050565b7f4e487b7100000000000000000000000000000000000000000000000000000000600052602260045260246000fd5b610679806101bd6000396000f3fe60806040526004361061003f5760003560e01c806308b2770f14610044578063a99dca3f1461004e578063f356284114610079578063f775ea2214610095575b600080fd5b61004c61009f565b005b34801561005a57600080fd5b506100636101bb565b60405161007091906104e1565b60405180910390f35b610093600480360381019061008e91906103f7565b610249565b005b61009d6102c6565b005b600080600160009054906101000a900473ffffffffffffffffffffffffffffffffffffffff1673ffffffffffffffffffffffffffffffffffffffff16612710346040516024016040516020818303038152906040527fc5d24601000000000000000000000000000000000000000000000000000000007bffffffffffffffffffffffffffffffffffffffffffffffffffffffff19166020820180517bffffffffffffffffffffffffffffffffffffffffffffffffffffffff838183161783525050505060405161016f91906104ca565b600060405180830381858888f193505050503d80600081146101ad576040519150601f19603f3d011682016040523d82523d6000602084013e6101b2565b606091505b50915091505050565b600080546101c8906105ba565b80601f01602080910402602001604051908101604052809291908181526020018280546101f4906105ba565b80156102415780601f1061021657610100808354040283529160200191610241565b820191906000526020600020905b81548152906001019060200180831161022457829003601f168201915b505050505081565b60008173ffffffffffffffffffffffffffffffffffffffff166108fc349081150290604051600060405180830381858888f193505050509050806102c2576040517f08c379a00000000000000000000000000000000000000000000000000000000081526004016102b990610503565b60405180910390fd5b5050565b600080600160009054906101000a900473ffffffffffffffffffffffffffffffffffffffff1673ffffffffffffffffffffffffffffffffffffffff16612710346040516024016040516020818303038152906040527fc5d24601000000000000000000000000000000000000000000000000000000007bffffffffffffffffffffffffffffffffffffffffffffffffffffffff19166020820180517bffffffffffffffffffffffffffffffffffffffffffffffffffffffff838183161783525050505060405161039691906104ca565b600060405180830381858888f193505050503d80600081146103d4576040519150601f19603f3d011682016040523d82523d6000602084013e6103d9565b606091505b50915091505050565b6000813590506103f18161062c565b92915050565b60006020828403121561040957600080fd5b6000610417848285016103e2565b91505092915050565b600061042b82610523565b6104358185610539565b9350610445818560208601610587565b80840191505092915050565b600061045c8261052e565b6104668185610544565b9350610476818560208601610587565b61047f8161061b565b840191505092915050565b6000610497601483610544565b91507f4661696c656420746f2073656e642045746865720000000000000000000000006000830152602082019050919050565b60006104d68284610420565b915081905092915050565b600060208201905081810360008301526104fb8184610451565b905092915050565b6000602082019050818103600083015261051c8161048a565b9050919050565b600081519050919050565b600081519050919050565b600081905092915050565b600082825260208201905092915050565b600061056082610567565b9050919050565b600073ffffffffffffffffffffffffffffffffffffffff82169050919050565b60005b838110156105a557808201518184015260208101905061058a565b838111156105b4576000848401525b50505050565b600060028204905060018216806105d257607f821691505b602082108114156105e6576105e56105ec565b5b50919050565b7f4e487b7100000000000000000000000000000000000000000000000000000000600052602260045260246000fd5b6000601f19601f8301169050919050565b61063581610555565b811461064057600080fd5b5056fea26469706673582212200d08b22f506b01128cc4aa53e53e1d9d83265aa30105146be811c3e6883457f764736f6c63430008000033",
					"opcodes": "PUSH1 0x80 PUSH1 0x40 MSTORE PUSH1 0x40 MLOAD DUP1 PUSH1 0x40 ADD PUSH1 0x40 MSTORE DUP1 PUSH1 0x4 DUP2 MSTORE PUSH1 0x20 ADD PUSH32 0x6D656F7700000000000000000000000000000000000000000000000000000000 DUP2 MSTORE POP PUSH1 0x0 SWAP1 DUP1 MLOAD SWAP1 PUSH1 0x20 ADD SWAP1 PUSH2 0x4F SWAP3 SWAP2 SWAP1 PUSH2 0xAA JUMP JUMPDEST POP PUSH20 0xE3F80BA82FCAF5946306D32E782378A4A50DA5FF PUSH1 0x1 PUSH1 0x0 PUSH2 0x100 EXP DUP2 SLOAD DUP2 PUSH20 0xFFFFFFFFFFFFFFFFFFFFFFFFFFFFFFFFFFFFFFFF MUL NOT AND SWAP1 DUP4 PUSH20 0xFFFFFFFFFFFFFFFFFFFFFFFFFFFFFFFFFFFFFFFF AND MUL OR SWAP1 SSTORE POP PUSH2 0x1AE JUMP JUMPDEST DUP3 DUP1 SLOAD PUSH2 0xB6 SWAP1 PUSH2 0x14D JUMP JUMPDEST SWAP1 PUSH1 0x0 MSTORE PUSH1 0x20 PUSH1 0x0 KECCAK256 SWAP1 PUSH1 0x1F ADD PUSH1 0x20 SWAP1 DIV DUP2 ADD SWAP3 DUP3 PUSH2 0xD8 JUMPI PUSH1 0x0 DUP6 SSTORE PUSH2 0x11F JUMP JUMPDEST DUP3 PUSH1 0x1F LT PUSH2 0xF1 JUMPI DUP1 MLOAD PUSH1 0xFF NOT AND DUP4 DUP1 ADD OR DUP6 SSTORE PUSH2 0x11F JUMP JUMPDEST DUP3 DUP1 ADD PUSH1 0x1 ADD DUP6 SSTORE DUP3 ISZERO PUSH2 0x11F JUMPI SWAP2 DUP3 ADD JUMPDEST DUP3 DUP2 GT ISZERO PUSH2 0x11E JUMPI DUP3 MLOAD DUP3 SSTORE SWAP2 PUSH1 0x20 ADD SWAP2 SWAP1 PUSH1 0x1 ADD SWAP1 PUSH2 0x103 JUMP JUMPDEST JUMPDEST POP SWAP1 POP PUSH2 0x12C SWAP2 SWAP1 PUSH2 0x130 JUMP JUMPDEST POP SWAP1 JUMP JUMPDEST JUMPDEST DUP1 DUP3 GT ISZERO PUSH2 0x149 JUMPI PUSH1 0x0 DUP2 PUSH1 0x0 SWAP1 SSTORE POP PUSH1 0x1 ADD PUSH2 0x131 JUMP JUMPDEST POP SWAP1 JUMP JUMPDEST PUSH1 0x0 PUSH1 0x2 DUP3 DIV SWAP1 POP PUSH1 0x1 DUP3 AND DUP1 PUSH2 0x165 JUMPI PUSH1 0x7F DUP3 AND SWAP2 POP JUMPDEST PUSH1 0x20 DUP3 LT DUP2 EQ ISZERO PUSH2 0x179 JUMPI PUSH2 0x178 PUSH2 0x17F JUMP JUMPDEST JUMPDEST POP SWAP2 SWAP1 POP JUMP JUMPDEST PUSH32 0x4E487B7100000000000000000000000000000000000000000000000000000000 PUSH1 0x0 MSTORE PUSH1 0x22 PUSH1 0x4 MSTORE PUSH1 0x24 PUSH1 0x0 REVERT JUMPDEST PUSH2 0x679 DUP1 PUSH2 0x1BD PUSH1 0x0 CODECOPY PUSH1 0x0 RETURN INVALID PUSH1 0x80 PUSH1 0x40 MSTORE PUSH1 0x4 CALLDATASIZE LT PUSH2 0x3F JUMPI PUSH1 0x0 CALLDATALOAD PUSH1 0xE0 SHR DUP1 PUSH4 0x8B2770F EQ PUSH2 0x44 JUMPI DUP1 PUSH4 0xA99DCA3F EQ PUSH2 0x4E JUMPI DUP1 PUSH4 0xF3562841 EQ PUSH2 0x79 JUMPI DUP1 PUSH4 0xF775EA22 EQ PUSH2 0x95 JUMPI JUMPDEST PUSH1 0x0 DUP1 REVERT JUMPDEST PUSH2 0x4C PUSH2 0x9F JUMP JUMPDEST STOP JUMPDEST CALLVALUE DUP1 ISZERO PUSH2 0x5A JUMPI PUSH1 0x0 DUP1 REVERT JUMPDEST POP PUSH2 0x63 PUSH2 0x1BB JUMP JUMPDEST PUSH1 0x40 MLOAD PUSH2 0x70 SWAP2 SWAP1 PUSH2 0x4E1 JUMP JUMPDEST PUSH1 0x40 MLOAD DUP1 SWAP2 SUB SWAP1 RETURN JUMPDEST PUSH2 0x93 PUSH1 0x4 DUP1 CALLDATASIZE SUB DUP2 ADD SWAP1 PUSH2 0x8E SWAP2 SWAP1 PUSH2 0x3F7 JUMP JUMPDEST PUSH2 0x249 JUMP JUMPDEST STOP JUMPDEST PUSH2 0x9D PUSH2 0x2C6 JUMP JUMPDEST STOP JUMPDEST PUSH1 0x0 DUP1 PUSH1 0x1 PUSH1 0x0 SWAP1 SLOAD SWAP1 PUSH2 0x100 EXP SWAP1 DIV PUSH20 0xFFFFFFFFFFFFFFFFFFFFFFFFFFFFFFFFFFFFFFFF AND PUSH20 0xFFFFFFFFFFFFFFFFFFFFFFFFFFFFFFFFFFFFFFFF AND PUSH2 0x2710 CALLVALUE PUSH1 0x40 MLOAD PUSH1 0x24 ADD PUSH1 0x40 MLOAD PUSH1 0x20 DUP2 DUP4 SUB SUB DUP2 MSTORE SWAP1 PUSH1 0x40 MSTORE PUSH32 0xC5D2460100000000000000000000000000000000000000000000000000000000 PUSH28 0xFFFFFFFFFFFFFFFFFFFFFFFFFFFFFFFFFFFFFFFFFFFFFFFFFFFFFFFF NOT AND PUSH1 0x20 DUP3 ADD DUP1 MLOAD PUSH28 0xFFFFFFFFFFFFFFFFFFFFFFFFFFFFFFFFFFFFFFFFFFFFFFFFFFFFFFFF DUP4 DUP2 DUP4 AND OR DUP4 MSTORE POP POP POP POP PUSH1 0x40 MLOAD PUSH2 0x16F SWAP2 SWAP1 PUSH2 0x4CA JUMP JUMPDEST PUSH1 0x0 PUSH1 0x40 MLOAD DUP1 DUP4 SUB DUP2 DUP6 DUP9 DUP9 CALL SWAP4 POP POP POP POP RETURNDATASIZE DUP1 PUSH1 0x0 DUP2 EQ PUSH2 0x1AD JUMPI PUSH1 0x40 MLOAD SWAP2 POP PUSH1 0x1F NOT PUSH1 0x3F RETURNDATASIZE ADD AND DUP3 ADD PUSH1 0x40 MSTORE RETURNDATASIZE DUP3 MSTORE RETURNDATASIZE PUSH1 0x0 PUSH1 0x20 DUP5 ADD RETURNDATACOPY PUSH2 0x1B2 JUMP JUMPDEST PUSH1 0x60 SWAP2 POP JUMPDEST POP SWAP2 POP SWAP2 POP POP POP JUMP JUMPDEST PUSH1 0x0 DUP1 SLOAD PUSH2 0x1C8 SWAP1 PUSH2 0x5BA JUMP JUMPDEST DUP1 PUSH1 0x1F ADD PUSH1 0x20 DUP1 SWAP2 DIV MUL PUSH1 0x20 ADD PUSH1 0x40 MLOAD SWAP1 DUP2 ADD PUSH1 0x40 MSTORE DUP1 SWAP3 SWAP2 SWAP1 DUP2 DUP2 MSTORE PUSH1 0x20 ADD DUP3 DUP1 SLOAD PUSH2 0x1F4 SWAP1 PUSH2 0x5BA JUMP JUMPDEST DUP1 ISZERO PUSH2 0x241 JUMPI DUP1 PUSH1 0x1F LT PUSH2 0x216 JUMPI PUSH2 0x100 DUP1 DUP4 SLOAD DIV MUL DUP4 MSTORE SWAP2 PUSH1 0x20 ADD SWAP2 PUSH2 0x241 JUMP JUMPDEST DUP3 ADD SWAP2 SWAP1 PUSH1 0x0 MSTORE PUSH1 0x20 PUSH1 0x0 KECCAK256 SWAP1 JUMPDEST DUP2 SLOAD DUP2 MSTORE SWAP1 PUSH1 0x1 ADD SWAP1 PUSH1 0x20 ADD DUP1 DUP4 GT PUSH2 0x224 JUMPI DUP3 SWAP1 SUB PUSH1 0x1F AND DUP3 ADD SWAP2 JUMPDEST POP POP POP POP POP DUP2 JUMP JUMPDEST PUSH1 0x0 DUP2 PUSH20 0xFFFFFFFFFFFFFFFFFFFFFFFFFFFFFFFFFFFFFFFF AND PUSH2 0x8FC CALLVALUE SWAP1 DUP2 ISZERO MUL SWAP1 PUSH1 0x40 MLOAD PUSH1 0x0 PUSH1 0x40 MLOAD DUP1 DUP4 SUB DUP2 DUP6 DUP9 DUP9 CALL SWAP4 POP POP POP POP SWAP1 POP DUP1 PUSH2 0x2C2 JUMPI PUSH1 0x40 MLOAD PUSH32 0x8C379A000000000000000000000000000000000000000000000000000000000 DUP2 MSTORE PUSH1 0x4 ADD PUSH2 0x2B9 SWAP1 PUSH2 0x503 JUMP JUMPDEST PUSH1 0x40 MLOAD DUP1 SWAP2 SUB SWAP1 REVERT JUMPDEST POP POP JUMP JUMPDEST PUSH1 0x0 DUP1 PUSH1 0x1 PUSH1 0x0 SWAP1 SLOAD SWAP1 PUSH2 0x100 EXP SWAP1 DIV PUSH20 0xFFFFFFFFFFFFFFFFFFFFFFFFFFFFFFFFFFFFFFFF AND PUSH20 0xFFFFFFFFFFFFFFFFFFFFFFFFFFFFFFFFFFFFFFFF AND PUSH2 0x2710 CALLVALUE PUSH1 0x40 MLOAD PUSH1 0x24 ADD PUSH1 0x40 MLOAD PUSH1 0x20 DUP2 DUP4 SUB SUB DUP2 MSTORE SWAP1 PUSH1 0x40 MSTORE PUSH32 0xC5D2460100000000000000000000000000000000000000000000000000000000 PUSH28 0xFFFFFFFFFFFFFFFFFFFFFFFFFFFFFFFFFFFFFFFFFFFFFFFFFFFFFFFF NOT AND PUSH1 0x20 DUP3 ADD DUP1 MLOAD PUSH28 0xFFFFFFFFFFFFFFFFFFFFFFFFFFFFFFFFFFFFFFFFFFFFFFFFFFFFFFFF DUP4 DUP2 DUP4 AND OR DUP4 MSTORE POP POP POP POP PUSH1 0x40 MLOAD PUSH2 0x396 SWAP2 SWAP1 PUSH2 0x4CA JUMP JUMPDEST PUSH1 0x0 PUSH1 0x40 MLOAD DUP1 DUP4 SUB DUP2 DUP6 DUP9 DUP9 CALL SWAP4 POP POP POP POP RETURNDATASIZE DUP1 PUSH1 0x0 DUP2 EQ PUSH2 0x3D4 JUMPI PUSH1 0x40 MLOAD SWAP2 POP PUSH1 0x1F NOT PUSH1 0x3F RETURNDATASIZE ADD AND DUP3 ADD PUSH1 0x40 MSTORE RETURNDATASIZE DUP3 MSTORE RETURNDATASIZE PUSH1 0x0 PUSH1 0x20 DUP5 ADD RETURNDATACOPY PUSH2 0x3D9 JUMP JUMPDEST PUSH1 0x60 SWAP2 POP JUMPDEST POP SWAP2 POP SWAP2 POP POP POP JUMP JUMPDEST PUSH1 0x0 DUP2 CALLDATALOAD SWAP1 POP PUSH2 0x3F1 DUP2 PUSH2 0x62C JUMP JUMPDEST SWAP3 SWAP2 POP POP JUMP JUMPDEST PUSH1 0x0 PUSH1 0x20 DUP3 DUP5 SUB SLT ISZERO PUSH2 0x409 JUMPI PUSH1 0x0 DUP1 REVERT JUMPDEST PUSH1 0x0 PUSH2 0x417 DUP5 DUP3 DUP6 ADD PUSH2 0x3E2 JUMP JUMPDEST SWAP2 POP POP SWAP3 SWAP2 POP POP JUMP JUMPDEST PUSH1 0x0 PUSH2 0x42B DUP3 PUSH2 0x523 JUMP JUMPDEST PUSH2 0x435 DUP2 DUP6 PUSH2 0x539 JUMP JUMPDEST SWAP4 POP PUSH2 0x445 DUP2 DUP6 PUSH1 0x20 DUP7 ADD PUSH2 0x587 JUMP JUMPDEST DUP1 DUP5 ADD SWAP2 POP POP SWAP3 SWAP2 POP POP JUMP JUMPDEST PUSH1 0x0 PUSH2 0x45C DUP3 PUSH2 0x52E JUMP JUMPDEST PUSH2 0x466 DUP2 DUP6 PUSH2 0x544 JUMP JUMPDEST SWAP4 POP PUSH2 0x476 DUP2 DUP6 PUSH1 0x20 DUP7 ADD PUSH2 0x587 JUMP JUMPDEST PUSH2 0x47F DUP2 PUSH2 0x61B JUMP JUMPDEST DUP5 ADD SWAP2 POP POP SWAP3 SWAP2 POP POP JUMP JUMPDEST PUSH1 0x0 PUSH2 0x497 PUSH1 0x14 DUP4 PUSH2 0x544 JUMP JUMPDEST SWAP2 POP PUSH32 0x4661696C656420746F2073656E64204574686572000000000000000000000000 PUSH1 0x0 DUP4 ADD MSTORE PUSH1 0x20 DUP3 ADD SWAP1 POP SWAP2 SWAP1 POP JUMP JUMPDEST PUSH1 0x0 PUSH2 0x4D6 DUP3 DUP5 PUSH2 0x420 JUMP JUMPDEST SWAP2 POP DUP2 SWAP1 POP SWAP3 SWAP2 POP POP JUMP JUMPDEST PUSH1 0x0 PUSH1 0x20 DUP3 ADD SWAP1 POP DUP2 DUP2 SUB PUSH1 0x0 DUP4 ADD MSTORE PUSH2 0x4FB DUP2 DUP5 PUSH2 0x451 JUMP JUMPDEST SWAP1 POP SWAP3 SWAP2 POP POP JUMP JUMPDEST PUSH1 0x0 PUSH1 0x20 DUP3 ADD SWAP1 POP DUP2 DUP2 SUB PUSH1 0x0 DUP4 ADD MSTORE PUSH2 0x51C DUP2 PUSH2 0x48A JUMP JUMPDEST SWAP1 POP SWAP2 SWAP1 POP JUMP JUMPDEST PUSH1 0x0 DUP2 MLOAD SWAP1 POP SWAP2 SWAP1 POP JUMP JUMPDEST PUSH1 0x0 DUP2 MLOAD SWAP1 POP SWAP2 SWAP1 POP JUMP JUMPDEST PUSH1 0x0 DUP2 SWAP1 POP SWAP3 SWAP2 POP POP JUMP JUMPDEST PUSH1 0x0 DUP3 DUP3 MSTORE PUSH1 0x20 DUP3 ADD SWAP1 POP SWAP3 SWAP2 POP POP JUMP JUMPDEST PUSH1 0x0 PUSH2 0x560 DUP3 PUSH2 0x567 JUMP JUMPDEST SWAP1 POP SWAP2 SWAP1 POP JUMP JUMPDEST PUSH1 0x0 PUSH20 0xFFFFFFFFFFFFFFFFFFFFFFFFFFFFFFFFFFFFFFFF DUP3 AND SWAP1 POP SWAP2 SWAP1 POP JUMP JUMPDEST PUSH1 0x0 JUMPDEST DUP4 DUP2 LT ISZERO PUSH2 0x5A5 JUMPI DUP1 DUP3 ADD MLOAD DUP2 DUP5 ADD MSTORE PUSH1 0x20 DUP2 ADD SWAP1 POP PUSH2 0x58A JUMP JUMPDEST DUP4 DUP2 GT ISZERO PUSH2 0x5B4 JUMPI PUSH1 0x0 DUP5 DUP5 ADD MSTORE JUMPDEST POP POP POP POP JUMP JUMPDEST PUSH1 0x0 PUSH1 0x2 DUP3 DIV SWAP1 POP PUSH1 0x1 DUP3 AND DUP1 PUSH2 0x5D2 JUMPI PUSH1 0x7F DUP3 AND SWAP2 POP JUMPDEST PUSH1 0x20 DUP3 LT DUP2 EQ ISZERO PUSH2 0x5E6 JUMPI PUSH2 0x5E5 PUSH2 0x5EC JUMP JUMPDEST JUMPDEST POP SWAP2 SWAP1 POP JUMP JUMPDEST PUSH32 0x4E487B7100000000000000000000000000000000000000000000000000000000 PUSH1 0x0 MSTORE PUSH1 0x22 PUSH1 0x4 MSTORE PUSH1 0x24 PUSH1 0x0 REVERT JUMPDEST PUSH1 0x0 PUSH1 0x1F NOT PUSH1 0x1F DUP4 ADD AND SWAP1 POP SWAP2 SWAP1 POP JUMP JUMPDEST PUSH2 0x635 DUP2 PUSH2 0x555 JUMP JUMPDEST DUP2 EQ PUSH2 0x640 JUMPI PUSH1 0x0 DUP1 REVERT JUMPDEST POP JUMP INVALID LOG2 PUSH5 0x6970667358 0x22 SLT KECCAK256 0xD ADDMOD 0xB2 0x2F POP PUSH12 0x1128CC4AA53E53E1D9D8326 GAS LOG3 ADD SDIV EQ PUSH12 0xE811C3E6883457F764736F6C PUSH4 0x43000800 STOP CALLER "
				},
				"gasEstimates": {
					"creation": {
						"codeDepositCost": "331400",
						"executionCost": "infinite",
						"totalCost": "infinite"
					},
					"external": {
						"hi()": "infinite",
						"quickTransfer(address)": "infinite",
						"withdrawNotPayable()": "infinite",
						"withdrawPayable()": "infinite"
					}
				},
				"methodIdentifiers": {
					"hi()": "a99dca3f",
					"quickTransfer(address)": "f3562841",
					"withdrawNotPayable()": "f775ea22",
					"withdrawPayable()": "08b2770f"
				}
			},
			"storageLayout": {
				"storage": [
					{
						"astId": 4,
						"contract": "DepositForce.sol:DepositForce",
						"label": "hi",
						"offset": 0,
						"slot": "0",
						"type": "t_string_storage"
					},
					{
						"astId": 11,
						"contract": "DepositForce.sol:DepositForce",
						"label": "to",
						"offset": 0,
						"slot": "1",
						"type": "t_address"
					}
				],
				"types": {
					"t_address": {
						"encoding": "inplace",
						"label": "address",
						"numberOfBytes": "20"
					},
					"t_string_storage": {
						"encoding": "bytes",
						"label": "string",
						"numberOfBytes": "32"
					}
				}
			},
			"userdoc": {
				"kind": "user",
				"methods": {},
				"version": 1
			}
		}
	}
}