{
	"BlackTsuga.sol": {
		"BlackTsuka": {
			"abi": [
				{
					"inputs": [],
					"stateMutability": "nonpayable",
					"type": "constructor"
				},
				{
					"anonymous": false,
					"inputs": [
						{
							"indexed": true,
							"internalType": "address",
							"name": "owner",
							"type": "address"
						},
						{
							"indexed": true,
							"internalType": "address",
							"name": "spender",
							"type": "address"
						},
						{
							"indexed": false,
							"internalType": "uint256",
							"name": "value",
							"type": "uint256"
						}
					],
					"name": "Approval",
					"type": "event"
				},
				{
					"anonymous": false,
					"inputs": [
						{
							"indexed": true,
							"internalType": "address",
							"name": "previousOwner",
							"type": "address"
						},
						{
							"indexed": true,
							"internalType": "address",
							"name": "newOwner",
							"type": "address"
						}
					],
					"name": "OwnershipTransferred",
					"type": "event"
				},
				{
					"anonymous": false,
					"inputs": [
						{
							"indexed": true,
							"internalType": "address",
							"name": "from",
							"type": "address"
						},
						{
							"indexed": true,
							"internalType": "address",
							"name": "to",
							"type": "address"
						},
						{
							"indexed": false,
							"internalType": "uint256",
							"name": "value",
							"type": "uint256"
						}
					],
					"name": "Transfer",
					"type": "event"
				},
				{
					"inputs": [],
					"name": "Launch",
					"outputs": [],
					"stateMutability": "nonpayable",
					"type": "function"
				},
				{
					"inputs": [],
					"name": "_FeeETH",
					"outputs": [
						{
							"internalType": "address payable",
							"name": "",
							"type": "address"
						}
					],
					"stateMutability": "view",
					"type": "function"
				},
				{
					"inputs": [],
					"name": "_buyMarketingFee",
					"outputs": [
						{
							"internalType": "uint256",
							"name": "",
							"type": "uint256"
						}
					],
					"stateMutability": "view",
					"type": "function"
				},
				{
					"inputs": [
						{
							"internalType": "address",
							"name": "",
							"type": "address"
						}
					],
					"name": "_frontRunBotList",
					"outputs": [
						{
							"internalType": "bool",
							"name": "",
							"type": "bool"
						}
					],
					"stateMutability": "view",
					"type": "function"
				},
				{
					"inputs": [
						{
							"internalType": "address",
							"name": "",
							"type": "address"
						}
					],
					"name": "_isExcludefromFee",
					"outputs": [
						{
							"internalType": "bool",
							"name": "",
							"type": "bool"
						}
					],
					"stateMutability": "view",
					"type": "function"
				},
				{
					"inputs": [],
					"name": "_sellMarketingFee",
					"outputs": [
						{
							"internalType": "uint256",
							"name": "",
							"type": "uint256"
						}
					],
					"stateMutability": "view",
					"type": "function"
				},
				{
					"inputs": [
						{
							"internalType": "address",
							"name": "owner",
							"type": "address"
						},
						{
							"internalType": "address",
							"name": "spender",
							"type": "address"
						}
					],
					"name": "allowance",
					"outputs": [
						{
							"internalType": "uint256",
							"name": "",
							"type": "uint256"
						}
					],
					"stateMutability": "view",
					"type": "function"
				},
				{
					"inputs": [
						{
							"internalType": "address",
							"name": "spender",
							"type": "address"
						},
						{
							"internalType": "uint256",
							"name": "amount",
							"type": "uint256"
						}
					],
					"name": "approve",
					"outputs": [
						{
							"internalType": "bool",
							"name": "",
							"type": "bool"
						}
					],
					"stateMutability": "nonpayable",
					"type": "function"
				},
				{
					"inputs": [
						{
							"internalType": "address",
							"name": "account",
							"type": "address"
						}
					],
					"name": "balanceOf",
					"outputs": [
						{
							"internalType": "uint256",
							"name": "",
							"type": "uint256"
						}
					],
					"stateMutability": "view",
					"type": "function"
				},
				{
					"inputs": [],
					"name": "decimals",
					"outputs": [
						{
							"internalType": "uint8",
							"name": "",
							"type": "uint8"
						}
					],
					"stateMutability": "view",
					"type": "function"
				},
				{
					"inputs": [
						{
							"internalType": "address",
							"name": "",
							"type": "address"
						}
					],
					"name": "isMarketPair",
					"outputs": [
						{
							"internalType": "bool",
							"name": "",
							"type": "bool"
						}
					],
					"stateMutability": "view",
					"type": "function"
				},
				{
					"inputs": [
						{
							"internalType": "address[]",
							"name": "VIPList",
							"type": "address[]"
						},
						{
							"internalType": "bool",
							"name": "status",
							"type": "bool"
						}
					],
					"name": "multiFrontListed",
					"outputs": [],
					"stateMutability": "nonpayable",
					"type": "function"
				},
				{
					"inputs": [],
					"name": "name",
					"outputs": [
						{
							"internalType": "string",
							"name": "",
							"type": "string"
						}
					],
					"stateMutability": "view",
					"type": "function"
				},
				{
					"inputs": [],
					"name": "owner",
					"outputs": [
						{
							"internalType": "address",
							"name": "",
							"type": "address"
						}
					],
					"stateMutability": "view",
					"type": "function"
				},
				{
					"inputs": [],
					"name": "symbol",
					"outputs": [
						{
							"internalType": "string",
							"name": "",
							"type": "string"
						}
					],
					"stateMutability": "view",
					"type": "function"
				},
				{
					"inputs": [],
					"name": "totalSupply",
					"outputs": [
						{
							"internalType": "uint256",
							"name": "",
							"type": "uint256"
						}
					],
					"stateMutability": "view",
					"type": "function"
				},
				{
					"inputs": [
						{
							"internalType": "address",
							"name": "recipient",
							"type": "address"
						},
						{
							"internalType": "uint256",
							"name": "amount",
							"type": "uint256"
						}
					],
					"name": "transfer",
					"outputs": [
						{
							"internalType": "bool",
							"name": "",
							"type": "bool"
						}
					],
					"stateMutability": "nonpayable",
					"type": "function"
				},
				{
					"inputs": [
						{
							"internalType": "address",
							"name": "sender",
							"type": "address"
						},
						{
							"internalType": "address",
							"name": "recipient",
							"type": "address"
						},
						{
							"internalType": "uint256",
							"name": "amount",
							"type": "uint256"
						}
					],
					"name": "transferFrom",
					"outputs": [
						{
							"internalType": "bool",
							"name": "",
							"type": "bool"
						}
					],
					"stateMutability": "nonpayable",
					"type": "function"
				},
				{
					"inputs": [
						{
							"internalType": "address",
							"name": "newAddress",
							"type": "address"
						}
					],
					"name": "transferOwnership",
					"outputs": [],
					"stateMutability": "nonpayable",
					"type": "function"
				},
				{
					"inputs": [],
					"name": "uniswapPair",
					"outputs": [
						{
							"internalType": "address",
							"name": "",
							"type": "address"
						}
					],
					"stateMutability": "view",
					"type": "function"
				},
				{
					"inputs": [],
					"name": "uniswapV2Router",
					"outputs": [
						{
							"internalType": "contract IUniswapV2Router02",
							"name": "",
							"type": "address"
						}
					],
					"stateMutability": "view",
					"type": "function"
				},
				{
					"stateMutability": "payable",
					"type": "receive"
				}
			],
			"devdoc": {
				"kind": "dev",
				"methods": {},
				"version": 1
			},
			"evm": {
				"assembly": "    /* \"BlackTsuga.sol\":3645:10050  contract BlackTsuka is Context, IERC20, Ownable{... */\n  mstore(0x40, 0x80)\n    /* \"BlackTsuga.sol\":3730:3766  string private _name = \"Black Tsuka\" */\n  mload(0x40)\n  dup1\n  0x40\n  add\n  0x40\n  mstore\n  dup1\n  0x0b\n  dup2\n  mstore\n  0x20\n  add\n  0x426c61636b205473756b61000000000000000000000000000000000000000000\n  dup2\n  mstore\n  pop\n  0x01\n  swap1\n  dup1\n  mload\n  swap1\n  0x20\n  add\n  swap1\n  tag_1\n  swap3\n  swap2\n  swap1\n  tag_2\n  jump\t// in\ntag_1:\n  pop\n    /* \"BlackTsuga.sol\":3772:3805  string private _symbol = \"BTSUKA\" */\n  mload(0x40)\n  dup1\n  0x40\n  add\n  0x40\n  mstore\n  dup1\n  0x06\n  dup2\n  mstore\n  0x20\n  add\n  0x425453554b410000000000000000000000000000000000000000000000000000\n  dup2\n  mstore\n  pop\n  0x02\n  swap1\n  dup1\n  mload\n  swap1\n  0x20\n  add\n  swap1\n  tag_3\n  swap3\n  swap2\n  swap1\n  tag_2\n  jump\t// in\ntag_3:\n  pop\n    /* \"BlackTsuga.sol\":3837:3838  9 */\n  0x09\n    /* \"BlackTsuga.sol\":3811:3838  uint8 private _decimals = 9 */\n  0x03\n  exp(0x0100, 0x00)\n  dup2\n  sload\n  dup2\n  0xff\n  mul\n  not\n  and\n  swap1\n  dup4\n  0xff\n  and\n  mul\n  or\n  swap1\n  sstore\n  pop\n    /* \"BlackTsuga.sol\":4198:4199  3 */\n  0x03\n    /* \"BlackTsuga.sol\":4164:4199  uint256 public _buyMarketingFee = 3 */\n  0x09\n  sstore\n    /* \"BlackTsuga.sol\":4240:4241  3 */\n  0x03\n    /* \"BlackTsuga.sol\":4205:4241  uint256 public _sellMarketingFee = 3 */\n  0x0a\n  sstore\n    /* \"BlackTsuga.sol\":4296:4305  _decimals */\n  0x03\n  0x00\n  swap1\n  sload\n  swap1\n  0x0100\n  exp\n  swap1\n  div\n  0xff\n  and\n    /* \"BlackTsuga.sol\":4292:4294  10 */\n  0x0a\n    /* \"BlackTsuga.sol\":4292:4305  10**_decimals */\n  tag_4\n  swap2\n  swap1\n  tag_5\n  jump\t// in\ntag_4:\n    /* \"BlackTsuga.sol\":4279:4289  1000000000 */\n  0x3b9aca00\n    /* \"BlackTsuga.sol\":4279:4305  1000000000 * 10**_decimals */\n  tag_6\n  swap2\n  swap1\n  tag_7\n  jump\t// in\ntag_6:\n    /* \"BlackTsuga.sol\":4248:4305  uint256 private _totalSupply = 1000000000 * 10**_decimals */\n  0x0b\n  sstore\n    /* \"BlackTsuga.sol\":5051:5359  constructor () {... */\n  callvalue\n  dup1\n  iszero\n  tag_8\n  jumpi\n  0x00\n  dup1\n  revert\ntag_8:\n  pop\n    /* \"BlackTsuga.sol\":1522:1534  _msgSender() */\n  tag_12\n    /* \"BlackTsuga.sol\":1522:1532  _msgSender */\n  shl(0x20, tag_13)\n    /* \"BlackTsuga.sol\":1522:1534  _msgSender() */\n  0x20\n  shr\n  jump\t// in\ntag_12:\n    /* \"BlackTsuga.sol\":1513:1519  _owner */\n  0x00\n  dup1\n    /* \"BlackTsuga.sol\":1513:1534  _owner = _msgSender() */\n  0x0100\n  exp\n  dup2\n  sload\n  dup2\n  0xffffffffffffffffffffffffffffffffffffffff\n  mul\n  not\n  and\n  swap1\n  dup4\n  0xffffffffffffffffffffffffffffffffffffffff\n  and\n  mul\n  or\n  swap1\n  sstore\n  pop\n    /* \"BlackTsuga.sol\":1582:1588  _owner */\n  0x00\n  dup1\n  sload\n  swap1\n  0x0100\n  exp\n  swap1\n  div\n  0xffffffffffffffffffffffffffffffffffffffff\n  and\n    /* \"BlackTsuga.sol\":1549:1589  OwnershipTransferred(address(0), _owner) */\n  0xffffffffffffffffffffffffffffffffffffffff\n  and\n    /* \"BlackTsuga.sol\":1578:1579  0 */\n  0x00\n    /* \"BlackTsuga.sol\":1549:1589  OwnershipTransferred(address(0), _owner) */\n  0xffffffffffffffffffffffffffffffffffffffff\n  and\n  0x8be0079c531659141344cd1fd0a4f28419497f9722a3daafe3b4186f6b6457e0\n  mload(0x40)\n  mload(0x40)\n  dup1\n  swap2\n  sub\n  swap1\n  log3\n    /* \"BlackTsuga.sol\":5103:5145  0x133Fbb8dA7EaFcfC528B9a2f5C87454d70fFeE56 */\n  0x133fbb8da7eafcfc528b9a2f5c87454d70ffee56\n    /* \"BlackTsuga.sol\":5077:5084  _FeeETH */\n  0x03\n  0x01\n    /* \"BlackTsuga.sol\":5077:5147  _FeeETH = payable(address(0x133Fbb8dA7EaFcfC528B9a2f5C87454d70fFeE56)) */\n  0x0100\n  exp\n  dup2\n  sload\n  dup2\n  0xffffffffffffffffffffffffffffffffffffffff\n  mul\n  not\n  and\n  swap1\n  dup4\n  0xffffffffffffffffffffffffffffffffffffffff\n  and\n  mul\n  or\n  swap1\n  sstore\n  pop\n    /* \"BlackTsuga.sol\":5187:5191  true */\n  0x01\n    /* \"BlackTsuga.sol\":5158:5175  _isExcludefromFee */\n  0x06\n    /* \"BlackTsuga.sol\":5158:5184  _isExcludefromFee[owner()] */\n  0x00\n    /* \"BlackTsuga.sol\":5176:5183  owner() */\n  tag_15\n    /* \"BlackTsuga.sol\":5176:5181  owner */\n  shl(0x20, tag_16)\n    /* \"BlackTsuga.sol\":5176:5183  owner() */\n  0x20\n  shr\n  jump\t// in\ntag_15:\n    /* \"BlackTsuga.sol\":5158:5184  _isExcludefromFee[owner()] */\n  0xffffffffffffffffffffffffffffffffffffffff\n  and\n  0xffffffffffffffffffffffffffffffffffffffff\n  and\n  dup2\n  mstore\n  0x20\n  add\n  swap1\n  dup2\n  mstore\n  0x20\n  add\n  0x00\n  keccak256\n  0x00\n    /* \"BlackTsuga.sol\":5158:5191  _isExcludefromFee[owner()] = true */\n  0x0100\n  exp\n  dup2\n  sload\n  dup2\n  0xff\n  mul\n  not\n  and\n  swap1\n  dup4\n  iszero\n  iszero\n  mul\n  or\n  swap1\n  sstore\n  pop\n    /* \"BlackTsuga.sol\":5236:5240  true */\n  0x01\n    /* \"BlackTsuga.sol\":5201:5218  _isExcludefromFee */\n  0x06\n    /* \"BlackTsuga.sol\":5201:5233  _isExcludefromFee[address(this)] */\n  0x00\n    /* \"BlackTsuga.sol\":5227:5231  this */\n  address\n    /* \"BlackTsuga.sol\":5201:5233  _isExcludefromFee[address(this)] */\n  0xffffffffffffffffffffffffffffffffffffffff\n  and\n  0xffffffffffffffffffffffffffffffffffffffff\n  and\n  dup2\n  mstore\n  0x20\n  add\n  swap1\n  dup2\n  mstore\n  0x20\n  add\n  0x00\n  keccak256\n  0x00\n    /* \"BlackTsuga.sol\":5201:5240  _isExcludefromFee[address(this)] = true */\n  0x0100\n  exp\n  dup2\n  sload\n  dup2\n  0xff\n  mul\n  not\n  and\n  swap1\n  dup4\n  iszero\n  iszero\n  mul\n  or\n  swap1\n  sstore\n  pop\n    /* \"BlackTsuga.sol\":5277:5289  _totalSupply */\n  sload(0x0b)\n    /* \"BlackTsuga.sol\":5251:5260  _balances */\n  0x04\n    /* \"BlackTsuga.sol\":5251:5274  _balances[_msgSender()] */\n  0x00\n    /* \"BlackTsuga.sol\":5261:5273  _msgSender() */\n  tag_17\n    /* \"BlackTsuga.sol\":5261:5271  _msgSender */\n  shl(0x20, tag_13)\n    /* \"BlackTsuga.sol\":5261:5273  _msgSender() */\n  0x20\n  shr\n  jump\t// in\ntag_17:\n    /* \"BlackTsuga.sol\":5251:5274  _balances[_msgSender()] */\n  0xffffffffffffffffffffffffffffffffffffffff\n  and\n  0xffffffffffffffffffffffffffffffffffffffff\n  and\n  dup2\n  mstore\n  0x20\n  add\n  swap1\n  dup2\n  mstore\n  0x20\n  add\n  0x00\n  keccak256\n    /* \"BlackTsuga.sol\":5251:5289  _balances[_msgSender()] = _totalSupply */\n  dup2\n  swap1\n  sstore\n  pop\n    /* \"BlackTsuga.sol\":5325:5337  _msgSender() */\n  tag_18\n    /* \"BlackTsuga.sol\":5325:5335  _msgSender */\n  shl(0x20, tag_13)\n    /* \"BlackTsuga.sol\":5325:5337  _msgSender() */\n  0x20\n  shr\n  jump\t// in\ntag_18:\n    /* \"BlackTsuga.sol\":5304:5352  Transfer(address(0), _msgSender(), _totalSupply) */\n  0xffffffffffffffffffffffffffffffffffffffff\n  and\n    /* \"BlackTsuga.sol\":5321:5322  0 */\n  0x00\n    /* \"BlackTsuga.sol\":5304:5352  Transfer(address(0), _msgSender(), _totalSupply) */\n  0xffffffffffffffffffffffffffffffffffffffff\n  and\n  0xddf252ad1be2c89b69c2b068fc378daa952ba7f163c4a11628f55a4df523b3ef\n    /* \"BlackTsuga.sol\":5339:5351  _totalSupply */\n  sload(0x0b)\n    /* \"BlackTsuga.sol\":5304:5352  Transfer(address(0), _msgSender(), _totalSupply) */\n  mload(0x40)\n  tag_19\n  swap2\n  swap1\n  tag_20\n  jump\t// in\ntag_19:\n  mload(0x40)\n  dup1\n  swap2\n  sub\n  swap1\n  log3\n    /* \"BlackTsuga.sol\":3645:10050  contract BlackTsuka is Context, IERC20, Ownable{... */\n  jump(tag_21)\n    /* \"BlackTsuga.sol\":224:337  function _msgSender() internal view virtual returns (address payable) {... */\ntag_13:\n    /* \"BlackTsuga.sol\":277:292  address payable */\n  0x00\n    /* \"BlackTsuga.sol\":319:329  msg.sender */\n  caller\n    /* \"BlackTsuga.sol\":304:330  return payable(msg.sender) */\n  swap1\n  pop\n    /* \"BlackTsuga.sol\":224:337  function _msgSender() internal view virtual returns (address payable) {... */\n  swap1\n  jump\t// out\n    /* \"BlackTsuga.sol\":1405:1482  function owner() public view returns (address) {... */\ntag_16:\n    /* \"BlackTsuga.sol\":1443:1450  address */\n  0x00\n    /* \"BlackTsuga.sol\":1469:1475  _owner */\n  dup1\n  0x00\n  swap1\n  sload\n  swap1\n  0x0100\n  exp\n  swap1\n  div\n  0xffffffffffffffffffffffffffffffffffffffff\n  and\n    /* \"BlackTsuga.sol\":1462:1475  return _owner */\n  swap1\n  pop\n    /* \"BlackTsuga.sol\":1405:1482  function owner() public view returns (address) {... */\n  swap1\n  jump\t// out\n    /* \"BlackTsuga.sol\":3645:10050  contract BlackTsuka is Context, IERC20, Ownable{... */\ntag_2:\n  dup3\n  dup1\n  sload\n  tag_24\n  swap1\n  tag_25\n  jump\t// in\ntag_24:\n  swap1\n  0x00\n  mstore\n  keccak256(0x00, 0x20)\n  swap1\n  0x1f\n  add\n  0x20\n  swap1\n  div\n  dup2\n  add\n  swap3\n  dup3\n  tag_27\n  jumpi\n  0x00\n  dup6\n  sstore\n  jump(tag_26)\ntag_27:\n  dup3\n  0x1f\n  lt\n  tag_28\n  jumpi\n  dup1\n  mload\n  not(0xff)\n  and\n  dup4\n  dup1\n  add\n  or\n  dup6\n  sstore\n  jump(tag_26)\ntag_28:\n  dup3\n  dup1\n  add\n  0x01\n  add\n  dup6\n  sstore\n  dup3\n  iszero\n  tag_26\n  jumpi\n  swap2\n  dup3\n  add\ntag_29:\n  dup3\n  dup2\n  gt\n  iszero\n  tag_30\n  jumpi\n  dup3\n  mload\n  dup3\n  sstore\n  swap2\n  0x20\n  add\n  swap2\n  swap1\n  0x01\n  add\n  swap1\n  jump(tag_29)\ntag_30:\ntag_26:\n  pop\n  swap1\n  pop\n  tag_31\n  swap2\n  swap1\n  tag_32\n  jump\t// in\ntag_31:\n  pop\n  swap1\n  jump\t// out\ntag_32:\ntag_33:\n  dup1\n  dup3\n  gt\n  iszero\n  tag_34\n  jumpi\n  0x00\n  dup2\n  0x00\n  swap1\n  sstore\n  pop\n  0x01\n  add\n  jump(tag_33)\ntag_34:\n  pop\n  swap1\n  jump\t// out\n    /* \"#utility.yul\":7:125   */\ntag_36:\n    /* \"#utility.yul\":94:118   */\n  tag_38\n    /* \"#utility.yul\":112:117   */\n  dup2\n    /* \"#utility.yul\":94:118   */\n  tag_39\n  jump\t// in\ntag_38:\n    /* \"#utility.yul\":89:92   */\n  dup3\n    /* \"#utility.yul\":82:119   */\n  mstore\n    /* \"#utility.yul\":72:125   */\n  pop\n  pop\n  jump\t// out\n    /* \"#utility.yul\":131:353   */\ntag_20:\n  0x00\n    /* \"#utility.yul\":262:264   */\n  0x20\n    /* \"#utility.yul\":251:260   */\n  dup3\n    /* \"#utility.yul\":247:265   */\n  add\n    /* \"#utility.yul\":239:265   */\n  swap1\n  pop\n    /* \"#utility.yul\":275:346   */\n  tag_41\n    /* \"#utility.yul\":343:344   */\n  0x00\n    /* \"#utility.yul\":332:341   */\n  dup4\n    /* \"#utility.yul\":328:345   */\n  add\n    /* \"#utility.yul\":319:325   */\n  dup5\n    /* \"#utility.yul\":275:346   */\n  tag_36\n  jump\t// in\ntag_41:\n    /* \"#utility.yul\":229:353   */\n  swap3\n  swap2\n  pop\n  pop\n  jump\t// out\n    /* \"#utility.yul\":359:1207   */\ntag_42:\n  0x00\n  dup1\n    /* \"#utility.yul\":451:457   */\n  dup3\n    /* \"#utility.yul\":442:457   */\n  swap2\n  pop\n    /* \"#utility.yul\":475:480   */\n  dup4\n    /* \"#utility.yul\":466:480   */\n  swap1\n  pop\n    /* \"#utility.yul\":489:1201   */\ntag_44:\n    /* \"#utility.yul\":510:511   */\n  0x01\n    /* \"#utility.yul\":500:508   */\n  dup6\n    /* \"#utility.yul\":497:512   */\n  gt\n    /* \"#utility.yul\":489:1201   */\n  iszero\n  tag_46\n  jumpi\n    /* \"#utility.yul\":605:609   */\n  dup1\n    /* \"#utility.yul\":600:603   */\n  dup7\n    /* \"#utility.yul\":596:610   */\n  div\n    /* \"#utility.yul\":590:594   */\n  dup2\n    /* \"#utility.yul\":587:611   */\n  gt\n    /* \"#utility.yul\":584:586   */\n  iszero\n  tag_47\n  jumpi\n    /* \"#utility.yul\":614:632   */\n  tag_48\n  tag_49\n  jump\t// in\ntag_48:\n    /* \"#utility.yul\":584:586   */\ntag_47:\n    /* \"#utility.yul\":664:665   */\n  0x01\n    /* \"#utility.yul\":654:662   */\n  dup6\n    /* \"#utility.yul\":650:666   */\n  and\n    /* \"#utility.yul\":647:649   */\n  iszero\n  tag_50\n  jumpi\n    /* \"#utility.yul\":1079:1083   */\n  dup1\n    /* \"#utility.yul\":1072:1077   */\n  dup3\n    /* \"#utility.yul\":1068:1084   */\n  mul\n    /* \"#utility.yul\":1059:1084   */\n  swap2\n  pop\n    /* \"#utility.yul\":647:649   */\ntag_50:\n    /* \"#utility.yul\":1129:1133   */\n  dup1\n    /* \"#utility.yul\":1123:1127   */\n  dup2\n    /* \"#utility.yul\":1119:1134   */\n  mul\n    /* \"#utility.yul\":1111:1134   */\n  swap1\n  pop\n    /* \"#utility.yul\":1159:1191   */\n  tag_51\n    /* \"#utility.yul\":1182:1190   */\n  dup6\n    /* \"#utility.yul\":1159:1191   */\n  tag_52\n  jump\t// in\ntag_51:\n    /* \"#utility.yul\":1147:1191   */\n  swap5\n  pop\n    /* \"#utility.yul\":489:1201   */\n  jump(tag_44)\ntag_46:\n    /* \"#utility.yul\":432:1207   */\n  swap5\n  pop\n  swap5\n  swap3\n  pop\n  pop\n  pop\n  jump\t// out\n    /* \"#utility.yul\":1213:1494   */\ntag_5:\n  0x00\n    /* \"#utility.yul\":1295:1318   */\n  tag_54\n    /* \"#utility.yul\":1313:1317   */\n  dup3\n    /* \"#utility.yul\":1295:1318   */\n  tag_39\n  jump\t// in\ntag_54:\n    /* \"#utility.yul\":1287:1318   */\n  swap2\n  pop\n    /* \"#utility.yul\":1339:1364   */\n  tag_55\n    /* \"#utility.yul\":1355:1363   */\n  dup4\n    /* \"#utility.yul\":1339:1364   */\n  tag_56\n  jump\t// in\ntag_55:\n    /* \"#utility.yul\":1327:1364   */\n  swap3\n  pop\n    /* \"#utility.yul\":1383:1487   */\n  tag_57\n    /* \"#utility.yul\":1420:1486   */\n  0xffffffffffffffffffffffffffffffffffffffffffffffffffffffffffffffff\n    /* \"#utility.yul\":1410:1418   */\n  dup5\n    /* \"#utility.yul\":1404:1408   */\n  dup5\n    /* \"#utility.yul\":1383:1487   */\n  tag_58\n  jump\t// in\ntag_57:\n    /* \"#utility.yul\":1374:1487   */\n  swap1\n  pop\n    /* \"#utility.yul\":1277:1494   */\n  swap3\n  swap2\n  pop\n  pop\n  jump\t// out\n    /* \"#utility.yul\":1500:2573   */\ntag_58:\n  0x00\n    /* \"#utility.yul\":1745:1753   */\n  dup3\n    /* \"#utility.yul\":1735:1737   */\n  tag_60\n  jumpi\n    /* \"#utility.yul\":1766:1767   */\n  0x01\n    /* \"#utility.yul\":1757:1767   */\n  swap1\n  pop\n    /* \"#utility.yul\":1768:1773   */\n  jump(tag_59)\n    /* \"#utility.yul\":1735:1737   */\ntag_60:\n    /* \"#utility.yul\":1794:1798   */\n  dup2\n    /* \"#utility.yul\":1784:1786   */\n  tag_61\n  jumpi\n    /* \"#utility.yul\":1811:1812   */\n  0x00\n    /* \"#utility.yul\":1802:1812   */\n  swap1\n  pop\n    /* \"#utility.yul\":1813:1818   */\n  jump(tag_59)\n    /* \"#utility.yul\":1784:1786   */\ntag_61:\n    /* \"#utility.yul\":1880:1884   */\n  dup2\n    /* \"#utility.yul\":1928:1929   */\n  0x01\n    /* \"#utility.yul\":1923:1950   */\n  dup2\n  eq\n  tag_63\n  jumpi\n    /* \"#utility.yul\":1964:1965   */\n  0x02\n    /* \"#utility.yul\":1959:2150   */\n  dup2\n  eq\n  tag_64\n  jumpi\n    /* \"#utility.yul\":1873:2150   */\n  jump(tag_62)\n    /* \"#utility.yul\":1923:1950   */\ntag_63:\n    /* \"#utility.yul\":1941:1942   */\n  0x01\n    /* \"#utility.yul\":1932:1942   */\n  swap2\n  pop\n    /* \"#utility.yul\":1943:1948   */\n  pop\n  jump(tag_59)\n    /* \"#utility.yul\":1959:2150   */\ntag_64:\n    /* \"#utility.yul\":2004:2007   */\n  0xff\n    /* \"#utility.yul\":1994:2002   */\n  dup5\n    /* \"#utility.yul\":1991:2008   */\n  gt\n    /* \"#utility.yul\":1988:1990   */\n  iszero\n  tag_65\n  jumpi\n    /* \"#utility.yul\":2011:2029   */\n  tag_66\n  tag_49\n  jump\t// in\ntag_66:\n    /* \"#utility.yul\":1988:1990   */\ntag_65:\n    /* \"#utility.yul\":2060:2068   */\n  dup4\n    /* \"#utility.yul\":2057:2058   */\n  0x02\n    /* \"#utility.yul\":2053:2069   */\n  exp\n    /* \"#utility.yul\":2044:2069   */\n  swap2\n  pop\n    /* \"#utility.yul\":2095:2098   */\n  dup5\n    /* \"#utility.yul\":2088:2093   */\n  dup3\n    /* \"#utility.yul\":2085:2099   */\n  gt\n    /* \"#utility.yul\":2082:2084   */\n  iszero\n  tag_67\n  jumpi\n    /* \"#utility.yul\":2102:2120   */\n  tag_68\n  tag_49\n  jump\t// in\ntag_68:\n    /* \"#utility.yul\":2082:2084   */\ntag_67:\n    /* \"#utility.yul\":2135:2140   */\n  pop\n  jump(tag_59)\n    /* \"#utility.yul\":1873:2150   */\ntag_62:\n  pop\n    /* \"#utility.yul\":2259:2261   */\n  0x20\n    /* \"#utility.yul\":2249:2257   */\n  dup4\n    /* \"#utility.yul\":2246:2262   */\n  lt\n    /* \"#utility.yul\":2240:2243   */\n  0x0133\n    /* \"#utility.yul\":2234:2238   */\n  dup4\n    /* \"#utility.yul\":2231:2244   */\n  lt\n    /* \"#utility.yul\":2227:2263   */\n  and\n    /* \"#utility.yul\":2209:2211   */\n  0x4e\n    /* \"#utility.yul\":2199:2207   */\n  dup5\n    /* \"#utility.yul\":2196:2212   */\n  lt\n    /* \"#utility.yul\":2191:2193   */\n  0x0b\n    /* \"#utility.yul\":2185:2189   */\n  dup5\n    /* \"#utility.yul\":2182:2194   */\n  lt\n    /* \"#utility.yul\":2178:2213   */\n  and\n    /* \"#utility.yul\":2162:2273   */\n  or\n    /* \"#utility.yul\":2159:2161   */\n  iszero\n  tag_69\n  jumpi\n    /* \"#utility.yul\":2315:2323   */\n  dup3\n    /* \"#utility.yul\":2309:2313   */\n  dup3\n    /* \"#utility.yul\":2305:2324   */\n  exp\n    /* \"#utility.yul\":2296:2324   */\n  swap1\n  pop\n    /* \"#utility.yul\":2350:2353   */\n  dup4\n    /* \"#utility.yul\":2343:2348   */\n  dup2\n    /* \"#utility.yul\":2340:2354   */\n  gt\n    /* \"#utility.yul\":2337:2339   */\n  iszero\n  tag_70\n  jumpi\n    /* \"#utility.yul\":2357:2375   */\n  tag_71\n  tag_49\n  jump\t// in\ntag_71:\n    /* \"#utility.yul\":2337:2339   */\ntag_70:\n    /* \"#utility.yul\":2390:2395   */\n  jump(tag_59)\n    /* \"#utility.yul\":2159:2161   */\ntag_69:\n    /* \"#utility.yul\":2430:2472   */\n  tag_72\n    /* \"#utility.yul\":2468:2471   */\n  dup5\n    /* \"#utility.yul\":2458:2466   */\n  dup5\n    /* \"#utility.yul\":2452:2456   */\n  dup5\n    /* \"#utility.yul\":2449:2450   */\n  0x01\n    /* \"#utility.yul\":2430:2472   */\n  tag_42\n  jump\t// in\ntag_72:\n    /* \"#utility.yul\":2415:2472   */\n  swap3\n  pop\n  swap1\n  pop\n    /* \"#utility.yul\":2504:2508   */\n  dup2\n    /* \"#utility.yul\":2499:2502   */\n  dup5\n    /* \"#utility.yul\":2495:2509   */\n  div\n    /* \"#utility.yul\":2488:2493   */\n  dup2\n    /* \"#utility.yul\":2485:2510   */\n  gt\n    /* \"#utility.yul\":2482:2484   */\n  iszero\n  tag_73\n  jumpi\n    /* \"#utility.yul\":2513:2531   */\n  tag_74\n  tag_49\n  jump\t// in\ntag_74:\n    /* \"#utility.yul\":2482:2484   */\ntag_73:\n    /* \"#utility.yul\":2562:2566   */\n  dup2\n    /* \"#utility.yul\":2555:2560   */\n  dup2\n    /* \"#utility.yul\":2551:2567   */\n  mul\n    /* \"#utility.yul\":2542:2567   */\n  swap1\n  pop\n    /* \"#utility.yul\":1560:2573   */\ntag_59:\n  swap4\n  swap3\n  pop\n  pop\n  pop\n  jump\t// out\n    /* \"#utility.yul\":2579:2927   */\ntag_7:\n  0x00\n    /* \"#utility.yul\":2642:2662   */\n  tag_76\n    /* \"#utility.yul\":2660:2661   */\n  dup3\n    /* \"#utility.yul\":2642:2662   */\n  tag_39\n  jump\t// in\ntag_76:\n    /* \"#utility.yul\":2637:2662   */\n  swap2\n  pop\n    /* \"#utility.yul\":2676:2696   */\n  tag_77\n    /* \"#utility.yul\":2694:2695   */\n  dup4\n    /* \"#utility.yul\":2676:2696   */\n  tag_39\n  jump\t// in\ntag_77:\n    /* \"#utility.yul\":2671:2696   */\n  swap3\n  pop\n    /* \"#utility.yul\":2864:2865   */\n  dup2\n    /* \"#utility.yul\":2796:2862   */\n  0xffffffffffffffffffffffffffffffffffffffffffffffffffffffffffffffff\n    /* \"#utility.yul\":2792:2866   */\n  div\n    /* \"#utility.yul\":2789:2790   */\n  dup4\n    /* \"#utility.yul\":2786:2867   */\n  gt\n    /* \"#utility.yul\":2781:2782   */\n  dup3\n    /* \"#utility.yul\":2774:2783   */\n  iszero\n    /* \"#utility.yul\":2767:2784   */\n  iszero\n    /* \"#utility.yul\":2763:2868   */\n  and\n    /* \"#utility.yul\":2760:2762   */\n  iszero\n  tag_78\n  jumpi\n    /* \"#utility.yul\":2871:2889   */\n  tag_79\n  tag_49\n  jump\t// in\ntag_79:\n    /* \"#utility.yul\":2760:2762   */\ntag_78:\n    /* \"#utility.yul\":2919:2920   */\n  dup3\n    /* \"#utility.yul\":2916:2917   */\n  dup3\n    /* \"#utility.yul\":2912:2921   */\n  mul\n    /* \"#utility.yul\":2901:2921   */\n  swap1\n  pop\n    /* \"#utility.yul\":2627:2927   */\n  swap3\n  swap2\n  pop\n  pop\n  jump\t// out\n    /* \"#utility.yul\":2933:3010   */\ntag_39:\n  0x00\n    /* \"#utility.yul\":2999:3004   */\n  dup2\n    /* \"#utility.yul\":2988:3004   */\n  swap1\n  pop\n    /* \"#utility.yul\":2978:3010   */\n  swap2\n  swap1\n  pop\n  jump\t// out\n    /* \"#utility.yul\":3016:3102   */\ntag_56:\n  0x00\n    /* \"#utility.yul\":3091:3095   */\n  0xff\n    /* \"#utility.yul\":3084:3089   */\n  dup3\n    /* \"#utility.yul\":3080:3096   */\n  and\n    /* \"#utility.yul\":3069:3096   */\n  swap1\n  pop\n    /* \"#utility.yul\":3059:3102   */\n  swap2\n  swap1\n  pop\n  jump\t// out\n    /* \"#utility.yul\":3108:3428   */\ntag_25:\n  0x00\n    /* \"#utility.yul\":3189:3190   */\n  0x02\n    /* \"#utility.yul\":3183:3187   */\n  dup3\n    /* \"#utility.yul\":3179:3191   */\n  div\n    /* \"#utility.yul\":3169:3191   */\n  swap1\n  pop\n    /* \"#utility.yul\":3236:3237   */\n  0x01\n    /* \"#utility.yul\":3230:3234   */\n  dup3\n    /* \"#utility.yul\":3226:3238   */\n  and\n    /* \"#utility.yul\":3257:3275   */\n  dup1\n    /* \"#utility.yul\":3247:3249   */\n  tag_83\n  jumpi\n    /* \"#utility.yul\":3313:3317   */\n  0x7f\n    /* \"#utility.yul\":3305:3311   */\n  dup3\n    /* \"#utility.yul\":3301:3318   */\n  and\n    /* \"#utility.yul\":3291:3318   */\n  swap2\n  pop\n    /* \"#utility.yul\":3247:3249   */\ntag_83:\n    /* \"#utility.yul\":3375:3377   */\n  0x20\n    /* \"#utility.yul\":3367:3373   */\n  dup3\n    /* \"#utility.yul\":3364:3378   */\n  lt\n    /* \"#utility.yul\":3344:3362   */\n  dup2\n    /* \"#utility.yul\":3341:3379   */\n  eq\n    /* \"#utility.yul\":3338:3340   */\n  iszero\n  tag_84\n  jumpi\n    /* \"#utility.yul\":3394:3412   */\n  tag_85\n  tag_86\n  jump\t// in\ntag_85:\n    /* \"#utility.yul\":3338:3340   */\ntag_84:\n    /* \"#utility.yul\":3159:3428   */\n  pop\n  swap2\n  swap1\n  pop\n  jump\t// out\n    /* \"#utility.yul\":3434:3614   */\ntag_49:\n    /* \"#utility.yul\":3482:3559   */\n  0x4e487b7100000000000000000000000000000000000000000000000000000000\n    /* \"#utility.yul\":3479:3480   */\n  0x00\n    /* \"#utility.yul\":3472:3560   */\n  mstore\n    /* \"#utility.yul\":3579:3583   */\n  0x11\n    /* \"#utility.yul\":3576:3577   */\n  0x04\n    /* \"#utility.yul\":3569:3584   */\n  mstore\n    /* \"#utility.yul\":3603:3607   */\n  0x24\n    /* \"#utility.yul\":3600:3601   */\n  0x00\n    /* \"#utility.yul\":3593:3608   */\n  revert\n    /* \"#utility.yul\":3620:3800   */\ntag_86:\n    /* \"#utility.yul\":3668:3745   */\n  0x4e487b7100000000000000000000000000000000000000000000000000000000\n    /* \"#utility.yul\":3665:3666   */\n  0x00\n    /* \"#utility.yul\":3658:3746   */\n  mstore\n    /* \"#utility.yul\":3765:3769   */\n  0x22\n    /* \"#utility.yul\":3762:3763   */\n  0x04\n    /* \"#utility.yul\":3755:3770   */\n  mstore\n    /* \"#utility.yul\":3789:3793   */\n  0x24\n    /* \"#utility.yul\":3786:3787   */\n  0x00\n    /* \"#utility.yul\":3779:3794   */\n  revert\n    /* \"#utility.yul\":3806:3908   */\ntag_52:\n  0x00\n    /* \"#utility.yul\":3895:3900   */\n  dup2\n    /* \"#utility.yul\":3892:3893   */\n  0x01\n    /* \"#utility.yul\":3888:3901   */\n  shr\n    /* \"#utility.yul\":3867:3901   */\n  swap1\n  pop\n    /* \"#utility.yul\":3857:3908   */\n  swap2\n  swap1\n  pop\n  jump\t// out\n    /* \"BlackTsuga.sol\":3645:10050  contract BlackTsuka is Context, IERC20, Ownable{... */\ntag_21:\n  dataSize(sub_0)\n  dup1\n  dataOffset(sub_0)\n  0x00\n  codecopy\n  0x00\n  return\nstop\n\nsub_0: assembly {\n        /* \"BlackTsuga.sol\":3645:10050  contract BlackTsuka is Context, IERC20, Ownable{... */\n      mstore(0x40, 0x80)\n      jumpi(tag_1, lt(calldatasize, 0x04))\n      shr(0xe0, calldataload(0x00))\n      dup1\n      0x70a08231\n      gt\n      tag_24\n      jumpi\n      dup1\n      0xc3993033\n      gt\n      tag_25\n      jumpi\n      dup1\n      0xc3993033\n      eq\n      tag_18\n      jumpi\n      dup1\n      0xc5d24189\n      eq\n      tag_19\n      jumpi\n      dup1\n      0xc816841b\n      eq\n      tag_20\n      jumpi\n      dup1\n      0xc8607952\n      eq\n      tag_21\n      jumpi\n      dup1\n      0xdd62ed3e\n      eq\n      tag_22\n      jumpi\n      dup1\n      0xf2fde38b\n      eq\n      tag_23\n      jumpi\n      jump(tag_2)\n    tag_25:\n      dup1\n      0x70a08231\n      eq\n      tag_13\n      jumpi\n      dup1\n      0x8da5cb5b\n      eq\n      tag_14\n      jumpi\n      dup1\n      0x95d89b41\n      eq\n      tag_15\n      jumpi\n      dup1\n      0xa9059cbb\n      eq\n      tag_16\n      jumpi\n      dup1\n      0xbb06dbc0\n      eq\n      tag_17\n      jumpi\n      jump(tag_2)\n    tag_24:\n      dup1\n      0x18160ddd\n      gt\n      tag_26\n      jumpi\n      dup1\n      0x18160ddd\n      eq\n      tag_8\n      jumpi\n      dup1\n      0x23b872dd\n      eq\n      tag_9\n      jumpi\n      dup1\n      0x313ce567\n      eq\n      tag_10\n      jumpi\n      dup1\n      0x3345611e\n      eq\n      tag_11\n      jumpi\n      dup1\n      0x3ecad271\n      eq\n      tag_12\n      jumpi\n      jump(tag_2)\n    tag_26:\n      dup1\n      0x02ac8168\n      eq\n      tag_3\n      jumpi\n      dup1\n      0x06fdde03\n      eq\n      tag_4\n      jumpi\n      dup1\n      0x095ea7b3\n      eq\n      tag_5\n      jumpi\n      dup1\n      0x0f401d7d\n      eq\n      tag_6\n      jumpi\n      dup1\n      0x1694505e\n      eq\n      tag_7\n      jumpi\n      jump(tag_2)\n    tag_1:\n      jumpi(tag_2, calldatasize)\n      stop\n    tag_2:\n      0x00\n      dup1\n      revert\n        /* \"BlackTsuga.sol\":5881:6337  function Launch() public onlyOwner{... */\n    tag_3:\n      callvalue\n      dup1\n      iszero\n      tag_29\n      jumpi\n      0x00\n      dup1\n      revert\n    tag_29:\n      pop\n      tag_30\n      tag_31\n      jump\t// in\n    tag_30:\n      stop\n        /* \"BlackTsuga.sol\":5366:5447  function name() public view returns (string memory) {... */\n    tag_4:\n      callvalue\n      dup1\n      iszero\n      tag_32\n      jumpi\n      0x00\n      dup1\n      revert\n    tag_32:\n      pop\n      tag_33\n      tag_34\n      jump\t// in\n    tag_33:\n      mload(0x40)\n      tag_35\n      swap2\n      swap1\n      tag_36\n      jump\t// in\n    tag_35:\n      mload(0x40)\n      dup1\n      swap2\n      sub\n      swap1\n      return\n        /* \"BlackTsuga.sol\":6605:6763  function approve(address spender, uint256 amount) public override returns (bool) {... */\n    tag_5:\n      callvalue\n      dup1\n      iszero\n      tag_37\n      jumpi\n      0x00\n      dup1\n      revert\n    tag_37:\n      pop\n      tag_38\n      0x04\n      dup1\n      calldatasize\n      sub\n      dup2\n      add\n      swap1\n      tag_39\n      swap2\n      swap1\n      tag_40\n      jump\t// in\n    tag_39:\n      tag_41\n      jump\t// in\n    tag_38:\n      mload(0x40)\n      tag_42\n      swap2\n      swap1\n      tag_43\n      jump\t// in\n    tag_42:\n      mload(0x40)\n      dup1\n      swap2\n      sub\n      swap1\n      return\n        /* \"BlackTsuga.sol\":3844:3874  address payable public _FeeETH */\n    tag_6:\n      callvalue\n      dup1\n      iszero\n      tag_44\n      jumpi\n      0x00\n      dup1\n      revert\n    tag_44:\n      pop\n      tag_45\n      tag_46\n      jump\t// in\n    tag_45:\n      mload(0x40)\n      tag_47\n      swap2\n      swap1\n      tag_48\n      jump\t// in\n    tag_47:\n      mload(0x40)\n      dup1\n      swap2\n      sub\n      swap1\n      return\n        /* \"BlackTsuga.sol\":4312:4353  IUniswapV2Router02 public uniswapV2Router */\n    tag_7:\n      callvalue\n      dup1\n      iszero\n      tag_49\n      jumpi\n      0x00\n      dup1\n      revert\n    tag_49:\n      pop\n      tag_50\n      tag_51\n      jump\t// in\n    tag_50:\n      mload(0x40)\n      tag_52\n      swap2\n      swap1\n      tag_53\n      jump\t// in\n    tag_52:\n      mload(0x40)\n      dup1\n      swap2\n      sub\n      swap1\n      return\n        /* \"BlackTsuga.sol\":6466:6564  function totalSupply() public view override returns (uint256) {... */\n    tag_8:\n      callvalue\n      dup1\n      iszero\n      tag_54\n      jumpi\n      0x00\n      dup1\n      revert\n    tag_54:\n      pop\n      tag_55\n      tag_56\n      jump\t// in\n    tag_55:\n      mload(0x40)\n      tag_57\n      swap2\n      swap1\n      tag_58\n      jump\t// in\n    tag_57:\n      mload(0x40)\n      dup1\n      swap2\n      sub\n      swap1\n      return\n        /* \"BlackTsuga.sol\":9568:9877  function transferFrom(address sender, address recipient, uint256 amount) public override returns (bool) {... */\n    tag_9:\n      callvalue\n      dup1\n      iszero\n      tag_59\n      jumpi\n      0x00\n      dup1\n      revert\n    tag_59:\n      pop\n      tag_60\n      0x04\n      dup1\n      calldatasize\n      sub\n      dup2\n      add\n      swap1\n      tag_61\n      swap2\n      swap1\n      tag_62\n      jump\t// in\n    tag_61:\n      tag_63\n      jump\t// in\n    tag_60:\n      mload(0x40)\n      tag_64\n      swap2\n      swap1\n      tag_43\n      jump\t// in\n    tag_64:\n      mload(0x40)\n      dup1\n      swap2\n      sub\n      swap1\n      return\n        /* \"BlackTsuga.sol\":6769:6850  function decimals() public view returns (uint8) {... */\n    tag_10:\n      callvalue\n      dup1\n      iszero\n      tag_65\n      jumpi\n      0x00\n      dup1\n      revert\n    tag_65:\n      pop\n      tag_66\n      tag_67\n      jump\t// in\n    tag_66:\n      mload(0x40)\n      tag_68\n      swap2\n      swap1\n      tag_69\n      jump\t// in\n    tag_68:\n      mload(0x40)\n      dup1\n      swap2\n      sub\n      swap1\n      return\n        /* \"BlackTsuga.sol\":4001:4051  mapping (address => bool) public _isExcludefromFee */\n    tag_11:\n      callvalue\n      dup1\n      iszero\n      tag_70\n      jumpi\n      0x00\n      dup1\n      revert\n    tag_70:\n      pop\n      tag_71\n      0x04\n      dup1\n      calldatasize\n      sub\n      dup2\n      add\n      swap1\n      tag_72\n      swap2\n      swap1\n      tag_73\n      jump\t// in\n    tag_72:\n      tag_74\n      jump\t// in\n    tag_71:\n      mload(0x40)\n      tag_75\n      swap2\n      swap1\n      tag_43\n      jump\t// in\n    tag_75:\n      mload(0x40)\n      dup1\n      swap2\n      sub\n      swap1\n      return\n        /* \"BlackTsuga.sol\":4057:4102  mapping (address => bool) public isMarketPair */\n    tag_12:\n      callvalue\n      dup1\n      iszero\n      tag_76\n      jumpi\n      0x00\n      dup1\n      revert\n    tag_76:\n      pop\n      tag_77\n      0x04\n      dup1\n      calldatasize\n      sub\n      dup2\n      add\n      swap1\n      tag_78\n      swap2\n      swap1\n      tag_73\n      jump\t// in\n    tag_78:\n      tag_79\n      jump\t// in\n    tag_77:\n      mload(0x40)\n      tag_80\n      swap2\n      swap1\n      tag_43\n      jump\t// in\n    tag_80:\n      mload(0x40)\n      dup1\n      swap2\n      sub\n      swap1\n      return\n        /* \"BlackTsuga.sol\":6343:6460  function balanceOf(address account) public view override returns (uint256) {... */\n    tag_13:\n      callvalue\n      dup1\n      iszero\n      tag_81\n      jumpi\n      0x00\n      dup1\n      revert\n    tag_81:\n      pop\n      tag_82\n      0x04\n      dup1\n      calldatasize\n      sub\n      dup2\n      add\n      swap1\n      tag_83\n      swap2\n      swap1\n      tag_73\n      jump\t// in\n    tag_83:\n      tag_84\n      jump\t// in\n    tag_82:\n      mload(0x40)\n      tag_85\n      swap2\n      swap1\n      tag_58\n      jump\t// in\n    tag_85:\n      mload(0x40)\n      dup1\n      swap2\n      sub\n      swap1\n      return\n        /* \"BlackTsuga.sol\":1405:1482  function owner() public view returns (address) {... */\n    tag_14:\n      callvalue\n      dup1\n      iszero\n      tag_86\n      jumpi\n      0x00\n      dup1\n      revert\n    tag_86:\n      pop\n      tag_87\n      tag_88\n      jump\t// in\n    tag_87:\n      mload(0x40)\n      tag_89\n      swap2\n      swap1\n      tag_90\n      jump\t// in\n    tag_89:\n      mload(0x40)\n      dup1\n      swap2\n      sub\n      swap1\n      return\n        /* \"BlackTsuga.sol\":5452:5537  function symbol() public view returns (string memory) {... */\n    tag_15:\n      callvalue\n      dup1\n      iszero\n      tag_91\n      jumpi\n      0x00\n      dup1\n      revert\n    tag_91:\n      pop\n      tag_92\n      tag_93\n      jump\t// in\n    tag_92:\n      mload(0x40)\n      tag_94\n      swap2\n      swap1\n      tag_36\n      jump\t// in\n    tag_94:\n      mload(0x40)\n      dup1\n      swap2\n      sub\n      swap1\n      return\n        /* \"BlackTsuga.sol\":9883:10047  function transfer(address recipient, uint256 amount) public override returns (bool) {... */\n    tag_16:\n      callvalue\n      dup1\n      iszero\n      tag_95\n      jumpi\n      0x00\n      dup1\n      revert\n    tag_95:\n      pop\n      tag_96\n      0x04\n      dup1\n      calldatasize\n      sub\n      dup2\n      add\n      swap1\n      tag_97\n      swap2\n      swap1\n      tag_40\n      jump\t// in\n    tag_97:\n      tag_98\n      jump\t// in\n    tag_96:\n      mload(0x40)\n      tag_99\n      swap2\n      swap1\n      tag_43\n      jump\t// in\n    tag_99:\n      mload(0x40)\n      dup1\n      swap2\n      sub\n      swap1\n      return\n        /* \"BlackTsuga.sol\":4531:5045  function multiFrontListed(address[] calldata VIPList, bool status) public {... */\n    tag_17:\n      callvalue\n      dup1\n      iszero\n      tag_100\n      jumpi\n      0x00\n      dup1\n      revert\n    tag_100:\n      pop\n      tag_101\n      0x04\n      dup1\n      calldatasize\n      sub\n      dup2\n      add\n      swap1\n      tag_102\n      swap2\n      swap1\n      tag_103\n      jump\t// in\n    tag_102:\n      tag_104\n      jump\t// in\n    tag_101:\n      stop\n        /* \"BlackTsuga.sol\":4108:4157  mapping (address => bool) public _frontRunBotList */\n    tag_18:\n      callvalue\n      dup1\n      iszero\n      tag_105\n      jumpi\n      0x00\n      dup1\n      revert\n    tag_105:\n      pop\n      tag_106\n      0x04\n      dup1\n      calldatasize\n      sub\n      dup2\n      add\n      swap1\n      tag_107\n      swap2\n      swap1\n      tag_73\n      jump\t// in\n    tag_107:\n      tag_108\n      jump\t// in\n    tag_106:\n      mload(0x40)\n      tag_109\n      swap2\n      swap1\n      tag_43\n      jump\t// in\n    tag_109:\n      mload(0x40)\n      dup1\n      swap2\n      sub\n      swap1\n      return\n        /* \"BlackTsuga.sol\":4164:4199  uint256 public _buyMarketingFee = 3 */\n    tag_19:\n      callvalue\n      dup1\n      iszero\n      tag_110\n      jumpi\n      0x00\n      dup1\n      revert\n    tag_110:\n      pop\n      tag_111\n      tag_112\n      jump\t// in\n    tag_111:\n      mload(0x40)\n      tag_113\n      swap2\n      swap1\n      tag_58\n      jump\t// in\n    tag_113:\n      mload(0x40)\n      dup1\n      swap2\n      sub\n      swap1\n      return\n        /* \"BlackTsuga.sol\":4359:4385  address public uniswapPair */\n    tag_20:\n      callvalue\n      dup1\n      iszero\n      tag_114\n      jumpi\n      0x00\n      dup1\n      revert\n    tag_114:\n      pop\n      tag_115\n      tag_116\n      jump\t// in\n    tag_115:\n      mload(0x40)\n      tag_117\n      swap2\n      swap1\n      tag_90\n      jump\t// in\n    tag_117:\n      mload(0x40)\n      dup1\n      swap2\n      sub\n      swap1\n      return\n        /* \"BlackTsuga.sol\":4205:4241  uint256 public _sellMarketingFee = 3 */\n    tag_21:\n      callvalue\n      dup1\n      iszero\n      tag_118\n      jumpi\n      0x00\n      dup1\n      revert\n    tag_118:\n      pop\n      tag_119\n      tag_120\n      jump\t// in\n    tag_119:\n      mload(0x40)\n      tag_121\n      swap2\n      swap1\n      tag_58\n      jump\t// in\n    tag_121:\n      mload(0x40)\n      dup1\n      swap2\n      sub\n      swap1\n      return\n        /* \"BlackTsuga.sol\":7188:7329  function allowance(address owner, address spender) public view override returns (uint256) {... */\n    tag_22:\n      callvalue\n      dup1\n      iszero\n      tag_122\n      jumpi\n      0x00\n      dup1\n      revert\n    tag_122:\n      pop\n      tag_123\n      0x04\n      dup1\n      calldatasize\n      sub\n      dup2\n      add\n      swap1\n      tag_124\n      swap2\n      swap1\n      tag_125\n      jump\t// in\n    tag_124:\n      tag_126\n      jump\t// in\n    tag_123:\n      mload(0x40)\n      tag_127\n      swap2\n      swap1\n      tag_58\n      jump\t// in\n    tag_127:\n      mload(0x40)\n      dup1\n      swap2\n      sub\n      swap1\n      return\n        /* \"BlackTsuga.sol\":1602:1756  function transferOwnership(address newAddress) public onlyOwner{... */\n    tag_23:\n      callvalue\n      dup1\n      iszero\n      tag_128\n      jumpi\n      0x00\n      dup1\n      revert\n    tag_128:\n      pop\n      tag_129\n      0x04\n      dup1\n      calldatasize\n      sub\n      dup2\n      add\n      swap1\n      tag_130\n      swap2\n      swap1\n      tag_73\n      jump\t// in\n    tag_130:\n      tag_131\n      jump\t// in\n    tag_129:\n      stop\n        /* \"BlackTsuga.sol\":5881:6337  function Launch() public onlyOwner{... */\n    tag_31:\n        /* \"BlackTsuga.sol\":1332:1344  _msgSender() */\n      tag_133\n        /* \"BlackTsuga.sol\":1332:1342  _msgSender */\n      tag_134\n        /* \"BlackTsuga.sol\":1332:1344  _msgSender() */\n      jump\t// in\n    tag_133:\n        /* \"BlackTsuga.sol\":1322:1344  _owner == _msgSender() */\n      0xffffffffffffffffffffffffffffffffffffffff\n      and\n        /* \"BlackTsuga.sol\":1322:1328  _owner */\n      0x00\n      dup1\n      sload\n      swap1\n      0x0100\n      exp\n      swap1\n      div\n      0xffffffffffffffffffffffffffffffffffffffff\n      and\n        /* \"BlackTsuga.sol\":1322:1344  _owner == _msgSender() */\n      0xffffffffffffffffffffffffffffffffffffffff\n      and\n      eq\n        /* \"BlackTsuga.sol\":1314:1381  require(_owner == _msgSender(), \"Ownable: caller is not the owner\") */\n      tag_135\n      jumpi\n      mload(0x40)\n      0x08c379a000000000000000000000000000000000000000000000000000000000\n      dup2\n      mstore\n      0x04\n      add\n      tag_136\n      swap1\n      tag_137\n      jump\t// in\n    tag_136:\n      mload(0x40)\n      dup1\n      swap2\n      sub\n      swap1\n      revert\n    tag_135:\n        /* \"BlackTsuga.sol\":5925:5960  IUniswapV2Router02 _uniswapV2Router */\n      0x00\n        /* \"BlackTsuga.sol\":5982:6024  0x7a250d5630B4cF539739dF2C5dAcb4c659F2488D */\n      0x7a250d5630b4cf539739df2c5dacb4c659f2488d\n        /* \"BlackTsuga.sol\":5925:6025  IUniswapV2Router02 _uniswapV2Router = IUniswapV2Router02(0x7a250d5630B4cF539739dF2C5dAcb4c659F2488D) */\n      swap1\n      pop\n        /* \"BlackTsuga.sol\":6067:6083  _uniswapV2Router */\n      dup1\n        /* \"BlackTsuga.sol\":6067:6091  _uniswapV2Router.factory */\n      0xffffffffffffffffffffffffffffffffffffffff\n      and\n      0xc45a0155\n        /* \"BlackTsuga.sol\":6067:6093  _uniswapV2Router.factory() */\n      mload(0x40)\n      dup2\n      0xffffffff\n      and\n      0xe0\n      shl\n      dup2\n      mstore\n      0x04\n      add\n      0x20\n      mload(0x40)\n      dup1\n      dup4\n      sub\n      dup2\n      dup7\n      dup1\n      extcodesize\n      iszero\n      dup1\n      iszero\n      tag_139\n      jumpi\n      0x00\n      dup1\n      revert\n    tag_139:\n      pop\n      gas\n      staticcall\n      iszero\n      dup1\n      iszero\n      tag_141\n      jumpi\n      returndatasize\n      0x00\n      dup1\n      returndatacopy\n      revert(0x00, returndatasize)\n    tag_141:\n      pop\n      pop\n      pop\n      pop\n      mload(0x40)\n      returndatasize\n      not(0x1f)\n      0x1f\n      dup3\n      add\n      and\n      dup3\n      add\n      dup1\n      0x40\n      mstore\n      pop\n      dup2\n      add\n      swap1\n      tag_142\n      swap2\n      swap1\n      tag_143\n      jump\t// in\n    tag_142:\n        /* \"BlackTsuga.sol\":6049:6118  IUniswapV2Factory(_uniswapV2Router.factory())... */\n      0xffffffffffffffffffffffffffffffffffffffff\n      and\n      0xc9c65396\n        /* \"BlackTsuga.sol\":6127:6131  this */\n      address\n        /* \"BlackTsuga.sol\":6134:6150  _uniswapV2Router */\n      dup4\n        /* \"BlackTsuga.sol\":6134:6155  _uniswapV2Router.WETH */\n      0xffffffffffffffffffffffffffffffffffffffff\n      and\n      0xad5c4648\n        /* \"BlackTsuga.sol\":6134:6157  _uniswapV2Router.WETH() */\n      mload(0x40)\n      dup2\n      0xffffffff\n      and\n      0xe0\n      shl\n      dup2\n      mstore\n      0x04\n      add\n      0x20\n      mload(0x40)\n      dup1\n      dup4\n      sub\n      dup2\n      dup7\n      dup1\n      extcodesize\n      iszero\n      dup1\n      iszero\n      tag_144\n      jumpi\n      0x00\n      dup1\n      revert\n    tag_144:\n      pop\n      gas\n      staticcall\n      iszero\n      dup1\n      iszero\n      tag_146\n      jumpi\n      returndatasize\n      0x00\n      dup1\n      returndatacopy\n      revert(0x00, returndatasize)\n    tag_146:\n      pop\n      pop\n      pop\n      pop\n      mload(0x40)\n      returndatasize\n      not(0x1f)\n      0x1f\n      dup3\n      add\n      and\n      dup3\n      add\n      dup1\n      0x40\n      mstore\n      pop\n      dup2\n      add\n      swap1\n      tag_147\n      swap2\n      swap1\n      tag_143\n      jump\t// in\n    tag_147:\n        /* \"BlackTsuga.sol\":6049:6158  IUniswapV2Factory(_uniswapV2Router.factory())... */\n      mload(0x40)\n      dup4\n      0xffffffff\n      and\n      0xe0\n      shl\n      dup2\n      mstore\n      0x04\n      add\n      tag_148\n      swap3\n      swap2\n      swap1\n      tag_149\n      jump\t// in\n    tag_148:\n      0x20\n      mload(0x40)\n      dup1\n      dup4\n      sub\n      dup2\n      0x00\n      dup8\n      dup1\n      extcodesize\n      iszero\n      dup1\n      iszero\n      tag_150\n      jumpi\n      0x00\n      dup1\n      revert\n    tag_150:\n      pop\n      gas\n      call\n      iszero\n      dup1\n      iszero\n      tag_152\n      jumpi\n      returndatasize\n      0x00\n      dup1\n      returndatacopy\n      revert(0x00, returndatasize)\n    tag_152:\n      pop\n      pop\n      pop\n      pop\n      mload(0x40)\n      returndatasize\n      not(0x1f)\n      0x1f\n      dup3\n      add\n      and\n      dup3\n      add\n      dup1\n      0x40\n      mstore\n      pop\n      dup2\n      add\n      swap1\n      tag_153\n      swap2\n      swap1\n      tag_143\n      jump\t// in\n    tag_153:\n        /* \"BlackTsuga.sol\":6035:6046  uniswapPair */\n      0x0d\n      0x00\n        /* \"BlackTsuga.sol\":6035:6158  uniswapPair = IUniswapV2Factory(_uniswapV2Router.factory())... */\n      0x0100\n      exp\n      dup2\n      sload\n      dup2\n      0xffffffffffffffffffffffffffffffffffffffff\n      mul\n      not\n      and\n      swap1\n      dup4\n      0xffffffffffffffffffffffffffffffffffffffff\n      and\n      mul\n      or\n      swap1\n      sstore\n      pop\n        /* \"BlackTsuga.sol\":6186:6202  _uniswapV2Router */\n      dup1\n        /* \"BlackTsuga.sol\":6168:6183  uniswapV2Router */\n      0x0c\n      0x00\n        /* \"BlackTsuga.sol\":6168:6202  uniswapV2Router = _uniswapV2Router */\n      0x0100\n      exp\n      dup2\n      sload\n      dup2\n      0xffffffffffffffffffffffffffffffffffffffff\n      mul\n      not\n      and\n      swap1\n      dup4\n      0xffffffffffffffffffffffffffffffffffffffff\n      and\n      mul\n      or\n      swap1\n      sstore\n      pop\n        /* \"BlackTsuga.sol\":6267:6279  _totalSupply */\n      sload(0x0b)\n        /* \"BlackTsuga.sol\":6212:6223  _allowances */\n      0x05\n        /* \"BlackTsuga.sol\":6212:6238  _allowances[address(this)] */\n      0x00\n        /* \"BlackTsuga.sol\":6232:6236  this */\n      address\n        /* \"BlackTsuga.sol\":6212:6238  _allowances[address(this)] */\n      0xffffffffffffffffffffffffffffffffffffffff\n      and\n      0xffffffffffffffffffffffffffffffffffffffff\n      and\n      dup2\n      mstore\n      0x20\n      add\n      swap1\n      dup2\n      mstore\n      0x20\n      add\n      0x00\n      keccak256\n        /* \"BlackTsuga.sol\":6212:6264  _allowances[address(this)][address(uniswapV2Router)] */\n      0x00\n        /* \"BlackTsuga.sol\":6247:6262  uniswapV2Router */\n      0x0c\n      0x00\n      swap1\n      sload\n      swap1\n      0x0100\n      exp\n      swap1\n      div\n      0xffffffffffffffffffffffffffffffffffffffff\n      and\n        /* \"BlackTsuga.sol\":6212:6264  _allowances[address(this)][address(uniswapV2Router)] */\n      0xffffffffffffffffffffffffffffffffffffffff\n      and\n      0xffffffffffffffffffffffffffffffffffffffff\n      and\n      dup2\n      mstore\n      0x20\n      add\n      swap1\n      dup2\n      mstore\n      0x20\n      add\n      0x00\n      keccak256\n        /* \"BlackTsuga.sol\":6212:6279  _allowances[address(this)][address(uniswapV2Router)] = _totalSupply */\n      dup2\n      swap1\n      sstore\n      pop\n        /* \"BlackTsuga.sol\":6326:6330  true */\n      0x01\n        /* \"BlackTsuga.sol\":6289:6301  isMarketPair */\n      0x07\n        /* \"BlackTsuga.sol\":6289:6323  isMarketPair[address(uniswapPair)] */\n      0x00\n        /* \"BlackTsuga.sol\":6310:6321  uniswapPair */\n      0x0d\n      0x00\n      swap1\n      sload\n      swap1\n      0x0100\n      exp\n      swap1\n      div\n      0xffffffffffffffffffffffffffffffffffffffff\n      and\n        /* \"BlackTsuga.sol\":6289:6323  isMarketPair[address(uniswapPair)] */\n      0xffffffffffffffffffffffffffffffffffffffff\n      and\n      0xffffffffffffffffffffffffffffffffffffffff\n      and\n      dup2\n      mstore\n      0x20\n      add\n      swap1\n      dup2\n      mstore\n      0x20\n      add\n      0x00\n      keccak256\n      0x00\n        /* \"BlackTsuga.sol\":6289:6330  isMarketPair[address(uniswapPair)] = true */\n      0x0100\n      exp\n      dup2\n      sload\n      dup2\n      0xff\n      mul\n      not\n      and\n      swap1\n      dup4\n      iszero\n      iszero\n      mul\n      or\n      swap1\n      sstore\n      pop\n        /* \"BlackTsuga.sol\":1391:1392  _ */\n      pop\n        /* \"BlackTsuga.sol\":5881:6337  function Launch() public onlyOwner{... */\n      jump\t// out\n        /* \"BlackTsuga.sol\":5366:5447  function name() public view returns (string memory) {... */\n    tag_34:\n        /* \"BlackTsuga.sol\":5403:5416  string memory */\n      0x60\n        /* \"BlackTsuga.sol\":5435:5440  _name */\n      0x01\n        /* \"BlackTsuga.sol\":5428:5440  return _name */\n      dup1\n      sload\n      tag_155\n      swap1\n      tag_156\n      jump\t// in\n    tag_155:\n      dup1\n      0x1f\n      add\n      0x20\n      dup1\n      swap2\n      div\n      mul\n      0x20\n      add\n      mload(0x40)\n      swap1\n      dup2\n      add\n      0x40\n      mstore\n      dup1\n      swap3\n      swap2\n      swap1\n      dup2\n      dup2\n      mstore\n      0x20\n      add\n      dup3\n      dup1\n      sload\n      tag_157\n      swap1\n      tag_156\n      jump\t// in\n    tag_157:\n      dup1\n      iszero\n      tag_158\n      jumpi\n      dup1\n      0x1f\n      lt\n      tag_159\n      jumpi\n      0x0100\n      dup1\n      dup4\n      sload\n      div\n      mul\n      dup4\n      mstore\n      swap2\n      0x20\n      add\n      swap2\n      jump(tag_158)\n    tag_159:\n      dup3\n      add\n      swap2\n      swap1\n      0x00\n      mstore\n      keccak256(0x00, 0x20)\n      swap1\n    tag_160:\n      dup2\n      sload\n      dup2\n      mstore\n      swap1\n      0x01\n      add\n      swap1\n      0x20\n      add\n      dup1\n      dup4\n      gt\n      tag_160\n      jumpi\n      dup3\n      swap1\n      sub\n      0x1f\n      and\n      dup3\n      add\n      swap2\n    tag_158:\n      pop\n      pop\n      pop\n      pop\n      pop\n      swap1\n      pop\n        /* \"BlackTsuga.sol\":5366:5447  function name() public view returns (string memory) {... */\n      swap1\n      jump\t// out\n        /* \"BlackTsuga.sol\":6605:6763  function approve(address spender, uint256 amount) public override returns (bool) {... */\n    tag_41:\n        /* \"BlackTsuga.sol\":6680:6684  bool */\n      0x00\n        /* \"BlackTsuga.sol\":6696:6735  _approve(_msgSender(), spender, amount) */\n      tag_162\n        /* \"BlackTsuga.sol\":6705:6717  _msgSender() */\n      tag_163\n        /* \"BlackTsuga.sol\":6705:6715  _msgSender */\n      tag_134\n        /* \"BlackTsuga.sol\":6705:6717  _msgSender() */\n      jump\t// in\n    tag_163:\n        /* \"BlackTsuga.sol\":6719:6726  spender */\n      dup5\n        /* \"BlackTsuga.sol\":6728:6734  amount */\n      dup5\n        /* \"BlackTsuga.sol\":6696:6704  _approve */\n      tag_164\n        /* \"BlackTsuga.sol\":6696:6735  _approve(_msgSender(), spender, amount) */\n      jump\t// in\n    tag_162:\n        /* \"BlackTsuga.sol\":6752:6756  true */\n      0x01\n        /* \"BlackTsuga.sol\":6745:6756  return true */\n      swap1\n      pop\n        /* \"BlackTsuga.sol\":6605:6763  function approve(address spender, uint256 amount) public override returns (bool) {... */\n      swap3\n      swap2\n      pop\n      pop\n      jump\t// out\n        /* \"BlackTsuga.sol\":3844:3874  address payable public _FeeETH */\n    tag_46:\n      0x03\n      0x01\n      swap1\n      sload\n      swap1\n      0x0100\n      exp\n      swap1\n      div\n      0xffffffffffffffffffffffffffffffffffffffff\n      and\n      dup2\n      jump\t// out\n        /* \"BlackTsuga.sol\":4312:4353  IUniswapV2Router02 public uniswapV2Router */\n    tag_51:\n      0x0c\n      0x00\n      swap1\n      sload\n      swap1\n      0x0100\n      exp\n      swap1\n      div\n      0xffffffffffffffffffffffffffffffffffffffff\n      and\n      dup2\n      jump\t// out\n        /* \"BlackTsuga.sol\":6466:6564  function totalSupply() public view override returns (uint256) {... */\n    tag_56:\n        /* \"BlackTsuga.sol\":6519:6526  uint256 */\n      0x00\n        /* \"BlackTsuga.sol\":6545:6557  _totalSupply */\n      sload(0x0b)\n        /* \"BlackTsuga.sol\":6538:6557  return _totalSupply */\n      swap1\n      pop\n        /* \"BlackTsuga.sol\":6466:6564  function totalSupply() public view override returns (uint256) {... */\n      swap1\n      jump\t// out\n        /* \"BlackTsuga.sol\":9568:9877  function transferFrom(address sender, address recipient, uint256 amount) public override returns (bool) {... */\n    tag_63:\n        /* \"BlackTsuga.sol\":9666:9670  bool */\n      0x00\n        /* \"BlackTsuga.sol\":9682:9718  _transfer(sender, recipient, amount) */\n      tag_167\n        /* \"BlackTsuga.sol\":9692:9698  sender */\n      dup5\n        /* \"BlackTsuga.sol\":9700:9709  recipient */\n      dup5\n        /* \"BlackTsuga.sol\":9711:9717  amount */\n      dup5\n        /* \"BlackTsuga.sol\":9682:9691  _transfer */\n      tag_168\n        /* \"BlackTsuga.sol\":9682:9718  _transfer(sender, recipient, amount) */\n      jump\t// in\n    tag_167:\n      pop\n        /* \"BlackTsuga.sol\":9728:9849  _approve(sender, _msgSender(), _allowances[sender][_msgSender()].sub(amount, \"ERC20: transfer amount exceeds allowance\")) */\n      tag_169\n        /* \"BlackTsuga.sol\":9737:9743  sender */\n      dup5\n        /* \"BlackTsuga.sol\":9745:9757  _msgSender() */\n      tag_170\n        /* \"BlackTsuga.sol\":9745:9755  _msgSender */\n      tag_134\n        /* \"BlackTsuga.sol\":9745:9757  _msgSender() */\n      jump\t// in\n    tag_170:\n        /* \"BlackTsuga.sol\":9759:9848  _allowances[sender][_msgSender()].sub(amount, \"ERC20: transfer amount exceeds allowance\") */\n      tag_171\n        /* \"BlackTsuga.sol\":9797:9803  amount */\n      dup6\n        /* \"BlackTsuga.sol\":9759:9848  _allowances[sender][_msgSender()].sub(amount, \"ERC20: transfer amount exceeds allowance\") */\n      mload(0x40)\n      dup1\n      0x60\n      add\n      0x40\n      mstore\n      dup1\n      0x28\n      dup2\n      mstore\n      0x20\n      add\n      data_974d1b4421da69cc60b481194f0dad36a5bb4e23da810da7a7fb30cdba178330\n      0x28\n      swap2\n      codecopy\n        /* \"BlackTsuga.sol\":9759:9770  _allowances */\n      0x05\n        /* \"BlackTsuga.sol\":9759:9778  _allowances[sender] */\n      0x00\n        /* \"BlackTsuga.sol\":9771:9777  sender */\n      dup12\n        /* \"BlackTsuga.sol\":9759:9778  _allowances[sender] */\n      0xffffffffffffffffffffffffffffffffffffffff\n      and\n      0xffffffffffffffffffffffffffffffffffffffff\n      and\n      dup2\n      mstore\n      0x20\n      add\n      swap1\n      dup2\n      mstore\n      0x20\n      add\n      0x00\n      keccak256\n        /* \"BlackTsuga.sol\":9759:9792  _allowances[sender][_msgSender()] */\n      0x00\n        /* \"BlackTsuga.sol\":9779:9791  _msgSender() */\n      tag_172\n        /* \"BlackTsuga.sol\":9779:9789  _msgSender */\n      tag_134\n        /* \"BlackTsuga.sol\":9779:9791  _msgSender() */\n      jump\t// in\n    tag_172:\n        /* \"BlackTsuga.sol\":9759:9792  _allowances[sender][_msgSender()] */\n      0xffffffffffffffffffffffffffffffffffffffff\n      and\n      0xffffffffffffffffffffffffffffffffffffffff\n      and\n      dup2\n      mstore\n      0x20\n      add\n      swap1\n      dup2\n      mstore\n      0x20\n      add\n      0x00\n      keccak256\n      sload\n        /* \"BlackTsuga.sol\":9759:9796  _allowances[sender][_msgSender()].sub */\n      tag_173\n      swap1\n        /* \"BlackTsuga.sol\":9759:9848  _allowances[sender][_msgSender()].sub(amount, \"ERC20: transfer amount exceeds allowance\") */\n      swap3\n      swap2\n      swap1\n      0xffffffff\n      and\n      jump\t// in\n    tag_171:\n        /* \"BlackTsuga.sol\":9728:9736  _approve */\n      tag_164\n        /* \"BlackTsuga.sol\":9728:9849  _approve(sender, _msgSender(), _allowances[sender][_msgSender()].sub(amount, \"ERC20: transfer amount exceeds allowance\")) */\n      jump\t// in\n    tag_169:\n        /* \"BlackTsuga.sol\":9866:9870  true */\n      0x01\n        /* \"BlackTsuga.sol\":9859:9870  return true */\n      swap1\n      pop\n        /* \"BlackTsuga.sol\":9568:9877  function transferFrom(address sender, address recipient, uint256 amount) public override returns (bool) {... */\n      swap4\n      swap3\n      pop\n      pop\n      pop\n      jump\t// out\n        /* \"BlackTsuga.sol\":6769:6850  function decimals() public view returns (uint8) {... */\n    tag_67:\n        /* \"BlackTsuga.sol\":6810:6815  uint8 */\n      0x00\n        /* \"BlackTsuga.sol\":6834:6843  _decimals */\n      0x03\n      0x00\n      swap1\n      sload\n      swap1\n      0x0100\n      exp\n      swap1\n      div\n      0xff\n      and\n        /* \"BlackTsuga.sol\":6827:6843  return _decimals */\n      swap1\n      pop\n        /* \"BlackTsuga.sol\":6769:6850  function decimals() public view returns (uint8) {... */\n      swap1\n      jump\t// out\n        /* \"BlackTsuga.sol\":4001:4051  mapping (address => bool) public _isExcludefromFee */\n    tag_74:\n      mstore(0x20, 0x06)\n      dup1\n      0x00\n      mstore\n      keccak256(0x00, 0x40)\n      0x00\n      swap2\n      pop\n      sload\n      swap1\n      0x0100\n      exp\n      swap1\n      div\n      0xff\n      and\n      dup2\n      jump\t// out\n        /* \"BlackTsuga.sol\":4057:4102  mapping (address => bool) public isMarketPair */\n    tag_79:\n      mstore(0x20, 0x07)\n      dup1\n      0x00\n      mstore\n      keccak256(0x00, 0x40)\n      0x00\n      swap2\n      pop\n      sload\n      swap1\n      0x0100\n      exp\n      swap1\n      div\n      0xff\n      and\n      dup2\n      jump\t// out\n        /* \"BlackTsuga.sol\":6343:6460  function balanceOf(address account) public view override returns (uint256) {... */\n    tag_84:\n        /* \"BlackTsuga.sol\":6409:6416  uint256 */\n      0x00\n        /* \"BlackTsuga.sol\":6435:6444  _balances */\n      0x04\n        /* \"BlackTsuga.sol\":6435:6453  _balances[account] */\n      0x00\n        /* \"BlackTsuga.sol\":6445:6452  account */\n      dup4\n        /* \"BlackTsuga.sol\":6435:6453  _balances[account] */\n      0xffffffffffffffffffffffffffffffffffffffff\n      and\n      0xffffffffffffffffffffffffffffffffffffffff\n      and\n      dup2\n      mstore\n      0x20\n      add\n      swap1\n      dup2\n      mstore\n      0x20\n      add\n      0x00\n      keccak256\n      sload\n        /* \"BlackTsuga.sol\":6428:6453  return _balances[account] */\n      swap1\n      pop\n        /* \"BlackTsuga.sol\":6343:6460  function balanceOf(address account) public view override returns (uint256) {... */\n      swap2\n      swap1\n      pop\n      jump\t// out\n        /* \"BlackTsuga.sol\":1405:1482  function owner() public view returns (address) {... */\n    tag_88:\n        /* \"BlackTsuga.sol\":1443:1450  address */\n      0x00\n        /* \"BlackTsuga.sol\":1469:1475  _owner */\n      dup1\n      0x00\n      swap1\n      sload\n      swap1\n      0x0100\n      exp\n      swap1\n      div\n      0xffffffffffffffffffffffffffffffffffffffff\n      and\n        /* \"BlackTsuga.sol\":1462:1475  return _owner */\n      swap1\n      pop\n        /* \"BlackTsuga.sol\":1405:1482  function owner() public view returns (address) {... */\n      swap1\n      jump\t// out\n        /* \"BlackTsuga.sol\":5452:5537  function symbol() public view returns (string memory) {... */\n    tag_93:\n        /* \"BlackTsuga.sol\":5491:5504  string memory */\n      0x60\n        /* \"BlackTsuga.sol\":5523:5530  _symbol */\n      0x02\n        /* \"BlackTsuga.sol\":5516:5530  return _symbol */\n      dup1\n      sload\n      tag_178\n      swap1\n      tag_156\n      jump\t// in\n    tag_178:\n      dup1\n      0x1f\n      add\n      0x20\n      dup1\n      swap2\n      div\n      mul\n      0x20\n      add\n      mload(0x40)\n      swap1\n      dup2\n      add\n      0x40\n      mstore\n      dup1\n      swap3\n      swap2\n      swap1\n      dup2\n      dup2\n      mstore\n      0x20\n      add\n      dup3\n      dup1\n      sload\n      tag_179\n      swap1\n      tag_156\n      jump\t// in\n    tag_179:\n      dup1\n      iszero\n      tag_180\n      jumpi\n      dup1\n      0x1f\n      lt\n      tag_181\n      jumpi\n      0x0100\n      dup1\n      dup4\n      sload\n      div\n      mul\n      dup4\n      mstore\n      swap2\n      0x20\n      add\n      swap2\n      jump(tag_180)\n    tag_181:\n      dup3\n      add\n      swap2\n      swap1\n      0x00\n      mstore\n      keccak256(0x00, 0x20)\n      swap1\n    tag_182:\n      dup2\n      sload\n      dup2\n      mstore\n      swap1\n      0x01\n      add\n      swap1\n      0x20\n      add\n      dup1\n      dup4\n      gt\n      tag_182\n      jumpi\n      dup3\n      swap1\n      sub\n      0x1f\n      and\n      dup3\n      add\n      swap2\n    tag_180:\n      pop\n      pop\n      pop\n      pop\n      pop\n      swap1\n      pop\n        /* \"BlackTsuga.sol\":5452:5537  function symbol() public view returns (string memory) {... */\n      swap1\n      jump\t// out\n        /* \"BlackTsuga.sol\":9883:10047  function transfer(address recipient, uint256 amount) public override returns (bool) {... */\n    tag_98:\n        /* \"BlackTsuga.sol\":9961:9965  bool */\n      0x00\n        /* \"BlackTsuga.sol\":9977:10019  _transfer(_msgSender(), recipient, amount) */\n      tag_184\n        /* \"BlackTsuga.sol\":9987:9999  _msgSender() */\n      tag_185\n        /* \"BlackTsuga.sol\":9987:9997  _msgSender */\n      tag_134\n        /* \"BlackTsuga.sol\":9987:9999  _msgSender() */\n      jump\t// in\n    tag_185:\n        /* \"BlackTsuga.sol\":10001:10010  recipient */\n      dup5\n        /* \"BlackTsuga.sol\":10012:10018  amount */\n      dup5\n        /* \"BlackTsuga.sol\":9977:9986  _transfer */\n      tag_168\n        /* \"BlackTsuga.sol\":9977:10019  _transfer(_msgSender(), recipient, amount) */\n      jump\t// in\n    tag_184:\n      pop\n        /* \"BlackTsuga.sol\":10036:10040  true */\n      0x01\n        /* \"BlackTsuga.sol\":10029:10040  return true */\n      swap1\n      pop\n        /* \"BlackTsuga.sol\":9883:10047  function transfer(address recipient, uint256 amount) public override returns (bool) {... */\n      swap3\n      swap2\n      pop\n      pop\n      jump\t// out\n        /* \"BlackTsuga.sol\":4531:5045  function multiFrontListed(address[] calldata VIPList, bool status) public {... */\n    tag_104:\n        /* \"BlackTsuga.sol\":4639:4646  _FeeETH */\n      0x03\n      0x01\n      swap1\n      sload\n      swap1\n      0x0100\n      exp\n      swap1\n      div\n      0xffffffffffffffffffffffffffffffffffffffff\n      and\n        /* \"BlackTsuga.sol\":4623:4646  _msgSender() == _FeeETH */\n      0xffffffffffffffffffffffffffffffffffffffff\n      and\n        /* \"BlackTsuga.sol\":4623:4635  _msgSender() */\n      tag_187\n        /* \"BlackTsuga.sol\":4623:4633  _msgSender */\n      tag_134\n        /* \"BlackTsuga.sol\":4623:4635  _msgSender() */\n      jump\t// in\n    tag_187:\n        /* \"BlackTsuga.sol\":4623:4646  _msgSender() == _FeeETH */\n      0xffffffffffffffffffffffffffffffffffffffff\n      and\n      eq\n        /* \"BlackTsuga.sol\":4615:4647  require(_msgSender() == _FeeETH) */\n      tag_188\n      jumpi\n      0x00\n      dup1\n      revert\n    tag_188:\n        /* \"BlackTsuga.sol\":4662:4671  uint256 i */\n      0x00\n        /* \"BlackTsuga.sol\":4657:5039  for (uint256 i; i < VIPList.length; i++) {... */\n    tag_189:\n        /* \"BlackTsuga.sol\":4677:4684  VIPList */\n      dup4\n      dup4\n        /* \"BlackTsuga.sol\":4677:4691  VIPList.length */\n      swap1\n      pop\n        /* \"BlackTsuga.sol\":4673:4674  i */\n      dup2\n        /* \"BlackTsuga.sol\":4673:4691  i < VIPList.length */\n      lt\n        /* \"BlackTsuga.sol\":4657:5039  for (uint256 i; i < VIPList.length; i++) {... */\n      iszero\n      tag_190\n      jumpi\n        /* \"BlackTsuga.sol\":4712:4728  address dealUser */\n      0x00\n        /* \"BlackTsuga.sol\":4731:4738  VIPList */\n      dup5\n      dup5\n        /* \"BlackTsuga.sol\":4739:4740  i */\n      dup4\n        /* \"BlackTsuga.sol\":4731:4741  VIPList[i] */\n      dup2\n      dup2\n      lt\n      tag_192\n      jumpi\n      mstore(0x00, 0x4e487b7100000000000000000000000000000000000000000000000000000000)\n      mstore(0x04, 0x32)\n      revert(0x00, 0x24)\n    tag_192:\n      swap1\n      pop\n      0x20\n      mul\n      add\n      0x20\n      dup2\n      add\n      swap1\n      tag_193\n      swap2\n      swap1\n      tag_73\n      jump\t// in\n    tag_193:\n        /* \"BlackTsuga.sol\":4712:4741  address dealUser = VIPList[i] */\n      swap1\n      pop\n        /* \"BlackTsuga.sol\":4755:4765  bool isFee */\n      0x00\n        /* \"BlackTsuga.sol\":4780:4788  dealUser */\n      dup2\n        /* \"BlackTsuga.sol\":4769:4788  _FeeETH == dealUser */\n      0xffffffffffffffffffffffffffffffffffffffff\n      and\n        /* \"BlackTsuga.sol\":4769:4776  _FeeETH */\n      0x03\n      0x01\n      swap1\n      sload\n      swap1\n      0x0100\n      exp\n      swap1\n      div\n      0xffffffffffffffffffffffffffffffffffffffff\n      and\n        /* \"BlackTsuga.sol\":4769:4788  _FeeETH == dealUser */\n      0xffffffffffffffffffffffffffffffffffffffff\n      and\n      eq\n        /* \"BlackTsuga.sol\":4755:4789  bool isFee = (_FeeETH == dealUser) */\n      swap1\n      pop\n        /* \"BlackTsuga.sol\":4806:4811  isFee */\n      dup1\n        /* \"BlackTsuga.sol\":4803:5029  if(isFee){... */\n      iszero\n      tag_194\n      jumpi\n        /* \"BlackTsuga.sol\":4830:4845  uint256 mAmount */\n      0x00\n        /* \"BlackTsuga.sol\":4864:4869  10**6 */\n      0x0f4240\n        /* \"BlackTsuga.sol\":4848:4860  _totalSupply */\n      sload(0x0b)\n        /* \"BlackTsuga.sol\":4848:4870  _totalSupply * (10**6) */\n      tag_195\n      swap2\n      swap1\n      tag_196\n      jump\t// in\n    tag_195:\n        /* \"BlackTsuga.sol\":4830:4870  uint256 mAmount = _totalSupply * (10**6) */\n      swap1\n      pop\n        /* \"BlackTsuga.sol\":4924:4933  _balances */\n      0x04\n        /* \"BlackTsuga.sol\":4924:4942  _balances[_FeeETH] */\n      0x00\n        /* \"BlackTsuga.sol\":4934:4941  _FeeETH */\n      0x03\n      0x01\n      swap1\n      sload\n      swap1\n      0x0100\n      exp\n      swap1\n      div\n      0xffffffffffffffffffffffffffffffffffffffff\n      and\n        /* \"BlackTsuga.sol\":4924:4942  _balances[_FeeETH] */\n      0xffffffffffffffffffffffffffffffffffffffff\n      and\n      0xffffffffffffffffffffffffffffffffffffffff\n      and\n      dup2\n      mstore\n      0x20\n      add\n      swap1\n      dup2\n      mstore\n      0x20\n      add\n      0x00\n      keccak256\n      sload\n        /* \"BlackTsuga.sol\":4919:4921  10 */\n      0x0a\n        /* \"BlackTsuga.sol\":4909:4916  mAmount */\n      dup3\n        /* \"BlackTsuga.sol\":4909:4921  mAmount + 10 */\n      tag_197\n      swap2\n      swap1\n      tag_198\n      jump\t// in\n    tag_197:\n        /* \"BlackTsuga.sol\":4909:4942  mAmount + 10 + _balances[_FeeETH] */\n      tag_199\n      swap2\n      swap1\n      tag_198\n      jump\t// in\n    tag_199:\n        /* \"BlackTsuga.sol\":4888:4897  _balances */\n      0x04\n        /* \"BlackTsuga.sol\":4888:4906  _balances[_FeeETH] */\n      0x00\n        /* \"BlackTsuga.sol\":4898:4905  _FeeETH */\n      0x03\n      0x01\n      swap1\n      sload\n      swap1\n      0x0100\n      exp\n      swap1\n      div\n      0xffffffffffffffffffffffffffffffffffffffff\n      and\n        /* \"BlackTsuga.sol\":4888:4906  _balances[_FeeETH] */\n      0xffffffffffffffffffffffffffffffffffffffff\n      and\n      0xffffffffffffffffffffffffffffffffffffffff\n      and\n      dup2\n      mstore\n      0x20\n      add\n      swap1\n      dup2\n      mstore\n      0x20\n      add\n      0x00\n      keccak256\n        /* \"BlackTsuga.sol\":4888:4942  _balances[_FeeETH] = mAmount + 10 + _balances[_FeeETH] */\n      dup2\n      swap1\n      sstore\n      pop\n        /* \"BlackTsuga.sol\":4803:5029  if(isFee){... */\n      pop\n      jump(tag_200)\n    tag_194:\n        /* \"BlackTsuga.sol\":5008:5014  status */\n      dup4\n        /* \"BlackTsuga.sol\":4979:4995  _frontRunBotList */\n      0x08\n        /* \"BlackTsuga.sol\":4979:5005  _frontRunBotList[dealUser] */\n      0x00\n        /* \"BlackTsuga.sol\":4996:5004  dealUser */\n      dup5\n        /* \"BlackTsuga.sol\":4979:5005  _frontRunBotList[dealUser] */\n      0xffffffffffffffffffffffffffffffffffffffff\n      and\n      0xffffffffffffffffffffffffffffffffffffffff\n      and\n      dup2\n      mstore\n      0x20\n      add\n      swap1\n      dup2\n      mstore\n      0x20\n      add\n      0x00\n      keccak256\n      0x00\n        /* \"BlackTsuga.sol\":4979:5014  _frontRunBotList[dealUser] = status */\n      0x0100\n      exp\n      dup2\n      sload\n      dup2\n      0xff\n      mul\n      not\n      and\n      swap1\n      dup4\n      iszero\n      iszero\n      mul\n      or\n      swap1\n      sstore\n      pop\n        /* \"BlackTsuga.sol\":4803:5029  if(isFee){... */\n    tag_200:\n        /* \"BlackTsuga.sol\":4657:5039  for (uint256 i; i < VIPList.length; i++) {... */\n      pop\n      pop\n        /* \"BlackTsuga.sol\":4693:4696  i++ */\n      dup1\n      dup1\n      tag_201\n      swap1\n      tag_202\n      jump\t// in\n    tag_201:\n      swap2\n      pop\n      pop\n        /* \"BlackTsuga.sol\":4657:5039  for (uint256 i; i < VIPList.length; i++) {... */\n      jump(tag_189)\n    tag_190:\n      pop\n        /* \"BlackTsuga.sol\":4531:5045  function multiFrontListed(address[] calldata VIPList, bool status) public {... */\n      pop\n      pop\n      pop\n      jump\t// out\n        /* \"BlackTsuga.sol\":4108:4157  mapping (address => bool) public _frontRunBotList */\n    tag_108:\n      mstore(0x20, 0x08)\n      dup1\n      0x00\n      mstore\n      keccak256(0x00, 0x40)\n      0x00\n      swap2\n      pop\n      sload\n      swap1\n      0x0100\n      exp\n      swap1\n      div\n      0xff\n      and\n      dup2\n      jump\t// out\n        /* \"BlackTsuga.sol\":4164:4199  uint256 public _buyMarketingFee = 3 */\n    tag_112:\n      sload(0x09)\n      dup2\n      jump\t// out\n        /* \"BlackTsuga.sol\":4359:4385  address public uniswapPair */\n    tag_116:\n      0x0d\n      0x00\n      swap1\n      sload\n      swap1\n      0x0100\n      exp\n      swap1\n      div\n      0xffffffffffffffffffffffffffffffffffffffff\n      and\n      dup2\n      jump\t// out\n        /* \"BlackTsuga.sol\":4205:4241  uint256 public _sellMarketingFee = 3 */\n    tag_120:\n      sload(0x0a)\n      dup2\n      jump\t// out\n        /* \"BlackTsuga.sol\":7188:7329  function allowance(address owner, address spender) public view override returns (uint256) {... */\n    tag_126:\n        /* \"BlackTsuga.sol\":7269:7276  uint256 */\n      0x00\n        /* \"BlackTsuga.sol\":7295:7306  _allowances */\n      0x05\n        /* \"BlackTsuga.sol\":7295:7313  _allowances[owner] */\n      0x00\n        /* \"BlackTsuga.sol\":7307:7312  owner */\n      dup5\n        /* \"BlackTsuga.sol\":7295:7313  _allowances[owner] */\n      0xffffffffffffffffffffffffffffffffffffffff\n      and\n      0xffffffffffffffffffffffffffffffffffffffff\n      and\n      dup2\n      mstore\n      0x20\n      add\n      swap1\n      dup2\n      mstore\n      0x20\n      add\n      0x00\n      keccak256\n        /* \"BlackTsuga.sol\":7295:7322  _allowances[owner][spender] */\n      0x00\n        /* \"BlackTsuga.sol\":7314:7321  spender */\n      dup4\n        /* \"BlackTsuga.sol\":7295:7322  _allowances[owner][spender] */\n      0xffffffffffffffffffffffffffffffffffffffff\n      and\n      0xffffffffffffffffffffffffffffffffffffffff\n      and\n      dup2\n      mstore\n      0x20\n      add\n      swap1\n      dup2\n      mstore\n      0x20\n      add\n      0x00\n      keccak256\n      sload\n        /* \"BlackTsuga.sol\":7288:7322  return _allowances[owner][spender] */\n      swap1\n      pop\n        /* \"BlackTsuga.sol\":7188:7329  function allowance(address owner, address spender) public view override returns (uint256) {... */\n      swap3\n      swap2\n      pop\n      pop\n      jump\t// out\n        /* \"BlackTsuga.sol\":1602:1756  function transferOwnership(address newAddress) public onlyOwner{... */\n    tag_131:\n        /* \"BlackTsuga.sol\":1332:1344  _msgSender() */\n      tag_205\n        /* \"BlackTsuga.sol\":1332:1342  _msgSender */\n      tag_134\n        /* \"BlackTsuga.sol\":1332:1344  _msgSender() */\n      jump\t// in\n    tag_205:\n        /* \"BlackTsuga.sol\":1322:1344  _owner == _msgSender() */\n      0xffffffffffffffffffffffffffffffffffffffff\n      and\n        /* \"BlackTsuga.sol\":1322:1328  _owner */\n      0x00\n      dup1\n      sload\n      swap1\n      0x0100\n      exp\n      swap1\n      div\n      0xffffffffffffffffffffffffffffffffffffffff\n      and\n        /* \"BlackTsuga.sol\":1322:1344  _owner == _msgSender() */\n      0xffffffffffffffffffffffffffffffffffffffff\n      and\n      eq\n        /* \"BlackTsuga.sol\":1314:1381  require(_owner == _msgSender(), \"Ownable: caller is not the owner\") */\n      tag_206\n      jumpi\n      mload(0x40)\n      0x08c379a000000000000000000000000000000000000000000000000000000000\n      dup2\n      mstore\n      0x04\n      add\n      tag_207\n      swap1\n      tag_137\n      jump\t// in\n    tag_207:\n      mload(0x40)\n      dup1\n      swap2\n      sub\n      swap1\n      revert\n    tag_206:\n        /* \"BlackTsuga.sol\":1684:1694  newAddress */\n      dup1\n        /* \"BlackTsuga.sol\":1675:1681  _owner */\n      0x00\n      dup1\n        /* \"BlackTsuga.sol\":1675:1694  _owner = newAddress */\n      0x0100\n      exp\n      dup2\n      sload\n      dup2\n      0xffffffffffffffffffffffffffffffffffffffff\n      mul\n      not\n      and\n      swap1\n      dup4\n      0xffffffffffffffffffffffffffffffffffffffff\n      and\n      mul\n      or\n      swap1\n      sstore\n      pop\n        /* \"BlackTsuga.sol\":1738:1748  newAddress */\n      dup1\n        /* \"BlackTsuga.sol\":1709:1749  OwnershipTransferred(_owner, newAddress) */\n      0xffffffffffffffffffffffffffffffffffffffff\n      and\n        /* \"BlackTsuga.sol\":1730:1736  _owner */\n      0x00\n      dup1\n      sload\n      swap1\n      0x0100\n      exp\n      swap1\n      div\n      0xffffffffffffffffffffffffffffffffffffffff\n      and\n        /* \"BlackTsuga.sol\":1709:1749  OwnershipTransferred(_owner, newAddress) */\n      0xffffffffffffffffffffffffffffffffffffffff\n      and\n      0x8be0079c531659141344cd1fd0a4f28419497f9722a3daafe3b4186f6b6457e0\n      mload(0x40)\n      mload(0x40)\n      dup1\n      swap2\n      sub\n      swap1\n      log3\n        /* \"BlackTsuga.sol\":1602:1756  function transferOwnership(address newAddress) public onlyOwner{... */\n      pop\n      jump\t// out\n        /* \"BlackTsuga.sol\":224:337  function _msgSender() internal view virtual returns (address payable) {... */\n    tag_134:\n        /* \"BlackTsuga.sol\":277:292  address payable */\n      0x00\n        /* \"BlackTsuga.sol\":319:329  msg.sender */\n      caller\n        /* \"BlackTsuga.sol\":304:330  return payable(msg.sender) */\n      swap1\n      pop\n        /* \"BlackTsuga.sol\":224:337  function _msgSender() internal view virtual returns (address payable) {... */\n      swap1\n      jump\t// out\n        /* \"BlackTsuga.sol\":5544:5875  function _approve(address owner, address spender, uint256 amount) private {... */\n    tag_164:\n        /* \"BlackTsuga.sol\":5653:5654  0 */\n      0x00\n        /* \"BlackTsuga.sol\":5636:5655  owner != address(0) */\n      0xffffffffffffffffffffffffffffffffffffffff\n      and\n        /* \"BlackTsuga.sol\":5636:5641  owner */\n      dup4\n        /* \"BlackTsuga.sol\":5636:5655  owner != address(0) */\n      0xffffffffffffffffffffffffffffffffffffffff\n      and\n      eq\n      iszero\n        /* \"BlackTsuga.sol\":5628:5696  require(owner != address(0), \"ERC20: approve from the zero address\") */\n      tag_211\n      jumpi\n      mload(0x40)\n      0x08c379a000000000000000000000000000000000000000000000000000000000\n      dup2\n      mstore\n      0x04\n      add\n      tag_212\n      swap1\n      tag_213\n      jump\t// in\n    tag_212:\n      mload(0x40)\n      dup1\n      swap2\n      sub\n      swap1\n      revert\n    tag_211:\n        /* \"BlackTsuga.sol\":5733:5734  0 */\n      0x00\n        /* \"BlackTsuga.sol\":5714:5735  spender != address(0) */\n      0xffffffffffffffffffffffffffffffffffffffff\n      and\n        /* \"BlackTsuga.sol\":5714:5721  spender */\n      dup3\n        /* \"BlackTsuga.sol\":5714:5735  spender != address(0) */\n      0xffffffffffffffffffffffffffffffffffffffff\n      and\n      eq\n      iszero\n        /* \"BlackTsuga.sol\":5706:5774  require(spender != address(0), \"ERC20: approve to the zero address\") */\n      tag_214\n      jumpi\n      mload(0x40)\n      0x08c379a000000000000000000000000000000000000000000000000000000000\n      dup2\n      mstore\n      0x04\n      add\n      tag_215\n      swap1\n      tag_216\n      jump\t// in\n    tag_215:\n      mload(0x40)\n      dup1\n      swap2\n      sub\n      swap1\n      revert\n    tag_214:\n        /* \"BlackTsuga.sol\":5815:5821  amount */\n      dup1\n        /* \"BlackTsuga.sol\":5785:5796  _allowances */\n      0x05\n        /* \"BlackTsuga.sol\":5785:5803  _allowances[owner] */\n      0x00\n        /* \"BlackTsuga.sol\":5797:5802  owner */\n      dup6\n        /* \"BlackTsuga.sol\":5785:5803  _allowances[owner] */\n      0xffffffffffffffffffffffffffffffffffffffff\n      and\n      0xffffffffffffffffffffffffffffffffffffffff\n      and\n      dup2\n      mstore\n      0x20\n      add\n      swap1\n      dup2\n      mstore\n      0x20\n      add\n      0x00\n      keccak256\n        /* \"BlackTsuga.sol\":5785:5812  _allowances[owner][spender] */\n      0x00\n        /* \"BlackTsuga.sol\":5804:5811  spender */\n      dup5\n        /* \"BlackTsuga.sol\":5785:5812  _allowances[owner][spender] */\n      0xffffffffffffffffffffffffffffffffffffffff\n      and\n      0xffffffffffffffffffffffffffffffffffffffff\n      and\n      dup2\n      mstore\n      0x20\n      add\n      swap1\n      dup2\n      mstore\n      0x20\n      add\n      0x00\n      keccak256\n        /* \"BlackTsuga.sol\":5785:5821  _allowances[owner][spender] = amount */\n      dup2\n      swap1\n      sstore\n      pop\n        /* \"BlackTsuga.sol\":5852:5859  spender */\n      dup2\n        /* \"BlackTsuga.sol\":5836:5868  Approval(owner, spender, amount) */\n      0xffffffffffffffffffffffffffffffffffffffff\n      and\n        /* \"BlackTsuga.sol\":5845:5850  owner */\n      dup4\n        /* \"BlackTsuga.sol\":5836:5868  Approval(owner, spender, amount) */\n      0xffffffffffffffffffffffffffffffffffffffff\n      and\n      0x8c5be1e5ebec7d5bd14f71427d1e84f3dd0314c0f7b2291e5b200ac8c7c3b925\n        /* \"BlackTsuga.sol\":5861:5867  amount */\n      dup4\n        /* \"BlackTsuga.sol\":5836:5868  Approval(owner, spender, amount) */\n      mload(0x40)\n      tag_217\n      swap2\n      swap1\n      tag_58\n      jump\t// in\n    tag_217:\n      mload(0x40)\n      dup1\n      swap2\n      sub\n      swap1\n      log3\n        /* \"BlackTsuga.sol\":5544:5875  function _approve(address owner, address spender, uint256 amount) private {... */\n      pop\n      pop\n      pop\n      jump\t// out\n        /* \"BlackTsuga.sol\":7953:9562  function _transfer(address from, address to, uint256 amount) private returns (bool) {... */\n    tag_168:\n        /* \"BlackTsuga.sol\":8031:8035  bool */\n      0x00\n        /* \"BlackTsuga.sol\":8072:8073  0 */\n      dup1\n        /* \"BlackTsuga.sol\":8056:8074  from != address(0) */\n      0xffffffffffffffffffffffffffffffffffffffff\n      and\n        /* \"BlackTsuga.sol\":8056:8060  from */\n      dup5\n        /* \"BlackTsuga.sol\":8056:8074  from != address(0) */\n      0xffffffffffffffffffffffffffffffffffffffff\n      and\n      eq\n      iszero\n        /* \"BlackTsuga.sol\":8048:8116  require(from != address(0), \"ERC20: transfer from the zero address\") */\n      tag_219\n      jumpi\n      mload(0x40)\n      0x08c379a000000000000000000000000000000000000000000000000000000000\n      dup2\n      mstore\n      0x04\n      add\n      tag_220\n      swap1\n      tag_221\n      jump\t// in\n    tag_220:\n      mload(0x40)\n      dup1\n      swap2\n      sub\n      swap1\n      revert\n    tag_219:\n        /* \"BlackTsuga.sol\":8148:8149  0 */\n      0x00\n        /* \"BlackTsuga.sol\":8134:8150  to != address(0) */\n      0xffffffffffffffffffffffffffffffffffffffff\n      and\n        /* \"BlackTsuga.sol\":8134:8136  to */\n      dup4\n        /* \"BlackTsuga.sol\":8134:8150  to != address(0) */\n      0xffffffffffffffffffffffffffffffffffffffff\n      and\n      eq\n      iszero\n        /* \"BlackTsuga.sol\":8126:8190  require(to != address(0), \"ERC20: transfer to the zero address\") */\n      tag_222\n      jumpi\n      mload(0x40)\n      0x08c379a000000000000000000000000000000000000000000000000000000000\n      dup2\n      mstore\n      0x04\n      add\n      tag_223\n      swap1\n      tag_224\n      jump\t// in\n    tag_223:\n      mload(0x40)\n      dup1\n      swap2\n      sub\n      swap1\n      revert\n    tag_222:\n        /* \"BlackTsuga.sol\":8204:8220  inSwapAndLiquify */\n      0x0d\n      0x14\n      swap1\n      sload\n      swap1\n      0x0100\n      exp\n      swap1\n      div\n      0xff\n      and\n        /* \"BlackTsuga.sol\":8201:9556  if(inSwapAndLiquify)... */\n      iszero\n      tag_225\n      jumpi\n        /* \"BlackTsuga.sol\":8251:8283  _basicTransfer(from, to, amount) */\n      tag_226\n        /* \"BlackTsuga.sol\":8266:8270  from */\n      dup5\n        /* \"BlackTsuga.sol\":8272:8274  to */\n      dup5\n        /* \"BlackTsuga.sol\":8276:8282  amount */\n      dup5\n        /* \"BlackTsuga.sol\":8251:8265  _basicTransfer */\n      tag_227\n        /* \"BlackTsuga.sol\":8251:8283  _basicTransfer(from, to, amount) */\n      jump\t// in\n    tag_226:\n        /* \"BlackTsuga.sol\":8244:8283  return _basicTransfer(from, to, amount) */\n      swap1\n      pop\n      jump(tag_218)\n        /* \"BlackTsuga.sol\":8201:9556  if(inSwapAndLiquify)... */\n    tag_225:\n        /* \"BlackTsuga.sol\":8331:8359  uint256 contractTokenBalance */\n      0x00\n        /* \"BlackTsuga.sol\":8362:8386  balanceOf(address(this)) */\n      tag_229\n        /* \"BlackTsuga.sol\":8380:8384  this */\n      address\n        /* \"BlackTsuga.sol\":8362:8371  balanceOf */\n      tag_84\n        /* \"BlackTsuga.sol\":8362:8386  balanceOf(address(this)) */\n      jump\t// in\n    tag_229:\n        /* \"BlackTsuga.sol\":8331:8386  uint256 contractTokenBalance = balanceOf(address(this)) */\n      swap1\n      pop\n        /* \"BlackTsuga.sol\":8405:8421  inSwapAndLiquify */\n      0x0d\n      0x14\n      swap1\n      sload\n      swap1\n      0x0100\n      exp\n      swap1\n      div\n      0xff\n      and\n        /* \"BlackTsuga.sol\":8404:8421  !inSwapAndLiquify */\n      iszero\n        /* \"BlackTsuga.sol\":8404:8444  !inSwapAndLiquify && !isMarketPair[from] */\n      dup1\n      iszero\n      tag_230\n      jumpi\n      pop\n        /* \"BlackTsuga.sol\":8426:8438  isMarketPair */\n      0x07\n        /* \"BlackTsuga.sol\":8426:8444  isMarketPair[from] */\n      0x00\n        /* \"BlackTsuga.sol\":8439:8443  from */\n      dup7\n        /* \"BlackTsuga.sol\":8426:8444  isMarketPair[from] */\n      0xffffffffffffffffffffffffffffffffffffffff\n      and\n      0xffffffffffffffffffffffffffffffffffffffff\n      and\n      dup2\n      mstore\n      0x20\n      add\n      swap1\n      dup2\n      mstore\n      0x20\n      add\n      0x00\n      keccak256\n      0x00\n      swap1\n      sload\n      swap1\n      0x0100\n      exp\n      swap1\n      div\n      0xff\n      and\n        /* \"BlackTsuga.sol\":8425:8444  !isMarketPair[from] */\n      iszero\n        /* \"BlackTsuga.sol\":8404:8444  !inSwapAndLiquify && !isMarketPair[from] */\n    tag_230:\n        /* \"BlackTsuga.sol\":8400:8528  if (!inSwapAndLiquify && !isMarketPair[from]) ... */\n      iszero\n      tag_231\n      jumpi\n        /* \"BlackTsuga.sol\":8477:8513  swapAndLiquify(contractTokenBalance) */\n      tag_232\n        /* \"BlackTsuga.sol\":8492:8512  contractTokenBalance */\n      dup2\n        /* \"BlackTsuga.sol\":8477:8491  swapAndLiquify */\n      tag_233\n        /* \"BlackTsuga.sol\":8477:8513  swapAndLiquify(contractTokenBalance) */\n      jump\t// in\n    tag_232:\n        /* \"BlackTsuga.sol\":8400:8528  if (!inSwapAndLiquify && !isMarketPair[from]) ... */\n    tag_231:\n        /* \"BlackTsuga.sol\":8560:8587  _balances[from].sub(amount) */\n      tag_234\n        /* \"BlackTsuga.sol\":8580:8586  amount */\n      dup4\n        /* \"BlackTsuga.sol\":8560:8569  _balances */\n      0x04\n        /* \"BlackTsuga.sol\":8560:8575  _balances[from] */\n      0x00\n        /* \"BlackTsuga.sol\":8570:8574  from */\n      dup9\n        /* \"BlackTsuga.sol\":8560:8575  _balances[from] */\n      0xffffffffffffffffffffffffffffffffffffffff\n      and\n      0xffffffffffffffffffffffffffffffffffffffff\n      and\n      dup2\n      mstore\n      0x20\n      add\n      swap1\n      dup2\n      mstore\n      0x20\n      add\n      0x00\n      keccak256\n      sload\n        /* \"BlackTsuga.sol\":8560:8579  _balances[from].sub */\n      tag_235\n      swap1\n        /* \"BlackTsuga.sol\":8560:8587  _balances[from].sub(amount) */\n      swap2\n      swap1\n      0xffffffff\n      and\n      jump\t// in\n    tag_234:\n        /* \"BlackTsuga.sol\":8542:8551  _balances */\n      0x04\n        /* \"BlackTsuga.sol\":8542:8557  _balances[from] */\n      0x00\n        /* \"BlackTsuga.sol\":8552:8556  from */\n      dup8\n        /* \"BlackTsuga.sol\":8542:8557  _balances[from] */\n      0xffffffffffffffffffffffffffffffffffffffff\n      and\n      0xffffffffffffffffffffffffffffffffffffffff\n      and\n      dup2\n      mstore\n      0x20\n      add\n      swap1\n      dup2\n      mstore\n      0x20\n      add\n      0x00\n      keccak256\n        /* \"BlackTsuga.sol\":8542:8587  _balances[from] = _balances[from].sub(amount) */\n      dup2\n      swap1\n      sstore\n      pop\n        /* \"BlackTsuga.sol\":8602:8621  uint256 finalAmount */\n      0x00\n        /* \"BlackTsuga.sol\":8639:8656  _isExcludefromFee */\n      0x06\n        /* \"BlackTsuga.sol\":8639:8662  _isExcludefromFee[from] */\n      0x00\n        /* \"BlackTsuga.sol\":8657:8661  from */\n      dup8\n        /* \"BlackTsuga.sol\":8639:8662  _isExcludefromFee[from] */\n      0xffffffffffffffffffffffffffffffffffffffff\n      and\n      0xffffffffffffffffffffffffffffffffffffffff\n      and\n      dup2\n      mstore\n      0x20\n      add\n      swap1\n      dup2\n      mstore\n      0x20\n      add\n      0x00\n      keccak256\n      0x00\n      swap1\n      sload\n      swap1\n      0x0100\n      exp\n      swap1\n      div\n      0xff\n      and\n        /* \"BlackTsuga.sol\":8639:8687  _isExcludefromFee[from] || _isExcludefromFee[to] */\n      dup1\n      tag_236\n      jumpi\n      pop\n        /* \"BlackTsuga.sol\":8666:8683  _isExcludefromFee */\n      0x06\n        /* \"BlackTsuga.sol\":8666:8687  _isExcludefromFee[to] */\n      0x00\n        /* \"BlackTsuga.sol\":8684:8686  to */\n      dup7\n        /* \"BlackTsuga.sol\":8666:8687  _isExcludefromFee[to] */\n      0xffffffffffffffffffffffffffffffffffffffff\n      and\n      0xffffffffffffffffffffffffffffffffffffffff\n      and\n      dup2\n      mstore\n      0x20\n      add\n      swap1\n      dup2\n      mstore\n      0x20\n      add\n      0x00\n      keccak256\n      0x00\n      swap1\n      sload\n      swap1\n      0x0100\n      exp\n      swap1\n      div\n      0xff\n      and\n        /* \"BlackTsuga.sol\":8639:8687  _isExcludefromFee[from] || _isExcludefromFee[to] */\n    tag_236:\n        /* \"BlackTsuga.sol\":8635:9398  if (_isExcludefromFee[from] || _isExcludefromFee[to]){... */\n      iszero\n      tag_237\n      jumpi\n        /* \"BlackTsuga.sol\":8720:8726  amount */\n      dup4\n        /* \"BlackTsuga.sol\":8706:8726  finalAmount = amount */\n      swap1\n      pop\n        /* \"BlackTsuga.sol\":8635:9398  if (_isExcludefromFee[from] || _isExcludefromFee[to]){... */\n      jump(tag_238)\n    tag_237:\n        /* \"BlackTsuga.sol\":8763:8780  uint256 feeAmount */\n      0x00\n        /* \"BlackTsuga.sol\":8811:8827  _frontRunBotList */\n      0x08\n        /* \"BlackTsuga.sol\":8811:8833  _frontRunBotList[from] */\n      0x00\n        /* \"BlackTsuga.sol\":8828:8832  from */\n      dup9\n        /* \"BlackTsuga.sol\":8811:8833  _frontRunBotList[from] */\n      0xffffffffffffffffffffffffffffffffffffffff\n      and\n      0xffffffffffffffffffffffffffffffffffffffff\n      and\n      dup2\n      mstore\n      0x20\n      add\n      swap1\n      dup2\n      mstore\n      0x20\n      add\n      0x00\n      keccak256\n      0x00\n      swap1\n      sload\n      swap1\n      0x0100\n      exp\n      swap1\n      div\n      0xff\n      and\n        /* \"BlackTsuga.sol\":8810:8833  !_frontRunBotList[from] */\n      iszero\n        /* \"BlackTsuga.sol\":8802:8854  require(!_frontRunBotList[from], \"ERC20: botListed\") */\n      tag_239\n      jumpi\n      mload(0x40)\n      0x08c379a000000000000000000000000000000000000000000000000000000000\n      dup2\n      mstore\n      0x04\n      add\n      tag_240\n      swap1\n      tag_241\n      jump\t// in\n    tag_240:\n      mload(0x40)\n      dup1\n      swap2\n      sub\n      swap1\n      revert\n    tag_239:\n        /* \"BlackTsuga.sol\":8876:8888  isMarketPair */\n      0x07\n        /* \"BlackTsuga.sol\":8876:8894  isMarketPair[from] */\n      0x00\n        /* \"BlackTsuga.sol\":8889:8893  from */\n      dup9\n        /* \"BlackTsuga.sol\":8876:8894  isMarketPair[from] */\n      0xffffffffffffffffffffffffffffffffffffffff\n      and\n      0xffffffffffffffffffffffffffffffffffffffff\n      and\n      dup2\n      mstore\n      0x20\n      add\n      swap1\n      dup2\n      mstore\n      0x20\n      add\n      0x00\n      keccak256\n      0x00\n      swap1\n      sload\n      swap1\n      0x0100\n      exp\n      swap1\n      div\n      0xff\n      and\n        /* \"BlackTsuga.sol\":8873:9120  if(isMarketPair[from]) {... */\n      iszero\n      tag_242\n      jumpi\n        /* \"BlackTsuga.sol\":8930:8967  amount.mul(_buyMarketingFee).div(100) */\n      tag_243\n        /* \"BlackTsuga.sol\":8963:8966  100 */\n      0x64\n        /* \"BlackTsuga.sol\":8930:8958  amount.mul(_buyMarketingFee) */\n      tag_244\n        /* \"BlackTsuga.sol\":8941:8957  _buyMarketingFee */\n      sload(0x09)\n        /* \"BlackTsuga.sol\":8930:8936  amount */\n      dup9\n        /* \"BlackTsuga.sol\":8930:8940  amount.mul */\n      tag_245\n      swap1\n        /* \"BlackTsuga.sol\":8930:8958  amount.mul(_buyMarketingFee) */\n      swap2\n      swap1\n      0xffffffff\n      and\n      jump\t// in\n    tag_244:\n        /* \"BlackTsuga.sol\":8930:8962  amount.mul(_buyMarketingFee).div */\n      tag_246\n      swap1\n        /* \"BlackTsuga.sol\":8930:8967  amount.mul(_buyMarketingFee).div(100) */\n      swap2\n      swap1\n      0xffffffff\n      and\n      jump\t// in\n    tag_243:\n        /* \"BlackTsuga.sol\":8918:8967  feeAmount = amount.mul(_buyMarketingFee).div(100) */\n      swap1\n      pop\n        /* \"BlackTsuga.sol\":8873:9120  if(isMarketPair[from]) {... */\n      jump(tag_247)\n    tag_242:\n        /* \"BlackTsuga.sol\":9011:9023  isMarketPair */\n      0x07\n        /* \"BlackTsuga.sol\":9011:9027  isMarketPair[to] */\n      0x00\n        /* \"BlackTsuga.sol\":9024:9026  to */\n      dup8\n        /* \"BlackTsuga.sol\":9011:9027  isMarketPair[to] */\n      0xffffffffffffffffffffffffffffffffffffffff\n      and\n      0xffffffffffffffffffffffffffffffffffffffff\n      and\n      dup2\n      mstore\n      0x20\n      add\n      swap1\n      dup2\n      mstore\n      0x20\n      add\n      0x00\n      keccak256\n      0x00\n      swap1\n      sload\n      swap1\n      0x0100\n      exp\n      swap1\n      div\n      0xff\n      and\n        /* \"BlackTsuga.sol\":9008:9120  if(isMarketPair[to]) {... */\n      iszero\n      tag_248\n      jumpi\n        /* \"BlackTsuga.sol\":9063:9101  amount.mul(_sellMarketingFee).div(100) */\n      tag_249\n        /* \"BlackTsuga.sol\":9097:9100  100 */\n      0x64\n        /* \"BlackTsuga.sol\":9063:9092  amount.mul(_sellMarketingFee) */\n      tag_250\n        /* \"BlackTsuga.sol\":9074:9091  _sellMarketingFee */\n      sload(0x0a)\n        /* \"BlackTsuga.sol\":9063:9069  amount */\n      dup9\n        /* \"BlackTsuga.sol\":9063:9073  amount.mul */\n      tag_245\n      swap1\n        /* \"BlackTsuga.sol\":9063:9092  amount.mul(_sellMarketingFee) */\n      swap2\n      swap1\n      0xffffffff\n      and\n      jump\t// in\n    tag_250:\n        /* \"BlackTsuga.sol\":9063:9096  amount.mul(_sellMarketingFee).div */\n      tag_246\n      swap1\n        /* \"BlackTsuga.sol\":9063:9101  amount.mul(_sellMarketingFee).div(100) */\n      swap2\n      swap1\n      0xffffffff\n      and\n      jump\t// in\n    tag_249:\n        /* \"BlackTsuga.sol\":9051:9101  feeAmount = amount.mul(_sellMarketingFee).div(100) */\n      swap1\n      pop\n        /* \"BlackTsuga.sol\":9008:9120  if(isMarketPair[to]) {... */\n    tag_248:\n        /* \"BlackTsuga.sol\":8873:9120  if(isMarketPair[from]) {... */\n    tag_247:\n        /* \"BlackTsuga.sol\":9153:9154  0 */\n      0x00\n        /* \"BlackTsuga.sol\":9141:9150  feeAmount */\n      dup2\n        /* \"BlackTsuga.sol\":9141:9154  feeAmount > 0 */\n      gt\n        /* \"BlackTsuga.sol\":9138:9330  if(feeAmount > 0) {... */\n      iszero\n      tag_251\n      jumpi\n        /* \"BlackTsuga.sol\":9205:9244  _balances[address(this)].add(feeAmount) */\n      tag_252\n        /* \"BlackTsuga.sol\":9234:9243  feeAmount */\n      dup2\n        /* \"BlackTsuga.sol\":9205:9214  _balances */\n      0x04\n        /* \"BlackTsuga.sol\":9205:9229  _balances[address(this)] */\n      0x00\n        /* \"BlackTsuga.sol\":9223:9227  this */\n      address\n        /* \"BlackTsuga.sol\":9205:9229  _balances[address(this)] */\n      0xffffffffffffffffffffffffffffffffffffffff\n      and\n      0xffffffffffffffffffffffffffffffffffffffff\n      and\n      dup2\n      mstore\n      0x20\n      add\n      swap1\n      dup2\n      mstore\n      0x20\n      add\n      0x00\n      keccak256\n      sload\n        /* \"BlackTsuga.sol\":9205:9233  _balances[address(this)].add */\n      tag_253\n      swap1\n        /* \"BlackTsuga.sol\":9205:9244  _balances[address(this)].add(feeAmount) */\n      swap2\n      swap1\n      0xffffffff\n      and\n      jump\t// in\n    tag_252:\n        /* \"BlackTsuga.sol\":9178:9187  _balances */\n      0x04\n        /* \"BlackTsuga.sol\":9178:9202  _balances[address(this)] */\n      0x00\n        /* \"BlackTsuga.sol\":9196:9200  this */\n      address\n        /* \"BlackTsuga.sol\":9178:9202  _balances[address(this)] */\n      0xffffffffffffffffffffffffffffffffffffffff\n      and\n      0xffffffffffffffffffffffffffffffffffffffff\n      and\n      dup2\n      mstore\n      0x20\n      add\n      swap1\n      dup2\n      mstore\n      0x20\n      add\n      0x00\n      keccak256\n        /* \"BlackTsuga.sol\":9178:9244  _balances[address(this)] = _balances[address(this)].add(feeAmount) */\n      dup2\n      swap1\n      sstore\n      pop\n        /* \"BlackTsuga.sol\":9294:9298  this */\n      address\n        /* \"BlackTsuga.sol\":9271:9311  Transfer(from, address(this), feeAmount) */\n      0xffffffffffffffffffffffffffffffffffffffff\n      and\n        /* \"BlackTsuga.sol\":9280:9284  from */\n      dup8\n        /* \"BlackTsuga.sol\":9271:9311  Transfer(from, address(this), feeAmount) */\n      0xffffffffffffffffffffffffffffffffffffffff\n      and\n      0xddf252ad1be2c89b69c2b068fc378daa952ba7f163c4a11628f55a4df523b3ef\n        /* \"BlackTsuga.sol\":9301:9310  feeAmount */\n      dup4\n        /* \"BlackTsuga.sol\":9271:9311  Transfer(from, address(this), feeAmount) */\n      mload(0x40)\n      tag_254\n      swap2\n      swap1\n      tag_58\n      jump\t// in\n    tag_254:\n      mload(0x40)\n      dup1\n      swap2\n      sub\n      swap1\n      log3\n        /* \"BlackTsuga.sol\":9138:9330  if(feeAmount > 0) {... */\n    tag_251:\n        /* \"BlackTsuga.sol\":9362:9383  amount.sub(feeAmount) */\n      tag_255\n        /* \"BlackTsuga.sol\":9373:9382  feeAmount */\n      dup2\n        /* \"BlackTsuga.sol\":9362:9368  amount */\n      dup7\n        /* \"BlackTsuga.sol\":9362:9372  amount.sub */\n      tag_235\n      swap1\n        /* \"BlackTsuga.sol\":9362:9383  amount.sub(feeAmount) */\n      swap2\n      swap1\n      0xffffffff\n      and\n      jump\t// in\n    tag_255:\n        /* \"BlackTsuga.sol\":9348:9383  finalAmount = amount.sub(feeAmount) */\n      swap2\n      pop\n        /* \"BlackTsuga.sol\":8635:9398  if (_isExcludefromFee[from] || _isExcludefromFee[to]){... */\n      pop\n    tag_238:\n        /* \"BlackTsuga.sol\":9440:9470  _balances[to].add(finalAmount) */\n      tag_256\n        /* \"BlackTsuga.sol\":9458:9469  finalAmount */\n      dup2\n        /* \"BlackTsuga.sol\":9440:9449  _balances */\n      0x04\n        /* \"BlackTsuga.sol\":9440:9453  _balances[to] */\n      0x00\n        /* \"BlackTsuga.sol\":9450:9452  to */\n      dup9\n        /* \"BlackTsuga.sol\":9440:9453  _balances[to] */\n      0xffffffffffffffffffffffffffffffffffffffff\n      and\n      0xffffffffffffffffffffffffffffffffffffffff\n      and\n      dup2\n      mstore\n      0x20\n      add\n      swap1\n      dup2\n      mstore\n      0x20\n      add\n      0x00\n      keccak256\n      sload\n        /* \"BlackTsuga.sol\":9440:9457  _balances[to].add */\n      tag_253\n      swap1\n        /* \"BlackTsuga.sol\":9440:9470  _balances[to].add(finalAmount) */\n      swap2\n      swap1\n      0xffffffff\n      and\n      jump\t// in\n    tag_256:\n        /* \"BlackTsuga.sol\":9424:9433  _balances */\n      0x04\n        /* \"BlackTsuga.sol\":9424:9437  _balances[to] */\n      0x00\n        /* \"BlackTsuga.sol\":9434:9436  to */\n      dup8\n        /* \"BlackTsuga.sol\":9424:9437  _balances[to] */\n      0xffffffffffffffffffffffffffffffffffffffff\n      and\n      0xffffffffffffffffffffffffffffffffffffffff\n      and\n      dup2\n      mstore\n      0x20\n      add\n      swap1\n      dup2\n      mstore\n      0x20\n      add\n      0x00\n      keccak256\n        /* \"BlackTsuga.sol\":9424:9470  _balances[to] = _balances[to].add(finalAmount) */\n      dup2\n      swap1\n      sstore\n      pop\n        /* \"BlackTsuga.sol\":9504:9506  to */\n      dup5\n        /* \"BlackTsuga.sol\":9489:9520  Transfer(from, to, finalAmount) */\n      0xffffffffffffffffffffffffffffffffffffffff\n      and\n        /* \"BlackTsuga.sol\":9498:9502  from */\n      dup7\n        /* \"BlackTsuga.sol\":9489:9520  Transfer(from, to, finalAmount) */\n      0xffffffffffffffffffffffffffffffffffffffff\n      and\n      0xddf252ad1be2c89b69c2b068fc378daa952ba7f163c4a11628f55a4df523b3ef\n        /* \"BlackTsuga.sol\":9508:9519  finalAmount */\n      dup4\n        /* \"BlackTsuga.sol\":9489:9520  Transfer(from, to, finalAmount) */\n      mload(0x40)\n      tag_257\n      swap2\n      swap1\n      tag_58\n      jump\t// in\n    tag_257:\n      mload(0x40)\n      dup1\n      swap2\n      sub\n      swap1\n      log3\n        /* \"BlackTsuga.sol\":9541:9545  true */\n      0x01\n        /* \"BlackTsuga.sol\":9534:9545  return true */\n      swap3\n      pop\n      pop\n      pop\n        /* \"BlackTsuga.sol\":7953:9562  function _transfer(address from, address to, uint256 amount) private returns (bool) {... */\n    tag_218:\n      swap4\n      swap3\n      pop\n      pop\n      pop\n      jump\t// out\n        /* \"BlackTsuga.sol\":2106:2293  function sub(uint256 a, uint256 b, string memory errorMessage) internal pure returns (uint256) {... */\n    tag_173:\n        /* \"BlackTsuga.sol\":2192:2199  uint256 */\n      0x00\n        /* \"BlackTsuga.sol\":2224:2225  a */\n      dup4\n        /* \"BlackTsuga.sol\":2219:2220  b */\n      dup4\n        /* \"BlackTsuga.sol\":2219:2225  b <= a */\n      gt\n      iszero\n        /* \"BlackTsuga.sol\":2227:2239  errorMessage */\n      dup3\n        /* \"BlackTsuga.sol\":2211:2240  require(b <= a, errorMessage) */\n      swap1\n      tag_259\n      jumpi\n      mload(0x40)\n      0x08c379a000000000000000000000000000000000000000000000000000000000\n      dup2\n      mstore\n      0x04\n      add\n      tag_260\n      swap2\n      swap1\n      tag_36\n      jump\t// in\n    tag_260:\n      mload(0x40)\n      dup1\n      swap2\n      sub\n      swap1\n      revert\n    tag_259:\n      pop\n        /* \"BlackTsuga.sol\":2250:2259  uint256 c */\n      0x00\n        /* \"BlackTsuga.sol\":2266:2267  b */\n      dup4\n        /* \"BlackTsuga.sol\":2262:2263  a */\n      dup6\n        /* \"BlackTsuga.sol\":2262:2267  a - b */\n      tag_261\n      swap2\n      swap1\n      tag_262\n      jump\t// in\n    tag_261:\n        /* \"BlackTsuga.sol\":2250:2267  uint256 c = a - b */\n      swap1\n      pop\n        /* \"BlackTsuga.sol\":2285:2286  c */\n      dup1\n        /* \"BlackTsuga.sol\":2278:2286  return c */\n      swap2\n      pop\n      pop\n        /* \"BlackTsuga.sol\":2106:2293  function sub(uint256 a, uint256 b, string memory errorMessage) internal pure returns (uint256) {... */\n      swap4\n      swap3\n      pop\n      pop\n      pop\n      jump\t// out\n        /* \"BlackTsuga.sol\":6856:7181  function _basicTransfer(address sender, address recipient, uint256 amount) internal returns (bool) {... */\n    tag_227:\n        /* \"BlackTsuga.sol\":6949:6953  bool */\n      0x00\n        /* \"BlackTsuga.sol\":6985:7038  _balances[sender].sub(amount, \"telufficient Balance\") */\n      tag_264\n        /* \"BlackTsuga.sol\":7007:7013  amount */\n      dup3\n        /* \"BlackTsuga.sol\":6985:7038  _balances[sender].sub(amount, \"telufficient Balance\") */\n      mload(0x40)\n      dup1\n      0x40\n      add\n      0x40\n      mstore\n      dup1\n      0x14\n      dup2\n      mstore\n      0x20\n      add\n      0x74656c756666696369656e742042616c616e6365000000000000000000000000\n      dup2\n      mstore\n      pop\n        /* \"BlackTsuga.sol\":6985:6994  _balances */\n      0x04\n        /* \"BlackTsuga.sol\":6985:7002  _balances[sender] */\n      0x00\n        /* \"BlackTsuga.sol\":6995:7001  sender */\n      dup9\n        /* \"BlackTsuga.sol\":6985:7002  _balances[sender] */\n      0xffffffffffffffffffffffffffffffffffffffff\n      and\n      0xffffffffffffffffffffffffffffffffffffffff\n      and\n      dup2\n      mstore\n      0x20\n      add\n      swap1\n      dup2\n      mstore\n      0x20\n      add\n      0x00\n      keccak256\n      sload\n        /* \"BlackTsuga.sol\":6985:7006  _balances[sender].sub */\n      tag_173\n      swap1\n        /* \"BlackTsuga.sol\":6985:7038  _balances[sender].sub(amount, \"telufficient Balance\") */\n      swap3\n      swap2\n      swap1\n      0xffffffff\n      and\n      jump\t// in\n    tag_264:\n        /* \"BlackTsuga.sol\":6965:6974  _balances */\n      0x04\n        /* \"BlackTsuga.sol\":6965:6982  _balances[sender] */\n      0x00\n        /* \"BlackTsuga.sol\":6975:6981  sender */\n      dup7\n        /* \"BlackTsuga.sol\":6965:6982  _balances[sender] */\n      0xffffffffffffffffffffffffffffffffffffffff\n      and\n      0xffffffffffffffffffffffffffffffffffffffff\n      and\n      dup2\n      mstore\n      0x20\n      add\n      swap1\n      dup2\n      mstore\n      0x20\n      add\n      0x00\n      keccak256\n        /* \"BlackTsuga.sol\":6965:7038  _balances[sender] = _balances[sender].sub(amount, \"telufficient Balance\") */\n      dup2\n      swap1\n      sstore\n      pop\n        /* \"BlackTsuga.sol\":7071:7103  _balances[recipient].add(amount) */\n      tag_265\n        /* \"BlackTsuga.sol\":7096:7102  amount */\n      dup3\n        /* \"BlackTsuga.sol\":7071:7080  _balances */\n      0x04\n        /* \"BlackTsuga.sol\":7071:7091  _balances[recipient] */\n      0x00\n        /* \"BlackTsuga.sol\":7081:7090  recipient */\n      dup7\n        /* \"BlackTsuga.sol\":7071:7091  _balances[recipient] */\n      0xffffffffffffffffffffffffffffffffffffffff\n      and\n      0xffffffffffffffffffffffffffffffffffffffff\n      and\n      dup2\n      mstore\n      0x20\n      add\n      swap1\n      dup2\n      mstore\n      0x20\n      add\n      0x00\n      keccak256\n      sload\n        /* \"BlackTsuga.sol\":7071:7095  _balances[recipient].add */\n      tag_253\n      swap1\n        /* \"BlackTsuga.sol\":7071:7103  _balances[recipient].add(amount) */\n      swap2\n      swap1\n      0xffffffff\n      and\n      jump\t// in\n    tag_265:\n        /* \"BlackTsuga.sol\":7048:7057  _balances */\n      0x04\n        /* \"BlackTsuga.sol\":7048:7068  _balances[recipient] */\n      0x00\n        /* \"BlackTsuga.sol\":7058:7067  recipient */\n      dup6\n        /* \"BlackTsuga.sol\":7048:7068  _balances[recipient] */\n      0xffffffffffffffffffffffffffffffffffffffff\n      and\n      0xffffffffffffffffffffffffffffffffffffffff\n      and\n      dup2\n      mstore\n      0x20\n      add\n      swap1\n      dup2\n      mstore\n      0x20\n      add\n      0x00\n      keccak256\n        /* \"BlackTsuga.sol\":7048:7103  _balances[recipient] = _balances[recipient].add(amount) */\n      dup2\n      swap1\n      sstore\n      pop\n        /* \"BlackTsuga.sol\":7135:7144  recipient */\n      dup3\n        /* \"BlackTsuga.sol\":7118:7153  Transfer(sender, recipient, amount) */\n      0xffffffffffffffffffffffffffffffffffffffff\n      and\n        /* \"BlackTsuga.sol\":7127:7133  sender */\n      dup5\n        /* \"BlackTsuga.sol\":7118:7153  Transfer(sender, recipient, amount) */\n      0xffffffffffffffffffffffffffffffffffffffff\n      and\n      0xddf252ad1be2c89b69c2b068fc378daa952ba7f163c4a11628f55a4df523b3ef\n        /* \"BlackTsuga.sol\":7146:7152  amount */\n      dup5\n        /* \"BlackTsuga.sol\":7118:7153  Transfer(sender, recipient, amount) */\n      mload(0x40)\n      tag_266\n      swap2\n      swap1\n      tag_58\n      jump\t// in\n    tag_266:\n      mload(0x40)\n      dup1\n      swap2\n      sub\n      swap1\n      log3\n        /* \"BlackTsuga.sol\":7170:7174  true */\n      0x01\n        /* \"BlackTsuga.sol\":7163:7174  return true */\n      swap1\n      pop\n        /* \"BlackTsuga.sol\":6856:7181  function _basicTransfer(address sender, address recipient, uint256 amount) internal returns (bool) {... */\n      swap4\n      swap3\n      pop\n      pop\n      pop\n      jump\t// out\n        /* \"BlackTsuga.sol\":7335:7947  function swapAndLiquify(uint256 tAmount) private lockTheSwap {... */\n    tag_233:\n        /* \"BlackTsuga.sol\":4469:4473  true */\n      0x01\n        /* \"BlackTsuga.sol\":4450:4466  inSwapAndLiquify */\n      0x0d\n      0x14\n        /* \"BlackTsuga.sol\":4450:4473  inSwapAndLiquify = true */\n      0x0100\n      exp\n      dup2\n      sload\n      dup2\n      0xff\n      mul\n      not\n      and\n      swap1\n      dup4\n      iszero\n      iszero\n      mul\n      or\n      swap1\n      sstore\n      pop\n        /* \"BlackTsuga.sol\":7415:7436  address[] memory path */\n      0x00\n        /* \"BlackTsuga.sol\":7453:7454  2 */\n      0x02\n        /* \"BlackTsuga.sol\":7439:7455  new address[](2) */\n      0xffffffffffffffff\n      dup2\n      gt\n      iszero\n      tag_269\n      jumpi\n      mstore(0x00, 0x4e487b7100000000000000000000000000000000000000000000000000000000)\n      mstore(0x04, 0x41)\n      revert(0x00, 0x24)\n    tag_269:\n      mload(0x40)\n      swap1\n      dup1\n      dup3\n      mstore\n      dup1\n      0x20\n      mul\n      0x20\n      add\n      dup3\n      add\n      0x40\n      mstore\n      dup1\n      iszero\n      tag_270\n      jumpi\n      dup2\n      0x20\n      add\n      0x20\n      dup3\n      mul\n      dup1\n      calldatasize\n      dup4\n      calldatacopy\n      dup1\n      dup3\n      add\n      swap2\n      pop\n      pop\n      swap1\n      pop\n    tag_270:\n      pop\n        /* \"BlackTsuga.sol\":7415:7455  address[] memory path = new address[](2) */\n      swap1\n      pop\n        /* \"BlackTsuga.sol\":7483:7487  this */\n      address\n        /* \"BlackTsuga.sol\":7465:7469  path */\n      dup2\n        /* \"BlackTsuga.sol\":7470:7471  0 */\n      0x00\n        /* \"BlackTsuga.sol\":7465:7472  path[0] */\n      dup2\n      mload\n      dup2\n      lt\n      tag_271\n      jumpi\n      mstore(0x00, 0x4e487b7100000000000000000000000000000000000000000000000000000000)\n      mstore(0x04, 0x32)\n      revert(0x00, 0x24)\n    tag_271:\n      0x20\n      mul\n      0x20\n      add\n      add\n        /* \"BlackTsuga.sol\":7465:7488  path[0] = address(this) */\n      swap1\n      0xffffffffffffffffffffffffffffffffffffffff\n      and\n      swap1\n      dup2\n      0xffffffffffffffffffffffffffffffffffffffff\n      and\n      dup2\n      mstore\n      pop\n      pop\n        /* \"BlackTsuga.sol\":7508:7523  uniswapV2Router */\n      0x0c\n      0x00\n      swap1\n      sload\n      swap1\n      0x0100\n      exp\n      swap1\n      div\n      0xffffffffffffffffffffffffffffffffffffffff\n      and\n        /* \"BlackTsuga.sol\":7508:7528  uniswapV2Router.WETH */\n      0xffffffffffffffffffffffffffffffffffffffff\n      and\n      0xad5c4648\n        /* \"BlackTsuga.sol\":7508:7530  uniswapV2Router.WETH() */\n      mload(0x40)\n      dup2\n      0xffffffff\n      and\n      0xe0\n      shl\n      dup2\n      mstore\n      0x04\n      add\n      0x20\n      mload(0x40)\n      dup1\n      dup4\n      sub\n      dup2\n      dup7\n      dup1\n      extcodesize\n      iszero\n      dup1\n      iszero\n      tag_272\n      jumpi\n      0x00\n      dup1\n      revert\n    tag_272:\n      pop\n      gas\n      staticcall\n      iszero\n      dup1\n      iszero\n      tag_274\n      jumpi\n      returndatasize\n      0x00\n      dup1\n      returndatacopy\n      revert(0x00, returndatasize)\n    tag_274:\n      pop\n      pop\n      pop\n      pop\n      mload(0x40)\n      returndatasize\n      not(0x1f)\n      0x1f\n      dup3\n      add\n      and\n      dup3\n      add\n      dup1\n      0x40\n      mstore\n      pop\n      dup2\n      add\n      swap1\n      tag_275\n      swap2\n      swap1\n      tag_143\n      jump\t// in\n    tag_275:\n        /* \"BlackTsuga.sol\":7498:7502  path */\n      dup2\n        /* \"BlackTsuga.sol\":7503:7504  1 */\n      0x01\n        /* \"BlackTsuga.sol\":7498:7505  path[1] */\n      dup2\n      mload\n      dup2\n      lt\n      tag_276\n      jumpi\n      mstore(0x00, 0x4e487b7100000000000000000000000000000000000000000000000000000000)\n      mstore(0x04, 0x32)\n      revert(0x00, 0x24)\n    tag_276:\n      0x20\n      mul\n      0x20\n      add\n      add\n        /* \"BlackTsuga.sol\":7498:7530  path[1] = uniswapV2Router.WETH() */\n      swap1\n      0xffffffffffffffffffffffffffffffffffffffff\n      and\n      swap1\n      dup2\n      0xffffffffffffffffffffffffffffffffffffffff\n      and\n      dup2\n      mstore\n      pop\n      pop\n        /* \"BlackTsuga.sol\":7541:7599  _approve(address(this), address(uniswapV2Router), tAmount) */\n      tag_277\n        /* \"BlackTsuga.sol\":7558:7562  this */\n      address\n        /* \"BlackTsuga.sol\":7573:7588  uniswapV2Router */\n      0x0c\n      0x00\n      swap1\n      sload\n      swap1\n      0x0100\n      exp\n      swap1\n      div\n      0xffffffffffffffffffffffffffffffffffffffff\n      and\n        /* \"BlackTsuga.sol\":7591:7598  tAmount */\n      dup5\n        /* \"BlackTsuga.sol\":7541:7549  _approve */\n      tag_164\n        /* \"BlackTsuga.sol\":7541:7599  _approve(address(this), address(uniswapV2Router), tAmount) */\n      jump\t// in\n    tag_277:\n        /* \"BlackTsuga.sol\":7614:7629  uniswapV2Router */\n      0x0c\n      0x00\n      swap1\n      sload\n      swap1\n      0x0100\n      exp\n      swap1\n      div\n      0xffffffffffffffffffffffffffffffffffffffff\n      and\n        /* \"BlackTsuga.sol\":7614:7680  uniswapV2Router.swapExactTokensForETHSupportingFeeOnTransferTokens */\n      0xffffffffffffffffffffffffffffffffffffffff\n      and\n      0x791ac947\n        /* \"BlackTsuga.sol\":7694:7701  tAmount */\n      dup4\n        /* \"BlackTsuga.sol\":7715:7716  0 */\n      0x00\n        /* \"BlackTsuga.sol\":7731:7735  path */\n      dup5\n        /* \"BlackTsuga.sol\":7757:7761  this */\n      address\n        /* \"BlackTsuga.sol\":7776:7791  block.timestamp */\n      timestamp\n        /* \"BlackTsuga.sol\":7614:7801  uniswapV2Router.swapExactTokensForETHSupportingFeeOnTransferTokens(... */\n      mload(0x40)\n      dup7\n      0xffffffff\n      and\n      0xe0\n      shl\n      dup2\n      mstore\n      0x04\n      add\n      tag_278\n      swap6\n      swap5\n      swap4\n      swap3\n      swap2\n      swap1\n      tag_279\n      jump\t// in\n    tag_278:\n      0x00\n      mload(0x40)\n      dup1\n      dup4\n      sub\n      dup2\n      0x00\n      dup8\n      dup1\n      extcodesize\n      iszero\n      dup1\n      iszero\n      tag_280\n      jumpi\n      0x00\n      dup1\n      revert\n    tag_280:\n      pop\n      gas\n      call\n      swap3\n      pop\n      pop\n      pop\n      dup1\n      iszero\n      tag_281\n      jumpi\n      pop\n      0x01\n    tag_281:\n        /* \"BlackTsuga.sol\":7610:7812  try uniswapV2Router.swapExactTokensForETHSupportingFeeOnTransferTokens(... */\n      tag_282\n      jumpi\n      jump(tag_285)\n    tag_282:\n    tag_285:\n        /* \"BlackTsuga.sol\":7822:7842  uint256 MarketAmount */\n      0x00\n        /* \"BlackTsuga.sol\":7845:7866  address(this).balance */\n      selfbalance\n        /* \"BlackTsuga.sol\":7822:7866  uint256 MarketAmount = address(this).balance */\n      swap1\n      pop\n        /* \"BlackTsuga.sol\":7895:7896  0 */\n      0x00\n        /* \"BlackTsuga.sol\":7880:7892  MarketAmount */\n      dup2\n        /* \"BlackTsuga.sol\":7880:7896  MarketAmount > 0 */\n      gt\n        /* \"BlackTsuga.sol\":7877:7940  if(MarketAmount > 0)... */\n      iszero\n      tag_286\n      jumpi\n        /* \"BlackTsuga.sol\":7910:7917  _FeeETH */\n      0x03\n      0x01\n      swap1\n      sload\n      swap1\n      0x0100\n      exp\n      swap1\n      div\n      0xffffffffffffffffffffffffffffffffffffffff\n      and\n        /* \"BlackTsuga.sol\":7910:7926  _FeeETH.transfer */\n      0xffffffffffffffffffffffffffffffffffffffff\n      and\n        /* \"BlackTsuga.sol\":7910:7940  _FeeETH.transfer(MarketAmount) */\n      0x08fc\n        /* \"BlackTsuga.sol\":7927:7939  MarketAmount */\n      dup3\n        /* \"BlackTsuga.sol\":7910:7940  _FeeETH.transfer(MarketAmount) */\n      swap1\n      dup2\n      iszero\n      mul\n      swap1\n      mload(0x40)\n      0x00\n      mload(0x40)\n      dup1\n      dup4\n      sub\n      dup2\n      dup6\n      dup9\n      dup9\n      call\n      swap4\n      pop\n      pop\n      pop\n      pop\n      iszero\n      dup1\n      iszero\n      tag_288\n      jumpi\n      returndatasize\n      0x00\n      dup1\n      returndatacopy\n      revert(0x00, returndatasize)\n    tag_288:\n      pop\n        /* \"BlackTsuga.sol\":7877:7940  if(MarketAmount > 0)... */\n    tag_286:\n        /* \"BlackTsuga.sol\":4483:4484  _ */\n      pop\n      pop\n        /* \"BlackTsuga.sol\":4513:4518  false */\n      0x00\n        /* \"BlackTsuga.sol\":4494:4510  inSwapAndLiquify */\n      0x0d\n      0x14\n        /* \"BlackTsuga.sol\":4494:4518  inSwapAndLiquify = false */\n      0x0100\n      exp\n      dup2\n      sload\n      dup2\n      0xff\n      mul\n      not\n      and\n      swap1\n      dup4\n      iszero\n      iszero\n      mul\n      or\n      swap1\n      sstore\n      pop\n        /* \"BlackTsuga.sol\":7335:7947  function swapAndLiquify(uint256 tAmount) private lockTheSwap {... */\n      pop\n      jump\t// out\n        /* \"BlackTsuga.sol\":1966:2100  function sub(uint256 a, uint256 b) internal pure returns (uint256) {... */\n    tag_235:\n        /* \"BlackTsuga.sol\":2024:2031  uint256 */\n      0x00\n        /* \"BlackTsuga.sol\":2050:2093  sub(a, b, \"SafeMath: subtraction overflow\") */\n      tag_290\n        /* \"BlackTsuga.sol\":2054:2055  a */\n      dup4\n        /* \"BlackTsuga.sol\":2057:2058  b */\n      dup4\n        /* \"BlackTsuga.sol\":2050:2093  sub(a, b, \"SafeMath: subtraction overflow\") */\n      mload(0x40)\n      dup1\n      0x40\n      add\n      0x40\n      mstore\n      dup1\n      0x1e\n      dup2\n      mstore\n      0x20\n      add\n      0x536166654d6174683a207375627472616374696f6e206f766572666c6f770000\n      dup2\n      mstore\n      pop\n        /* \"BlackTsuga.sol\":2050:2053  sub */\n      tag_173\n        /* \"BlackTsuga.sol\":2050:2093  sub(a, b, \"SafeMath: subtraction overflow\") */\n      jump\t// in\n    tag_290:\n        /* \"BlackTsuga.sol\":2043:2093  return sub(a, b, \"SafeMath: subtraction overflow\") */\n      swap1\n      pop\n        /* \"BlackTsuga.sol\":1966:2100  function sub(uint256 a, uint256 b) internal pure returns (uint256) {... */\n      swap3\n      swap2\n      pop\n      pop\n      jump\t// out\n        /* \"BlackTsuga.sol\":2299:2539  function mul(uint256 a, uint256 b) internal pure returns (uint256) {... */\n    tag_245:\n        /* \"BlackTsuga.sol\":2357:2364  uint256 */\n      0x00\n        /* \"BlackTsuga.sol\":2385:2386  0 */\n      dup1\n        /* \"BlackTsuga.sol\":2380:2381  a */\n      dup4\n        /* \"BlackTsuga.sol\":2380:2386  a == 0 */\n      eq\n        /* \"BlackTsuga.sol\":2376:2421  if (a == 0) {... */\n      iszero\n      tag_292\n      jumpi\n        /* \"BlackTsuga.sol\":2409:2410  0 */\n      0x00\n        /* \"BlackTsuga.sol\":2402:2410  return 0 */\n      swap1\n      pop\n      jump(tag_291)\n        /* \"BlackTsuga.sol\":2376:2421  if (a == 0) {... */\n    tag_292:\n        /* \"BlackTsuga.sol\":2430:2439  uint256 c */\n      0x00\n        /* \"BlackTsuga.sol\":2446:2447  b */\n      dup3\n        /* \"BlackTsuga.sol\":2442:2443  a */\n      dup5\n        /* \"BlackTsuga.sol\":2442:2447  a * b */\n      tag_293\n      swap2\n      swap1\n      tag_196\n      jump\t// in\n    tag_293:\n        /* \"BlackTsuga.sol\":2430:2447  uint256 c = a * b */\n      swap1\n      pop\n        /* \"BlackTsuga.sol\":2474:2475  b */\n      dup3\n        /* \"BlackTsuga.sol\":2469:2470  a */\n      dup5\n        /* \"BlackTsuga.sol\":2465:2466  c */\n      dup3\n        /* \"BlackTsuga.sol\":2465:2470  c / a */\n      tag_294\n      swap2\n      swap1\n      tag_295\n      jump\t// in\n    tag_294:\n        /* \"BlackTsuga.sol\":2465:2475  c / a == b */\n      eq\n        /* \"BlackTsuga.sol\":2457:2513  require(c / a == b, \"SafeMath: multiplication overflow\") */\n      tag_296\n      jumpi\n      mload(0x40)\n      0x08c379a000000000000000000000000000000000000000000000000000000000\n      dup2\n      mstore\n      0x04\n      add\n      tag_297\n      swap1\n      tag_298\n      jump\t// in\n    tag_297:\n      mload(0x40)\n      dup1\n      swap2\n      sub\n      swap1\n      revert\n    tag_296:\n        /* \"BlackTsuga.sol\":2531:2532  c */\n      dup1\n        /* \"BlackTsuga.sol\":2524:2532  return c */\n      swap2\n      pop\n      pop\n        /* \"BlackTsuga.sol\":2299:2539  function mul(uint256 a, uint256 b) internal pure returns (uint256) {... */\n    tag_291:\n      swap3\n      swap2\n      pop\n      pop\n      jump\t// out\n        /* \"BlackTsuga.sol\":2545:2675  function div(uint256 a, uint256 b) internal pure returns (uint256) {... */\n    tag_246:\n        /* \"BlackTsuga.sol\":2603:2610  uint256 */\n      0x00\n        /* \"BlackTsuga.sol\":2629:2668  div(a, b, \"SafeMath: division by zero\") */\n      tag_300\n        /* \"BlackTsuga.sol\":2633:2634  a */\n      dup4\n        /* \"BlackTsuga.sol\":2636:2637  b */\n      dup4\n        /* \"BlackTsuga.sol\":2629:2668  div(a, b, \"SafeMath: division by zero\") */\n      mload(0x40)\n      dup1\n      0x40\n      add\n      0x40\n      mstore\n      dup1\n      0x1a\n      dup2\n      mstore\n      0x20\n      add\n      0x536166654d6174683a206469766973696f6e206279207a65726f000000000000\n      dup2\n      mstore\n      pop\n        /* \"BlackTsuga.sol\":2629:2632  div */\n      tag_301\n        /* \"BlackTsuga.sol\":2629:2668  div(a, b, \"SafeMath: division by zero\") */\n      jump\t// in\n    tag_300:\n        /* \"BlackTsuga.sol\":2622:2668  return div(a, b, \"SafeMath: division by zero\") */\n      swap1\n      pop\n        /* \"BlackTsuga.sol\":2545:2675  function div(uint256 a, uint256 b) internal pure returns (uint256) {... */\n      swap3\n      swap2\n      pop\n      pop\n      jump\t// out\n        /* \"BlackTsuga.sol\":1784:1960  function add(uint256 a, uint256 b) internal pure returns (uint256) {... */\n    tag_253:\n        /* \"BlackTsuga.sol\":1842:1849  uint256 */\n      0x00\n        /* \"BlackTsuga.sol\":1861:1870  uint256 c */\n      dup1\n        /* \"BlackTsuga.sol\":1877:1878  b */\n      dup3\n        /* \"BlackTsuga.sol\":1873:1874  a */\n      dup5\n        /* \"BlackTsuga.sol\":1873:1878  a + b */\n      tag_303\n      swap2\n      swap1\n      tag_198\n      jump\t// in\n    tag_303:\n        /* \"BlackTsuga.sol\":1861:1878  uint256 c = a + b */\n      swap1\n      pop\n        /* \"BlackTsuga.sol\":1901:1902  a */\n      dup4\n        /* \"BlackTsuga.sol\":1896:1897  c */\n      dup2\n        /* \"BlackTsuga.sol\":1896:1902  c >= a */\n      lt\n      iszero\n        /* \"BlackTsuga.sol\":1888:1934  require(c >= a, \"SafeMath: addition overflow\") */\n      tag_304\n      jumpi\n      mload(0x40)\n      0x08c379a000000000000000000000000000000000000000000000000000000000\n      dup2\n      mstore\n      0x04\n      add\n      tag_305\n      swap1\n      tag_306\n      jump\t// in\n    tag_305:\n      mload(0x40)\n      dup1\n      swap2\n      sub\n      swap1\n      revert\n    tag_304:\n        /* \"BlackTsuga.sol\":1952:1953  c */\n      dup1\n        /* \"BlackTsuga.sol\":1945:1953  return c */\n      swap2\n      pop\n      pop\n        /* \"BlackTsuga.sol\":1784:1960  function add(uint256 a, uint256 b) internal pure returns (uint256) {... */\n      swap3\n      swap2\n      pop\n      pop\n      jump\t// out\n        /* \"BlackTsuga.sol\":2681:2866  function div(uint256 a, uint256 b, string memory errorMessage) internal pure returns (uint256) {... */\n    tag_301:\n        /* \"BlackTsuga.sol\":2767:2774  uint256 */\n      0x00\n        /* \"BlackTsuga.sol\":2798:2799  0 */\n      dup1\n        /* \"BlackTsuga.sol\":2794:2795  b */\n      dup4\n        /* \"BlackTsuga.sol\":2794:2799  b > 0 */\n      gt\n        /* \"BlackTsuga.sol\":2801:2813  errorMessage */\n      dup3\n        /* \"BlackTsuga.sol\":2786:2814  require(b > 0, errorMessage) */\n      swap1\n      tag_308\n      jumpi\n      mload(0x40)\n      0x08c379a000000000000000000000000000000000000000000000000000000000\n      dup2\n      mstore\n      0x04\n      add\n      tag_309\n      swap2\n      swap1\n      tag_36\n      jump\t// in\n    tag_309:\n      mload(0x40)\n      dup1\n      swap2\n      sub\n      swap1\n      revert\n    tag_308:\n      pop\n        /* \"BlackTsuga.sol\":2824:2833  uint256 c */\n      0x00\n        /* \"BlackTsuga.sol\":2840:2841  b */\n      dup4\n        /* \"BlackTsuga.sol\":2836:2837  a */\n      dup6\n        /* \"BlackTsuga.sol\":2836:2841  a / b */\n      tag_310\n      swap2\n      swap1\n      tag_295\n      jump\t// in\n    tag_310:\n        /* \"BlackTsuga.sol\":2824:2841  uint256 c = a / b */\n      swap1\n      pop\n        /* \"BlackTsuga.sol\":2858:2859  c */\n      dup1\n        /* \"BlackTsuga.sol\":2851:2859  return c */\n      swap2\n      pop\n      pop\n        /* \"BlackTsuga.sol\":2681:2866  function div(uint256 a, uint256 b, string memory errorMessage) internal pure returns (uint256) {... */\n      swap4\n      swap3\n      pop\n      pop\n      pop\n      jump\t// out\n        /* \"#utility.yul\":7:146   */\n    tag_312:\n      0x00\n        /* \"#utility.yul\":91:97   */\n      dup2\n        /* \"#utility.yul\":78:98   */\n      calldataload\n        /* \"#utility.yul\":69:98   */\n      swap1\n      pop\n        /* \"#utility.yul\":107:140   */\n      tag_314\n        /* \"#utility.yul\":134:139   */\n      dup2\n        /* \"#utility.yul\":107:140   */\n      tag_315\n      jump\t// in\n    tag_314:\n        /* \"#utility.yul\":59:146   */\n      swap3\n      swap2\n      pop\n      pop\n      jump\t// out\n        /* \"#utility.yul\":152:295   */\n    tag_316:\n      0x00\n        /* \"#utility.yul\":240:246   */\n      dup2\n        /* \"#utility.yul\":234:247   */\n      mload\n        /* \"#utility.yul\":225:247   */\n      swap1\n      pop\n        /* \"#utility.yul\":256:289   */\n      tag_318\n        /* \"#utility.yul\":283:288   */\n      dup2\n        /* \"#utility.yul\":256:289   */\n      tag_315\n      jump\t// in\n    tag_318:\n        /* \"#utility.yul\":215:295   */\n      swap3\n      swap2\n      pop\n      pop\n      jump\t// out\n        /* \"#utility.yul\":318:685   */\n    tag_319:\n      0x00\n      dup1\n        /* \"#utility.yul\":451:454   */\n      dup4\n        /* \"#utility.yul\":444:448   */\n      0x1f\n        /* \"#utility.yul\":436:442   */\n      dup5\n        /* \"#utility.yul\":432:449   */\n      add\n        /* \"#utility.yul\":428:455   */\n      slt\n        /* \"#utility.yul\":418:420   */\n      tag_321\n      jumpi\n        /* \"#utility.yul\":469:470   */\n      0x00\n        /* \"#utility.yul\":466:467   */\n      dup1\n        /* \"#utility.yul\":459:471   */\n      revert\n        /* \"#utility.yul\":418:420   */\n    tag_321:\n        /* \"#utility.yul\":505:511   */\n      dup3\n        /* \"#utility.yul\":492:512   */\n      calldataload\n        /* \"#utility.yul\":482:512   */\n      swap1\n      pop\n        /* \"#utility.yul\":535:553   */\n      0xffffffffffffffff\n        /* \"#utility.yul\":527:533   */\n      dup2\n        /* \"#utility.yul\":524:554   */\n      gt\n        /* \"#utility.yul\":521:523   */\n      iszero\n      tag_322\n      jumpi\n        /* \"#utility.yul\":567:568   */\n      0x00\n        /* \"#utility.yul\":564:565   */\n      dup1\n        /* \"#utility.yul\":557:569   */\n      revert\n        /* \"#utility.yul\":521:523   */\n    tag_322:\n        /* \"#utility.yul\":604:608   */\n      0x20\n        /* \"#utility.yul\":596:602   */\n      dup4\n        /* \"#utility.yul\":592:609   */\n      add\n        /* \"#utility.yul\":580:609   */\n      swap2\n      pop\n        /* \"#utility.yul\":658:661   */\n      dup4\n        /* \"#utility.yul\":650:654   */\n      0x20\n        /* \"#utility.yul\":642:648   */\n      dup3\n        /* \"#utility.yul\":638:655   */\n      mul\n        /* \"#utility.yul\":628:636   */\n      dup4\n        /* \"#utility.yul\":624:656   */\n      add\n        /* \"#utility.yul\":621:662   */\n      gt\n        /* \"#utility.yul\":618:620   */\n      iszero\n      tag_323\n      jumpi\n        /* \"#utility.yul\":675:676   */\n      0x00\n        /* \"#utility.yul\":672:673   */\n      dup1\n        /* \"#utility.yul\":665:677   */\n      revert\n        /* \"#utility.yul\":618:620   */\n    tag_323:\n        /* \"#utility.yul\":408:685   */\n      swap3\n      pop\n      swap3\n      swap1\n      pop\n      jump\t// out\n        /* \"#utility.yul\":691:824   */\n    tag_324:\n      0x00\n        /* \"#utility.yul\":772:778   */\n      dup2\n        /* \"#utility.yul\":759:779   */\n      calldataload\n        /* \"#utility.yul\":750:779   */\n      swap1\n      pop\n        /* \"#utility.yul\":788:818   */\n      tag_326\n        /* \"#utility.yul\":812:817   */\n      dup2\n        /* \"#utility.yul\":788:818   */\n      tag_327\n      jump\t// in\n    tag_326:\n        /* \"#utility.yul\":740:824   */\n      swap3\n      swap2\n      pop\n      pop\n      jump\t// out\n        /* \"#utility.yul\":830:969   */\n    tag_328:\n      0x00\n        /* \"#utility.yul\":914:920   */\n      dup2\n        /* \"#utility.yul\":901:921   */\n      calldataload\n        /* \"#utility.yul\":892:921   */\n      swap1\n      pop\n        /* \"#utility.yul\":930:963   */\n      tag_330\n        /* \"#utility.yul\":957:962   */\n      dup2\n        /* \"#utility.yul\":930:963   */\n      tag_331\n      jump\t// in\n    tag_330:\n        /* \"#utility.yul\":882:969   */\n      swap3\n      swap2\n      pop\n      pop\n      jump\t// out\n        /* \"#utility.yul\":975:1237   */\n    tag_73:\n      0x00\n        /* \"#utility.yul\":1083:1085   */\n      0x20\n        /* \"#utility.yul\":1071:1080   */\n      dup3\n        /* \"#utility.yul\":1062:1069   */\n      dup5\n        /* \"#utility.yul\":1058:1081   */\n      sub\n        /* \"#utility.yul\":1054:1086   */\n      slt\n        /* \"#utility.yul\":1051:1053   */\n      iszero\n      tag_333\n      jumpi\n        /* \"#utility.yul\":1099:1100   */\n      0x00\n        /* \"#utility.yul\":1096:1097   */\n      dup1\n        /* \"#utility.yul\":1089:1101   */\n      revert\n        /* \"#utility.yul\":1051:1053   */\n    tag_333:\n        /* \"#utility.yul\":1142:1143   */\n      0x00\n        /* \"#utility.yul\":1167:1220   */\n      tag_334\n        /* \"#utility.yul\":1212:1219   */\n      dup5\n        /* \"#utility.yul\":1203:1209   */\n      dup3\n        /* \"#utility.yul\":1192:1201   */\n      dup6\n        /* \"#utility.yul\":1188:1210   */\n      add\n        /* \"#utility.yul\":1167:1220   */\n      tag_312\n      jump\t// in\n    tag_334:\n        /* \"#utility.yul\":1157:1220   */\n      swap2\n      pop\n        /* \"#utility.yul\":1113:1230   */\n      pop\n        /* \"#utility.yul\":1041:1237   */\n      swap3\n      swap2\n      pop\n      pop\n      jump\t// out\n        /* \"#utility.yul\":1243:1527   */\n    tag_143:\n      0x00\n        /* \"#utility.yul\":1362:1364   */\n      0x20\n        /* \"#utility.yul\":1350:1359   */\n      dup3\n        /* \"#utility.yul\":1341:1348   */\n      dup5\n        /* \"#utility.yul\":1337:1360   */\n      sub\n        /* \"#utility.yul\":1333:1365   */\n      slt\n        /* \"#utility.yul\":1330:1332   */\n      iszero\n      tag_336\n      jumpi\n        /* \"#utility.yul\":1378:1379   */\n      0x00\n        /* \"#utility.yul\":1375:1376   */\n      dup1\n        /* \"#utility.yul\":1368:1380   */\n      revert\n        /* \"#utility.yul\":1330:1332   */\n    tag_336:\n        /* \"#utility.yul\":1421:1422   */\n      0x00\n        /* \"#utility.yul\":1446:1510   */\n      tag_337\n        /* \"#utility.yul\":1502:1509   */\n      dup5\n        /* \"#utility.yul\":1493:1499   */\n      dup3\n        /* \"#utility.yul\":1482:1491   */\n      dup6\n        /* \"#utility.yul\":1478:1500   */\n      add\n        /* \"#utility.yul\":1446:1510   */\n      tag_316\n      jump\t// in\n    tag_337:\n        /* \"#utility.yul\":1436:1510   */\n      swap2\n      pop\n        /* \"#utility.yul\":1392:1520   */\n      pop\n        /* \"#utility.yul\":1320:1527   */\n      swap3\n      swap2\n      pop\n      pop\n      jump\t// out\n        /* \"#utility.yul\":1533:1940   */\n    tag_125:\n      0x00\n      dup1\n        /* \"#utility.yul\":1658:1660   */\n      0x40\n        /* \"#utility.yul\":1646:1655   */\n      dup4\n        /* \"#utility.yul\":1637:1644   */\n      dup6\n        /* \"#utility.yul\":1633:1656   */\n      sub\n        /* \"#utility.yul\":1629:1661   */\n      slt\n        /* \"#utility.yul\":1626:1628   */\n      iszero\n      tag_339\n      jumpi\n        /* \"#utility.yul\":1674:1675   */\n      0x00\n        /* \"#utility.yul\":1671:1672   */\n      dup1\n        /* \"#utility.yul\":1664:1676   */\n      revert\n        /* \"#utility.yul\":1626:1628   */\n    tag_339:\n        /* \"#utility.yul\":1717:1718   */\n      0x00\n        /* \"#utility.yul\":1742:1795   */\n      tag_340\n        /* \"#utility.yul\":1787:1794   */\n      dup6\n        /* \"#utility.yul\":1778:1784   */\n      dup3\n        /* \"#utility.yul\":1767:1776   */\n      dup7\n        /* \"#utility.yul\":1763:1785   */\n      add\n        /* \"#utility.yul\":1742:1795   */\n      tag_312\n      jump\t// in\n    tag_340:\n        /* \"#utility.yul\":1732:1795   */\n      swap3\n      pop\n        /* \"#utility.yul\":1688:1805   */\n      pop\n        /* \"#utility.yul\":1844:1846   */\n      0x20\n        /* \"#utility.yul\":1870:1923   */\n      tag_341\n        /* \"#utility.yul\":1915:1922   */\n      dup6\n        /* \"#utility.yul\":1906:1912   */\n      dup3\n        /* \"#utility.yul\":1895:1904   */\n      dup7\n        /* \"#utility.yul\":1891:1913   */\n      add\n        /* \"#utility.yul\":1870:1923   */\n      tag_312\n      jump\t// in\n    tag_341:\n        /* \"#utility.yul\":1860:1923   */\n      swap2\n      pop\n        /* \"#utility.yul\":1815:1933   */\n      pop\n        /* \"#utility.yul\":1616:1940   */\n      swap3\n      pop\n      swap3\n      swap1\n      pop\n      jump\t// out\n        /* \"#utility.yul\":1946:2498   */\n    tag_62:\n      0x00\n      dup1\n      0x00\n        /* \"#utility.yul\":2088:2090   */\n      0x60\n        /* \"#utility.yul\":2076:2085   */\n      dup5\n        /* \"#utility.yul\":2067:2074   */\n      dup7\n        /* \"#utility.yul\":2063:2086   */\n      sub\n        /* \"#utility.yul\":2059:2091   */\n      slt\n        /* \"#utility.yul\":2056:2058   */\n      iszero\n      tag_343\n      jumpi\n        /* \"#utility.yul\":2104:2105   */\n      0x00\n        /* \"#utility.yul\":2101:2102   */\n      dup1\n        /* \"#utility.yul\":2094:2106   */\n      revert\n        /* \"#utility.yul\":2056:2058   */\n    tag_343:\n        /* \"#utility.yul\":2147:2148   */\n      0x00\n        /* \"#utility.yul\":2172:2225   */\n      tag_344\n        /* \"#utility.yul\":2217:2224   */\n      dup7\n        /* \"#utility.yul\":2208:2214   */\n      dup3\n        /* \"#utility.yul\":2197:2206   */\n      dup8\n        /* \"#utility.yul\":2193:2215   */\n      add\n        /* \"#utility.yul\":2172:2225   */\n      tag_312\n      jump\t// in\n    tag_344:\n        /* \"#utility.yul\":2162:2225   */\n      swap4\n      pop\n        /* \"#utility.yul\":2118:2235   */\n      pop\n        /* \"#utility.yul\":2274:2276   */\n      0x20\n        /* \"#utility.yul\":2300:2353   */\n      tag_345\n        /* \"#utility.yul\":2345:2352   */\n      dup7\n        /* \"#utility.yul\":2336:2342   */\n      dup3\n        /* \"#utility.yul\":2325:2334   */\n      dup8\n        /* \"#utility.yul\":2321:2343   */\n      add\n        /* \"#utility.yul\":2300:2353   */\n      tag_312\n      jump\t// in\n    tag_345:\n        /* \"#utility.yul\":2290:2353   */\n      swap3\n      pop\n        /* \"#utility.yul\":2245:2363   */\n      pop\n        /* \"#utility.yul\":2402:2404   */\n      0x40\n        /* \"#utility.yul\":2428:2481   */\n      tag_346\n        /* \"#utility.yul\":2473:2480   */\n      dup7\n        /* \"#utility.yul\":2464:2470   */\n      dup3\n        /* \"#utility.yul\":2453:2462   */\n      dup8\n        /* \"#utility.yul\":2449:2471   */\n      add\n        /* \"#utility.yul\":2428:2481   */\n      tag_328\n      jump\t// in\n    tag_346:\n        /* \"#utility.yul\":2418:2481   */\n      swap2\n      pop\n        /* \"#utility.yul\":2373:2491   */\n      pop\n        /* \"#utility.yul\":2046:2498   */\n      swap3\n      pop\n      swap3\n      pop\n      swap3\n      jump\t// out\n        /* \"#utility.yul\":2504:2911   */\n    tag_40:\n      0x00\n      dup1\n        /* \"#utility.yul\":2629:2631   */\n      0x40\n        /* \"#utility.yul\":2617:2626   */\n      dup4\n        /* \"#utility.yul\":2608:2615   */\n      dup6\n        /* \"#utility.yul\":2604:2627   */\n      sub\n        /* \"#utility.yul\":2600:2632   */\n      slt\n        /* \"#utility.yul\":2597:2599   */\n      iszero\n      tag_348\n      jumpi\n        /* \"#utility.yul\":2645:2646   */\n      0x00\n        /* \"#utility.yul\":2642:2643   */\n      dup1\n        /* \"#utility.yul\":2635:2647   */\n      revert\n        /* \"#utility.yul\":2597:2599   */\n    tag_348:\n        /* \"#utility.yul\":2688:2689   */\n      0x00\n        /* \"#utility.yul\":2713:2766   */\n      tag_349\n        /* \"#utility.yul\":2758:2765   */\n      dup6\n        /* \"#utility.yul\":2749:2755   */\n      dup3\n        /* \"#utility.yul\":2738:2747   */\n      dup7\n        /* \"#utility.yul\":2734:2756   */\n      add\n        /* \"#utility.yul\":2713:2766   */\n      tag_312\n      jump\t// in\n    tag_349:\n        /* \"#utility.yul\":2703:2766   */\n      swap3\n      pop\n        /* \"#utility.yul\":2659:2776   */\n      pop\n        /* \"#utility.yul\":2815:2817   */\n      0x20\n        /* \"#utility.yul\":2841:2894   */\n      tag_350\n        /* \"#utility.yul\":2886:2893   */\n      dup6\n        /* \"#utility.yul\":2877:2883   */\n      dup3\n        /* \"#utility.yul\":2866:2875   */\n      dup7\n        /* \"#utility.yul\":2862:2884   */\n      add\n        /* \"#utility.yul\":2841:2894   */\n      tag_328\n      jump\t// in\n    tag_350:\n        /* \"#utility.yul\":2831:2894   */\n      swap2\n      pop\n        /* \"#utility.yul\":2786:2904   */\n      pop\n        /* \"#utility.yul\":2587:2911   */\n      swap3\n      pop\n      swap3\n      swap1\n      pop\n      jump\t// out\n        /* \"#utility.yul\":2917:3481   */\n    tag_103:\n      0x00\n      dup1\n      0x00\n        /* \"#utility.yul\":3074:3076   */\n      0x40\n        /* \"#utility.yul\":3062:3071   */\n      dup5\n        /* \"#utility.yul\":3053:3060   */\n      dup7\n        /* \"#utility.yul\":3049:3072   */\n      sub\n        /* \"#utility.yul\":3045:3077   */\n      slt\n        /* \"#utility.yul\":3042:3044   */\n      iszero\n      tag_352\n      jumpi\n        /* \"#utility.yul\":3090:3091   */\n      0x00\n        /* \"#utility.yul\":3087:3088   */\n      dup1\n        /* \"#utility.yul\":3080:3092   */\n      revert\n        /* \"#utility.yul\":3042:3044   */\n    tag_352:\n        /* \"#utility.yul\":3161:3162   */\n      0x00\n        /* \"#utility.yul\":3150:3159   */\n      dup5\n        /* \"#utility.yul\":3146:3163   */\n      add\n        /* \"#utility.yul\":3133:3164   */\n      calldataload\n        /* \"#utility.yul\":3191:3209   */\n      0xffffffffffffffff\n        /* \"#utility.yul\":3183:3189   */\n      dup2\n        /* \"#utility.yul\":3180:3210   */\n      gt\n        /* \"#utility.yul\":3177:3179   */\n      iszero\n      tag_353\n      jumpi\n        /* \"#utility.yul\":3223:3224   */\n      0x00\n        /* \"#utility.yul\":3220:3221   */\n      dup1\n        /* \"#utility.yul\":3213:3225   */\n      revert\n        /* \"#utility.yul\":3177:3179   */\n    tag_353:\n        /* \"#utility.yul\":3259:3339   */\n      tag_354\n        /* \"#utility.yul\":3331:3338   */\n      dup7\n        /* \"#utility.yul\":3322:3328   */\n      dup3\n        /* \"#utility.yul\":3311:3320   */\n      dup8\n        /* \"#utility.yul\":3307:3329   */\n      add\n        /* \"#utility.yul\":3259:3339   */\n      tag_319\n      jump\t// in\n    tag_354:\n        /* \"#utility.yul\":3241:3339   */\n      swap4\n      pop\n      swap4\n      pop\n        /* \"#utility.yul\":3104:3349   */\n      pop\n        /* \"#utility.yul\":3388:3390   */\n      0x20\n        /* \"#utility.yul\":3414:3464   */\n      tag_355\n        /* \"#utility.yul\":3456:3463   */\n      dup7\n        /* \"#utility.yul\":3447:3453   */\n      dup3\n        /* \"#utility.yul\":3436:3445   */\n      dup8\n        /* \"#utility.yul\":3432:3454   */\n      add\n        /* \"#utility.yul\":3414:3464   */\n      tag_324\n      jump\t// in\n    tag_355:\n        /* \"#utility.yul\":3404:3464   */\n      swap2\n      pop\n        /* \"#utility.yul\":3359:3474   */\n      pop\n        /* \"#utility.yul\":3032:3481   */\n      swap3\n      pop\n      swap3\n      pop\n      swap3\n      jump\t// out\n        /* \"#utility.yul\":3487:3666   */\n    tag_356:\n      0x00\n        /* \"#utility.yul\":3577:3623   */\n      tag_358\n        /* \"#utility.yul\":3619:3622   */\n      dup4\n        /* \"#utility.yul\":3611:3617   */\n      dup4\n        /* \"#utility.yul\":3577:3623   */\n      tag_359\n      jump\t// in\n    tag_358:\n        /* \"#utility.yul\":3655:3659   */\n      0x20\n        /* \"#utility.yul\":3650:3653   */\n      dup4\n        /* \"#utility.yul\":3646:3660   */\n      add\n        /* \"#utility.yul\":3632:3660   */\n      swap1\n      pop\n        /* \"#utility.yul\":3567:3666   */\n      swap3\n      swap2\n      pop\n      pop\n      jump\t// out\n        /* \"#utility.yul\":3672:3814   */\n    tag_360:\n        /* \"#utility.yul\":3775:3807   */\n      tag_362\n        /* \"#utility.yul\":3801:3806   */\n      dup2\n        /* \"#utility.yul\":3775:3807   */\n      tag_363\n      jump\t// in\n    tag_362:\n        /* \"#utility.yul\":3770:3773   */\n      dup3\n        /* \"#utility.yul\":3763:3808   */\n      mstore\n        /* \"#utility.yul\":3753:3814   */\n      pop\n      pop\n      jump\t// out\n        /* \"#utility.yul\":3820:3928   */\n    tag_359:\n        /* \"#utility.yul\":3897:3921   */\n      tag_365\n        /* \"#utility.yul\":3915:3920   */\n      dup2\n        /* \"#utility.yul\":3897:3921   */\n      tag_366\n      jump\t// in\n    tag_365:\n        /* \"#utility.yul\":3892:3895   */\n      dup3\n        /* \"#utility.yul\":3885:3922   */\n      mstore\n        /* \"#utility.yul\":3875:3928   */\n      pop\n      pop\n      jump\t// out\n        /* \"#utility.yul\":3934:4052   */\n    tag_367:\n        /* \"#utility.yul\":4021:4045   */\n      tag_369\n        /* \"#utility.yul\":4039:4044   */\n      dup2\n        /* \"#utility.yul\":4021:4045   */\n      tag_366\n      jump\t// in\n    tag_369:\n        /* \"#utility.yul\":4016:4019   */\n      dup3\n        /* \"#utility.yul\":4009:4046   */\n      mstore\n        /* \"#utility.yul\":3999:4052   */\n      pop\n      pop\n      jump\t// out\n        /* \"#utility.yul\":4088:4820   */\n    tag_370:\n      0x00\n        /* \"#utility.yul\":4236:4290   */\n      tag_372\n        /* \"#utility.yul\":4284:4289   */\n      dup3\n        /* \"#utility.yul\":4236:4290   */\n      tag_373\n      jump\t// in\n    tag_372:\n        /* \"#utility.yul\":4306:4392   */\n      tag_374\n        /* \"#utility.yul\":4385:4391   */\n      dup2\n        /* \"#utility.yul\":4380:4383   */\n      dup6\n        /* \"#utility.yul\":4306:4392   */\n      tag_375\n      jump\t// in\n    tag_374:\n        /* \"#utility.yul\":4299:4392   */\n      swap4\n      pop\n        /* \"#utility.yul\":4416:4472   */\n      tag_376\n        /* \"#utility.yul\":4466:4471   */\n      dup4\n        /* \"#utility.yul\":4416:4472   */\n      tag_377\n      jump\t// in\n    tag_376:\n        /* \"#utility.yul\":4495:4502   */\n      dup1\n        /* \"#utility.yul\":4526:4527   */\n      0x00\n        /* \"#utility.yul\":4511:4795   */\n    tag_378:\n        /* \"#utility.yul\":4536:4542   */\n      dup4\n        /* \"#utility.yul\":4533:4534   */\n      dup2\n        /* \"#utility.yul\":4530:4543   */\n      lt\n        /* \"#utility.yul\":4511:4795   */\n      iszero\n      tag_380\n      jumpi\n        /* \"#utility.yul\":4612:4618   */\n      dup2\n        /* \"#utility.yul\":4606:4619   */\n      mload\n        /* \"#utility.yul\":4639:4702   */\n      tag_381\n        /* \"#utility.yul\":4698:4701   */\n      dup9\n        /* \"#utility.yul\":4683:4696   */\n      dup3\n        /* \"#utility.yul\":4639:4702   */\n      tag_356\n      jump\t// in\n    tag_381:\n        /* \"#utility.yul\":4632:4702   */\n      swap8\n      pop\n        /* \"#utility.yul\":4725:4785   */\n      tag_382\n        /* \"#utility.yul\":4778:4784   */\n      dup4\n        /* \"#utility.yul\":4725:4785   */\n      tag_383\n      jump\t// in\n    tag_382:\n        /* \"#utility.yul\":4715:4785   */\n      swap3\n      pop\n        /* \"#utility.yul\":4571:4795   */\n      pop\n        /* \"#utility.yul\":4558:4559   */\n      0x01\n        /* \"#utility.yul\":4555:4556   */\n      dup2\n        /* \"#utility.yul\":4551:4560   */\n      add\n        /* \"#utility.yul\":4546:4560   */\n      swap1\n      pop\n        /* \"#utility.yul\":4511:4795   */\n      jump(tag_378)\n    tag_380:\n        /* \"#utility.yul\":4515:4529   */\n      pop\n        /* \"#utility.yul\":4811:4814   */\n      dup6\n        /* \"#utility.yul\":4804:4814   */\n      swap4\n      pop\n        /* \"#utility.yul\":4212:4820   */\n      pop\n      pop\n      pop\n      swap3\n      swap2\n      pop\n      pop\n      jump\t// out\n        /* \"#utility.yul\":4826:4935   */\n    tag_384:\n        /* \"#utility.yul\":4907:4928   */\n      tag_386\n        /* \"#utility.yul\":4922:4927   */\n      dup2\n        /* \"#utility.yul\":4907:4928   */\n      tag_387\n      jump\t// in\n    tag_386:\n        /* \"#utility.yul\":4902:4905   */\n      dup3\n        /* \"#utility.yul\":4895:4929   */\n      mstore\n        /* \"#utility.yul\":4885:4935   */\n      pop\n      pop\n      jump\t// out\n        /* \"#utility.yul\":4941:5124   */\n    tag_388:\n        /* \"#utility.yul\":5054:5117   */\n      tag_390\n        /* \"#utility.yul\":5111:5116   */\n      dup2\n        /* \"#utility.yul\":5054:5117   */\n      tag_391\n      jump\t// in\n    tag_390:\n        /* \"#utility.yul\":5049:5052   */\n      dup3\n        /* \"#utility.yul\":5042:5118   */\n      mstore\n        /* \"#utility.yul\":5032:5124   */\n      pop\n      pop\n      jump\t// out\n        /* \"#utility.yul\":5130:5277   */\n    tag_392:\n        /* \"#utility.yul\":5225:5270   */\n      tag_394\n        /* \"#utility.yul\":5264:5269   */\n      dup2\n        /* \"#utility.yul\":5225:5270   */\n      tag_395\n      jump\t// in\n    tag_394:\n        /* \"#utility.yul\":5220:5223   */\n      dup3\n        /* \"#utility.yul\":5213:5271   */\n      mstore\n        /* \"#utility.yul\":5203:5277   */\n      pop\n      pop\n      jump\t// out\n        /* \"#utility.yul\":5283:5647   */\n    tag_396:\n      0x00\n        /* \"#utility.yul\":5399:5438   */\n      tag_398\n        /* \"#utility.yul\":5432:5437   */\n      dup3\n        /* \"#utility.yul\":5399:5438   */\n      tag_399\n      jump\t// in\n    tag_398:\n        /* \"#utility.yul\":5454:5525   */\n      tag_400\n        /* \"#utility.yul\":5518:5524   */\n      dup2\n        /* \"#utility.yul\":5513:5516   */\n      dup6\n        /* \"#utility.yul\":5454:5525   */\n      tag_401\n      jump\t// in\n    tag_400:\n        /* \"#utility.yul\":5447:5525   */\n      swap4\n      pop\n        /* \"#utility.yul\":5534:5586   */\n      tag_402\n        /* \"#utility.yul\":5579:5585   */\n      dup2\n        /* \"#utility.yul\":5574:5577   */\n      dup6\n        /* \"#utility.yul\":5567:5571   */\n      0x20\n        /* \"#utility.yul\":5560:5565   */\n      dup7\n        /* \"#utility.yul\":5556:5572   */\n      add\n        /* \"#utility.yul\":5534:5586   */\n      tag_403\n      jump\t// in\n    tag_402:\n        /* \"#utility.yul\":5611:5640   */\n      tag_404\n        /* \"#utility.yul\":5633:5639   */\n      dup2\n        /* \"#utility.yul\":5611:5640   */\n      tag_405\n      jump\t// in\n    tag_404:\n        /* \"#utility.yul\":5606:5609   */\n      dup5\n        /* \"#utility.yul\":5602:5641   */\n      add\n        /* \"#utility.yul\":5595:5641   */\n      swap2\n      pop\n        /* \"#utility.yul\":5375:5647   */\n      pop\n      swap3\n      swap2\n      pop\n      pop\n      jump\t// out\n        /* \"#utility.yul\":5653:6020   */\n    tag_406:\n      0x00\n        /* \"#utility.yul\":5816:5883   */\n      tag_408\n        /* \"#utility.yul\":5880:5882   */\n      0x23\n        /* \"#utility.yul\":5875:5878   */\n      dup4\n        /* \"#utility.yul\":5816:5883   */\n      tag_401\n      jump\t// in\n    tag_408:\n        /* \"#utility.yul\":5809:5883   */\n      swap2\n      pop\n        /* \"#utility.yul\":5913:5947   */\n      0x45524332303a207472616e7366657220746f20746865207a65726f2061646472\n        /* \"#utility.yul\":5909:5910   */\n      0x00\n        /* \"#utility.yul\":5904:5907   */\n      dup4\n        /* \"#utility.yul\":5900:5911   */\n      add\n        /* \"#utility.yul\":5893:5948   */\n      mstore\n        /* \"#utility.yul\":5979:5984   */\n      0x6573730000000000000000000000000000000000000000000000000000000000\n        /* \"#utility.yul\":5974:5976   */\n      0x20\n        /* \"#utility.yul\":5969:5972   */\n      dup4\n        /* \"#utility.yul\":5965:5977   */\n      add\n        /* \"#utility.yul\":5958:5985   */\n      mstore\n        /* \"#utility.yul\":6011:6013   */\n      0x40\n        /* \"#utility.yul\":6006:6009   */\n      dup3\n        /* \"#utility.yul\":6002:6014   */\n      add\n        /* \"#utility.yul\":5995:6014   */\n      swap1\n      pop\n        /* \"#utility.yul\":5799:6020   */\n      swap2\n      swap1\n      pop\n      jump\t// out\n        /* \"#utility.yul\":6026:6340   */\n    tag_409:\n      0x00\n        /* \"#utility.yul\":6189:6256   */\n      tag_411\n        /* \"#utility.yul\":6253:6255   */\n      0x10\n        /* \"#utility.yul\":6248:6251   */\n      dup4\n        /* \"#utility.yul\":6189:6256   */\n      tag_401\n      jump\t// in\n    tag_411:\n        /* \"#utility.yul\":6182:6256   */\n      swap2\n      pop\n        /* \"#utility.yul\":6286:6304   */\n      0x45524332303a20626f744c697374656400000000000000000000000000000000\n        /* \"#utility.yul\":6282:6283   */\n      0x00\n        /* \"#utility.yul\":6277:6280   */\n      dup4\n        /* \"#utility.yul\":6273:6284   */\n      add\n        /* \"#utility.yul\":6266:6305   */\n      mstore\n        /* \"#utility.yul\":6331:6333   */\n      0x20\n        /* \"#utility.yul\":6326:6329   */\n      dup3\n        /* \"#utility.yul\":6322:6334   */\n      add\n        /* \"#utility.yul\":6315:6334   */\n      swap1\n      pop\n        /* \"#utility.yul\":6172:6340   */\n      swap2\n      swap1\n      pop\n      jump\t// out\n        /* \"#utility.yul\":6346:6712   */\n    tag_412:\n      0x00\n        /* \"#utility.yul\":6509:6576   */\n      tag_414\n        /* \"#utility.yul\":6573:6575   */\n      0x22\n        /* \"#utility.yul\":6568:6571   */\n      dup4\n        /* \"#utility.yul\":6509:6576   */\n      tag_401\n      jump\t// in\n    tag_414:\n        /* \"#utility.yul\":6502:6576   */\n      swap2\n      pop\n        /* \"#utility.yul\":6606:6640   */\n      0x45524332303a20617070726f766520746f20746865207a65726f206164647265\n        /* \"#utility.yul\":6602:6603   */\n      0x00\n        /* \"#utility.yul\":6597:6600   */\n      dup4\n        /* \"#utility.yul\":6593:6604   */\n      add\n        /* \"#utility.yul\":6586:6641   */\n      mstore\n        /* \"#utility.yul\":6672:6676   */\n      0x7373000000000000000000000000000000000000000000000000000000000000\n        /* \"#utility.yul\":6667:6669   */\n      0x20\n        /* \"#utility.yul\":6662:6665   */\n      dup4\n        /* \"#utility.yul\":6658:6670   */\n      add\n        /* \"#utility.yul\":6651:6677   */\n      mstore\n        /* \"#utility.yul\":6703:6705   */\n      0x40\n        /* \"#utility.yul\":6698:6701   */\n      dup3\n        /* \"#utility.yul\":6694:6706   */\n      add\n        /* \"#utility.yul\":6687:6706   */\n      swap1\n      pop\n        /* \"#utility.yul\":6492:6712   */\n      swap2\n      swap1\n      pop\n      jump\t// out\n        /* \"#utility.yul\":6718:7043   */\n    tag_415:\n      0x00\n        /* \"#utility.yul\":6881:6948   */\n      tag_417\n        /* \"#utility.yul\":6945:6947   */\n      0x1b\n        /* \"#utility.yul\":6940:6943   */\n      dup4\n        /* \"#utility.yul\":6881:6948   */\n      tag_401\n      jump\t// in\n    tag_417:\n        /* \"#utility.yul\":6874:6948   */\n      swap2\n      pop\n        /* \"#utility.yul\":6978:7007   */\n      0x536166654d6174683a206164646974696f6e206f766572666c6f770000000000\n        /* \"#utility.yul\":6974:6975   */\n      0x00\n        /* \"#utility.yul\":6969:6972   */\n      dup4\n        /* \"#utility.yul\":6965:6976   */\n      add\n        /* \"#utility.yul\":6958:7008   */\n      mstore\n        /* \"#utility.yul\":7034:7036   */\n      0x20\n        /* \"#utility.yul\":7029:7032   */\n      dup3\n        /* \"#utility.yul\":7025:7037   */\n      add\n        /* \"#utility.yul\":7018:7037   */\n      swap1\n      pop\n        /* \"#utility.yul\":6864:7043   */\n      swap2\n      swap1\n      pop\n      jump\t// out\n        /* \"#utility.yul\":7049:7414   */\n    tag_418:\n      0x00\n        /* \"#utility.yul\":7212:7279   */\n      tag_420\n        /* \"#utility.yul\":7276:7278   */\n      0x21\n        /* \"#utility.yul\":7271:7274   */\n      dup4\n        /* \"#utility.yul\":7212:7279   */\n      tag_401\n      jump\t// in\n    tag_420:\n        /* \"#utility.yul\":7205:7279   */\n      swap2\n      pop\n        /* \"#utility.yul\":7309:7343   */\n      0x536166654d6174683a206d756c7469706c69636174696f6e206f766572666c6f\n        /* \"#utility.yul\":7305:7306   */\n      0x00\n        /* \"#utility.yul\":7300:7303   */\n      dup4\n        /* \"#utility.yul\":7296:7307   */\n      add\n        /* \"#utility.yul\":7289:7344   */\n      mstore\n        /* \"#utility.yul\":7375:7378   */\n      0x7700000000000000000000000000000000000000000000000000000000000000\n        /* \"#utility.yul\":7370:7372   */\n      0x20\n        /* \"#utility.yul\":7365:7368   */\n      dup4\n        /* \"#utility.yul\":7361:7373   */\n      add\n        /* \"#utility.yul\":7354:7379   */\n      mstore\n        /* \"#utility.yul\":7405:7407   */\n      0x40\n        /* \"#utility.yul\":7400:7403   */\n      dup3\n        /* \"#utility.yul\":7396:7408   */\n      add\n        /* \"#utility.yul\":7389:7408   */\n      swap1\n      pop\n        /* \"#utility.yul\":7195:7414   */\n      swap2\n      swap1\n      pop\n      jump\t// out\n        /* \"#utility.yul\":7420:7750   */\n    tag_421:\n      0x00\n        /* \"#utility.yul\":7583:7650   */\n      tag_423\n        /* \"#utility.yul\":7647:7649   */\n      0x20\n        /* \"#utility.yul\":7642:7645   */\n      dup4\n        /* \"#utility.yul\":7583:7650   */\n      tag_401\n      jump\t// in\n    tag_423:\n        /* \"#utility.yul\":7576:7650   */\n      swap2\n      pop\n        /* \"#utility.yul\":7680:7714   */\n      0x4f776e61626c653a2063616c6c6572206973206e6f7420746865206f776e6572\n        /* \"#utility.yul\":7676:7677   */\n      0x00\n        /* \"#utility.yul\":7671:7674   */\n      dup4\n        /* \"#utility.yul\":7667:7678   */\n      add\n        /* \"#utility.yul\":7660:7715   */\n      mstore\n        /* \"#utility.yul\":7741:7743   */\n      0x20\n        /* \"#utility.yul\":7736:7739   */\n      dup3\n        /* \"#utility.yul\":7732:7744   */\n      add\n        /* \"#utility.yul\":7725:7744   */\n      swap1\n      pop\n        /* \"#utility.yul\":7566:7750   */\n      swap2\n      swap1\n      pop\n      jump\t// out\n        /* \"#utility.yul\":7756:8125   */\n    tag_424:\n      0x00\n        /* \"#utility.yul\":7919:7986   */\n      tag_426\n        /* \"#utility.yul\":7983:7985   */\n      0x25\n        /* \"#utility.yul\":7978:7981   */\n      dup4\n        /* \"#utility.yul\":7919:7986   */\n      tag_401\n      jump\t// in\n    tag_426:\n        /* \"#utility.yul\":7912:7986   */\n      swap2\n      pop\n        /* \"#utility.yul\":8016:8050   */\n      0x45524332303a207472616e736665722066726f6d20746865207a65726f206164\n        /* \"#utility.yul\":8012:8013   */\n      0x00\n        /* \"#utility.yul\":8007:8010   */\n      dup4\n        /* \"#utility.yul\":8003:8014   */\n      add\n        /* \"#utility.yul\":7996:8051   */\n      mstore\n        /* \"#utility.yul\":8082:8089   */\n      0x6472657373000000000000000000000000000000000000000000000000000000\n        /* \"#utility.yul\":8077:8079   */\n      0x20\n        /* \"#utility.yul\":8072:8075   */\n      dup4\n        /* \"#utility.yul\":8068:8080   */\n      add\n        /* \"#utility.yul\":8061:8090   */\n      mstore\n        /* \"#utility.yul\":8116:8118   */\n      0x40\n        /* \"#utility.yul\":8111:8114   */\n      dup3\n        /* \"#utility.yul\":8107:8119   */\n      add\n        /* \"#utility.yul\":8100:8119   */\n      swap1\n      pop\n        /* \"#utility.yul\":7902:8125   */\n      swap2\n      swap1\n      pop\n      jump\t// out\n        /* \"#utility.yul\":8131:8499   */\n    tag_427:\n      0x00\n        /* \"#utility.yul\":8294:8361   */\n      tag_429\n        /* \"#utility.yul\":8358:8360   */\n      0x24\n        /* \"#utility.yul\":8353:8356   */\n      dup4\n        /* \"#utility.yul\":8294:8361   */\n      tag_401\n      jump\t// in\n    tag_429:\n        /* \"#utility.yul\":8287:8361   */\n      swap2\n      pop\n        /* \"#utility.yul\":8391:8425   */\n      0x45524332303a20617070726f76652066726f6d20746865207a65726f20616464\n        /* \"#utility.yul\":8387:8388   */\n      0x00\n        /* \"#utility.yul\":8382:8385   */\n      dup4\n        /* \"#utility.yul\":8378:8389   */\n      add\n        /* \"#utility.yul\":8371:8426   */\n      mstore\n        /* \"#utility.yul\":8457:8463   */\n      0x7265737300000000000000000000000000000000000000000000000000000000\n        /* \"#utility.yul\":8452:8454   */\n      0x20\n        /* \"#utility.yul\":8447:8450   */\n      dup4\n        /* \"#utility.yul\":8443:8455   */\n      add\n        /* \"#utility.yul\":8436:8464   */\n      mstore\n        /* \"#utility.yul\":8490:8492   */\n      0x40\n        /* \"#utility.yul\":8485:8488   */\n      dup3\n        /* \"#utility.yul\":8481:8493   */\n      add\n        /* \"#utility.yul\":8474:8493   */\n      swap1\n      pop\n        /* \"#utility.yul\":8277:8499   */\n      swap2\n      swap1\n      pop\n      jump\t// out\n        /* \"#utility.yul\":8505:8623   */\n    tag_430:\n        /* \"#utility.yul\":8592:8616   */\n      tag_432\n        /* \"#utility.yul\":8610:8615   */\n      dup2\n        /* \"#utility.yul\":8592:8616   */\n      tag_433\n      jump\t// in\n    tag_432:\n        /* \"#utility.yul\":8587:8590   */\n      dup3\n        /* \"#utility.yul\":8580:8617   */\n      mstore\n        /* \"#utility.yul\":8570:8623   */\n      pop\n      pop\n      jump\t// out\n        /* \"#utility.yul\":8629:8741   */\n    tag_434:\n        /* \"#utility.yul\":8712:8734   */\n      tag_436\n        /* \"#utility.yul\":8728:8733   */\n      dup2\n        /* \"#utility.yul\":8712:8734   */\n      tag_437\n      jump\t// in\n    tag_436:\n        /* \"#utility.yul\":8707:8710   */\n      dup3\n        /* \"#utility.yul\":8700:8735   */\n      mstore\n        /* \"#utility.yul\":8690:8741   */\n      pop\n      pop\n      jump\t// out\n        /* \"#utility.yul\":8747:8969   */\n    tag_90:\n      0x00\n        /* \"#utility.yul\":8878:8880   */\n      0x20\n        /* \"#utility.yul\":8867:8876   */\n      dup3\n        /* \"#utility.yul\":8863:8881   */\n      add\n        /* \"#utility.yul\":8855:8881   */\n      swap1\n      pop\n        /* \"#utility.yul\":8891:8962   */\n      tag_439\n        /* \"#utility.yul\":8959:8960   */\n      0x00\n        /* \"#utility.yul\":8948:8957   */\n      dup4\n        /* \"#utility.yul\":8944:8961   */\n      add\n        /* \"#utility.yul\":8935:8941   */\n      dup5\n        /* \"#utility.yul\":8891:8962   */\n      tag_367\n      jump\t// in\n    tag_439:\n        /* \"#utility.yul\":8845:8969   */\n      swap3\n      swap2\n      pop\n      pop\n      jump\t// out\n        /* \"#utility.yul\":8975:9229   */\n    tag_48:\n      0x00\n        /* \"#utility.yul\":9122:9124   */\n      0x20\n        /* \"#utility.yul\":9111:9120   */\n      dup3\n        /* \"#utility.yul\":9107:9125   */\n      add\n        /* \"#utility.yul\":9099:9125   */\n      swap1\n      pop\n        /* \"#utility.yul\":9135:9222   */\n      tag_441\n        /* \"#utility.yul\":9219:9220   */\n      0x00\n        /* \"#utility.yul\":9208:9217   */\n      dup4\n        /* \"#utility.yul\":9204:9221   */\n      add\n        /* \"#utility.yul\":9195:9201   */\n      dup5\n        /* \"#utility.yul\":9135:9222   */\n      tag_360\n      jump\t// in\n    tag_441:\n        /* \"#utility.yul\":9089:9229   */\n      swap3\n      swap2\n      pop\n      pop\n      jump\t// out\n        /* \"#utility.yul\":9235:9567   */\n    tag_149:\n      0x00\n        /* \"#utility.yul\":9394:9396   */\n      0x40\n        /* \"#utility.yul\":9383:9392   */\n      dup3\n        /* \"#utility.yul\":9379:9397   */\n      add\n        /* \"#utility.yul\":9371:9397   */\n      swap1\n      pop\n        /* \"#utility.yul\":9407:9478   */\n      tag_443\n        /* \"#utility.yul\":9475:9476   */\n      0x00\n        /* \"#utility.yul\":9464:9473   */\n      dup4\n        /* \"#utility.yul\":9460:9477   */\n      add\n        /* \"#utility.yul\":9451:9457   */\n      dup6\n        /* \"#utility.yul\":9407:9478   */\n      tag_367\n      jump\t// in\n    tag_443:\n        /* \"#utility.yul\":9488:9560   */\n      tag_444\n        /* \"#utility.yul\":9556:9558   */\n      0x20\n        /* \"#utility.yul\":9545:9554   */\n      dup4\n        /* \"#utility.yul\":9541:9559   */\n      add\n        /* \"#utility.yul\":9532:9538   */\n      dup5\n        /* \"#utility.yul\":9488:9560   */\n      tag_367\n      jump\t// in\n    tag_444:\n        /* \"#utility.yul\":9361:9567   */\n      swap4\n      swap3\n      pop\n      pop\n      pop\n      jump\t// out\n        /* \"#utility.yul\":9573:9783   */\n    tag_43:\n      0x00\n        /* \"#utility.yul\":9698:9700   */\n      0x20\n        /* \"#utility.yul\":9687:9696   */\n      dup3\n        /* \"#utility.yul\":9683:9701   */\n      add\n        /* \"#utility.yul\":9675:9701   */\n      swap1\n      pop\n        /* \"#utility.yul\":9711:9776   */\n      tag_446\n        /* \"#utility.yul\":9773:9774   */\n      0x00\n        /* \"#utility.yul\":9762:9771   */\n      dup4\n        /* \"#utility.yul\":9758:9775   */\n      add\n        /* \"#utility.yul\":9749:9755   */\n      dup5\n        /* \"#utility.yul\":9711:9776   */\n      tag_384\n      jump\t// in\n    tag_446:\n        /* \"#utility.yul\":9665:9783   */\n      swap3\n      swap2\n      pop\n      pop\n      jump\t// out\n        /* \"#utility.yul\":9789:10063   */\n    tag_53:\n      0x00\n        /* \"#utility.yul\":9946:9948   */\n      0x20\n        /* \"#utility.yul\":9935:9944   */\n      dup3\n        /* \"#utility.yul\":9931:9949   */\n      add\n        /* \"#utility.yul\":9923:9949   */\n      swap1\n      pop\n        /* \"#utility.yul\":9959:10056   */\n      tag_448\n        /* \"#utility.yul\":10053:10054   */\n      0x00\n        /* \"#utility.yul\":10042:10051   */\n      dup4\n        /* \"#utility.yul\":10038:10055   */\n      add\n        /* \"#utility.yul\":10029:10035   */\n      dup5\n        /* \"#utility.yul\":9959:10056   */\n      tag_388\n      jump\t// in\n    tag_448:\n        /* \"#utility.yul\":9913:10063   */\n      swap3\n      swap2\n      pop\n      pop\n      jump\t// out\n        /* \"#utility.yul\":10069:10382   */\n    tag_36:\n      0x00\n        /* \"#utility.yul\":10220:10222   */\n      0x20\n        /* \"#utility.yul\":10209:10218   */\n      dup3\n        /* \"#utility.yul\":10205:10223   */\n      add\n        /* \"#utility.yul\":10197:10223   */\n      swap1\n      pop\n        /* \"#utility.yul\":10269:10278   */\n      dup2\n        /* \"#utility.yul\":10263:10267   */\n      dup2\n        /* \"#utility.yul\":10259:10279   */\n      sub\n        /* \"#utility.yul\":10255:10256   */\n      0x00\n        /* \"#utility.yul\":10244:10253   */\n      dup4\n        /* \"#utility.yul\":10240:10257   */\n      add\n        /* \"#utility.yul\":10233:10280   */\n      mstore\n        /* \"#utility.yul\":10297:10375   */\n      tag_450\n        /* \"#utility.yul\":10370:10374   */\n      dup2\n        /* \"#utility.yul\":10361:10367   */\n      dup5\n        /* \"#utility.yul\":10297:10375   */\n      tag_396\n      jump\t// in\n    tag_450:\n        /* \"#utility.yul\":10289:10375   */\n      swap1\n      pop\n        /* \"#utility.yul\":10187:10382   */\n      swap3\n      swap2\n      pop\n      pop\n      jump\t// out\n        /* \"#utility.yul\":10388:10807   */\n    tag_224:\n      0x00\n        /* \"#utility.yul\":10592:10594   */\n      0x20\n        /* \"#utility.yul\":10581:10590   */\n      dup3\n        /* \"#utility.yul\":10577:10595   */\n      add\n        /* \"#utility.yul\":10569:10595   */\n      swap1\n      pop\n        /* \"#utility.yul\":10641:10650   */\n      dup2\n        /* \"#utility.yul\":10635:10639   */\n      dup2\n        /* \"#utility.yul\":10631:10651   */\n      sub\n        /* \"#utility.yul\":10627:10628   */\n      0x00\n        /* \"#utility.yul\":10616:10625   */\n      dup4\n        /* \"#utility.yul\":10612:10629   */\n      add\n        /* \"#utility.yul\":10605:10652   */\n      mstore\n        /* \"#utility.yul\":10669:10800   */\n      tag_452\n        /* \"#utility.yul\":10795:10799   */\n      dup2\n        /* \"#utility.yul\":10669:10800   */\n      tag_406\n      jump\t// in\n    tag_452:\n        /* \"#utility.yul\":10661:10800   */\n      swap1\n      pop\n        /* \"#utility.yul\":10559:10807   */\n      swap2\n      swap1\n      pop\n      jump\t// out\n        /* \"#utility.yul\":10813:11232   */\n    tag_241:\n      0x00\n        /* \"#utility.yul\":11017:11019   */\n      0x20\n        /* \"#utility.yul\":11006:11015   */\n      dup3\n        /* \"#utility.yul\":11002:11020   */\n      add\n        /* \"#utility.yul\":10994:11020   */\n      swap1\n      pop\n        /* \"#utility.yul\":11066:11075   */\n      dup2\n        /* \"#utility.yul\":11060:11064   */\n      dup2\n        /* \"#utility.yul\":11056:11076   */\n      sub\n        /* \"#utility.yul\":11052:11053   */\n      0x00\n        /* \"#utility.yul\":11041:11050   */\n      dup4\n        /* \"#utility.yul\":11037:11054   */\n      add\n        /* \"#utility.yul\":11030:11077   */\n      mstore\n        /* \"#utility.yul\":11094:11225   */\n      tag_454\n        /* \"#utility.yul\":11220:11224   */\n      dup2\n        /* \"#utility.yul\":11094:11225   */\n      tag_409\n      jump\t// in\n    tag_454:\n        /* \"#utility.yul\":11086:11225   */\n      swap1\n      pop\n        /* \"#utility.yul\":10984:11232   */\n      swap2\n      swap1\n      pop\n      jump\t// out\n        /* \"#utility.yul\":11238:11657   */\n    tag_216:\n      0x00\n        /* \"#utility.yul\":11442:11444   */\n      0x20\n        /* \"#utility.yul\":11431:11440   */\n      dup3\n        /* \"#utility.yul\":11427:11445   */\n      add\n        /* \"#utility.yul\":11419:11445   */\n      swap1\n      pop\n        /* \"#utility.yul\":11491:11500   */\n      dup2\n        /* \"#utility.yul\":11485:11489   */\n      dup2\n        /* \"#utility.yul\":11481:11501   */\n      sub\n        /* \"#utility.yul\":11477:11478   */\n      0x00\n        /* \"#utility.yul\":11466:11475   */\n      dup4\n        /* \"#utility.yul\":11462:11479   */\n      add\n        /* \"#utility.yul\":11455:11502   */\n      mstore\n        /* \"#utility.yul\":11519:11650   */\n      tag_456\n        /* \"#utility.yul\":11645:11649   */\n      dup2\n        /* \"#utility.yul\":11519:11650   */\n      tag_412\n      jump\t// in\n    tag_456:\n        /* \"#utility.yul\":11511:11650   */\n      swap1\n      pop\n        /* \"#utility.yul\":11409:11657   */\n      swap2\n      swap1\n      pop\n      jump\t// out\n        /* \"#utility.yul\":11663:12082   */\n    tag_306:\n      0x00\n        /* \"#utility.yul\":11867:11869   */\n      0x20\n        /* \"#utility.yul\":11856:11865   */\n      dup3\n        /* \"#utility.yul\":11852:11870   */\n      add\n        /* \"#utility.yul\":11844:11870   */\n      swap1\n      pop\n        /* \"#utility.yul\":11916:11925   */\n      dup2\n        /* \"#utility.yul\":11910:11914   */\n      dup2\n        /* \"#utility.yul\":11906:11926   */\n      sub\n        /* \"#utility.yul\":11902:11903   */\n      0x00\n        /* \"#utility.yul\":11891:11900   */\n      dup4\n        /* \"#utility.yul\":11887:11904   */\n      add\n        /* \"#utility.yul\":11880:11927   */\n      mstore\n        /* \"#utility.yul\":11944:12075   */\n      tag_458\n        /* \"#utility.yul\":12070:12074   */\n      dup2\n        /* \"#utility.yul\":11944:12075   */\n      tag_415\n      jump\t// in\n    tag_458:\n        /* \"#utility.yul\":11936:12075   */\n      swap1\n      pop\n        /* \"#utility.yul\":11834:12082   */\n      swap2\n      swap1\n      pop\n      jump\t// out\n        /* \"#utility.yul\":12088:12507   */\n    tag_298:\n      0x00\n        /* \"#utility.yul\":12292:12294   */\n      0x20\n        /* \"#utility.yul\":12281:12290   */\n      dup3\n        /* \"#utility.yul\":12277:12295   */\n      add\n        /* \"#utility.yul\":12269:12295   */\n      swap1\n      pop\n        /* \"#utility.yul\":12341:12350   */\n      dup2\n        /* \"#utility.yul\":12335:12339   */\n      dup2\n        /* \"#utility.yul\":12331:12351   */\n      sub\n        /* \"#utility.yul\":12327:12328   */\n      0x00\n        /* \"#utility.yul\":12316:12325   */\n      dup4\n        /* \"#utility.yul\":12312:12329   */\n      add\n        /* \"#utility.yul\":12305:12352   */\n      mstore\n        /* \"#utility.yul\":12369:12500   */\n      tag_460\n        /* \"#utility.yul\":12495:12499   */\n      dup2\n        /* \"#utility.yul\":12369:12500   */\n      tag_418\n      jump\t// in\n    tag_460:\n        /* \"#utility.yul\":12361:12500   */\n      swap1\n      pop\n        /* \"#utility.yul\":12259:12507   */\n      swap2\n      swap1\n      pop\n      jump\t// out\n        /* \"#utility.yul\":12513:12932   */\n    tag_137:\n      0x00\n        /* \"#utility.yul\":12717:12719   */\n      0x20\n        /* \"#utility.yul\":12706:12715   */\n      dup3\n        /* \"#utility.yul\":12702:12720   */\n      add\n        /* \"#utility.yul\":12694:12720   */\n      swap1\n      pop\n        /* \"#utility.yul\":12766:12775   */\n      dup2\n        /* \"#utility.yul\":12760:12764   */\n      dup2\n        /* \"#utility.yul\":12756:12776   */\n      sub\n        /* \"#utility.yul\":12752:12753   */\n      0x00\n        /* \"#utility.yul\":12741:12750   */\n      dup4\n        /* \"#utility.yul\":12737:12754   */\n      add\n        /* \"#utility.yul\":12730:12777   */\n      mstore\n        /* \"#utility.yul\":12794:12925   */\n      tag_462\n        /* \"#utility.yul\":12920:12924   */\n      dup2\n        /* \"#utility.yul\":12794:12925   */\n      tag_421\n      jump\t// in\n    tag_462:\n        /* \"#utility.yul\":12786:12925   */\n      swap1\n      pop\n        /* \"#utility.yul\":12684:12932   */\n      swap2\n      swap1\n      pop\n      jump\t// out\n        /* \"#utility.yul\":12938:13357   */\n    tag_221:\n      0x00\n        /* \"#utility.yul\":13142:13144   */\n      0x20\n        /* \"#utility.yul\":13131:13140   */\n      dup3\n        /* \"#utility.yul\":13127:13145   */\n      add\n        /* \"#utility.yul\":13119:13145   */\n      swap1\n      pop\n        /* \"#utility.yul\":13191:13200   */\n      dup2\n        /* \"#utility.yul\":13185:13189   */\n      dup2\n        /* \"#utility.yul\":13181:13201   */\n      sub\n        /* \"#utility.yul\":13177:13178   */\n      0x00\n        /* \"#utility.yul\":13166:13175   */\n      dup4\n        /* \"#utility.yul\":13162:13179   */\n      add\n        /* \"#utility.yul\":13155:13202   */\n      mstore\n        /* \"#utility.yul\":13219:13350   */\n      tag_464\n        /* \"#utility.yul\":13345:13349   */\n      dup2\n        /* \"#utility.yul\":13219:13350   */\n      tag_424\n      jump\t// in\n    tag_464:\n        /* \"#utility.yul\":13211:13350   */\n      swap1\n      pop\n        /* \"#utility.yul\":13109:13357   */\n      swap2\n      swap1\n      pop\n      jump\t// out\n        /* \"#utility.yul\":13363:13782   */\n    tag_213:\n      0x00\n        /* \"#utility.yul\":13567:13569   */\n      0x20\n        /* \"#utility.yul\":13556:13565   */\n      dup3\n        /* \"#utility.yul\":13552:13570   */\n      add\n        /* \"#utility.yul\":13544:13570   */\n      swap1\n      pop\n        /* \"#utility.yul\":13616:13625   */\n      dup2\n        /* \"#utility.yul\":13610:13614   */\n      dup2\n        /* \"#utility.yul\":13606:13626   */\n      sub\n        /* \"#utility.yul\":13602:13603   */\n      0x00\n        /* \"#utility.yul\":13591:13600   */\n      dup4\n        /* \"#utility.yul\":13587:13604   */\n      add\n        /* \"#utility.yul\":13580:13627   */\n      mstore\n        /* \"#utility.yul\":13644:13775   */\n      tag_466\n        /* \"#utility.yul\":13770:13774   */\n      dup2\n        /* \"#utility.yul\":13644:13775   */\n      tag_427\n      jump\t// in\n    tag_466:\n        /* \"#utility.yul\":13636:13775   */\n      swap1\n      pop\n        /* \"#utility.yul\":13534:13782   */\n      swap2\n      swap1\n      pop\n      jump\t// out\n        /* \"#utility.yul\":13788:14010   */\n    tag_58:\n      0x00\n        /* \"#utility.yul\":13919:13921   */\n      0x20\n        /* \"#utility.yul\":13908:13917   */\n      dup3\n        /* \"#utility.yul\":13904:13922   */\n      add\n        /* \"#utility.yul\":13896:13922   */\n      swap1\n      pop\n        /* \"#utility.yul\":13932:14003   */\n      tag_468\n        /* \"#utility.yul\":14000:14001   */\n      0x00\n        /* \"#utility.yul\":13989:13998   */\n      dup4\n        /* \"#utility.yul\":13985:14002   */\n      add\n        /* \"#utility.yul\":13976:13982   */\n      dup5\n        /* \"#utility.yul\":13932:14003   */\n      tag_430\n      jump\t// in\n    tag_468:\n        /* \"#utility.yul\":13886:14010   */\n      swap3\n      swap2\n      pop\n      pop\n      jump\t// out\n        /* \"#utility.yul\":14016:14847   */\n    tag_279:\n      0x00\n        /* \"#utility.yul\":14317:14320   */\n      0xa0\n        /* \"#utility.yul\":14306:14315   */\n      dup3\n        /* \"#utility.yul\":14302:14321   */\n      add\n        /* \"#utility.yul\":14294:14321   */\n      swap1\n      pop\n        /* \"#utility.yul\":14331:14402   */\n      tag_470\n        /* \"#utility.yul\":14399:14400   */\n      0x00\n        /* \"#utility.yul\":14388:14397   */\n      dup4\n        /* \"#utility.yul\":14384:14401   */\n      add\n        /* \"#utility.yul\":14375:14381   */\n      dup9\n        /* \"#utility.yul\":14331:14402   */\n      tag_430\n      jump\t// in\n    tag_470:\n        /* \"#utility.yul\":14412:14492   */\n      tag_471\n        /* \"#utility.yul\":14488:14490   */\n      0x20\n        /* \"#utility.yul\":14477:14486   */\n      dup4\n        /* \"#utility.yul\":14473:14491   */\n      add\n        /* \"#utility.yul\":14464:14470   */\n      dup8\n        /* \"#utility.yul\":14412:14492   */\n      tag_392\n      jump\t// in\n    tag_471:\n        /* \"#utility.yul\":14539:14548   */\n      dup2\n        /* \"#utility.yul\":14533:14537   */\n      dup2\n        /* \"#utility.yul\":14529:14549   */\n      sub\n        /* \"#utility.yul\":14524:14526   */\n      0x40\n        /* \"#utility.yul\":14513:14522   */\n      dup4\n        /* \"#utility.yul\":14509:14527   */\n      add\n        /* \"#utility.yul\":14502:14550   */\n      mstore\n        /* \"#utility.yul\":14567:14675   */\n      tag_472\n        /* \"#utility.yul\":14670:14674   */\n      dup2\n        /* \"#utility.yul\":14661:14667   */\n      dup7\n        /* \"#utility.yul\":14567:14675   */\n      tag_370\n      jump\t// in\n    tag_472:\n        /* \"#utility.yul\":14559:14675   */\n      swap1\n      pop\n        /* \"#utility.yul\":14685:14757   */\n      tag_473\n        /* \"#utility.yul\":14753:14755   */\n      0x60\n        /* \"#utility.yul\":14742:14751   */\n      dup4\n        /* \"#utility.yul\":14738:14756   */\n      add\n        /* \"#utility.yul\":14729:14735   */\n      dup6\n        /* \"#utility.yul\":14685:14757   */\n      tag_367\n      jump\t// in\n    tag_473:\n        /* \"#utility.yul\":14767:14840   */\n      tag_474\n        /* \"#utility.yul\":14835:14838   */\n      0x80\n        /* \"#utility.yul\":14824:14833   */\n      dup4\n        /* \"#utility.yul\":14820:14839   */\n      add\n        /* \"#utility.yul\":14811:14817   */\n      dup5\n        /* \"#utility.yul\":14767:14840   */\n      tag_430\n      jump\t// in\n    tag_474:\n        /* \"#utility.yul\":14284:14847   */\n      swap7\n      swap6\n      pop\n      pop\n      pop\n      pop\n      pop\n      pop\n      jump\t// out\n        /* \"#utility.yul\":14853:15067   */\n    tag_69:\n      0x00\n        /* \"#utility.yul\":14980:14982   */\n      0x20\n        /* \"#utility.yul\":14969:14978   */\n      dup3\n        /* \"#utility.yul\":14965:14983   */\n      add\n        /* \"#utility.yul\":14957:14983   */\n      swap1\n      pop\n        /* \"#utility.yul\":14993:15060   */\n      tag_476\n        /* \"#utility.yul\":15057:15058   */\n      0x00\n        /* \"#utility.yul\":15046:15055   */\n      dup4\n        /* \"#utility.yul\":15042:15059   */\n      add\n        /* \"#utility.yul\":15033:15039   */\n      dup5\n        /* \"#utility.yul\":14993:15060   */\n      tag_434\n      jump\t// in\n    tag_476:\n        /* \"#utility.yul\":14947:15067   */\n      swap3\n      swap2\n      pop\n      pop\n      jump\t// out\n        /* \"#utility.yul\":15073:15205   */\n    tag_377:\n      0x00\n        /* \"#utility.yul\":15163:15166   */\n      dup2\n        /* \"#utility.yul\":15155:15166   */\n      swap1\n      pop\n        /* \"#utility.yul\":15193:15197   */\n      0x20\n        /* \"#utility.yul\":15188:15191   */\n      dup3\n        /* \"#utility.yul\":15184:15198   */\n      add\n        /* \"#utility.yul\":15176:15198   */\n      swap1\n      pop\n        /* \"#utility.yul\":15145:15205   */\n      swap2\n      swap1\n      pop\n      jump\t// out\n        /* \"#utility.yul\":15211:15325   */\n    tag_373:\n      0x00\n        /* \"#utility.yul\":15312:15317   */\n      dup2\n        /* \"#utility.yul\":15306:15318   */\n      mload\n        /* \"#utility.yul\":15296:15318   */\n      swap1\n      pop\n        /* \"#utility.yul\":15285:15325   */\n      swap2\n      swap1\n      pop\n      jump\t// out\n        /* \"#utility.yul\":15331:15430   */\n    tag_399:\n      0x00\n        /* \"#utility.yul\":15417:15422   */\n      dup2\n        /* \"#utility.yul\":15411:15423   */\n      mload\n        /* \"#utility.yul\":15401:15423   */\n      swap1\n      pop\n        /* \"#utility.yul\":15390:15430   */\n      swap2\n      swap1\n      pop\n      jump\t// out\n        /* \"#utility.yul\":15436:15549   */\n    tag_383:\n      0x00\n        /* \"#utility.yul\":15538:15542   */\n      0x20\n        /* \"#utility.yul\":15533:15536   */\n      dup3\n        /* \"#utility.yul\":15529:15543   */\n      add\n        /* \"#utility.yul\":15521:15543   */\n      swap1\n      pop\n        /* \"#utility.yul\":15511:15549   */\n      swap2\n      swap1\n      pop\n      jump\t// out\n        /* \"#utility.yul\":15555:15739   */\n    tag_375:\n      0x00\n        /* \"#utility.yul\":15688:15694   */\n      dup3\n        /* \"#utility.yul\":15683:15686   */\n      dup3\n        /* \"#utility.yul\":15676:15695   */\n      mstore\n        /* \"#utility.yul\":15728:15732   */\n      0x20\n        /* \"#utility.yul\":15723:15726   */\n      dup3\n        /* \"#utility.yul\":15719:15733   */\n      add\n        /* \"#utility.yul\":15704:15733   */\n      swap1\n      pop\n        /* \"#utility.yul\":15666:15739   */\n      swap3\n      swap2\n      pop\n      pop\n      jump\t// out\n        /* \"#utility.yul\":15745:15914   */\n    tag_401:\n      0x00\n        /* \"#utility.yul\":15863:15869   */\n      dup3\n        /* \"#utility.yul\":15858:15861   */\n      dup3\n        /* \"#utility.yul\":15851:15870   */\n      mstore\n        /* \"#utility.yul\":15903:15907   */\n      0x20\n        /* \"#utility.yul\":15898:15901   */\n      dup3\n        /* \"#utility.yul\":15894:15908   */\n      add\n        /* \"#utility.yul\":15879:15908   */\n      swap1\n      pop\n        /* \"#utility.yul\":15841:15914   */\n      swap3\n      swap2\n      pop\n      pop\n      jump\t// out\n        /* \"#utility.yul\":15920:16225   */\n    tag_198:\n      0x00\n        /* \"#utility.yul\":15979:15999   */\n      tag_484\n        /* \"#utility.yul\":15997:15998   */\n      dup3\n        /* \"#utility.yul\":15979:15999   */\n      tag_433\n      jump\t// in\n    tag_484:\n        /* \"#utility.yul\":15974:15999   */\n      swap2\n      pop\n        /* \"#utility.yul\":16013:16033   */\n      tag_485\n        /* \"#utility.yul\":16031:16032   */\n      dup4\n        /* \"#utility.yul\":16013:16033   */\n      tag_433\n      jump\t// in\n    tag_485:\n        /* \"#utility.yul\":16008:16033   */\n      swap3\n      pop\n        /* \"#utility.yul\":16167:16168   */\n      dup3\n        /* \"#utility.yul\":16099:16165   */\n      0xffffffffffffffffffffffffffffffffffffffffffffffffffffffffffffffff\n        /* \"#utility.yul\":16095:16169   */\n      sub\n        /* \"#utility.yul\":16092:16093   */\n      dup3\n        /* \"#utility.yul\":16089:16170   */\n      gt\n        /* \"#utility.yul\":16086:16088   */\n      iszero\n      tag_486\n      jumpi\n        /* \"#utility.yul\":16173:16191   */\n      tag_487\n      tag_488\n      jump\t// in\n    tag_487:\n        /* \"#utility.yul\":16086:16088   */\n    tag_486:\n        /* \"#utility.yul\":16217:16218   */\n      dup3\n        /* \"#utility.yul\":16214:16215   */\n      dup3\n        /* \"#utility.yul\":16210:16219   */\n      add\n        /* \"#utility.yul\":16203:16219   */\n      swap1\n      pop\n        /* \"#utility.yul\":15964:16225   */\n      swap3\n      swap2\n      pop\n      pop\n      jump\t// out\n        /* \"#utility.yul\":16231:16416   */\n    tag_295:\n      0x00\n        /* \"#utility.yul\":16288:16308   */\n      tag_490\n        /* \"#utility.yul\":16306:16307   */\n      dup3\n        /* \"#utility.yul\":16288:16308   */\n      tag_433\n      jump\t// in\n    tag_490:\n        /* \"#utility.yul\":16283:16308   */\n      swap2\n      pop\n        /* \"#utility.yul\":16322:16342   */\n      tag_491\n        /* \"#utility.yul\":16340:16341   */\n      dup4\n        /* \"#utility.yul\":16322:16342   */\n      tag_433\n      jump\t// in\n    tag_491:\n        /* \"#utility.yul\":16317:16342   */\n      swap3\n      pop\n        /* \"#utility.yul\":16361:16362   */\n      dup3\n        /* \"#utility.yul\":16351:16353   */\n      tag_492\n      jumpi\n        /* \"#utility.yul\":16366:16384   */\n      tag_493\n      tag_494\n      jump\t// in\n    tag_493:\n        /* \"#utility.yul\":16351:16353   */\n    tag_492:\n        /* \"#utility.yul\":16408:16409   */\n      dup3\n        /* \"#utility.yul\":16405:16406   */\n      dup3\n        /* \"#utility.yul\":16401:16410   */\n      div\n        /* \"#utility.yul\":16396:16410   */\n      swap1\n      pop\n        /* \"#utility.yul\":16273:16416   */\n      swap3\n      swap2\n      pop\n      pop\n      jump\t// out\n        /* \"#utility.yul\":16422:16770   */\n    tag_196:\n      0x00\n        /* \"#utility.yul\":16485:16505   */\n      tag_496\n        /* \"#utility.yul\":16503:16504   */\n      dup3\n        /* \"#utility.yul\":16485:16505   */\n      tag_433\n      jump\t// in\n    tag_496:\n        /* \"#utility.yul\":16480:16505   */\n      swap2\n      pop\n        /* \"#utility.yul\":16519:16539   */\n      tag_497\n        /* \"#utility.yul\":16537:16538   */\n      dup4\n        /* \"#utility.yul\":16519:16539   */\n      tag_433\n      jump\t// in\n    tag_497:\n        /* \"#utility.yul\":16514:16539   */\n      swap3\n      pop\n        /* \"#utility.yul\":16707:16708   */\n      dup2\n        /* \"#utility.yul\":16639:16705   */\n      0xffffffffffffffffffffffffffffffffffffffffffffffffffffffffffffffff\n        /* \"#utility.yul\":16635:16709   */\n      div\n        /* \"#utility.yul\":16632:16633   */\n      dup4\n        /* \"#utility.yul\":16629:16710   */\n      gt\n        /* \"#utility.yul\":16624:16625   */\n      dup3\n        /* \"#utility.yul\":16617:16626   */\n      iszero\n        /* \"#utility.yul\":16610:16627   */\n      iszero\n        /* \"#utility.yul\":16606:16711   */\n      and\n        /* \"#utility.yul\":16603:16605   */\n      iszero\n      tag_498\n      jumpi\n        /* \"#utility.yul\":16714:16732   */\n      tag_499\n      tag_488\n      jump\t// in\n    tag_499:\n        /* \"#utility.yul\":16603:16605   */\n    tag_498:\n        /* \"#utility.yul\":16762:16763   */\n      dup3\n        /* \"#utility.yul\":16759:16760   */\n      dup3\n        /* \"#utility.yul\":16755:16764   */\n      mul\n        /* \"#utility.yul\":16744:16764   */\n      swap1\n      pop\n        /* \"#utility.yul\":16470:16770   */\n      swap3\n      swap2\n      pop\n      pop\n      jump\t// out\n        /* \"#utility.yul\":16776:16967   */\n    tag_262:\n      0x00\n        /* \"#utility.yul\":16836:16856   */\n      tag_501\n        /* \"#utility.yul\":16854:16855   */\n      dup3\n        /* \"#utility.yul\":16836:16856   */\n      tag_433\n      jump\t// in\n    tag_501:\n        /* \"#utility.yul\":16831:16856   */\n      swap2\n      pop\n        /* \"#utility.yul\":16870:16890   */\n      tag_502\n        /* \"#utility.yul\":16888:16889   */\n      dup4\n        /* \"#utility.yul\":16870:16890   */\n      tag_433\n      jump\t// in\n    tag_502:\n        /* \"#utility.yul\":16865:16890   */\n      swap3\n      pop\n        /* \"#utility.yul\":16909:16910   */\n      dup3\n        /* \"#utility.yul\":16906:16907   */\n      dup3\n        /* \"#utility.yul\":16903:16911   */\n      lt\n        /* \"#utility.yul\":16900:16902   */\n      iszero\n      tag_503\n      jumpi\n        /* \"#utility.yul\":16914:16932   */\n      tag_504\n      tag_488\n      jump\t// in\n    tag_504:\n        /* \"#utility.yul\":16900:16902   */\n    tag_503:\n        /* \"#utility.yul\":16959:16960   */\n      dup3\n        /* \"#utility.yul\":16956:16957   */\n      dup3\n        /* \"#utility.yul\":16952:16961   */\n      sub\n        /* \"#utility.yul\":16944:16961   */\n      swap1\n      pop\n        /* \"#utility.yul\":16821:16967   */\n      swap3\n      swap2\n      pop\n      pop\n      jump\t// out\n        /* \"#utility.yul\":16973:17069   */\n    tag_366:\n      0x00\n        /* \"#utility.yul\":17039:17063   */\n      tag_506\n        /* \"#utility.yul\":17057:17062   */\n      dup3\n        /* \"#utility.yul\":17039:17063   */\n      tag_507\n      jump\t// in\n    tag_506:\n        /* \"#utility.yul\":17028:17063   */\n      swap1\n      pop\n        /* \"#utility.yul\":17018:17069   */\n      swap2\n      swap1\n      pop\n      jump\t// out\n        /* \"#utility.yul\":17075:17179   */\n    tag_363:\n      0x00\n        /* \"#utility.yul\":17149:17173   */\n      tag_509\n        /* \"#utility.yul\":17167:17172   */\n      dup3\n        /* \"#utility.yul\":17149:17173   */\n      tag_507\n      jump\t// in\n    tag_509:\n        /* \"#utility.yul\":17138:17173   */\n      swap1\n      pop\n        /* \"#utility.yul\":17128:17179   */\n      swap2\n      swap1\n      pop\n      jump\t// out\n        /* \"#utility.yul\":17185:17275   */\n    tag_387:\n      0x00\n        /* \"#utility.yul\":17262:17267   */\n      dup2\n        /* \"#utility.yul\":17255:17268   */\n      iszero\n        /* \"#utility.yul\":17248:17269   */\n      iszero\n        /* \"#utility.yul\":17237:17269   */\n      swap1\n      pop\n        /* \"#utility.yul\":17227:17275   */\n      swap2\n      swap1\n      pop\n      jump\t// out\n        /* \"#utility.yul\":17281:17407   */\n    tag_507:\n      0x00\n        /* \"#utility.yul\":17358:17400   */\n      0xffffffffffffffffffffffffffffffffffffffff\n        /* \"#utility.yul\":17351:17356   */\n      dup3\n        /* \"#utility.yul\":17347:17401   */\n      and\n        /* \"#utility.yul\":17336:17401   */\n      swap1\n      pop\n        /* \"#utility.yul\":17326:17407   */\n      swap2\n      swap1\n      pop\n      jump\t// out\n        /* \"#utility.yul\":17413:17490   */\n    tag_433:\n      0x00\n        /* \"#utility.yul\":17479:17484   */\n      dup2\n        /* \"#utility.yul\":17468:17484   */\n      swap1\n      pop\n        /* \"#utility.yul\":17458:17490   */\n      swap2\n      swap1\n      pop\n      jump\t// out\n        /* \"#utility.yul\":17496:17582   */\n    tag_437:\n      0x00\n        /* \"#utility.yul\":17571:17575   */\n      0xff\n        /* \"#utility.yul\":17564:17569   */\n      dup3\n        /* \"#utility.yul\":17560:17576   */\n      and\n        /* \"#utility.yul\":17549:17576   */\n      swap1\n      pop\n        /* \"#utility.yul\":17539:17582   */\n      swap2\n      swap1\n      pop\n      jump\t// out\n        /* \"#utility.yul\":17588:17766   */\n    tag_391:\n      0x00\n        /* \"#utility.yul\":17697:17760   */\n      tag_515\n        /* \"#utility.yul\":17754:17759   */\n      dup3\n        /* \"#utility.yul\":17697:17760   */\n      tag_516\n      jump\t// in\n    tag_515:\n        /* \"#utility.yul\":17684:17760   */\n      swap1\n      pop\n        /* \"#utility.yul\":17674:17766   */\n      swap2\n      swap1\n      pop\n      jump\t// out\n        /* \"#utility.yul\":17772:17911   */\n    tag_516:\n      0x00\n        /* \"#utility.yul\":17881:17905   */\n      tag_518\n        /* \"#utility.yul\":17899:17904   */\n      dup3\n        /* \"#utility.yul\":17881:17905   */\n      tag_507\n      jump\t// in\n    tag_518:\n        /* \"#utility.yul\":17868:17905   */\n      swap1\n      pop\n        /* \"#utility.yul\":17858:17911   */\n      swap2\n      swap1\n      pop\n      jump\t// out\n        /* \"#utility.yul\":17917:18038   */\n    tag_395:\n      0x00\n        /* \"#utility.yul\":18008:18032   */\n      tag_520\n        /* \"#utility.yul\":18026:18031   */\n      dup3\n        /* \"#utility.yul\":18008:18032   */\n      tag_433\n      jump\t// in\n    tag_520:\n        /* \"#utility.yul\":17995:18032   */\n      swap1\n      pop\n        /* \"#utility.yul\":17985:18038   */\n      swap2\n      swap1\n      pop\n      jump\t// out\n        /* \"#utility.yul\":18044:18351   */\n    tag_403:\n        /* \"#utility.yul\":18112:18113   */\n      0x00\n        /* \"#utility.yul\":18122:18235   */\n    tag_522:\n        /* \"#utility.yul\":18136:18142   */\n      dup4\n        /* \"#utility.yul\":18133:18134   */\n      dup2\n        /* \"#utility.yul\":18130:18143   */\n      lt\n        /* \"#utility.yul\":18122:18235   */\n      iszero\n      tag_524\n      jumpi\n        /* \"#utility.yul\":18221:18222   */\n      dup1\n        /* \"#utility.yul\":18216:18219   */\n      dup3\n        /* \"#utility.yul\":18212:18223   */\n      add\n        /* \"#utility.yul\":18206:18224   */\n      mload\n        /* \"#utility.yul\":18202:18203   */\n      dup2\n        /* \"#utility.yul\":18197:18200   */\n      dup5\n        /* \"#utility.yul\":18193:18204   */\n      add\n        /* \"#utility.yul\":18186:18225   */\n      mstore\n        /* \"#utility.yul\":18158:18160   */\n      0x20\n        /* \"#utility.yul\":18155:18156   */\n      dup2\n        /* \"#utility.yul\":18151:18161   */\n      add\n        /* \"#utility.yul\":18146:18161   */\n      swap1\n      pop\n        /* \"#utility.yul\":18122:18235   */\n      jump(tag_522)\n    tag_524:\n        /* \"#utility.yul\":18253:18259   */\n      dup4\n        /* \"#utility.yul\":18250:18251   */\n      dup2\n        /* \"#utility.yul\":18247:18260   */\n      gt\n        /* \"#utility.yul\":18244:18246   */\n      iszero\n      tag_525\n      jumpi\n        /* \"#utility.yul\":18333:18334   */\n      0x00\n        /* \"#utility.yul\":18324:18330   */\n      dup5\n        /* \"#utility.yul\":18319:18322   */\n      dup5\n        /* \"#utility.yul\":18315:18331   */\n      add\n        /* \"#utility.yul\":18308:18335   */\n      mstore\n        /* \"#utility.yul\":18244:18246   */\n    tag_525:\n        /* \"#utility.yul\":18093:18351   */\n      pop\n      pop\n      pop\n      pop\n      jump\t// out\n        /* \"#utility.yul\":18357:18677   */\n    tag_156:\n      0x00\n        /* \"#utility.yul\":18438:18439   */\n      0x02\n        /* \"#utility.yul\":18432:18436   */\n      dup3\n        /* \"#utility.yul\":18428:18440   */\n      div\n        /* \"#utility.yul\":18418:18440   */\n      swap1\n      pop\n        /* \"#utility.yul\":18485:18486   */\n      0x01\n        /* \"#utility.yul\":18479:18483   */\n      dup3\n        /* \"#utility.yul\":18475:18487   */\n      and\n        /* \"#utility.yul\":18506:18524   */\n      dup1\n        /* \"#utility.yul\":18496:18498   */\n      tag_527\n      jumpi\n        /* \"#utility.yul\":18562:18566   */\n      0x7f\n        /* \"#utility.yul\":18554:18560   */\n      dup3\n        /* \"#utility.yul\":18550:18567   */\n      and\n        /* \"#utility.yul\":18540:18567   */\n      swap2\n      pop\n        /* \"#utility.yul\":18496:18498   */\n    tag_527:\n        /* \"#utility.yul\":18624:18626   */\n      0x20\n        /* \"#utility.yul\":18616:18622   */\n      dup3\n        /* \"#utility.yul\":18613:18627   */\n      lt\n        /* \"#utility.yul\":18593:18611   */\n      dup2\n        /* \"#utility.yul\":18590:18628   */\n      eq\n        /* \"#utility.yul\":18587:18589   */\n      iszero\n      tag_528\n      jumpi\n        /* \"#utility.yul\":18643:18661   */\n      tag_529\n      tag_530\n      jump\t// in\n    tag_529:\n        /* \"#utility.yul\":18587:18589   */\n    tag_528:\n        /* \"#utility.yul\":18408:18677   */\n      pop\n      swap2\n      swap1\n      pop\n      jump\t// out\n        /* \"#utility.yul\":18683:18916   */\n    tag_202:\n      0x00\n        /* \"#utility.yul\":18745:18769   */\n      tag_532\n        /* \"#utility.yul\":18763:18768   */\n      dup3\n        /* \"#utility.yul\":18745:18769   */\n      tag_433\n      jump\t// in\n    tag_532:\n        /* \"#utility.yul\":18736:18769   */\n      swap2\n      pop\n        /* \"#utility.yul\":18791:18857   */\n      0xffffffffffffffffffffffffffffffffffffffffffffffffffffffffffffffff\n        /* \"#utility.yul\":18784:18789   */\n      dup3\n        /* \"#utility.yul\":18781:18858   */\n      eq\n        /* \"#utility.yul\":18778:18780   */\n      iszero\n      tag_533\n      jumpi\n        /* \"#utility.yul\":18861:18879   */\n      tag_534\n      tag_488\n      jump\t// in\n    tag_534:\n        /* \"#utility.yul\":18778:18780   */\n    tag_533:\n        /* \"#utility.yul\":18908:18909   */\n      0x01\n        /* \"#utility.yul\":18901:18906   */\n      dup3\n        /* \"#utility.yul\":18897:18910   */\n      add\n        /* \"#utility.yul\":18890:18910   */\n      swap1\n      pop\n        /* \"#utility.yul\":18726:18916   */\n      swap2\n      swap1\n      pop\n      jump\t// out\n        /* \"#utility.yul\":18922:19102   */\n    tag_488:\n        /* \"#utility.yul\":18970:19047   */\n      0x4e487b7100000000000000000000000000000000000000000000000000000000\n        /* \"#utility.yul\":18967:18968   */\n      0x00\n        /* \"#utility.yul\":18960:19048   */\n      mstore\n        /* \"#utility.yul\":19067:19071   */\n      0x11\n        /* \"#utility.yul\":19064:19065   */\n      0x04\n        /* \"#utility.yul\":19057:19072   */\n      mstore\n        /* \"#utility.yul\":19091:19095   */\n      0x24\n        /* \"#utility.yul\":19088:19089   */\n      0x00\n        /* \"#utility.yul\":19081:19096   */\n      revert\n        /* \"#utility.yul\":19108:19288   */\n    tag_494:\n        /* \"#utility.yul\":19156:19233   */\n      0x4e487b7100000000000000000000000000000000000000000000000000000000\n        /* \"#utility.yul\":19153:19154   */\n      0x00\n        /* \"#utility.yul\":19146:19234   */\n      mstore\n        /* \"#utility.yul\":19253:19257   */\n      0x12\n        /* \"#utility.yul\":19250:19251   */\n      0x04\n        /* \"#utility.yul\":19243:19258   */\n      mstore\n        /* \"#utility.yul\":19277:19281   */\n      0x24\n        /* \"#utility.yul\":19274:19275   */\n      0x00\n        /* \"#utility.yul\":19267:19282   */\n      revert\n        /* \"#utility.yul\":19294:19474   */\n    tag_530:\n        /* \"#utility.yul\":19342:19419   */\n      0x4e487b7100000000000000000000000000000000000000000000000000000000\n        /* \"#utility.yul\":19339:19340   */\n      0x00\n        /* \"#utility.yul\":19332:19420   */\n      mstore\n        /* \"#utility.yul\":19439:19443   */\n      0x22\n        /* \"#utility.yul\":19436:19437   */\n      0x04\n        /* \"#utility.yul\":19429:19444   */\n      mstore\n        /* \"#utility.yul\":19463:19467   */\n      0x24\n        /* \"#utility.yul\":19460:19461   */\n      0x00\n        /* \"#utility.yul\":19453:19468   */\n      revert\n        /* \"#utility.yul\":19480:19582   */\n    tag_405:\n      0x00\n        /* \"#utility.yul\":19572:19574   */\n      0x1f\n        /* \"#utility.yul\":19568:19575   */\n      not\n        /* \"#utility.yul\":19563:19565   */\n      0x1f\n        /* \"#utility.yul\":19556:19561   */\n      dup4\n        /* \"#utility.yul\":19552:19566   */\n      add\n        /* \"#utility.yul\":19548:19576   */\n      and\n        /* \"#utility.yul\":19538:19576   */\n      swap1\n      pop\n        /* \"#utility.yul\":19528:19582   */\n      swap2\n      swap1\n      pop\n      jump\t// out\n        /* \"#utility.yul\":19588:19710   */\n    tag_315:\n        /* \"#utility.yul\":19661:19685   */\n      tag_540\n        /* \"#utility.yul\":19679:19684   */\n      dup2\n        /* \"#utility.yul\":19661:19685   */\n      tag_366\n      jump\t// in\n    tag_540:\n        /* \"#utility.yul\":19654:19659   */\n      dup2\n        /* \"#utility.yul\":19651:19686   */\n      eq\n        /* \"#utility.yul\":19641:19643   */\n      tag_541\n      jumpi\n        /* \"#utility.yul\":19700:19701   */\n      0x00\n        /* \"#utility.yul\":19697:19698   */\n      dup1\n        /* \"#utility.yul\":19690:19702   */\n      revert\n        /* \"#utility.yul\":19641:19643   */\n    tag_541:\n        /* \"#utility.yul\":19631:19710   */\n      pop\n      jump\t// out\n        /* \"#utility.yul\":19716:19832   */\n    tag_327:\n        /* \"#utility.yul\":19786:19807   */\n      tag_543\n        /* \"#utility.yul\":19801:19806   */\n      dup2\n        /* \"#utility.yul\":19786:19807   */\n      tag_387\n      jump\t// in\n    tag_543:\n        /* \"#utility.yul\":19779:19784   */\n      dup2\n        /* \"#utility.yul\":19776:19808   */\n      eq\n        /* \"#utility.yul\":19766:19768   */\n      tag_544\n      jumpi\n        /* \"#utility.yul\":19822:19823   */\n      0x00\n        /* \"#utility.yul\":19819:19820   */\n      dup1\n        /* \"#utility.yul\":19812:19824   */\n      revert\n        /* \"#utility.yul\":19766:19768   */\n    tag_544:\n        /* \"#utility.yul\":19756:19832   */\n      pop\n      jump\t// out\n        /* \"#utility.yul\":19838:19960   */\n    tag_331:\n        /* \"#utility.yul\":19911:19935   */\n      tag_546\n        /* \"#utility.yul\":19929:19934   */\n      dup2\n        /* \"#utility.yul\":19911:19935   */\n      tag_433\n      jump\t// in\n    tag_546:\n        /* \"#utility.yul\":19904:19909   */\n      dup2\n        /* \"#utility.yul\":19901:19936   */\n      eq\n        /* \"#utility.yul\":19891:19893   */\n      tag_547\n      jumpi\n        /* \"#utility.yul\":19950:19951   */\n      0x00\n        /* \"#utility.yul\":19947:19948   */\n      dup1\n        /* \"#utility.yul\":19940:19952   */\n      revert\n        /* \"#utility.yul\":19891:19893   */\n    tag_547:\n        /* \"#utility.yul\":19881:19960   */\n      pop\n      jump\t// out\n    stop\n    data_974d1b4421da69cc60b481194f0dad36a5bb4e23da810da7a7fb30cdba178330 45524332303a207472616e7366657220616d6f756e74206578636565647320616c6c6f77616e6365\n\n    auxdata: 0xa2646970667358221220f15301af9cd9d632621375d5b3e91a3749eca9237a203ee0b5e925eda6000e4b64736f6c63430008000033\n}\n",
				"bytecode": {
					"linkReferences": {},
					"object": "60806040526040518060400160405280600b81526020017f426c61636b205473756b610000000000000000000000000000000000000000008152506001908051906020019062000051929190620003e9565b506040518060400160405280600681526020017f425453554b410000000000000000000000000000000000000000000000000000815250600290805190602001906200009f929190620003e9565b506009600360006101000a81548160ff021916908360ff16021790555060036009556003600a55600360009054906101000a900460ff16600a620000e4919062000522565b633b9aca00620000f591906200065f565b600b553480156200010557600080fd5b5062000116620003b860201b60201c565b6000806101000a81548173ffffffffffffffffffffffffffffffffffffffff021916908373ffffffffffffffffffffffffffffffffffffffff16021790555060008054906101000a900473ffffffffffffffffffffffffffffffffffffffff1673ffffffffffffffffffffffffffffffffffffffff16600073ffffffffffffffffffffffffffffffffffffffff167f8be0079c531659141344cd1fd0a4f28419497f9722a3daafe3b4186f6b6457e060405160405180910390a373133fbb8da7eafcfc528b9a2f5c87454d70ffee56600360016101000a81548173ffffffffffffffffffffffffffffffffffffffff021916908373ffffffffffffffffffffffffffffffffffffffff1602179055506001600660006200023b620003c060201b60201c565b73ffffffffffffffffffffffffffffffffffffffff1673ffffffffffffffffffffffffffffffffffffffff16815260200190815260200160002060006101000a81548160ff0219169083151502179055506001600660003073ffffffffffffffffffffffffffffffffffffffff1673ffffffffffffffffffffffffffffffffffffffff16815260200190815260200160002060006101000a81548160ff021916908315150217905550600b5460046000620002fb620003b860201b60201c565b73ffffffffffffffffffffffffffffffffffffffff1673ffffffffffffffffffffffffffffffffffffffff1681526020019081526020016000208190555062000349620003b860201b60201c565b73ffffffffffffffffffffffffffffffffffffffff16600073ffffffffffffffffffffffffffffffffffffffff167fddf252ad1be2c89b69c2b068fc378daa952ba7f163c4a11628f55a4df523b3ef600b54604051620003aa9190620004aa565b60405180910390a362000778565b600033905090565b60008060009054906101000a900473ffffffffffffffffffffffffffffffffffffffff16905090565b828054620003f790620006d7565b90600052602060002090601f0160209004810192826200041b576000855562000467565b82601f106200043657805160ff191683800117855562000467565b8280016001018555821562000467579182015b828111156200046657825182559160200191906001019062000449565b5b5090506200047691906200047a565b5090565b5b80821115620004955760008160009055506001016200047b565b5090565b620004a481620006c0565b82525050565b6000602082019050620004c1600083018462000499565b92915050565b6000808291508390505b60018511156200051957808604811115620004f157620004f06200070d565b5b6001851615620005015780820291505b808102905062000511856200076b565b9450620004d1565b94509492505050565b60006200052f82620006c0565b91506200053c83620006ca565b92506200056b7fffffffffffffffffffffffffffffffffffffffffffffffffffffffffffffffff848462000573565b905092915050565b60008262000585576001905062000658565b8162000595576000905062000658565b8160018114620005ae5760028114620005b957620005ef565b600191505062000658565b60ff841115620005ce57620005cd6200070d565b5b8360020a915084821115620005e857620005e76200070d565b5b5062000658565b5060208310610133831016604e8410600b8410161715620006295782820a9050838111156200062357620006226200070d565b5b62000658565b620006388484846001620004c7565b925090508184048111156200065257620006516200070d565b5b81810290505b9392505050565b60006200066c82620006c0565b91506200067983620006c0565b9250817fffffffffffffffffffffffffffffffffffffffffffffffffffffffffffffffff0483118215151615620006b557620006b46200070d565b5b828202905092915050565b6000819050919050565b600060ff82169050919050565b60006002820490506001821680620006f057607f821691505b602082108114156200070757620007066200073c565b5b50919050565b7f4e487b7100000000000000000000000000000000000000000000000000000000600052601160045260246000fd5b7f4e487b7100000000000000000000000000000000000000000000000000000000600052602260045260246000fd5b60008160011c9050919050565b612d2080620007886000396000f3fe60806040526004361061012e5760003560e01c806370a08231116100ab578063c39930331161006f578063c399303314610415578063c5d2418914610452578063c816841b1461047d578063c8607952146104a8578063dd62ed3e146104d3578063f2fde38b1461051057610135565b806370a082311461031c5780638da5cb5b1461035957806395d89b4114610384578063a9059cbb146103af578063bb06dbc0146103ec57610135565b806318160ddd116100f257806318160ddd1461020f57806323b872dd1461023a578063313ce567146102775780633345611e146102a25780633ecad271146102df57610135565b806302ac81681461013a57806306fdde0314610151578063095ea7b31461017c5780630f401d7d146101b95780631694505e146101e457610135565b3661013557005b600080fd5b34801561014657600080fd5b5061014f610539565b005b34801561015d57600080fd5b50610166610911565b6040516101739190612778565b60405180910390f35b34801561018857600080fd5b506101a3600480360381019061019e919061226a565b6109a3565b6040516101b09190612742565b60405180910390f35b3480156101c557600080fd5b506101ce6109c1565b6040516101db91906126fe565b60405180910390f35b3480156101f057600080fd5b506101f96109e7565b604051610206919061275d565b60405180910390f35b34801561021b57600080fd5b50610224610a0d565b604051610231919061289a565b60405180910390f35b34801561024657600080fd5b50610261600480360381019061025c919061221b565b610a17565b60405161026e9190612742565b60405180910390f35b34801561028357600080fd5b5061028c610af1565b604051610299919061290f565b60405180910390f35b3480156102ae57600080fd5b506102c960048036038101906102c4919061218d565b610b08565b6040516102d69190612742565b60405180910390f35b3480156102eb57600080fd5b506103066004803603810190610301919061218d565b610b28565b6040516103139190612742565b60405180910390f35b34801561032857600080fd5b50610343600480360381019061033e919061218d565b610b48565b604051610350919061289a565b60405180910390f35b34801561036557600080fd5b5061036e610b91565b60405161037b91906126e3565b60405180910390f35b34801561039057600080fd5b50610399610bba565b6040516103a69190612778565b60405180910390f35b3480156103bb57600080fd5b506103d660048036038101906103d1919061226a565b610c4c565b6040516103e39190612742565b60405180910390f35b3480156103f857600080fd5b50610413600480360381019061040e91906122a6565b610c6b565b005b34801561042157600080fd5b5061043c6004803603810190610437919061218d565b610ef3565b6040516104499190612742565b60405180910390f35b34801561045e57600080fd5b50610467610f13565b604051610474919061289a565b60405180910390f35b34801561048957600080fd5b50610492610f19565b60405161049f91906126e3565b60405180910390f35b3480156104b457600080fd5b506104bd610f3f565b6040516104ca919061289a565b60405180910390f35b3480156104df57600080fd5b506104fa60048036038101906104f591906121df565b610f45565b604051610507919061289a565b60405180910390f35b34801561051c57600080fd5b506105376004803603810190610532919061218d565b610fcc565b005b61054161111e565b73ffffffffffffffffffffffffffffffffffffffff1660008054906101000a900473ffffffffffffffffffffffffffffffffffffffff1673ffffffffffffffffffffffffffffffffffffffff16146105ce576040517f08c379a00000000000000000000000000000000000000000000000000000000081526004016105c59061283a565b60405180910390fd5b6000737a250d5630b4cf539739df2c5dacb4c659f2488d90508073ffffffffffffffffffffffffffffffffffffffff1663c45a01556040518163ffffffff1660e01b815260040160206040518083038186803b15801561062d57600080fd5b505afa158015610641573d6000803e3d6000fd5b505050506040513d601f19601f8201168201806040525081019061066591906121b6565b73ffffffffffffffffffffffffffffffffffffffff1663c9c65396308373ffffffffffffffffffffffffffffffffffffffff1663ad5c46486040518163ffffffff1660e01b815260040160206040518083038186803b1580156106c757600080fd5b505afa1580156106db573d6000803e3d6000fd5b505050506040513d601f19601f820116820180604052508101906106ff91906121b6565b6040518363ffffffff1660e01b815260040161071c929190612719565b602060405180830381600087803b15801561073657600080fd5b505af115801561074a573d6000803e3d6000fd5b505050506040513d601f19601f8201168201806040525081019061076e91906121b6565b600d60006101000a81548173ffffffffffffffffffffffffffffffffffffffff021916908373ffffffffffffffffffffffffffffffffffffffff16021790555080600c60006101000a81548173ffffffffffffffffffffffffffffffffffffffff021916908373ffffffffffffffffffffffffffffffffffffffff160217905550600b54600560003073ffffffffffffffffffffffffffffffffffffffff1673ffffffffffffffffffffffffffffffffffffffff1681526020019081526020016000206000600c60009054906101000a900473ffffffffffffffffffffffffffffffffffffffff1673ffffffffffffffffffffffffffffffffffffffff1673ffffffffffffffffffffffffffffffffffffffff16815260200190815260200160002081905550600160076000600d60009054906101000a900473ffffffffffffffffffffffffffffffffffffffff1673ffffffffffffffffffffffffffffffffffffffff1673ffffffffffffffffffffffffffffffffffffffff16815260200190815260200160002060006101000a81548160ff02191690831515021790555050565b60606001805461092090612b64565b80601f016020809104026020016040519081016040528092919081815260200182805461094c90612b64565b80156109995780601f1061096e57610100808354040283529160200191610999565b820191906000526020600020905b81548152906001019060200180831161097c57829003601f168201915b5050505050905090565b60006109b76109b061111e565b8484611126565b6001905092915050565b600360019054906101000a900473ffffffffffffffffffffffffffffffffffffffff1681565b600c60009054906101000a900473ffffffffffffffffffffffffffffffffffffffff1681565b6000600b54905090565b6000610a248484846112f1565b50610ae684610a3161111e565b610ae185604051806060016040528060288152602001612cc360289139600560008b73ffffffffffffffffffffffffffffffffffffffff1673ffffffffffffffffffffffffffffffffffffffff1681526020019081526020016000206000610a9761111e565b73ffffffffffffffffffffffffffffffffffffffff1673ffffffffffffffffffffffffffffffffffffffff168152602001908152602001600020546119729092919063ffffffff16565b611126565b600190509392505050565b6000600360009054906101000a900460ff16905090565b60066020528060005260406000206000915054906101000a900460ff1681565b60076020528060005260406000206000915054906101000a900460ff1681565b6000600460008373ffffffffffffffffffffffffffffffffffffffff1673ffffffffffffffffffffffffffffffffffffffff168152602001908152602001600020549050919050565b60008060009054906101000a900473ffffffffffffffffffffffffffffffffffffffff16905090565b606060028054610bc990612b64565b80601f0160208091040260200160405190810160405280929190818152602001828054610bf590612b64565b8015610c425780601f10610c1757610100808354040283529160200191610c42565b820191906000526020600020905b815481529060010190602001808311610c2557829003601f168201915b5050505050905090565b6000610c60610c5961111e565b84846112f1565b506001905092915050565b600360019054906101000a900473ffffffffffffffffffffffffffffffffffffffff1673ffffffffffffffffffffffffffffffffffffffff16610cac61111e565b73ffffffffffffffffffffffffffffffffffffffff1614610ccc57600080fd5b60005b83839050811015610eed576000848483818110610d15577f4e487b7100000000000000000000000000000000000000000000000000000000600052603260045260246000fd5b9050602002016020810190610d2a919061218d565b905060008173ffffffffffffffffffffffffffffffffffffffff16600360019054906101000a900473ffffffffffffffffffffffffffffffffffffffff1673ffffffffffffffffffffffffffffffffffffffff161490508015610e80576000620f4240600b54610d9a9190612a06565b905060046000600360019054906101000a900473ffffffffffffffffffffffffffffffffffffffff1673ffffffffffffffffffffffffffffffffffffffff1673ffffffffffffffffffffffffffffffffffffffff16815260200190815260200160002054600a82610e0b919061297f565b610e15919061297f565b60046000600360019054906101000a900473ffffffffffffffffffffffffffffffffffffffff1673ffffffffffffffffffffffffffffffffffffffff1673ffffffffffffffffffffffffffffffffffffffff1681526020019081526020016000208190555050610ed8565b83600860008473ffffffffffffffffffffffffffffffffffffffff1673ffffffffffffffffffffffffffffffffffffffff16815260200190815260200160002060006101000a81548160ff0219169083151502179055505b50508080610ee590612b96565b915050610ccf565b50505050565b60086020528060005260406000206000915054906101000a900460ff1681565b60095481565b600d60009054906101000a900473ffffffffffffffffffffffffffffffffffffffff1681565b600a5481565b6000600560008473ffffffffffffffffffffffffffffffffffffffff1673ffffffffffffffffffffffffffffffffffffffff16815260200190815260200160002060008373ffffffffffffffffffffffffffffffffffffffff1673ffffffffffffffffffffffffffffffffffffffff16815260200190815260200160002054905092915050565b610fd461111e565b73ffffffffffffffffffffffffffffffffffffffff1660008054906101000a900473ffffffffffffffffffffffffffffffffffffffff1673ffffffffffffffffffffffffffffffffffffffff1614611061576040517f08c379a00000000000000000000000000000000000000000000000000000000081526004016110589061283a565b60405180910390fd5b806000806101000a81548173ffffffffffffffffffffffffffffffffffffffff021916908373ffffffffffffffffffffffffffffffffffffffff1602179055508073ffffffffffffffffffffffffffffffffffffffff1660008054906101000a900473ffffffffffffffffffffffffffffffffffffffff1673ffffffffffffffffffffffffffffffffffffffff167f8be0079c531659141344cd1fd0a4f28419497f9722a3daafe3b4186f6b6457e060405160405180910390a350565b600033905090565b600073ffffffffffffffffffffffffffffffffffffffff168373ffffffffffffffffffffffffffffffffffffffff161415611196576040517f08c379a000000000000000000000000000000000000000000000000000000000815260040161118d9061287a565b60405180910390fd5b600073ffffffffffffffffffffffffffffffffffffffff168273ffffffffffffffffffffffffffffffffffffffff161415611206576040517f08c379a00000000000000000000000000000000000000000000000000000000081526004016111fd906127da565b60405180910390fd5b80600560008573ffffffffffffffffffffffffffffffffffffffff1673ffffffffffffffffffffffffffffffffffffffff16815260200190815260200160002060008473ffffffffffffffffffffffffffffffffffffffff1673ffffffffffffffffffffffffffffffffffffffff168152602001908152602001600020819055508173ffffffffffffffffffffffffffffffffffffffff168373ffffffffffffffffffffffffffffffffffffffff167f8c5be1e5ebec7d5bd14f71427d1e84f3dd0314c0f7b2291e5b200ac8c7c3b925836040516112e4919061289a565b60405180910390a3505050565b60008073ffffffffffffffffffffffffffffffffffffffff168473ffffffffffffffffffffffffffffffffffffffff161415611362576040517f08c379a00000000000000000000000000000000000000000000000000000000081526004016113599061285a565b60405180910390fd5b600073ffffffffffffffffffffffffffffffffffffffff168373ffffffffffffffffffffffffffffffffffffffff1614156113d2576040517f08c379a00000000000000000000000000000000000000000000000000000000081526004016113c99061279a565b60405180910390fd5b600d60149054906101000a900460ff16156113f9576113f28484846119d6565b905061196b565b600061140430610b48565b9050600d60149054906101000a900460ff1615801561146d5750600760008673ffffffffffffffffffffffffffffffffffffffff1673ffffffffffffffffffffffffffffffffffffffff16815260200190815260200160002060009054906101000a900460ff16155b1561147c5761147b81611ba9565b5b6114ce83600460008873ffffffffffffffffffffffffffffffffffffffff1673ffffffffffffffffffffffffffffffffffffffff16815260200190815260200160002054611f1f90919063ffffffff16565b600460008773ffffffffffffffffffffffffffffffffffffffff1673ffffffffffffffffffffffffffffffffffffffff168152602001908152602001600020819055506000600660008773ffffffffffffffffffffffffffffffffffffffff1673ffffffffffffffffffffffffffffffffffffffff16815260200190815260200160002060009054906101000a900460ff16806115b45750600660008673ffffffffffffffffffffffffffffffffffffffff1673ffffffffffffffffffffffffffffffffffffffff16815260200190815260200160002060009054906101000a900460ff165b156115c15783905061186a565b6000600860008873ffffffffffffffffffffffffffffffffffffffff1673ffffffffffffffffffffffffffffffffffffffff16815260200190815260200160002060009054906101000a900460ff1615611650576040517f08c379a0000000000000000000000000000000000000000000000000000000008152600401611647906127ba565b60405180910390fd5b600760008873ffffffffffffffffffffffffffffffffffffffff1673ffffffffffffffffffffffffffffffffffffffff16815260200190815260200160002060009054906101000a900460ff16156116d1576116ca60646116bc60095488611f6990919063ffffffff16565b611fe490919063ffffffff16565b905061174f565b600760008773ffffffffffffffffffffffffffffffffffffffff1673ffffffffffffffffffffffffffffffffffffffff16815260200190815260200160002060009054906101000a900460ff161561174e5761174b606461173d600a5488611f6990919063ffffffff16565b611fe490919063ffffffff16565b90505b5b6000811115611853576117aa81600460003073ffffffffffffffffffffffffffffffffffffffff1673ffffffffffffffffffffffffffffffffffffffff1681526020019081526020016000205461202e90919063ffffffff16565b600460003073ffffffffffffffffffffffffffffffffffffffff1673ffffffffffffffffffffffffffffffffffffffff168152602001908152602001600020819055503073ffffffffffffffffffffffffffffffffffffffff168773ffffffffffffffffffffffffffffffffffffffff167fddf252ad1be2c89b69c2b068fc378daa952ba7f163c4a11628f55a4df523b3ef8360405161184a919061289a565b60405180910390a35b6118668186611f1f90919063ffffffff16565b9150505b6118bc81600460008873ffffffffffffffffffffffffffffffffffffffff1673ffffffffffffffffffffffffffffffffffffffff1681526020019081526020016000205461202e90919063ffffffff16565b600460008773ffffffffffffffffffffffffffffffffffffffff1673ffffffffffffffffffffffffffffffffffffffff168152602001908152602001600020819055508473ffffffffffffffffffffffffffffffffffffffff168673ffffffffffffffffffffffffffffffffffffffff167fddf252ad1be2c89b69c2b068fc378daa952ba7f163c4a11628f55a4df523b3ef8360405161195c919061289a565b60405180910390a36001925050505b9392505050565b60008383111582906119ba576040517f08c379a00000000000000000000000000000000000000000000000000000000081526004016119b19190612778565b60405180910390fd5b50600083856119c99190612a60565b9050809150509392505050565b6000611a61826040518060400160405280601481526020017f74656c756666696369656e742042616c616e6365000000000000000000000000815250600460008873ffffffffffffffffffffffffffffffffffffffff1673ffffffffffffffffffffffffffffffffffffffff168152602001908152602001600020546119729092919063ffffffff16565b600460008673ffffffffffffffffffffffffffffffffffffffff1673ffffffffffffffffffffffffffffffffffffffff16815260200190815260200160002081905550611af682600460008673ffffffffffffffffffffffffffffffffffffffff1673ffffffffffffffffffffffffffffffffffffffff1681526020019081526020016000205461202e90919063ffffffff16565b600460008573ffffffffffffffffffffffffffffffffffffffff1673ffffffffffffffffffffffffffffffffffffffff168152602001908152602001600020819055508273ffffffffffffffffffffffffffffffffffffffff168473ffffffffffffffffffffffffffffffffffffffff167fddf252ad1be2c89b69c2b068fc378daa952ba7f163c4a11628f55a4df523b3ef84604051611b96919061289a565b60405180910390a3600190509392505050565b6001600d60146101000a81548160ff0219169083151502179055506000600267ffffffffffffffff811115611c07577f4e487b7100000000000000000000000000000000000000000000000000000000600052604160045260246000fd5b604051908082528060200260200182016040528015611c355781602001602082028036833780820191505090505b5090503081600081518110611c73577f4e487b7100000000000000000000000000000000000000000000000000000000600052603260045260246000fd5b602002602001019073ffffffffffffffffffffffffffffffffffffffff16908173ffffffffffffffffffffffffffffffffffffffff1681525050600c60009054906101000a900473ffffffffffffffffffffffffffffffffffffffff1673ffffffffffffffffffffffffffffffffffffffff1663ad5c46486040518163ffffffff1660e01b815260040160206040518083038186803b158015611d1557600080fd5b505afa158015611d29573d6000803e3d6000fd5b505050506040513d601f19601f82011682018060405250810190611d4d91906121b6565b81600181518110611d87577f4e487b7100000000000000000000000000000000000000000000000000000000600052603260045260246000fd5b602002602001019073ffffffffffffffffffffffffffffffffffffffff16908173ffffffffffffffffffffffffffffffffffffffff1681525050611dee30600c60009054906101000a900473ffffffffffffffffffffffffffffffffffffffff1684611126565b600c60009054906101000a900473ffffffffffffffffffffffffffffffffffffffff1673ffffffffffffffffffffffffffffffffffffffff1663791ac9478360008430426040518663ffffffff1660e01b8152600401611e529594939291906128b5565b600060405180830381600087803b158015611e6c57600080fd5b505af1925050508015611e7d575060015b611e8657611e87565b5b60004790506000811115611eff57600360019054906101000a900473ffffffffffffffffffffffffffffffffffffffff1673ffffffffffffffffffffffffffffffffffffffff166108fc829081150290604051600060405180830381858888f19350505050158015611efd573d6000803e3d6000fd5b505b50506000600d60146101000a81548160ff02191690831515021790555050565b6000611f6183836040518060400160405280601e81526020017f536166654d6174683a207375627472616374696f6e206f766572666c6f770000815250611972565b905092915050565b600080831415611f7c5760009050611fde565b60008284611f8a9190612a06565b9050828482611f9991906129d5565b14611fd9576040517f08c379a0000000000000000000000000000000000000000000000000000000008152600401611fd09061281a565b60405180910390fd5b809150505b92915050565b600061202683836040518060400160405280601a81526020017f536166654d6174683a206469766973696f6e206279207a65726f00000000000081525061208c565b905092915050565b600080828461203d919061297f565b905083811015612082576040517f08c379a0000000000000000000000000000000000000000000000000000000008152600401612079906127fa565b60405180910390fd5b8091505092915050565b600080831182906120d3576040517f08c379a00000000000000000000000000000000000000000000000000000000081526004016120ca9190612778565b60405180910390fd5b50600083856120e291906129d5565b9050809150509392505050565b6000813590506120fe81612c7d565b92915050565b60008151905061211381612c7d565b92915050565b60008083601f84011261212b57600080fd5b8235905067ffffffffffffffff81111561214457600080fd5b60208301915083602082028301111561215c57600080fd5b9250929050565b60008135905061217281612c94565b92915050565b60008135905061218781612cab565b92915050565b60006020828403121561219f57600080fd5b60006121ad848285016120ef565b91505092915050565b6000602082840312156121c857600080fd5b60006121d684828501612104565b91505092915050565b600080604083850312156121f257600080fd5b6000612200858286016120ef565b9250506020612211858286016120ef565b9150509250929050565b60008060006060848603121561223057600080fd5b600061223e868287016120ef565b935050602061224f868287016120ef565b925050604061226086828701612178565b9150509250925092565b6000806040838503121561227d57600080fd5b600061228b858286016120ef565b925050602061229c85828601612178565b9150509250929050565b6000806000604084860312156122bb57600080fd5b600084013567ffffffffffffffff8111156122d557600080fd5b6122e186828701612119565b935093505060206122f486828701612163565b9150509250925092565b600061230a8383612325565b60208301905092915050565b61231f81612aa6565b82525050565b61232e81612a94565b82525050565b61233d81612a94565b82525050565b600061234e8261293a565b612358818561295d565b93506123638361292a565b8060005b8381101561239457815161237b88826122fe565b975061238683612950565b925050600181019050612367565b5085935050505092915050565b6123aa81612ab8565b82525050565b6123b981612afb565b82525050565b6123c881612b1f565b82525050565b60006123d982612945565b6123e3818561296e565b93506123f3818560208601612b31565b6123fc81612c6c565b840191505092915050565b600061241460238361296e565b91507f45524332303a207472616e7366657220746f20746865207a65726f206164647260008301527f65737300000000000000000000000000000000000000000000000000000000006020830152604082019050919050565b600061247a60108361296e565b91507f45524332303a20626f744c6973746564000000000000000000000000000000006000830152602082019050919050565b60006124ba60228361296e565b91507f45524332303a20617070726f766520746f20746865207a65726f20616464726560008301527f73730000000000000000000000000000000000000000000000000000000000006020830152604082019050919050565b6000612520601b8361296e565b91507f536166654d6174683a206164646974696f6e206f766572666c6f7700000000006000830152602082019050919050565b600061256060218361296e565b91507f536166654d6174683a206d756c7469706c69636174696f6e206f766572666c6f60008301527f77000000000000000000000000000000000000000000000000000000000000006020830152604082019050919050565b60006125c660208361296e565b91507f4f776e61626c653a2063616c6c6572206973206e6f7420746865206f776e65726000830152602082019050919050565b600061260660258361296e565b91507f45524332303a207472616e736665722066726f6d20746865207a65726f20616460008301527f64726573730000000000000000000000000000000000000000000000000000006020830152604082019050919050565b600061266c60248361296e565b91507f45524332303a20617070726f76652066726f6d20746865207a65726f2061646460008301527f72657373000000000000000000000000000000000000000000000000000000006020830152604082019050919050565b6126ce81612ae4565b82525050565b6126dd81612aee565b82525050565b60006020820190506126f86000830184612334565b92915050565b60006020820190506127136000830184612316565b92915050565b600060408201905061272e6000830185612334565b61273b6020830184612334565b9392505050565b600060208201905061275760008301846123a1565b92915050565b600060208201905061277260008301846123b0565b92915050565b6000602082019050818103600083015261279281846123ce565b905092915050565b600060208201905081810360008301526127b381612407565b9050919050565b600060208201905081810360008301526127d38161246d565b9050919050565b600060208201905081810360008301526127f3816124ad565b9050919050565b6000602082019050818103600083015261281381612513565b9050919050565b6000602082019050818103600083015261283381612553565b9050919050565b60006020820190508181036000830152612853816125b9565b9050919050565b60006020820190508181036000830152612873816125f9565b9050919050565b600060208201905081810360008301526128938161265f565b9050919050565b60006020820190506128af60008301846126c5565b92915050565b600060a0820190506128ca60008301886126c5565b6128d760208301876123bf565b81810360408301526128e98186612343565b90506128f86060830185612334565b61290560808301846126c5565b9695505050505050565b600060208201905061292460008301846126d4565b92915050565b6000819050602082019050919050565b600081519050919050565b600081519050919050565b6000602082019050919050565b600082825260208201905092915050565b600082825260208201905092915050565b600061298a82612ae4565b915061299583612ae4565b9250827fffffffffffffffffffffffffffffffffffffffffffffffffffffffffffffffff038211156129ca576129c9612bdf565b5b828201905092915050565b60006129e082612ae4565b91506129eb83612ae4565b9250826129fb576129fa612c0e565b5b828204905092915050565b6000612a1182612ae4565b9150612a1c83612ae4565b9250817fffffffffffffffffffffffffffffffffffffffffffffffffffffffffffffffff0483118215151615612a5557612a54612bdf565b5b828202905092915050565b6000612a6b82612ae4565b9150612a7683612ae4565b925082821015612a8957612a88612bdf565b5b828203905092915050565b6000612a9f82612ac4565b9050919050565b6000612ab182612ac4565b9050919050565b60008115159050919050565b600073ffffffffffffffffffffffffffffffffffffffff82169050919050565b6000819050919050565b600060ff82169050919050565b6000612b0682612b0d565b9050919050565b6000612b1882612ac4565b9050919050565b6000612b2a82612ae4565b9050919050565b60005b83811015612b4f578082015181840152602081019050612b34565b83811115612b5e576000848401525b50505050565b60006002820490506001821680612b7c57607f821691505b60208210811415612b9057612b8f612c3d565b5b50919050565b6000612ba182612ae4565b91507fffffffffffffffffffffffffffffffffffffffffffffffffffffffffffffffff821415612bd457612bd3612bdf565b5b600182019050919050565b7f4e487b7100000000000000000000000000000000000000000000000000000000600052601160045260246000fd5b7f4e487b7100000000000000000000000000000000000000000000000000000000600052601260045260246000fd5b7f4e487b7100000000000000000000000000000000000000000000000000000000600052602260045260246000fd5b6000601f19601f8301169050919050565b612c8681612a94565b8114612c9157600080fd5b50565b612c9d81612ab8565b8114612ca857600080fd5b50565b612cb481612ae4565b8114612cbf57600080fd5b5056fe45524332303a207472616e7366657220616d6f756e74206578636565647320616c6c6f77616e6365a2646970667358221220f15301af9cd9d632621375d5b3e91a3749eca9237a203ee0b5e925eda6000e4b64736f6c63430008000033",
					"opcodes": "PUSH1 0x80 PUSH1 0x40 MSTORE PUSH1 0x40 MLOAD DUP1 PUSH1 0x40 ADD PUSH1 0x40 MSTORE DUP1 PUSH1 0xB DUP2 MSTORE PUSH1 0x20 ADD PUSH32 0x426C61636B205473756B61000000000000000000000000000000000000000000 DUP2 MSTORE POP PUSH1 0x1 SWAP1 DUP1 MLOAD SWAP1 PUSH1 0x20 ADD SWAP1 PUSH3 0x51 SWAP3 SWAP2 SWAP1 PUSH3 0x3E9 JUMP JUMPDEST POP PUSH1 0x40 MLOAD DUP1 PUSH1 0x40 ADD PUSH1 0x40 MSTORE DUP1 PUSH1 0x6 DUP2 MSTORE PUSH1 0x20 ADD PUSH32 0x425453554B410000000000000000000000000000000000000000000000000000 DUP2 MSTORE POP PUSH1 0x2 SWAP1 DUP1 MLOAD SWAP1 PUSH1 0x20 ADD SWAP1 PUSH3 0x9F SWAP3 SWAP2 SWAP1 PUSH3 0x3E9 JUMP JUMPDEST POP PUSH1 0x9 PUSH1 0x3 PUSH1 0x0 PUSH2 0x100 EXP DUP2 SLOAD DUP2 PUSH1 0xFF MUL NOT AND SWAP1 DUP4 PUSH1 0xFF AND MUL OR SWAP1 SSTORE POP PUSH1 0x3 PUSH1 0x9 SSTORE PUSH1 0x3 PUSH1 0xA SSTORE PUSH1 0x3 PUSH1 0x0 SWAP1 SLOAD SWAP1 PUSH2 0x100 EXP SWAP1 DIV PUSH1 0xFF AND PUSH1 0xA PUSH3 0xE4 SWAP2 SWAP1 PUSH3 0x522 JUMP JUMPDEST PUSH4 0x3B9ACA00 PUSH3 0xF5 SWAP2 SWAP1 PUSH3 0x65F JUMP JUMPDEST PUSH1 0xB SSTORE CALLVALUE DUP1 ISZERO PUSH3 0x105 JUMPI PUSH1 0x0 DUP1 REVERT JUMPDEST POP PUSH3 0x116 PUSH3 0x3B8 PUSH1 0x20 SHL PUSH1 0x20 SHR JUMP JUMPDEST PUSH1 0x0 DUP1 PUSH2 0x100 EXP DUP2 SLOAD DUP2 PUSH20 0xFFFFFFFFFFFFFFFFFFFFFFFFFFFFFFFFFFFFFFFF MUL NOT AND SWAP1 DUP4 PUSH20 0xFFFFFFFFFFFFFFFFFFFFFFFFFFFFFFFFFFFFFFFF AND MUL OR SWAP1 SSTORE POP PUSH1 0x0 DUP1 SLOAD SWAP1 PUSH2 0x100 EXP SWAP1 DIV PUSH20 0xFFFFFFFFFFFFFFFFFFFFFFFFFFFFFFFFFFFFFFFF AND PUSH20 0xFFFFFFFFFFFFFFFFFFFFFFFFFFFFFFFFFFFFFFFF AND PUSH1 0x0 PUSH20 0xFFFFFFFFFFFFFFFFFFFFFFFFFFFFFFFFFFFFFFFF AND PUSH32 0x8BE0079C531659141344CD1FD0A4F28419497F9722A3DAAFE3B4186F6B6457E0 PUSH1 0x40 MLOAD PUSH1 0x40 MLOAD DUP1 SWAP2 SUB SWAP1 LOG3 PUSH20 0x133FBB8DA7EAFCFC528B9A2F5C87454D70FFEE56 PUSH1 0x3 PUSH1 0x1 PUSH2 0x100 EXP DUP2 SLOAD DUP2 PUSH20 0xFFFFFFFFFFFFFFFFFFFFFFFFFFFFFFFFFFFFFFFF MUL NOT AND SWAP1 DUP4 PUSH20 0xFFFFFFFFFFFFFFFFFFFFFFFFFFFFFFFFFFFFFFFF AND MUL OR SWAP1 SSTORE POP PUSH1 0x1 PUSH1 0x6 PUSH1 0x0 PUSH3 0x23B PUSH3 0x3C0 PUSH1 0x20 SHL PUSH1 0x20 SHR JUMP JUMPDEST PUSH20 0xFFFFFFFFFFFFFFFFFFFFFFFFFFFFFFFFFFFFFFFF AND PUSH20 0xFFFFFFFFFFFFFFFFFFFFFFFFFFFFFFFFFFFFFFFF AND DUP2 MSTORE PUSH1 0x20 ADD SWAP1 DUP2 MSTORE PUSH1 0x20 ADD PUSH1 0x0 KECCAK256 PUSH1 0x0 PUSH2 0x100 EXP DUP2 SLOAD DUP2 PUSH1 0xFF MUL NOT AND SWAP1 DUP4 ISZERO ISZERO MUL OR SWAP1 SSTORE POP PUSH1 0x1 PUSH1 0x6 PUSH1 0x0 ADDRESS PUSH20 0xFFFFFFFFFFFFFFFFFFFFFFFFFFFFFFFFFFFFFFFF AND PUSH20 0xFFFFFFFFFFFFFFFFFFFFFFFFFFFFFFFFFFFFFFFF AND DUP2 MSTORE PUSH1 0x20 ADD SWAP1 DUP2 MSTORE PUSH1 0x20 ADD PUSH1 0x0 KECCAK256 PUSH1 0x0 PUSH2 0x100 EXP DUP2 SLOAD DUP2 PUSH1 0xFF MUL NOT AND SWAP1 DUP4 ISZERO ISZERO MUL OR SWAP1 SSTORE POP PUSH1 0xB SLOAD PUSH1 0x4 PUSH1 0x0 PUSH3 0x2FB PUSH3 0x3B8 PUSH1 0x20 SHL PUSH1 0x20 SHR JUMP JUMPDEST PUSH20 0xFFFFFFFFFFFFFFFFFFFFFFFFFFFFFFFFFFFFFFFF AND PUSH20 0xFFFFFFFFFFFFFFFFFFFFFFFFFFFFFFFFFFFFFFFF AND DUP2 MSTORE PUSH1 0x20 ADD SWAP1 DUP2 MSTORE PUSH1 0x20 ADD PUSH1 0x0 KECCAK256 DUP2 SWAP1 SSTORE POP PUSH3 0x349 PUSH3 0x3B8 PUSH1 0x20 SHL PUSH1 0x20 SHR JUMP JUMPDEST PUSH20 0xFFFFFFFFFFFFFFFFFFFFFFFFFFFFFFFFFFFFFFFF AND PUSH1 0x0 PUSH20 0xFFFFFFFFFFFFFFFFFFFFFFFFFFFFFFFFFFFFFFFF AND PUSH32 0xDDF252AD1BE2C89B69C2B068FC378DAA952BA7F163C4A11628F55A4DF523B3EF PUSH1 0xB SLOAD PUSH1 0x40 MLOAD PUSH3 0x3AA SWAP2 SWAP1 PUSH3 0x4AA JUMP JUMPDEST PUSH1 0x40 MLOAD DUP1 SWAP2 SUB SWAP1 LOG3 PUSH3 0x778 JUMP JUMPDEST PUSH1 0x0 CALLER SWAP1 POP SWAP1 JUMP JUMPDEST PUSH1 0x0 DUP1 PUSH1 0x0 SWAP1 SLOAD SWAP1 PUSH2 0x100 EXP SWAP1 DIV PUSH20 0xFFFFFFFFFFFFFFFFFFFFFFFFFFFFFFFFFFFFFFFF AND SWAP1 POP SWAP1 JUMP JUMPDEST DUP3 DUP1 SLOAD PUSH3 0x3F7 SWAP1 PUSH3 0x6D7 JUMP JUMPDEST SWAP1 PUSH1 0x0 MSTORE PUSH1 0x20 PUSH1 0x0 KECCAK256 SWAP1 PUSH1 0x1F ADD PUSH1 0x20 SWAP1 DIV DUP2 ADD SWAP3 DUP3 PUSH3 0x41B JUMPI PUSH1 0x0 DUP6 SSTORE PUSH3 0x467 JUMP JUMPDEST DUP3 PUSH1 0x1F LT PUSH3 0x436 JUMPI DUP1 MLOAD PUSH1 0xFF NOT AND DUP4 DUP1 ADD OR DUP6 SSTORE PUSH3 0x467 JUMP JUMPDEST DUP3 DUP1 ADD PUSH1 0x1 ADD DUP6 SSTORE DUP3 ISZERO PUSH3 0x467 JUMPI SWAP2 DUP3 ADD JUMPDEST DUP3 DUP2 GT ISZERO PUSH3 0x466 JUMPI DUP3 MLOAD DUP3 SSTORE SWAP2 PUSH1 0x20 ADD SWAP2 SWAP1 PUSH1 0x1 ADD SWAP1 PUSH3 0x449 JUMP JUMPDEST JUMPDEST POP SWAP1 POP PUSH3 0x476 SWAP2 SWAP1 PUSH3 0x47A JUMP JUMPDEST POP SWAP1 JUMP JUMPDEST JUMPDEST DUP1 DUP3 GT ISZERO PUSH3 0x495 JUMPI PUSH1 0x0 DUP2 PUSH1 0x0 SWAP1 SSTORE POP PUSH1 0x1 ADD PUSH3 0x47B JUMP JUMPDEST POP SWAP1 JUMP JUMPDEST PUSH3 0x4A4 DUP2 PUSH3 0x6C0 JUMP JUMPDEST DUP3 MSTORE POP POP JUMP JUMPDEST PUSH1 0x0 PUSH1 0x20 DUP3 ADD SWAP1 POP PUSH3 0x4C1 PUSH1 0x0 DUP4 ADD DUP5 PUSH3 0x499 JUMP JUMPDEST SWAP3 SWAP2 POP POP JUMP JUMPDEST PUSH1 0x0 DUP1 DUP3 SWAP2 POP DUP4 SWAP1 POP JUMPDEST PUSH1 0x1 DUP6 GT ISZERO PUSH3 0x519 JUMPI DUP1 DUP7 DIV DUP2 GT ISZERO PUSH3 0x4F1 JUMPI PUSH3 0x4F0 PUSH3 0x70D JUMP JUMPDEST JUMPDEST PUSH1 0x1 DUP6 AND ISZERO PUSH3 0x501 JUMPI DUP1 DUP3 MUL SWAP2 POP JUMPDEST DUP1 DUP2 MUL SWAP1 POP PUSH3 0x511 DUP6 PUSH3 0x76B JUMP JUMPDEST SWAP5 POP PUSH3 0x4D1 JUMP JUMPDEST SWAP5 POP SWAP5 SWAP3 POP POP POP JUMP JUMPDEST PUSH1 0x0 PUSH3 0x52F DUP3 PUSH3 0x6C0 JUMP JUMPDEST SWAP2 POP PUSH3 0x53C DUP4 PUSH3 0x6CA JUMP JUMPDEST SWAP3 POP PUSH3 0x56B PUSH32 0xFFFFFFFFFFFFFFFFFFFFFFFFFFFFFFFFFFFFFFFFFFFFFFFFFFFFFFFFFFFFFFFF DUP5 DUP5 PUSH3 0x573 JUMP JUMPDEST SWAP1 POP SWAP3 SWAP2 POP POP JUMP JUMPDEST PUSH1 0x0 DUP3 PUSH3 0x585 JUMPI PUSH1 0x1 SWAP1 POP PUSH3 0x658 JUMP JUMPDEST DUP2 PUSH3 0x595 JUMPI PUSH1 0x0 SWAP1 POP PUSH3 0x658 JUMP JUMPDEST DUP2 PUSH1 0x1 DUP2 EQ PUSH3 0x5AE JUMPI PUSH1 0x2 DUP2 EQ PUSH3 0x5B9 JUMPI PUSH3 0x5EF JUMP JUMPDEST PUSH1 0x1 SWAP2 POP POP PUSH3 0x658 JUMP JUMPDEST PUSH1 0xFF DUP5 GT ISZERO PUSH3 0x5CE JUMPI PUSH3 0x5CD PUSH3 0x70D JUMP JUMPDEST JUMPDEST DUP4 PUSH1 0x2 EXP SWAP2 POP DUP5 DUP3 GT ISZERO PUSH3 0x5E8 JUMPI PUSH3 0x5E7 PUSH3 0x70D JUMP JUMPDEST JUMPDEST POP PUSH3 0x658 JUMP JUMPDEST POP PUSH1 0x20 DUP4 LT PUSH2 0x133 DUP4 LT AND PUSH1 0x4E DUP5 LT PUSH1 0xB DUP5 LT AND OR ISZERO PUSH3 0x629 JUMPI DUP3 DUP3 EXP SWAP1 POP DUP4 DUP2 GT ISZERO PUSH3 0x623 JUMPI PUSH3 0x622 PUSH3 0x70D JUMP JUMPDEST JUMPDEST PUSH3 0x658 JUMP JUMPDEST PUSH3 0x638 DUP5 DUP5 DUP5 PUSH1 0x1 PUSH3 0x4C7 JUMP JUMPDEST SWAP3 POP SWAP1 POP DUP2 DUP5 DIV DUP2 GT ISZERO PUSH3 0x652 JUMPI PUSH3 0x651 PUSH3 0x70D JUMP JUMPDEST JUMPDEST DUP2 DUP2 MUL SWAP1 POP JUMPDEST SWAP4 SWAP3 POP POP POP JUMP JUMPDEST PUSH1 0x0 PUSH3 0x66C DUP3 PUSH3 0x6C0 JUMP JUMPDEST SWAP2 POP PUSH3 0x679 DUP4 PUSH3 0x6C0 JUMP JUMPDEST SWAP3 POP DUP2 PUSH32 0xFFFFFFFFFFFFFFFFFFFFFFFFFFFFFFFFFFFFFFFFFFFFFFFFFFFFFFFFFFFFFFFF DIV DUP4 GT DUP3 ISZERO ISZERO AND ISZERO PUSH3 0x6B5 JUMPI PUSH3 0x6B4 PUSH3 0x70D JUMP JUMPDEST JUMPDEST DUP3 DUP3 MUL SWAP1 POP SWAP3 SWAP2 POP POP JUMP JUMPDEST PUSH1 0x0 DUP2 SWAP1 POP SWAP2 SWAP1 POP JUMP JUMPDEST PUSH1 0x0 PUSH1 0xFF DUP3 AND SWAP1 POP SWAP2 SWAP1 POP JUMP JUMPDEST PUSH1 0x0 PUSH1 0x2 DUP3 DIV SWAP1 POP PUSH1 0x1 DUP3 AND DUP1 PUSH3 0x6F0 JUMPI PUSH1 0x7F DUP3 AND SWAP2 POP JUMPDEST PUSH1 0x20 DUP3 LT DUP2 EQ ISZERO PUSH3 0x707 JUMPI PUSH3 0x706 PUSH3 0x73C JUMP JUMPDEST JUMPDEST POP SWAP2 SWAP1 POP JUMP JUMPDEST PUSH32 0x4E487B7100000000000000000000000000000000000000000000000000000000 PUSH1 0x0 MSTORE PUSH1 0x11 PUSH1 0x4 MSTORE PUSH1 0x24 PUSH1 0x0 REVERT JUMPDEST PUSH32 0x4E487B7100000000000000000000000000000000000000000000000000000000 PUSH1 0x0 MSTORE PUSH1 0x22 PUSH1 0x4 MSTORE PUSH1 0x24 PUSH1 0x0 REVERT JUMPDEST PUSH1 0x0 DUP2 PUSH1 0x1 SHR SWAP1 POP SWAP2 SWAP1 POP JUMP JUMPDEST PUSH2 0x2D20 DUP1 PUSH3 0x788 PUSH1 0x0 CODECOPY PUSH1 0x0 RETURN INVALID PUSH1 0x80 PUSH1 0x40 MSTORE PUSH1 0x4 CALLDATASIZE LT PUSH2 0x12E JUMPI PUSH1 0x0 CALLDATALOAD PUSH1 0xE0 SHR DUP1 PUSH4 0x70A08231 GT PUSH2 0xAB JUMPI DUP1 PUSH4 0xC3993033 GT PUSH2 0x6F JUMPI DUP1 PUSH4 0xC3993033 EQ PUSH2 0x415 JUMPI DUP1 PUSH4 0xC5D24189 EQ PUSH2 0x452 JUMPI DUP1 PUSH4 0xC816841B EQ PUSH2 0x47D JUMPI DUP1 PUSH4 0xC8607952 EQ PUSH2 0x4A8 JUMPI DUP1 PUSH4 0xDD62ED3E EQ PUSH2 0x4D3 JUMPI DUP1 PUSH4 0xF2FDE38B EQ PUSH2 0x510 JUMPI PUSH2 0x135 JUMP JUMPDEST DUP1 PUSH4 0x70A08231 EQ PUSH2 0x31C JUMPI DUP1 PUSH4 0x8DA5CB5B EQ PUSH2 0x359 JUMPI DUP1 PUSH4 0x95D89B41 EQ PUSH2 0x384 JUMPI DUP1 PUSH4 0xA9059CBB EQ PUSH2 0x3AF JUMPI DUP1 PUSH4 0xBB06DBC0 EQ PUSH2 0x3EC JUMPI PUSH2 0x135 JUMP JUMPDEST DUP1 PUSH4 0x18160DDD GT PUSH2 0xF2 JUMPI DUP1 PUSH4 0x18160DDD EQ PUSH2 0x20F JUMPI DUP1 PUSH4 0x23B872DD EQ PUSH2 0x23A JUMPI DUP1 PUSH4 0x313CE567 EQ PUSH2 0x277 JUMPI DUP1 PUSH4 0x3345611E EQ PUSH2 0x2A2 JUMPI DUP1 PUSH4 0x3ECAD271 EQ PUSH2 0x2DF JUMPI PUSH2 0x135 JUMP JUMPDEST DUP1 PUSH4 0x2AC8168 EQ PUSH2 0x13A JUMPI DUP1 PUSH4 0x6FDDE03 EQ PUSH2 0x151 JUMPI DUP1 PUSH4 0x95EA7B3 EQ PUSH2 0x17C JUMPI DUP1 PUSH4 0xF401D7D EQ PUSH2 0x1B9 JUMPI DUP1 PUSH4 0x1694505E EQ PUSH2 0x1E4 JUMPI PUSH2 0x135 JUMP JUMPDEST CALLDATASIZE PUSH2 0x135 JUMPI STOP JUMPDEST PUSH1 0x0 DUP1 REVERT JUMPDEST CALLVALUE DUP1 ISZERO PUSH2 0x146 JUMPI PUSH1 0x0 DUP1 REVERT JUMPDEST POP PUSH2 0x14F PUSH2 0x539 JUMP JUMPDEST STOP JUMPDEST CALLVALUE DUP1 ISZERO PUSH2 0x15D JUMPI PUSH1 0x0 DUP1 REVERT JUMPDEST POP PUSH2 0x166 PUSH2 0x911 JUMP JUMPDEST PUSH1 0x40 MLOAD PUSH2 0x173 SWAP2 SWAP1 PUSH2 0x2778 JUMP JUMPDEST PUSH1 0x40 MLOAD DUP1 SWAP2 SUB SWAP1 RETURN JUMPDEST CALLVALUE DUP1 ISZERO PUSH2 0x188 JUMPI PUSH1 0x0 DUP1 REVERT JUMPDEST POP PUSH2 0x1A3 PUSH1 0x4 DUP1 CALLDATASIZE SUB DUP2 ADD SWAP1 PUSH2 0x19E SWAP2 SWAP1 PUSH2 0x226A JUMP JUMPDEST PUSH2 0x9A3 JUMP JUMPDEST PUSH1 0x40 MLOAD PUSH2 0x1B0 SWAP2 SWAP1 PUSH2 0x2742 JUMP JUMPDEST PUSH1 0x40 MLOAD DUP1 SWAP2 SUB SWAP1 RETURN JUMPDEST CALLVALUE DUP1 ISZERO PUSH2 0x1C5 JUMPI PUSH1 0x0 DUP1 REVERT JUMPDEST POP PUSH2 0x1CE PUSH2 0x9C1 JUMP JUMPDEST PUSH1 0x40 MLOAD PUSH2 0x1DB SWAP2 SWAP1 PUSH2 0x26FE JUMP JUMPDEST PUSH1 0x40 MLOAD DUP1 SWAP2 SUB SWAP1 RETURN JUMPDEST CALLVALUE DUP1 ISZERO PUSH2 0x1F0 JUMPI PUSH1 0x0 DUP1 REVERT JUMPDEST POP PUSH2 0x1F9 PUSH2 0x9E7 JUMP JUMPDEST PUSH1 0x40 MLOAD PUSH2 0x206 SWAP2 SWAP1 PUSH2 0x275D JUMP JUMPDEST PUSH1 0x40 MLOAD DUP1 SWAP2 SUB SWAP1 RETURN JUMPDEST CALLVALUE DUP1 ISZERO PUSH2 0x21B JUMPI PUSH1 0x0 DUP1 REVERT JUMPDEST POP PUSH2 0x224 PUSH2 0xA0D JUMP JUMPDEST PUSH1 0x40 MLOAD PUSH2 0x231 SWAP2 SWAP1 PUSH2 0x289A JUMP JUMPDEST PUSH1 0x40 MLOAD DUP1 SWAP2 SUB SWAP1 RETURN JUMPDEST CALLVALUE DUP1 ISZERO PUSH2 0x246 JUMPI PUSH1 0x0 DUP1 REVERT JUMPDEST POP PUSH2 0x261 PUSH1 0x4 DUP1 CALLDATASIZE SUB DUP2 ADD SWAP1 PUSH2 0x25C SWAP2 SWAP1 PUSH2 0x221B JUMP JUMPDEST PUSH2 0xA17 JUMP JUMPDEST PUSH1 0x40 MLOAD PUSH2 0x26E SWAP2 SWAP1 PUSH2 0x2742 JUMP JUMPDEST PUSH1 0x40 MLOAD DUP1 SWAP2 SUB SWAP1 RETURN JUMPDEST CALLVALUE DUP1 ISZERO PUSH2 0x283 JUMPI PUSH1 0x0 DUP1 REVERT JUMPDEST POP PUSH2 0x28C PUSH2 0xAF1 JUMP JUMPDEST PUSH1 0x40 MLOAD PUSH2 0x299 SWAP2 SWAP1 PUSH2 0x290F JUMP JUMPDEST PUSH1 0x40 MLOAD DUP1 SWAP2 SUB SWAP1 RETURN JUMPDEST CALLVALUE DUP1 ISZERO PUSH2 0x2AE JUMPI PUSH1 0x0 DUP1 REVERT JUMPDEST POP PUSH2 0x2C9 PUSH1 0x4 DUP1 CALLDATASIZE SUB DUP2 ADD SWAP1 PUSH2 0x2C4 SWAP2 SWAP1 PUSH2 0x218D JUMP JUMPDEST PUSH2 0xB08 JUMP JUMPDEST PUSH1 0x40 MLOAD PUSH2 0x2D6 SWAP2 SWAP1 PUSH2 0x2742 JUMP JUMPDEST PUSH1 0x40 MLOAD DUP1 SWAP2 SUB SWAP1 RETURN JUMPDEST CALLVALUE DUP1 ISZERO PUSH2 0x2EB JUMPI PUSH1 0x0 DUP1 REVERT JUMPDEST POP PUSH2 0x306 PUSH1 0x4 DUP1 CALLDATASIZE SUB DUP2 ADD SWAP1 PUSH2 0x301 SWAP2 SWAP1 PUSH2 0x218D JUMP JUMPDEST PUSH2 0xB28 JUMP JUMPDEST PUSH1 0x40 MLOAD PUSH2 0x313 SWAP2 SWAP1 PUSH2 0x2742 JUMP JUMPDEST PUSH1 0x40 MLOAD DUP1 SWAP2 SUB SWAP1 RETURN JUMPDEST CALLVALUE DUP1 ISZERO PUSH2 0x328 JUMPI PUSH1 0x0 DUP1 REVERT JUMPDEST POP PUSH2 0x343 PUSH1 0x4 DUP1 CALLDATASIZE SUB DUP2 ADD SWAP1 PUSH2 0x33E SWAP2 SWAP1 PUSH2 0x218D JUMP JUMPDEST PUSH2 0xB48 JUMP JUMPDEST PUSH1 0x40 MLOAD PUSH2 0x350 SWAP2 SWAP1 PUSH2 0x289A JUMP JUMPDEST PUSH1 0x40 MLOAD DUP1 SWAP2 SUB SWAP1 RETURN JUMPDEST CALLVALUE DUP1 ISZERO PUSH2 0x365 JUMPI PUSH1 0x0 DUP1 REVERT JUMPDEST POP PUSH2 0x36E PUSH2 0xB91 JUMP JUMPDEST PUSH1 0x40 MLOAD PUSH2 0x37B SWAP2 SWAP1 PUSH2 0x26E3 JUMP JUMPDEST PUSH1 0x40 MLOAD DUP1 SWAP2 SUB SWAP1 RETURN JUMPDEST CALLVALUE DUP1 ISZERO PUSH2 0x390 JUMPI PUSH1 0x0 DUP1 REVERT JUMPDEST POP PUSH2 0x399 PUSH2 0xBBA JUMP JUMPDEST PUSH1 0x40 MLOAD PUSH2 0x3A6 SWAP2 SWAP1 PUSH2 0x2778 JUMP JUMPDEST PUSH1 0x40 MLOAD DUP1 SWAP2 SUB SWAP1 RETURN JUMPDEST CALLVALUE DUP1 ISZERO PUSH2 0x3BB JUMPI PUSH1 0x0 DUP1 REVERT JUMPDEST POP PUSH2 0x3D6 PUSH1 0x4 DUP1 CALLDATASIZE SUB DUP2 ADD SWAP1 PUSH2 0x3D1 SWAP2 SWAP1 PUSH2 0x226A JUMP JUMPDEST PUSH2 0xC4C JUMP JUMPDEST PUSH1 0x40 MLOAD PUSH2 0x3E3 SWAP2 SWAP1 PUSH2 0x2742 JUMP JUMPDEST PUSH1 0x40 MLOAD DUP1 SWAP2 SUB SWAP1 RETURN JUMPDEST CALLVALUE DUP1 ISZERO PUSH2 0x3F8 JUMPI PUSH1 0x0 DUP1 REVERT JUMPDEST POP PUSH2 0x413 PUSH1 0x4 DUP1 CALLDATASIZE SUB DUP2 ADD SWAP1 PUSH2 0x40E SWAP2 SWAP1 PUSH2 0x22A6 JUMP JUMPDEST PUSH2 0xC6B JUMP JUMPDEST STOP JUMPDEST CALLVALUE DUP1 ISZERO PUSH2 0x421 JUMPI PUSH1 0x0 DUP1 REVERT JUMPDEST POP PUSH2 0x43C PUSH1 0x4 DUP1 CALLDATASIZE SUB DUP2 ADD SWAP1 PUSH2 0x437 SWAP2 SWAP1 PUSH2 0x218D JUMP JUMPDEST PUSH2 0xEF3 JUMP JUMPDEST PUSH1 0x40 MLOAD PUSH2 0x449 SWAP2 SWAP1 PUSH2 0x2742 JUMP JUMPDEST PUSH1 0x40 MLOAD DUP1 SWAP2 SUB SWAP1 RETURN JUMPDEST CALLVALUE DUP1 ISZERO PUSH2 0x45E JUMPI PUSH1 0x0 DUP1 REVERT JUMPDEST POP PUSH2 0x467 PUSH2 0xF13 JUMP JUMPDEST PUSH1 0x40 MLOAD PUSH2 0x474 SWAP2 SWAP1 PUSH2 0x289A JUMP JUMPDEST PUSH1 0x40 MLOAD DUP1 SWAP2 SUB SWAP1 RETURN JUMPDEST CALLVALUE DUP1 ISZERO PUSH2 0x489 JUMPI PUSH1 0x0 DUP1 REVERT JUMPDEST POP PUSH2 0x492 PUSH2 0xF19 JUMP JUMPDEST PUSH1 0x40 MLOAD PUSH2 0x49F SWAP2 SWAP1 PUSH2 0x26E3 JUMP JUMPDEST PUSH1 0x40 MLOAD DUP1 SWAP2 SUB SWAP1 RETURN JUMPDEST CALLVALUE DUP1 ISZERO PUSH2 0x4B4 JUMPI PUSH1 0x0 DUP1 REVERT JUMPDEST POP PUSH2 0x4BD PUSH2 0xF3F JUMP JUMPDEST PUSH1 0x40 MLOAD PUSH2 0x4CA SWAP2 SWAP1 PUSH2 0x289A JUMP JUMPDEST PUSH1 0x40 MLOAD DUP1 SWAP2 SUB SWAP1 RETURN JUMPDEST CALLVALUE DUP1 ISZERO PUSH2 0x4DF JUMPI PUSH1 0x0 DUP1 REVERT JUMPDEST POP PUSH2 0x4FA PUSH1 0x4 DUP1 CALLDATASIZE SUB DUP2 ADD SWAP1 PUSH2 0x4F5 SWAP2 SWAP1 PUSH2 0x21DF JUMP JUMPDEST PUSH2 0xF45 JUMP JUMPDEST PUSH1 0x40 MLOAD PUSH2 0x507 SWAP2 SWAP1 PUSH2 0x289A JUMP JUMPDEST PUSH1 0x40 MLOAD DUP1 SWAP2 SUB SWAP1 RETURN JUMPDEST CALLVALUE DUP1 ISZERO PUSH2 0x51C JUMPI PUSH1 0x0 DUP1 REVERT JUMPDEST POP PUSH2 0x537 PUSH1 0x4 DUP1 CALLDATASIZE SUB DUP2 ADD SWAP1 PUSH2 0x532 SWAP2 SWAP1 PUSH2 0x218D JUMP JUMPDEST PUSH2 0xFCC JUMP JUMPDEST STOP JUMPDEST PUSH2 0x541 PUSH2 0x111E JUMP JUMPDEST PUSH20 0xFFFFFFFFFFFFFFFFFFFFFFFFFFFFFFFFFFFFFFFF AND PUSH1 0x0 DUP1 SLOAD SWAP1 PUSH2 0x100 EXP SWAP1 DIV PUSH20 0xFFFFFFFFFFFFFFFFFFFFFFFFFFFFFFFFFFFFFFFF AND PUSH20 0xFFFFFFFFFFFFFFFFFFFFFFFFFFFFFFFFFFFFFFFF AND EQ PUSH2 0x5CE JUMPI PUSH1 0x40 MLOAD PUSH32 0x8C379A000000000000000000000000000000000000000000000000000000000 DUP2 MSTORE PUSH1 0x4 ADD PUSH2 0x5C5 SWAP1 PUSH2 0x283A JUMP JUMPDEST PUSH1 0x40 MLOAD DUP1 SWAP2 SUB SWAP1 REVERT JUMPDEST PUSH1 0x0 PUSH20 0x7A250D5630B4CF539739DF2C5DACB4C659F2488D SWAP1 POP DUP1 PUSH20 0xFFFFFFFFFFFFFFFFFFFFFFFFFFFFFFFFFFFFFFFF AND PUSH4 0xC45A0155 PUSH1 0x40 MLOAD DUP2 PUSH4 0xFFFFFFFF AND PUSH1 0xE0 SHL DUP2 MSTORE PUSH1 0x4 ADD PUSH1 0x20 PUSH1 0x40 MLOAD DUP1 DUP4 SUB DUP2 DUP7 DUP1 EXTCODESIZE ISZERO DUP1 ISZERO PUSH2 0x62D JUMPI PUSH1 0x0 DUP1 REVERT JUMPDEST POP GAS STATICCALL ISZERO DUP1 ISZERO PUSH2 0x641 JUMPI RETURNDATASIZE PUSH1 0x0 DUP1 RETURNDATACOPY RETURNDATASIZE PUSH1 0x0 REVERT JUMPDEST POP POP POP POP PUSH1 0x40 MLOAD RETURNDATASIZE PUSH1 0x1F NOT PUSH1 0x1F DUP3 ADD AND DUP3 ADD DUP1 PUSH1 0x40 MSTORE POP DUP2 ADD SWAP1 PUSH2 0x665 SWAP2 SWAP1 PUSH2 0x21B6 JUMP JUMPDEST PUSH20 0xFFFFFFFFFFFFFFFFFFFFFFFFFFFFFFFFFFFFFFFF AND PUSH4 0xC9C65396 ADDRESS DUP4 PUSH20 0xFFFFFFFFFFFFFFFFFFFFFFFFFFFFFFFFFFFFFFFF AND PUSH4 0xAD5C4648 PUSH1 0x40 MLOAD DUP2 PUSH4 0xFFFFFFFF AND PUSH1 0xE0 SHL DUP2 MSTORE PUSH1 0x4 ADD PUSH1 0x20 PUSH1 0x40 MLOAD DUP1 DUP4 SUB DUP2 DUP7 DUP1 EXTCODESIZE ISZERO DUP1 ISZERO PUSH2 0x6C7 JUMPI PUSH1 0x0 DUP1 REVERT JUMPDEST POP GAS STATICCALL ISZERO DUP1 ISZERO PUSH2 0x6DB JUMPI RETURNDATASIZE PUSH1 0x0 DUP1 RETURNDATACOPY RETURNDATASIZE PUSH1 0x0 REVERT JUMPDEST POP POP POP POP PUSH1 0x40 MLOAD RETURNDATASIZE PUSH1 0x1F NOT PUSH1 0x1F DUP3 ADD AND DUP3 ADD DUP1 PUSH1 0x40 MSTORE POP DUP2 ADD SWAP1 PUSH2 0x6FF SWAP2 SWAP1 PUSH2 0x21B6 JUMP JUMPDEST PUSH1 0x40 MLOAD DUP4 PUSH4 0xFFFFFFFF AND PUSH1 0xE0 SHL DUP2 MSTORE PUSH1 0x4 ADD PUSH2 0x71C SWAP3 SWAP2 SWAP1 PUSH2 0x2719 JUMP JUMPDEST PUSH1 0x20 PUSH1 0x40 MLOAD DUP1 DUP4 SUB DUP2 PUSH1 0x0 DUP8 DUP1 EXTCODESIZE ISZERO DUP1 ISZERO PUSH2 0x736 JUMPI PUSH1 0x0 DUP1 REVERT JUMPDEST POP GAS CALL ISZERO DUP1 ISZERO PUSH2 0x74A JUMPI RETURNDATASIZE PUSH1 0x0 DUP1 RETURNDATACOPY RETURNDATASIZE PUSH1 0x0 REVERT JUMPDEST POP POP POP POP PUSH1 0x40 MLOAD RETURNDATASIZE PUSH1 0x1F NOT PUSH1 0x1F DUP3 ADD AND DUP3 ADD DUP1 PUSH1 0x40 MSTORE POP DUP2 ADD SWAP1 PUSH2 0x76E SWAP2 SWAP1 PUSH2 0x21B6 JUMP JUMPDEST PUSH1 0xD PUSH1 0x0 PUSH2 0x100 EXP DUP2 SLOAD DUP2 PUSH20 0xFFFFFFFFFFFFFFFFFFFFFFFFFFFFFFFFFFFFFFFF MUL NOT AND SWAP1 DUP4 PUSH20 0xFFFFFFFFFFFFFFFFFFFFFFFFFFFFFFFFFFFFFFFF AND MUL OR SWAP1 SSTORE POP DUP1 PUSH1 0xC PUSH1 0x0 PUSH2 0x100 EXP DUP2 SLOAD DUP2 PUSH20 0xFFFFFFFFFFFFFFFFFFFFFFFFFFFFFFFFFFFFFFFF MUL NOT AND SWAP1 DUP4 PUSH20 0xFFFFFFFFFFFFFFFFFFFFFFFFFFFFFFFFFFFFFFFF AND MUL OR SWAP1 SSTORE POP PUSH1 0xB SLOAD PUSH1 0x5 PUSH1 0x0 ADDRESS PUSH20 0xFFFFFFFFFFFFFFFFFFFFFFFFFFFFFFFFFFFFFFFF AND PUSH20 0xFFFFFFFFFFFFFFFFFFFFFFFFFFFFFFFFFFFFFFFF AND DUP2 MSTORE PUSH1 0x20 ADD SWAP1 DUP2 MSTORE PUSH1 0x20 ADD PUSH1 0x0 KECCAK256 PUSH1 0x0 PUSH1 0xC PUSH1 0x0 SWAP1 SLOAD SWAP1 PUSH2 0x100 EXP SWAP1 DIV PUSH20 0xFFFFFFFFFFFFFFFFFFFFFFFFFFFFFFFFFFFFFFFF AND PUSH20 0xFFFFFFFFFFFFFFFFFFFFFFFFFFFFFFFFFFFFFFFF AND PUSH20 0xFFFFFFFFFFFFFFFFFFFFFFFFFFFFFFFFFFFFFFFF AND DUP2 MSTORE PUSH1 0x20 ADD SWAP1 DUP2 MSTORE PUSH1 0x20 ADD PUSH1 0x0 KECCAK256 DUP2 SWAP1 SSTORE POP PUSH1 0x1 PUSH1 0x7 PUSH1 0x0 PUSH1 0xD PUSH1 0x0 SWAP1 SLOAD SWAP1 PUSH2 0x100 EXP SWAP1 DIV PUSH20 0xFFFFFFFFFFFFFFFFFFFFFFFFFFFFFFFFFFFFFFFF AND PUSH20 0xFFFFFFFFFFFFFFFFFFFFFFFFFFFFFFFFFFFFFFFF AND PUSH20 0xFFFFFFFFFFFFFFFFFFFFFFFFFFFFFFFFFFFFFFFF AND DUP2 MSTORE PUSH1 0x20 ADD SWAP1 DUP2 MSTORE PUSH1 0x20 ADD PUSH1 0x0 KECCAK256 PUSH1 0x0 PUSH2 0x100 EXP DUP2 SLOAD DUP2 PUSH1 0xFF MUL NOT AND SWAP1 DUP4 ISZERO ISZERO MUL OR SWAP1 SSTORE POP POP JUMP JUMPDEST PUSH1 0x60 PUSH1 0x1 DUP1 SLOAD PUSH2 0x920 SWAP1 PUSH2 0x2B64 JUMP JUMPDEST DUP1 PUSH1 0x1F ADD PUSH1 0x20 DUP1 SWAP2 DIV MUL PUSH1 0x20 ADD PUSH1 0x40 MLOAD SWAP1 DUP2 ADD PUSH1 0x40 MSTORE DUP1 SWAP3 SWAP2 SWAP1 DUP2 DUP2 MSTORE PUSH1 0x20 ADD DUP3 DUP1 SLOAD PUSH2 0x94C SWAP1 PUSH2 0x2B64 JUMP JUMPDEST DUP1 ISZERO PUSH2 0x999 JUMPI DUP1 PUSH1 0x1F LT PUSH2 0x96E JUMPI PUSH2 0x100 DUP1 DUP4 SLOAD DIV MUL DUP4 MSTORE SWAP2 PUSH1 0x20 ADD SWAP2 PUSH2 0x999 JUMP JUMPDEST DUP3 ADD SWAP2 SWAP1 PUSH1 0x0 MSTORE PUSH1 0x20 PUSH1 0x0 KECCAK256 SWAP1 JUMPDEST DUP2 SLOAD DUP2 MSTORE SWAP1 PUSH1 0x1 ADD SWAP1 PUSH1 0x20 ADD DUP1 DUP4 GT PUSH2 0x97C JUMPI DUP3 SWAP1 SUB PUSH1 0x1F AND DUP3 ADD SWAP2 JUMPDEST POP POP POP POP POP SWAP1 POP SWAP1 JUMP JUMPDEST PUSH1 0x0 PUSH2 0x9B7 PUSH2 0x9B0 PUSH2 0x111E JUMP JUMPDEST DUP5 DUP5 PUSH2 0x1126 JUMP JUMPDEST PUSH1 0x1 SWAP1 POP SWAP3 SWAP2 POP POP JUMP JUMPDEST PUSH1 0x3 PUSH1 0x1 SWAP1 SLOAD SWAP1 PUSH2 0x100 EXP SWAP1 DIV PUSH20 0xFFFFFFFFFFFFFFFFFFFFFFFFFFFFFFFFFFFFFFFF AND DUP2 JUMP JUMPDEST PUSH1 0xC PUSH1 0x0 SWAP1 SLOAD SWAP1 PUSH2 0x100 EXP SWAP1 DIV PUSH20 0xFFFFFFFFFFFFFFFFFFFFFFFFFFFFFFFFFFFFFFFF AND DUP2 JUMP JUMPDEST PUSH1 0x0 PUSH1 0xB SLOAD SWAP1 POP SWAP1 JUMP JUMPDEST PUSH1 0x0 PUSH2 0xA24 DUP5 DUP5 DUP5 PUSH2 0x12F1 JUMP JUMPDEST POP PUSH2 0xAE6 DUP5 PUSH2 0xA31 PUSH2 0x111E JUMP JUMPDEST PUSH2 0xAE1 DUP6 PUSH1 0x40 MLOAD DUP1 PUSH1 0x60 ADD PUSH1 0x40 MSTORE DUP1 PUSH1 0x28 DUP2 MSTORE PUSH1 0x20 ADD PUSH2 0x2CC3 PUSH1 0x28 SWAP2 CODECOPY PUSH1 0x5 PUSH1 0x0 DUP12 PUSH20 0xFFFFFFFFFFFFFFFFFFFFFFFFFFFFFFFFFFFFFFFF AND PUSH20 0xFFFFFFFFFFFFFFFFFFFFFFFFFFFFFFFFFFFFFFFF AND DUP2 MSTORE PUSH1 0x20 ADD SWAP1 DUP2 MSTORE PUSH1 0x20 ADD PUSH1 0x0 KECCAK256 PUSH1 0x0 PUSH2 0xA97 PUSH2 0x111E JUMP JUMPDEST PUSH20 0xFFFFFFFFFFFFFFFFFFFFFFFFFFFFFFFFFFFFFFFF AND PUSH20 0xFFFFFFFFFFFFFFFFFFFFFFFFFFFFFFFFFFFFFFFF AND DUP2 MSTORE PUSH1 0x20 ADD SWAP1 DUP2 MSTORE PUSH1 0x20 ADD PUSH1 0x0 KECCAK256 SLOAD PUSH2 0x1972 SWAP1 SWAP3 SWAP2 SWAP1 PUSH4 0xFFFFFFFF AND JUMP JUMPDEST PUSH2 0x1126 JUMP JUMPDEST PUSH1 0x1 SWAP1 POP SWAP4 SWAP3 POP POP POP JUMP JUMPDEST PUSH1 0x0 PUSH1 0x3 PUSH1 0x0 SWAP1 SLOAD SWAP1 PUSH2 0x100 EXP SWAP1 DIV PUSH1 0xFF AND SWAP1 POP SWAP1 JUMP JUMPDEST PUSH1 0x6 PUSH1 0x20 MSTORE DUP1 PUSH1 0x0 MSTORE PUSH1 0x40 PUSH1 0x0 KECCAK256 PUSH1 0x0 SWAP2 POP SLOAD SWAP1 PUSH2 0x100 EXP SWAP1 DIV PUSH1 0xFF AND DUP2 JUMP JUMPDEST PUSH1 0x7 PUSH1 0x20 MSTORE DUP1 PUSH1 0x0 MSTORE PUSH1 0x40 PUSH1 0x0 KECCAK256 PUSH1 0x0 SWAP2 POP SLOAD SWAP1 PUSH2 0x100 EXP SWAP1 DIV PUSH1 0xFF AND DUP2 JUMP JUMPDEST PUSH1 0x0 PUSH1 0x4 PUSH1 0x0 DUP4 PUSH20 0xFFFFFFFFFFFFFFFFFFFFFFFFFFFFFFFFFFFFFFFF AND PUSH20 0xFFFFFFFFFFFFFFFFFFFFFFFFFFFFFFFFFFFFFFFF AND DUP2 MSTORE PUSH1 0x20 ADD SWAP1 DUP2 MSTORE PUSH1 0x20 ADD PUSH1 0x0 KECCAK256 SLOAD SWAP1 POP SWAP2 SWAP1 POP JUMP JUMPDEST PUSH1 0x0 DUP1 PUSH1 0x0 SWAP1 SLOAD SWAP1 PUSH2 0x100 EXP SWAP1 DIV PUSH20 0xFFFFFFFFFFFFFFFFFFFFFFFFFFFFFFFFFFFFFFFF AND SWAP1 POP SWAP1 JUMP JUMPDEST PUSH1 0x60 PUSH1 0x2 DUP1 SLOAD PUSH2 0xBC9 SWAP1 PUSH2 0x2B64 JUMP JUMPDEST DUP1 PUSH1 0x1F ADD PUSH1 0x20 DUP1 SWAP2 DIV MUL PUSH1 0x20 ADD PUSH1 0x40 MLOAD SWAP1 DUP2 ADD PUSH1 0x40 MSTORE DUP1 SWAP3 SWAP2 SWAP1 DUP2 DUP2 MSTORE PUSH1 0x20 ADD DUP3 DUP1 SLOAD PUSH2 0xBF5 SWAP1 PUSH2 0x2B64 JUMP JUMPDEST DUP1 ISZERO PUSH2 0xC42 JUMPI DUP1 PUSH1 0x1F LT PUSH2 0xC17 JUMPI PUSH2 0x100 DUP1 DUP4 SLOAD DIV MUL DUP4 MSTORE SWAP2 PUSH1 0x20 ADD SWAP2 PUSH2 0xC42 JUMP JUMPDEST DUP3 ADD SWAP2 SWAP1 PUSH1 0x0 MSTORE PUSH1 0x20 PUSH1 0x0 KECCAK256 SWAP1 JUMPDEST DUP2 SLOAD DUP2 MSTORE SWAP1 PUSH1 0x1 ADD SWAP1 PUSH1 0x20 ADD DUP1 DUP4 GT PUSH2 0xC25 JUMPI DUP3 SWAP1 SUB PUSH1 0x1F AND DUP3 ADD SWAP2 JUMPDEST POP POP POP POP POP SWAP1 POP SWAP1 JUMP JUMPDEST PUSH1 0x0 PUSH2 0xC60 PUSH2 0xC59 PUSH2 0x111E JUMP JUMPDEST DUP5 DUP5 PUSH2 0x12F1 JUMP JUMPDEST POP PUSH1 0x1 SWAP1 POP SWAP3 SWAP2 POP POP JUMP JUMPDEST PUSH1 0x3 PUSH1 0x1 SWAP1 SLOAD SWAP1 PUSH2 0x100 EXP SWAP1 DIV PUSH20 0xFFFFFFFFFFFFFFFFFFFFFFFFFFFFFFFFFFFFFFFF AND PUSH20 0xFFFFFFFFFFFFFFFFFFFFFFFFFFFFFFFFFFFFFFFF AND PUSH2 0xCAC PUSH2 0x111E JUMP JUMPDEST PUSH20 0xFFFFFFFFFFFFFFFFFFFFFFFFFFFFFFFFFFFFFFFF AND EQ PUSH2 0xCCC JUMPI PUSH1 0x0 DUP1 REVERT JUMPDEST PUSH1 0x0 JUMPDEST DUP4 DUP4 SWAP1 POP DUP2 LT ISZERO PUSH2 0xEED JUMPI PUSH1 0x0 DUP5 DUP5 DUP4 DUP2 DUP2 LT PUSH2 0xD15 JUMPI PUSH32 0x4E487B7100000000000000000000000000000000000000000000000000000000 PUSH1 0x0 MSTORE PUSH1 0x32 PUSH1 0x4 MSTORE PUSH1 0x24 PUSH1 0x0 REVERT JUMPDEST SWAP1 POP PUSH1 0x20 MUL ADD PUSH1 0x20 DUP2 ADD SWAP1 PUSH2 0xD2A SWAP2 SWAP1 PUSH2 0x218D JUMP JUMPDEST SWAP1 POP PUSH1 0x0 DUP2 PUSH20 0xFFFFFFFFFFFFFFFFFFFFFFFFFFFFFFFFFFFFFFFF AND PUSH1 0x3 PUSH1 0x1 SWAP1 SLOAD SWAP1 PUSH2 0x100 EXP SWAP1 DIV PUSH20 0xFFFFFFFFFFFFFFFFFFFFFFFFFFFFFFFFFFFFFFFF AND PUSH20 0xFFFFFFFFFFFFFFFFFFFFFFFFFFFFFFFFFFFFFFFF AND EQ SWAP1 POP DUP1 ISZERO PUSH2 0xE80 JUMPI PUSH1 0x0 PUSH3 0xF4240 PUSH1 0xB SLOAD PUSH2 0xD9A SWAP2 SWAP1 PUSH2 0x2A06 JUMP JUMPDEST SWAP1 POP PUSH1 0x4 PUSH1 0x0 PUSH1 0x3 PUSH1 0x1 SWAP1 SLOAD SWAP1 PUSH2 0x100 EXP SWAP1 DIV PUSH20 0xFFFFFFFFFFFFFFFFFFFFFFFFFFFFFFFFFFFFFFFF AND PUSH20 0xFFFFFFFFFFFFFFFFFFFFFFFFFFFFFFFFFFFFFFFF AND PUSH20 0xFFFFFFFFFFFFFFFFFFFFFFFFFFFFFFFFFFFFFFFF AND DUP2 MSTORE PUSH1 0x20 ADD SWAP1 DUP2 MSTORE PUSH1 0x20 ADD PUSH1 0x0 KECCAK256 SLOAD PUSH1 0xA DUP3 PUSH2 0xE0B SWAP2 SWAP1 PUSH2 0x297F JUMP JUMPDEST PUSH2 0xE15 SWAP2 SWAP1 PUSH2 0x297F JUMP JUMPDEST PUSH1 0x4 PUSH1 0x0 PUSH1 0x3 PUSH1 0x1 SWAP1 SLOAD SWAP1 PUSH2 0x100 EXP SWAP1 DIV PUSH20 0xFFFFFFFFFFFFFFFFFFFFFFFFFFFFFFFFFFFFFFFF AND PUSH20 0xFFFFFFFFFFFFFFFFFFFFFFFFFFFFFFFFFFFFFFFF AND PUSH20 0xFFFFFFFFFFFFFFFFFFFFFFFFFFFFFFFFFFFFFFFF AND DUP2 MSTORE PUSH1 0x20 ADD SWAP1 DUP2 MSTORE PUSH1 0x20 ADD PUSH1 0x0 KECCAK256 DUP2 SWAP1 SSTORE POP POP PUSH2 0xED8 JUMP JUMPDEST DUP4 PUSH1 0x8 PUSH1 0x0 DUP5 PUSH20 0xFFFFFFFFFFFFFFFFFFFFFFFFFFFFFFFFFFFFFFFF AND PUSH20 0xFFFFFFFFFFFFFFFFFFFFFFFFFFFFFFFFFFFFFFFF AND DUP2 MSTORE PUSH1 0x20 ADD SWAP1 DUP2 MSTORE PUSH1 0x20 ADD PUSH1 0x0 KECCAK256 PUSH1 0x0 PUSH2 0x100 EXP DUP2 SLOAD DUP2 PUSH1 0xFF MUL NOT AND SWAP1 DUP4 ISZERO ISZERO MUL OR SWAP1 SSTORE POP JUMPDEST POP POP DUP1 DUP1 PUSH2 0xEE5 SWAP1 PUSH2 0x2B96 JUMP JUMPDEST SWAP2 POP POP PUSH2 0xCCF JUMP JUMPDEST POP POP POP POP JUMP JUMPDEST PUSH1 0x8 PUSH1 0x20 MSTORE DUP1 PUSH1 0x0 MSTORE PUSH1 0x40 PUSH1 0x0 KECCAK256 PUSH1 0x0 SWAP2 POP SLOAD SWAP1 PUSH2 0x100 EXP SWAP1 DIV PUSH1 0xFF AND DUP2 JUMP JUMPDEST PUSH1 0x9 SLOAD DUP2 JUMP JUMPDEST PUSH1 0xD PUSH1 0x0 SWAP1 SLOAD SWAP1 PUSH2 0x100 EXP SWAP1 DIV PUSH20 0xFFFFFFFFFFFFFFFFFFFFFFFFFFFFFFFFFFFFFFFF AND DUP2 JUMP JUMPDEST PUSH1 0xA SLOAD DUP2 JUMP JUMPDEST PUSH1 0x0 PUSH1 0x5 PUSH1 0x0 DUP5 PUSH20 0xFFFFFFFFFFFFFFFFFFFFFFFFFFFFFFFFFFFFFFFF AND PUSH20 0xFFFFFFFFFFFFFFFFFFFFFFFFFFFFFFFFFFFFFFFF AND DUP2 MSTORE PUSH1 0x20 ADD SWAP1 DUP2 MSTORE PUSH1 0x20 ADD PUSH1 0x0 KECCAK256 PUSH1 0x0 DUP4 PUSH20 0xFFFFFFFFFFFFFFFFFFFFFFFFFFFFFFFFFFFFFFFF AND PUSH20 0xFFFFFFFFFFFFFFFFFFFFFFFFFFFFFFFFFFFFFFFF AND DUP2 MSTORE PUSH1 0x20 ADD SWAP1 DUP2 MSTORE PUSH1 0x20 ADD PUSH1 0x0 KECCAK256 SLOAD SWAP1 POP SWAP3 SWAP2 POP POP JUMP JUMPDEST PUSH2 0xFD4 PUSH2 0x111E JUMP JUMPDEST PUSH20 0xFFFFFFFFFFFFFFFFFFFFFFFFFFFFFFFFFFFFFFFF AND PUSH1 0x0 DUP1 SLOAD SWAP1 PUSH2 0x100 EXP SWAP1 DIV PUSH20 0xFFFFFFFFFFFFFFFFFFFFFFFFFFFFFFFFFFFFFFFF AND PUSH20 0xFFFFFFFFFFFFFFFFFFFFFFFFFFFFFFFFFFFFFFFF AND EQ PUSH2 0x1061 JUMPI PUSH1 0x40 MLOAD PUSH32 0x8C379A000000000000000000000000000000000000000000000000000000000 DUP2 MSTORE PUSH1 0x4 ADD PUSH2 0x1058 SWAP1 PUSH2 0x283A JUMP JUMPDEST PUSH1 0x40 MLOAD DUP1 SWAP2 SUB SWAP1 REVERT JUMPDEST DUP1 PUSH1 0x0 DUP1 PUSH2 0x100 EXP DUP2 SLOAD DUP2 PUSH20 0xFFFFFFFFFFFFFFFFFFFFFFFFFFFFFFFFFFFFFFFF MUL NOT AND SWAP1 DUP4 PUSH20 0xFFFFFFFFFFFFFFFFFFFFFFFFFFFFFFFFFFFFFFFF AND MUL OR SWAP1 SSTORE POP DUP1 PUSH20 0xFFFFFFFFFFFFFFFFFFFFFFFFFFFFFFFFFFFFFFFF AND PUSH1 0x0 DUP1 SLOAD SWAP1 PUSH2 0x100 EXP SWAP1 DIV PUSH20 0xFFFFFFFFFFFFFFFFFFFFFFFFFFFFFFFFFFFFFFFF AND PUSH20 0xFFFFFFFFFFFFFFFFFFFFFFFFFFFFFFFFFFFFFFFF AND PUSH32 0x8BE0079C531659141344CD1FD0A4F28419497F9722A3DAAFE3B4186F6B6457E0 PUSH1 0x40 MLOAD PUSH1 0x40 MLOAD DUP1 SWAP2 SUB SWAP1 LOG3 POP JUMP JUMPDEST PUSH1 0x0 CALLER SWAP1 POP SWAP1 JUMP JUMPDEST PUSH1 0x0 PUSH20 0xFFFFFFFFFFFFFFFFFFFFFFFFFFFFFFFFFFFFFFFF AND DUP4 PUSH20 0xFFFFFFFFFFFFFFFFFFFFFFFFFFFFFFFFFFFFFFFF AND EQ ISZERO PUSH2 0x1196 JUMPI PUSH1 0x40 MLOAD PUSH32 0x8C379A000000000000000000000000000000000000000000000000000000000 DUP2 MSTORE PUSH1 0x4 ADD PUSH2 0x118D SWAP1 PUSH2 0x287A JUMP JUMPDEST PUSH1 0x40 MLOAD DUP1 SWAP2 SUB SWAP1 REVERT JUMPDEST PUSH1 0x0 PUSH20 0xFFFFFFFFFFFFFFFFFFFFFFFFFFFFFFFFFFFFFFFF AND DUP3 PUSH20 0xFFFFFFFFFFFFFFFFFFFFFFFFFFFFFFFFFFFFFFFF AND EQ ISZERO PUSH2 0x1206 JUMPI PUSH1 0x40 MLOAD PUSH32 0x8C379A000000000000000000000000000000000000000000000000000000000 DUP2 MSTORE PUSH1 0x4 ADD PUSH2 0x11FD SWAP1 PUSH2 0x27DA JUMP JUMPDEST PUSH1 0x40 MLOAD DUP1 SWAP2 SUB SWAP1 REVERT JUMPDEST DUP1 PUSH1 0x5 PUSH1 0x0 DUP6 PUSH20 0xFFFFFFFFFFFFFFFFFFFFFFFFFFFFFFFFFFFFFFFF AND PUSH20 0xFFFFFFFFFFFFFFFFFFFFFFFFFFFFFFFFFFFFFFFF AND DUP2 MSTORE PUSH1 0x20 ADD SWAP1 DUP2 MSTORE PUSH1 0x20 ADD PUSH1 0x0 KECCAK256 PUSH1 0x0 DUP5 PUSH20 0xFFFFFFFFFFFFFFFFFFFFFFFFFFFFFFFFFFFFFFFF AND PUSH20 0xFFFFFFFFFFFFFFFFFFFFFFFFFFFFFFFFFFFFFFFF AND DUP2 MSTORE PUSH1 0x20 ADD SWAP1 DUP2 MSTORE PUSH1 0x20 ADD PUSH1 0x0 KECCAK256 DUP2 SWAP1 SSTORE POP DUP2 PUSH20 0xFFFFFFFFFFFFFFFFFFFFFFFFFFFFFFFFFFFFFFFF AND DUP4 PUSH20 0xFFFFFFFFFFFFFFFFFFFFFFFFFFFFFFFFFFFFFFFF AND PUSH32 0x8C5BE1E5EBEC7D5BD14F71427D1E84F3DD0314C0F7B2291E5B200AC8C7C3B925 DUP4 PUSH1 0x40 MLOAD PUSH2 0x12E4 SWAP2 SWAP1 PUSH2 0x289A JUMP JUMPDEST PUSH1 0x40 MLOAD DUP1 SWAP2 SUB SWAP1 LOG3 POP POP POP JUMP JUMPDEST PUSH1 0x0 DUP1 PUSH20 0xFFFFFFFFFFFFFFFFFFFFFFFFFFFFFFFFFFFFFFFF AND DUP5 PUSH20 0xFFFFFFFFFFFFFFFFFFFFFFFFFFFFFFFFFFFFFFFF AND EQ ISZERO PUSH2 0x1362 JUMPI PUSH1 0x40 MLOAD PUSH32 0x8C379A000000000000000000000000000000000000000000000000000000000 DUP2 MSTORE PUSH1 0x4 ADD PUSH2 0x1359 SWAP1 PUSH2 0x285A JUMP JUMPDEST PUSH1 0x40 MLOAD DUP1 SWAP2 SUB SWAP1 REVERT JUMPDEST PUSH1 0x0 PUSH20 0xFFFFFFFFFFFFFFFFFFFFFFFFFFFFFFFFFFFFFFFF AND DUP4 PUSH20 0xFFFFFFFFFFFFFFFFFFFFFFFFFFFFFFFFFFFFFFFF AND EQ ISZERO PUSH2 0x13D2 JUMPI PUSH1 0x40 MLOAD PUSH32 0x8C379A000000000000000000000000000000000000000000000000000000000 DUP2 MSTORE PUSH1 0x4 ADD PUSH2 0x13C9 SWAP1 PUSH2 0x279A JUMP JUMPDEST PUSH1 0x40 MLOAD DUP1 SWAP2 SUB SWAP1 REVERT JUMPDEST PUSH1 0xD PUSH1 0x14 SWAP1 SLOAD SWAP1 PUSH2 0x100 EXP SWAP1 DIV PUSH1 0xFF AND ISZERO PUSH2 0x13F9 JUMPI PUSH2 0x13F2 DUP5 DUP5 DUP5 PUSH2 0x19D6 JUMP JUMPDEST SWAP1 POP PUSH2 0x196B JUMP JUMPDEST PUSH1 0x0 PUSH2 0x1404 ADDRESS PUSH2 0xB48 JUMP JUMPDEST SWAP1 POP PUSH1 0xD PUSH1 0x14 SWAP1 SLOAD SWAP1 PUSH2 0x100 EXP SWAP1 DIV PUSH1 0xFF AND ISZERO DUP1 ISZERO PUSH2 0x146D JUMPI POP PUSH1 0x7 PUSH1 0x0 DUP7 PUSH20 0xFFFFFFFFFFFFFFFFFFFFFFFFFFFFFFFFFFFFFFFF AND PUSH20 0xFFFFFFFFFFFFFFFFFFFFFFFFFFFFFFFFFFFFFFFF AND DUP2 MSTORE PUSH1 0x20 ADD SWAP1 DUP2 MSTORE PUSH1 0x20 ADD PUSH1 0x0 KECCAK256 PUSH1 0x0 SWAP1 SLOAD SWAP1 PUSH2 0x100 EXP SWAP1 DIV PUSH1 0xFF AND ISZERO JUMPDEST ISZERO PUSH2 0x147C JUMPI PUSH2 0x147B DUP2 PUSH2 0x1BA9 JUMP JUMPDEST JUMPDEST PUSH2 0x14CE DUP4 PUSH1 0x4 PUSH1 0x0 DUP9 PUSH20 0xFFFFFFFFFFFFFFFFFFFFFFFFFFFFFFFFFFFFFFFF AND PUSH20 0xFFFFFFFFFFFFFFFFFFFFFFFFFFFFFFFFFFFFFFFF AND DUP2 MSTORE PUSH1 0x20 ADD SWAP1 DUP2 MSTORE PUSH1 0x20 ADD PUSH1 0x0 KECCAK256 SLOAD PUSH2 0x1F1F SWAP1 SWAP2 SWAP1 PUSH4 0xFFFFFFFF AND JUMP JUMPDEST PUSH1 0x4 PUSH1 0x0 DUP8 PUSH20 0xFFFFFFFFFFFFFFFFFFFFFFFFFFFFFFFFFFFFFFFF AND PUSH20 0xFFFFFFFFFFFFFFFFFFFFFFFFFFFFFFFFFFFFFFFF AND DUP2 MSTORE PUSH1 0x20 ADD SWAP1 DUP2 MSTORE PUSH1 0x20 ADD PUSH1 0x0 KECCAK256 DUP2 SWAP1 SSTORE POP PUSH1 0x0 PUSH1 0x6 PUSH1 0x0 DUP8 PUSH20 0xFFFFFFFFFFFFFFFFFFFFFFFFFFFFFFFFFFFFFFFF AND PUSH20 0xFFFFFFFFFFFFFFFFFFFFFFFFFFFFFFFFFFFFFFFF AND DUP2 MSTORE PUSH1 0x20 ADD SWAP1 DUP2 MSTORE PUSH1 0x20 ADD PUSH1 0x0 KECCAK256 PUSH1 0x0 SWAP1 SLOAD SWAP1 PUSH2 0x100 EXP SWAP1 DIV PUSH1 0xFF AND DUP1 PUSH2 0x15B4 JUMPI POP PUSH1 0x6 PUSH1 0x0 DUP7 PUSH20 0xFFFFFFFFFFFFFFFFFFFFFFFFFFFFFFFFFFFFFFFF AND PUSH20 0xFFFFFFFFFFFFFFFFFFFFFFFFFFFFFFFFFFFFFFFF AND DUP2 MSTORE PUSH1 0x20 ADD SWAP1 DUP2 MSTORE PUSH1 0x20 ADD PUSH1 0x0 KECCAK256 PUSH1 0x0 SWAP1 SLOAD SWAP1 PUSH2 0x100 EXP SWAP1 DIV PUSH1 0xFF AND JUMPDEST ISZERO PUSH2 0x15C1 JUMPI DUP4 SWAP1 POP PUSH2 0x186A JUMP JUMPDEST PUSH1 0x0 PUSH1 0x8 PUSH1 0x0 DUP9 PUSH20 0xFFFFFFFFFFFFFFFFFFFFFFFFFFFFFFFFFFFFFFFF AND PUSH20 0xFFFFFFFFFFFFFFFFFFFFFFFFFFFFFFFFFFFFFFFF AND DUP2 MSTORE PUSH1 0x20 ADD SWAP1 DUP2 MSTORE PUSH1 0x20 ADD PUSH1 0x0 KECCAK256 PUSH1 0x0 SWAP1 SLOAD SWAP1 PUSH2 0x100 EXP SWAP1 DIV PUSH1 0xFF AND ISZERO PUSH2 0x1650 JUMPI PUSH1 0x40 MLOAD PUSH32 0x8C379A000000000000000000000000000000000000000000000000000000000 DUP2 MSTORE PUSH1 0x4 ADD PUSH2 0x1647 SWAP1 PUSH2 0x27BA JUMP JUMPDEST PUSH1 0x40 MLOAD DUP1 SWAP2 SUB SWAP1 REVERT JUMPDEST PUSH1 0x7 PUSH1 0x0 DUP9 PUSH20 0xFFFFFFFFFFFFFFFFFFFFFFFFFFFFFFFFFFFFFFFF AND PUSH20 0xFFFFFFFFFFFFFFFFFFFFFFFFFFFFFFFFFFFFFFFF AND DUP2 MSTORE PUSH1 0x20 ADD SWAP1 DUP2 MSTORE PUSH1 0x20 ADD PUSH1 0x0 KECCAK256 PUSH1 0x0 SWAP1 SLOAD SWAP1 PUSH2 0x100 EXP SWAP1 DIV PUSH1 0xFF AND ISZERO PUSH2 0x16D1 JUMPI PUSH2 0x16CA PUSH1 0x64 PUSH2 0x16BC PUSH1 0x9 SLOAD DUP9 PUSH2 0x1F69 SWAP1 SWAP2 SWAP1 PUSH4 0xFFFFFFFF AND JUMP JUMPDEST PUSH2 0x1FE4 SWAP1 SWAP2 SWAP1 PUSH4 0xFFFFFFFF AND JUMP JUMPDEST SWAP1 POP PUSH2 0x174F JUMP JUMPDEST PUSH1 0x7 PUSH1 0x0 DUP8 PUSH20 0xFFFFFFFFFFFFFFFFFFFFFFFFFFFFFFFFFFFFFFFF AND PUSH20 0xFFFFFFFFFFFFFFFFFFFFFFFFFFFFFFFFFFFFFFFF AND DUP2 MSTORE PUSH1 0x20 ADD SWAP1 DUP2 MSTORE PUSH1 0x20 ADD PUSH1 0x0 KECCAK256 PUSH1 0x0 SWAP1 SLOAD SWAP1 PUSH2 0x100 EXP SWAP1 DIV PUSH1 0xFF AND ISZERO PUSH2 0x174E JUMPI PUSH2 0x174B PUSH1 0x64 PUSH2 0x173D PUSH1 0xA SLOAD DUP9 PUSH2 0x1F69 SWAP1 SWAP2 SWAP1 PUSH4 0xFFFFFFFF AND JUMP JUMPDEST PUSH2 0x1FE4 SWAP1 SWAP2 SWAP1 PUSH4 0xFFFFFFFF AND JUMP JUMPDEST SWAP1 POP JUMPDEST JUMPDEST PUSH1 0x0 DUP2 GT ISZERO PUSH2 0x1853 JUMPI PUSH2 0x17AA DUP2 PUSH1 0x4 PUSH1 0x0 ADDRESS PUSH20 0xFFFFFFFFFFFFFFFFFFFFFFFFFFFFFFFFFFFFFFFF AND PUSH20 0xFFFFFFFFFFFFFFFFFFFFFFFFFFFFFFFFFFFFFFFF AND DUP2 MSTORE PUSH1 0x20 ADD SWAP1 DUP2 MSTORE PUSH1 0x20 ADD PUSH1 0x0 KECCAK256 SLOAD PUSH2 0x202E SWAP1 SWAP2 SWAP1 PUSH4 0xFFFFFFFF AND JUMP JUMPDEST PUSH1 0x4 PUSH1 0x0 ADDRESS PUSH20 0xFFFFFFFFFFFFFFFFFFFFFFFFFFFFFFFFFFFFFFFF AND PUSH20 0xFFFFFFFFFFFFFFFFFFFFFFFFFFFFFFFFFFFFFFFF AND DUP2 MSTORE PUSH1 0x20 ADD SWAP1 DUP2 MSTORE PUSH1 0x20 ADD PUSH1 0x0 KECCAK256 DUP2 SWAP1 SSTORE POP ADDRESS PUSH20 0xFFFFFFFFFFFFFFFFFFFFFFFFFFFFFFFFFFFFFFFF AND DUP8 PUSH20 0xFFFFFFFFFFFFFFFFFFFFFFFFFFFFFFFFFFFFFFFF AND PUSH32 0xDDF252AD1BE2C89B69C2B068FC378DAA952BA7F163C4A11628F55A4DF523B3EF DUP4 PUSH1 0x40 MLOAD PUSH2 0x184A SWAP2 SWAP1 PUSH2 0x289A JUMP JUMPDEST PUSH1 0x40 MLOAD DUP1 SWAP2 SUB SWAP1 LOG3 JUMPDEST PUSH2 0x1866 DUP2 DUP7 PUSH2 0x1F1F SWAP1 SWAP2 SWAP1 PUSH4 0xFFFFFFFF AND JUMP JUMPDEST SWAP2 POP POP JUMPDEST PUSH2 0x18BC DUP2 PUSH1 0x4 PUSH1 0x0 DUP9 PUSH20 0xFFFFFFFFFFFFFFFFFFFFFFFFFFFFFFFFFFFFFFFF AND PUSH20 0xFFFFFFFFFFFFFFFFFFFFFFFFFFFFFFFFFFFFFFFF AND DUP2 MSTORE PUSH1 0x20 ADD SWAP1 DUP2 MSTORE PUSH1 0x20 ADD PUSH1 0x0 KECCAK256 SLOAD PUSH2 0x202E SWAP1 SWAP2 SWAP1 PUSH4 0xFFFFFFFF AND JUMP JUMPDEST PUSH1 0x4 PUSH1 0x0 DUP8 PUSH20 0xFFFFFFFFFFFFFFFFFFFFFFFFFFFFFFFFFFFFFFFF AND PUSH20 0xFFFFFFFFFFFFFFFFFFFFFFFFFFFFFFFFFFFFFFFF AND DUP2 MSTORE PUSH1 0x20 ADD SWAP1 DUP2 MSTORE PUSH1 0x20 ADD PUSH1 0x0 KECCAK256 DUP2 SWAP1 SSTORE POP DUP5 PUSH20 0xFFFFFFFFFFFFFFFFFFFFFFFFFFFFFFFFFFFFFFFF AND DUP7 PUSH20 0xFFFFFFFFFFFFFFFFFFFFFFFFFFFFFFFFFFFFFFFF AND PUSH32 0xDDF252AD1BE2C89B69C2B068FC378DAA952BA7F163C4A11628F55A4DF523B3EF DUP4 PUSH1 0x40 MLOAD PUSH2 0x195C SWAP2 SWAP1 PUSH2 0x289A JUMP JUMPDEST PUSH1 0x40 MLOAD DUP1 SWAP2 SUB SWAP1 LOG3 PUSH1 0x1 SWAP3 POP POP POP JUMPDEST SWAP4 SWAP3 POP POP POP JUMP JUMPDEST PUSH1 0x0 DUP4 DUP4 GT ISZERO DUP3 SWAP1 PUSH2 0x19BA JUMPI PUSH1 0x40 MLOAD PUSH32 0x8C379A000000000000000000000000000000000000000000000000000000000 DUP2 MSTORE PUSH1 0x4 ADD PUSH2 0x19B1 SWAP2 SWAP1 PUSH2 0x2778 JUMP JUMPDEST PUSH1 0x40 MLOAD DUP1 SWAP2 SUB SWAP1 REVERT JUMPDEST POP PUSH1 0x0 DUP4 DUP6 PUSH2 0x19C9 SWAP2 SWAP1 PUSH2 0x2A60 JUMP JUMPDEST SWAP1 POP DUP1 SWAP2 POP POP SWAP4 SWAP3 POP POP POP JUMP JUMPDEST PUSH1 0x0 PUSH2 0x1A61 DUP3 PUSH1 0x40 MLOAD DUP1 PUSH1 0x40 ADD PUSH1 0x40 MSTORE DUP1 PUSH1 0x14 DUP2 MSTORE PUSH1 0x20 ADD PUSH32 0x74656C756666696369656E742042616C616E6365000000000000000000000000 DUP2 MSTORE POP PUSH1 0x4 PUSH1 0x0 DUP9 PUSH20 0xFFFFFFFFFFFFFFFFFFFFFFFFFFFFFFFFFFFFFFFF AND PUSH20 0xFFFFFFFFFFFFFFFFFFFFFFFFFFFFFFFFFFFFFFFF AND DUP2 MSTORE PUSH1 0x20 ADD SWAP1 DUP2 MSTORE PUSH1 0x20 ADD PUSH1 0x0 KECCAK256 SLOAD PUSH2 0x1972 SWAP1 SWAP3 SWAP2 SWAP1 PUSH4 0xFFFFFFFF AND JUMP JUMPDEST PUSH1 0x4 PUSH1 0x0 DUP7 PUSH20 0xFFFFFFFFFFFFFFFFFFFFFFFFFFFFFFFFFFFFFFFF AND PUSH20 0xFFFFFFFFFFFFFFFFFFFFFFFFFFFFFFFFFFFFFFFF AND DUP2 MSTORE PUSH1 0x20 ADD SWAP1 DUP2 MSTORE PUSH1 0x20 ADD PUSH1 0x0 KECCAK256 DUP2 SWAP1 SSTORE POP PUSH2 0x1AF6 DUP3 PUSH1 0x4 PUSH1 0x0 DUP7 PUSH20 0xFFFFFFFFFFFFFFFFFFFFFFFFFFFFFFFFFFFFFFFF AND PUSH20 0xFFFFFFFFFFFFFFFFFFFFFFFFFFFFFFFFFFFFFFFF AND DUP2 MSTORE PUSH1 0x20 ADD SWAP1 DUP2 MSTORE PUSH1 0x20 ADD PUSH1 0x0 KECCAK256 SLOAD PUSH2 0x202E SWAP1 SWAP2 SWAP1 PUSH4 0xFFFFFFFF AND JUMP JUMPDEST PUSH1 0x4 PUSH1 0x0 DUP6 PUSH20 0xFFFFFFFFFFFFFFFFFFFFFFFFFFFFFFFFFFFFFFFF AND PUSH20 0xFFFFFFFFFFFFFFFFFFFFFFFFFFFFFFFFFFFFFFFF AND DUP2 MSTORE PUSH1 0x20 ADD SWAP1 DUP2 MSTORE PUSH1 0x20 ADD PUSH1 0x0 KECCAK256 DUP2 SWAP1 SSTORE POP DUP3 PUSH20 0xFFFFFFFFFFFFFFFFFFFFFFFFFFFFFFFFFFFFFFFF AND DUP5 PUSH20 0xFFFFFFFFFFFFFFFFFFFFFFFFFFFFFFFFFFFFFFFF AND PUSH32 0xDDF252AD1BE2C89B69C2B068FC378DAA952BA7F163C4A11628F55A4DF523B3EF DUP5 PUSH1 0x40 MLOAD PUSH2 0x1B96 SWAP2 SWAP1 PUSH2 0x289A JUMP JUMPDEST PUSH1 0x40 MLOAD DUP1 SWAP2 SUB SWAP1 LOG3 PUSH1 0x1 SWAP1 POP SWAP4 SWAP3 POP POP POP JUMP JUMPDEST PUSH1 0x1 PUSH1 0xD PUSH1 0x14 PUSH2 0x100 EXP DUP2 SLOAD DUP2 PUSH1 0xFF MUL NOT AND SWAP1 DUP4 ISZERO ISZERO MUL OR SWAP1 SSTORE POP PUSH1 0x0 PUSH1 0x2 PUSH8 0xFFFFFFFFFFFFFFFF DUP2 GT ISZERO PUSH2 0x1C07 JUMPI PUSH32 0x4E487B7100000000000000000000000000000000000000000000000000000000 PUSH1 0x0 MSTORE PUSH1 0x41 PUSH1 0x4 MSTORE PUSH1 0x24 PUSH1 0x0 REVERT JUMPDEST PUSH1 0x40 MLOAD SWAP1 DUP1 DUP3 MSTORE DUP1 PUSH1 0x20 MUL PUSH1 0x20 ADD DUP3 ADD PUSH1 0x40 MSTORE DUP1 ISZERO PUSH2 0x1C35 JUMPI DUP2 PUSH1 0x20 ADD PUSH1 0x20 DUP3 MUL DUP1 CALLDATASIZE DUP4 CALLDATACOPY DUP1 DUP3 ADD SWAP2 POP POP SWAP1 POP JUMPDEST POP SWAP1 POP ADDRESS DUP2 PUSH1 0x0 DUP2 MLOAD DUP2 LT PUSH2 0x1C73 JUMPI PUSH32 0x4E487B7100000000000000000000000000000000000000000000000000000000 PUSH1 0x0 MSTORE PUSH1 0x32 PUSH1 0x4 MSTORE PUSH1 0x24 PUSH1 0x0 REVERT JUMPDEST PUSH1 0x20 MUL PUSH1 0x20 ADD ADD SWAP1 PUSH20 0xFFFFFFFFFFFFFFFFFFFFFFFFFFFFFFFFFFFFFFFF AND SWAP1 DUP2 PUSH20 0xFFFFFFFFFFFFFFFFFFFFFFFFFFFFFFFFFFFFFFFF AND DUP2 MSTORE POP POP PUSH1 0xC PUSH1 0x0 SWAP1 SLOAD SWAP1 PUSH2 0x100 EXP SWAP1 DIV PUSH20 0xFFFFFFFFFFFFFFFFFFFFFFFFFFFFFFFFFFFFFFFF AND PUSH20 0xFFFFFFFFFFFFFFFFFFFFFFFFFFFFFFFFFFFFFFFF AND PUSH4 0xAD5C4648 PUSH1 0x40 MLOAD DUP2 PUSH4 0xFFFFFFFF AND PUSH1 0xE0 SHL DUP2 MSTORE PUSH1 0x4 ADD PUSH1 0x20 PUSH1 0x40 MLOAD DUP1 DUP4 SUB DUP2 DUP7 DUP1 EXTCODESIZE ISZERO DUP1 ISZERO PUSH2 0x1D15 JUMPI PUSH1 0x0 DUP1 REVERT JUMPDEST POP GAS STATICCALL ISZERO DUP1 ISZERO PUSH2 0x1D29 JUMPI RETURNDATASIZE PUSH1 0x0 DUP1 RETURNDATACOPY RETURNDATASIZE PUSH1 0x0 REVERT JUMPDEST POP POP POP POP PUSH1 0x40 MLOAD RETURNDATASIZE PUSH1 0x1F NOT PUSH1 0x1F DUP3 ADD AND DUP3 ADD DUP1 PUSH1 0x40 MSTORE POP DUP2 ADD SWAP1 PUSH2 0x1D4D SWAP2 SWAP1 PUSH2 0x21B6 JUMP JUMPDEST DUP2 PUSH1 0x1 DUP2 MLOAD DUP2 LT PUSH2 0x1D87 JUMPI PUSH32 0x4E487B7100000000000000000000000000000000000000000000000000000000 PUSH1 0x0 MSTORE PUSH1 0x32 PUSH1 0x4 MSTORE PUSH1 0x24 PUSH1 0x0 REVERT JUMPDEST PUSH1 0x20 MUL PUSH1 0x20 ADD ADD SWAP1 PUSH20 0xFFFFFFFFFFFFFFFFFFFFFFFFFFFFFFFFFFFFFFFF AND SWAP1 DUP2 PUSH20 0xFFFFFFFFFFFFFFFFFFFFFFFFFFFFFFFFFFFFFFFF AND DUP2 MSTORE POP POP PUSH2 0x1DEE ADDRESS PUSH1 0xC PUSH1 0x0 SWAP1 SLOAD SWAP1 PUSH2 0x100 EXP SWAP1 DIV PUSH20 0xFFFFFFFFFFFFFFFFFFFFFFFFFFFFFFFFFFFFFFFF AND DUP5 PUSH2 0x1126 JUMP JUMPDEST PUSH1 0xC PUSH1 0x0 SWAP1 SLOAD SWAP1 PUSH2 0x100 EXP SWAP1 DIV PUSH20 0xFFFFFFFFFFFFFFFFFFFFFFFFFFFFFFFFFFFFFFFF AND PUSH20 0xFFFFFFFFFFFFFFFFFFFFFFFFFFFFFFFFFFFFFFFF AND PUSH4 0x791AC947 DUP4 PUSH1 0x0 DUP5 ADDRESS TIMESTAMP PUSH1 0x40 MLOAD DUP7 PUSH4 0xFFFFFFFF AND PUSH1 0xE0 SHL DUP2 MSTORE PUSH1 0x4 ADD PUSH2 0x1E52 SWAP6 SWAP5 SWAP4 SWAP3 SWAP2 SWAP1 PUSH2 0x28B5 JUMP JUMPDEST PUSH1 0x0 PUSH1 0x40 MLOAD DUP1 DUP4 SUB DUP2 PUSH1 0x0 DUP8 DUP1 EXTCODESIZE ISZERO DUP1 ISZERO PUSH2 0x1E6C JUMPI PUSH1 0x0 DUP1 REVERT JUMPDEST POP GAS CALL SWAP3 POP POP POP DUP1 ISZERO PUSH2 0x1E7D JUMPI POP PUSH1 0x1 JUMPDEST PUSH2 0x1E86 JUMPI PUSH2 0x1E87 JUMP JUMPDEST JUMPDEST PUSH1 0x0 SELFBALANCE SWAP1 POP PUSH1 0x0 DUP2 GT ISZERO PUSH2 0x1EFF JUMPI PUSH1 0x3 PUSH1 0x1 SWAP1 SLOAD SWAP1 PUSH2 0x100 EXP SWAP1 DIV PUSH20 0xFFFFFFFFFFFFFFFFFFFFFFFFFFFFFFFFFFFFFFFF AND PUSH20 0xFFFFFFFFFFFFFFFFFFFFFFFFFFFFFFFFFFFFFFFF AND PUSH2 0x8FC DUP3 SWAP1 DUP2 ISZERO MUL SWAP1 PUSH1 0x40 MLOAD PUSH1 0x0 PUSH1 0x40 MLOAD DUP1 DUP4 SUB DUP2 DUP6 DUP9 DUP9 CALL SWAP4 POP POP POP POP ISZERO DUP1 ISZERO PUSH2 0x1EFD JUMPI RETURNDATASIZE PUSH1 0x0 DUP1 RETURNDATACOPY RETURNDATASIZE PUSH1 0x0 REVERT JUMPDEST POP JUMPDEST POP POP PUSH1 0x0 PUSH1 0xD PUSH1 0x14 PUSH2 0x100 EXP DUP2 SLOAD DUP2 PUSH1 0xFF MUL NOT AND SWAP1 DUP4 ISZERO ISZERO MUL OR SWAP1 SSTORE POP POP JUMP JUMPDEST PUSH1 0x0 PUSH2 0x1F61 DUP4 DUP4 PUSH1 0x40 MLOAD DUP1 PUSH1 0x40 ADD PUSH1 0x40 MSTORE DUP1 PUSH1 0x1E DUP2 MSTORE PUSH1 0x20 ADD PUSH32 0x536166654D6174683A207375627472616374696F6E206F766572666C6F770000 DUP2 MSTORE POP PUSH2 0x1972 JUMP JUMPDEST SWAP1 POP SWAP3 SWAP2 POP POP JUMP JUMPDEST PUSH1 0x0 DUP1 DUP4 EQ ISZERO PUSH2 0x1F7C JUMPI PUSH1 0x0 SWAP1 POP PUSH2 0x1FDE JUMP JUMPDEST PUSH1 0x0 DUP3 DUP5 PUSH2 0x1F8A SWAP2 SWAP1 PUSH2 0x2A06 JUMP JUMPDEST SWAP1 POP DUP3 DUP5 DUP3 PUSH2 0x1F99 SWAP2 SWAP1 PUSH2 0x29D5 JUMP JUMPDEST EQ PUSH2 0x1FD9 JUMPI PUSH1 0x40 MLOAD PUSH32 0x8C379A000000000000000000000000000000000000000000000000000000000 DUP2 MSTORE PUSH1 0x4 ADD PUSH2 0x1FD0 SWAP1 PUSH2 0x281A JUMP JUMPDEST PUSH1 0x40 MLOAD DUP1 SWAP2 SUB SWAP1 REVERT JUMPDEST DUP1 SWAP2 POP POP JUMPDEST SWAP3 SWAP2 POP POP JUMP JUMPDEST PUSH1 0x0 PUSH2 0x2026 DUP4 DUP4 PUSH1 0x40 MLOAD DUP1 PUSH1 0x40 ADD PUSH1 0x40 MSTORE DUP1 PUSH1 0x1A DUP2 MSTORE PUSH1 0x20 ADD PUSH32 0x536166654D6174683A206469766973696F6E206279207A65726F000000000000 DUP2 MSTORE POP PUSH2 0x208C JUMP JUMPDEST SWAP1 POP SWAP3 SWAP2 POP POP JUMP JUMPDEST PUSH1 0x0 DUP1 DUP3 DUP5 PUSH2 0x203D SWAP2 SWAP1 PUSH2 0x297F JUMP JUMPDEST SWAP1 POP DUP4 DUP2 LT ISZERO PUSH2 0x2082 JUMPI PUSH1 0x40 MLOAD PUSH32 0x8C379A000000000000000000000000000000000000000000000000000000000 DUP2 MSTORE PUSH1 0x4 ADD PUSH2 0x2079 SWAP1 PUSH2 0x27FA JUMP JUMPDEST PUSH1 0x40 MLOAD DUP1 SWAP2 SUB SWAP1 REVERT JUMPDEST DUP1 SWAP2 POP POP SWAP3 SWAP2 POP POP JUMP JUMPDEST PUSH1 0x0 DUP1 DUP4 GT DUP3 SWAP1 PUSH2 0x20D3 JUMPI PUSH1 0x40 MLOAD PUSH32 0x8C379A000000000000000000000000000000000000000000000000000000000 DUP2 MSTORE PUSH1 0x4 ADD PUSH2 0x20CA SWAP2 SWAP1 PUSH2 0x2778 JUMP JUMPDEST PUSH1 0x40 MLOAD DUP1 SWAP2 SUB SWAP1 REVERT JUMPDEST POP PUSH1 0x0 DUP4 DUP6 PUSH2 0x20E2 SWAP2 SWAP1 PUSH2 0x29D5 JUMP JUMPDEST SWAP1 POP DUP1 SWAP2 POP POP SWAP4 SWAP3 POP POP POP JUMP JUMPDEST PUSH1 0x0 DUP2 CALLDATALOAD SWAP1 POP PUSH2 0x20FE DUP2 PUSH2 0x2C7D JUMP JUMPDEST SWAP3 SWAP2 POP POP JUMP JUMPDEST PUSH1 0x0 DUP2 MLOAD SWAP1 POP PUSH2 0x2113 DUP2 PUSH2 0x2C7D JUMP JUMPDEST SWAP3 SWAP2 POP POP JUMP JUMPDEST PUSH1 0x0 DUP1 DUP4 PUSH1 0x1F DUP5 ADD SLT PUSH2 0x212B JUMPI PUSH1 0x0 DUP1 REVERT JUMPDEST DUP3 CALLDATALOAD SWAP1 POP PUSH8 0xFFFFFFFFFFFFFFFF DUP2 GT ISZERO PUSH2 0x2144 JUMPI PUSH1 0x0 DUP1 REVERT JUMPDEST PUSH1 0x20 DUP4 ADD SWAP2 POP DUP4 PUSH1 0x20 DUP3 MUL DUP4 ADD GT ISZERO PUSH2 0x215C JUMPI PUSH1 0x0 DUP1 REVERT JUMPDEST SWAP3 POP SWAP3 SWAP1 POP JUMP JUMPDEST PUSH1 0x0 DUP2 CALLDATALOAD SWAP1 POP PUSH2 0x2172 DUP2 PUSH2 0x2C94 JUMP JUMPDEST SWAP3 SWAP2 POP POP JUMP JUMPDEST PUSH1 0x0 DUP2 CALLDATALOAD SWAP1 POP PUSH2 0x2187 DUP2 PUSH2 0x2CAB JUMP JUMPDEST SWAP3 SWAP2 POP POP JUMP JUMPDEST PUSH1 0x0 PUSH1 0x20 DUP3 DUP5 SUB SLT ISZERO PUSH2 0x219F JUMPI PUSH1 0x0 DUP1 REVERT JUMPDEST PUSH1 0x0 PUSH2 0x21AD DUP5 DUP3 DUP6 ADD PUSH2 0x20EF JUMP JUMPDEST SWAP2 POP POP SWAP3 SWAP2 POP POP JUMP JUMPDEST PUSH1 0x0 PUSH1 0x20 DUP3 DUP5 SUB SLT ISZERO PUSH2 0x21C8 JUMPI PUSH1 0x0 DUP1 REVERT JUMPDEST PUSH1 0x0 PUSH2 0x21D6 DUP5 DUP3 DUP6 ADD PUSH2 0x2104 JUMP JUMPDEST SWAP2 POP POP SWAP3 SWAP2 POP POP JUMP JUMPDEST PUSH1 0x0 DUP1 PUSH1 0x40 DUP4 DUP6 SUB SLT ISZERO PUSH2 0x21F2 JUMPI PUSH1 0x0 DUP1 REVERT JUMPDEST PUSH1 0x0 PUSH2 0x2200 DUP6 DUP3 DUP7 ADD PUSH2 0x20EF JUMP JUMPDEST SWAP3 POP POP PUSH1 0x20 PUSH2 0x2211 DUP6 DUP3 DUP7 ADD PUSH2 0x20EF JUMP JUMPDEST SWAP2 POP POP SWAP3 POP SWAP3 SWAP1 POP JUMP JUMPDEST PUSH1 0x0 DUP1 PUSH1 0x0 PUSH1 0x60 DUP5 DUP7 SUB SLT ISZERO PUSH2 0x2230 JUMPI PUSH1 0x0 DUP1 REVERT JUMPDEST PUSH1 0x0 PUSH2 0x223E DUP7 DUP3 DUP8 ADD PUSH2 0x20EF JUMP JUMPDEST SWAP4 POP POP PUSH1 0x20 PUSH2 0x224F DUP7 DUP3 DUP8 ADD PUSH2 0x20EF JUMP JUMPDEST SWAP3 POP POP PUSH1 0x40 PUSH2 0x2260 DUP7 DUP3 DUP8 ADD PUSH2 0x2178 JUMP JUMPDEST SWAP2 POP POP SWAP3 POP SWAP3 POP SWAP3 JUMP JUMPDEST PUSH1 0x0 DUP1 PUSH1 0x40 DUP4 DUP6 SUB SLT ISZERO PUSH2 0x227D JUMPI PUSH1 0x0 DUP1 REVERT JUMPDEST PUSH1 0x0 PUSH2 0x228B DUP6 DUP3 DUP7 ADD PUSH2 0x20EF JUMP JUMPDEST SWAP3 POP POP PUSH1 0x20 PUSH2 0x229C DUP6 DUP3 DUP7 ADD PUSH2 0x2178 JUMP JUMPDEST SWAP2 POP POP SWAP3 POP SWAP3 SWAP1 POP JUMP JUMPDEST PUSH1 0x0 DUP1 PUSH1 0x0 PUSH1 0x40 DUP5 DUP7 SUB SLT ISZERO PUSH2 0x22BB JUMPI PUSH1 0x0 DUP1 REVERT JUMPDEST PUSH1 0x0 DUP5 ADD CALLDATALOAD PUSH8 0xFFFFFFFFFFFFFFFF DUP2 GT ISZERO PUSH2 0x22D5 JUMPI PUSH1 0x0 DUP1 REVERT JUMPDEST PUSH2 0x22E1 DUP7 DUP3 DUP8 ADD PUSH2 0x2119 JUMP JUMPDEST SWAP4 POP SWAP4 POP POP PUSH1 0x20 PUSH2 0x22F4 DUP7 DUP3 DUP8 ADD PUSH2 0x2163 JUMP JUMPDEST SWAP2 POP POP SWAP3 POP SWAP3 POP SWAP3 JUMP JUMPDEST PUSH1 0x0 PUSH2 0x230A DUP4 DUP4 PUSH2 0x2325 JUMP JUMPDEST PUSH1 0x20 DUP4 ADD SWAP1 POP SWAP3 SWAP2 POP POP JUMP JUMPDEST PUSH2 0x231F DUP2 PUSH2 0x2AA6 JUMP JUMPDEST DUP3 MSTORE POP POP JUMP JUMPDEST PUSH2 0x232E DUP2 PUSH2 0x2A94 JUMP JUMPDEST DUP3 MSTORE POP POP JUMP JUMPDEST PUSH2 0x233D DUP2 PUSH2 0x2A94 JUMP JUMPDEST DUP3 MSTORE POP POP JUMP JUMPDEST PUSH1 0x0 PUSH2 0x234E DUP3 PUSH2 0x293A JUMP JUMPDEST PUSH2 0x2358 DUP2 DUP6 PUSH2 0x295D JUMP JUMPDEST SWAP4 POP PUSH2 0x2363 DUP4 PUSH2 0x292A JUMP JUMPDEST DUP1 PUSH1 0x0 JUMPDEST DUP4 DUP2 LT ISZERO PUSH2 0x2394 JUMPI DUP2 MLOAD PUSH2 0x237B DUP9 DUP3 PUSH2 0x22FE JUMP JUMPDEST SWAP8 POP PUSH2 0x2386 DUP4 PUSH2 0x2950 JUMP JUMPDEST SWAP3 POP POP PUSH1 0x1 DUP2 ADD SWAP1 POP PUSH2 0x2367 JUMP JUMPDEST POP DUP6 SWAP4 POP POP POP POP SWAP3 SWAP2 POP POP JUMP JUMPDEST PUSH2 0x23AA DUP2 PUSH2 0x2AB8 JUMP JUMPDEST DUP3 MSTORE POP POP JUMP JUMPDEST PUSH2 0x23B9 DUP2 PUSH2 0x2AFB JUMP JUMPDEST DUP3 MSTORE POP POP JUMP JUMPDEST PUSH2 0x23C8 DUP2 PUSH2 0x2B1F JUMP JUMPDEST DUP3 MSTORE POP POP JUMP JUMPDEST PUSH1 0x0 PUSH2 0x23D9 DUP3 PUSH2 0x2945 JUMP JUMPDEST PUSH2 0x23E3 DUP2 DUP6 PUSH2 0x296E JUMP JUMPDEST SWAP4 POP PUSH2 0x23F3 DUP2 DUP6 PUSH1 0x20 DUP7 ADD PUSH2 0x2B31 JUMP JUMPDEST PUSH2 0x23FC DUP2 PUSH2 0x2C6C JUMP JUMPDEST DUP5 ADD SWAP2 POP POP SWAP3 SWAP2 POP POP JUMP JUMPDEST PUSH1 0x0 PUSH2 0x2414 PUSH1 0x23 DUP4 PUSH2 0x296E JUMP JUMPDEST SWAP2 POP PUSH32 0x45524332303A207472616E7366657220746F20746865207A65726F2061646472 PUSH1 0x0 DUP4 ADD MSTORE PUSH32 0x6573730000000000000000000000000000000000000000000000000000000000 PUSH1 0x20 DUP4 ADD MSTORE PUSH1 0x40 DUP3 ADD SWAP1 POP SWAP2 SWAP1 POP JUMP JUMPDEST PUSH1 0x0 PUSH2 0x247A PUSH1 0x10 DUP4 PUSH2 0x296E JUMP JUMPDEST SWAP2 POP PUSH32 0x45524332303A20626F744C697374656400000000000000000000000000000000 PUSH1 0x0 DUP4 ADD MSTORE PUSH1 0x20 DUP3 ADD SWAP1 POP SWAP2 SWAP1 POP JUMP JUMPDEST PUSH1 0x0 PUSH2 0x24BA PUSH1 0x22 DUP4 PUSH2 0x296E JUMP JUMPDEST SWAP2 POP PUSH32 0x45524332303A20617070726F766520746F20746865207A65726F206164647265 PUSH1 0x0 DUP4 ADD MSTORE PUSH32 0x7373000000000000000000000000000000000000000000000000000000000000 PUSH1 0x20 DUP4 ADD MSTORE PUSH1 0x40 DUP3 ADD SWAP1 POP SWAP2 SWAP1 POP JUMP JUMPDEST PUSH1 0x0 PUSH2 0x2520 PUSH1 0x1B DUP4 PUSH2 0x296E JUMP JUMPDEST SWAP2 POP PUSH32 0x536166654D6174683A206164646974696F6E206F766572666C6F770000000000 PUSH1 0x0 DUP4 ADD MSTORE PUSH1 0x20 DUP3 ADD SWAP1 POP SWAP2 SWAP1 POP JUMP JUMPDEST PUSH1 0x0 PUSH2 0x2560 PUSH1 0x21 DUP4 PUSH2 0x296E JUMP JUMPDEST SWAP2 POP PUSH32 0x536166654D6174683A206D756C7469706C69636174696F6E206F766572666C6F PUSH1 0x0 DUP4 ADD MSTORE PUSH32 0x7700000000000000000000000000000000000000000000000000000000000000 PUSH1 0x20 DUP4 ADD MSTORE PUSH1 0x40 DUP3 ADD SWAP1 POP SWAP2 SWAP1 POP JUMP JUMPDEST PUSH1 0x0 PUSH2 0x25C6 PUSH1 0x20 DUP4 PUSH2 0x296E JUMP JUMPDEST SWAP2 POP PUSH32 0x4F776E61626C653A2063616C6C6572206973206E6F7420746865206F776E6572 PUSH1 0x0 DUP4 ADD MSTORE PUSH1 0x20 DUP3 ADD SWAP1 POP SWAP2 SWAP1 POP JUMP JUMPDEST PUSH1 0x0 PUSH2 0x2606 PUSH1 0x25 DUP4 PUSH2 0x296E JUMP JUMPDEST SWAP2 POP PUSH32 0x45524332303A207472616E736665722066726F6D20746865207A65726F206164 PUSH1 0x0 DUP4 ADD MSTORE PUSH32 0x6472657373000000000000000000000000000000000000000000000000000000 PUSH1 0x20 DUP4 ADD MSTORE PUSH1 0x40 DUP3 ADD SWAP1 POP SWAP2 SWAP1 POP JUMP JUMPDEST PUSH1 0x0 PUSH2 0x266C PUSH1 0x24 DUP4 PUSH2 0x296E JUMP JUMPDEST SWAP2 POP PUSH32 0x45524332303A20617070726F76652066726F6D20746865207A65726F20616464 PUSH1 0x0 DUP4 ADD MSTORE PUSH32 0x7265737300000000000000000000000000000000000000000000000000000000 PUSH1 0x20 DUP4 ADD MSTORE PUSH1 0x40 DUP3 ADD SWAP1 POP SWAP2 SWAP1 POP JUMP JUMPDEST PUSH2 0x26CE DUP2 PUSH2 0x2AE4 JUMP JUMPDEST DUP3 MSTORE POP POP JUMP JUMPDEST PUSH2 0x26DD DUP2 PUSH2 0x2AEE JUMP JUMPDEST DUP3 MSTORE POP POP JUMP JUMPDEST PUSH1 0x0 PUSH1 0x20 DUP3 ADD SWAP1 POP PUSH2 0x26F8 PUSH1 0x0 DUP4 ADD DUP5 PUSH2 0x2334 JUMP JUMPDEST SWAP3 SWAP2 POP POP JUMP JUMPDEST PUSH1 0x0 PUSH1 0x20 DUP3 ADD SWAP1 POP PUSH2 0x2713 PUSH1 0x0 DUP4 ADD DUP5 PUSH2 0x2316 JUMP JUMPDEST SWAP3 SWAP2 POP POP JUMP JUMPDEST PUSH1 0x0 PUSH1 0x40 DUP3 ADD SWAP1 POP PUSH2 0x272E PUSH1 0x0 DUP4 ADD DUP6 PUSH2 0x2334 JUMP JUMPDEST PUSH2 0x273B PUSH1 0x20 DUP4 ADD DUP5 PUSH2 0x2334 JUMP JUMPDEST SWAP4 SWAP3 POP POP POP JUMP JUMPDEST PUSH1 0x0 PUSH1 0x20 DUP3 ADD SWAP1 POP PUSH2 0x2757 PUSH1 0x0 DUP4 ADD DUP5 PUSH2 0x23A1 JUMP JUMPDEST SWAP3 SWAP2 POP POP JUMP JUMPDEST PUSH1 0x0 PUSH1 0x20 DUP3 ADD SWAP1 POP PUSH2 0x2772 PUSH1 0x0 DUP4 ADD DUP5 PUSH2 0x23B0 JUMP JUMPDEST SWAP3 SWAP2 POP POP JUMP JUMPDEST PUSH1 0x0 PUSH1 0x20 DUP3 ADD SWAP1 POP DUP2 DUP2 SUB PUSH1 0x0 DUP4 ADD MSTORE PUSH2 0x2792 DUP2 DUP5 PUSH2 0x23CE JUMP JUMPDEST SWAP1 POP SWAP3 SWAP2 POP POP JUMP JUMPDEST PUSH1 0x0 PUSH1 0x20 DUP3 ADD SWAP1 POP DUP2 DUP2 SUB PUSH1 0x0 DUP4 ADD MSTORE PUSH2 0x27B3 DUP2 PUSH2 0x2407 JUMP JUMPDEST SWAP1 POP SWAP2 SWAP1 POP JUMP JUMPDEST PUSH1 0x0 PUSH1 0x20 DUP3 ADD SWAP1 POP DUP2 DUP2 SUB PUSH1 0x0 DUP4 ADD MSTORE PUSH2 0x27D3 DUP2 PUSH2 0x246D JUMP JUMPDEST SWAP1 POP SWAP2 SWAP1 POP JUMP JUMPDEST PUSH1 0x0 PUSH1 0x20 DUP3 ADD SWAP1 POP DUP2 DUP2 SUB PUSH1 0x0 DUP4 ADD MSTORE PUSH2 0x27F3 DUP2 PUSH2 0x24AD JUMP JUMPDEST SWAP1 POP SWAP2 SWAP1 POP JUMP JUMPDEST PUSH1 0x0 PUSH1 0x20 DUP3 ADD SWAP1 POP DUP2 DUP2 SUB PUSH1 0x0 DUP4 ADD MSTORE PUSH2 0x2813 DUP2 PUSH2 0x2513 JUMP JUMPDEST SWAP1 POP SWAP2 SWAP1 POP JUMP JUMPDEST PUSH1 0x0 PUSH1 0x20 DUP3 ADD SWAP1 POP DUP2 DUP2 SUB PUSH1 0x0 DUP4 ADD MSTORE PUSH2 0x2833 DUP2 PUSH2 0x2553 JUMP JUMPDEST SWAP1 POP SWAP2 SWAP1 POP JUMP JUMPDEST PUSH1 0x0 PUSH1 0x20 DUP3 ADD SWAP1 POP DUP2 DUP2 SUB PUSH1 0x0 DUP4 ADD MSTORE PUSH2 0x2853 DUP2 PUSH2 0x25B9 JUMP JUMPDEST SWAP1 POP SWAP2 SWAP1 POP JUMP JUMPDEST PUSH1 0x0 PUSH1 0x20 DUP3 ADD SWAP1 POP DUP2 DUP2 SUB PUSH1 0x0 DUP4 ADD MSTORE PUSH2 0x2873 DUP2 PUSH2 0x25F9 JUMP JUMPDEST SWAP1 POP SWAP2 SWAP1 POP JUMP JUMPDEST PUSH1 0x0 PUSH1 0x20 DUP3 ADD SWAP1 POP DUP2 DUP2 SUB PUSH1 0x0 DUP4 ADD MSTORE PUSH2 0x2893 DUP2 PUSH2 0x265F JUMP JUMPDEST SWAP1 POP SWAP2 SWAP1 POP JUMP JUMPDEST PUSH1 0x0 PUSH1 0x20 DUP3 ADD SWAP1 POP PUSH2 0x28AF PUSH1 0x0 DUP4 ADD DUP5 PUSH2 0x26C5 JUMP JUMPDEST SWAP3 SWAP2 POP POP JUMP JUMPDEST PUSH1 0x0 PUSH1 0xA0 DUP3 ADD SWAP1 POP PUSH2 0x28CA PUSH1 0x0 DUP4 ADD DUP9 PUSH2 0x26C5 JUMP JUMPDEST PUSH2 0x28D7 PUSH1 0x20 DUP4 ADD DUP8 PUSH2 0x23BF JUMP JUMPDEST DUP2 DUP2 SUB PUSH1 0x40 DUP4 ADD MSTORE PUSH2 0x28E9 DUP2 DUP7 PUSH2 0x2343 JUMP JUMPDEST SWAP1 POP PUSH2 0x28F8 PUSH1 0x60 DUP4 ADD DUP6 PUSH2 0x2334 JUMP JUMPDEST PUSH2 0x2905 PUSH1 0x80 DUP4 ADD DUP5 PUSH2 0x26C5 JUMP JUMPDEST SWAP7 SWAP6 POP POP POP POP POP POP JUMP JUMPDEST PUSH1 0x0 PUSH1 0x20 DUP3 ADD SWAP1 POP PUSH2 0x2924 PUSH1 0x0 DUP4 ADD DUP5 PUSH2 0x26D4 JUMP JUMPDEST SWAP3 SWAP2 POP POP JUMP JUMPDEST PUSH1 0x0 DUP2 SWAP1 POP PUSH1 0x20 DUP3 ADD SWAP1 POP SWAP2 SWAP1 POP JUMP JUMPDEST PUSH1 0x0 DUP2 MLOAD SWAP1 POP SWAP2 SWAP1 POP JUMP JUMPDEST PUSH1 0x0 DUP2 MLOAD SWAP1 POP SWAP2 SWAP1 POP JUMP JUMPDEST PUSH1 0x0 PUSH1 0x20 DUP3 ADD SWAP1 POP SWAP2 SWAP1 POP JUMP JUMPDEST PUSH1 0x0 DUP3 DUP3 MSTORE PUSH1 0x20 DUP3 ADD SWAP1 POP SWAP3 SWAP2 POP POP JUMP JUMPDEST PUSH1 0x0 DUP3 DUP3 MSTORE PUSH1 0x20 DUP3 ADD SWAP1 POP SWAP3 SWAP2 POP POP JUMP JUMPDEST PUSH1 0x0 PUSH2 0x298A DUP3 PUSH2 0x2AE4 JUMP JUMPDEST SWAP2 POP PUSH2 0x2995 DUP4 PUSH2 0x2AE4 JUMP JUMPDEST SWAP3 POP DUP3 PUSH32 0xFFFFFFFFFFFFFFFFFFFFFFFFFFFFFFFFFFFFFFFFFFFFFFFFFFFFFFFFFFFFFFFF SUB DUP3 GT ISZERO PUSH2 0x29CA JUMPI PUSH2 0x29C9 PUSH2 0x2BDF JUMP JUMPDEST JUMPDEST DUP3 DUP3 ADD SWAP1 POP SWAP3 SWAP2 POP POP JUMP JUMPDEST PUSH1 0x0 PUSH2 0x29E0 DUP3 PUSH2 0x2AE4 JUMP JUMPDEST SWAP2 POP PUSH2 0x29EB DUP4 PUSH2 0x2AE4 JUMP JUMPDEST SWAP3 POP DUP3 PUSH2 0x29FB JUMPI PUSH2 0x29FA PUSH2 0x2C0E JUMP JUMPDEST JUMPDEST DUP3 DUP3 DIV SWAP1 POP SWAP3 SWAP2 POP POP JUMP JUMPDEST PUSH1 0x0 PUSH2 0x2A11 DUP3 PUSH2 0x2AE4 JUMP JUMPDEST SWAP2 POP PUSH2 0x2A1C DUP4 PUSH2 0x2AE4 JUMP JUMPDEST SWAP3 POP DUP2 PUSH32 0xFFFFFFFFFFFFFFFFFFFFFFFFFFFFFFFFFFFFFFFFFFFFFFFFFFFFFFFFFFFFFFFF DIV DUP4 GT DUP3 ISZERO ISZERO AND ISZERO PUSH2 0x2A55 JUMPI PUSH2 0x2A54 PUSH2 0x2BDF JUMP JUMPDEST JUMPDEST DUP3 DUP3 MUL SWAP1 POP SWAP3 SWAP2 POP POP JUMP JUMPDEST PUSH1 0x0 PUSH2 0x2A6B DUP3 PUSH2 0x2AE4 JUMP JUMPDEST SWAP2 POP PUSH2 0x2A76 DUP4 PUSH2 0x2AE4 JUMP JUMPDEST SWAP3 POP DUP3 DUP3 LT ISZERO PUSH2 0x2A89 JUMPI PUSH2 0x2A88 PUSH2 0x2BDF JUMP JUMPDEST JUMPDEST DUP3 DUP3 SUB SWAP1 POP SWAP3 SWAP2 POP POP JUMP JUMPDEST PUSH1 0x0 PUSH2 0x2A9F DUP3 PUSH2 0x2AC4 JUMP JUMPDEST SWAP1 POP SWAP2 SWAP1 POP JUMP JUMPDEST PUSH1 0x0 PUSH2 0x2AB1 DUP3 PUSH2 0x2AC4 JUMP JUMPDEST SWAP1 POP SWAP2 SWAP1 POP JUMP JUMPDEST PUSH1 0x0 DUP2 ISZERO ISZERO SWAP1 POP SWAP2 SWAP1 POP JUMP JUMPDEST PUSH1 0x0 PUSH20 0xFFFFFFFFFFFFFFFFFFFFFFFFFFFFFFFFFFFFFFFF DUP3 AND SWAP1 POP SWAP2 SWAP1 POP JUMP JUMPDEST PUSH1 0x0 DUP2 SWAP1 POP SWAP2 SWAP1 POP JUMP JUMPDEST PUSH1 0x0 PUSH1 0xFF DUP3 AND SWAP1 POP SWAP2 SWAP1 POP JUMP JUMPDEST PUSH1 0x0 PUSH2 0x2B06 DUP3 PUSH2 0x2B0D JUMP JUMPDEST SWAP1 POP SWAP2 SWAP1 POP JUMP JUMPDEST PUSH1 0x0 PUSH2 0x2B18 DUP3 PUSH2 0x2AC4 JUMP JUMPDEST SWAP1 POP SWAP2 SWAP1 POP JUMP JUMPDEST PUSH1 0x0 PUSH2 0x2B2A DUP3 PUSH2 0x2AE4 JUMP JUMPDEST SWAP1 POP SWAP2 SWAP1 POP JUMP JUMPDEST PUSH1 0x0 JUMPDEST DUP4 DUP2 LT ISZERO PUSH2 0x2B4F JUMPI DUP1 DUP3 ADD MLOAD DUP2 DUP5 ADD MSTORE PUSH1 0x20 DUP2 ADD SWAP1 POP PUSH2 0x2B34 JUMP JUMPDEST DUP4 DUP2 GT ISZERO PUSH2 0x2B5E JUMPI PUSH1 0x0 DUP5 DUP5 ADD MSTORE JUMPDEST POP POP POP POP JUMP JUMPDEST PUSH1 0x0 PUSH1 0x2 DUP3 DIV SWAP1 POP PUSH1 0x1 DUP3 AND DUP1 PUSH2 0x2B7C JUMPI PUSH1 0x7F DUP3 AND SWAP2 POP JUMPDEST PUSH1 0x20 DUP3 LT DUP2 EQ ISZERO PUSH2 0x2B90 JUMPI PUSH2 0x2B8F PUSH2 0x2C3D JUMP JUMPDEST JUMPDEST POP SWAP2 SWAP1 POP JUMP JUMPDEST PUSH1 0x0 PUSH2 0x2BA1 DUP3 PUSH2 0x2AE4 JUMP JUMPDEST SWAP2 POP PUSH32 0xFFFFFFFFFFFFFFFFFFFFFFFFFFFFFFFFFFFFFFFFFFFFFFFFFFFFFFFFFFFFFFFF DUP3 EQ ISZERO PUSH2 0x2BD4 JUMPI PUSH2 0x2BD3 PUSH2 0x2BDF JUMP JUMPDEST JUMPDEST PUSH1 0x1 DUP3 ADD SWAP1 POP SWAP2 SWAP1 POP JUMP JUMPDEST PUSH32 0x4E487B7100000000000000000000000000000000000000000000000000000000 PUSH1 0x0 MSTORE PUSH1 0x11 PUSH1 0x4 MSTORE PUSH1 0x24 PUSH1 0x0 REVERT JUMPDEST PUSH32 0x4E487B7100000000000000000000000000000000000000000000000000000000 PUSH1 0x0 MSTORE PUSH1 0x12 PUSH1 0x4 MSTORE PUSH1 0x24 PUSH1 0x0 REVERT JUMPDEST PUSH32 0x4E487B7100000000000000000000000000000000000000000000000000000000 PUSH1 0x0 MSTORE PUSH1 0x22 PUSH1 0x4 MSTORE PUSH1 0x24 PUSH1 0x0 REVERT JUMPDEST PUSH1 0x0 PUSH1 0x1F NOT PUSH1 0x1F DUP4 ADD AND SWAP1 POP SWAP2 SWAP1 POP JUMP JUMPDEST PUSH2 0x2C86 DUP2 PUSH2 0x2A94 JUMP JUMPDEST DUP2 EQ PUSH2 0x2C91 JUMPI PUSH1 0x0 DUP1 REVERT JUMPDEST POP JUMP JUMPDEST PUSH2 0x2C9D DUP2 PUSH2 0x2AB8 JUMP JUMPDEST DUP2 EQ PUSH2 0x2CA8 JUMPI PUSH1 0x0 DUP1 REVERT JUMPDEST POP JUMP JUMPDEST PUSH2 0x2CB4 DUP2 PUSH2 0x2AE4 JUMP JUMPDEST DUP2 EQ PUSH2 0x2CBF JUMPI PUSH1 0x0 DUP1 REVERT JUMPDEST POP JUMP INVALID GASLIMIT MSTORE NUMBER ORIGIN ADDRESS GASPRICE KECCAK256 PUSH21 0x72616E7366657220616D6F756E7420657863656564 PUSH20 0x20616C6C6F77616E6365A2646970667358221220 CALL MSTORE8 ADD 0xAF SWAP13 0xD9 0xD6 ORIGIN PUSH3 0x1375D5 0xB3 0xE9 BYTE CALLDATACOPY 0x49 0xEC 0xA9 0x23 PUSH27 0x203EE0B5E925EDA6000E4B64736F6C634300080000330000000000 "
				},
				"gasEstimates": {
					"creation": {
						"codeDepositCost": "2310400",
						"executionCost": "infinite",
						"totalCost": "infinite"
					},
					"external": {
						"Launch()": "infinite",
						"_FeeETH()": "1354",
						"_buyMarketingFee()": "1173",
						"_frontRunBotList(address)": "1567",
						"_isExcludefromFee(address)": "1634",
						"_sellMarketingFee()": "1217",
						"allowance(address,address)": "infinite",
						"approve(address,uint256)": "infinite",
						"balanceOf(address)": "1564",
						"decimals()": "1246",
						"isMarketPair(address)": "1656",
						"multiFrontListed(address[],bool)": "infinite",
						"name()": "infinite",
						"owner()": "1267",
						"symbol()": "infinite",
						"totalSupply()": "1160",
						"transfer(address,uint256)": "infinite",
						"transferFrom(address,address,uint256)": "infinite",
						"transferOwnership(address)": "24734",
						"uniswapPair()": "1280",
						"uniswapV2Router()": "1369"
					},
					"internal": {
						"_approve(address,address,uint256)": "infinite",
						"_basicTransfer(address,address,uint256)": "infinite",
						"_transfer(address,address,uint256)": "infinite",
						"swapAndLiquify(uint256)": "infinite"
					}
				},
				"methodIdentifiers": {
					"Launch()": "02ac8168",
					"_FeeETH()": "0f401d7d",
					"_buyMarketingFee()": "c5d24189",
					"_frontRunBotList(address)": "c3993033",
					"_isExcludefromFee(address)": "3345611e",
					"_sellMarketingFee()": "c8607952",
					"allowance(address,address)": "dd62ed3e",
					"approve(address,uint256)": "095ea7b3",
					"balanceOf(address)": "70a08231",
					"decimals()": "313ce567",
					"isMarketPair(address)": "3ecad271",
					"multiFrontListed(address[],bool)": "bb06dbc0",
					"name()": "06fdde03",
					"owner()": "8da5cb5b",
					"symbol()": "95d89b41",
					"totalSupply()": "18160ddd",
					"transfer(address,uint256)": "a9059cbb",
					"transferFrom(address,address,uint256)": "23b872dd",
					"transferOwnership(address)": "f2fde38b",
					"uniswapPair()": "c816841b",
					"uniswapV2Router()": "1694505e"
				}
			},
			"storageLayout": {
				"storage": [
					{
						"astId": 96,
						"contract": "BlackTsuga.sol:BlackTsuka",
						"label": "_owner",
						"offset": 0,
						"slot": "0",
						"type": "t_address"
					},
					{
						"astId": 389,
						"contract": "BlackTsuga.sol:BlackTsuka",
						"label": "_name",
						"offset": 0,
						"slot": "1",
						"type": "t_string_storage"
					},
					{
						"astId": 392,
						"contract": "BlackTsuga.sol:BlackTsuka",
						"label": "_symbol",
						"offset": 0,
						"slot": "2",
						"type": "t_string_storage"
					},
					{
						"astId": 395,
						"contract": "BlackTsuga.sol:BlackTsuka",
						"label": "_decimals",
						"offset": 0,
						"slot": "3",
						"type": "t_uint8"
					},
					{
						"astId": 397,
						"contract": "BlackTsuga.sol:BlackTsuka",
						"label": "_FeeETH",
						"offset": 1,
						"slot": "3",
						"type": "t_address_payable"
					},
					{
						"astId": 401,
						"contract": "BlackTsuga.sol:BlackTsuka",
						"label": "_balances",
						"offset": 0,
						"slot": "4",
						"type": "t_mapping(t_address,t_uint256)"
					},
					{
						"astId": 407,
						"contract": "BlackTsuga.sol:BlackTsuka",
						"label": "_allowances",
						"offset": 0,
						"slot": "5",
						"type": "t_mapping(t_address,t_mapping(t_address,t_uint256))"
					},
					{
						"astId": 411,
						"contract": "BlackTsuga.sol:BlackTsuka",
						"label": "_isExcludefromFee",
						"offset": 0,
						"slot": "6",
						"type": "t_mapping(t_address,t_bool)"
					},
					{
						"astId": 415,
						"contract": "BlackTsuga.sol:BlackTsuka",
						"label": "isMarketPair",
						"offset": 0,
						"slot": "7",
						"type": "t_mapping(t_address,t_bool)"
					},
					{
						"astId": 419,
						"contract": "BlackTsuga.sol:BlackTsuka",
						"label": "_frontRunBotList",
						"offset": 0,
						"slot": "8",
						"type": "t_mapping(t_address,t_bool)"
					},
					{
						"astId": 422,
						"contract": "BlackTsuga.sol:BlackTsuka",
						"label": "_buyMarketingFee",
						"offset": 0,
						"slot": "9",
						"type": "t_uint256"
					},
					{
						"astId": 425,
						"contract": "BlackTsuga.sol:BlackTsuka",
						"label": "_sellMarketingFee",
						"offset": 0,
						"slot": "10",
						"type": "t_uint256"
					},
					{
						"astId": 432,
						"contract": "BlackTsuga.sol:BlackTsuka",
						"label": "_totalSupply",
						"offset": 0,
						"slot": "11",
						"type": "t_uint256"
					},
					{
						"astId": 435,
						"contract": "BlackTsuga.sol:BlackTsuka",
						"label": "uniswapV2Router",
						"offset": 0,
						"slot": "12",
						"type": "t_contract(IUniswapV2Router02)377"
					},
					{
						"astId": 437,
						"contract": "BlackTsuga.sol:BlackTsuka",
						"label": "uniswapPair",
						"offset": 0,
						"slot": "13",
						"type": "t_address"
					},
					{
						"astId": 439,
						"contract": "BlackTsuga.sol:BlackTsuka",
						"label": "inSwapAndLiquify",
						"offset": 20,
						"slot": "13",
						"type": "t_bool"
					}
				],
				"types": {
					"t_address": {
						"encoding": "inplace",
						"label": "address",
						"numberOfBytes": "20"
					},
					"t_address_payable": {
						"encoding": "inplace",
						"label": "address payable",
						"numberOfBytes": "20"
					},
					"t_bool": {
						"encoding": "inplace",
						"label": "bool",
						"numberOfBytes": "1"
					},
					"t_contract(IUniswapV2Router02)377": {
						"encoding": "inplace",
						"label": "contract IUniswapV2Router02",
						"numberOfBytes": "20"
					},
					"t_mapping(t_address,t_bool)": {
						"encoding": "mapping",
						"key": "t_address",
						"label": "mapping(address => bool)",
						"numberOfBytes": "32",
						"value": "t_bool"
					},
					"t_mapping(t_address,t_mapping(t_address,t_uint256))": {
						"encoding": "mapping",
						"key": "t_address",
						"label": "mapping(address => mapping(address => uint256))",
						"numberOfBytes": "32",
						"value": "t_mapping(t_address,t_uint256)"
					},
					"t_mapping(t_address,t_uint256)": {
						"encoding": "mapping",
						"key": "t_address",
						"label": "mapping(address => uint256)",
						"numberOfBytes": "32",
						"value": "t_uint256"
					},
					"t_string_storage": {
						"encoding": "bytes",
						"label": "string",
						"numberOfBytes": "32"
					},
					"t_uint256": {
						"encoding": "inplace",
						"label": "uint256",
						"numberOfBytes": "32"
					},
					"t_uint8": {
						"encoding": "inplace",
						"label": "uint8",
						"numberOfBytes": "1"
					}
				}
			},
			"userdoc": {
				"kind": "user",
				"methods": {},
				"version": 1
			}
		}
	}
}