{
	"Bank.sol": {
		"Bank": {
			"abi": [
				{
					"inputs": [
						{
							"internalType": "contract Logger",
							"name": "_logger",
							"type": "address"
						}
					],
					"stateMutability": "nonpayable",
					"type": "constructor"
				},
				{
					"inputs": [
						{
							"internalType": "address",
							"name": "",
							"type": "address"
						}
					],
					"name": "balances",
					"outputs": [
						{
							"internalType": "uint256",
							"name": "",
							"type": "uint256"
						}
					],
					"stateMutability": "view",
					"type": "function"
				},
				{
					"inputs": [],
					"name": "deposit",
					"outputs": [],
					"stateMutability": "payable",
					"type": "function"
				},
				{
					"inputs": [],
					"name": "getBalanceBank",
					"outputs": [
						{
							"internalType": "uint256",
							"name": "",
							"type": "uint256"
						}
					],
					"stateMutability": "view",
					"type": "function"
				},
				{
					"inputs": [
						{
							"internalType": "uint256",
							"name": "_amount",
							"type": "uint256"
						}
					],
					"name": "withdraw",
					"outputs": [],
					"stateMutability": "nonpayable",
					"type": "function"
				}
			],
			"devdoc": {
				"kind": "dev",
				"methods": {},
				"version": 1
			},
			"evm": {
				"assembly": "    /* \"Bank.sol\":926:1716  contract Bank {... */\n  mstore(0x40, 0x80)\n    /* \"Bank.sol\":1012:1081  constructor(Logger _logger) {... */\n  callvalue\n  dup1\n  iszero\n  tag_1\n  jumpi\n  0x00\n  dup1\n  revert\ntag_1:\n  pop\n  mload(0x40)\n  sub(codesize, bytecodeSize)\n  dup1\n  bytecodeSize\n  dup4\n  codecopy\n  dup2\n  dup2\n  add\n  0x40\n  mstore\n  dup2\n  add\n  swap1\n  tag_2\n  swap2\n  swap1\n  tag_3\n  jump\t// in\ntag_2:\n    /* \"Bank.sol\":1066:1073  _logger */\n  dup1\n    /* \"Bank.sol\":1050:1056  logger */\n  0x01\n  0x00\n    /* \"Bank.sol\":1050:1074  logger = Logger(_logger) */\n  0x0100\n  exp\n  dup2\n  sload\n  dup2\n  0xffffffffffffffffffffffffffffffffffffffff\n  mul\n  not\n  and\n  swap1\n  dup4\n  0xffffffffffffffffffffffffffffffffffffffff\n  and\n  mul\n  or\n  swap1\n  sstore\n  pop\n    /* \"Bank.sol\":1012:1081  constructor(Logger _logger) {... */\n  pop\n    /* \"Bank.sol\":926:1716  contract Bank {... */\n  jump(tag_6)\n    /* \"#utility.yul\":88:205   */\ntag_8:\n    /* \"#utility.yul\":197:198   */\n  0x00\n    /* \"#utility.yul\":194:195   */\n  dup1\n    /* \"#utility.yul\":187:199   */\n  revert\n    /* \"#utility.yul\":334:460   */\ntag_10:\n    /* \"#utility.yul\":371:378   */\n  0x00\n    /* \"#utility.yul\":411:453   */\n  0xffffffffffffffffffffffffffffffffffffffff\n    /* \"#utility.yul\":404:409   */\n  dup3\n    /* \"#utility.yul\":400:454   */\n  and\n    /* \"#utility.yul\":389:454   */\n  swap1\n  pop\n    /* \"#utility.yul\":334:460   */\n  swap2\n  swap1\n  pop\n  jump\t// out\n    /* \"#utility.yul\":466:562   */\ntag_11:\n    /* \"#utility.yul\":503:510   */\n  0x00\n    /* \"#utility.yul\":532:556   */\n  tag_21\n    /* \"#utility.yul\":550:555   */\n  dup3\n    /* \"#utility.yul\":532:556   */\n  tag_10\n  jump\t// in\ntag_21:\n    /* \"#utility.yul\":521:556   */\n  swap1\n  pop\n    /* \"#utility.yul\":466:562   */\n  swap2\n  swap1\n  pop\n  jump\t// out\n    /* \"#utility.yul\":568:678   */\ntag_12:\n    /* \"#utility.yul\":619:626   */\n  0x00\n    /* \"#utility.yul\":648:672   */\n  tag_23\n    /* \"#utility.yul\":666:671   */\n  dup3\n    /* \"#utility.yul\":648:672   */\n  tag_11\n  jump\t// in\ntag_23:\n    /* \"#utility.yul\":637:672   */\n  swap1\n  pop\n    /* \"#utility.yul\":568:678   */\n  swap2\n  swap1\n  pop\n  jump\t// out\n    /* \"#utility.yul\":684:834   */\ntag_13:\n    /* \"#utility.yul\":771:809   */\n  tag_25\n    /* \"#utility.yul\":803:808   */\n  dup2\n    /* \"#utility.yul\":771:809   */\n  tag_12\n  jump\t// in\ntag_25:\n    /* \"#utility.yul\":764:769   */\n  dup2\n    /* \"#utility.yul\":761:810   */\n  eq\n    /* \"#utility.yul\":751:828   */\n  tag_26\n  jumpi\n    /* \"#utility.yul\":824:825   */\n  0x00\n    /* \"#utility.yul\":821:822   */\n  dup1\n    /* \"#utility.yul\":814:826   */\n  revert\n    /* \"#utility.yul\":751:828   */\ntag_26:\n    /* \"#utility.yul\":684:834   */\n  pop\n  jump\t// out\n    /* \"#utility.yul\":840:1011   */\ntag_14:\n    /* \"#utility.yul\":911:916   */\n  0x00\n    /* \"#utility.yul\":942:948   */\n  dup2\n    /* \"#utility.yul\":936:949   */\n  mload\n    /* \"#utility.yul\":927:949   */\n  swap1\n  pop\n    /* \"#utility.yul\":958:1005   */\n  tag_28\n    /* \"#utility.yul\":999:1004   */\n  dup2\n    /* \"#utility.yul\":958:1005   */\n  tag_13\n  jump\t// in\ntag_28:\n    /* \"#utility.yul\":840:1011   */\n  swap3\n  swap2\n  pop\n  pop\n  jump\t// out\n    /* \"#utility.yul\":1017:1396   */\ntag_3:\n    /* \"#utility.yul\":1101:1107   */\n  0x00\n    /* \"#utility.yul\":1150:1152   */\n  0x20\n    /* \"#utility.yul\":1138:1147   */\n  dup3\n    /* \"#utility.yul\":1129:1136   */\n  dup5\n    /* \"#utility.yul\":1125:1148   */\n  sub\n    /* \"#utility.yul\":1121:1153   */\n  slt\n    /* \"#utility.yul\":1118:1237   */\n  iszero\n  tag_30\n  jumpi\n    /* \"#utility.yul\":1156:1235   */\n  tag_31\n  tag_8\n  jump\t// in\ntag_31:\n    /* \"#utility.yul\":1118:1237   */\ntag_30:\n    /* \"#utility.yul\":1276:1277   */\n  0x00\n    /* \"#utility.yul\":1301:1379   */\n  tag_32\n    /* \"#utility.yul\":1371:1378   */\n  dup5\n    /* \"#utility.yul\":1362:1368   */\n  dup3\n    /* \"#utility.yul\":1351:1360   */\n  dup6\n    /* \"#utility.yul\":1347:1369   */\n  add\n    /* \"#utility.yul\":1301:1379   */\n  tag_14\n  jump\t// in\ntag_32:\n    /* \"#utility.yul\":1291:1379   */\n  swap2\n  pop\n    /* \"#utility.yul\":1247:1389   */\n  pop\n    /* \"#utility.yul\":1017:1396   */\n  swap3\n  swap2\n  pop\n  pop\n  jump\t// out\n    /* \"Bank.sol\":926:1716  contract Bank {... */\ntag_6:\n  dataSize(sub_0)\n  dup1\n  dataOffset(sub_0)\n  0x00\n  codecopy\n  0x00\n  return\nstop\n\nsub_0: assembly {\n        /* \"Bank.sol\":926:1716  contract Bank {... */\n      mstore(0x40, 0x80)\n      jumpi(tag_1, lt(calldatasize, 0x04))\n      shr(0xe0, calldataload(0x00))\n      dup1\n      0x27e235e3\n      eq\n      tag_2\n      jumpi\n      dup1\n      0x2e1a7d4d\n      eq\n      tag_3\n      jumpi\n      dup1\n      0x791b8860\n      eq\n      tag_4\n      jumpi\n      dup1\n      0xd0e30db0\n      eq\n      tag_5\n      jumpi\n    tag_1:\n      0x00\n      dup1\n      revert\n        /* \"Bank.sol\":946:986  mapping(address => uint) public balances */\n    tag_2:\n      callvalue\n      dup1\n      iszero\n      tag_6\n      jumpi\n      0x00\n      dup1\n      revert\n    tag_6:\n      pop\n      tag_7\n      0x04\n      dup1\n      calldatasize\n      sub\n      dup2\n      add\n      swap1\n      tag_8\n      swap2\n      swap1\n      tag_9\n      jump\t// in\n    tag_8:\n      tag_10\n      jump\t// in\n    tag_7:\n      mload(0x40)\n      tag_11\n      swap2\n      swap1\n      tag_12\n      jump\t// in\n    tag_11:\n      mload(0x40)\n      dup1\n      swap2\n      sub\n      swap1\n      return\n        /* \"Bank.sol\":1231:1608  function withdraw(uint _amount) public {... */\n    tag_3:\n      callvalue\n      dup1\n      iszero\n      tag_13\n      jumpi\n      0x00\n      dup1\n      revert\n    tag_13:\n      pop\n      tag_14\n      0x04\n      dup1\n      calldatasize\n      sub\n      dup2\n      add\n      swap1\n      tag_15\n      swap2\n      swap1\n      tag_16\n      jump\t// in\n    tag_15:\n      tag_17\n      jump\t// in\n    tag_14:\n      stop\n        /* \"Bank.sol\":1614:1713  function getBalanceBank () public view returns (uint) {... */\n    tag_4:\n      callvalue\n      dup1\n      iszero\n      tag_18\n      jumpi\n      0x00\n      dup1\n      revert\n    tag_18:\n      pop\n      tag_19\n      tag_20\n      jump\t// in\n    tag_19:\n      mload(0x40)\n      tag_21\n      swap2\n      swap1\n      tag_12\n      jump\t// in\n    tag_21:\n      mload(0x40)\n      dup1\n      swap2\n      sub\n      swap1\n      return\n        /* \"Bank.sol\":1087:1225  function deposit() public payable {... */\n    tag_5:\n      tag_22\n      tag_23\n      jump\t// in\n    tag_22:\n      stop\n        /* \"Bank.sol\":946:986  mapping(address => uint) public balances */\n    tag_10:\n      mstore(0x20, 0x00)\n      dup1\n      0x00\n      mstore\n      keccak256(0x00, 0x40)\n      0x00\n      swap2\n      pop\n      swap1\n      pop\n      sload\n      dup2\n      jump\t// out\n        /* \"Bank.sol\":1231:1608  function withdraw(uint _amount) public {... */\n    tag_17:\n        /* \"Bank.sol\":1280:1286  logger */\n      0x01\n      0x00\n      swap1\n      sload\n      swap1\n      0x0100\n      exp\n      swap1\n      div\n      0xffffffffffffffffffffffffffffffffffffffff\n      and\n        /* \"Bank.sol\":1280:1290  logger.log */\n      0xffffffffffffffffffffffffffffffffffffffff\n      and\n      0xa1f2e8aa\n        /* \"Bank.sol\":1291:1301  msg.sender */\n      caller\n        /* \"Bank.sol\":1303:1307  5000 */\n      0x1388\n        /* \"Bank.sol\":1280:1324  logger.log(msg.sender, 5000, \"WithdrawTest\") */\n      mload(0x40)\n      dup4\n      0xffffffff\n      and\n      0xe0\n      shl\n      dup2\n      mstore\n      0x04\n      add\n      tag_25\n      swap3\n      swap2\n      swap1\n      tag_26\n      jump\t// in\n    tag_25:\n      0x00\n      mload(0x40)\n      dup1\n      dup4\n      sub\n      dup2\n      0x00\n      dup8\n      dup1\n      extcodesize\n      iszero\n      dup1\n      iszero\n      tag_27\n      jumpi\n      0x00\n      dup1\n      revert\n    tag_27:\n      pop\n      gas\n      call\n      iszero\n      dup1\n      iszero\n      tag_29\n      jumpi\n      returndatasize\n      0x00\n      dup1\n      returndatacopy\n      revert(0x00, returndatasize)\n    tag_29:\n      pop\n      pop\n      pop\n      pop\n        /* \"Bank.sol\":1353:1361  balances */\n      0x00\n        /* \"Bank.sol\":1353:1373  balances[msg.sender] */\n      dup1\n        /* \"Bank.sol\":1362:1372  msg.sender */\n      caller\n        /* \"Bank.sol\":1353:1373  balances[msg.sender] */\n      0xffffffffffffffffffffffffffffffffffffffff\n      and\n      0xffffffffffffffffffffffffffffffffffffffff\n      and\n      dup2\n      mstore\n      0x20\n      add\n      swap1\n      dup2\n      mstore\n      0x20\n      add\n      0x00\n      keccak256\n      sload\n        /* \"Bank.sol\":1342:1349  _amount */\n      dup2\n        /* \"Bank.sol\":1342:1373  _amount <= balances[msg.sender] */\n      gt\n      iszero\n        /* \"Bank.sol\":1334:1396  require(_amount <= balances[msg.sender], \"Insufficient funds\") */\n      tag_30\n      jumpi\n      mload(0x40)\n      0x08c379a000000000000000000000000000000000000000000000000000000000\n      dup2\n      mstore\n      0x04\n      add\n      tag_31\n      swap1\n      tag_32\n      jump\t// in\n    tag_31:\n      mload(0x40)\n      dup1\n      swap2\n      sub\n      swap1\n      revert\n    tag_30:\n        /* \"Bank.sol\":1408:1417  bool sent */\n      0x00\n        /* \"Bank.sol\":1423:1433  msg.sender */\n      caller\n        /* \"Bank.sol\":1423:1438  msg.sender.call */\n      0xffffffffffffffffffffffffffffffffffffffff\n      and\n        /* \"Bank.sol\":1446:1453  _amount */\n      dup3\n        /* \"Bank.sol\":1423:1458  msg.sender.call{value: _amount}(\"\") */\n      mload(0x40)\n      tag_33\n      swap1\n      tag_34\n      jump\t// in\n    tag_33:\n      0x00\n      mload(0x40)\n      dup1\n      dup4\n      sub\n      dup2\n      dup6\n      dup8\n      gas\n      call\n      swap3\n      pop\n      pop\n      pop\n      returndatasize\n      dup1\n      0x00\n      dup2\n      eq\n      tag_37\n      jumpi\n      mload(0x40)\n      swap2\n      pop\n      and(add(returndatasize, 0x3f), not(0x1f))\n      dup3\n      add\n      0x40\n      mstore\n      returndatasize\n      dup3\n      mstore\n      returndatasize\n      0x00\n      0x20\n      dup5\n      add\n      returndatacopy\n      jump(tag_36)\n    tag_37:\n      0x60\n      swap2\n      pop\n    tag_36:\n      pop\n        /* \"Bank.sol\":1407:1458  (bool sent, ) = msg.sender.call{value: _amount}(\"\") */\n      pop\n      swap1\n      pop\n        /* \"Bank.sol\":1476:1480  sent */\n      dup1\n        /* \"Bank.sol\":1468:1505  require(sent, \"Failed to send Ether\") */\n      tag_38\n      jumpi\n      mload(0x40)\n      0x08c379a000000000000000000000000000000000000000000000000000000000\n      dup2\n      mstore\n      0x04\n      add\n      tag_39\n      swap1\n      tag_40\n      jump\t// in\n    tag_39:\n      mload(0x40)\n      dup1\n      swap2\n      sub\n      swap1\n      revert\n    tag_38:\n        /* \"Bank.sol\":1540:1547  _amount */\n      dup2\n        /* \"Bank.sol\":1516:1524  balances */\n      0x00\n        /* \"Bank.sol\":1516:1536  balances[msg.sender] */\n      dup1\n        /* \"Bank.sol\":1525:1535  msg.sender */\n      caller\n        /* \"Bank.sol\":1516:1536  balances[msg.sender] */\n      0xffffffffffffffffffffffffffffffffffffffff\n      and\n      0xffffffffffffffffffffffffffffffffffffffff\n      and\n      dup2\n      mstore\n      0x20\n      add\n      swap1\n      dup2\n      mstore\n      0x20\n      add\n      0x00\n      keccak256\n      0x00\n        /* \"Bank.sol\":1516:1547  balances[msg.sender] -= _amount */\n      dup3\n      dup3\n      sload\n      tag_41\n      swap2\n      swap1\n      tag_42\n      jump\t// in\n    tag_41:\n      swap3\n      pop\n      pop\n      dup2\n      swap1\n      sstore\n      pop\n        /* \"Bank.sol\":1558:1564  logger */\n      0x01\n      0x00\n      swap1\n      sload\n      swap1\n      0x0100\n      exp\n      swap1\n      div\n      0xffffffffffffffffffffffffffffffffffffffff\n      and\n        /* \"Bank.sol\":1558:1568  logger.log */\n      0xffffffffffffffffffffffffffffffffffffffff\n      and\n      0xa1f2e8aa\n        /* \"Bank.sol\":1569:1579  msg.sender */\n      caller\n        /* \"Bank.sol\":1581:1588  _amount */\n      dup5\n        /* \"Bank.sol\":1558:1601  logger.log(msg.sender, _amount, \"Withdraw\") */\n      mload(0x40)\n      dup4\n      0xffffffff\n      and\n      0xe0\n      shl\n      dup2\n      mstore\n      0x04\n      add\n      tag_43\n      swap3\n      swap2\n      swap1\n      tag_44\n      jump\t// in\n    tag_43:\n      0x00\n      mload(0x40)\n      dup1\n      dup4\n      sub\n      dup2\n      0x00\n      dup8\n      dup1\n      extcodesize\n      iszero\n      dup1\n      iszero\n      tag_45\n      jumpi\n      0x00\n      dup1\n      revert\n    tag_45:\n      pop\n      gas\n      call\n      iszero\n      dup1\n      iszero\n      tag_47\n      jumpi\n      returndatasize\n      0x00\n      dup1\n      returndatacopy\n      revert(0x00, returndatasize)\n    tag_47:\n      pop\n      pop\n      pop\n      pop\n        /* \"Bank.sol\":1270:1608  {... */\n      pop\n        /* \"Bank.sol\":1231:1608  function withdraw(uint _amount) public {... */\n      pop\n      jump\t// out\n        /* \"Bank.sol\":1614:1713  function getBalanceBank () public view returns (uint) {... */\n    tag_20:\n        /* \"Bank.sol\":1662:1666  uint */\n      0x00\n        /* \"Bank.sol\":1685:1706  address(this).balance */\n      selfbalance\n        /* \"Bank.sol\":1678:1706  return address(this).balance */\n      swap1\n      pop\n        /* \"Bank.sol\":1614:1713  function getBalanceBank () public view returns (uint) {... */\n      swap1\n      jump\t// out\n        /* \"Bank.sol\":1087:1225  function deposit() public payable {... */\n    tag_23:\n        /* \"Bank.sol\":1155:1164  msg.value */\n      callvalue\n        /* \"Bank.sol\":1131:1139  balances */\n      0x00\n        /* \"Bank.sol\":1131:1151  balances[msg.sender] */\n      dup1\n        /* \"Bank.sol\":1140:1150  msg.sender */\n      caller\n        /* \"Bank.sol\":1131:1151  balances[msg.sender] */\n      0xffffffffffffffffffffffffffffffffffffffff\n      and\n      0xffffffffffffffffffffffffffffffffffffffff\n      and\n      dup2\n      mstore\n      0x20\n      add\n      swap1\n      dup2\n      mstore\n      0x20\n      add\n      0x00\n      keccak256\n      0x00\n        /* \"Bank.sol\":1131:1164  balances[msg.sender] += msg.value */\n      dup3\n      dup3\n      sload\n      tag_50\n      swap2\n      swap1\n      tag_51\n      jump\t// in\n    tag_50:\n      swap3\n      pop\n      pop\n      dup2\n      swap1\n      sstore\n      pop\n        /* \"Bank.sol\":1174:1180  logger */\n      0x01\n      0x00\n      swap1\n      sload\n      swap1\n      0x0100\n      exp\n      swap1\n      div\n      0xffffffffffffffffffffffffffffffffffffffff\n      and\n        /* \"Bank.sol\":1174:1184  logger.log */\n      0xffffffffffffffffffffffffffffffffffffffff\n      and\n      0xa1f2e8aa\n        /* \"Bank.sol\":1185:1195  msg.sender */\n      caller\n        /* \"Bank.sol\":1197:1206  msg.value */\n      callvalue\n        /* \"Bank.sol\":1174:1218  logger.log(msg.sender, msg.value, \"Deposit\") */\n      mload(0x40)\n      dup4\n      0xffffffff\n      and\n      0xe0\n      shl\n      dup2\n      mstore\n      0x04\n      add\n      tag_52\n      swap3\n      swap2\n      swap1\n      tag_53\n      jump\t// in\n    tag_52:\n      0x00\n      mload(0x40)\n      dup1\n      dup4\n      sub\n      dup2\n      0x00\n      dup8\n      dup1\n      extcodesize\n      iszero\n      dup1\n      iszero\n      tag_54\n      jumpi\n      0x00\n      dup1\n      revert\n    tag_54:\n      pop\n      gas\n      call\n      iszero\n      dup1\n      iszero\n      tag_56\n      jumpi\n      returndatasize\n      0x00\n      dup1\n      returndatacopy\n      revert(0x00, returndatasize)\n    tag_56:\n      pop\n      pop\n      pop\n      pop\n        /* \"Bank.sol\":1087:1225  function deposit() public payable {... */\n      jump\t// out\n        /* \"#utility.yul\":88:205   */\n    tag_58:\n        /* \"#utility.yul\":197:198   */\n      0x00\n        /* \"#utility.yul\":194:195   */\n      dup1\n        /* \"#utility.yul\":187:199   */\n      revert\n        /* \"#utility.yul\":334:460   */\n    tag_60:\n        /* \"#utility.yul\":371:378   */\n      0x00\n        /* \"#utility.yul\":411:453   */\n      0xffffffffffffffffffffffffffffffffffffffff\n        /* \"#utility.yul\":404:409   */\n      dup3\n        /* \"#utility.yul\":400:454   */\n      and\n        /* \"#utility.yul\":389:454   */\n      swap1\n      pop\n        /* \"#utility.yul\":334:460   */\n      swap2\n      swap1\n      pop\n      jump\t// out\n        /* \"#utility.yul\":466:562   */\n    tag_61:\n        /* \"#utility.yul\":503:510   */\n      0x00\n        /* \"#utility.yul\":532:556   */\n      tag_94\n        /* \"#utility.yul\":550:555   */\n      dup3\n        /* \"#utility.yul\":532:556   */\n      tag_60\n      jump\t// in\n    tag_94:\n        /* \"#utility.yul\":521:556   */\n      swap1\n      pop\n        /* \"#utility.yul\":466:562   */\n      swap2\n      swap1\n      pop\n      jump\t// out\n        /* \"#utility.yul\":568:690   */\n    tag_62:\n        /* \"#utility.yul\":641:665   */\n      tag_96\n        /* \"#utility.yul\":659:664   */\n      dup2\n        /* \"#utility.yul\":641:665   */\n      tag_61\n      jump\t// in\n    tag_96:\n        /* \"#utility.yul\":634:639   */\n      dup2\n        /* \"#utility.yul\":631:666   */\n      eq\n        /* \"#utility.yul\":621:684   */\n      tag_97\n      jumpi\n        /* \"#utility.yul\":680:681   */\n      0x00\n        /* \"#utility.yul\":677:678   */\n      dup1\n        /* \"#utility.yul\":670:682   */\n      revert\n        /* \"#utility.yul\":621:684   */\n    tag_97:\n        /* \"#utility.yul\":568:690   */\n      pop\n      jump\t// out\n        /* \"#utility.yul\":696:835   */\n    tag_63:\n        /* \"#utility.yul\":742:747   */\n      0x00\n        /* \"#utility.yul\":780:786   */\n      dup2\n        /* \"#utility.yul\":767:787   */\n      calldataload\n        /* \"#utility.yul\":758:787   */\n      swap1\n      pop\n        /* \"#utility.yul\":796:829   */\n      tag_99\n        /* \"#utility.yul\":823:828   */\n      dup2\n        /* \"#utility.yul\":796:829   */\n      tag_62\n      jump\t// in\n    tag_99:\n        /* \"#utility.yul\":696:835   */\n      swap3\n      swap2\n      pop\n      pop\n      jump\t// out\n        /* \"#utility.yul\":841:1170   */\n    tag_9:\n        /* \"#utility.yul\":900:906   */\n      0x00\n        /* \"#utility.yul\":949:951   */\n      0x20\n        /* \"#utility.yul\":937:946   */\n      dup3\n        /* \"#utility.yul\":928:935   */\n      dup5\n        /* \"#utility.yul\":924:947   */\n      sub\n        /* \"#utility.yul\":920:952   */\n      slt\n        /* \"#utility.yul\":917:1036   */\n      iszero\n      tag_101\n      jumpi\n        /* \"#utility.yul\":955:1034   */\n      tag_102\n      tag_58\n      jump\t// in\n    tag_102:\n        /* \"#utility.yul\":917:1036   */\n    tag_101:\n        /* \"#utility.yul\":1075:1076   */\n      0x00\n        /* \"#utility.yul\":1100:1153   */\n      tag_103\n        /* \"#utility.yul\":1145:1152   */\n      dup5\n        /* \"#utility.yul\":1136:1142   */\n      dup3\n        /* \"#utility.yul\":1125:1134   */\n      dup6\n        /* \"#utility.yul\":1121:1143   */\n      add\n        /* \"#utility.yul\":1100:1153   */\n      tag_63\n      jump\t// in\n    tag_103:\n        /* \"#utility.yul\":1090:1153   */\n      swap2\n      pop\n        /* \"#utility.yul\":1046:1163   */\n      pop\n        /* \"#utility.yul\":841:1170   */\n      swap3\n      swap2\n      pop\n      pop\n      jump\t// out\n        /* \"#utility.yul\":1176:1253   */\n    tag_64:\n        /* \"#utility.yul\":1213:1220   */\n      0x00\n        /* \"#utility.yul\":1242:1247   */\n      dup2\n        /* \"#utility.yul\":1231:1247   */\n      swap1\n      pop\n        /* \"#utility.yul\":1176:1253   */\n      swap2\n      swap1\n      pop\n      jump\t// out\n        /* \"#utility.yul\":1259:1377   */\n    tag_65:\n        /* \"#utility.yul\":1346:1370   */\n      tag_106\n        /* \"#utility.yul\":1364:1369   */\n      dup2\n        /* \"#utility.yul\":1346:1370   */\n      tag_64\n      jump\t// in\n    tag_106:\n        /* \"#utility.yul\":1341:1344   */\n      dup3\n        /* \"#utility.yul\":1334:1371   */\n      mstore\n        /* \"#utility.yul\":1259:1377   */\n      pop\n      pop\n      jump\t// out\n        /* \"#utility.yul\":1383:1605   */\n    tag_12:\n        /* \"#utility.yul\":1476:1480   */\n      0x00\n        /* \"#utility.yul\":1514:1516   */\n      0x20\n        /* \"#utility.yul\":1503:1512   */\n      dup3\n        /* \"#utility.yul\":1499:1517   */\n      add\n        /* \"#utility.yul\":1491:1517   */\n      swap1\n      pop\n        /* \"#utility.yul\":1527:1598   */\n      tag_108\n        /* \"#utility.yul\":1595:1596   */\n      0x00\n        /* \"#utility.yul\":1584:1593   */\n      dup4\n        /* \"#utility.yul\":1580:1597   */\n      add\n        /* \"#utility.yul\":1571:1577   */\n      dup5\n        /* \"#utility.yul\":1527:1598   */\n      tag_65\n      jump\t// in\n    tag_108:\n        /* \"#utility.yul\":1383:1605   */\n      swap3\n      swap2\n      pop\n      pop\n      jump\t// out\n        /* \"#utility.yul\":1611:1733   */\n    tag_66:\n        /* \"#utility.yul\":1684:1708   */\n      tag_110\n        /* \"#utility.yul\":1702:1707   */\n      dup2\n        /* \"#utility.yul\":1684:1708   */\n      tag_64\n      jump\t// in\n    tag_110:\n        /* \"#utility.yul\":1677:1682   */\n      dup2\n        /* \"#utility.yul\":1674:1709   */\n      eq\n        /* \"#utility.yul\":1664:1727   */\n      tag_111\n      jumpi\n        /* \"#utility.yul\":1723:1724   */\n      0x00\n        /* \"#utility.yul\":1720:1721   */\n      dup1\n        /* \"#utility.yul\":1713:1725   */\n      revert\n        /* \"#utility.yul\":1664:1727   */\n    tag_111:\n        /* \"#utility.yul\":1611:1733   */\n      pop\n      jump\t// out\n        /* \"#utility.yul\":1739:1878   */\n    tag_67:\n        /* \"#utility.yul\":1785:1790   */\n      0x00\n        /* \"#utility.yul\":1823:1829   */\n      dup2\n        /* \"#utility.yul\":1810:1830   */\n      calldataload\n        /* \"#utility.yul\":1801:1830   */\n      swap1\n      pop\n        /* \"#utility.yul\":1839:1872   */\n      tag_113\n        /* \"#utility.yul\":1866:1871   */\n      dup2\n        /* \"#utility.yul\":1839:1872   */\n      tag_66\n      jump\t// in\n    tag_113:\n        /* \"#utility.yul\":1739:1878   */\n      swap3\n      swap2\n      pop\n      pop\n      jump\t// out\n        /* \"#utility.yul\":1884:2213   */\n    tag_16:\n        /* \"#utility.yul\":1943:1949   */\n      0x00\n        /* \"#utility.yul\":1992:1994   */\n      0x20\n        /* \"#utility.yul\":1980:1989   */\n      dup3\n        /* \"#utility.yul\":1971:1978   */\n      dup5\n        /* \"#utility.yul\":1967:1990   */\n      sub\n        /* \"#utility.yul\":1963:1995   */\n      slt\n        /* \"#utility.yul\":1960:2079   */\n      iszero\n      tag_115\n      jumpi\n        /* \"#utility.yul\":1998:2077   */\n      tag_116\n      tag_58\n      jump\t// in\n    tag_116:\n        /* \"#utility.yul\":1960:2079   */\n    tag_115:\n        /* \"#utility.yul\":2118:2119   */\n      0x00\n        /* \"#utility.yul\":2143:2196   */\n      tag_117\n        /* \"#utility.yul\":2188:2195   */\n      dup5\n        /* \"#utility.yul\":2179:2185   */\n      dup3\n        /* \"#utility.yul\":2168:2177   */\n      dup6\n        /* \"#utility.yul\":2164:2186   */\n      add\n        /* \"#utility.yul\":2143:2196   */\n      tag_67\n      jump\t// in\n    tag_117:\n        /* \"#utility.yul\":2133:2196   */\n      swap2\n      pop\n        /* \"#utility.yul\":2089:2206   */\n      pop\n        /* \"#utility.yul\":1884:2213   */\n      swap3\n      swap2\n      pop\n      pop\n      jump\t// out\n        /* \"#utility.yul\":2219:2337   */\n    tag_68:\n        /* \"#utility.yul\":2306:2330   */\n      tag_119\n        /* \"#utility.yul\":2324:2329   */\n      dup2\n        /* \"#utility.yul\":2306:2330   */\n      tag_61\n      jump\t// in\n    tag_119:\n        /* \"#utility.yul\":2301:2304   */\n      dup3\n        /* \"#utility.yul\":2294:2331   */\n      mstore\n        /* \"#utility.yul\":2219:2337   */\n      pop\n      pop\n      jump\t// out\n        /* \"#utility.yul\":2343:2431   */\n    tag_69:\n        /* \"#utility.yul\":2391:2398   */\n      0x00\n        /* \"#utility.yul\":2420:2425   */\n      dup2\n        /* \"#utility.yul\":2409:2425   */\n      swap1\n      pop\n        /* \"#utility.yul\":2343:2431   */\n      swap2\n      swap1\n      pop\n      jump\t// out\n        /* \"#utility.yul\":2437:2497   */\n    tag_70:\n        /* \"#utility.yul\":2465:2468   */\n      0x00\n        /* \"#utility.yul\":2486:2491   */\n      dup2\n        /* \"#utility.yul\":2479:2491   */\n      swap1\n      pop\n        /* \"#utility.yul\":2437:2497   */\n      swap2\n      swap1\n      pop\n      jump\t// out\n        /* \"#utility.yul\":2503:2667   */\n    tag_71:\n        /* \"#utility.yul\":2564:2573   */\n      0x00\n        /* \"#utility.yul\":2597:2661   */\n      tag_123\n        /* \"#utility.yul\":2615:2660   */\n      tag_124\n        /* \"#utility.yul\":2624:2659   */\n      tag_125\n        /* \"#utility.yul\":2653:2658   */\n      dup5\n        /* \"#utility.yul\":2624:2659   */\n      tag_69\n      jump\t// in\n    tag_125:\n        /* \"#utility.yul\":2615:2660   */\n      tag_70\n      jump\t// in\n    tag_124:\n        /* \"#utility.yul\":2597:2661   */\n      tag_64\n      jump\t// in\n    tag_123:\n        /* \"#utility.yul\":2584:2661   */\n      swap1\n      pop\n        /* \"#utility.yul\":2503:2667   */\n      swap2\n      swap1\n      pop\n      jump\t// out\n        /* \"#utility.yul\":2673:2826   */\n    tag_72:\n        /* \"#utility.yul\":2771:2819   */\n      tag_127\n        /* \"#utility.yul\":2813:2818   */\n      dup2\n        /* \"#utility.yul\":2771:2819   */\n      tag_71\n      jump\t// in\n    tag_127:\n        /* \"#utility.yul\":2766:2769   */\n      dup3\n        /* \"#utility.yul\":2759:2820   */\n      mstore\n        /* \"#utility.yul\":2673:2826   */\n      pop\n      pop\n      jump\t// out\n        /* \"#utility.yul\":2832:3001   */\n    tag_73:\n        /* \"#utility.yul\":2916:2927   */\n      0x00\n        /* \"#utility.yul\":2950:2956   */\n      dup3\n        /* \"#utility.yul\":2945:2948   */\n      dup3\n        /* \"#utility.yul\":2938:2957   */\n      mstore\n        /* \"#utility.yul\":2990:2994   */\n      0x20\n        /* \"#utility.yul\":2985:2988   */\n      dup3\n        /* \"#utility.yul\":2981:2995   */\n      add\n        /* \"#utility.yul\":2966:2995   */\n      swap1\n      pop\n        /* \"#utility.yul\":2832:3001   */\n      swap3\n      swap2\n      pop\n      pop\n      jump\t// out\n        /* \"#utility.yul\":3007:3169   */\n    tag_74:\n        /* \"#utility.yul\":3147:3161   */\n      0x5769746864726177546573740000000000000000000000000000000000000000\n        /* \"#utility.yul\":3143:3144   */\n      0x00\n        /* \"#utility.yul\":3135:3141   */\n      dup3\n        /* \"#utility.yul\":3131:3145   */\n      add\n        /* \"#utility.yul\":3124:3162   */\n      mstore\n        /* \"#utility.yul\":3007:3169   */\n      pop\n      jump\t// out\n        /* \"#utility.yul\":3175:3541   */\n    tag_75:\n        /* \"#utility.yul\":3317:3320   */\n      0x00\n        /* \"#utility.yul\":3338:3405   */\n      tag_131\n        /* \"#utility.yul\":3402:3404   */\n      0x0c\n        /* \"#utility.yul\":3397:3400   */\n      dup4\n        /* \"#utility.yul\":3338:3405   */\n      tag_73\n      jump\t// in\n    tag_131:\n        /* \"#utility.yul\":3331:3405   */\n      swap2\n      pop\n        /* \"#utility.yul\":3414:3507   */\n      tag_132\n        /* \"#utility.yul\":3503:3506   */\n      dup3\n        /* \"#utility.yul\":3414:3507   */\n      tag_74\n      jump\t// in\n    tag_132:\n        /* \"#utility.yul\":3532:3534   */\n      0x20\n        /* \"#utility.yul\":3527:3530   */\n      dup3\n        /* \"#utility.yul\":3523:3535   */\n      add\n        /* \"#utility.yul\":3516:3535   */\n      swap1\n      pop\n        /* \"#utility.yul\":3175:3541   */\n      swap2\n      swap1\n      pop\n      jump\t// out\n        /* \"#utility.yul\":3547:4208   */\n    tag_26:\n        /* \"#utility.yul\":3780:3784   */\n      0x00\n        /* \"#utility.yul\":3818:3820   */\n      0x60\n        /* \"#utility.yul\":3807:3816   */\n      dup3\n        /* \"#utility.yul\":3803:3821   */\n      add\n        /* \"#utility.yul\":3795:3821   */\n      swap1\n      pop\n        /* \"#utility.yul\":3831:3902   */\n      tag_134\n        /* \"#utility.yul\":3899:3900   */\n      0x00\n        /* \"#utility.yul\":3888:3897   */\n      dup4\n        /* \"#utility.yul\":3884:3901   */\n      add\n        /* \"#utility.yul\":3875:3881   */\n      dup6\n        /* \"#utility.yul\":3831:3902   */\n      tag_68\n      jump\t// in\n    tag_134:\n        /* \"#utility.yul\":3912:3995   */\n      tag_135\n        /* \"#utility.yul\":3991:3993   */\n      0x20\n        /* \"#utility.yul\":3980:3989   */\n      dup4\n        /* \"#utility.yul\":3976:3994   */\n      add\n        /* \"#utility.yul\":3967:3973   */\n      dup5\n        /* \"#utility.yul\":3912:3995   */\n      tag_72\n      jump\t// in\n    tag_135:\n        /* \"#utility.yul\":4042:4051   */\n      dup2\n        /* \"#utility.yul\":4036:4040   */\n      dup2\n        /* \"#utility.yul\":4032:4052   */\n      sub\n        /* \"#utility.yul\":4027:4029   */\n      0x40\n        /* \"#utility.yul\":4016:4025   */\n      dup4\n        /* \"#utility.yul\":4012:4030   */\n      add\n        /* \"#utility.yul\":4005:4053   */\n      mstore\n        /* \"#utility.yul\":4070:4201   */\n      tag_136\n        /* \"#utility.yul\":4196:4200   */\n      dup2\n        /* \"#utility.yul\":4070:4201   */\n      tag_75\n      jump\t// in\n    tag_136:\n        /* \"#utility.yul\":4062:4201   */\n      swap1\n      pop\n        /* \"#utility.yul\":3547:4208   */\n      swap4\n      swap3\n      pop\n      pop\n      pop\n      jump\t// out\n        /* \"#utility.yul\":4214:4382   */\n    tag_76:\n        /* \"#utility.yul\":4354:4374   */\n      0x496e73756666696369656e742066756e64730000000000000000000000000000\n        /* \"#utility.yul\":4350:4351   */\n      0x00\n        /* \"#utility.yul\":4342:4348   */\n      dup3\n        /* \"#utility.yul\":4338:4352   */\n      add\n        /* \"#utility.yul\":4331:4375   */\n      mstore\n        /* \"#utility.yul\":4214:4382   */\n      pop\n      jump\t// out\n        /* \"#utility.yul\":4388:4754   */\n    tag_77:\n        /* \"#utility.yul\":4530:4533   */\n      0x00\n        /* \"#utility.yul\":4551:4618   */\n      tag_139\n        /* \"#utility.yul\":4615:4617   */\n      0x12\n        /* \"#utility.yul\":4610:4613   */\n      dup4\n        /* \"#utility.yul\":4551:4618   */\n      tag_73\n      jump\t// in\n    tag_139:\n        /* \"#utility.yul\":4544:4618   */\n      swap2\n      pop\n        /* \"#utility.yul\":4627:4720   */\n      tag_140\n        /* \"#utility.yul\":4716:4719   */\n      dup3\n        /* \"#utility.yul\":4627:4720   */\n      tag_76\n      jump\t// in\n    tag_140:\n        /* \"#utility.yul\":4745:4747   */\n      0x20\n        /* \"#utility.yul\":4740:4743   */\n      dup3\n        /* \"#utility.yul\":4736:4748   */\n      add\n        /* \"#utility.yul\":4729:4748   */\n      swap1\n      pop\n        /* \"#utility.yul\":4388:4754   */\n      swap2\n      swap1\n      pop\n      jump\t// out\n        /* \"#utility.yul\":4760:5179   */\n    tag_32:\n        /* \"#utility.yul\":4926:4930   */\n      0x00\n        /* \"#utility.yul\":4964:4966   */\n      0x20\n        /* \"#utility.yul\":4953:4962   */\n      dup3\n        /* \"#utility.yul\":4949:4967   */\n      add\n        /* \"#utility.yul\":4941:4967   */\n      swap1\n      pop\n        /* \"#utility.yul\":5013:5022   */\n      dup2\n        /* \"#utility.yul\":5007:5011   */\n      dup2\n        /* \"#utility.yul\":5003:5023   */\n      sub\n        /* \"#utility.yul\":4999:5000   */\n      0x00\n        /* \"#utility.yul\":4988:4997   */\n      dup4\n        /* \"#utility.yul\":4984:5001   */\n      add\n        /* \"#utility.yul\":4977:5024   */\n      mstore\n        /* \"#utility.yul\":5041:5172   */\n      tag_142\n        /* \"#utility.yul\":5167:5171   */\n      dup2\n        /* \"#utility.yul\":5041:5172   */\n      tag_77\n      jump\t// in\n    tag_142:\n        /* \"#utility.yul\":5033:5172   */\n      swap1\n      pop\n        /* \"#utility.yul\":4760:5179   */\n      swap2\n      swap1\n      pop\n      jump\t// out\n        /* \"#utility.yul\":5185:5332   */\n    tag_78:\n        /* \"#utility.yul\":5286:5297   */\n      0x00\n        /* \"#utility.yul\":5323:5326   */\n      dup2\n        /* \"#utility.yul\":5308:5326   */\n      swap1\n      pop\n        /* \"#utility.yul\":5185:5332   */\n      swap3\n      swap2\n      pop\n      pop\n      jump\t// out\n        /* \"#utility.yul\":5338:5452   */\n    tag_79:\n      pop\n      jump\t// out\n        /* \"#utility.yul\":5458:5856   */\n    tag_80:\n        /* \"#utility.yul\":5617:5620   */\n      0x00\n        /* \"#utility.yul\":5638:5721   */\n      tag_146\n        /* \"#utility.yul\":5719:5720   */\n      0x00\n        /* \"#utility.yul\":5714:5717   */\n      dup4\n        /* \"#utility.yul\":5638:5721   */\n      tag_78\n      jump\t// in\n    tag_146:\n        /* \"#utility.yul\":5631:5721   */\n      swap2\n      pop\n        /* \"#utility.yul\":5730:5823   */\n      tag_147\n        /* \"#utility.yul\":5819:5822   */\n      dup3\n        /* \"#utility.yul\":5730:5823   */\n      tag_79\n      jump\t// in\n    tag_147:\n        /* \"#utility.yul\":5848:5849   */\n      0x00\n        /* \"#utility.yul\":5843:5846   */\n      dup3\n        /* \"#utility.yul\":5839:5850   */\n      add\n        /* \"#utility.yul\":5832:5850   */\n      swap1\n      pop\n        /* \"#utility.yul\":5458:5856   */\n      swap2\n      swap1\n      pop\n      jump\t// out\n        /* \"#utility.yul\":5862:6241   */\n    tag_34:\n        /* \"#utility.yul\":6046:6049   */\n      0x00\n        /* \"#utility.yul\":6068:6215   */\n      tag_149\n        /* \"#utility.yul\":6211:6214   */\n      dup3\n        /* \"#utility.yul\":6068:6215   */\n      tag_80\n      jump\t// in\n    tag_149:\n        /* \"#utility.yul\":6061:6215   */\n      swap2\n      pop\n        /* \"#utility.yul\":6232:6235   */\n      dup2\n        /* \"#utility.yul\":6225:6235   */\n      swap1\n      pop\n        /* \"#utility.yul\":5862:6241   */\n      swap2\n      swap1\n      pop\n      jump\t// out\n        /* \"#utility.yul\":6247:6417   */\n    tag_81:\n        /* \"#utility.yul\":6387:6409   */\n      0x4661696c656420746f2073656e64204574686572000000000000000000000000\n        /* \"#utility.yul\":6383:6384   */\n      0x00\n        /* \"#utility.yul\":6375:6381   */\n      dup3\n        /* \"#utility.yul\":6371:6385   */\n      add\n        /* \"#utility.yul\":6364:6410   */\n      mstore\n        /* \"#utility.yul\":6247:6417   */\n      pop\n      jump\t// out\n        /* \"#utility.yul\":6423:6789   */\n    tag_82:\n        /* \"#utility.yul\":6565:6568   */\n      0x00\n        /* \"#utility.yul\":6586:6653   */\n      tag_152\n        /* \"#utility.yul\":6650:6652   */\n      0x14\n        /* \"#utility.yul\":6645:6648   */\n      dup4\n        /* \"#utility.yul\":6586:6653   */\n      tag_73\n      jump\t// in\n    tag_152:\n        /* \"#utility.yul\":6579:6653   */\n      swap2\n      pop\n        /* \"#utility.yul\":6662:6755   */\n      tag_153\n        /* \"#utility.yul\":6751:6754   */\n      dup3\n        /* \"#utility.yul\":6662:6755   */\n      tag_81\n      jump\t// in\n    tag_153:\n        /* \"#utility.yul\":6780:6782   */\n      0x20\n        /* \"#utility.yul\":6775:6778   */\n      dup3\n        /* \"#utility.yul\":6771:6783   */\n      add\n        /* \"#utility.yul\":6764:6783   */\n      swap1\n      pop\n        /* \"#utility.yul\":6423:6789   */\n      swap2\n      swap1\n      pop\n      jump\t// out\n        /* \"#utility.yul\":6795:7214   */\n    tag_40:\n        /* \"#utility.yul\":6961:6965   */\n      0x00\n        /* \"#utility.yul\":6999:7001   */\n      0x20\n        /* \"#utility.yul\":6988:6997   */\n      dup3\n        /* \"#utility.yul\":6984:7002   */\n      add\n        /* \"#utility.yul\":6976:7002   */\n      swap1\n      pop\n        /* \"#utility.yul\":7048:7057   */\n      dup2\n        /* \"#utility.yul\":7042:7046   */\n      dup2\n        /* \"#utility.yul\":7038:7058   */\n      sub\n        /* \"#utility.yul\":7034:7035   */\n      0x00\n        /* \"#utility.yul\":7023:7032   */\n      dup4\n        /* \"#utility.yul\":7019:7036   */\n      add\n        /* \"#utility.yul\":7012:7059   */\n      mstore\n        /* \"#utility.yul\":7076:7207   */\n      tag_155\n        /* \"#utility.yul\":7202:7206   */\n      dup2\n        /* \"#utility.yul\":7076:7207   */\n      tag_82\n      jump\t// in\n    tag_155:\n        /* \"#utility.yul\":7068:7207   */\n      swap1\n      pop\n        /* \"#utility.yul\":6795:7214   */\n      swap2\n      swap1\n      pop\n      jump\t// out\n        /* \"#utility.yul\":7220:7400   */\n    tag_83:\n        /* \"#utility.yul\":7268:7345   */\n      0x4e487b7100000000000000000000000000000000000000000000000000000000\n        /* \"#utility.yul\":7265:7266   */\n      0x00\n        /* \"#utility.yul\":7258:7346   */\n      mstore\n        /* \"#utility.yul\":7365:7369   */\n      0x11\n        /* \"#utility.yul\":7362:7363   */\n      0x04\n        /* \"#utility.yul\":7355:7370   */\n      mstore\n        /* \"#utility.yul\":7389:7393   */\n      0x24\n        /* \"#utility.yul\":7386:7387   */\n      0x00\n        /* \"#utility.yul\":7379:7394   */\n      revert\n        /* \"#utility.yul\":7406:7597   */\n    tag_42:\n        /* \"#utility.yul\":7446:7450   */\n      0x00\n        /* \"#utility.yul\":7466:7486   */\n      tag_158\n        /* \"#utility.yul\":7484:7485   */\n      dup3\n        /* \"#utility.yul\":7466:7486   */\n      tag_64\n      jump\t// in\n    tag_158:\n        /* \"#utility.yul\":7461:7486   */\n      swap2\n      pop\n        /* \"#utility.yul\":7500:7520   */\n      tag_159\n        /* \"#utility.yul\":7518:7519   */\n      dup4\n        /* \"#utility.yul\":7500:7520   */\n      tag_64\n      jump\t// in\n    tag_159:\n        /* \"#utility.yul\":7495:7520   */\n      swap3\n      pop\n        /* \"#utility.yul\":7539:7540   */\n      dup3\n        /* \"#utility.yul\":7536:7537   */\n      dup3\n        /* \"#utility.yul\":7533:7541   */\n      lt\n        /* \"#utility.yul\":7530:7564   */\n      iszero\n      tag_160\n      jumpi\n        /* \"#utility.yul\":7544:7562   */\n      tag_161\n      tag_83\n      jump\t// in\n    tag_161:\n        /* \"#utility.yul\":7530:7564   */\n    tag_160:\n        /* \"#utility.yul\":7589:7590   */\n      dup3\n        /* \"#utility.yul\":7586:7587   */\n      dup3\n        /* \"#utility.yul\":7582:7591   */\n      sub\n        /* \"#utility.yul\":7574:7591   */\n      swap1\n      pop\n        /* \"#utility.yul\":7406:7597   */\n      swap3\n      swap2\n      pop\n      pop\n      jump\t// out\n        /* \"#utility.yul\":7603:7761   */\n    tag_84:\n        /* \"#utility.yul\":7743:7753   */\n      0x5769746864726177000000000000000000000000000000000000000000000000\n        /* \"#utility.yul\":7739:7740   */\n      0x00\n        /* \"#utility.yul\":7731:7737   */\n      dup3\n        /* \"#utility.yul\":7727:7741   */\n      add\n        /* \"#utility.yul\":7720:7754   */\n      mstore\n        /* \"#utility.yul\":7603:7761   */\n      pop\n      jump\t// out\n        /* \"#utility.yul\":7767:8132   */\n    tag_85:\n        /* \"#utility.yul\":7909:7912   */\n      0x00\n        /* \"#utility.yul\":7930:7996   */\n      tag_164\n        /* \"#utility.yul\":7994:7995   */\n      0x08\n        /* \"#utility.yul\":7989:7992   */\n      dup4\n        /* \"#utility.yul\":7930:7996   */\n      tag_73\n      jump\t// in\n    tag_164:\n        /* \"#utility.yul\":7923:7996   */\n      swap2\n      pop\n        /* \"#utility.yul\":8005:8098   */\n      tag_165\n        /* \"#utility.yul\":8094:8097   */\n      dup3\n        /* \"#utility.yul\":8005:8098   */\n      tag_84\n      jump\t// in\n    tag_165:\n        /* \"#utility.yul\":8123:8125   */\n      0x20\n        /* \"#utility.yul\":8118:8121   */\n      dup3\n        /* \"#utility.yul\":8114:8126   */\n      add\n        /* \"#utility.yul\":8107:8126   */\n      swap1\n      pop\n        /* \"#utility.yul\":7767:8132   */\n      swap2\n      swap1\n      pop\n      jump\t// out\n        /* \"#utility.yul\":8138:8777   */\n    tag_44:\n        /* \"#utility.yul\":8360:8364   */\n      0x00\n        /* \"#utility.yul\":8398:8400   */\n      0x60\n        /* \"#utility.yul\":8387:8396   */\n      dup3\n        /* \"#utility.yul\":8383:8401   */\n      add\n        /* \"#utility.yul\":8375:8401   */\n      swap1\n      pop\n        /* \"#utility.yul\":8411:8482   */\n      tag_167\n        /* \"#utility.yul\":8479:8480   */\n      0x00\n        /* \"#utility.yul\":8468:8477   */\n      dup4\n        /* \"#utility.yul\":8464:8481   */\n      add\n        /* \"#utility.yul\":8455:8461   */\n      dup6\n        /* \"#utility.yul\":8411:8482   */\n      tag_68\n      jump\t// in\n    tag_167:\n        /* \"#utility.yul\":8492:8564   */\n      tag_168\n        /* \"#utility.yul\":8560:8562   */\n      0x20\n        /* \"#utility.yul\":8549:8558   */\n      dup4\n        /* \"#utility.yul\":8545:8563   */\n      add\n        /* \"#utility.yul\":8536:8542   */\n      dup5\n        /* \"#utility.yul\":8492:8564   */\n      tag_65\n      jump\t// in\n    tag_168:\n        /* \"#utility.yul\":8611:8620   */\n      dup2\n        /* \"#utility.yul\":8605:8609   */\n      dup2\n        /* \"#utility.yul\":8601:8621   */\n      sub\n        /* \"#utility.yul\":8596:8598   */\n      0x40\n        /* \"#utility.yul\":8585:8594   */\n      dup4\n        /* \"#utility.yul\":8581:8599   */\n      add\n        /* \"#utility.yul\":8574:8622   */\n      mstore\n        /* \"#utility.yul\":8639:8770   */\n      tag_169\n        /* \"#utility.yul\":8765:8769   */\n      dup2\n        /* \"#utility.yul\":8639:8770   */\n      tag_85\n      jump\t// in\n    tag_169:\n        /* \"#utility.yul\":8631:8770   */\n      swap1\n      pop\n        /* \"#utility.yul\":8138:8777   */\n      swap4\n      swap3\n      pop\n      pop\n      pop\n      jump\t// out\n        /* \"#utility.yul\":8783:9088   */\n    tag_51:\n        /* \"#utility.yul\":8823:8826   */\n      0x00\n        /* \"#utility.yul\":8842:8862   */\n      tag_171\n        /* \"#utility.yul\":8860:8861   */\n      dup3\n        /* \"#utility.yul\":8842:8862   */\n      tag_64\n      jump\t// in\n    tag_171:\n        /* \"#utility.yul\":8837:8862   */\n      swap2\n      pop\n        /* \"#utility.yul\":8876:8896   */\n      tag_172\n        /* \"#utility.yul\":8894:8895   */\n      dup4\n        /* \"#utility.yul\":8876:8896   */\n      tag_64\n      jump\t// in\n    tag_172:\n        /* \"#utility.yul\":8871:8896   */\n      swap3\n      pop\n        /* \"#utility.yul\":9030:9031   */\n      dup3\n        /* \"#utility.yul\":8962:9028   */\n      0xffffffffffffffffffffffffffffffffffffffffffffffffffffffffffffffff\n        /* \"#utility.yul\":8958:9032   */\n      sub\n        /* \"#utility.yul\":8955:8956   */\n      dup3\n        /* \"#utility.yul\":8952:9033   */\n      gt\n        /* \"#utility.yul\":8949:9056   */\n      iszero\n      tag_173\n      jumpi\n        /* \"#utility.yul\":9036:9054   */\n      tag_174\n      tag_83\n      jump\t// in\n    tag_174:\n        /* \"#utility.yul\":8949:9056   */\n    tag_173:\n        /* \"#utility.yul\":9080:9081   */\n      dup3\n        /* \"#utility.yul\":9077:9078   */\n      dup3\n        /* \"#utility.yul\":9073:9082   */\n      add\n        /* \"#utility.yul\":9066:9082   */\n      swap1\n      pop\n        /* \"#utility.yul\":8783:9088   */\n      swap3\n      swap2\n      pop\n      pop\n      jump\t// out\n        /* \"#utility.yul\":9094:9251   */\n    tag_86:\n        /* \"#utility.yul\":9234:9243   */\n      0x4465706f73697400000000000000000000000000000000000000000000000000\n        /* \"#utility.yul\":9230:9231   */\n      0x00\n        /* \"#utility.yul\":9222:9228   */\n      dup3\n        /* \"#utility.yul\":9218:9232   */\n      add\n        /* \"#utility.yul\":9211:9244   */\n      mstore\n        /* \"#utility.yul\":9094:9251   */\n      pop\n      jump\t// out\n        /* \"#utility.yul\":9257:9622   */\n    tag_87:\n        /* \"#utility.yul\":9399:9402   */\n      0x00\n        /* \"#utility.yul\":9420:9486   */\n      tag_177\n        /* \"#utility.yul\":9484:9485   */\n      0x07\n        /* \"#utility.yul\":9479:9482   */\n      dup4\n        /* \"#utility.yul\":9420:9486   */\n      tag_73\n      jump\t// in\n    tag_177:\n        /* \"#utility.yul\":9413:9486   */\n      swap2\n      pop\n        /* \"#utility.yul\":9495:9588   */\n      tag_178\n        /* \"#utility.yul\":9584:9587   */\n      dup3\n        /* \"#utility.yul\":9495:9588   */\n      tag_86\n      jump\t// in\n    tag_178:\n        /* \"#utility.yul\":9613:9615   */\n      0x20\n        /* \"#utility.yul\":9608:9611   */\n      dup3\n        /* \"#utility.yul\":9604:9616   */\n      add\n        /* \"#utility.yul\":9597:9616   */\n      swap1\n      pop\n        /* \"#utility.yul\":9257:9622   */\n      swap2\n      swap1\n      pop\n      jump\t// out\n        /* \"#utility.yul\":9628:10267   */\n    tag_53:\n        /* \"#utility.yul\":9850:9854   */\n      0x00\n        /* \"#utility.yul\":9888:9890   */\n      0x60\n        /* \"#utility.yul\":9877:9886   */\n      dup3\n        /* \"#utility.yul\":9873:9891   */\n      add\n        /* \"#utility.yul\":9865:9891   */\n      swap1\n      pop\n        /* \"#utility.yul\":9901:9972   */\n      tag_180\n        /* \"#utility.yul\":9969:9970   */\n      0x00\n        /* \"#utility.yul\":9958:9967   */\n      dup4\n        /* \"#utility.yul\":9954:9971   */\n      add\n        /* \"#utility.yul\":9945:9951   */\n      dup6\n        /* \"#utility.yul\":9901:9972   */\n      tag_68\n      jump\t// in\n    tag_180:\n        /* \"#utility.yul\":9982:10054   */\n      tag_181\n        /* \"#utility.yul\":10050:10052   */\n      0x20\n        /* \"#utility.yul\":10039:10048   */\n      dup4\n        /* \"#utility.yul\":10035:10053   */\n      add\n        /* \"#utility.yul\":10026:10032   */\n      dup5\n        /* \"#utility.yul\":9982:10054   */\n      tag_65\n      jump\t// in\n    tag_181:\n        /* \"#utility.yul\":10101:10110   */\n      dup2\n        /* \"#utility.yul\":10095:10099   */\n      dup2\n        /* \"#utility.yul\":10091:10111   */\n      sub\n        /* \"#utility.yul\":10086:10088   */\n      0x40\n        /* \"#utility.yul\":10075:10084   */\n      dup4\n        /* \"#utility.yul\":10071:10089   */\n      add\n        /* \"#utility.yul\":10064:10112   */\n      mstore\n        /* \"#utility.yul\":10129:10260   */\n      tag_182\n        /* \"#utility.yul\":10255:10259   */\n      dup2\n        /* \"#utility.yul\":10129:10260   */\n      tag_87\n      jump\t// in\n    tag_182:\n        /* \"#utility.yul\":10121:10260   */\n      swap1\n      pop\n        /* \"#utility.yul\":9628:10267   */\n      swap4\n      swap3\n      pop\n      pop\n      pop\n      jump\t// out\n\n    auxdata: 0xa264697066735822122039ee9212a66f5abcdd3d919f4a96ee47f10ef63a47a655f0f25ad91c42b3f35f64736f6c634300080d0033\n}\n",
				"bytecode": {
					"linkReferences": {},
					"object": "608060405234801561001057600080fd5b50604051610adc380380610adc833981810160405281019061003291906100ee565b80600160006101000a81548173ffffffffffffffffffffffffffffffffffffffff021916908373ffffffffffffffffffffffffffffffffffffffff1602179055505061011b565b600080fd5b600073ffffffffffffffffffffffffffffffffffffffff82169050919050565b60006100a98261007e565b9050919050565b60006100bb8261009e565b9050919050565b6100cb816100b0565b81146100d657600080fd5b50565b6000815190506100e8816100c2565b92915050565b60006020828403121561010457610103610079565b5b6000610112848285016100d9565b91505092915050565b6109b28061012a6000396000f3fe60806040526004361061003f5760003560e01c806327e235e3146100445780632e1a7d4d14610081578063791b8860146100aa578063d0e30db0146100d5575b600080fd5b34801561005057600080fd5b5061006b600480360381019061006691906104ee565b6100df565b6040516100789190610534565b60405180910390f35b34801561008d57600080fd5b506100a860048036038101906100a3919061057b565b6100f7565b005b3480156100b657600080fd5b506100bf61039d565b6040516100cc9190610534565b60405180910390f35b6100dd6103a5565b005b60006020528060005260406000206000915090505481565b600160009054906101000a900473ffffffffffffffffffffffffffffffffffffffff1673ffffffffffffffffffffffffffffffffffffffff1663a1f2e8aa336113886040518363ffffffff1660e01b8152600401610156929190610659565b600060405180830381600087803b15801561017057600080fd5b505af1158015610184573d6000803e3d6000fd5b505050506000803373ffffffffffffffffffffffffffffffffffffffff1673ffffffffffffffffffffffffffffffffffffffff16815260200190815260200160002054811115610209576040517f08c379a0000000000000000000000000000000000000000000000000000000008152600401610200906106e1565b60405180910390fd5b60003373ffffffffffffffffffffffffffffffffffffffff168260405161022f90610732565b60006040518083038185875af1925050503d806000811461026c576040519150601f19603f3d011682016040523d82523d6000602084013e610271565b606091505b50509050806102b5576040517f08c379a00000000000000000000000000000000000000000000000000000000081526004016102ac90610793565b60405180910390fd5b816000803373ffffffffffffffffffffffffffffffffffffffff1673ffffffffffffffffffffffffffffffffffffffff168152602001908152602001600020600082825461030391906107e2565b92505081905550600160009054906101000a900473ffffffffffffffffffffffffffffffffffffffff1673ffffffffffffffffffffffffffffffffffffffff1663a1f2e8aa33846040518363ffffffff1660e01b8152600401610367929190610862565b600060405180830381600087803b15801561038157600080fd5b505af1158015610395573d6000803e3d6000fd5b505050505050565b600047905090565b346000803373ffffffffffffffffffffffffffffffffffffffff1673ffffffffffffffffffffffffffffffffffffffff16815260200190815260200160002060008282546103f3919061089e565b92505081905550600160009054906101000a900473ffffffffffffffffffffffffffffffffffffffff1673ffffffffffffffffffffffffffffffffffffffff1663a1f2e8aa33346040518363ffffffff1660e01b8152600401610457929190610940565b600060405180830381600087803b15801561047157600080fd5b505af1158015610485573d6000803e3d6000fd5b50505050565b600080fd5b600073ffffffffffffffffffffffffffffffffffffffff82169050919050565b60006104bb82610490565b9050919050565b6104cb816104b0565b81146104d657600080fd5b50565b6000813590506104e8816104c2565b92915050565b6000602082840312156105045761050361048b565b5b6000610512848285016104d9565b91505092915050565b6000819050919050565b61052e8161051b565b82525050565b60006020820190506105496000830184610525565b92915050565b6105588161051b565b811461056357600080fd5b50565b6000813590506105758161054f565b92915050565b6000602082840312156105915761059061048b565b5b600061059f84828501610566565b91505092915050565b6105b1816104b0565b82525050565b6000819050919050565b6000819050919050565b60006105e66105e16105dc846105b7565b6105c1565b61051b565b9050919050565b6105f6816105cb565b82525050565b600082825260208201905092915050565b7f5769746864726177546573740000000000000000000000000000000000000000600082015250565b6000610643600c836105fc565b915061064e8261060d565b602082019050919050565b600060608201905061066e60008301856105a8565b61067b60208301846105ed565b818103604083015261068c81610636565b90509392505050565b7f496e73756666696369656e742066756e64730000000000000000000000000000600082015250565b60006106cb6012836105fc565b91506106d682610695565b602082019050919050565b600060208201905081810360008301526106fa816106be565b9050919050565b600081905092915050565b50565b600061071c600083610701565b91506107278261070c565b600082019050919050565b600061073d8261070f565b9150819050919050565b7f4661696c656420746f2073656e64204574686572000000000000000000000000600082015250565b600061077d6014836105fc565b915061078882610747565b602082019050919050565b600060208201905081810360008301526107ac81610770565b9050919050565b7f4e487b7100000000000000000000000000000000000000000000000000000000600052601160045260246000fd5b60006107ed8261051b565b91506107f88361051b565b92508282101561080b5761080a6107b3565b5b828203905092915050565b7f5769746864726177000000000000000000000000000000000000000000000000600082015250565b600061084c6008836105fc565b915061085782610816565b602082019050919050565b600060608201905061087760008301856105a8565b6108846020830184610525565b81810360408301526108958161083f565b90509392505050565b60006108a98261051b565b91506108b48361051b565b9250827fffffffffffffffffffffffffffffffffffffffffffffffffffffffffffffffff038211156108e9576108e86107b3565b5b828201905092915050565b7f4465706f73697400000000000000000000000000000000000000000000000000600082015250565b600061092a6007836105fc565b9150610935826108f4565b602082019050919050565b600060608201905061095560008301856105a8565b6109626020830184610525565b81810360408301526109738161091d565b9050939250505056fea264697066735822122039ee9212a66f5abcdd3d919f4a96ee47f10ef63a47a655f0f25ad91c42b3f35f64736f6c634300080d0033",
					"opcodes": "PUSH1 0x80 PUSH1 0x40 MSTORE CALLVALUE DUP1 ISZERO PUSH2 0x10 JUMPI PUSH1 0x0 DUP1 REVERT JUMPDEST POP PUSH1 0x40 MLOAD PUSH2 0xADC CODESIZE SUB DUP1 PUSH2 0xADC DUP4 CODECOPY DUP2 DUP2 ADD PUSH1 0x40 MSTORE DUP2 ADD SWAP1 PUSH2 0x32 SWAP2 SWAP1 PUSH2 0xEE JUMP JUMPDEST DUP1 PUSH1 0x1 PUSH1 0x0 PUSH2 0x100 EXP DUP2 SLOAD DUP2 PUSH20 0xFFFFFFFFFFFFFFFFFFFFFFFFFFFFFFFFFFFFFFFF MUL NOT AND SWAP1 DUP4 PUSH20 0xFFFFFFFFFFFFFFFFFFFFFFFFFFFFFFFFFFFFFFFF AND MUL OR SWAP1 SSTORE POP POP PUSH2 0x11B JUMP JUMPDEST PUSH1 0x0 DUP1 REVERT JUMPDEST PUSH1 0x0 PUSH20 0xFFFFFFFFFFFFFFFFFFFFFFFFFFFFFFFFFFFFFFFF DUP3 AND SWAP1 POP SWAP2 SWAP1 POP JUMP JUMPDEST PUSH1 0x0 PUSH2 0xA9 DUP3 PUSH2 0x7E JUMP JUMPDEST SWAP1 POP SWAP2 SWAP1 POP JUMP JUMPDEST PUSH1 0x0 PUSH2 0xBB DUP3 PUSH2 0x9E JUMP JUMPDEST SWAP1 POP SWAP2 SWAP1 POP JUMP JUMPDEST PUSH2 0xCB DUP2 PUSH2 0xB0 JUMP JUMPDEST DUP2 EQ PUSH2 0xD6 JUMPI PUSH1 0x0 DUP1 REVERT JUMPDEST POP JUMP JUMPDEST PUSH1 0x0 DUP2 MLOAD SWAP1 POP PUSH2 0xE8 DUP2 PUSH2 0xC2 JUMP JUMPDEST SWAP3 SWAP2 POP POP JUMP JUMPDEST PUSH1 0x0 PUSH1 0x20 DUP3 DUP5 SUB SLT ISZERO PUSH2 0x104 JUMPI PUSH2 0x103 PUSH2 0x79 JUMP JUMPDEST JUMPDEST PUSH1 0x0 PUSH2 0x112 DUP5 DUP3 DUP6 ADD PUSH2 0xD9 JUMP JUMPDEST SWAP2 POP POP SWAP3 SWAP2 POP POP JUMP JUMPDEST PUSH2 0x9B2 DUP1 PUSH2 0x12A PUSH1 0x0 CODECOPY PUSH1 0x0 RETURN INVALID PUSH1 0x80 PUSH1 0x40 MSTORE PUSH1 0x4 CALLDATASIZE LT PUSH2 0x3F JUMPI PUSH1 0x0 CALLDATALOAD PUSH1 0xE0 SHR DUP1 PUSH4 0x27E235E3 EQ PUSH2 0x44 JUMPI DUP1 PUSH4 0x2E1A7D4D EQ PUSH2 0x81 JUMPI DUP1 PUSH4 0x791B8860 EQ PUSH2 0xAA JUMPI DUP1 PUSH4 0xD0E30DB0 EQ PUSH2 0xD5 JUMPI JUMPDEST PUSH1 0x0 DUP1 REVERT JUMPDEST CALLVALUE DUP1 ISZERO PUSH2 0x50 JUMPI PUSH1 0x0 DUP1 REVERT JUMPDEST POP PUSH2 0x6B PUSH1 0x4 DUP1 CALLDATASIZE SUB DUP2 ADD SWAP1 PUSH2 0x66 SWAP2 SWAP1 PUSH2 0x4EE JUMP JUMPDEST PUSH2 0xDF JUMP JUMPDEST PUSH1 0x40 MLOAD PUSH2 0x78 SWAP2 SWAP1 PUSH2 0x534 JUMP JUMPDEST PUSH1 0x40 MLOAD DUP1 SWAP2 SUB SWAP1 RETURN JUMPDEST CALLVALUE DUP1 ISZERO PUSH2 0x8D JUMPI PUSH1 0x0 DUP1 REVERT JUMPDEST POP PUSH2 0xA8 PUSH1 0x4 DUP1 CALLDATASIZE SUB DUP2 ADD SWAP1 PUSH2 0xA3 SWAP2 SWAP1 PUSH2 0x57B JUMP JUMPDEST PUSH2 0xF7 JUMP JUMPDEST STOP JUMPDEST CALLVALUE DUP1 ISZERO PUSH2 0xB6 JUMPI PUSH1 0x0 DUP1 REVERT JUMPDEST POP PUSH2 0xBF PUSH2 0x39D JUMP JUMPDEST PUSH1 0x40 MLOAD PUSH2 0xCC SWAP2 SWAP1 PUSH2 0x534 JUMP JUMPDEST PUSH1 0x40 MLOAD DUP1 SWAP2 SUB SWAP1 RETURN JUMPDEST PUSH2 0xDD PUSH2 0x3A5 JUMP JUMPDEST STOP JUMPDEST PUSH1 0x0 PUSH1 0x20 MSTORE DUP1 PUSH1 0x0 MSTORE PUSH1 0x40 PUSH1 0x0 KECCAK256 PUSH1 0x0 SWAP2 POP SWAP1 POP SLOAD DUP2 JUMP JUMPDEST PUSH1 0x1 PUSH1 0x0 SWAP1 SLOAD SWAP1 PUSH2 0x100 EXP SWAP1 DIV PUSH20 0xFFFFFFFFFFFFFFFFFFFFFFFFFFFFFFFFFFFFFFFF AND PUSH20 0xFFFFFFFFFFFFFFFFFFFFFFFFFFFFFFFFFFFFFFFF AND PUSH4 0xA1F2E8AA CALLER PUSH2 0x1388 PUSH1 0x40 MLOAD DUP4 PUSH4 0xFFFFFFFF AND PUSH1 0xE0 SHL DUP2 MSTORE PUSH1 0x4 ADD PUSH2 0x156 SWAP3 SWAP2 SWAP1 PUSH2 0x659 JUMP JUMPDEST PUSH1 0x0 PUSH1 0x40 MLOAD DUP1 DUP4 SUB DUP2 PUSH1 0x0 DUP8 DUP1 EXTCODESIZE ISZERO DUP1 ISZERO PUSH2 0x170 JUMPI PUSH1 0x0 DUP1 REVERT JUMPDEST POP GAS CALL ISZERO DUP1 ISZERO PUSH2 0x184 JUMPI RETURNDATASIZE PUSH1 0x0 DUP1 RETURNDATACOPY RETURNDATASIZE PUSH1 0x0 REVERT JUMPDEST POP POP POP POP PUSH1 0x0 DUP1 CALLER PUSH20 0xFFFFFFFFFFFFFFFFFFFFFFFFFFFFFFFFFFFFFFFF AND PUSH20 0xFFFFFFFFFFFFFFFFFFFFFFFFFFFFFFFFFFFFFFFF AND DUP2 MSTORE PUSH1 0x20 ADD SWAP1 DUP2 MSTORE PUSH1 0x20 ADD PUSH1 0x0 KECCAK256 SLOAD DUP2 GT ISZERO PUSH2 0x209 JUMPI PUSH1 0x40 MLOAD PUSH32 0x8C379A000000000000000000000000000000000000000000000000000000000 DUP2 MSTORE PUSH1 0x4 ADD PUSH2 0x200 SWAP1 PUSH2 0x6E1 JUMP JUMPDEST PUSH1 0x40 MLOAD DUP1 SWAP2 SUB SWAP1 REVERT JUMPDEST PUSH1 0x0 CALLER PUSH20 0xFFFFFFFFFFFFFFFFFFFFFFFFFFFFFFFFFFFFFFFF AND DUP3 PUSH1 0x40 MLOAD PUSH2 0x22F SWAP1 PUSH2 0x732 JUMP JUMPDEST PUSH1 0x0 PUSH1 0x40 MLOAD DUP1 DUP4 SUB DUP2 DUP6 DUP8 GAS CALL SWAP3 POP POP POP RETURNDATASIZE DUP1 PUSH1 0x0 DUP2 EQ PUSH2 0x26C JUMPI PUSH1 0x40 MLOAD SWAP2 POP PUSH1 0x1F NOT PUSH1 0x3F RETURNDATASIZE ADD AND DUP3 ADD PUSH1 0x40 MSTORE RETURNDATASIZE DUP3 MSTORE RETURNDATASIZE PUSH1 0x0 PUSH1 0x20 DUP5 ADD RETURNDATACOPY PUSH2 0x271 JUMP JUMPDEST PUSH1 0x60 SWAP2 POP JUMPDEST POP POP SWAP1 POP DUP1 PUSH2 0x2B5 JUMPI PUSH1 0x40 MLOAD PUSH32 0x8C379A000000000000000000000000000000000000000000000000000000000 DUP2 MSTORE PUSH1 0x4 ADD PUSH2 0x2AC SWAP1 PUSH2 0x793 JUMP JUMPDEST PUSH1 0x40 MLOAD DUP1 SWAP2 SUB SWAP1 REVERT JUMPDEST DUP2 PUSH1 0x0 DUP1 CALLER PUSH20 0xFFFFFFFFFFFFFFFFFFFFFFFFFFFFFFFFFFFFFFFF AND PUSH20 0xFFFFFFFFFFFFFFFFFFFFFFFFFFFFFFFFFFFFFFFF AND DUP2 MSTORE PUSH1 0x20 ADD SWAP1 DUP2 MSTORE PUSH1 0x20 ADD PUSH1 0x0 KECCAK256 PUSH1 0x0 DUP3 DUP3 SLOAD PUSH2 0x303 SWAP2 SWAP1 PUSH2 0x7E2 JUMP JUMPDEST SWAP3 POP POP DUP2 SWAP1 SSTORE POP PUSH1 0x1 PUSH1 0x0 SWAP1 SLOAD SWAP1 PUSH2 0x100 EXP SWAP1 DIV PUSH20 0xFFFFFFFFFFFFFFFFFFFFFFFFFFFFFFFFFFFFFFFF AND PUSH20 0xFFFFFFFFFFFFFFFFFFFFFFFFFFFFFFFFFFFFFFFF AND PUSH4 0xA1F2E8AA CALLER DUP5 PUSH1 0x40 MLOAD DUP4 PUSH4 0xFFFFFFFF AND PUSH1 0xE0 SHL DUP2 MSTORE PUSH1 0x4 ADD PUSH2 0x367 SWAP3 SWAP2 SWAP1 PUSH2 0x862 JUMP JUMPDEST PUSH1 0x0 PUSH1 0x40 MLOAD DUP1 DUP4 SUB DUP2 PUSH1 0x0 DUP8 DUP1 EXTCODESIZE ISZERO DUP1 ISZERO PUSH2 0x381 JUMPI PUSH1 0x0 DUP1 REVERT JUMPDEST POP GAS CALL ISZERO DUP1 ISZERO PUSH2 0x395 JUMPI RETURNDATASIZE PUSH1 0x0 DUP1 RETURNDATACOPY RETURNDATASIZE PUSH1 0x0 REVERT JUMPDEST POP POP POP POP POP POP JUMP JUMPDEST PUSH1 0x0 SELFBALANCE SWAP1 POP SWAP1 JUMP JUMPDEST CALLVALUE PUSH1 0x0 DUP1 CALLER PUSH20 0xFFFFFFFFFFFFFFFFFFFFFFFFFFFFFFFFFFFFFFFF AND PUSH20 0xFFFFFFFFFFFFFFFFFFFFFFFFFFFFFFFFFFFFFFFF AND DUP2 MSTORE PUSH1 0x20 ADD SWAP1 DUP2 MSTORE PUSH1 0x20 ADD PUSH1 0x0 KECCAK256 PUSH1 0x0 DUP3 DUP3 SLOAD PUSH2 0x3F3 SWAP2 SWAP1 PUSH2 0x89E JUMP JUMPDEST SWAP3 POP POP DUP2 SWAP1 SSTORE POP PUSH1 0x1 PUSH1 0x0 SWAP1 SLOAD SWAP1 PUSH2 0x100 EXP SWAP1 DIV PUSH20 0xFFFFFFFFFFFFFFFFFFFFFFFFFFFFFFFFFFFFFFFF AND PUSH20 0xFFFFFFFFFFFFFFFFFFFFFFFFFFFFFFFFFFFFFFFF AND PUSH4 0xA1F2E8AA CALLER CALLVALUE PUSH1 0x40 MLOAD DUP4 PUSH4 0xFFFFFFFF AND PUSH1 0xE0 SHL DUP2 MSTORE PUSH1 0x4 ADD PUSH2 0x457 SWAP3 SWAP2 SWAP1 PUSH2 0x940 JUMP JUMPDEST PUSH1 0x0 PUSH1 0x40 MLOAD DUP1 DUP4 SUB DUP2 PUSH1 0x0 DUP8 DUP1 EXTCODESIZE ISZERO DUP1 ISZERO PUSH2 0x471 JUMPI PUSH1 0x0 DUP1 REVERT JUMPDEST POP GAS CALL ISZERO DUP1 ISZERO PUSH2 0x485 JUMPI RETURNDATASIZE PUSH1 0x0 DUP1 RETURNDATACOPY RETURNDATASIZE PUSH1 0x0 REVERT JUMPDEST POP POP POP POP JUMP JUMPDEST PUSH1 0x0 DUP1 REVERT JUMPDEST PUSH1 0x0 PUSH20 0xFFFFFFFFFFFFFFFFFFFFFFFFFFFFFFFFFFFFFFFF DUP3 AND SWAP1 POP SWAP2 SWAP1 POP JUMP JUMPDEST PUSH1 0x0 PUSH2 0x4BB DUP3 PUSH2 0x490 JUMP JUMPDEST SWAP1 POP SWAP2 SWAP1 POP JUMP JUMPDEST PUSH2 0x4CB DUP2 PUSH2 0x4B0 JUMP JUMPDEST DUP2 EQ PUSH2 0x4D6 JUMPI PUSH1 0x0 DUP1 REVERT JUMPDEST POP JUMP JUMPDEST PUSH1 0x0 DUP2 CALLDATALOAD SWAP1 POP PUSH2 0x4E8 DUP2 PUSH2 0x4C2 JUMP JUMPDEST SWAP3 SWAP2 POP POP JUMP JUMPDEST PUSH1 0x0 PUSH1 0x20 DUP3 DUP5 SUB SLT ISZERO PUSH2 0x504 JUMPI PUSH2 0x503 PUSH2 0x48B JUMP JUMPDEST JUMPDEST PUSH1 0x0 PUSH2 0x512 DUP5 DUP3 DUP6 ADD PUSH2 0x4D9 JUMP JUMPDEST SWAP2 POP POP SWAP3 SWAP2 POP POP JUMP JUMPDEST PUSH1 0x0 DUP2 SWAP1 POP SWAP2 SWAP1 POP JUMP JUMPDEST PUSH2 0x52E DUP2 PUSH2 0x51B JUMP JUMPDEST DUP3 MSTORE POP POP JUMP JUMPDEST PUSH1 0x0 PUSH1 0x20 DUP3 ADD SWAP1 POP PUSH2 0x549 PUSH1 0x0 DUP4 ADD DUP5 PUSH2 0x525 JUMP JUMPDEST SWAP3 SWAP2 POP POP JUMP JUMPDEST PUSH2 0x558 DUP2 PUSH2 0x51B JUMP JUMPDEST DUP2 EQ PUSH2 0x563 JUMPI PUSH1 0x0 DUP1 REVERT JUMPDEST POP JUMP JUMPDEST PUSH1 0x0 DUP2 CALLDATALOAD SWAP1 POP PUSH2 0x575 DUP2 PUSH2 0x54F JUMP JUMPDEST SWAP3 SWAP2 POP POP JUMP JUMPDEST PUSH1 0x0 PUSH1 0x20 DUP3 DUP5 SUB SLT ISZERO PUSH2 0x591 JUMPI PUSH2 0x590 PUSH2 0x48B JUMP JUMPDEST JUMPDEST PUSH1 0x0 PUSH2 0x59F DUP5 DUP3 DUP6 ADD PUSH2 0x566 JUMP JUMPDEST SWAP2 POP POP SWAP3 SWAP2 POP POP JUMP JUMPDEST PUSH2 0x5B1 DUP2 PUSH2 0x4B0 JUMP JUMPDEST DUP3 MSTORE POP POP JUMP JUMPDEST PUSH1 0x0 DUP2 SWAP1 POP SWAP2 SWAP1 POP JUMP JUMPDEST PUSH1 0x0 DUP2 SWAP1 POP SWAP2 SWAP1 POP JUMP JUMPDEST PUSH1 0x0 PUSH2 0x5E6 PUSH2 0x5E1 PUSH2 0x5DC DUP5 PUSH2 0x5B7 JUMP JUMPDEST PUSH2 0x5C1 JUMP JUMPDEST PUSH2 0x51B JUMP JUMPDEST SWAP1 POP SWAP2 SWAP1 POP JUMP JUMPDEST PUSH2 0x5F6 DUP2 PUSH2 0x5CB JUMP JUMPDEST DUP3 MSTORE POP POP JUMP JUMPDEST PUSH1 0x0 DUP3 DUP3 MSTORE PUSH1 0x20 DUP3 ADD SWAP1 POP SWAP3 SWAP2 POP POP JUMP JUMPDEST PUSH32 0x5769746864726177546573740000000000000000000000000000000000000000 PUSH1 0x0 DUP3 ADD MSTORE POP JUMP JUMPDEST PUSH1 0x0 PUSH2 0x643 PUSH1 0xC DUP4 PUSH2 0x5FC JUMP JUMPDEST SWAP2 POP PUSH2 0x64E DUP3 PUSH2 0x60D JUMP JUMPDEST PUSH1 0x20 DUP3 ADD SWAP1 POP SWAP2 SWAP1 POP JUMP JUMPDEST PUSH1 0x0 PUSH1 0x60 DUP3 ADD SWAP1 POP PUSH2 0x66E PUSH1 0x0 DUP4 ADD DUP6 PUSH2 0x5A8 JUMP JUMPDEST PUSH2 0x67B PUSH1 0x20 DUP4 ADD DUP5 PUSH2 0x5ED JUMP JUMPDEST DUP2 DUP2 SUB PUSH1 0x40 DUP4 ADD MSTORE PUSH2 0x68C DUP2 PUSH2 0x636 JUMP JUMPDEST SWAP1 POP SWAP4 SWAP3 POP POP POP JUMP JUMPDEST PUSH32 0x496E73756666696369656E742066756E64730000000000000000000000000000 PUSH1 0x0 DUP3 ADD MSTORE POP JUMP JUMPDEST PUSH1 0x0 PUSH2 0x6CB PUSH1 0x12 DUP4 PUSH2 0x5FC JUMP JUMPDEST SWAP2 POP PUSH2 0x6D6 DUP3 PUSH2 0x695 JUMP JUMPDEST PUSH1 0x20 DUP3 ADD SWAP1 POP SWAP2 SWAP1 POP JUMP JUMPDEST PUSH1 0x0 PUSH1 0x20 DUP3 ADD SWAP1 POP DUP2 DUP2 SUB PUSH1 0x0 DUP4 ADD MSTORE PUSH2 0x6FA DUP2 PUSH2 0x6BE JUMP JUMPDEST SWAP1 POP SWAP2 SWAP1 POP JUMP JUMPDEST PUSH1 0x0 DUP2 SWAP1 POP SWAP3 SWAP2 POP POP JUMP JUMPDEST POP JUMP JUMPDEST PUSH1 0x0 PUSH2 0x71C PUSH1 0x0 DUP4 PUSH2 0x701 JUMP JUMPDEST SWAP2 POP PUSH2 0x727 DUP3 PUSH2 0x70C JUMP JUMPDEST PUSH1 0x0 DUP3 ADD SWAP1 POP SWAP2 SWAP1 POP JUMP JUMPDEST PUSH1 0x0 PUSH2 0x73D DUP3 PUSH2 0x70F JUMP JUMPDEST SWAP2 POP DUP2 SWAP1 POP SWAP2 SWAP1 POP JUMP JUMPDEST PUSH32 0x4661696C656420746F2073656E64204574686572000000000000000000000000 PUSH1 0x0 DUP3 ADD MSTORE POP JUMP JUMPDEST PUSH1 0x0 PUSH2 0x77D PUSH1 0x14 DUP4 PUSH2 0x5FC JUMP JUMPDEST SWAP2 POP PUSH2 0x788 DUP3 PUSH2 0x747 JUMP JUMPDEST PUSH1 0x20 DUP3 ADD SWAP1 POP SWAP2 SWAP1 POP JUMP JUMPDEST PUSH1 0x0 PUSH1 0x20 DUP3 ADD SWAP1 POP DUP2 DUP2 SUB PUSH1 0x0 DUP4 ADD MSTORE PUSH2 0x7AC DUP2 PUSH2 0x770 JUMP JUMPDEST SWAP1 POP SWAP2 SWAP1 POP JUMP JUMPDEST PUSH32 0x4E487B7100000000000000000000000000000000000000000000000000000000 PUSH1 0x0 MSTORE PUSH1 0x11 PUSH1 0x4 MSTORE PUSH1 0x24 PUSH1 0x0 REVERT JUMPDEST PUSH1 0x0 PUSH2 0x7ED DUP3 PUSH2 0x51B JUMP JUMPDEST SWAP2 POP PUSH2 0x7F8 DUP4 PUSH2 0x51B JUMP JUMPDEST SWAP3 POP DUP3 DUP3 LT ISZERO PUSH2 0x80B JUMPI PUSH2 0x80A PUSH2 0x7B3 JUMP JUMPDEST JUMPDEST DUP3 DUP3 SUB SWAP1 POP SWAP3 SWAP2 POP POP JUMP JUMPDEST PUSH32 0x5769746864726177000000000000000000000000000000000000000000000000 PUSH1 0x0 DUP3 ADD MSTORE POP JUMP JUMPDEST PUSH1 0x0 PUSH2 0x84C PUSH1 0x8 DUP4 PUSH2 0x5FC JUMP JUMPDEST SWAP2 POP PUSH2 0x857 DUP3 PUSH2 0x816 JUMP JUMPDEST PUSH1 0x20 DUP3 ADD SWAP1 POP SWAP2 SWAP1 POP JUMP JUMPDEST PUSH1 0x0 PUSH1 0x60 DUP3 ADD SWAP1 POP PUSH2 0x877 PUSH1 0x0 DUP4 ADD DUP6 PUSH2 0x5A8 JUMP JUMPDEST PUSH2 0x884 PUSH1 0x20 DUP4 ADD DUP5 PUSH2 0x525 JUMP JUMPDEST DUP2 DUP2 SUB PUSH1 0x40 DUP4 ADD MSTORE PUSH2 0x895 DUP2 PUSH2 0x83F JUMP JUMPDEST SWAP1 POP SWAP4 SWAP3 POP POP POP JUMP JUMPDEST PUSH1 0x0 PUSH2 0x8A9 DUP3 PUSH2 0x51B JUMP JUMPDEST SWAP2 POP PUSH2 0x8B4 DUP4 PUSH2 0x51B JUMP JUMPDEST SWAP3 POP DUP3 PUSH32 0xFFFFFFFFFFFFFFFFFFFFFFFFFFFFFFFFFFFFFFFFFFFFFFFFFFFFFFFFFFFFFFFF SUB DUP3 GT ISZERO PUSH2 0x8E9 JUMPI PUSH2 0x8E8 PUSH2 0x7B3 JUMP JUMPDEST JUMPDEST DUP3 DUP3 ADD SWAP1 POP SWAP3 SWAP2 POP POP JUMP JUMPDEST PUSH32 0x4465706F73697400000000000000000000000000000000000000000000000000 PUSH1 0x0 DUP3 ADD MSTORE POP JUMP JUMPDEST PUSH1 0x0 PUSH2 0x92A PUSH1 0x7 DUP4 PUSH2 0x5FC JUMP JUMPDEST SWAP2 POP PUSH2 0x935 DUP3 PUSH2 0x8F4 JUMP JUMPDEST PUSH1 0x20 DUP3 ADD SWAP1 POP SWAP2 SWAP1 POP JUMP JUMPDEST PUSH1 0x0 PUSH1 0x60 DUP3 ADD SWAP1 POP PUSH2 0x955 PUSH1 0x0 DUP4 ADD DUP6 PUSH2 0x5A8 JUMP JUMPDEST PUSH2 0x962 PUSH1 0x20 DUP4 ADD DUP5 PUSH2 0x525 JUMP JUMPDEST DUP2 DUP2 SUB PUSH1 0x40 DUP4 ADD MSTORE PUSH2 0x973 DUP2 PUSH2 0x91D JUMP JUMPDEST SWAP1 POP SWAP4 SWAP3 POP POP POP JUMP INVALID LOG2 PUSH5 0x6970667358 0x22 SLT KECCAK256 CODECOPY 0xEE SWAP3 SLT 0xA6 PUSH16 0x5ABCDD3D919F4A96EE47F10EF63A47A6 SSTORE CREATE CALLCODE GAS 0xD9 SHR TIMESTAMP 0xB3 RETURN 0x5F PUSH5 0x736F6C6343 STOP ADDMOD 0xD STOP CALLER "
				},
				"gasEstimates": {
					"creation": {
						"codeDepositCost": "496400",
						"executionCost": "infinite",
						"totalCost": "infinite"
					},
					"external": {
						"balances(address)": "2792",
						"deposit()": "infinite",
						"getBalanceBank()": "361",
						"withdraw(uint256)": "infinite"
					}
				},
				"methodIdentifiers": {
					"balances(address)": "27e235e3",
					"deposit()": "d0e30db0",
					"getBalanceBank()": "791b8860",
					"withdraw(uint256)": "2e1a7d4d"
				}
			},
			"storageLayout": {
				"storage": [
					{
						"astId": 5,
						"contract": "Bank.sol:Bank",
						"label": "balances",
						"offset": 0,
						"slot": "0",
						"type": "t_mapping(t_address,t_uint256)"
					},
					{
						"astId": 8,
						"contract": "Bank.sol:Bank",
						"label": "logger",
						"offset": 0,
						"slot": "1",
						"type": "t_contract(Logger)137"
					}
				],
				"types": {
					"t_address": {
						"encoding": "inplace",
						"label": "address",
						"numberOfBytes": "20"
					},
					"t_contract(Logger)137": {
						"encoding": "inplace",
						"label": "contract Logger",
						"numberOfBytes": "20"
					},
					"t_mapping(t_address,t_uint256)": {
						"encoding": "mapping",
						"key": "t_address",
						"label": "mapping(address => uint256)",
						"numberOfBytes": "32",
						"value": "t_uint256"
					},
					"t_uint256": {
						"encoding": "inplace",
						"label": "uint256",
						"numberOfBytes": "32"
					}
				}
			},
			"userdoc": {
				"kind": "user",
				"methods": {},
				"version": 1
			}
		}
	}
}