{
	"EtherWallet.sol": {
		"EtherWallet": {
			"abi": [
				{
					"inputs": [],
					"stateMutability": "nonpayable",
					"type": "constructor"
				},
				{
					"inputs": [
						{
							"internalType": "address",
							"name": "_erc20",
							"type": "address"
						}
					],
					"name": "balanceOfThisToken",
					"outputs": [
						{
							"internalType": "uint256",
							"name": "",
							"type": "uint256"
						}
					],
					"stateMutability": "view",
					"type": "function"
				},
				{
					"inputs": [],
					"name": "getBalance",
					"outputs": [
						{
							"internalType": "uint256",
							"name": "",
							"type": "uint256"
						}
					],
					"stateMutability": "view",
					"type": "function"
				},
				{
					"inputs": [],
					"name": "owner",
					"outputs": [
						{
							"internalType": "address payable",
							"name": "",
							"type": "address"
						}
					],
					"stateMutability": "view",
					"type": "function"
				},
				{
					"inputs": [
						{
							"internalType": "uint256",
							"name": "_amount",
							"type": "uint256"
						}
					],
					"name": "withdraw",
					"outputs": [],
					"stateMutability": "nonpayable",
					"type": "function"
				},
				{
					"stateMutability": "payable",
					"type": "receive"
				}
			],
			"devdoc": {
				"kind": "dev",
				"methods": {},
				"version": 1
			},
			"evm": {
				"assembly": "    /* \"EtherWallet.sol\":157:839  contract EtherWallet {... */\n  mstore(0x40, 0x80)\n    /* \"EtherWallet.sol\":219:277  constructor() {... */\n  callvalue\n  dup1\n  iszero\n  tag_1\n  jumpi\n  0x00\n  dup1\n  revert\ntag_1:\n  pop\n    /* \"EtherWallet.sol\":259:269  msg.sender */\n  caller\n    /* \"EtherWallet.sol\":243:248  owner */\n  0x00\n  dup1\n    /* \"EtherWallet.sol\":243:270  owner = payable(msg.sender) */\n  0x0100\n  exp\n  dup2\n  sload\n  dup2\n  0xffffffffffffffffffffffffffffffffffffffff\n  mul\n  not\n  and\n  swap1\n  dup4\n  0xffffffffffffffffffffffffffffffffffffffff\n  and\n  mul\n  or\n  swap1\n  sstore\n  pop\n    /* \"EtherWallet.sol\":157:839  contract EtherWallet {... */\n  dataSize(sub_0)\n  dup1\n  dataOffset(sub_0)\n  0x00\n  codecopy\n  0x00\n  return\nstop\n\nsub_0: assembly {\n        /* \"EtherWallet.sol\":157:839  contract EtherWallet {... */\n      mstore(0x40, 0x80)\n      jumpi(tag_1, lt(calldatasize, 0x04))\n      shr(0xe0, calldataload(0x00))\n      dup1\n      0x03fe44ef\n      eq\n      tag_3\n      jumpi\n      dup1\n      0x12065fe0\n      eq\n      tag_4\n      jumpi\n      dup1\n      0x2e1a7d4d\n      eq\n      tag_5\n      jumpi\n      dup1\n      0x8da5cb5b\n      eq\n      tag_6\n      jumpi\n      jump(tag_2)\n    tag_1:\n      jumpi(tag_2, calldatasize)\n      stop\n    tag_2:\n      0x00\n      dup1\n      revert\n        /* \"EtherWallet.sol\":590:837  function balanceOfThisToken(address _erc20) external view returns (uint){... */\n    tag_3:\n      callvalue\n      dup1\n      iszero\n      tag_9\n      jumpi\n      0x00\n      dup1\n      revert\n    tag_9:\n      pop\n      tag_10\n      0x04\n      dup1\n      calldatasize\n      sub\n      dup2\n      add\n      swap1\n      tag_11\n      swap2\n      swap1\n      tag_12\n      jump\t// in\n    tag_11:\n      tag_13\n      jump\t// in\n    tag_10:\n      mload(0x40)\n      tag_14\n      swap2\n      swap1\n      tag_15\n      jump\t// in\n    tag_14:\n      mload(0x40)\n      dup1\n      swap2\n      sub\n      swap1\n      return\n        /* \"EtherWallet.sol\":484:579  function getBalance() external view returns (uint){... */\n    tag_4:\n      callvalue\n      dup1\n      iszero\n      tag_16\n      jumpi\n      0x00\n      dup1\n      revert\n    tag_16:\n      pop\n      tag_17\n      tag_18\n      jump\t// in\n    tag_17:\n      mload(0x40)\n      tag_19\n      swap2\n      swap1\n      tag_15\n      jump\t// in\n    tag_19:\n      mload(0x40)\n      dup1\n      swap2\n      sub\n      swap1\n      return\n        /* \"EtherWallet.sol\":322:478  function withdraw(uint _amount) external {... */\n    tag_5:\n      callvalue\n      dup1\n      iszero\n      tag_20\n      jumpi\n      0x00\n      dup1\n      revert\n    tag_20:\n      pop\n      tag_21\n      0x04\n      dup1\n      calldatasize\n      sub\n      dup2\n      add\n      swap1\n      tag_22\n      swap2\n      swap1\n      tag_23\n      jump\t// in\n    tag_22:\n      tag_24\n      jump\t// in\n    tag_21:\n      stop\n        /* \"EtherWallet.sol\":184:212  address payable public owner */\n    tag_6:\n      callvalue\n      dup1\n      iszero\n      tag_25\n      jumpi\n      0x00\n      dup1\n      revert\n    tag_25:\n      pop\n      tag_26\n      tag_27\n      jump\t// in\n    tag_26:\n      mload(0x40)\n      tag_28\n      swap2\n      swap1\n      tag_29\n      jump\t// in\n    tag_28:\n      mload(0x40)\n      dup1\n      swap2\n      sub\n      swap1\n      return\n        /* \"EtherWallet.sol\":590:837  function balanceOfThisToken(address _erc20) external view returns (uint){... */\n    tag_13:\n        /* \"EtherWallet.sol\":657:661  uint */\n      0x00\n        /* \"EtherWallet.sol\":672:699  ERC20Standard erc20instance */\n      dup1\n        /* \"EtherWallet.sol\":716:722  _erc20 */\n      dup3\n        /* \"EtherWallet.sol\":672:723  ERC20Standard erc20instance = ERC20Standard(_erc20) */\n      swap1\n      pop\n        /* \"EtherWallet.sol\":740:753  erc20instance */\n      dup1\n        /* \"EtherWallet.sol\":740:763  erc20instance.balanceOf */\n      0xffffffffffffffffffffffffffffffffffffffff\n      and\n      0x70a08231\n        /* \"EtherWallet.sol\":772:776  this */\n      address\n        /* \"EtherWallet.sol\":740:778  erc20instance.balanceOf(address(this)) */\n      mload(0x40)\n      dup3\n      0xffffffff\n      and\n      0xe0\n      shl\n      dup2\n      mstore\n      0x04\n      add\n      tag_31\n      swap2\n      swap1\n      tag_32\n      jump\t// in\n    tag_31:\n      0x20\n      mload(0x40)\n      dup1\n      dup4\n      sub\n      dup2\n      dup7\n      gas\n      staticcall\n      iszero\n      dup1\n      iszero\n      tag_34\n      jumpi\n      returndatasize\n      0x00\n      dup1\n      returndatacopy\n      revert(0x00, returndatasize)\n    tag_34:\n      pop\n      pop\n      pop\n      pop\n      mload(0x40)\n      returndatasize\n      not(0x1f)\n      0x1f\n      dup3\n      add\n      and\n      dup3\n      add\n      dup1\n      0x40\n      mstore\n      pop\n      dup2\n      add\n      swap1\n      tag_35\n      swap2\n      swap1\n      tag_36\n      jump\t// in\n    tag_35:\n        /* \"EtherWallet.sol\":733:778  return erc20instance.balanceOf(address(this)) */\n      swap2\n      pop\n      pop\n        /* \"EtherWallet.sol\":590:837  function balanceOfThisToken(address _erc20) external view returns (uint){... */\n      swap2\n      swap1\n      pop\n      jump\t// out\n        /* \"EtherWallet.sol\":484:579  function getBalance() external view returns (uint){... */\n    tag_18:\n        /* \"EtherWallet.sol\":529:533  uint */\n      0x00\n        /* \"EtherWallet.sol\":551:572  address(this).balance */\n      selfbalance\n        /* \"EtherWallet.sol\":544:572  return address(this).balance */\n      swap1\n      pop\n        /* \"EtherWallet.sol\":484:579  function getBalance() external view returns (uint){... */\n      swap1\n      jump\t// out\n        /* \"EtherWallet.sol\":322:478  function withdraw(uint _amount) external {... */\n    tag_24:\n        /* \"EtherWallet.sol\":395:400  owner */\n      0x00\n      dup1\n      sload\n      swap1\n      0x0100\n      exp\n      swap1\n      div\n      0xffffffffffffffffffffffffffffffffffffffff\n      and\n        /* \"EtherWallet.sol\":381:400  msg.sender == owner */\n      0xffffffffffffffffffffffffffffffffffffffff\n      and\n        /* \"EtherWallet.sol\":381:391  msg.sender */\n      caller\n        /* \"EtherWallet.sol\":381:400  msg.sender == owner */\n      0xffffffffffffffffffffffffffffffffffffffff\n      and\n      eq\n        /* \"EtherWallet.sol\":373:424  require(msg.sender == owner, \"caller is not owner\") */\n      tag_39\n      jumpi\n      mload(0x40)\n      0x08c379a000000000000000000000000000000000000000000000000000000000\n      dup2\n      mstore\n      0x04\n      add\n      tag_40\n      swap1\n      tag_41\n      jump\t// in\n    tag_40:\n      mload(0x40)\n      dup1\n      swap2\n      sub\n      swap1\n      revert\n    tag_39:\n        /* \"EtherWallet.sol\":442:452  msg.sender */\n      caller\n        /* \"EtherWallet.sol\":434:462  payable(msg.sender).transfer */\n      0xffffffffffffffffffffffffffffffffffffffff\n      and\n        /* \"EtherWallet.sol\":434:471  payable(msg.sender).transfer(_amount) */\n      0x08fc\n        /* \"EtherWallet.sol\":463:470  _amount */\n      dup3\n        /* \"EtherWallet.sol\":434:471  payable(msg.sender).transfer(_amount) */\n      swap1\n      dup2\n      iszero\n      mul\n      swap1\n      mload(0x40)\n      0x00\n      mload(0x40)\n      dup1\n      dup4\n      sub\n      dup2\n      dup6\n      dup9\n      dup9\n      call\n      swap4\n      pop\n      pop\n      pop\n      pop\n      iszero\n      dup1\n      iszero\n      tag_43\n      jumpi\n      returndatasize\n      0x00\n      dup1\n      returndatacopy\n      revert(0x00, returndatasize)\n    tag_43:\n      pop\n        /* \"EtherWallet.sol\":322:478  function withdraw(uint _amount) external {... */\n      pop\n      jump\t// out\n        /* \"EtherWallet.sol\":184:212  address payable public owner */\n    tag_27:\n      0x00\n      dup1\n      sload\n      swap1\n      0x0100\n      exp\n      swap1\n      div\n      0xffffffffffffffffffffffffffffffffffffffff\n      and\n      dup2\n      jump\t// out\n        /* \"#utility.yul\":88:205   */\n    tag_45:\n        /* \"#utility.yul\":197:198   */\n      0x00\n        /* \"#utility.yul\":194:195   */\n      dup1\n        /* \"#utility.yul\":187:199   */\n      revert\n        /* \"#utility.yul\":334:460   */\n    tag_47:\n        /* \"#utility.yul\":371:378   */\n      0x00\n        /* \"#utility.yul\":411:453   */\n      0xffffffffffffffffffffffffffffffffffffffff\n        /* \"#utility.yul\":404:409   */\n      dup3\n        /* \"#utility.yul\":400:454   */\n      and\n        /* \"#utility.yul\":389:454   */\n      swap1\n      pop\n        /* \"#utility.yul\":334:460   */\n      swap2\n      swap1\n      pop\n      jump\t// out\n        /* \"#utility.yul\":466:562   */\n    tag_48:\n        /* \"#utility.yul\":503:510   */\n      0x00\n        /* \"#utility.yul\":532:556   */\n      tag_68\n        /* \"#utility.yul\":550:555   */\n      dup3\n        /* \"#utility.yul\":532:556   */\n      tag_47\n      jump\t// in\n    tag_68:\n        /* \"#utility.yul\":521:556   */\n      swap1\n      pop\n        /* \"#utility.yul\":466:562   */\n      swap2\n      swap1\n      pop\n      jump\t// out\n        /* \"#utility.yul\":568:690   */\n    tag_49:\n        /* \"#utility.yul\":641:665   */\n      tag_70\n        /* \"#utility.yul\":659:664   */\n      dup2\n        /* \"#utility.yul\":641:665   */\n      tag_48\n      jump\t// in\n    tag_70:\n        /* \"#utility.yul\":634:639   */\n      dup2\n        /* \"#utility.yul\":631:666   */\n      eq\n        /* \"#utility.yul\":621:684   */\n      tag_71\n      jumpi\n        /* \"#utility.yul\":680:681   */\n      0x00\n        /* \"#utility.yul\":677:678   */\n      dup1\n        /* \"#utility.yul\":670:682   */\n      revert\n        /* \"#utility.yul\":621:684   */\n    tag_71:\n        /* \"#utility.yul\":568:690   */\n      pop\n      jump\t// out\n        /* \"#utility.yul\":696:835   */\n    tag_50:\n        /* \"#utility.yul\":742:747   */\n      0x00\n        /* \"#utility.yul\":780:786   */\n      dup2\n        /* \"#utility.yul\":767:787   */\n      calldataload\n        /* \"#utility.yul\":758:787   */\n      swap1\n      pop\n        /* \"#utility.yul\":796:829   */\n      tag_73\n        /* \"#utility.yul\":823:828   */\n      dup2\n        /* \"#utility.yul\":796:829   */\n      tag_49\n      jump\t// in\n    tag_73:\n        /* \"#utility.yul\":696:835   */\n      swap3\n      swap2\n      pop\n      pop\n      jump\t// out\n        /* \"#utility.yul\":841:1170   */\n    tag_12:\n        /* \"#utility.yul\":900:906   */\n      0x00\n        /* \"#utility.yul\":949:951   */\n      0x20\n        /* \"#utility.yul\":937:946   */\n      dup3\n        /* \"#utility.yul\":928:935   */\n      dup5\n        /* \"#utility.yul\":924:947   */\n      sub\n        /* \"#utility.yul\":920:952   */\n      slt\n        /* \"#utility.yul\":917:1036   */\n      iszero\n      tag_75\n      jumpi\n        /* \"#utility.yul\":955:1034   */\n      tag_76\n      tag_45\n      jump\t// in\n    tag_76:\n        /* \"#utility.yul\":917:1036   */\n    tag_75:\n        /* \"#utility.yul\":1075:1076   */\n      0x00\n        /* \"#utility.yul\":1100:1153   */\n      tag_77\n        /* \"#utility.yul\":1145:1152   */\n      dup5\n        /* \"#utility.yul\":1136:1142   */\n      dup3\n        /* \"#utility.yul\":1125:1134   */\n      dup6\n        /* \"#utility.yul\":1121:1143   */\n      add\n        /* \"#utility.yul\":1100:1153   */\n      tag_50\n      jump\t// in\n    tag_77:\n        /* \"#utility.yul\":1090:1153   */\n      swap2\n      pop\n        /* \"#utility.yul\":1046:1163   */\n      pop\n        /* \"#utility.yul\":841:1170   */\n      swap3\n      swap2\n      pop\n      pop\n      jump\t// out\n        /* \"#utility.yul\":1176:1253   */\n    tag_51:\n        /* \"#utility.yul\":1213:1220   */\n      0x00\n        /* \"#utility.yul\":1242:1247   */\n      dup2\n        /* \"#utility.yul\":1231:1247   */\n      swap1\n      pop\n        /* \"#utility.yul\":1176:1253   */\n      swap2\n      swap1\n      pop\n      jump\t// out\n        /* \"#utility.yul\":1259:1377   */\n    tag_52:\n        /* \"#utility.yul\":1346:1370   */\n      tag_80\n        /* \"#utility.yul\":1364:1369   */\n      dup2\n        /* \"#utility.yul\":1346:1370   */\n      tag_51\n      jump\t// in\n    tag_80:\n        /* \"#utility.yul\":1341:1344   */\n      dup3\n        /* \"#utility.yul\":1334:1371   */\n      mstore\n        /* \"#utility.yul\":1259:1377   */\n      pop\n      pop\n      jump\t// out\n        /* \"#utility.yul\":1383:1605   */\n    tag_15:\n        /* \"#utility.yul\":1476:1480   */\n      0x00\n        /* \"#utility.yul\":1514:1516   */\n      0x20\n        /* \"#utility.yul\":1503:1512   */\n      dup3\n        /* \"#utility.yul\":1499:1517   */\n      add\n        /* \"#utility.yul\":1491:1517   */\n      swap1\n      pop\n        /* \"#utility.yul\":1527:1598   */\n      tag_82\n        /* \"#utility.yul\":1595:1596   */\n      0x00\n        /* \"#utility.yul\":1584:1593   */\n      dup4\n        /* \"#utility.yul\":1580:1597   */\n      add\n        /* \"#utility.yul\":1571:1577   */\n      dup5\n        /* \"#utility.yul\":1527:1598   */\n      tag_52\n      jump\t// in\n    tag_82:\n        /* \"#utility.yul\":1383:1605   */\n      swap3\n      swap2\n      pop\n      pop\n      jump\t// out\n        /* \"#utility.yul\":1611:1733   */\n    tag_53:\n        /* \"#utility.yul\":1684:1708   */\n      tag_84\n        /* \"#utility.yul\":1702:1707   */\n      dup2\n        /* \"#utility.yul\":1684:1708   */\n      tag_51\n      jump\t// in\n    tag_84:\n        /* \"#utility.yul\":1677:1682   */\n      dup2\n        /* \"#utility.yul\":1674:1709   */\n      eq\n        /* \"#utility.yul\":1664:1727   */\n      tag_85\n      jumpi\n        /* \"#utility.yul\":1723:1724   */\n      0x00\n        /* \"#utility.yul\":1720:1721   */\n      dup1\n        /* \"#utility.yul\":1713:1725   */\n      revert\n        /* \"#utility.yul\":1664:1727   */\n    tag_85:\n        /* \"#utility.yul\":1611:1733   */\n      pop\n      jump\t// out\n        /* \"#utility.yul\":1739:1878   */\n    tag_54:\n        /* \"#utility.yul\":1785:1790   */\n      0x00\n        /* \"#utility.yul\":1823:1829   */\n      dup2\n        /* \"#utility.yul\":1810:1830   */\n      calldataload\n        /* \"#utility.yul\":1801:1830   */\n      swap1\n      pop\n        /* \"#utility.yul\":1839:1872   */\n      tag_87\n        /* \"#utility.yul\":1866:1871   */\n      dup2\n        /* \"#utility.yul\":1839:1872   */\n      tag_53\n      jump\t// in\n    tag_87:\n        /* \"#utility.yul\":1739:1878   */\n      swap3\n      swap2\n      pop\n      pop\n      jump\t// out\n        /* \"#utility.yul\":1884:2213   */\n    tag_23:\n        /* \"#utility.yul\":1943:1949   */\n      0x00\n        /* \"#utility.yul\":1992:1994   */\n      0x20\n        /* \"#utility.yul\":1980:1989   */\n      dup3\n        /* \"#utility.yul\":1971:1978   */\n      dup5\n        /* \"#utility.yul\":1967:1990   */\n      sub\n        /* \"#utility.yul\":1963:1995   */\n      slt\n        /* \"#utility.yul\":1960:2079   */\n      iszero\n      tag_89\n      jumpi\n        /* \"#utility.yul\":1998:2077   */\n      tag_90\n      tag_45\n      jump\t// in\n    tag_90:\n        /* \"#utility.yul\":1960:2079   */\n    tag_89:\n        /* \"#utility.yul\":2118:2119   */\n      0x00\n        /* \"#utility.yul\":2143:2196   */\n      tag_91\n        /* \"#utility.yul\":2188:2195   */\n      dup5\n        /* \"#utility.yul\":2179:2185   */\n      dup3\n        /* \"#utility.yul\":2168:2177   */\n      dup6\n        /* \"#utility.yul\":2164:2186   */\n      add\n        /* \"#utility.yul\":2143:2196   */\n      tag_54\n      jump\t// in\n    tag_91:\n        /* \"#utility.yul\":2133:2196   */\n      swap2\n      pop\n        /* \"#utility.yul\":2089:2206   */\n      pop\n        /* \"#utility.yul\":1884:2213   */\n      swap3\n      swap2\n      pop\n      pop\n      jump\t// out\n        /* \"#utility.yul\":2219:2323   */\n    tag_55:\n        /* \"#utility.yul\":2264:2271   */\n      0x00\n        /* \"#utility.yul\":2293:2317   */\n      tag_93\n        /* \"#utility.yul\":2311:2316   */\n      dup3\n        /* \"#utility.yul\":2293:2317   */\n      tag_47\n      jump\t// in\n    tag_93:\n        /* \"#utility.yul\":2282:2317   */\n      swap1\n      pop\n        /* \"#utility.yul\":2219:2323   */\n      swap2\n      swap1\n      pop\n      jump\t// out\n        /* \"#utility.yul\":2329:2471   */\n    tag_56:\n        /* \"#utility.yul\":2432:2464   */\n      tag_95\n        /* \"#utility.yul\":2458:2463   */\n      dup2\n        /* \"#utility.yul\":2432:2464   */\n      tag_55\n      jump\t// in\n    tag_95:\n        /* \"#utility.yul\":2427:2430   */\n      dup3\n        /* \"#utility.yul\":2420:2465   */\n      mstore\n        /* \"#utility.yul\":2329:2471   */\n      pop\n      pop\n      jump\t// out\n        /* \"#utility.yul\":2477:2731   */\n    tag_29:\n        /* \"#utility.yul\":2586:2590   */\n      0x00\n        /* \"#utility.yul\":2624:2626   */\n      0x20\n        /* \"#utility.yul\":2613:2622   */\n      dup3\n        /* \"#utility.yul\":2609:2627   */\n      add\n        /* \"#utility.yul\":2601:2627   */\n      swap1\n      pop\n        /* \"#utility.yul\":2637:2724   */\n      tag_97\n        /* \"#utility.yul\":2721:2722   */\n      0x00\n        /* \"#utility.yul\":2710:2719   */\n      dup4\n        /* \"#utility.yul\":2706:2723   */\n      add\n        /* \"#utility.yul\":2697:2703   */\n      dup5\n        /* \"#utility.yul\":2637:2724   */\n      tag_56\n      jump\t// in\n    tag_97:\n        /* \"#utility.yul\":2477:2731   */\n      swap3\n      swap2\n      pop\n      pop\n      jump\t// out\n        /* \"#utility.yul\":2737:2855   */\n    tag_57:\n        /* \"#utility.yul\":2824:2848   */\n      tag_99\n        /* \"#utility.yul\":2842:2847   */\n      dup2\n        /* \"#utility.yul\":2824:2848   */\n      tag_48\n      jump\t// in\n    tag_99:\n        /* \"#utility.yul\":2819:2822   */\n      dup3\n        /* \"#utility.yul\":2812:2849   */\n      mstore\n        /* \"#utility.yul\":2737:2855   */\n      pop\n      pop\n      jump\t// out\n        /* \"#utility.yul\":2861:3083   */\n    tag_32:\n        /* \"#utility.yul\":2954:2958   */\n      0x00\n        /* \"#utility.yul\":2992:2994   */\n      0x20\n        /* \"#utility.yul\":2981:2990   */\n      dup3\n        /* \"#utility.yul\":2977:2995   */\n      add\n        /* \"#utility.yul\":2969:2995   */\n      swap1\n      pop\n        /* \"#utility.yul\":3005:3076   */\n      tag_101\n        /* \"#utility.yul\":3073:3074   */\n      0x00\n        /* \"#utility.yul\":3062:3071   */\n      dup4\n        /* \"#utility.yul\":3058:3075   */\n      add\n        /* \"#utility.yul\":3049:3055   */\n      dup5\n        /* \"#utility.yul\":3005:3076   */\n      tag_57\n      jump\t// in\n    tag_101:\n        /* \"#utility.yul\":2861:3083   */\n      swap3\n      swap2\n      pop\n      pop\n      jump\t// out\n        /* \"#utility.yul\":3089:3232   */\n    tag_58:\n        /* \"#utility.yul\":3146:3151   */\n      0x00\n        /* \"#utility.yul\":3177:3183   */\n      dup2\n        /* \"#utility.yul\":3171:3184   */\n      mload\n        /* \"#utility.yul\":3162:3184   */\n      swap1\n      pop\n        /* \"#utility.yul\":3193:3226   */\n      tag_103\n        /* \"#utility.yul\":3220:3225   */\n      dup2\n        /* \"#utility.yul\":3193:3226   */\n      tag_53\n      jump\t// in\n    tag_103:\n        /* \"#utility.yul\":3089:3232   */\n      swap3\n      swap2\n      pop\n      pop\n      jump\t// out\n        /* \"#utility.yul\":3238:3589   */\n    tag_36:\n        /* \"#utility.yul\":3308:3314   */\n      0x00\n        /* \"#utility.yul\":3357:3359   */\n      0x20\n        /* \"#utility.yul\":3345:3354   */\n      dup3\n        /* \"#utility.yul\":3336:3343   */\n      dup5\n        /* \"#utility.yul\":3332:3355   */\n      sub\n        /* \"#utility.yul\":3328:3360   */\n      slt\n        /* \"#utility.yul\":3325:3444   */\n      iszero\n      tag_105\n      jumpi\n        /* \"#utility.yul\":3363:3442   */\n      tag_106\n      tag_45\n      jump\t// in\n    tag_106:\n        /* \"#utility.yul\":3325:3444   */\n    tag_105:\n        /* \"#utility.yul\":3483:3484   */\n      0x00\n        /* \"#utility.yul\":3508:3572   */\n      tag_107\n        /* \"#utility.yul\":3564:3571   */\n      dup5\n        /* \"#utility.yul\":3555:3561   */\n      dup3\n        /* \"#utility.yul\":3544:3553   */\n      dup6\n        /* \"#utility.yul\":3540:3562   */\n      add\n        /* \"#utility.yul\":3508:3572   */\n      tag_58\n      jump\t// in\n    tag_107:\n        /* \"#utility.yul\":3498:3572   */\n      swap2\n      pop\n        /* \"#utility.yul\":3454:3582   */\n      pop\n        /* \"#utility.yul\":3238:3589   */\n      swap3\n      swap2\n      pop\n      pop\n      jump\t// out\n        /* \"#utility.yul\":3595:3764   */\n    tag_59:\n        /* \"#utility.yul\":3679:3690   */\n      0x00\n        /* \"#utility.yul\":3713:3719   */\n      dup3\n        /* \"#utility.yul\":3708:3711   */\n      dup3\n        /* \"#utility.yul\":3701:3720   */\n      mstore\n        /* \"#utility.yul\":3753:3757   */\n      0x20\n        /* \"#utility.yul\":3748:3751   */\n      dup3\n        /* \"#utility.yul\":3744:3758   */\n      add\n        /* \"#utility.yul\":3729:3758   */\n      swap1\n      pop\n        /* \"#utility.yul\":3595:3764   */\n      swap3\n      swap2\n      pop\n      pop\n      jump\t// out\n        /* \"#utility.yul\":3770:3939   */\n    tag_60:\n        /* \"#utility.yul\":3910:3931   */\n      0x63616c6c6572206973206e6f74206f776e657200000000000000000000000000\n        /* \"#utility.yul\":3906:3907   */\n      0x00\n        /* \"#utility.yul\":3898:3904   */\n      dup3\n        /* \"#utility.yul\":3894:3908   */\n      add\n        /* \"#utility.yul\":3887:3932   */\n      mstore\n        /* \"#utility.yul\":3770:3939   */\n      pop\n      jump\t// out\n        /* \"#utility.yul\":3945:4311   */\n    tag_61:\n        /* \"#utility.yul\":4087:4090   */\n      0x00\n        /* \"#utility.yul\":4108:4175   */\n      tag_111\n        /* \"#utility.yul\":4172:4174   */\n      0x13\n        /* \"#utility.yul\":4167:4170   */\n      dup4\n        /* \"#utility.yul\":4108:4175   */\n      tag_59\n      jump\t// in\n    tag_111:\n        /* \"#utility.yul\":4101:4175   */\n      swap2\n      pop\n        /* \"#utility.yul\":4184:4277   */\n      tag_112\n        /* \"#utility.yul\":4273:4276   */\n      dup3\n        /* \"#utility.yul\":4184:4277   */\n      tag_60\n      jump\t// in\n    tag_112:\n        /* \"#utility.yul\":4302:4304   */\n      0x20\n        /* \"#utility.yul\":4297:4300   */\n      dup3\n        /* \"#utility.yul\":4293:4305   */\n      add\n        /* \"#utility.yul\":4286:4305   */\n      swap1\n      pop\n        /* \"#utility.yul\":3945:4311   */\n      swap2\n      swap1\n      pop\n      jump\t// out\n        /* \"#utility.yul\":4317:4736   */\n    tag_41:\n        /* \"#utility.yul\":4483:4487   */\n      0x00\n        /* \"#utility.yul\":4521:4523   */\n      0x20\n        /* \"#utility.yul\":4510:4519   */\n      dup3\n        /* \"#utility.yul\":4506:4524   */\n      add\n        /* \"#utility.yul\":4498:4524   */\n      swap1\n      pop\n        /* \"#utility.yul\":4570:4579   */\n      dup2\n        /* \"#utility.yul\":4564:4568   */\n      dup2\n        /* \"#utility.yul\":4560:4580   */\n      sub\n        /* \"#utility.yul\":4556:4557   */\n      0x00\n        /* \"#utility.yul\":4545:4554   */\n      dup4\n        /* \"#utility.yul\":4541:4558   */\n      add\n        /* \"#utility.yul\":4534:4581   */\n      mstore\n        /* \"#utility.yul\":4598:4729   */\n      tag_114\n        /* \"#utility.yul\":4724:4728   */\n      dup2\n        /* \"#utility.yul\":4598:4729   */\n      tag_61\n      jump\t// in\n    tag_114:\n        /* \"#utility.yul\":4590:4729   */\n      swap1\n      pop\n        /* \"#utility.yul\":4317:4736   */\n      swap2\n      swap1\n      pop\n      jump\t// out\n\n    auxdata: 0xa26469706673582212200e8eaf7f1ad47fe5ae9f3ed33d9b6b102e27beb46af654c4e37014695126313d64736f6c63430008110033\n}\n",
				"bytecode": {
					"linkReferences": {},
					"object": "608060405234801561001057600080fd5b50336000806101000a81548173ffffffffffffffffffffffffffffffffffffffff021916908373ffffffffffffffffffffffffffffffffffffffff16021790555061050f806100606000396000f3fe6080604052600436106100435760003560e01c806303fe44ef1461004f57806312065fe01461008c5780632e1a7d4d146100b75780638da5cb5b146100e05761004a565b3661004a57005b600080fd5b34801561005b57600080fd5b50610076600480360381019061007191906102fa565b61010b565b6040516100839190610340565b60405180910390f35b34801561009857600080fd5b506100a1610193565b6040516100ae9190610340565b60405180910390f35b3480156100c357600080fd5b506100de60048036038101906100d99190610387565b61019b565b005b3480156100ec57600080fd5b506100f5610273565b60405161010291906103d5565b60405180910390f35b6000808290508073ffffffffffffffffffffffffffffffffffffffff166370a08231306040518263ffffffff1660e01b815260040161014a91906103ff565b602060405180830381865afa158015610167573d6000803e3d6000fd5b505050506040513d601f19601f8201168201806040525081019061018b919061042f565b915050919050565b600047905090565b60008054906101000a900473ffffffffffffffffffffffffffffffffffffffff1673ffffffffffffffffffffffffffffffffffffffff163373ffffffffffffffffffffffffffffffffffffffff1614610229576040517f08c379a0000000000000000000000000000000000000000000000000000000008152600401610220906104b9565b60405180910390fd5b3373ffffffffffffffffffffffffffffffffffffffff166108fc829081150290604051600060405180830381858888f1935050505015801561026f573d6000803e3d6000fd5b5050565b60008054906101000a900473ffffffffffffffffffffffffffffffffffffffff1681565b600080fd5b600073ffffffffffffffffffffffffffffffffffffffff82169050919050565b60006102c78261029c565b9050919050565b6102d7816102bc565b81146102e257600080fd5b50565b6000813590506102f4816102ce565b92915050565b6000602082840312156103105761030f610297565b5b600061031e848285016102e5565b91505092915050565b6000819050919050565b61033a81610327565b82525050565b60006020820190506103556000830184610331565b92915050565b61036481610327565b811461036f57600080fd5b50565b6000813590506103818161035b565b92915050565b60006020828403121561039d5761039c610297565b5b60006103ab84828501610372565b91505092915050565b60006103bf8261029c565b9050919050565b6103cf816103b4565b82525050565b60006020820190506103ea60008301846103c6565b92915050565b6103f9816102bc565b82525050565b600060208201905061041460008301846103f0565b92915050565b6000815190506104298161035b565b92915050565b60006020828403121561044557610444610297565b5b60006104538482850161041a565b91505092915050565b600082825260208201905092915050565b7f63616c6c6572206973206e6f74206f776e657200000000000000000000000000600082015250565b60006104a360138361045c565b91506104ae8261046d565b602082019050919050565b600060208201905081810360008301526104d281610496565b905091905056fea26469706673582212200e8eaf7f1ad47fe5ae9f3ed33d9b6b102e27beb46af654c4e37014695126313d64736f6c63430008110033",
					"opcodes": "PUSH1 0x80 PUSH1 0x40 MSTORE CALLVALUE DUP1 ISZERO PUSH2 0x10 JUMPI PUSH1 0x0 DUP1 REVERT JUMPDEST POP CALLER PUSH1 0x0 DUP1 PUSH2 0x100 EXP DUP2 SLOAD DUP2 PUSH20 0xFFFFFFFFFFFFFFFFFFFFFFFFFFFFFFFFFFFFFFFF MUL NOT AND SWAP1 DUP4 PUSH20 0xFFFFFFFFFFFFFFFFFFFFFFFFFFFFFFFFFFFFFFFF AND MUL OR SWAP1 SSTORE POP PUSH2 0x50F DUP1 PUSH2 0x60 PUSH1 0x0 CODECOPY PUSH1 0x0 RETURN INVALID PUSH1 0x80 PUSH1 0x40 MSTORE PUSH1 0x4 CALLDATASIZE LT PUSH2 0x43 JUMPI PUSH1 0x0 CALLDATALOAD PUSH1 0xE0 SHR DUP1 PUSH4 0x3FE44EF EQ PUSH2 0x4F JUMPI DUP1 PUSH4 0x12065FE0 EQ PUSH2 0x8C JUMPI DUP1 PUSH4 0x2E1A7D4D EQ PUSH2 0xB7 JUMPI DUP1 PUSH4 0x8DA5CB5B EQ PUSH2 0xE0 JUMPI PUSH2 0x4A JUMP JUMPDEST CALLDATASIZE PUSH2 0x4A JUMPI STOP JUMPDEST PUSH1 0x0 DUP1 REVERT JUMPDEST CALLVALUE DUP1 ISZERO PUSH2 0x5B JUMPI PUSH1 0x0 DUP1 REVERT JUMPDEST POP PUSH2 0x76 PUSH1 0x4 DUP1 CALLDATASIZE SUB DUP2 ADD SWAP1 PUSH2 0x71 SWAP2 SWAP1 PUSH2 0x2FA JUMP JUMPDEST PUSH2 0x10B JUMP JUMPDEST PUSH1 0x40 MLOAD PUSH2 0x83 SWAP2 SWAP1 PUSH2 0x340 JUMP JUMPDEST PUSH1 0x40 MLOAD DUP1 SWAP2 SUB SWAP1 RETURN JUMPDEST CALLVALUE DUP1 ISZERO PUSH2 0x98 JUMPI PUSH1 0x0 DUP1 REVERT JUMPDEST POP PUSH2 0xA1 PUSH2 0x193 JUMP JUMPDEST PUSH1 0x40 MLOAD PUSH2 0xAE SWAP2 SWAP1 PUSH2 0x340 JUMP JUMPDEST PUSH1 0x40 MLOAD DUP1 SWAP2 SUB SWAP1 RETURN JUMPDEST CALLVALUE DUP1 ISZERO PUSH2 0xC3 JUMPI PUSH1 0x0 DUP1 REVERT JUMPDEST POP PUSH2 0xDE PUSH1 0x4 DUP1 CALLDATASIZE SUB DUP2 ADD SWAP1 PUSH2 0xD9 SWAP2 SWAP1 PUSH2 0x387 JUMP JUMPDEST PUSH2 0x19B JUMP JUMPDEST STOP JUMPDEST CALLVALUE DUP1 ISZERO PUSH2 0xEC JUMPI PUSH1 0x0 DUP1 REVERT JUMPDEST POP PUSH2 0xF5 PUSH2 0x273 JUMP JUMPDEST PUSH1 0x40 MLOAD PUSH2 0x102 SWAP2 SWAP1 PUSH2 0x3D5 JUMP JUMPDEST PUSH1 0x40 MLOAD DUP1 SWAP2 SUB SWAP1 RETURN JUMPDEST PUSH1 0x0 DUP1 DUP3 SWAP1 POP DUP1 PUSH20 0xFFFFFFFFFFFFFFFFFFFFFFFFFFFFFFFFFFFFFFFF AND PUSH4 0x70A08231 ADDRESS PUSH1 0x40 MLOAD DUP3 PUSH4 0xFFFFFFFF AND PUSH1 0xE0 SHL DUP2 MSTORE PUSH1 0x4 ADD PUSH2 0x14A SWAP2 SWAP1 PUSH2 0x3FF JUMP JUMPDEST PUSH1 0x20 PUSH1 0x40 MLOAD DUP1 DUP4 SUB DUP2 DUP7 GAS STATICCALL ISZERO DUP1 ISZERO PUSH2 0x167 JUMPI RETURNDATASIZE PUSH1 0x0 DUP1 RETURNDATACOPY RETURNDATASIZE PUSH1 0x0 REVERT JUMPDEST POP POP POP POP PUSH1 0x40 MLOAD RETURNDATASIZE PUSH1 0x1F NOT PUSH1 0x1F DUP3 ADD AND DUP3 ADD DUP1 PUSH1 0x40 MSTORE POP DUP2 ADD SWAP1 PUSH2 0x18B SWAP2 SWAP1 PUSH2 0x42F JUMP JUMPDEST SWAP2 POP POP SWAP2 SWAP1 POP JUMP JUMPDEST PUSH1 0x0 SELFBALANCE SWAP1 POP SWAP1 JUMP JUMPDEST PUSH1 0x0 DUP1 SLOAD SWAP1 PUSH2 0x100 EXP SWAP1 DIV PUSH20 0xFFFFFFFFFFFFFFFFFFFFFFFFFFFFFFFFFFFFFFFF AND PUSH20 0xFFFFFFFFFFFFFFFFFFFFFFFFFFFFFFFFFFFFFFFF AND CALLER PUSH20 0xFFFFFFFFFFFFFFFFFFFFFFFFFFFFFFFFFFFFFFFF AND EQ PUSH2 0x229 JUMPI PUSH1 0x40 MLOAD PUSH32 0x8C379A000000000000000000000000000000000000000000000000000000000 DUP2 MSTORE PUSH1 0x4 ADD PUSH2 0x220 SWAP1 PUSH2 0x4B9 JUMP JUMPDEST PUSH1 0x40 MLOAD DUP1 SWAP2 SUB SWAP1 REVERT JUMPDEST CALLER PUSH20 0xFFFFFFFFFFFFFFFFFFFFFFFFFFFFFFFFFFFFFFFF AND PUSH2 0x8FC DUP3 SWAP1 DUP2 ISZERO MUL SWAP1 PUSH1 0x40 MLOAD PUSH1 0x0 PUSH1 0x40 MLOAD DUP1 DUP4 SUB DUP2 DUP6 DUP9 DUP9 CALL SWAP4 POP POP POP POP ISZERO DUP1 ISZERO PUSH2 0x26F JUMPI RETURNDATASIZE PUSH1 0x0 DUP1 RETURNDATACOPY RETURNDATASIZE PUSH1 0x0 REVERT JUMPDEST POP POP JUMP JUMPDEST PUSH1 0x0 DUP1 SLOAD SWAP1 PUSH2 0x100 EXP SWAP1 DIV PUSH20 0xFFFFFFFFFFFFFFFFFFFFFFFFFFFFFFFFFFFFFFFF AND DUP2 JUMP JUMPDEST PUSH1 0x0 DUP1 REVERT JUMPDEST PUSH1 0x0 PUSH20 0xFFFFFFFFFFFFFFFFFFFFFFFFFFFFFFFFFFFFFFFF DUP3 AND SWAP1 POP SWAP2 SWAP1 POP JUMP JUMPDEST PUSH1 0x0 PUSH2 0x2C7 DUP3 PUSH2 0x29C JUMP JUMPDEST SWAP1 POP SWAP2 SWAP1 POP JUMP JUMPDEST PUSH2 0x2D7 DUP2 PUSH2 0x2BC JUMP JUMPDEST DUP2 EQ PUSH2 0x2E2 JUMPI PUSH1 0x0 DUP1 REVERT JUMPDEST POP JUMP JUMPDEST PUSH1 0x0 DUP2 CALLDATALOAD SWAP1 POP PUSH2 0x2F4 DUP2 PUSH2 0x2CE JUMP JUMPDEST SWAP3 SWAP2 POP POP JUMP JUMPDEST PUSH1 0x0 PUSH1 0x20 DUP3 DUP5 SUB SLT ISZERO PUSH2 0x310 JUMPI PUSH2 0x30F PUSH2 0x297 JUMP JUMPDEST JUMPDEST PUSH1 0x0 PUSH2 0x31E DUP5 DUP3 DUP6 ADD PUSH2 0x2E5 JUMP JUMPDEST SWAP2 POP POP SWAP3 SWAP2 POP POP JUMP JUMPDEST PUSH1 0x0 DUP2 SWAP1 POP SWAP2 SWAP1 POP JUMP JUMPDEST PUSH2 0x33A DUP2 PUSH2 0x327 JUMP JUMPDEST DUP3 MSTORE POP POP JUMP JUMPDEST PUSH1 0x0 PUSH1 0x20 DUP3 ADD SWAP1 POP PUSH2 0x355 PUSH1 0x0 DUP4 ADD DUP5 PUSH2 0x331 JUMP JUMPDEST SWAP3 SWAP2 POP POP JUMP JUMPDEST PUSH2 0x364 DUP2 PUSH2 0x327 JUMP JUMPDEST DUP2 EQ PUSH2 0x36F JUMPI PUSH1 0x0 DUP1 REVERT JUMPDEST POP JUMP JUMPDEST PUSH1 0x0 DUP2 CALLDATALOAD SWAP1 POP PUSH2 0x381 DUP2 PUSH2 0x35B JUMP JUMPDEST SWAP3 SWAP2 POP POP JUMP JUMPDEST PUSH1 0x0 PUSH1 0x20 DUP3 DUP5 SUB SLT ISZERO PUSH2 0x39D JUMPI PUSH2 0x39C PUSH2 0x297 JUMP JUMPDEST JUMPDEST PUSH1 0x0 PUSH2 0x3AB DUP5 DUP3 DUP6 ADD PUSH2 0x372 JUMP JUMPDEST SWAP2 POP POP SWAP3 SWAP2 POP POP JUMP JUMPDEST PUSH1 0x0 PUSH2 0x3BF DUP3 PUSH2 0x29C JUMP JUMPDEST SWAP1 POP SWAP2 SWAP1 POP JUMP JUMPDEST PUSH2 0x3CF DUP2 PUSH2 0x3B4 JUMP JUMPDEST DUP3 MSTORE POP POP JUMP JUMPDEST PUSH1 0x0 PUSH1 0x20 DUP3 ADD SWAP1 POP PUSH2 0x3EA PUSH1 0x0 DUP4 ADD DUP5 PUSH2 0x3C6 JUMP JUMPDEST SWAP3 SWAP2 POP POP JUMP JUMPDEST PUSH2 0x3F9 DUP2 PUSH2 0x2BC JUMP JUMPDEST DUP3 MSTORE POP POP JUMP JUMPDEST PUSH1 0x0 PUSH1 0x20 DUP3 ADD SWAP1 POP PUSH2 0x414 PUSH1 0x0 DUP4 ADD DUP5 PUSH2 0x3F0 JUMP JUMPDEST SWAP3 SWAP2 POP POP JUMP JUMPDEST PUSH1 0x0 DUP2 MLOAD SWAP1 POP PUSH2 0x429 DUP2 PUSH2 0x35B JUMP JUMPDEST SWAP3 SWAP2 POP POP JUMP JUMPDEST PUSH1 0x0 PUSH1 0x20 DUP3 DUP5 SUB SLT ISZERO PUSH2 0x445 JUMPI PUSH2 0x444 PUSH2 0x297 JUMP JUMPDEST JUMPDEST PUSH1 0x0 PUSH2 0x453 DUP5 DUP3 DUP6 ADD PUSH2 0x41A JUMP JUMPDEST SWAP2 POP POP SWAP3 SWAP2 POP POP JUMP JUMPDEST PUSH1 0x0 DUP3 DUP3 MSTORE PUSH1 0x20 DUP3 ADD SWAP1 POP SWAP3 SWAP2 POP POP JUMP JUMPDEST PUSH32 0x63616C6C6572206973206E6F74206F776E657200000000000000000000000000 PUSH1 0x0 DUP3 ADD MSTORE POP JUMP JUMPDEST PUSH1 0x0 PUSH2 0x4A3 PUSH1 0x13 DUP4 PUSH2 0x45C JUMP JUMPDEST SWAP2 POP PUSH2 0x4AE DUP3 PUSH2 0x46D JUMP JUMPDEST PUSH1 0x20 DUP3 ADD SWAP1 POP SWAP2 SWAP1 POP JUMP JUMPDEST PUSH1 0x0 PUSH1 0x20 DUP3 ADD SWAP1 POP DUP2 DUP2 SUB PUSH1 0x0 DUP4 ADD MSTORE PUSH2 0x4D2 DUP2 PUSH2 0x496 JUMP JUMPDEST SWAP1 POP SWAP2 SWAP1 POP JUMP INVALID LOG2 PUSH5 0x6970667358 0x22 SLT KECCAK256 0xE DUP15 0xAF PUSH32 0x1AD47FE5AE9F3ED33D9B6B102E27BEB46AF654C4E37014695126313D64736F6C PUSH4 0x43000811 STOP CALLER "
				},
				"gasEstimates": {
					"creation": {
						"codeDepositCost": "259000",
						"executionCost": "24566",
						"totalCost": "283566"
					},
					"external": {
						"balanceOfThisToken(address)": "infinite",
						"getBalance()": "339",
						"owner()": "2555",
						"withdraw(uint256)": "infinite"
					}
				},
				"methodIdentifiers": {
					"balanceOfThisToken(address)": "03fe44ef",
					"getBalance()": "12065fe0",
					"owner()": "8da5cb5b",
					"withdraw(uint256)": "2e1a7d4d"
				}
			},
			"storageLayout": {
				"storage": [
					{
						"astId": 11,
						"contract": "EtherWallet.sol:EtherWallet",
						"label": "owner",
						"offset": 0,
						"slot": "0",
						"type": "t_address_payable"
					}
				],
				"types": {
					"t_address_payable": {
						"encoding": "inplace",
						"label": "address payable",
						"numberOfBytes": "20"
					}
				}
			},
			"userdoc": {
				"kind": "user",
				"methods": {},
				"version": 1
			}
		}
	}
}