{
	"Coinflip.sol": {
		"CoinFlip": {
			"abi": [
				{
					"inputs": [],
					"stateMutability": "nonpayable",
					"type": "constructor"
				},
				{
					"inputs": [],
					"name": "blankFlip",
					"outputs": [
						{
							"internalType": "bool",
							"name": "",
							"type": "bool"
						}
					],
					"stateMutability": "nonpayable",
					"type": "function"
				},
				{
					"inputs": [],
					"name": "blockValue",
					"outputs": [
						{
							"internalType": "uint256",
							"name": "",
							"type": "uint256"
						}
					],
					"stateMutability": "view",
					"type": "function"
				},
				{
					"inputs": [],
					"name": "coinFlip",
					"outputs": [
						{
							"internalType": "uint256",
							"name": "",
							"type": "uint256"
						}
					],
					"stateMutability": "view",
					"type": "function"
				},
				{
					"inputs": [],
					"name": "consecutiveWins",
					"outputs": [
						{
							"internalType": "uint256",
							"name": "",
							"type": "uint256"
						}
					],
					"stateMutability": "view",
					"type": "function"
				},
				{
					"inputs": [],
					"name": "lastHash",
					"outputs": [
						{
							"internalType": "uint256",
							"name": "",
							"type": "uint256"
						}
					],
					"stateMutability": "view",
					"type": "function"
				},
				{
					"inputs": [
						{
							"internalType": "bool",
							"name": "_guess",
							"type": "bool"
						}
					],
					"name": "localFlip",
					"outputs": [
						{
							"internalType": "bool",
							"name": "",
							"type": "bool"
						}
					],
					"stateMutability": "nonpayable",
					"type": "function"
				},
				{
					"inputs": [],
					"name": "localPsychicFlip",
					"outputs": [],
					"stateMutability": "nonpayable",
					"type": "function"
				},
				{
					"inputs": [],
					"name": "positiveFlip",
					"outputs": [],
					"stateMutability": "nonpayable",
					"type": "function"
				},
				{
					"inputs": [
						{
							"internalType": "address",
							"name": "_addr",
							"type": "address"
						}
					],
					"name": "remotePsychicFlip",
					"outputs": [],
					"stateMutability": "nonpayable",
					"type": "function"
				},
				{
					"inputs": [],
					"name": "setCoinFlip",
					"outputs": [],
					"stateMutability": "nonpayable",
					"type": "function"
				},
				{
					"inputs": [],
					"name": "side",
					"outputs": [
						{
							"internalType": "bool",
							"name": "",
							"type": "bool"
						}
					],
					"stateMutability": "view",
					"type": "function"
				}
			],
			"devdoc": {
				"kind": "dev",
				"methods": {},
				"version": 1
			},
			"evm": {
				"assembly": "    /* \"Coinflip.sol\":139:2333  contract CoinFlip {... */\n  mstore(0x40, 0x80)\n    /* \"Coinflip.sol\":442:519  57896044618658097711785492504343953926634992332820282019728792003956564819968 */\n  0x8000000000000000000000000000000000000000000000000000000000000000\n    /* \"Coinflip.sol\":425:519  uint256 FACTOR = 57896044618658097711785492504343953926634992332820282019728792003956564819968 */\n  0x04\n  sstore\n    /* \"Coinflip.sol\":544:588  constructor() {... */\n  callvalue\n  dup1\n  iszero\n  tag_1\n  jumpi\n  0x00\n  dup1\n  revert\ntag_1:\n  pop\n    /* \"Coinflip.sol\":582:583  0 */\n  0x00\n    /* \"Coinflip.sol\":564:579  consecutiveWins */\n  dup1\n    /* \"Coinflip.sol\":564:583  consecutiveWins = 0 */\n  dup2\n  swap1\n  sstore\n  pop\n    /* \"Coinflip.sol\":139:2333  contract CoinFlip {... */\n  dataSize(sub_0)\n  dup1\n  dataOffset(sub_0)\n  0x00\n  codecopy\n  0x00\n  return\nstop\n\nsub_0: assembly {\n        /* \"Coinflip.sol\":139:2333  contract CoinFlip {... */\n      mstore(0x40, 0x80)\n      callvalue\n      dup1\n      iszero\n      tag_1\n      jumpi\n      0x00\n      dup1\n      revert\n    tag_1:\n      pop\n      jumpi(tag_2, lt(calldatasize, 0x04))\n      shr(0xe0, calldataload(0x00))\n      dup1\n      0x8475c028\n      gt\n      tag_14\n      jumpi\n      dup1\n      0x8475c028\n      eq\n      tag_8\n      jumpi\n      dup1\n      0x8c74ddb0\n      eq\n      tag_9\n      jumpi\n      dup1\n      0xa68ebe88\n      eq\n      tag_10\n      jumpi\n      dup1\n      0xb15c128e\n      eq\n      tag_11\n      jumpi\n      dup1\n      0xe6f334d7\n      eq\n      tag_12\n      jumpi\n      dup1\n      0xf852be69\n      eq\n      tag_13\n      jumpi\n      jump(tag_2)\n    tag_14:\n      dup1\n      0x81fe1a\n      eq\n      tag_3\n      jumpi\n      dup1\n      0x04ac3f91\n      eq\n      tag_4\n      jumpi\n      dup1\n      0x3fa21806\n      eq\n      tag_5\n      jumpi\n      dup1\n      0x5ac947cb\n      eq\n      tag_6\n      jumpi\n      dup1\n      0x5d06228b\n      eq\n      tag_7\n      jumpi\n    tag_2:\n      0x00\n      dup1\n      revert\n        /* \"Coinflip.sol\":1282:1476  function localPsychicFlip() public {... */\n    tag_3:\n      tag_15\n      tag_16\n      jump\t// in\n    tag_15:\n      stop\n        /* \"Coinflip.sol\":863:1276  function localFlip(bool _guess) public returns (bool) {... */\n    tag_4:\n      tag_17\n      0x04\n      dup1\n      calldatasize\n      sub\n      dup2\n      add\n      swap1\n      tag_18\n      swap2\n      swap1\n      tag_19\n      jump\t// in\n    tag_18:\n      tag_20\n      jump\t// in\n    tag_17:\n      mload(0x40)\n      tag_21\n      swap2\n      swap1\n      tag_22\n      jump\t// in\n    tag_21:\n      mload(0x40)\n      dup1\n      swap2\n      sub\n      swap1\n      return\n        /* \"Coinflip.sol\":196:219  uint256 public lastHash */\n    tag_5:\n      tag_23\n      tag_24\n      jump\t// in\n    tag_23:\n      mload(0x40)\n      tag_25\n      swap2\n      swap1\n      tag_26\n      jump\t// in\n    tag_25:\n      mload(0x40)\n      dup1\n      swap2\n      sub\n      swap1\n      return\n        /* \"Coinflip.sol\":223:246  uint256 public coinFlip */\n    tag_6:\n      tag_27\n      tag_28\n      jump\t// in\n    tag_27:\n      mload(0x40)\n      tag_29\n      swap2\n      swap1\n      tag_26\n      jump\t// in\n    tag_29:\n      mload(0x40)\n      dup1\n      swap2\n      sub\n      swap1\n      return\n        /* \"Coinflip.sol\":1962:2330  function blankFlip() public returns (bool) {... */\n    tag_7:\n      tag_30\n      tag_31\n      jump\t// in\n    tag_30:\n      mload(0x40)\n      tag_32\n      swap2\n      swap1\n      tag_22\n      jump\t// in\n    tag_32:\n      mload(0x40)\n      dup1\n      swap2\n      sub\n      swap1\n      return\n        /* \"Coinflip.sol\":523:539  bool public side */\n    tag_8:\n      tag_33\n      tag_34\n      jump\t// in\n    tag_33:\n      mload(0x40)\n      tag_35\n      swap2\n      swap1\n      tag_22\n      jump\t// in\n    tag_35:\n      mload(0x40)\n      dup1\n      swap2\n      sub\n      swap1\n      return\n        /* \"Coinflip.sol\":1660:1717  function positiveFlip() public {... */\n    tag_9:\n      tag_36\n      tag_37\n      jump\t// in\n    tag_36:\n      stop\n        /* \"Coinflip.sol\":1721:1958  function setCoinFlip() public {... */\n    tag_10:\n      tag_38\n      tag_39\n      jump\t// in\n    tag_38:\n      stop\n        /* \"Coinflip.sol\":594:859  function remotePsychicFlip(address _addr) public {... */\n    tag_11:\n      tag_40\n      0x04\n      dup1\n      calldatasize\n      sub\n      dup2\n      add\n      swap1\n      tag_41\n      swap2\n      swap1\n      tag_42\n      jump\t// in\n    tag_41:\n      tag_43\n      jump\t// in\n    tag_40:\n      stop\n        /* \"Coinflip.sol\":162:192  uint256 public consecutiveWins */\n    tag_12:\n      tag_44\n      tag_45\n      jump\t// in\n    tag_44:\n      mload(0x40)\n      tag_46\n      swap2\n      swap1\n      tag_26\n      jump\t// in\n    tag_46:\n      mload(0x40)\n      dup1\n      swap2\n      sub\n      swap1\n      return\n        /* \"Coinflip.sol\":327:352  uint256 public blockValue */\n    tag_13:\n      tag_47\n      tag_48\n      jump\t// in\n    tag_47:\n      mload(0x40)\n      tag_49\n      swap2\n      swap1\n      tag_26\n      jump\t// in\n    tag_49:\n      mload(0x40)\n      dup1\n      swap2\n      sub\n      swap1\n      return\n        /* \"Coinflip.sol\":1282:1476  function localPsychicFlip() public {... */\n    tag_16:\n        /* \"Coinflip.sol\":1369:1370  1 */\n      0x01\n        /* \"Coinflip.sol\":1354:1366  block.number */\n      number\n        /* \"Coinflip.sol\":1354:1370  block.number - 1 */\n      tag_51\n      swap2\n      swap1\n      tag_52\n      jump\t// in\n    tag_51:\n        /* \"Coinflip.sol\":1344:1371  blockhash(block.number - 1) */\n      blockhash\n        /* \"Coinflip.sol\":1336:1372  uint256(blockhash(block.number - 1)) */\n      0x00\n      shr\n        /* \"Coinflip.sol\":1323:1333  blockValue */\n      0x03\n        /* \"Coinflip.sol\":1323:1372  blockValue = uint256(blockhash(block.number - 1)) */\n      dup2\n      swap1\n      sstore\n      pop\n        /* \"Coinflip.sol\":1402:1408  FACTOR */\n      sload(0x04)\n        /* \"Coinflip.sol\":1389:1399  blockValue */\n      sload(0x03)\n        /* \"Coinflip.sol\":1389:1408  blockValue / FACTOR */\n      tag_53\n      swap2\n      swap1\n      tag_54\n      jump\t// in\n    tag_53:\n        /* \"Coinflip.sol\":1378:1386  coinFlip */\n      0x02\n        /* \"Coinflip.sol\":1378:1408  coinFlip = blockValue / FACTOR */\n      dup2\n      swap1\n      sstore\n      pop\n        /* \"Coinflip.sol\":1433:1434  1 */\n      0x01\n        /* \"Coinflip.sol\":1421:1429  coinFlip */\n      sload(0x02)\n        /* \"Coinflip.sol\":1421:1434  coinFlip == 1 */\n      eq\n        /* \"Coinflip.sol\":1421:1449  coinFlip == 1 ? true : false */\n      tag_55\n      jumpi\n        /* \"Coinflip.sol\":1444:1449  false */\n      0x00\n        /* \"Coinflip.sol\":1421:1449  coinFlip == 1 ? true : false */\n      jump(tag_56)\n    tag_55:\n        /* \"Coinflip.sol\":1437:1441  true */\n      0x01\n        /* \"Coinflip.sol\":1421:1449  coinFlip == 1 ? true : false */\n    tag_56:\n        /* \"Coinflip.sol\":1414:1418  side */\n      0x05\n      0x00\n        /* \"Coinflip.sol\":1414:1449  side = coinFlip == 1 ? true : false */\n      0x0100\n      exp\n      dup2\n      sload\n      dup2\n      0xff\n      mul\n      not\n      and\n      swap1\n      dup4\n      iszero\n      iszero\n      mul\n      or\n      swap1\n      sstore\n      pop\n        /* \"Coinflip.sol\":1456:1471  localFlip(side) */\n      tag_57\n        /* \"Coinflip.sol\":1466:1470  side */\n      0x05\n      0x00\n      swap1\n      sload\n      swap1\n      0x0100\n      exp\n      swap1\n      div\n      0xff\n      and\n        /* \"Coinflip.sol\":1456:1465  localFlip */\n      tag_20\n        /* \"Coinflip.sol\":1456:1471  localFlip(side) */\n      jump\t// in\n    tag_57:\n      pop\n        /* \"Coinflip.sol\":1282:1476  function localPsychicFlip() public {... */\n      jump\t// out\n        /* \"Coinflip.sol\":863:1276  function localFlip(bool _guess) public returns (bool) {... */\n    tag_20:\n        /* \"Coinflip.sol\":911:915  bool */\n      0x00\n        /* \"Coinflip.sol\":969:970  1 */\n      0x01\n        /* \"Coinflip.sol\":954:966  block.number */\n      number\n        /* \"Coinflip.sol\":954:970  block.number - 1 */\n      tag_59\n      swap2\n      swap1\n      tag_52\n      jump\t// in\n    tag_59:\n        /* \"Coinflip.sol\":944:971  blockhash(block.number - 1) */\n      blockhash\n        /* \"Coinflip.sol\":936:972  uint256(blockhash(block.number - 1)) */\n      0x00\n      shr\n        /* \"Coinflip.sol\":923:933  blockValue */\n      0x03\n        /* \"Coinflip.sol\":923:972  blockValue = uint256(blockhash(block.number - 1)) */\n      dup2\n      swap1\n      sstore\n      pop\n        /* \"Coinflip.sol\":995:1005  blockValue */\n      sload(0x03)\n        /* \"Coinflip.sol\":983:991  lastHash */\n      sload(0x01)\n        /* \"Coinflip.sol\":983:1005  lastHash == blockValue */\n      eq\n        /* \"Coinflip.sol\":979:1030  if (lastHash == blockValue) {... */\n      iszero\n      tag_60\n      jumpi\n        /* \"Coinflip.sol\":1015:1023  revert() */\n      0x00\n      dup1\n      revert\n        /* \"Coinflip.sol\":979:1030  if (lastHash == blockValue) {... */\n    tag_60:\n        /* \"Coinflip.sol\":1047:1057  blockValue */\n      sload(0x03)\n        /* \"Coinflip.sol\":1036:1044  lastHash */\n      0x01\n        /* \"Coinflip.sol\":1036:1057  lastHash = blockValue */\n      dup2\n      swap1\n      sstore\n      pop\n        /* \"Coinflip.sol\":1087:1093  FACTOR */\n      sload(0x04)\n        /* \"Coinflip.sol\":1074:1084  blockValue */\n      sload(0x03)\n        /* \"Coinflip.sol\":1074:1093  blockValue / FACTOR */\n      tag_61\n      swap2\n      swap1\n      tag_54\n      jump\t// in\n    tag_61:\n        /* \"Coinflip.sol\":1063:1071  coinFlip */\n      0x02\n        /* \"Coinflip.sol\":1063:1093  coinFlip = blockValue / FACTOR */\n      dup2\n      swap1\n      sstore\n      pop\n        /* \"Coinflip.sol\":1118:1119  1 */\n      0x01\n        /* \"Coinflip.sol\":1106:1114  coinFlip */\n      sload(0x02)\n        /* \"Coinflip.sol\":1106:1119  coinFlip == 1 */\n      eq\n        /* \"Coinflip.sol\":1106:1134  coinFlip == 1 ? true : false */\n      tag_62\n      jumpi\n        /* \"Coinflip.sol\":1129:1134  false */\n      0x00\n        /* \"Coinflip.sol\":1106:1134  coinFlip == 1 ? true : false */\n      jump(tag_63)\n    tag_62:\n        /* \"Coinflip.sol\":1122:1126  true */\n      0x01\n        /* \"Coinflip.sol\":1106:1134  coinFlip == 1 ? true : false */\n    tag_63:\n        /* \"Coinflip.sol\":1099:1103  side */\n      0x05\n      0x00\n        /* \"Coinflip.sol\":1099:1134  side = coinFlip == 1 ? true : false */\n      0x0100\n      exp\n      dup2\n      sload\n      dup2\n      0xff\n      mul\n      not\n      and\n      swap1\n      dup4\n      iszero\n      iszero\n      mul\n      or\n      swap1\n      sstore\n      pop\n        /* \"Coinflip.sol\":1153:1159  _guess */\n      dup2\n        /* \"Coinflip.sol\":1145:1159  side == _guess */\n      iszero\n      iszero\n        /* \"Coinflip.sol\":1145:1149  side */\n      0x05\n      0x00\n      swap1\n      sload\n      swap1\n      0x0100\n      exp\n      swap1\n      div\n      0xff\n      and\n        /* \"Coinflip.sol\":1145:1159  side == _guess */\n      iszero\n      iszero\n      eq\n        /* \"Coinflip.sol\":1141:1272  if (side == _guess) {... */\n      iszero\n      tag_64\n      jumpi\n        /* \"Coinflip.sol\":1169:1184  consecutiveWins */\n      0x00\n      dup1\n        /* \"Coinflip.sol\":1169:1186  consecutiveWins++ */\n      dup2\n      sload\n      dup1\n      swap3\n      swap2\n      swap1\n      tag_65\n      swap1\n      tag_66\n      jump\t// in\n    tag_65:\n      swap2\n      swap1\n      pop\n      sstore\n      pop\n        /* \"Coinflip.sol\":1201:1205  true */\n      0x01\n        /* \"Coinflip.sol\":1194:1205  return true */\n      swap1\n      pop\n      jump(tag_58)\n        /* \"Coinflip.sol\":1141:1272  if (side == _guess) {... */\n    tag_64:\n        /* \"Coinflip.sol\":1244:1245  0 */\n      0x00\n        /* \"Coinflip.sol\":1226:1241  consecutiveWins */\n      dup1\n        /* \"Coinflip.sol\":1226:1245  consecutiveWins = 0 */\n      dup2\n      swap1\n      sstore\n      pop\n        /* \"Coinflip.sol\":1260:1265  false */\n      0x00\n        /* \"Coinflip.sol\":1253:1265  return false */\n      swap1\n      pop\n        /* \"Coinflip.sol\":863:1276  function localFlip(bool _guess) public returns (bool) {... */\n    tag_58:\n      swap2\n      swap1\n      pop\n      jump\t// out\n        /* \"Coinflip.sol\":196:219  uint256 public lastHash */\n    tag_24:\n      sload(0x01)\n      dup2\n      jump\t// out\n        /* \"Coinflip.sol\":223:246  uint256 public coinFlip */\n    tag_28:\n      sload(0x02)\n      dup2\n      jump\t// out\n        /* \"Coinflip.sol\":1962:2330  function blankFlip() public returns (bool) {... */\n    tag_31:\n        /* \"Coinflip.sol\":1999:2003  bool */\n      0x00\n        /* \"Coinflip.sol\":2057:2058  1 */\n      0x01\n        /* \"Coinflip.sol\":2042:2054  block.number */\n      number\n        /* \"Coinflip.sol\":2042:2058  block.number - 1 */\n      tag_69\n      swap2\n      swap1\n      tag_52\n      jump\t// in\n    tag_69:\n        /* \"Coinflip.sol\":2032:2059  blockhash(block.number - 1) */\n      blockhash\n        /* \"Coinflip.sol\":2024:2060  uint256(blockhash(block.number - 1)) */\n      0x00\n      shr\n        /* \"Coinflip.sol\":2011:2021  blockValue */\n      0x03\n        /* \"Coinflip.sol\":2011:2060  blockValue = uint256(blockhash(block.number - 1)) */\n      dup2\n      swap1\n      sstore\n      pop\n        /* \"Coinflip.sol\":2078:2088  blockValue */\n      sload(0x03)\n        /* \"Coinflip.sol\":2067:2075  lastHash */\n      0x01\n        /* \"Coinflip.sol\":2067:2088  lastHash = blockValue */\n      dup2\n      swap1\n      sstore\n      pop\n        /* \"Coinflip.sol\":2118:2124  FACTOR */\n      sload(0x04)\n        /* \"Coinflip.sol\":2105:2115  blockValue */\n      sload(0x03)\n        /* \"Coinflip.sol\":2105:2124  blockValue / FACTOR */\n      tag_70\n      swap2\n      swap1\n      tag_54\n      jump\t// in\n    tag_70:\n        /* \"Coinflip.sol\":2094:2102  coinFlip */\n      0x02\n        /* \"Coinflip.sol\":2094:2124  coinFlip = blockValue / FACTOR */\n      dup2\n      swap1\n      sstore\n      pop\n        /* \"Coinflip.sol\":2149:2150  1 */\n      0x01\n        /* \"Coinflip.sol\":2137:2145  coinFlip */\n      sload(0x02)\n        /* \"Coinflip.sol\":2137:2150  coinFlip == 1 */\n      eq\n        /* \"Coinflip.sol\":2137:2165  coinFlip == 1 ? true : false */\n      tag_71\n      jumpi\n        /* \"Coinflip.sol\":2160:2165  false */\n      0x00\n        /* \"Coinflip.sol\":2137:2165  coinFlip == 1 ? true : false */\n      jump(tag_72)\n    tag_71:\n        /* \"Coinflip.sol\":2153:2157  true */\n      0x01\n        /* \"Coinflip.sol\":2137:2165  coinFlip == 1 ? true : false */\n    tag_72:\n        /* \"Coinflip.sol\":2130:2134  side */\n      0x05\n      0x00\n        /* \"Coinflip.sol\":2130:2165  side = coinFlip == 1 ? true : false */\n      0x0100\n      exp\n      dup2\n      sload\n      dup2\n      0xff\n      mul\n      not\n      and\n      swap1\n      dup4\n      iszero\n      iszero\n      mul\n      or\n      swap1\n      sstore\n      pop\n        /* \"Coinflip.sol\":2176:2180  side */\n      0x05\n      0x00\n      swap1\n      sload\n      swap1\n      0x0100\n      exp\n      swap1\n      div\n      0xff\n      and\n        /* \"Coinflip.sol\":2172:2326  if (side) {... */\n      iszero\n      tag_73\n      jumpi\n        /* \"Coinflip.sol\":2190:2205  localFlip(true) */\n      tag_74\n        /* \"Coinflip.sol\":2200:2204  true */\n      0x01\n        /* \"Coinflip.sol\":2190:2199  localFlip */\n      tag_20\n        /* \"Coinflip.sol\":2190:2205  localFlip(true) */\n      jump\t// in\n    tag_74:\n      pop\n        /* \"Coinflip.sol\":2220:2225  false */\n      0x00\n        /* \"Coinflip.sol\":2213:2217  side */\n      0x05\n      0x00\n        /* \"Coinflip.sol\":2213:2225  side = false */\n      0x0100\n      exp\n      dup2\n      sload\n      dup2\n      0xff\n      mul\n      not\n      and\n      swap1\n      dup4\n      iszero\n      iszero\n      mul\n      or\n      swap1\n      sstore\n      pop\n        /* \"Coinflip.sol\":2240:2244  true */\n      0x01\n        /* \"Coinflip.sol\":2233:2244  return true */\n      swap1\n      pop\n      jump(tag_68)\n        /* \"Coinflip.sol\":2172:2326  if (side) {... */\n    tag_73:\n        /* \"Coinflip.sol\":2265:2280  localFlip(true) */\n      tag_76\n        /* \"Coinflip.sol\":2275:2279  true */\n      0x01\n        /* \"Coinflip.sol\":2265:2274  localFlip */\n      tag_20\n        /* \"Coinflip.sol\":2265:2280  localFlip(true) */\n      jump\t// in\n    tag_76:\n      pop\n        /* \"Coinflip.sol\":2295:2299  true */\n      0x01\n        /* \"Coinflip.sol\":2288:2292  side */\n      0x05\n      0x00\n        /* \"Coinflip.sol\":2288:2299  side = true */\n      0x0100\n      exp\n      dup2\n      sload\n      dup2\n      0xff\n      mul\n      not\n      and\n      swap1\n      dup4\n      iszero\n      iszero\n      mul\n      or\n      swap1\n      sstore\n      pop\n        /* \"Coinflip.sol\":2314:2319  false */\n      0x00\n        /* \"Coinflip.sol\":2307:2319  return false */\n      swap1\n      pop\n        /* \"Coinflip.sol\":1962:2330  function blankFlip() public returns (bool) {... */\n    tag_68:\n      swap1\n      jump\t// out\n        /* \"Coinflip.sol\":523:539  bool public side */\n    tag_34:\n      0x05\n      0x00\n      swap1\n      sload\n      swap1\n      0x0100\n      exp\n      swap1\n      div\n      0xff\n      and\n      dup2\n      jump\t// out\n        /* \"Coinflip.sol\":1660:1717  function positiveFlip() public {... */\n    tag_37:\n        /* \"Coinflip.sol\":1697:1712  localFlip(true) */\n      tag_78\n        /* \"Coinflip.sol\":1707:1711  true */\n      0x01\n        /* \"Coinflip.sol\":1697:1706  localFlip */\n      tag_20\n        /* \"Coinflip.sol\":1697:1712  localFlip(true) */\n      jump\t// in\n    tag_78:\n      pop\n        /* \"Coinflip.sol\":1660:1717  function positiveFlip() public {... */\n      jump\t// out\n        /* \"Coinflip.sol\":1721:1958  function setCoinFlip() public {... */\n    tag_39:\n        /* \"Coinflip.sol\":1803:1804  1 */\n      0x01\n        /* \"Coinflip.sol\":1788:1800  block.number */\n      number\n        /* \"Coinflip.sol\":1788:1804  block.number - 1 */\n      tag_80\n      swap2\n      swap1\n      tag_52\n      jump\t// in\n    tag_80:\n        /* \"Coinflip.sol\":1778:1805  blockhash(block.number - 1) */\n      blockhash\n        /* \"Coinflip.sol\":1770:1806  uint256(blockhash(block.number - 1)) */\n      0x00\n      shr\n        /* \"Coinflip.sol\":1757:1767  blockValue */\n      0x03\n        /* \"Coinflip.sol\":1757:1806  blockValue = uint256(blockhash(block.number - 1)) */\n      dup2\n      swap1\n      sstore\n      pop\n        /* \"Coinflip.sol\":1824:1834  blockValue */\n      sload(0x03)\n        /* \"Coinflip.sol\":1813:1821  lastHash */\n      0x01\n        /* \"Coinflip.sol\":1813:1834  lastHash = blockValue */\n      dup2\n      swap1\n      sstore\n      pop\n        /* \"Coinflip.sol\":1864:1870  FACTOR */\n      sload(0x04)\n        /* \"Coinflip.sol\":1851:1861  blockValue */\n      sload(0x03)\n        /* \"Coinflip.sol\":1851:1870  blockValue / FACTOR */\n      tag_81\n      swap2\n      swap1\n      tag_54\n      jump\t// in\n    tag_81:\n        /* \"Coinflip.sol\":1840:1848  coinFlip */\n      0x02\n        /* \"Coinflip.sol\":1840:1870  coinFlip = blockValue / FACTOR */\n      dup2\n      swap1\n      sstore\n      pop\n        /* \"Coinflip.sol\":1891:1892  1 */\n      0x01\n        /* \"Coinflip.sol\":1880:1888  coinFlip */\n      sload(0x02)\n        /* \"Coinflip.sol\":1880:1892  coinFlip < 1 */\n      lt\n        /* \"Coinflip.sol\":1877:1954  if(coinFlip < 1) {... */\n      iszero\n      tag_82\n      jumpi\n        /* \"Coinflip.sol\":1902:1918  localFlip(false) */\n      tag_83\n        /* \"Coinflip.sol\":1912:1917  false */\n      0x00\n        /* \"Coinflip.sol\":1902:1911  localFlip */\n      tag_20\n        /* \"Coinflip.sol\":1902:1918  localFlip(false) */\n      jump\t// in\n    tag_83:\n      pop\n        /* \"Coinflip.sol\":1877:1954  if(coinFlip < 1) {... */\n      jump(tag_84)\n    tag_82:\n        /* \"Coinflip.sol\":1939:1947  revert() */\n      0x00\n      dup1\n      revert\n        /* \"Coinflip.sol\":1877:1954  if(coinFlip < 1) {... */\n    tag_84:\n        /* \"Coinflip.sol\":1721:1958  function setCoinFlip() public {... */\n      jump\t// out\n        /* \"Coinflip.sol\":594:859  function remotePsychicFlip(address _addr) public {... */\n    tag_43:\n        /* \"Coinflip.sol\":649:672  DeployedCoinFlip myFlip */\n      0x00\n        /* \"Coinflip.sol\":692:697  _addr */\n      dup2\n        /* \"Coinflip.sol\":649:698  DeployedCoinFlip myFlip = DeployedCoinFlip(_addr) */\n      swap1\n      pop\n        /* \"Coinflip.sol\":750:751  1 */\n      0x01\n        /* \"Coinflip.sol\":735:747  block.number */\n      number\n        /* \"Coinflip.sol\":735:751  block.number - 1 */\n      tag_86\n      swap2\n      swap1\n      tag_52\n      jump\t// in\n    tag_86:\n        /* \"Coinflip.sol\":725:752  blockhash(block.number - 1) */\n      blockhash\n        /* \"Coinflip.sol\":717:753  uint256(blockhash(block.number - 1)) */\n      0x00\n      shr\n        /* \"Coinflip.sol\":704:714  blockValue */\n      0x03\n        /* \"Coinflip.sol\":704:753  blockValue = uint256(blockhash(block.number - 1)) */\n      dup2\n      swap1\n      sstore\n      pop\n        /* \"Coinflip.sol\":783:789  FACTOR */\n      sload(0x04)\n        /* \"Coinflip.sol\":770:780  blockValue */\n      sload(0x03)\n        /* \"Coinflip.sol\":770:789  blockValue / FACTOR */\n      tag_87\n      swap2\n      swap1\n      tag_54\n      jump\t// in\n    tag_87:\n        /* \"Coinflip.sol\":759:767  coinFlip */\n      0x02\n        /* \"Coinflip.sol\":759:789  coinFlip = blockValue / FACTOR */\n      dup2\n      swap1\n      sstore\n      pop\n        /* \"Coinflip.sol\":814:815  1 */\n      0x01\n        /* \"Coinflip.sol\":802:810  coinFlip */\n      sload(0x02)\n        /* \"Coinflip.sol\":802:815  coinFlip == 1 */\n      eq\n        /* \"Coinflip.sol\":802:830  coinFlip == 1 ? true : false */\n      tag_88\n      jumpi\n        /* \"Coinflip.sol\":825:830  false */\n      0x00\n        /* \"Coinflip.sol\":802:830  coinFlip == 1 ? true : false */\n      jump(tag_89)\n    tag_88:\n        /* \"Coinflip.sol\":818:822  true */\n      0x01\n        /* \"Coinflip.sol\":802:830  coinFlip == 1 ? true : false */\n    tag_89:\n        /* \"Coinflip.sol\":795:799  side */\n      0x05\n      0x00\n        /* \"Coinflip.sol\":795:830  side = coinFlip == 1 ? true : false */\n      0x0100\n      exp\n      dup2\n      sload\n      dup2\n      0xff\n      mul\n      not\n      and\n      swap1\n      dup4\n      iszero\n      iszero\n      mul\n      or\n      swap1\n      sstore\n      pop\n        /* \"Coinflip.sol\":837:843  myFlip */\n      dup1\n        /* \"Coinflip.sol\":837:848  myFlip.flip */\n      0xffffffffffffffffffffffffffffffffffffffff\n      and\n      0x1d263f67\n        /* \"Coinflip.sol\":849:853  side */\n      0x05\n      0x00\n      swap1\n      sload\n      swap1\n      0x0100\n      exp\n      swap1\n      div\n      0xff\n      and\n        /* \"Coinflip.sol\":837:854  myFlip.flip(side) */\n      mload(0x40)\n      dup3\n      0xffffffff\n      and\n      0xe0\n      shl\n      dup2\n      mstore\n      0x04\n      add\n      tag_90\n      swap2\n      swap1\n      tag_22\n      jump\t// in\n    tag_90:\n      0x20\n      mload(0x40)\n      dup1\n      dup4\n      sub\n      dup2\n      0x00\n      dup8\n      dup1\n      extcodesize\n      iszero\n      dup1\n      iszero\n      tag_91\n      jumpi\n      0x00\n      dup1\n      revert\n    tag_91:\n      pop\n      gas\n      call\n      iszero\n      dup1\n      iszero\n      tag_93\n      jumpi\n      returndatasize\n      0x00\n      dup1\n      returndatacopy\n      revert(0x00, returndatasize)\n    tag_93:\n      pop\n      pop\n      pop\n      pop\n      mload(0x40)\n      returndatasize\n      not(0x1f)\n      0x1f\n      dup3\n      add\n      and\n      dup3\n      add\n      dup1\n      0x40\n      mstore\n      pop\n      dup2\n      add\n      swap1\n      tag_94\n      swap2\n      swap1\n      tag_95\n      jump\t// in\n    tag_94:\n      pop\n        /* \"Coinflip.sol\":594:859  function remotePsychicFlip(address _addr) public {... */\n      pop\n      pop\n      jump\t// out\n        /* \"Coinflip.sol\":162:192  uint256 public consecutiveWins */\n    tag_45:\n      sload(0x00)\n      dup2\n      jump\t// out\n        /* \"Coinflip.sol\":327:352  uint256 public blockValue */\n    tag_48:\n      sload(0x03)\n      dup2\n      jump\t// out\n        /* \"#utility.yul\":7:146   */\n    tag_97:\n      0x00\n        /* \"#utility.yul\":91:97   */\n      dup2\n        /* \"#utility.yul\":78:98   */\n      calldataload\n        /* \"#utility.yul\":69:98   */\n      swap1\n      pop\n        /* \"#utility.yul\":107:140   */\n      tag_99\n        /* \"#utility.yul\":134:139   */\n      dup2\n        /* \"#utility.yul\":107:140   */\n      tag_100\n      jump\t// in\n    tag_99:\n        /* \"#utility.yul\":59:146   */\n      swap3\n      swap2\n      pop\n      pop\n      jump\t// out\n        /* \"#utility.yul\":152:285   */\n    tag_101:\n      0x00\n        /* \"#utility.yul\":233:239   */\n      dup2\n        /* \"#utility.yul\":220:240   */\n      calldataload\n        /* \"#utility.yul\":211:240   */\n      swap1\n      pop\n        /* \"#utility.yul\":249:279   */\n      tag_103\n        /* \"#utility.yul\":273:278   */\n      dup2\n        /* \"#utility.yul\":249:279   */\n      tag_104\n      jump\t// in\n    tag_103:\n        /* \"#utility.yul\":201:285   */\n      swap3\n      swap2\n      pop\n      pop\n      jump\t// out\n        /* \"#utility.yul\":291:428   */\n    tag_105:\n      0x00\n        /* \"#utility.yul\":376:382   */\n      dup2\n        /* \"#utility.yul\":370:383   */\n      mload\n        /* \"#utility.yul\":361:383   */\n      swap1\n      pop\n        /* \"#utility.yul\":392:422   */\n      tag_107\n        /* \"#utility.yul\":416:421   */\n      dup2\n        /* \"#utility.yul\":392:422   */\n      tag_104\n      jump\t// in\n    tag_107:\n        /* \"#utility.yul\":351:428   */\n      swap3\n      swap2\n      pop\n      pop\n      jump\t// out\n        /* \"#utility.yul\":434:696   */\n    tag_42:\n      0x00\n        /* \"#utility.yul\":542:544   */\n      0x20\n        /* \"#utility.yul\":530:539   */\n      dup3\n        /* \"#utility.yul\":521:528   */\n      dup5\n        /* \"#utility.yul\":517:540   */\n      sub\n        /* \"#utility.yul\":513:545   */\n      slt\n        /* \"#utility.yul\":510:512   */\n      iszero\n      tag_109\n      jumpi\n        /* \"#utility.yul\":558:559   */\n      0x00\n        /* \"#utility.yul\":555:556   */\n      dup1\n        /* \"#utility.yul\":548:560   */\n      revert\n        /* \"#utility.yul\":510:512   */\n    tag_109:\n        /* \"#utility.yul\":601:602   */\n      0x00\n        /* \"#utility.yul\":626:679   */\n      tag_110\n        /* \"#utility.yul\":671:678   */\n      dup5\n        /* \"#utility.yul\":662:668   */\n      dup3\n        /* \"#utility.yul\":651:660   */\n      dup6\n        /* \"#utility.yul\":647:669   */\n      add\n        /* \"#utility.yul\":626:679   */\n      tag_97\n      jump\t// in\n    tag_110:\n        /* \"#utility.yul\":616:679   */\n      swap2\n      pop\n        /* \"#utility.yul\":572:689   */\n      pop\n        /* \"#utility.yul\":500:696   */\n      swap3\n      swap2\n      pop\n      pop\n      jump\t// out\n        /* \"#utility.yul\":702:958   */\n    tag_19:\n      0x00\n        /* \"#utility.yul\":807:809   */\n      0x20\n        /* \"#utility.yul\":795:804   */\n      dup3\n        /* \"#utility.yul\":786:793   */\n      dup5\n        /* \"#utility.yul\":782:805   */\n      sub\n        /* \"#utility.yul\":778:810   */\n      slt\n        /* \"#utility.yul\":775:777   */\n      iszero\n      tag_112\n      jumpi\n        /* \"#utility.yul\":823:824   */\n      0x00\n        /* \"#utility.yul\":820:821   */\n      dup1\n        /* \"#utility.yul\":813:825   */\n      revert\n        /* \"#utility.yul\":775:777   */\n    tag_112:\n        /* \"#utility.yul\":866:867   */\n      0x00\n        /* \"#utility.yul\":891:941   */\n      tag_113\n        /* \"#utility.yul\":933:940   */\n      dup5\n        /* \"#utility.yul\":924:930   */\n      dup3\n        /* \"#utility.yul\":913:922   */\n      dup6\n        /* \"#utility.yul\":909:931   */\n      add\n        /* \"#utility.yul\":891:941   */\n      tag_101\n      jump\t// in\n    tag_113:\n        /* \"#utility.yul\":881:941   */\n      swap2\n      pop\n        /* \"#utility.yul\":837:951   */\n      pop\n        /* \"#utility.yul\":765:958   */\n      swap3\n      swap2\n      pop\n      pop\n      jump\t// out\n        /* \"#utility.yul\":964:1242   */\n    tag_95:\n      0x00\n        /* \"#utility.yul\":1080:1082   */\n      0x20\n        /* \"#utility.yul\":1068:1077   */\n      dup3\n        /* \"#utility.yul\":1059:1066   */\n      dup5\n        /* \"#utility.yul\":1055:1078   */\n      sub\n        /* \"#utility.yul\":1051:1083   */\n      slt\n        /* \"#utility.yul\":1048:1050   */\n      iszero\n      tag_115\n      jumpi\n        /* \"#utility.yul\":1096:1097   */\n      0x00\n        /* \"#utility.yul\":1093:1094   */\n      dup1\n        /* \"#utility.yul\":1086:1098   */\n      revert\n        /* \"#utility.yul\":1048:1050   */\n    tag_115:\n        /* \"#utility.yul\":1139:1140   */\n      0x00\n        /* \"#utility.yul\":1164:1225   */\n      tag_116\n        /* \"#utility.yul\":1217:1224   */\n      dup5\n        /* \"#utility.yul\":1208:1214   */\n      dup3\n        /* \"#utility.yul\":1197:1206   */\n      dup6\n        /* \"#utility.yul\":1193:1215   */\n      add\n        /* \"#utility.yul\":1164:1225   */\n      tag_105\n      jump\t// in\n    tag_116:\n        /* \"#utility.yul\":1154:1225   */\n      swap2\n      pop\n        /* \"#utility.yul\":1110:1235   */\n      pop\n        /* \"#utility.yul\":1038:1242   */\n      swap3\n      swap2\n      pop\n      pop\n      jump\t// out\n        /* \"#utility.yul\":1248:1357   */\n    tag_117:\n        /* \"#utility.yul\":1329:1350   */\n      tag_119\n        /* \"#utility.yul\":1344:1349   */\n      dup2\n        /* \"#utility.yul\":1329:1350   */\n      tag_120\n      jump\t// in\n    tag_119:\n        /* \"#utility.yul\":1324:1327   */\n      dup3\n        /* \"#utility.yul\":1317:1351   */\n      mstore\n        /* \"#utility.yul\":1307:1357   */\n      pop\n      pop\n      jump\t// out\n        /* \"#utility.yul\":1363:1481   */\n    tag_121:\n        /* \"#utility.yul\":1450:1474   */\n      tag_123\n        /* \"#utility.yul\":1468:1473   */\n      dup2\n        /* \"#utility.yul\":1450:1474   */\n      tag_124\n      jump\t// in\n    tag_123:\n        /* \"#utility.yul\":1445:1448   */\n      dup3\n        /* \"#utility.yul\":1438:1475   */\n      mstore\n        /* \"#utility.yul\":1428:1481   */\n      pop\n      pop\n      jump\t// out\n        /* \"#utility.yul\":1487:1697   */\n    tag_22:\n      0x00\n        /* \"#utility.yul\":1612:1614   */\n      0x20\n        /* \"#utility.yul\":1601:1610   */\n      dup3\n        /* \"#utility.yul\":1597:1615   */\n      add\n        /* \"#utility.yul\":1589:1615   */\n      swap1\n      pop\n        /* \"#utility.yul\":1625:1690   */\n      tag_126\n        /* \"#utility.yul\":1687:1688   */\n      0x00\n        /* \"#utility.yul\":1676:1685   */\n      dup4\n        /* \"#utility.yul\":1672:1689   */\n      add\n        /* \"#utility.yul\":1663:1669   */\n      dup5\n        /* \"#utility.yul\":1625:1690   */\n      tag_117\n      jump\t// in\n    tag_126:\n        /* \"#utility.yul\":1579:1697   */\n      swap3\n      swap2\n      pop\n      pop\n      jump\t// out\n        /* \"#utility.yul\":1703:1925   */\n    tag_26:\n      0x00\n        /* \"#utility.yul\":1834:1836   */\n      0x20\n        /* \"#utility.yul\":1823:1832   */\n      dup3\n        /* \"#utility.yul\":1819:1837   */\n      add\n        /* \"#utility.yul\":1811:1837   */\n      swap1\n      pop\n        /* \"#utility.yul\":1847:1918   */\n      tag_128\n        /* \"#utility.yul\":1915:1916   */\n      0x00\n        /* \"#utility.yul\":1904:1913   */\n      dup4\n        /* \"#utility.yul\":1900:1917   */\n      add\n        /* \"#utility.yul\":1891:1897   */\n      dup5\n        /* \"#utility.yul\":1847:1918   */\n      tag_121\n      jump\t// in\n    tag_128:\n        /* \"#utility.yul\":1801:1925   */\n      swap3\n      swap2\n      pop\n      pop\n      jump\t// out\n        /* \"#utility.yul\":1931:2116   */\n    tag_54:\n      0x00\n        /* \"#utility.yul\":1988:2008   */\n      tag_130\n        /* \"#utility.yul\":2006:2007   */\n      dup3\n        /* \"#utility.yul\":1988:2008   */\n      tag_124\n      jump\t// in\n    tag_130:\n        /* \"#utility.yul\":1983:2008   */\n      swap2\n      pop\n        /* \"#utility.yul\":2022:2042   */\n      tag_131\n        /* \"#utility.yul\":2040:2041   */\n      dup4\n        /* \"#utility.yul\":2022:2042   */\n      tag_124\n      jump\t// in\n    tag_131:\n        /* \"#utility.yul\":2017:2042   */\n      swap3\n      pop\n        /* \"#utility.yul\":2061:2062   */\n      dup3\n        /* \"#utility.yul\":2051:2053   */\n      tag_132\n      jumpi\n        /* \"#utility.yul\":2066:2084   */\n      tag_133\n      tag_134\n      jump\t// in\n    tag_133:\n        /* \"#utility.yul\":2051:2053   */\n    tag_132:\n        /* \"#utility.yul\":2108:2109   */\n      dup3\n        /* \"#utility.yul\":2105:2106   */\n      dup3\n        /* \"#utility.yul\":2101:2110   */\n      div\n        /* \"#utility.yul\":2096:2110   */\n      swap1\n      pop\n        /* \"#utility.yul\":1973:2116   */\n      swap3\n      swap2\n      pop\n      pop\n      jump\t// out\n        /* \"#utility.yul\":2122:2313   */\n    tag_52:\n      0x00\n        /* \"#utility.yul\":2182:2202   */\n      tag_136\n        /* \"#utility.yul\":2200:2201   */\n      dup3\n        /* \"#utility.yul\":2182:2202   */\n      tag_124\n      jump\t// in\n    tag_136:\n        /* \"#utility.yul\":2177:2202   */\n      swap2\n      pop\n        /* \"#utility.yul\":2216:2236   */\n      tag_137\n        /* \"#utility.yul\":2234:2235   */\n      dup4\n        /* \"#utility.yul\":2216:2236   */\n      tag_124\n      jump\t// in\n    tag_137:\n        /* \"#utility.yul\":2211:2236   */\n      swap3\n      pop\n        /* \"#utility.yul\":2255:2256   */\n      dup3\n        /* \"#utility.yul\":2252:2253   */\n      dup3\n        /* \"#utility.yul\":2249:2257   */\n      lt\n        /* \"#utility.yul\":2246:2248   */\n      iszero\n      tag_138\n      jumpi\n        /* \"#utility.yul\":2260:2278   */\n      tag_139\n      tag_140\n      jump\t// in\n    tag_139:\n        /* \"#utility.yul\":2246:2248   */\n    tag_138:\n        /* \"#utility.yul\":2305:2306   */\n      dup3\n        /* \"#utility.yul\":2302:2303   */\n      dup3\n        /* \"#utility.yul\":2298:2307   */\n      sub\n        /* \"#utility.yul\":2290:2307   */\n      swap1\n      pop\n        /* \"#utility.yul\":2167:2313   */\n      swap3\n      swap2\n      pop\n      pop\n      jump\t// out\n        /* \"#utility.yul\":2319:2415   */\n    tag_141:\n      0x00\n        /* \"#utility.yul\":2385:2409   */\n      tag_143\n        /* \"#utility.yul\":2403:2408   */\n      dup3\n        /* \"#utility.yul\":2385:2409   */\n      tag_144\n      jump\t// in\n    tag_143:\n        /* \"#utility.yul\":2374:2409   */\n      swap1\n      pop\n        /* \"#utility.yul\":2364:2415   */\n      swap2\n      swap1\n      pop\n      jump\t// out\n        /* \"#utility.yul\":2421:2511   */\n    tag_120:\n      0x00\n        /* \"#utility.yul\":2498:2503   */\n      dup2\n        /* \"#utility.yul\":2491:2504   */\n      iszero\n        /* \"#utility.yul\":2484:2505   */\n      iszero\n        /* \"#utility.yul\":2473:2505   */\n      swap1\n      pop\n        /* \"#utility.yul\":2463:2511   */\n      swap2\n      swap1\n      pop\n      jump\t// out\n        /* \"#utility.yul\":2517:2643   */\n    tag_144:\n      0x00\n        /* \"#utility.yul\":2594:2636   */\n      0xffffffffffffffffffffffffffffffffffffffff\n        /* \"#utility.yul\":2587:2592   */\n      dup3\n        /* \"#utility.yul\":2583:2637   */\n      and\n        /* \"#utility.yul\":2572:2637   */\n      swap1\n      pop\n        /* \"#utility.yul\":2562:2643   */\n      swap2\n      swap1\n      pop\n      jump\t// out\n        /* \"#utility.yul\":2649:2726   */\n    tag_124:\n      0x00\n        /* \"#utility.yul\":2715:2720   */\n      dup2\n        /* \"#utility.yul\":2704:2720   */\n      swap1\n      pop\n        /* \"#utility.yul\":2694:2726   */\n      swap2\n      swap1\n      pop\n      jump\t// out\n        /* \"#utility.yul\":2732:2965   */\n    tag_66:\n      0x00\n        /* \"#utility.yul\":2794:2818   */\n      tag_149\n        /* \"#utility.yul\":2812:2817   */\n      dup3\n        /* \"#utility.yul\":2794:2818   */\n      tag_124\n      jump\t// in\n    tag_149:\n        /* \"#utility.yul\":2785:2818   */\n      swap2\n      pop\n        /* \"#utility.yul\":2840:2906   */\n      0xffffffffffffffffffffffffffffffffffffffffffffffffffffffffffffffff\n        /* \"#utility.yul\":2833:2838   */\n      dup3\n        /* \"#utility.yul\":2830:2907   */\n      eq\n        /* \"#utility.yul\":2827:2829   */\n      iszero\n      tag_150\n      jumpi\n        /* \"#utility.yul\":2910:2928   */\n      tag_151\n      tag_140\n      jump\t// in\n    tag_151:\n        /* \"#utility.yul\":2827:2829   */\n    tag_150:\n        /* \"#utility.yul\":2957:2958   */\n      0x01\n        /* \"#utility.yul\":2950:2955   */\n      dup3\n        /* \"#utility.yul\":2946:2959   */\n      add\n        /* \"#utility.yul\":2939:2959   */\n      swap1\n      pop\n        /* \"#utility.yul\":2775:2965   */\n      swap2\n      swap1\n      pop\n      jump\t// out\n        /* \"#utility.yul\":2971:3151   */\n    tag_140:\n        /* \"#utility.yul\":3019:3096   */\n      0x4e487b7100000000000000000000000000000000000000000000000000000000\n        /* \"#utility.yul\":3016:3017   */\n      0x00\n        /* \"#utility.yul\":3009:3097   */\n      mstore\n        /* \"#utility.yul\":3116:3120   */\n      0x11\n        /* \"#utility.yul\":3113:3114   */\n      0x04\n        /* \"#utility.yul\":3106:3121   */\n      mstore\n        /* \"#utility.yul\":3140:3144   */\n      0x24\n        /* \"#utility.yul\":3137:3138   */\n      0x00\n        /* \"#utility.yul\":3130:3145   */\n      revert\n        /* \"#utility.yul\":3157:3337   */\n    tag_134:\n        /* \"#utility.yul\":3205:3282   */\n      0x4e487b7100000000000000000000000000000000000000000000000000000000\n        /* \"#utility.yul\":3202:3203   */\n      0x00\n        /* \"#utility.yul\":3195:3283   */\n      mstore\n        /* \"#utility.yul\":3302:3306   */\n      0x12\n        /* \"#utility.yul\":3299:3300   */\n      0x04\n        /* \"#utility.yul\":3292:3307   */\n      mstore\n        /* \"#utility.yul\":3326:3330   */\n      0x24\n        /* \"#utility.yul\":3323:3324   */\n      0x00\n        /* \"#utility.yul\":3316:3331   */\n      revert\n        /* \"#utility.yul\":3343:3465   */\n    tag_100:\n        /* \"#utility.yul\":3416:3440   */\n      tag_155\n        /* \"#utility.yul\":3434:3439   */\n      dup2\n        /* \"#utility.yul\":3416:3440   */\n      tag_141\n      jump\t// in\n    tag_155:\n        /* \"#utility.yul\":3409:3414   */\n      dup2\n        /* \"#utility.yul\":3406:3441   */\n      eq\n        /* \"#utility.yul\":3396:3398   */\n      tag_156\n      jumpi\n        /* \"#utility.yul\":3455:3456   */\n      0x00\n        /* \"#utility.yul\":3452:3453   */\n      dup1\n        /* \"#utility.yul\":3445:3457   */\n      revert\n        /* \"#utility.yul\":3396:3398   */\n    tag_156:\n        /* \"#utility.yul\":3386:3465   */\n      pop\n      jump\t// out\n        /* \"#utility.yul\":3471:3587   */\n    tag_104:\n        /* \"#utility.yul\":3541:3562   */\n      tag_158\n        /* \"#utility.yul\":3556:3561   */\n      dup2\n        /* \"#utility.yul\":3541:3562   */\n      tag_120\n      jump\t// in\n    tag_158:\n        /* \"#utility.yul\":3534:3539   */\n      dup2\n        /* \"#utility.yul\":3531:3563   */\n      eq\n        /* \"#utility.yul\":3521:3523   */\n      tag_159\n      jumpi\n        /* \"#utility.yul\":3577:3578   */\n      0x00\n        /* \"#utility.yul\":3574:3575   */\n      dup1\n        /* \"#utility.yul\":3567:3579   */\n      revert\n        /* \"#utility.yul\":3521:3523   */\n    tag_159:\n        /* \"#utility.yul\":3511:3587   */\n      pop\n      jump\t// out\n\n    auxdata: 0xa26469706673582212202fef686017010533fe37d0fa9d09bef310fe1e141487712faa5d9d93ee6cafb264736f6c63430008000033\n}\n",
				"bytecode": {
					"linkReferences": {},
					"object": "60806040527f800000000000000000000000000000000000000000000000000000000000000060045534801561003457600080fd5b506000808190555061082d8061004b6000396000f3fe608060405234801561001057600080fd5b50600436106100a85760003560e01c80638475c028116100715780638475c028146101415780638c74ddb01461015f578063a68ebe8814610169578063b15c128e14610173578063e6f334d71461018f578063f852be69146101ad576100a8565b806281fe1a146100ad57806304ac3f91146100b75780633fa21806146100e75780635ac947cb146101055780635d06228b14610123575b600080fd5b6100b56101cb565b005b6100d160048036038101906100cc91906105cf565b610240565b6040516100de919061063f565b60405180910390f35b6100ef610302565b6040516100fc919061065a565b60405180910390f35b61010d610308565b60405161011a919061065a565b60405180910390f35b61012b61030e565b604051610138919061063f565b60405180910390f35b6101496103e5565b604051610156919061063f565b60405180910390f35b6101676103f8565b005b610171610405565b005b61018d600480360381019061018891906105a6565b61045d565b005b61019761055b565b6040516101a4919061065a565b60405180910390f35b6101b5610561565b6040516101c2919061065a565b60405180910390f35b6001436101d891906106a6565b4060001c6003819055506004546003546101f29190610675565b60028190555060016002541461020957600061020c565b60015b600560006101000a81548160ff02191690831515021790555061023d600560009054906101000a900460ff16610240565b50565b600060014361024f91906106a6565b4060001c600381905550600354600154141561026a57600080fd5b6003546001819055506004546003546102839190610675565b60028190555060016002541461029a57600061029d565b60015b600560006101000a81548160ff021916908315150217905550811515600560009054906101000a900460ff16151514156102f1576000808154809291906102e390610722565b9190505550600190506102fd565b60008081905550600090505b919050565b60015481565b60025481565b600060014361031d91906106a6565b4060001c6003819055506003546001819055506004546003546103409190610675565b60028190555060016002541461035757600061035a565b60015b600560006101000a81548160ff021916908315150217905550600560009054906101000a900460ff16156103b7576103926001610240565b506000600560006101000a81548160ff021916908315150217905550600190506103e2565b6103c16001610240565b506001600560006101000a81548160ff021916908315150217905550600090505b90565b600560009054906101000a900460ff1681565b6104026001610240565b50565b60014361041291906106a6565b4060001c6003819055506003546001819055506004546003546104359190610675565b60028190555060016002541015610456576104506000610240565b5061045b565b600080fd5b565b600081905060014361046f91906106a6565b4060001c6003819055506004546003546104899190610675565b6002819055506001600254146104a05760006104a3565b60015b600560006101000a81548160ff0219169083151502179055508073ffffffffffffffffffffffffffffffffffffffff16631d263f67600560009054906101000a900460ff166040518263ffffffff1660e01b8152600401610504919061063f565b602060405180830381600087803b15801561051e57600080fd5b505af1158015610532573d6000803e3d6000fd5b505050506040513d601f19601f8201168201806040525081019061055691906105f8565b505050565b60005481565b60035481565b600081359050610576816107c9565b92915050565b60008135905061058b816107e0565b92915050565b6000815190506105a0816107e0565b92915050565b6000602082840312156105b857600080fd5b60006105c684828501610567565b91505092915050565b6000602082840312156105e157600080fd5b60006105ef8482850161057c565b91505092915050565b60006020828403121561060a57600080fd5b600061061884828501610591565b91505092915050565b61062a816106ec565b82525050565b61063981610718565b82525050565b60006020820190506106546000830184610621565b92915050565b600060208201905061066f6000830184610630565b92915050565b600061068082610718565b915061068b83610718565b92508261069b5761069a61079a565b5b828204905092915050565b60006106b182610718565b91506106bc83610718565b9250828210156106cf576106ce61076b565b5b828203905092915050565b60006106e5826106f8565b9050919050565b60008115159050919050565b600073ffffffffffffffffffffffffffffffffffffffff82169050919050565b6000819050919050565b600061072d82610718565b91507fffffffffffffffffffffffffffffffffffffffffffffffffffffffffffffffff8214156107605761075f61076b565b5b600182019050919050565b7f4e487b7100000000000000000000000000000000000000000000000000000000600052601160045260246000fd5b7f4e487b7100000000000000000000000000000000000000000000000000000000600052601260045260246000fd5b6107d2816106da565b81146107dd57600080fd5b50565b6107e9816106ec565b81146107f457600080fd5b5056fea26469706673582212202fef686017010533fe37d0fa9d09bef310fe1e141487712faa5d9d93ee6cafb264736f6c63430008000033",
					"opcodes": "PUSH1 0x80 PUSH1 0x40 MSTORE PUSH32 0x8000000000000000000000000000000000000000000000000000000000000000 PUSH1 0x4 SSTORE CALLVALUE DUP1 ISZERO PUSH2 0x34 JUMPI PUSH1 0x0 DUP1 REVERT JUMPDEST POP PUSH1 0x0 DUP1 DUP2 SWAP1 SSTORE POP PUSH2 0x82D DUP1 PUSH2 0x4B PUSH1 0x0 CODECOPY PUSH1 0x0 RETURN INVALID PUSH1 0x80 PUSH1 0x40 MSTORE CALLVALUE DUP1 ISZERO PUSH2 0x10 JUMPI PUSH1 0x0 DUP1 REVERT JUMPDEST POP PUSH1 0x4 CALLDATASIZE LT PUSH2 0xA8 JUMPI PUSH1 0x0 CALLDATALOAD PUSH1 0xE0 SHR DUP1 PUSH4 0x8475C028 GT PUSH2 0x71 JUMPI DUP1 PUSH4 0x8475C028 EQ PUSH2 0x141 JUMPI DUP1 PUSH4 0x8C74DDB0 EQ PUSH2 0x15F JUMPI DUP1 PUSH4 0xA68EBE88 EQ PUSH2 0x169 JUMPI DUP1 PUSH4 0xB15C128E EQ PUSH2 0x173 JUMPI DUP1 PUSH4 0xE6F334D7 EQ PUSH2 0x18F JUMPI DUP1 PUSH4 0xF852BE69 EQ PUSH2 0x1AD JUMPI PUSH2 0xA8 JUMP JUMPDEST DUP1 PUSH3 0x81FE1A EQ PUSH2 0xAD JUMPI DUP1 PUSH4 0x4AC3F91 EQ PUSH2 0xB7 JUMPI DUP1 PUSH4 0x3FA21806 EQ PUSH2 0xE7 JUMPI DUP1 PUSH4 0x5AC947CB EQ PUSH2 0x105 JUMPI DUP1 PUSH4 0x5D06228B EQ PUSH2 0x123 JUMPI JUMPDEST PUSH1 0x0 DUP1 REVERT JUMPDEST PUSH2 0xB5 PUSH2 0x1CB JUMP JUMPDEST STOP JUMPDEST PUSH2 0xD1 PUSH1 0x4 DUP1 CALLDATASIZE SUB DUP2 ADD SWAP1 PUSH2 0xCC SWAP2 SWAP1 PUSH2 0x5CF JUMP JUMPDEST PUSH2 0x240 JUMP JUMPDEST PUSH1 0x40 MLOAD PUSH2 0xDE SWAP2 SWAP1 PUSH2 0x63F JUMP JUMPDEST PUSH1 0x40 MLOAD DUP1 SWAP2 SUB SWAP1 RETURN JUMPDEST PUSH2 0xEF PUSH2 0x302 JUMP JUMPDEST PUSH1 0x40 MLOAD PUSH2 0xFC SWAP2 SWAP1 PUSH2 0x65A JUMP JUMPDEST PUSH1 0x40 MLOAD DUP1 SWAP2 SUB SWAP1 RETURN JUMPDEST PUSH2 0x10D PUSH2 0x308 JUMP JUMPDEST PUSH1 0x40 MLOAD PUSH2 0x11A SWAP2 SWAP1 PUSH2 0x65A JUMP JUMPDEST PUSH1 0x40 MLOAD DUP1 SWAP2 SUB SWAP1 RETURN JUMPDEST PUSH2 0x12B PUSH2 0x30E JUMP JUMPDEST PUSH1 0x40 MLOAD PUSH2 0x138 SWAP2 SWAP1 PUSH2 0x63F JUMP JUMPDEST PUSH1 0x40 MLOAD DUP1 SWAP2 SUB SWAP1 RETURN JUMPDEST PUSH2 0x149 PUSH2 0x3E5 JUMP JUMPDEST PUSH1 0x40 MLOAD PUSH2 0x156 SWAP2 SWAP1 PUSH2 0x63F JUMP JUMPDEST PUSH1 0x40 MLOAD DUP1 SWAP2 SUB SWAP1 RETURN JUMPDEST PUSH2 0x167 PUSH2 0x3F8 JUMP JUMPDEST STOP JUMPDEST PUSH2 0x171 PUSH2 0x405 JUMP JUMPDEST STOP JUMPDEST PUSH2 0x18D PUSH1 0x4 DUP1 CALLDATASIZE SUB DUP2 ADD SWAP1 PUSH2 0x188 SWAP2 SWAP1 PUSH2 0x5A6 JUMP JUMPDEST PUSH2 0x45D JUMP JUMPDEST STOP JUMPDEST PUSH2 0x197 PUSH2 0x55B JUMP JUMPDEST PUSH1 0x40 MLOAD PUSH2 0x1A4 SWAP2 SWAP1 PUSH2 0x65A JUMP JUMPDEST PUSH1 0x40 MLOAD DUP1 SWAP2 SUB SWAP1 RETURN JUMPDEST PUSH2 0x1B5 PUSH2 0x561 JUMP JUMPDEST PUSH1 0x40 MLOAD PUSH2 0x1C2 SWAP2 SWAP1 PUSH2 0x65A JUMP JUMPDEST PUSH1 0x40 MLOAD DUP1 SWAP2 SUB SWAP1 RETURN JUMPDEST PUSH1 0x1 NUMBER PUSH2 0x1D8 SWAP2 SWAP1 PUSH2 0x6A6 JUMP JUMPDEST BLOCKHASH PUSH1 0x0 SHR PUSH1 0x3 DUP2 SWAP1 SSTORE POP PUSH1 0x4 SLOAD PUSH1 0x3 SLOAD PUSH2 0x1F2 SWAP2 SWAP1 PUSH2 0x675 JUMP JUMPDEST PUSH1 0x2 DUP2 SWAP1 SSTORE POP PUSH1 0x1 PUSH1 0x2 SLOAD EQ PUSH2 0x209 JUMPI PUSH1 0x0 PUSH2 0x20C JUMP JUMPDEST PUSH1 0x1 JUMPDEST PUSH1 0x5 PUSH1 0x0 PUSH2 0x100 EXP DUP2 SLOAD DUP2 PUSH1 0xFF MUL NOT AND SWAP1 DUP4 ISZERO ISZERO MUL OR SWAP1 SSTORE POP PUSH2 0x23D PUSH1 0x5 PUSH1 0x0 SWAP1 SLOAD SWAP1 PUSH2 0x100 EXP SWAP1 DIV PUSH1 0xFF AND PUSH2 0x240 JUMP JUMPDEST POP JUMP JUMPDEST PUSH1 0x0 PUSH1 0x1 NUMBER PUSH2 0x24F SWAP2 SWAP1 PUSH2 0x6A6 JUMP JUMPDEST BLOCKHASH PUSH1 0x0 SHR PUSH1 0x3 DUP2 SWAP1 SSTORE POP PUSH1 0x3 SLOAD PUSH1 0x1 SLOAD EQ ISZERO PUSH2 0x26A JUMPI PUSH1 0x0 DUP1 REVERT JUMPDEST PUSH1 0x3 SLOAD PUSH1 0x1 DUP2 SWAP1 SSTORE POP PUSH1 0x4 SLOAD PUSH1 0x3 SLOAD PUSH2 0x283 SWAP2 SWAP1 PUSH2 0x675 JUMP JUMPDEST PUSH1 0x2 DUP2 SWAP1 SSTORE POP PUSH1 0x1 PUSH1 0x2 SLOAD EQ PUSH2 0x29A JUMPI PUSH1 0x0 PUSH2 0x29D JUMP JUMPDEST PUSH1 0x1 JUMPDEST PUSH1 0x5 PUSH1 0x0 PUSH2 0x100 EXP DUP2 SLOAD DUP2 PUSH1 0xFF MUL NOT AND SWAP1 DUP4 ISZERO ISZERO MUL OR SWAP1 SSTORE POP DUP2 ISZERO ISZERO PUSH1 0x5 PUSH1 0x0 SWAP1 SLOAD SWAP1 PUSH2 0x100 EXP SWAP1 DIV PUSH1 0xFF AND ISZERO ISZERO EQ ISZERO PUSH2 0x2F1 JUMPI PUSH1 0x0 DUP1 DUP2 SLOAD DUP1 SWAP3 SWAP2 SWAP1 PUSH2 0x2E3 SWAP1 PUSH2 0x722 JUMP JUMPDEST SWAP2 SWAP1 POP SSTORE POP PUSH1 0x1 SWAP1 POP PUSH2 0x2FD JUMP JUMPDEST PUSH1 0x0 DUP1 DUP2 SWAP1 SSTORE POP PUSH1 0x0 SWAP1 POP JUMPDEST SWAP2 SWAP1 POP JUMP JUMPDEST PUSH1 0x1 SLOAD DUP2 JUMP JUMPDEST PUSH1 0x2 SLOAD DUP2 JUMP JUMPDEST PUSH1 0x0 PUSH1 0x1 NUMBER PUSH2 0x31D SWAP2 SWAP1 PUSH2 0x6A6 JUMP JUMPDEST BLOCKHASH PUSH1 0x0 SHR PUSH1 0x3 DUP2 SWAP1 SSTORE POP PUSH1 0x3 SLOAD PUSH1 0x1 DUP2 SWAP1 SSTORE POP PUSH1 0x4 SLOAD PUSH1 0x3 SLOAD PUSH2 0x340 SWAP2 SWAP1 PUSH2 0x675 JUMP JUMPDEST PUSH1 0x2 DUP2 SWAP1 SSTORE POP PUSH1 0x1 PUSH1 0x2 SLOAD EQ PUSH2 0x357 JUMPI PUSH1 0x0 PUSH2 0x35A JUMP JUMPDEST PUSH1 0x1 JUMPDEST PUSH1 0x5 PUSH1 0x0 PUSH2 0x100 EXP DUP2 SLOAD DUP2 PUSH1 0xFF MUL NOT AND SWAP1 DUP4 ISZERO ISZERO MUL OR SWAP1 SSTORE POP PUSH1 0x5 PUSH1 0x0 SWAP1 SLOAD SWAP1 PUSH2 0x100 EXP SWAP1 DIV PUSH1 0xFF AND ISZERO PUSH2 0x3B7 JUMPI PUSH2 0x392 PUSH1 0x1 PUSH2 0x240 JUMP JUMPDEST POP PUSH1 0x0 PUSH1 0x5 PUSH1 0x0 PUSH2 0x100 EXP DUP2 SLOAD DUP2 PUSH1 0xFF MUL NOT AND SWAP1 DUP4 ISZERO ISZERO MUL OR SWAP1 SSTORE POP PUSH1 0x1 SWAP1 POP PUSH2 0x3E2 JUMP JUMPDEST PUSH2 0x3C1 PUSH1 0x1 PUSH2 0x240 JUMP JUMPDEST POP PUSH1 0x1 PUSH1 0x5 PUSH1 0x0 PUSH2 0x100 EXP DUP2 SLOAD DUP2 PUSH1 0xFF MUL NOT AND SWAP1 DUP4 ISZERO ISZERO MUL OR SWAP1 SSTORE POP PUSH1 0x0 SWAP1 POP JUMPDEST SWAP1 JUMP JUMPDEST PUSH1 0x5 PUSH1 0x0 SWAP1 SLOAD SWAP1 PUSH2 0x100 EXP SWAP1 DIV PUSH1 0xFF AND DUP2 JUMP JUMPDEST PUSH2 0x402 PUSH1 0x1 PUSH2 0x240 JUMP JUMPDEST POP JUMP JUMPDEST PUSH1 0x1 NUMBER PUSH2 0x412 SWAP2 SWAP1 PUSH2 0x6A6 JUMP JUMPDEST BLOCKHASH PUSH1 0x0 SHR PUSH1 0x3 DUP2 SWAP1 SSTORE POP PUSH1 0x3 SLOAD PUSH1 0x1 DUP2 SWAP1 SSTORE POP PUSH1 0x4 SLOAD PUSH1 0x3 SLOAD PUSH2 0x435 SWAP2 SWAP1 PUSH2 0x675 JUMP JUMPDEST PUSH1 0x2 DUP2 SWAP1 SSTORE POP PUSH1 0x1 PUSH1 0x2 SLOAD LT ISZERO PUSH2 0x456 JUMPI PUSH2 0x450 PUSH1 0x0 PUSH2 0x240 JUMP JUMPDEST POP PUSH2 0x45B JUMP JUMPDEST PUSH1 0x0 DUP1 REVERT JUMPDEST JUMP JUMPDEST PUSH1 0x0 DUP2 SWAP1 POP PUSH1 0x1 NUMBER PUSH2 0x46F SWAP2 SWAP1 PUSH2 0x6A6 JUMP JUMPDEST BLOCKHASH PUSH1 0x0 SHR PUSH1 0x3 DUP2 SWAP1 SSTORE POP PUSH1 0x4 SLOAD PUSH1 0x3 SLOAD PUSH2 0x489 SWAP2 SWAP1 PUSH2 0x675 JUMP JUMPDEST PUSH1 0x2 DUP2 SWAP1 SSTORE POP PUSH1 0x1 PUSH1 0x2 SLOAD EQ PUSH2 0x4A0 JUMPI PUSH1 0x0 PUSH2 0x4A3 JUMP JUMPDEST PUSH1 0x1 JUMPDEST PUSH1 0x5 PUSH1 0x0 PUSH2 0x100 EXP DUP2 SLOAD DUP2 PUSH1 0xFF MUL NOT AND SWAP1 DUP4 ISZERO ISZERO MUL OR SWAP1 SSTORE POP DUP1 PUSH20 0xFFFFFFFFFFFFFFFFFFFFFFFFFFFFFFFFFFFFFFFF AND PUSH4 0x1D263F67 PUSH1 0x5 PUSH1 0x0 SWAP1 SLOAD SWAP1 PUSH2 0x100 EXP SWAP1 DIV PUSH1 0xFF AND PUSH1 0x40 MLOAD DUP3 PUSH4 0xFFFFFFFF AND PUSH1 0xE0 SHL DUP2 MSTORE PUSH1 0x4 ADD PUSH2 0x504 SWAP2 SWAP1 PUSH2 0x63F JUMP JUMPDEST PUSH1 0x20 PUSH1 0x40 MLOAD DUP1 DUP4 SUB DUP2 PUSH1 0x0 DUP8 DUP1 EXTCODESIZE ISZERO DUP1 ISZERO PUSH2 0x51E JUMPI PUSH1 0x0 DUP1 REVERT JUMPDEST POP GAS CALL ISZERO DUP1 ISZERO PUSH2 0x532 JUMPI RETURNDATASIZE PUSH1 0x0 DUP1 RETURNDATACOPY RETURNDATASIZE PUSH1 0x0 REVERT JUMPDEST POP POP POP POP PUSH1 0x40 MLOAD RETURNDATASIZE PUSH1 0x1F NOT PUSH1 0x1F DUP3 ADD AND DUP3 ADD DUP1 PUSH1 0x40 MSTORE POP DUP2 ADD SWAP1 PUSH2 0x556 SWAP2 SWAP1 PUSH2 0x5F8 JUMP JUMPDEST POP POP POP JUMP JUMPDEST PUSH1 0x0 SLOAD DUP2 JUMP JUMPDEST PUSH1 0x3 SLOAD DUP2 JUMP JUMPDEST PUSH1 0x0 DUP2 CALLDATALOAD SWAP1 POP PUSH2 0x576 DUP2 PUSH2 0x7C9 JUMP JUMPDEST SWAP3 SWAP2 POP POP JUMP JUMPDEST PUSH1 0x0 DUP2 CALLDATALOAD SWAP1 POP PUSH2 0x58B DUP2 PUSH2 0x7E0 JUMP JUMPDEST SWAP3 SWAP2 POP POP JUMP JUMPDEST PUSH1 0x0 DUP2 MLOAD SWAP1 POP PUSH2 0x5A0 DUP2 PUSH2 0x7E0 JUMP JUMPDEST SWAP3 SWAP2 POP POP JUMP JUMPDEST PUSH1 0x0 PUSH1 0x20 DUP3 DUP5 SUB SLT ISZERO PUSH2 0x5B8 JUMPI PUSH1 0x0 DUP1 REVERT JUMPDEST PUSH1 0x0 PUSH2 0x5C6 DUP5 DUP3 DUP6 ADD PUSH2 0x567 JUMP JUMPDEST SWAP2 POP POP SWAP3 SWAP2 POP POP JUMP JUMPDEST PUSH1 0x0 PUSH1 0x20 DUP3 DUP5 SUB SLT ISZERO PUSH2 0x5E1 JUMPI PUSH1 0x0 DUP1 REVERT JUMPDEST PUSH1 0x0 PUSH2 0x5EF DUP5 DUP3 DUP6 ADD PUSH2 0x57C JUMP JUMPDEST SWAP2 POP POP SWAP3 SWAP2 POP POP JUMP JUMPDEST PUSH1 0x0 PUSH1 0x20 DUP3 DUP5 SUB SLT ISZERO PUSH2 0x60A JUMPI PUSH1 0x0 DUP1 REVERT JUMPDEST PUSH1 0x0 PUSH2 0x618 DUP5 DUP3 DUP6 ADD PUSH2 0x591 JUMP JUMPDEST SWAP2 POP POP SWAP3 SWAP2 POP POP JUMP JUMPDEST PUSH2 0x62A DUP2 PUSH2 0x6EC JUMP JUMPDEST DUP3 MSTORE POP POP JUMP JUMPDEST PUSH2 0x639 DUP2 PUSH2 0x718 JUMP JUMPDEST DUP3 MSTORE POP POP JUMP JUMPDEST PUSH1 0x0 PUSH1 0x20 DUP3 ADD SWAP1 POP PUSH2 0x654 PUSH1 0x0 DUP4 ADD DUP5 PUSH2 0x621 JUMP JUMPDEST SWAP3 SWAP2 POP POP JUMP JUMPDEST PUSH1 0x0 PUSH1 0x20 DUP3 ADD SWAP1 POP PUSH2 0x66F PUSH1 0x0 DUP4 ADD DUP5 PUSH2 0x630 JUMP JUMPDEST SWAP3 SWAP2 POP POP JUMP JUMPDEST PUSH1 0x0 PUSH2 0x680 DUP3 PUSH2 0x718 JUMP JUMPDEST SWAP2 POP PUSH2 0x68B DUP4 PUSH2 0x718 JUMP JUMPDEST SWAP3 POP DUP3 PUSH2 0x69B JUMPI PUSH2 0x69A PUSH2 0x79A JUMP JUMPDEST JUMPDEST DUP3 DUP3 DIV SWAP1 POP SWAP3 SWAP2 POP POP JUMP JUMPDEST PUSH1 0x0 PUSH2 0x6B1 DUP3 PUSH2 0x718 JUMP JUMPDEST SWAP2 POP PUSH2 0x6BC DUP4 PUSH2 0x718 JUMP JUMPDEST SWAP3 POP DUP3 DUP3 LT ISZERO PUSH2 0x6CF JUMPI PUSH2 0x6CE PUSH2 0x76B JUMP JUMPDEST JUMPDEST DUP3 DUP3 SUB SWAP1 POP SWAP3 SWAP2 POP POP JUMP JUMPDEST PUSH1 0x0 PUSH2 0x6E5 DUP3 PUSH2 0x6F8 JUMP JUMPDEST SWAP1 POP SWAP2 SWAP1 POP JUMP JUMPDEST PUSH1 0x0 DUP2 ISZERO ISZERO SWAP1 POP SWAP2 SWAP1 POP JUMP JUMPDEST PUSH1 0x0 PUSH20 0xFFFFFFFFFFFFFFFFFFFFFFFFFFFFFFFFFFFFFFFF DUP3 AND SWAP1 POP SWAP2 SWAP1 POP JUMP JUMPDEST PUSH1 0x0 DUP2 SWAP1 POP SWAP2 SWAP1 POP JUMP JUMPDEST PUSH1 0x0 PUSH2 0x72D DUP3 PUSH2 0x718 JUMP JUMPDEST SWAP2 POP PUSH32 0xFFFFFFFFFFFFFFFFFFFFFFFFFFFFFFFFFFFFFFFFFFFFFFFFFFFFFFFFFFFFFFFF DUP3 EQ ISZERO PUSH2 0x760 JUMPI PUSH2 0x75F PUSH2 0x76B JUMP JUMPDEST JUMPDEST PUSH1 0x1 DUP3 ADD SWAP1 POP SWAP2 SWAP1 POP JUMP JUMPDEST PUSH32 0x4E487B7100000000000000000000000000000000000000000000000000000000 PUSH1 0x0 MSTORE PUSH1 0x11 PUSH1 0x4 MSTORE PUSH1 0x24 PUSH1 0x0 REVERT JUMPDEST PUSH32 0x4E487B7100000000000000000000000000000000000000000000000000000000 PUSH1 0x0 MSTORE PUSH1 0x12 PUSH1 0x4 MSTORE PUSH1 0x24 PUSH1 0x0 REVERT JUMPDEST PUSH2 0x7D2 DUP2 PUSH2 0x6DA JUMP JUMPDEST DUP2 EQ PUSH2 0x7DD JUMPI PUSH1 0x0 DUP1 REVERT JUMPDEST POP JUMP JUMPDEST PUSH2 0x7E9 DUP2 PUSH2 0x6EC JUMP JUMPDEST DUP2 EQ PUSH2 0x7F4 JUMPI PUSH1 0x0 DUP1 REVERT JUMPDEST POP JUMP INVALID LOG2 PUSH5 0x6970667358 0x22 SLT KECCAK256 0x2F 0xEF PUSH9 0x6017010533FE37D0FA SWAP14 MULMOD 0xBE RETURN LT INVALID 0x1E EQ EQ DUP8 PUSH18 0x2FAA5D9D93EE6CAFB264736F6C6343000800 STOP CALLER "
				},
				"gasEstimates": {
					"creation": {
						"codeDepositCost": "418600",
						"executionCost": "25475",
						"totalCost": "444075"
					},
					"external": {
						"blankFlip()": "infinite",
						"blockValue()": "1239",
						"coinFlip()": "1196",
						"consecutiveWins()": "1217",
						"lastHash()": "1174",
						"localFlip(bool)": "infinite",
						"localPsychicFlip()": "infinite",
						"positiveFlip()": "infinite",
						"remotePsychicFlip(address)": "infinite",
						"setCoinFlip()": "infinite",
						"side()": "1171"
					}
				},
				"methodIdentifiers": {
					"blankFlip()": "5d06228b",
					"blockValue()": "f852be69",
					"coinFlip()": "5ac947cb",
					"consecutiveWins()": "e6f334d7",
					"lastHash()": "3fa21806",
					"localFlip(bool)": "04ac3f91",
					"localPsychicFlip()": "0081fe1a",
					"positiveFlip()": "8c74ddb0",
					"remotePsychicFlip(address)": "b15c128e",
					"setCoinFlip()": "a68ebe88",
					"side()": "8475c028"
				}
			},
			"storageLayout": {
				"storage": [
					{
						"astId": 11,
						"contract": "Coinflip.sol:CoinFlip",
						"label": "consecutiveWins",
						"offset": 0,
						"slot": "0",
						"type": "t_uint256"
					},
					{
						"astId": 13,
						"contract": "Coinflip.sol:CoinFlip",
						"label": "lastHash",
						"offset": 0,
						"slot": "1",
						"type": "t_uint256"
					},
					{
						"astId": 15,
						"contract": "Coinflip.sol:CoinFlip",
						"label": "coinFlip",
						"offset": 0,
						"slot": "2",
						"type": "t_uint256"
					},
					{
						"astId": 17,
						"contract": "Coinflip.sol:CoinFlip",
						"label": "blockValue",
						"offset": 0,
						"slot": "3",
						"type": "t_uint256"
					},
					{
						"astId": 20,
						"contract": "Coinflip.sol:CoinFlip",
						"label": "FACTOR",
						"offset": 0,
						"slot": "4",
						"type": "t_uint256"
					},
					{
						"astId": 22,
						"contract": "Coinflip.sol:CoinFlip",
						"label": "side",
						"offset": 0,
						"slot": "5",
						"type": "t_bool"
					}
				],
				"types": {
					"t_bool": {
						"encoding": "inplace",
						"label": "bool",
						"numberOfBytes": "1"
					},
					"t_uint256": {
						"encoding": "inplace",
						"label": "uint256",
						"numberOfBytes": "32"
					}
				}
			},
			"userdoc": {
				"kind": "user",
				"methods": {},
				"version": 1
			}
		}
	}
}