{
	"Playground/Elevator.sol": {
		"Elevator": {
			"abi": [
				{
					"inputs": [],
					"name": "floor",
					"outputs": [
						{
							"internalType": "uint256",
							"name": "",
							"type": "uint256"
						}
					],
					"stateMutability": "view",
					"type": "function"
				},
				{
					"inputs": [
						{
							"internalType": "uint256",
							"name": "_floor",
							"type": "uint256"
						}
					],
					"name": "goTo",
					"outputs": [],
					"stateMutability": "nonpayable",
					"type": "function"
				},
				{
					"inputs": [],
					"name": "top",
					"outputs": [
						{
							"internalType": "bool",
							"name": "",
							"type": "bool"
						}
					],
					"stateMutability": "view",
					"type": "function"
				}
			],
			"devdoc": {
				"kind": "dev",
				"methods": {},
				"version": 1
			},
			"evm": {
				"assembly": "    /* \"Playground/Elevator.sol\":136:398  contract Elevator {... */\n  mstore(0x40, 0x80)\n  callvalue\n  dup1\n  iszero\n  tag_1\n  jumpi\n  0x00\n  dup1\n  revert\ntag_1:\n  pop\n  dataSize(sub_0)\n  dup1\n  dataOffset(sub_0)\n  0x00\n  codecopy\n  0x00\n  return\nstop\n\nsub_0: assembly {\n        /* \"Playground/Elevator.sol\":136:398  contract Elevator {... */\n      mstore(0x40, 0x80)\n      callvalue\n      dup1\n      iszero\n      tag_1\n      jumpi\n      0x00\n      dup1\n      revert\n    tag_1:\n      pop\n      jumpi(tag_2, lt(calldatasize, 0x04))\n      shr(0xe0, calldataload(0x00))\n      dup1\n      0x40695363\n      eq\n      tag_3\n      jumpi\n      dup1\n      0xed9a7134\n      eq\n      tag_4\n      jumpi\n      dup1\n      0xfe6dcdba\n      eq\n      tag_5\n      jumpi\n    tag_2:\n      0x00\n      dup1\n      revert\n        /* \"Playground/Elevator.sol\":177:194  uint public floor */\n    tag_3:\n      tag_6\n      tag_7\n      jump\t// in\n    tag_6:\n      mload(0x40)\n      tag_8\n      swap2\n      swap1\n      tag_9\n      jump\t// in\n    tag_8:\n      mload(0x40)\n      dup1\n      swap2\n      sub\n      swap1\n      return\n        /* \"Playground/Elevator.sol\":199:396  function goTo(uint _floor) public {... */\n    tag_4:\n      tag_10\n      0x04\n      dup1\n      calldatasize\n      sub\n      dup2\n      add\n      swap1\n      tag_11\n      swap2\n      swap1\n      tag_12\n      jump\t// in\n    tag_11:\n      tag_13\n      jump\t// in\n    tag_10:\n      stop\n        /* \"Playground/Elevator.sol\":158:173  bool public top */\n    tag_5:\n      tag_14\n      tag_15\n      jump\t// in\n    tag_14:\n      mload(0x40)\n      tag_16\n      swap2\n      swap1\n      tag_17\n      jump\t// in\n    tag_16:\n      mload(0x40)\n      dup1\n      swap2\n      sub\n      swap1\n      return\n        /* \"Playground/Elevator.sol\":177:194  uint public floor */\n    tag_7:\n      sload(0x01)\n      dup2\n      jump\t// out\n        /* \"Playground/Elevator.sol\":199:396  function goTo(uint _floor) public {... */\n    tag_13:\n        /* \"Playground/Elevator.sol\":239:256  Building building */\n      0x00\n        /* \"Playground/Elevator.sol\":268:278  msg.sender */\n      caller\n        /* \"Playground/Elevator.sol\":239:279  Building building = Building(msg.sender) */\n      swap1\n      pop\n        /* \"Playground/Elevator.sol\":292:300  building */\n      dup1\n        /* \"Playground/Elevator.sol\":292:312  building.isLastFloor */\n      0xffffffffffffffffffffffffffffffffffffffff\n      and\n      0x5f9a4bca\n        /* \"Playground/Elevator.sol\":313:319  _floor */\n      dup4\n        /* \"Playground/Elevator.sol\":292:320  building.isLastFloor(_floor) */\n      mload(0x40)\n      dup3\n      0xffffffff\n      and\n      0xe0\n      shl\n      dup2\n      mstore\n      0x04\n      add\n      tag_19\n      swap2\n      swap1\n      tag_9\n      jump\t// in\n    tag_19:\n      0x20\n      mload(0x40)\n      dup1\n      dup4\n      sub\n      dup2\n      0x00\n      dup8\n      dup1\n      extcodesize\n      iszero\n      dup1\n      iszero\n      tag_20\n      jumpi\n      0x00\n      dup1\n      revert\n    tag_20:\n      pop\n      gas\n      call\n      iszero\n      dup1\n      iszero\n      tag_22\n      jumpi\n      returndatasize\n      0x00\n      dup1\n      returndatacopy\n      revert(0x00, returndatasize)\n    tag_22:\n      pop\n      pop\n      pop\n      pop\n      mload(0x40)\n      returndatasize\n      not(0x1f)\n      0x1f\n      dup3\n      add\n      and\n      dup3\n      add\n      dup1\n      0x40\n      mstore\n      pop\n      dup2\n      add\n      swap1\n      tag_23\n      swap2\n      swap1\n      tag_24\n      jump\t// in\n    tag_23:\n        /* \"Playground/Elevator.sol\":286:392  if (! building.isLastFloor(_floor)) {... */\n      tag_25\n      jumpi\n        /* \"Playground/Elevator.sol\":338:344  _floor */\n      dup2\n        /* \"Playground/Elevator.sol\":330:335  floor */\n      0x01\n        /* \"Playground/Elevator.sol\":330:344  floor = _floor */\n      dup2\n      swap1\n      sstore\n      pop\n        /* \"Playground/Elevator.sol\":358:366  building */\n      dup1\n        /* \"Playground/Elevator.sol\":358:378  building.isLastFloor */\n      0xffffffffffffffffffffffffffffffffffffffff\n      and\n      0x5f9a4bca\n        /* \"Playground/Elevator.sol\":379:384  floor */\n      sload(0x01)\n        /* \"Playground/Elevator.sol\":358:385  building.isLastFloor(floor) */\n      mload(0x40)\n      dup3\n      0xffffffff\n      and\n      0xe0\n      shl\n      dup2\n      mstore\n      0x04\n      add\n      tag_26\n      swap2\n      swap1\n      tag_9\n      jump\t// in\n    tag_26:\n      0x20\n      mload(0x40)\n      dup1\n      dup4\n      sub\n      dup2\n      0x00\n      dup8\n      dup1\n      extcodesize\n      iszero\n      dup1\n      iszero\n      tag_27\n      jumpi\n      0x00\n      dup1\n      revert\n    tag_27:\n      pop\n      gas\n      call\n      iszero\n      dup1\n      iszero\n      tag_29\n      jumpi\n      returndatasize\n      0x00\n      dup1\n      returndatacopy\n      revert(0x00, returndatasize)\n    tag_29:\n      pop\n      pop\n      pop\n      pop\n      mload(0x40)\n      returndatasize\n      not(0x1f)\n      0x1f\n      dup3\n      add\n      and\n      dup3\n      add\n      dup1\n      0x40\n      mstore\n      pop\n      dup2\n      add\n      swap1\n      tag_30\n      swap2\n      swap1\n      tag_24\n      jump\t// in\n    tag_30:\n        /* \"Playground/Elevator.sol\":352:355  top */\n      0x00\n      dup1\n        /* \"Playground/Elevator.sol\":352:385  top = building.isLastFloor(floor) */\n      0x0100\n      exp\n      dup2\n      sload\n      dup2\n      0xff\n      mul\n      not\n      and\n      swap1\n      dup4\n      iszero\n      iszero\n      mul\n      or\n      swap1\n      sstore\n      pop\n        /* \"Playground/Elevator.sol\":286:392  if (! building.isLastFloor(_floor)) {... */\n    tag_25:\n        /* \"Playground/Elevator.sol\":233:396  {... */\n      pop\n        /* \"Playground/Elevator.sol\":199:396  function goTo(uint _floor) public {... */\n      pop\n      jump\t// out\n        /* \"Playground/Elevator.sol\":158:173  bool public top */\n    tag_15:\n      0x00\n      dup1\n      sload\n      swap1\n      0x0100\n      exp\n      swap1\n      div\n      0xff\n      and\n      dup2\n      jump\t// out\n        /* \"#utility.yul\":7:144   */\n    tag_32:\n        /* \"#utility.yul\":61:66   */\n      0x00\n        /* \"#utility.yul\":92:98   */\n      dup2\n        /* \"#utility.yul\":86:99   */\n      mload\n        /* \"#utility.yul\":77:99   */\n      swap1\n      pop\n        /* \"#utility.yul\":108:138   */\n      tag_34\n        /* \"#utility.yul\":132:137   */\n      dup2\n        /* \"#utility.yul\":108:138   */\n      tag_35\n      jump\t// in\n    tag_34:\n        /* \"#utility.yul\":7:144   */\n      swap3\n      swap2\n      pop\n      pop\n      jump\t// out\n        /* \"#utility.yul\":150:289   */\n    tag_36:\n        /* \"#utility.yul\":196:201   */\n      0x00\n        /* \"#utility.yul\":234:240   */\n      dup2\n        /* \"#utility.yul\":221:241   */\n      calldataload\n        /* \"#utility.yul\":212:241   */\n      swap1\n      pop\n        /* \"#utility.yul\":250:283   */\n      tag_38\n        /* \"#utility.yul\":277:282   */\n      dup2\n        /* \"#utility.yul\":250:283   */\n      tag_39\n      jump\t// in\n    tag_38:\n        /* \"#utility.yul\":150:289   */\n      swap3\n      swap2\n      pop\n      pop\n      jump\t// out\n        /* \"#utility.yul\":295:640   */\n    tag_24:\n        /* \"#utility.yul\":362:368   */\n      0x00\n        /* \"#utility.yul\":411:413   */\n      0x20\n        /* \"#utility.yul\":399:408   */\n      dup3\n        /* \"#utility.yul\":390:397   */\n      dup5\n        /* \"#utility.yul\":386:409   */\n      sub\n        /* \"#utility.yul\":382:414   */\n      slt\n        /* \"#utility.yul\":379:498   */\n      iszero\n      tag_41\n      jumpi\n        /* \"#utility.yul\":417:496   */\n      tag_42\n      tag_43\n      jump\t// in\n    tag_42:\n        /* \"#utility.yul\":379:498   */\n    tag_41:\n        /* \"#utility.yul\":537:538   */\n      0x00\n        /* \"#utility.yul\":562:623   */\n      tag_44\n        /* \"#utility.yul\":615:622   */\n      dup5\n        /* \"#utility.yul\":606:612   */\n      dup3\n        /* \"#utility.yul\":595:604   */\n      dup6\n        /* \"#utility.yul\":591:613   */\n      add\n        /* \"#utility.yul\":562:623   */\n      tag_32\n      jump\t// in\n    tag_44:\n        /* \"#utility.yul\":552:623   */\n      swap2\n      pop\n        /* \"#utility.yul\":508:633   */\n      pop\n        /* \"#utility.yul\":295:640   */\n      swap3\n      swap2\n      pop\n      pop\n      jump\t// out\n        /* \"#utility.yul\":646:975   */\n    tag_12:\n        /* \"#utility.yul\":705:711   */\n      0x00\n        /* \"#utility.yul\":754:756   */\n      0x20\n        /* \"#utility.yul\":742:751   */\n      dup3\n        /* \"#utility.yul\":733:740   */\n      dup5\n        /* \"#utility.yul\":729:752   */\n      sub\n        /* \"#utility.yul\":725:757   */\n      slt\n        /* \"#utility.yul\":722:841   */\n      iszero\n      tag_46\n      jumpi\n        /* \"#utility.yul\":760:839   */\n      tag_47\n      tag_43\n      jump\t// in\n    tag_47:\n        /* \"#utility.yul\":722:841   */\n    tag_46:\n        /* \"#utility.yul\":880:881   */\n      0x00\n        /* \"#utility.yul\":905:958   */\n      tag_48\n        /* \"#utility.yul\":950:957   */\n      dup5\n        /* \"#utility.yul\":941:947   */\n      dup3\n        /* \"#utility.yul\":930:939   */\n      dup6\n        /* \"#utility.yul\":926:948   */\n      add\n        /* \"#utility.yul\":905:958   */\n      tag_36\n      jump\t// in\n    tag_48:\n        /* \"#utility.yul\":895:958   */\n      swap2\n      pop\n        /* \"#utility.yul\":851:968   */\n      pop\n        /* \"#utility.yul\":646:975   */\n      swap3\n      swap2\n      pop\n      pop\n      jump\t// out\n        /* \"#utility.yul\":981:1090   */\n    tag_49:\n        /* \"#utility.yul\":1062:1083   */\n      tag_51\n        /* \"#utility.yul\":1077:1082   */\n      dup2\n        /* \"#utility.yul\":1062:1083   */\n      tag_52\n      jump\t// in\n    tag_51:\n        /* \"#utility.yul\":1057:1060   */\n      dup3\n        /* \"#utility.yul\":1050:1084   */\n      mstore\n        /* \"#utility.yul\":981:1090   */\n      pop\n      pop\n      jump\t// out\n        /* \"#utility.yul\":1096:1214   */\n    tag_53:\n        /* \"#utility.yul\":1183:1207   */\n      tag_55\n        /* \"#utility.yul\":1201:1206   */\n      dup2\n        /* \"#utility.yul\":1183:1207   */\n      tag_56\n      jump\t// in\n    tag_55:\n        /* \"#utility.yul\":1178:1181   */\n      dup3\n        /* \"#utility.yul\":1171:1208   */\n      mstore\n        /* \"#utility.yul\":1096:1214   */\n      pop\n      pop\n      jump\t// out\n        /* \"#utility.yul\":1220:1430   */\n    tag_17:\n        /* \"#utility.yul\":1307:1311   */\n      0x00\n        /* \"#utility.yul\":1345:1347   */\n      0x20\n        /* \"#utility.yul\":1334:1343   */\n      dup3\n        /* \"#utility.yul\":1330:1348   */\n      add\n        /* \"#utility.yul\":1322:1348   */\n      swap1\n      pop\n        /* \"#utility.yul\":1358:1423   */\n      tag_58\n        /* \"#utility.yul\":1420:1421   */\n      0x00\n        /* \"#utility.yul\":1409:1418   */\n      dup4\n        /* \"#utility.yul\":1405:1422   */\n      add\n        /* \"#utility.yul\":1396:1402   */\n      dup5\n        /* \"#utility.yul\":1358:1423   */\n      tag_49\n      jump\t// in\n    tag_58:\n        /* \"#utility.yul\":1220:1430   */\n      swap3\n      swap2\n      pop\n      pop\n      jump\t// out\n        /* \"#utility.yul\":1436:1658   */\n    tag_9:\n        /* \"#utility.yul\":1529:1533   */\n      0x00\n        /* \"#utility.yul\":1567:1569   */\n      0x20\n        /* \"#utility.yul\":1556:1565   */\n      dup3\n        /* \"#utility.yul\":1552:1570   */\n      add\n        /* \"#utility.yul\":1544:1570   */\n      swap1\n      pop\n        /* \"#utility.yul\":1580:1651   */\n      tag_60\n        /* \"#utility.yul\":1648:1649   */\n      0x00\n        /* \"#utility.yul\":1637:1646   */\n      dup4\n        /* \"#utility.yul\":1633:1650   */\n      add\n        /* \"#utility.yul\":1624:1630   */\n      dup5\n        /* \"#utility.yul\":1580:1651   */\n      tag_53\n      jump\t// in\n    tag_60:\n        /* \"#utility.yul\":1436:1658   */\n      swap3\n      swap2\n      pop\n      pop\n      jump\t// out\n        /* \"#utility.yul\":1745:1835   */\n    tag_52:\n        /* \"#utility.yul\":1779:1786   */\n      0x00\n        /* \"#utility.yul\":1822:1827   */\n      dup2\n        /* \"#utility.yul\":1815:1828   */\n      iszero\n        /* \"#utility.yul\":1808:1829   */\n      iszero\n        /* \"#utility.yul\":1797:1829   */\n      swap1\n      pop\n        /* \"#utility.yul\":1745:1835   */\n      swap2\n      swap1\n      pop\n      jump\t// out\n        /* \"#utility.yul\":1841:1918   */\n    tag_56:\n        /* \"#utility.yul\":1878:1885   */\n      0x00\n        /* \"#utility.yul\":1907:1912   */\n      dup2\n        /* \"#utility.yul\":1896:1912   */\n      swap1\n      pop\n        /* \"#utility.yul\":1841:1918   */\n      swap2\n      swap1\n      pop\n      jump\t// out\n        /* \"#utility.yul\":2047:2164   */\n    tag_43:\n        /* \"#utility.yul\":2156:2157   */\n      0x00\n        /* \"#utility.yul\":2153:2154   */\n      dup1\n        /* \"#utility.yul\":2146:2158   */\n      revert\n        /* \"#utility.yul\":2170:2286   */\n    tag_35:\n        /* \"#utility.yul\":2240:2261   */\n      tag_69\n        /* \"#utility.yul\":2255:2260   */\n      dup2\n        /* \"#utility.yul\":2240:2261   */\n      tag_52\n      jump\t// in\n    tag_69:\n        /* \"#utility.yul\":2233:2238   */\n      dup2\n        /* \"#utility.yul\":2230:2262   */\n      eq\n        /* \"#utility.yul\":2220:2280   */\n      tag_70\n      jumpi\n        /* \"#utility.yul\":2276:2277   */\n      0x00\n        /* \"#utility.yul\":2273:2274   */\n      dup1\n        /* \"#utility.yul\":2266:2278   */\n      revert\n        /* \"#utility.yul\":2220:2280   */\n    tag_70:\n        /* \"#utility.yul\":2170:2286   */\n      pop\n      jump\t// out\n        /* \"#utility.yul\":2292:2414   */\n    tag_39:\n        /* \"#utility.yul\":2365:2389   */\n      tag_72\n        /* \"#utility.yul\":2383:2388   */\n      dup2\n        /* \"#utility.yul\":2365:2389   */\n      tag_56\n      jump\t// in\n    tag_72:\n        /* \"#utility.yul\":2358:2363   */\n      dup2\n        /* \"#utility.yul\":2355:2390   */\n      eq\n        /* \"#utility.yul\":2345:2408   */\n      tag_73\n      jumpi\n        /* \"#utility.yul\":2404:2405   */\n      0x00\n        /* \"#utility.yul\":2401:2402   */\n      dup1\n        /* \"#utility.yul\":2394:2406   */\n      revert\n        /* \"#utility.yul\":2345:2408   */\n    tag_73:\n        /* \"#utility.yul\":2292:2414   */\n      pop\n      jump\t// out\n\n    auxdata: 0xa26469706673582212205668117567340c8ead1955d5d10dcc4288df5d61274f7ddbf17a48888d3dc16664736f6c63430008070033\n}\n",
				"bytecode": {
					"linkReferences": {},
					"object": "608060405234801561001057600080fd5b50610351806100206000396000f3fe608060405234801561001057600080fd5b50600436106100415760003560e01c80634069536314610046578063ed9a713414610064578063fe6dcdba14610080575b600080fd5b61004e61009e565b60405161005b91906102b7565b60405180910390f35b61007e60048036038101906100799190610251565b6100a4565b005b6100886101e9565b604051610095919061029c565b60405180910390f35b60015481565b60003390508073ffffffffffffffffffffffffffffffffffffffff16635f9a4bca836040518263ffffffff1660e01b81526004016100e291906102b7565b602060405180830381600087803b1580156100fc57600080fd5b505af1158015610110573d6000803e3d6000fd5b505050506040513d601f19601f820116820180604052508101906101349190610224565b6101e557816001819055508073ffffffffffffffffffffffffffffffffffffffff16635f9a4bca6001546040518263ffffffff1660e01b815260040161017a91906102b7565b602060405180830381600087803b15801561019457600080fd5b505af11580156101a8573d6000803e3d6000fd5b505050506040513d601f19601f820116820180604052508101906101cc9190610224565b6000806101000a81548160ff0219169083151502179055505b5050565b60008054906101000a900460ff1681565b600081519050610209816102ed565b92915050565b60008135905061021e81610304565b92915050565b60006020828403121561023a576102396102e8565b5b6000610248848285016101fa565b91505092915050565b600060208284031215610267576102666102e8565b5b60006102758482850161020f565b91505092915050565b610287816102d2565b82525050565b610296816102de565b82525050565b60006020820190506102b1600083018461027e565b92915050565b60006020820190506102cc600083018461028d565b92915050565b60008115159050919050565b6000819050919050565b600080fd5b6102f6816102d2565b811461030157600080fd5b50565b61030d816102de565b811461031857600080fd5b5056fea26469706673582212205668117567340c8ead1955d5d10dcc4288df5d61274f7ddbf17a48888d3dc16664736f6c63430008070033",
					"opcodes": "PUSH1 0x80 PUSH1 0x40 MSTORE CALLVALUE DUP1 ISZERO PUSH2 0x10 JUMPI PUSH1 0x0 DUP1 REVERT JUMPDEST POP PUSH2 0x351 DUP1 PUSH2 0x20 PUSH1 0x0 CODECOPY PUSH1 0x0 RETURN INVALID PUSH1 0x80 PUSH1 0x40 MSTORE CALLVALUE DUP1 ISZERO PUSH2 0x10 JUMPI PUSH1 0x0 DUP1 REVERT JUMPDEST POP PUSH1 0x4 CALLDATASIZE LT PUSH2 0x41 JUMPI PUSH1 0x0 CALLDATALOAD PUSH1 0xE0 SHR DUP1 PUSH4 0x40695363 EQ PUSH2 0x46 JUMPI DUP1 PUSH4 0xED9A7134 EQ PUSH2 0x64 JUMPI DUP1 PUSH4 0xFE6DCDBA EQ PUSH2 0x80 JUMPI JUMPDEST PUSH1 0x0 DUP1 REVERT JUMPDEST PUSH2 0x4E PUSH2 0x9E JUMP JUMPDEST PUSH1 0x40 MLOAD PUSH2 0x5B SWAP2 SWAP1 PUSH2 0x2B7 JUMP JUMPDEST PUSH1 0x40 MLOAD DUP1 SWAP2 SUB SWAP1 RETURN JUMPDEST PUSH2 0x7E PUSH1 0x4 DUP1 CALLDATASIZE SUB DUP2 ADD SWAP1 PUSH2 0x79 SWAP2 SWAP1 PUSH2 0x251 JUMP JUMPDEST PUSH2 0xA4 JUMP JUMPDEST STOP JUMPDEST PUSH2 0x88 PUSH2 0x1E9 JUMP JUMPDEST PUSH1 0x40 MLOAD PUSH2 0x95 SWAP2 SWAP1 PUSH2 0x29C JUMP JUMPDEST PUSH1 0x40 MLOAD DUP1 SWAP2 SUB SWAP1 RETURN JUMPDEST PUSH1 0x1 SLOAD DUP2 JUMP JUMPDEST PUSH1 0x0 CALLER SWAP1 POP DUP1 PUSH20 0xFFFFFFFFFFFFFFFFFFFFFFFFFFFFFFFFFFFFFFFF AND PUSH4 0x5F9A4BCA DUP4 PUSH1 0x40 MLOAD DUP3 PUSH4 0xFFFFFFFF AND PUSH1 0xE0 SHL DUP2 MSTORE PUSH1 0x4 ADD PUSH2 0xE2 SWAP2 SWAP1 PUSH2 0x2B7 JUMP JUMPDEST PUSH1 0x20 PUSH1 0x40 MLOAD DUP1 DUP4 SUB DUP2 PUSH1 0x0 DUP8 DUP1 EXTCODESIZE ISZERO DUP1 ISZERO PUSH2 0xFC JUMPI PUSH1 0x0 DUP1 REVERT JUMPDEST POP GAS CALL ISZERO DUP1 ISZERO PUSH2 0x110 JUMPI RETURNDATASIZE PUSH1 0x0 DUP1 RETURNDATACOPY RETURNDATASIZE PUSH1 0x0 REVERT JUMPDEST POP POP POP POP PUSH1 0x40 MLOAD RETURNDATASIZE PUSH1 0x1F NOT PUSH1 0x1F DUP3 ADD AND DUP3 ADD DUP1 PUSH1 0x40 MSTORE POP DUP2 ADD SWAP1 PUSH2 0x134 SWAP2 SWAP1 PUSH2 0x224 JUMP JUMPDEST PUSH2 0x1E5 JUMPI DUP2 PUSH1 0x1 DUP2 SWAP1 SSTORE POP DUP1 PUSH20 0xFFFFFFFFFFFFFFFFFFFFFFFFFFFFFFFFFFFFFFFF AND PUSH4 0x5F9A4BCA PUSH1 0x1 SLOAD PUSH1 0x40 MLOAD DUP3 PUSH4 0xFFFFFFFF AND PUSH1 0xE0 SHL DUP2 MSTORE PUSH1 0x4 ADD PUSH2 0x17A SWAP2 SWAP1 PUSH2 0x2B7 JUMP JUMPDEST PUSH1 0x20 PUSH1 0x40 MLOAD DUP1 DUP4 SUB DUP2 PUSH1 0x0 DUP8 DUP1 EXTCODESIZE ISZERO DUP1 ISZERO PUSH2 0x194 JUMPI PUSH1 0x0 DUP1 REVERT JUMPDEST POP GAS CALL ISZERO DUP1 ISZERO PUSH2 0x1A8 JUMPI RETURNDATASIZE PUSH1 0x0 DUP1 RETURNDATACOPY RETURNDATASIZE PUSH1 0x0 REVERT JUMPDEST POP POP POP POP PUSH1 0x40 MLOAD RETURNDATASIZE PUSH1 0x1F NOT PUSH1 0x1F DUP3 ADD AND DUP3 ADD DUP1 PUSH1 0x40 MSTORE POP DUP2 ADD SWAP1 PUSH2 0x1CC SWAP2 SWAP1 PUSH2 0x224 JUMP JUMPDEST PUSH1 0x0 DUP1 PUSH2 0x100 EXP DUP2 SLOAD DUP2 PUSH1 0xFF MUL NOT AND SWAP1 DUP4 ISZERO ISZERO MUL OR SWAP1 SSTORE POP JUMPDEST POP POP JUMP JUMPDEST PUSH1 0x0 DUP1 SLOAD SWAP1 PUSH2 0x100 EXP SWAP1 DIV PUSH1 0xFF AND DUP2 JUMP JUMPDEST PUSH1 0x0 DUP2 MLOAD SWAP1 POP PUSH2 0x209 DUP2 PUSH2 0x2ED JUMP JUMPDEST SWAP3 SWAP2 POP POP JUMP JUMPDEST PUSH1 0x0 DUP2 CALLDATALOAD SWAP1 POP PUSH2 0x21E DUP2 PUSH2 0x304 JUMP JUMPDEST SWAP3 SWAP2 POP POP JUMP JUMPDEST PUSH1 0x0 PUSH1 0x20 DUP3 DUP5 SUB SLT ISZERO PUSH2 0x23A JUMPI PUSH2 0x239 PUSH2 0x2E8 JUMP JUMPDEST JUMPDEST PUSH1 0x0 PUSH2 0x248 DUP5 DUP3 DUP6 ADD PUSH2 0x1FA JUMP JUMPDEST SWAP2 POP POP SWAP3 SWAP2 POP POP JUMP JUMPDEST PUSH1 0x0 PUSH1 0x20 DUP3 DUP5 SUB SLT ISZERO PUSH2 0x267 JUMPI PUSH2 0x266 PUSH2 0x2E8 JUMP JUMPDEST JUMPDEST PUSH1 0x0 PUSH2 0x275 DUP5 DUP3 DUP6 ADD PUSH2 0x20F JUMP JUMPDEST SWAP2 POP POP SWAP3 SWAP2 POP POP JUMP JUMPDEST PUSH2 0x287 DUP2 PUSH2 0x2D2 JUMP JUMPDEST DUP3 MSTORE POP POP JUMP JUMPDEST PUSH2 0x296 DUP2 PUSH2 0x2DE JUMP JUMPDEST DUP3 MSTORE POP POP JUMP JUMPDEST PUSH1 0x0 PUSH1 0x20 DUP3 ADD SWAP1 POP PUSH2 0x2B1 PUSH1 0x0 DUP4 ADD DUP5 PUSH2 0x27E JUMP JUMPDEST SWAP3 SWAP2 POP POP JUMP JUMPDEST PUSH1 0x0 PUSH1 0x20 DUP3 ADD SWAP1 POP PUSH2 0x2CC PUSH1 0x0 DUP4 ADD DUP5 PUSH2 0x28D JUMP JUMPDEST SWAP3 SWAP2 POP POP JUMP JUMPDEST PUSH1 0x0 DUP2 ISZERO ISZERO SWAP1 POP SWAP2 SWAP1 POP JUMP JUMPDEST PUSH1 0x0 DUP2 SWAP1 POP SWAP2 SWAP1 POP JUMP JUMPDEST PUSH1 0x0 DUP1 REVERT JUMPDEST PUSH2 0x2F6 DUP2 PUSH2 0x2D2 JUMP JUMPDEST DUP2 EQ PUSH2 0x301 JUMPI PUSH1 0x0 DUP1 REVERT JUMPDEST POP JUMP JUMPDEST PUSH2 0x30D DUP2 PUSH2 0x2DE JUMP JUMPDEST DUP2 EQ PUSH2 0x318 JUMPI PUSH1 0x0 DUP1 REVERT JUMPDEST POP JUMP INVALID LOG2 PUSH5 0x6970667358 0x22 SLT KECCAK256 JUMP PUSH9 0x117567340C8EAD1955 0xD5 0xD1 0xD 0xCC TIMESTAMP DUP9 0xDF 0x5D PUSH2 0x274F PUSH30 0xDBF17A48888D3DC16664736F6C6343000807003300000000000000000000 "
				},
				"gasEstimates": {
					"creation": {
						"codeDepositCost": "169800",
						"executionCost": "214",
						"totalCost": "170014"
					},
					"external": {
						"floor()": "2407",
						"goTo(uint256)": "infinite",
						"top()": "2490"
					}
				},
				"methodIdentifiers": {
					"floor()": "40695363",
					"goTo(uint256)": "ed9a7134",
					"top()": "fe6dcdba"
				}
			},
			"storageLayout": {
				"storage": [
					{
						"astId": 11,
						"contract": "Playground/Elevator.sol:Elevator",
						"label": "top",
						"offset": 0,
						"slot": "0",
						"type": "t_bool"
					},
					{
						"astId": 13,
						"contract": "Playground/Elevator.sol:Elevator",
						"label": "floor",
						"offset": 0,
						"slot": "1",
						"type": "t_uint256"
					}
				],
				"types": {
					"t_bool": {
						"encoding": "inplace",
						"label": "bool",
						"numberOfBytes": "1"
					},
					"t_uint256": {
						"encoding": "inplace",
						"label": "uint256",
						"numberOfBytes": "32"
					}
				}
			},
			"userdoc": {
				"kind": "user",
				"methods": {},
				"version": 1
			}
		}
	}
}