{
	"Playground/Shop.sol": {
		"Shop": {
			"abi": [
				{
					"inputs": [],
					"name": "buy",
					"outputs": [],
					"stateMutability": "nonpayable",
					"type": "function"
				},
				{
					"inputs": [],
					"name": "isSold",
					"outputs": [
						{
							"internalType": "bool",
							"name": "",
							"type": "bool"
						}
					],
					"stateMutability": "view",
					"type": "function"
				},
				{
					"inputs": [],
					"name": "price",
					"outputs": [
						{
							"internalType": "uint256",
							"name": "",
							"type": "uint256"
						}
					],
					"stateMutability": "view",
					"type": "function"
				}
			],
			"devdoc": {
				"kind": "dev",
				"methods": {},
				"version": 1
			},
			"evm": {
				"assembly": "    /* \"Playground/Shop.sol\":130:369  contract Shop {... */\n  mstore(0x40, 0x80)\n    /* \"Playground/Shop.sol\":168:171  100 */\n  0x64\n    /* \"Playground/Shop.sol\":148:171  uint public price = 100 */\n  0x00\n  sstore\n    /* \"Playground/Shop.sol\":130:369  contract Shop {... */\n  callvalue\n  dup1\n  iszero\n  tag_1\n  jumpi\n  0x00\n  dup1\n  revert\ntag_1:\n  pop\n  dataSize(sub_0)\n  dup1\n  dataOffset(sub_0)\n  0x00\n  codecopy\n  0x00\n  return\nstop\n\nsub_0: assembly {\n        /* \"Playground/Shop.sol\":130:369  contract Shop {... */\n      mstore(0x40, 0x80)\n      callvalue\n      dup1\n      iszero\n      tag_1\n      jumpi\n      0x00\n      dup1\n      revert\n    tag_1:\n      pop\n      jumpi(tag_2, lt(calldatasize, 0x04))\n      shr(0xe0, calldataload(0x00))\n      dup1\n      0xa035b1fe\n      eq\n      tag_3\n      jumpi\n      dup1\n      0xa6f2ae3a\n      eq\n      tag_4\n      jumpi\n      dup1\n      0xe852e741\n      eq\n      tag_5\n      jumpi\n    tag_2:\n      0x00\n      dup1\n      revert\n        /* \"Playground/Shop.sol\":148:171  uint public price = 100 */\n    tag_3:\n      tag_6\n      tag_7\n      jump\t// in\n    tag_6:\n      mload(0x40)\n      tag_8\n      swap2\n      swap1\n      tag_9\n      jump\t// in\n    tag_8:\n      mload(0x40)\n      dup1\n      swap2\n      sub\n      swap1\n      return\n        /* \"Playground/Shop.sol\":198:367  function buy() public {... */\n    tag_4:\n      tag_10\n      tag_11\n      jump\t// in\n    tag_10:\n      stop\n        /* \"Playground/Shop.sol\":175:193  bool public isSold */\n    tag_5:\n      tag_12\n      tag_13\n      jump\t// in\n    tag_12:\n      mload(0x40)\n      tag_14\n      swap2\n      swap1\n      tag_15\n      jump\t// in\n    tag_14:\n      mload(0x40)\n      dup1\n      swap2\n      sub\n      swap1\n      return\n        /* \"Playground/Shop.sol\":148:171  uint public price = 100 */\n    tag_7:\n      sload(0x00)\n      dup2\n      jump\t// out\n        /* \"Playground/Shop.sol\":198:367  function buy() public {... */\n    tag_11:\n        /* \"Playground/Shop.sol\":226:238  Buyer _buyer */\n      0x00\n        /* \"Playground/Shop.sol\":247:257  msg.sender */\n      caller\n        /* \"Playground/Shop.sol\":226:258  Buyer _buyer = Buyer(msg.sender) */\n      swap1\n      pop\n        /* \"Playground/Shop.sol\":287:292  price */\n      sload(0x00)\n        /* \"Playground/Shop.sol\":269:275  _buyer */\n      dup2\n        /* \"Playground/Shop.sol\":269:281  _buyer.price */\n      0xffffffffffffffffffffffffffffffffffffffff\n      and\n      0xa035b1fe\n        /* \"Playground/Shop.sol\":269:283  _buyer.price() */\n      mload(0x40)\n      dup2\n      0xffffffff\n      and\n      0xe0\n      shl\n      dup2\n      mstore\n      0x04\n      add\n      0x20\n      mload(0x40)\n      dup1\n      dup4\n      sub\n      dup2\n      dup7\n      dup1\n      extcodesize\n      iszero\n      dup1\n      iszero\n      tag_17\n      jumpi\n      0x00\n      dup1\n      revert\n    tag_17:\n      pop\n      gas\n      staticcall\n      iszero\n      dup1\n      iszero\n      tag_19\n      jumpi\n      returndatasize\n      0x00\n      dup1\n      returndatacopy\n      revert(0x00, returndatasize)\n    tag_19:\n      pop\n      pop\n      pop\n      pop\n      mload(0x40)\n      returndatasize\n      not(0x1f)\n      0x1f\n      dup3\n      add\n      and\n      dup3\n      add\n      dup1\n      0x40\n      mstore\n      pop\n      dup2\n      add\n      swap1\n      tag_20\n      swap2\n      swap1\n      tag_21\n      jump\t// in\n    tag_20:\n        /* \"Playground/Shop.sol\":269:292  _buyer.price() >= price */\n      lt\n      iszero\n        /* \"Playground/Shop.sol\":269:303  _buyer.price() >= price && !isSold */\n      dup1\n      iszero\n      tag_22\n      jumpi\n      pop\n        /* \"Playground/Shop.sol\":297:303  isSold */\n      0x01\n      0x00\n      swap1\n      sload\n      swap1\n      0x0100\n      exp\n      swap1\n      div\n      0xff\n      and\n        /* \"Playground/Shop.sol\":296:303  !isSold */\n      iszero\n        /* \"Playground/Shop.sol\":269:303  _buyer.price() >= price && !isSold */\n    tag_22:\n        /* \"Playground/Shop.sol\":265:363  if (_buyer.price() >= price && !isSold) {... */\n      iszero\n      tag_23\n      jumpi\n        /* \"Playground/Shop.sol\":322:326  true */\n      0x01\n        /* \"Playground/Shop.sol\":313:319  isSold */\n      dup1\n      0x00\n        /* \"Playground/Shop.sol\":313:326  isSold = true */\n      0x0100\n      exp\n      dup2\n      sload\n      dup2\n      0xff\n      mul\n      not\n      and\n      swap1\n      dup4\n      iszero\n      iszero\n      mul\n      or\n      swap1\n      sstore\n      pop\n        /* \"Playground/Shop.sol\":342:348  _buyer */\n      dup1\n        /* \"Playground/Shop.sol\":342:354  _buyer.price */\n      0xffffffffffffffffffffffffffffffffffffffff\n      and\n      0xa035b1fe\n        /* \"Playground/Shop.sol\":342:356  _buyer.price() */\n      mload(0x40)\n      dup2\n      0xffffffff\n      and\n      0xe0\n      shl\n      dup2\n      mstore\n      0x04\n      add\n      0x20\n      mload(0x40)\n      dup1\n      dup4\n      sub\n      dup2\n      dup7\n      dup1\n      extcodesize\n      iszero\n      dup1\n      iszero\n      tag_24\n      jumpi\n      0x00\n      dup1\n      revert\n    tag_24:\n      pop\n      gas\n      staticcall\n      iszero\n      dup1\n      iszero\n      tag_26\n      jumpi\n      returndatasize\n      0x00\n      dup1\n      returndatacopy\n      revert(0x00, returndatasize)\n    tag_26:\n      pop\n      pop\n      pop\n      pop\n      mload(0x40)\n      returndatasize\n      not(0x1f)\n      0x1f\n      dup3\n      add\n      and\n      dup3\n      add\n      dup1\n      0x40\n      mstore\n      pop\n      dup2\n      add\n      swap1\n      tag_27\n      swap2\n      swap1\n      tag_21\n      jump\t// in\n    tag_27:\n        /* \"Playground/Shop.sol\":334:339  price */\n      0x00\n        /* \"Playground/Shop.sol\":334:356  price = _buyer.price() */\n      dup2\n      swap1\n      sstore\n      pop\n        /* \"Playground/Shop.sol\":265:363  if (_buyer.price() >= price && !isSold) {... */\n    tag_23:\n        /* \"Playground/Shop.sol\":220:367  {... */\n      pop\n        /* \"Playground/Shop.sol\":198:367  function buy() public {... */\n      jump\t// out\n        /* \"Playground/Shop.sol\":175:193  bool public isSold */\n    tag_13:\n      0x01\n      0x00\n      swap1\n      sload\n      swap1\n      0x0100\n      exp\n      swap1\n      div\n      0xff\n      and\n      dup2\n      jump\t// out\n        /* \"#utility.yul\":7:150   */\n    tag_29:\n        /* \"#utility.yul\":64:69   */\n      0x00\n        /* \"#utility.yul\":95:101   */\n      dup2\n        /* \"#utility.yul\":89:102   */\n      mload\n        /* \"#utility.yul\":80:102   */\n      swap1\n      pop\n        /* \"#utility.yul\":111:144   */\n      tag_31\n        /* \"#utility.yul\":138:143   */\n      dup2\n        /* \"#utility.yul\":111:144   */\n      tag_32\n      jump\t// in\n    tag_31:\n        /* \"#utility.yul\":7:150   */\n      swap3\n      swap2\n      pop\n      pop\n      jump\t// out\n        /* \"#utility.yul\":156:507   */\n    tag_21:\n        /* \"#utility.yul\":226:232   */\n      0x00\n        /* \"#utility.yul\":275:277   */\n      0x20\n        /* \"#utility.yul\":263:272   */\n      dup3\n        /* \"#utility.yul\":254:261   */\n      dup5\n        /* \"#utility.yul\":250:273   */\n      sub\n        /* \"#utility.yul\":246:278   */\n      slt\n        /* \"#utility.yul\":243:362   */\n      iszero\n      tag_34\n      jumpi\n        /* \"#utility.yul\":281:360   */\n      tag_35\n      tag_36\n      jump\t// in\n    tag_35:\n        /* \"#utility.yul\":243:362   */\n    tag_34:\n        /* \"#utility.yul\":401:402   */\n      0x00\n        /* \"#utility.yul\":426:490   */\n      tag_37\n        /* \"#utility.yul\":482:489   */\n      dup5\n        /* \"#utility.yul\":473:479   */\n      dup3\n        /* \"#utility.yul\":462:471   */\n      dup6\n        /* \"#utility.yul\":458:480   */\n      add\n        /* \"#utility.yul\":426:490   */\n      tag_29\n      jump\t// in\n    tag_37:\n        /* \"#utility.yul\":416:490   */\n      swap2\n      pop\n        /* \"#utility.yul\":372:500   */\n      pop\n        /* \"#utility.yul\":156:507   */\n      swap3\n      swap2\n      pop\n      pop\n      jump\t// out\n        /* \"#utility.yul\":513:622   */\n    tag_38:\n        /* \"#utility.yul\":594:615   */\n      tag_40\n        /* \"#utility.yul\":609:614   */\n      dup2\n        /* \"#utility.yul\":594:615   */\n      tag_41\n      jump\t// in\n    tag_40:\n        /* \"#utility.yul\":589:592   */\n      dup3\n        /* \"#utility.yul\":582:616   */\n      mstore\n        /* \"#utility.yul\":513:622   */\n      pop\n      pop\n      jump\t// out\n        /* \"#utility.yul\":628:746   */\n    tag_42:\n        /* \"#utility.yul\":715:739   */\n      tag_44\n        /* \"#utility.yul\":733:738   */\n      dup2\n        /* \"#utility.yul\":715:739   */\n      tag_45\n      jump\t// in\n    tag_44:\n        /* \"#utility.yul\":710:713   */\n      dup3\n        /* \"#utility.yul\":703:740   */\n      mstore\n        /* \"#utility.yul\":628:746   */\n      pop\n      pop\n      jump\t// out\n        /* \"#utility.yul\":752:962   */\n    tag_15:\n        /* \"#utility.yul\":839:843   */\n      0x00\n        /* \"#utility.yul\":877:879   */\n      0x20\n        /* \"#utility.yul\":866:875   */\n      dup3\n        /* \"#utility.yul\":862:880   */\n      add\n        /* \"#utility.yul\":854:880   */\n      swap1\n      pop\n        /* \"#utility.yul\":890:955   */\n      tag_47\n        /* \"#utility.yul\":952:953   */\n      0x00\n        /* \"#utility.yul\":941:950   */\n      dup4\n        /* \"#utility.yul\":937:954   */\n      add\n        /* \"#utility.yul\":928:934   */\n      dup5\n        /* \"#utility.yul\":890:955   */\n      tag_38\n      jump\t// in\n    tag_47:\n        /* \"#utility.yul\":752:962   */\n      swap3\n      swap2\n      pop\n      pop\n      jump\t// out\n        /* \"#utility.yul\":968:1190   */\n    tag_9:\n        /* \"#utility.yul\":1061:1065   */\n      0x00\n        /* \"#utility.yul\":1099:1101   */\n      0x20\n        /* \"#utility.yul\":1088:1097   */\n      dup3\n        /* \"#utility.yul\":1084:1102   */\n      add\n        /* \"#utility.yul\":1076:1102   */\n      swap1\n      pop\n        /* \"#utility.yul\":1112:1183   */\n      tag_49\n        /* \"#utility.yul\":1180:1181   */\n      0x00\n        /* \"#utility.yul\":1169:1178   */\n      dup4\n        /* \"#utility.yul\":1165:1182   */\n      add\n        /* \"#utility.yul\":1156:1162   */\n      dup5\n        /* \"#utility.yul\":1112:1183   */\n      tag_42\n      jump\t// in\n    tag_49:\n        /* \"#utility.yul\":968:1190   */\n      swap3\n      swap2\n      pop\n      pop\n      jump\t// out\n        /* \"#utility.yul\":1277:1367   */\n    tag_41:\n        /* \"#utility.yul\":1311:1318   */\n      0x00\n        /* \"#utility.yul\":1354:1359   */\n      dup2\n        /* \"#utility.yul\":1347:1360   */\n      iszero\n        /* \"#utility.yul\":1340:1361   */\n      iszero\n        /* \"#utility.yul\":1329:1361   */\n      swap1\n      pop\n        /* \"#utility.yul\":1277:1367   */\n      swap2\n      swap1\n      pop\n      jump\t// out\n        /* \"#utility.yul\":1373:1450   */\n    tag_45:\n        /* \"#utility.yul\":1410:1417   */\n      0x00\n        /* \"#utility.yul\":1439:1444   */\n      dup2\n        /* \"#utility.yul\":1428:1444   */\n      swap1\n      pop\n        /* \"#utility.yul\":1373:1450   */\n      swap2\n      swap1\n      pop\n      jump\t// out\n        /* \"#utility.yul\":1579:1696   */\n    tag_36:\n        /* \"#utility.yul\":1688:1689   */\n      0x00\n        /* \"#utility.yul\":1685:1686   */\n      dup1\n        /* \"#utility.yul\":1678:1690   */\n      revert\n        /* \"#utility.yul\":1702:1824   */\n    tag_32:\n        /* \"#utility.yul\":1775:1799   */\n      tag_58\n        /* \"#utility.yul\":1793:1798   */\n      dup2\n        /* \"#utility.yul\":1775:1799   */\n      tag_45\n      jump\t// in\n    tag_58:\n        /* \"#utility.yul\":1768:1773   */\n      dup2\n        /* \"#utility.yul\":1765:1800   */\n      eq\n        /* \"#utility.yul\":1755:1818   */\n      tag_59\n      jumpi\n        /* \"#utility.yul\":1814:1815   */\n      0x00\n        /* \"#utility.yul\":1811:1812   */\n      dup1\n        /* \"#utility.yul\":1804:1816   */\n      revert\n        /* \"#utility.yul\":1755:1818   */\n    tag_59:\n        /* \"#utility.yul\":1702:1824   */\n      pop\n      jump\t// out\n\n    auxdata: 0xa2646970667358221220897e5f8304e741b90ff050ee5659627bd1278ec5dbdc7bc3ad5b289b8839942964736f6c63430008070033\n}\n",
				"bytecode": {
					"linkReferences": {},
					"object": "6080604052606460005534801561001557600080fd5b506102eb806100256000396000f3fe608060405234801561001057600080fd5b50600436106100415760003560e01c8063a035b1fe14610046578063a6f2ae3a14610064578063e852e7411461006e575b600080fd5b61004e61008c565b60405161005b9190610268565b60405180910390f35b61006c610092565b005b6100766101da565b604051610083919061024d565b60405180910390f35b60005481565b60003390506000548173ffffffffffffffffffffffffffffffffffffffff1663a035b1fe6040518163ffffffff1660e01b815260040160206040518083038186803b1580156100e057600080fd5b505afa1580156100f4573d6000803e3d6000fd5b505050506040513d601f19601f820116820180604052508101906101189190610202565b101580156101335750600160009054906101000a900460ff16155b156101d75760018060006101000a81548160ff0219169083151502179055508073ffffffffffffffffffffffffffffffffffffffff1663a035b1fe6040518163ffffffff1660e01b815260040160206040518083038186803b15801561019857600080fd5b505afa1580156101ac573d6000803e3d6000fd5b505050506040513d601f19601f820116820180604052508101906101d09190610202565b6000819055505b50565b600160009054906101000a900460ff1681565b6000815190506101fc8161029e565b92915050565b60006020828403121561021857610217610299565b5b6000610226848285016101ed565b91505092915050565b61023881610283565b82525050565b6102478161028f565b82525050565b6000602082019050610262600083018461022f565b92915050565b600060208201905061027d600083018461023e565b92915050565b60008115159050919050565b6000819050919050565b600080fd5b6102a78161028f565b81146102b257600080fd5b5056fea2646970667358221220897e5f8304e741b90ff050ee5659627bd1278ec5dbdc7bc3ad5b289b8839942964736f6c63430008070033",
					"opcodes": "PUSH1 0x80 PUSH1 0x40 MSTORE PUSH1 0x64 PUSH1 0x0 SSTORE CALLVALUE DUP1 ISZERO PUSH2 0x15 JUMPI PUSH1 0x0 DUP1 REVERT JUMPDEST POP PUSH2 0x2EB DUP1 PUSH2 0x25 PUSH1 0x0 CODECOPY PUSH1 0x0 RETURN INVALID PUSH1 0x80 PUSH1 0x40 MSTORE CALLVALUE DUP1 ISZERO PUSH2 0x10 JUMPI PUSH1 0x0 DUP1 REVERT JUMPDEST POP PUSH1 0x4 CALLDATASIZE LT PUSH2 0x41 JUMPI PUSH1 0x0 CALLDATALOAD PUSH1 0xE0 SHR DUP1 PUSH4 0xA035B1FE EQ PUSH2 0x46 JUMPI DUP1 PUSH4 0xA6F2AE3A EQ PUSH2 0x64 JUMPI DUP1 PUSH4 0xE852E741 EQ PUSH2 0x6E JUMPI JUMPDEST PUSH1 0x0 DUP1 REVERT JUMPDEST PUSH2 0x4E PUSH2 0x8C JUMP JUMPDEST PUSH1 0x40 MLOAD PUSH2 0x5B SWAP2 SWAP1 PUSH2 0x268 JUMP JUMPDEST PUSH1 0x40 MLOAD DUP1 SWAP2 SUB SWAP1 RETURN JUMPDEST PUSH2 0x6C PUSH2 0x92 JUMP JUMPDEST STOP JUMPDEST PUSH2 0x76 PUSH2 0x1DA JUMP JUMPDEST PUSH1 0x40 MLOAD PUSH2 0x83 SWAP2 SWAP1 PUSH2 0x24D JUMP JUMPDEST PUSH1 0x40 MLOAD DUP1 SWAP2 SUB SWAP1 RETURN JUMPDEST PUSH1 0x0 SLOAD DUP2 JUMP JUMPDEST PUSH1 0x0 CALLER SWAP1 POP PUSH1 0x0 SLOAD DUP2 PUSH20 0xFFFFFFFFFFFFFFFFFFFFFFFFFFFFFFFFFFFFFFFF AND PUSH4 0xA035B1FE PUSH1 0x40 MLOAD DUP2 PUSH4 0xFFFFFFFF AND PUSH1 0xE0 SHL DUP2 MSTORE PUSH1 0x4 ADD PUSH1 0x20 PUSH1 0x40 MLOAD DUP1 DUP4 SUB DUP2 DUP7 DUP1 EXTCODESIZE ISZERO DUP1 ISZERO PUSH2 0xE0 JUMPI PUSH1 0x0 DUP1 REVERT JUMPDEST POP GAS STATICCALL ISZERO DUP1 ISZERO PUSH2 0xF4 JUMPI RETURNDATASIZE PUSH1 0x0 DUP1 RETURNDATACOPY RETURNDATASIZE PUSH1 0x0 REVERT JUMPDEST POP POP POP POP PUSH1 0x40 MLOAD RETURNDATASIZE PUSH1 0x1F NOT PUSH1 0x1F DUP3 ADD AND DUP3 ADD DUP1 PUSH1 0x40 MSTORE POP DUP2 ADD SWAP1 PUSH2 0x118 SWAP2 SWAP1 PUSH2 0x202 JUMP JUMPDEST LT ISZERO DUP1 ISZERO PUSH2 0x133 JUMPI POP PUSH1 0x1 PUSH1 0x0 SWAP1 SLOAD SWAP1 PUSH2 0x100 EXP SWAP1 DIV PUSH1 0xFF AND ISZERO JUMPDEST ISZERO PUSH2 0x1D7 JUMPI PUSH1 0x1 DUP1 PUSH1 0x0 PUSH2 0x100 EXP DUP2 SLOAD DUP2 PUSH1 0xFF MUL NOT AND SWAP1 DUP4 ISZERO ISZERO MUL OR SWAP1 SSTORE POP DUP1 PUSH20 0xFFFFFFFFFFFFFFFFFFFFFFFFFFFFFFFFFFFFFFFF AND PUSH4 0xA035B1FE PUSH1 0x40 MLOAD DUP2 PUSH4 0xFFFFFFFF AND PUSH1 0xE0 SHL DUP2 MSTORE PUSH1 0x4 ADD PUSH1 0x20 PUSH1 0x40 MLOAD DUP1 DUP4 SUB DUP2 DUP7 DUP1 EXTCODESIZE ISZERO DUP1 ISZERO PUSH2 0x198 JUMPI PUSH1 0x0 DUP1 REVERT JUMPDEST POP GAS STATICCALL ISZERO DUP1 ISZERO PUSH2 0x1AC JUMPI RETURNDATASIZE PUSH1 0x0 DUP1 RETURNDATACOPY RETURNDATASIZE PUSH1 0x0 REVERT JUMPDEST POP POP POP POP PUSH1 0x40 MLOAD RETURNDATASIZE PUSH1 0x1F NOT PUSH1 0x1F DUP3 ADD AND DUP3 ADD DUP1 PUSH1 0x40 MSTORE POP DUP2 ADD SWAP1 PUSH2 0x1D0 SWAP2 SWAP1 PUSH2 0x202 JUMP JUMPDEST PUSH1 0x0 DUP2 SWAP1 SSTORE POP JUMPDEST POP JUMP JUMPDEST PUSH1 0x1 PUSH1 0x0 SWAP1 SLOAD SWAP1 PUSH2 0x100 EXP SWAP1 DIV PUSH1 0xFF AND DUP2 JUMP JUMPDEST PUSH1 0x0 DUP2 MLOAD SWAP1 POP PUSH2 0x1FC DUP2 PUSH2 0x29E JUMP JUMPDEST SWAP3 SWAP2 POP POP JUMP JUMPDEST PUSH1 0x0 PUSH1 0x20 DUP3 DUP5 SUB SLT ISZERO PUSH2 0x218 JUMPI PUSH2 0x217 PUSH2 0x299 JUMP JUMPDEST JUMPDEST PUSH1 0x0 PUSH2 0x226 DUP5 DUP3 DUP6 ADD PUSH2 0x1ED JUMP JUMPDEST SWAP2 POP POP SWAP3 SWAP2 POP POP JUMP JUMPDEST PUSH2 0x238 DUP2 PUSH2 0x283 JUMP JUMPDEST DUP3 MSTORE POP POP JUMP JUMPDEST PUSH2 0x247 DUP2 PUSH2 0x28F JUMP JUMPDEST DUP3 MSTORE POP POP JUMP JUMPDEST PUSH1 0x0 PUSH1 0x20 DUP3 ADD SWAP1 POP PUSH2 0x262 PUSH1 0x0 DUP4 ADD DUP5 PUSH2 0x22F JUMP JUMPDEST SWAP3 SWAP2 POP POP JUMP JUMPDEST PUSH1 0x0 PUSH1 0x20 DUP3 ADD SWAP1 POP PUSH2 0x27D PUSH1 0x0 DUP4 ADD DUP5 PUSH2 0x23E JUMP JUMPDEST SWAP3 SWAP2 POP POP JUMP JUMPDEST PUSH1 0x0 DUP2 ISZERO ISZERO SWAP1 POP SWAP2 SWAP1 POP JUMP JUMPDEST PUSH1 0x0 DUP2 SWAP1 POP SWAP2 SWAP1 POP JUMP JUMPDEST PUSH1 0x0 DUP1 REVERT JUMPDEST PUSH2 0x2A7 DUP2 PUSH2 0x28F JUMP JUMPDEST DUP2 EQ PUSH2 0x2B2 JUMPI PUSH1 0x0 DUP1 REVERT JUMPDEST POP JUMP INVALID LOG2 PUSH5 0x6970667358 0x22 SLT KECCAK256 DUP10 PUSH31 0x5F8304E741B90FF050EE5659627BD1278EC5DBDC7BC3AD5B289B8839942964 PUSH20 0x6F6C634300080700330000000000000000000000 "
				},
				"gasEstimates": {
					"creation": {
						"codeDepositCost": "149400",
						"executionCost": "22302",
						"totalCost": "171702"
					},
					"external": {
						"buy()": "infinite",
						"isSold()": "2493",
						"price()": "2407"
					}
				},
				"methodIdentifiers": {
					"buy()": "a6f2ae3a",
					"isSold()": "e852e741",
					"price()": "a035b1fe"
				}
			},
			"storageLayout": {
				"storage": [
					{
						"astId": 10,
						"contract": "Playground/Shop.sol:Shop",
						"label": "price",
						"offset": 0,
						"slot": "0",
						"type": "t_uint256"
					},
					{
						"astId": 12,
						"contract": "Playground/Shop.sol:Shop",
						"label": "isSold",
						"offset": 0,
						"slot": "1",
						"type": "t_bool"
					}
				],
				"types": {
					"t_bool": {
						"encoding": "inplace",
						"label": "bool",
						"numberOfBytes": "1"
					},
					"t_uint256": {
						"encoding": "inplace",
						"label": "uint256",
						"numberOfBytes": "32"
					}
				}
			},
			"userdoc": {
				"kind": "user",
				"methods": {},
				"version": 1
			}
		}
	}
}