{
	"Playground/ShopSolver.sol": {
		"Buyer": {
			"abi": [
				{
					"inputs": [
						{
							"internalType": "address",
							"name": "_addr",
							"type": "address"
						}
					],
					"name": "callShop",
					"outputs": [],
					"stateMutability": "nonpayable",
					"type": "function"
				},
				{
					"inputs": [],
					"name": "callShopTwo",
					"outputs": [],
					"stateMutability": "nonpayable",
					"type": "function"
				},
				{
					"inputs": [],
					"name": "price",
					"outputs": [
						{
							"internalType": "uint256",
							"name": "",
							"type": "uint256"
						}
					],
					"stateMutability": "view",
					"type": "function"
				},
				{
					"inputs": [],
					"name": "returnIsSold",
					"outputs": [
						{
							"internalType": "bool",
							"name": "",
							"type": "bool"
						}
					],
					"stateMutability": "view",
					"type": "function"
				},
				{
					"inputs": [],
					"name": "shoppy",
					"outputs": [
						{
							"internalType": "address",
							"name": "",
							"type": "address"
						}
					],
					"stateMutability": "view",
					"type": "function"
				},
				{
					"inputs": [],
					"name": "toggle",
					"outputs": [
						{
							"internalType": "bool",
							"name": "",
							"type": "bool"
						}
					],
					"stateMutability": "view",
					"type": "function"
				}
			],
			"devdoc": {
				"kind": "dev",
				"methods": {},
				"version": 1
			},
			"evm": {
				"assembly": "    /* \"Playground/ShopSolver.sol\":156:809  contract Buyer {... */\n  mstore(0x40, 0x80)\n    /* \"Playground/ShopSolver.sol\":198:240  0x808E30F5A641E756Ae0a46917493b2Dc3637f808 */\n  0x808e30f5a641e756ae0a46917493b2dc3637f808\n    /* \"Playground/ShopSolver.sol\":174:240  address public shoppy = 0x808E30F5A641E756Ae0a46917493b2Dc3637f808 */\n  0x00\n  dup1\n  0x0100\n  exp\n  dup2\n  sload\n  dup2\n  0xffffffffffffffffffffffffffffffffffffffff\n  mul\n  not\n  and\n  swap1\n  dup4\n  0xffffffffffffffffffffffffffffffffffffffff\n  and\n  mul\n  or\n  swap1\n  sstore\n  pop\n    /* \"Playground/ShopSolver.sol\":263:267  true */\n  0x01\n    /* \"Playground/ShopSolver.sol\":242:267  bool public toggle = true */\n  0x00\n  exp(0x0100, 0x14)\n  dup2\n  sload\n  dup2\n  0xff\n  mul\n  not\n  and\n  swap1\n  dup4\n  iszero\n  iszero\n  mul\n  or\n  swap1\n  sstore\n  pop\n    /* \"Playground/ShopSolver.sol\":156:809  contract Buyer {... */\n  callvalue\n  dup1\n  iszero\n  tag_1\n  jumpi\n  0x00\n  dup1\n  revert\ntag_1:\n  pop\n  dataSize(sub_0)\n  dup1\n  dataOffset(sub_0)\n  0x00\n  codecopy\n  0x00\n  return\nstop\n\nsub_0: assembly {\n        /* \"Playground/ShopSolver.sol\":156:809  contract Buyer {... */\n      mstore(0x40, 0x80)\n      callvalue\n      dup1\n      iszero\n      tag_1\n      jumpi\n      0x00\n      dup1\n      revert\n    tag_1:\n      pop\n      jumpi(tag_2, lt(calldatasize, 0x04))\n      shr(0xe0, calldataload(0x00))\n      dup1\n      0x1cb2dab5\n      eq\n      tag_3\n      jumpi\n      dup1\n      0x40a3d246\n      eq\n      tag_4\n      jumpi\n      dup1\n      0x4ee83d84\n      eq\n      tag_5\n      jumpi\n      dup1\n      0xa035b1fe\n      eq\n      tag_6\n      jumpi\n      dup1\n      0xba4708cb\n      eq\n      tag_7\n      jumpi\n      dup1\n      0xfdbfbff6\n      eq\n      tag_8\n      jumpi\n    tag_2:\n      0x00\n      dup1\n      revert\n        /* \"Playground/ShopSolver.sol\":672:794  function returnIsSold() public view returns (bool) {... */\n    tag_3:\n      tag_9\n      tag_10\n      jump\t// in\n    tag_9:\n      mload(0x40)\n      tag_11\n      swap2\n      swap1\n      tag_12\n      jump\t// in\n    tag_11:\n      mload(0x40)\n      dup1\n      swap2\n      sub\n      swap1\n      return\n        /* \"Playground/ShopSolver.sol\":242:267  bool public toggle = true */\n    tag_4:\n      tag_13\n      tag_14\n      jump\t// in\n    tag_13:\n      mload(0x40)\n      tag_15\n      swap2\n      swap1\n      tag_12\n      jump\t// in\n    tag_15:\n      mload(0x40)\n      dup1\n      swap2\n      sub\n      swap1\n      return\n        /* \"Playground/ShopSolver.sol\":469:569  function callShop(address _addr) public {... */\n    tag_5:\n      tag_16\n      0x04\n      dup1\n      calldatasize\n      sub\n      dup2\n      add\n      swap1\n      tag_17\n      swap2\n      swap1\n      tag_18\n      jump\t// in\n    tag_17:\n      tag_19\n      jump\t// in\n    tag_16:\n      stop\n        /* \"Playground/ShopSolver.sol\":275:463  function price() public view returns (uint) {... */\n    tag_6:\n      tag_20\n      tag_21\n      jump\t// in\n    tag_20:\n      mload(0x40)\n      tag_22\n      swap2\n      swap1\n      tag_23\n      jump\t// in\n    tag_22:\n      mload(0x40)\n      dup1\n      swap2\n      sub\n      swap1\n      return\n        /* \"Playground/ShopSolver.sol\":174:240  address public shoppy = 0x808E30F5A641E756Ae0a46917493b2Dc3637f808 */\n    tag_7:\n      tag_24\n      tag_25\n      jump\t// in\n    tag_24:\n      mload(0x40)\n      tag_26\n      swap2\n      swap1\n      tag_27\n      jump\t// in\n    tag_26:\n      mload(0x40)\n      dup1\n      swap2\n      sub\n      swap1\n      return\n        /* \"Playground/ShopSolver.sol\":575:666  function callShopTwo() public {... */\n    tag_8:\n      tag_28\n      tag_29\n      jump\t// in\n    tag_28:\n      stop\n        /* \"Playground/ShopSolver.sol\":672:794  function returnIsSold() public view returns (bool) {... */\n    tag_10:\n        /* \"Playground/ShopSolver.sol\":717:721  bool */\n      0x00\n        /* \"Playground/ShopSolver.sol\":733:742  Shop shop */\n      dup1\n        /* \"Playground/ShopSolver.sol\":750:756  shoppy */\n      0x00\n      dup1\n      sload\n      swap1\n      0x0100\n      exp\n      swap1\n      div\n      0xffffffffffffffffffffffffffffffffffffffff\n      and\n        /* \"Playground/ShopSolver.sol\":733:757  Shop shop = Shop(shoppy) */\n      swap1\n      pop\n        /* \"Playground/ShopSolver.sol\":774:778  shop */\n      dup1\n        /* \"Playground/ShopSolver.sol\":774:785  shop.isSold */\n      0xffffffffffffffffffffffffffffffffffffffff\n      and\n      0xe852e741\n        /* \"Playground/ShopSolver.sol\":774:787  shop.isSold() */\n      mload(0x40)\n      dup2\n      0xffffffff\n      and\n      0xe0\n      shl\n      dup2\n      mstore\n      0x04\n      add\n      0x20\n      mload(0x40)\n      dup1\n      dup4\n      sub\n      dup2\n      dup7\n      dup1\n      extcodesize\n      iszero\n      dup1\n      iszero\n      tag_31\n      jumpi\n      0x00\n      dup1\n      revert\n    tag_31:\n      pop\n      gas\n      staticcall\n      iszero\n      dup1\n      iszero\n      tag_33\n      jumpi\n      returndatasize\n      0x00\n      dup1\n      returndatacopy\n      revert(0x00, returndatasize)\n    tag_33:\n      pop\n      pop\n      pop\n      pop\n      mload(0x40)\n      returndatasize\n      not(0x1f)\n      0x1f\n      dup3\n      add\n      and\n      dup3\n      add\n      dup1\n      0x40\n      mstore\n      pop\n      dup2\n      add\n      swap1\n      tag_34\n      swap2\n      swap1\n      tag_35\n      jump\t// in\n    tag_34:\n        /* \"Playground/ShopSolver.sol\":767:787  return shop.isSold() */\n      swap2\n      pop\n      pop\n        /* \"Playground/ShopSolver.sol\":672:794  function returnIsSold() public view returns (bool) {... */\n      swap1\n      jump\t// out\n        /* \"Playground/ShopSolver.sol\":242:267  bool public toggle = true */\n    tag_14:\n      0x00\n      0x14\n      swap1\n      sload\n      swap1\n      0x0100\n      exp\n      swap1\n      div\n      0xff\n      and\n      dup2\n      jump\t// out\n        /* \"Playground/ShopSolver.sol\":469:569  function callShop(address _addr) public {... */\n    tag_19:\n        /* \"Playground/ShopSolver.sol\":519:528  Shop shop */\n      0x00\n        /* \"Playground/ShopSolver.sol\":536:541  _addr */\n      dup2\n        /* \"Playground/ShopSolver.sol\":519:542  Shop shop = Shop(_addr) */\n      swap1\n      pop\n        /* \"Playground/ShopSolver.sol\":552:556  shop */\n      dup1\n        /* \"Playground/ShopSolver.sol\":552:560  shop.buy */\n      0xffffffffffffffffffffffffffffffffffffffff\n      and\n      0xa6f2ae3a\n        /* \"Playground/ShopSolver.sol\":552:562  shop.buy() */\n      mload(0x40)\n      dup2\n      0xffffffff\n      and\n      0xe0\n      shl\n      dup2\n      mstore\n      0x04\n      add\n      0x00\n      mload(0x40)\n      dup1\n      dup4\n      sub\n      dup2\n      0x00\n      dup8\n      dup1\n      extcodesize\n      iszero\n      dup1\n      iszero\n      tag_37\n      jumpi\n      0x00\n      dup1\n      revert\n    tag_37:\n      pop\n      gas\n      call\n      iszero\n      dup1\n      iszero\n      tag_39\n      jumpi\n      returndatasize\n      0x00\n      dup1\n      returndatacopy\n      revert(0x00, returndatasize)\n    tag_39:\n      pop\n      pop\n      pop\n      pop\n        /* \"Playground/ShopSolver.sol\":509:569  {... */\n      pop\n        /* \"Playground/ShopSolver.sol\":469:569  function callShop(address _addr) public {... */\n      pop\n      jump\t// out\n        /* \"Playground/ShopSolver.sol\":275:463  function price() public view returns (uint) {... */\n    tag_21:\n        /* \"Playground/ShopSolver.sol\":313:317  uint */\n      0x00\n        /* \"Playground/ShopSolver.sol\":328:337  Shop shop */\n      dup1\n        /* \"Playground/ShopSolver.sol\":345:351  shoppy */\n      0x00\n      dup1\n      sload\n      swap1\n      0x0100\n      exp\n      swap1\n      div\n      0xffffffffffffffffffffffffffffffffffffffff\n      and\n        /* \"Playground/ShopSolver.sol\":328:352  Shop shop = Shop(shoppy) */\n      swap1\n      pop\n        /* \"Playground/ShopSolver.sol\":368:372  shop */\n      dup1\n        /* \"Playground/ShopSolver.sol\":368:379  shop.isSold */\n      0xffffffffffffffffffffffffffffffffffffffff\n      and\n      0xe852e741\n        /* \"Playground/ShopSolver.sol\":368:381  shop.isSold() */\n      mload(0x40)\n      dup2\n      0xffffffff\n      and\n      0xe0\n      shl\n      dup2\n      mstore\n      0x04\n      add\n      0x20\n      mload(0x40)\n      dup1\n      dup4\n      sub\n      dup2\n      dup7\n      dup1\n      extcodesize\n      iszero\n      dup1\n      iszero\n      tag_41\n      jumpi\n      0x00\n      dup1\n      revert\n    tag_41:\n      pop\n      gas\n      staticcall\n      iszero\n      dup1\n      iszero\n      tag_43\n      jumpi\n      returndatasize\n      0x00\n      dup1\n      returndatacopy\n      revert(0x00, returndatasize)\n    tag_43:\n      pop\n      pop\n      pop\n      pop\n      mload(0x40)\n      returndatasize\n      not(0x1f)\n      0x1f\n      dup3\n      add\n      and\n      dup3\n      add\n      dup1\n      0x40\n      mstore\n      pop\n      dup2\n      add\n      swap1\n      tag_44\n      swap2\n      swap1\n      tag_35\n      jump\t// in\n    tag_44:\n        /* \"Playground/ShopSolver.sol\":363:457  if (!shop.isSold()) {... */\n      tag_45\n      jumpi\n        /* \"Playground/ShopSolver.sol\":404:407  100 */\n      0x64\n        /* \"Playground/ShopSolver.sol\":397:407  return 100 */\n      swap2\n      pop\n      pop\n      jump(tag_40)\n        /* \"Playground/ShopSolver.sol\":363:457  if (!shop.isSold()) {... */\n    tag_45:\n        /* \"Playground/ShopSolver.sol\":445:446  1 */\n      0x01\n        /* \"Playground/ShopSolver.sol\":438:446  return 1 */\n      swap2\n      pop\n      pop\n        /* \"Playground/ShopSolver.sol\":275:463  function price() public view returns (uint) {... */\n    tag_40:\n      swap1\n      jump\t// out\n        /* \"Playground/ShopSolver.sol\":174:240  address public shoppy = 0x808E30F5A641E756Ae0a46917493b2Dc3637f808 */\n    tag_25:\n      0x00\n      dup1\n      sload\n      swap1\n      0x0100\n      exp\n      swap1\n      div\n      0xffffffffffffffffffffffffffffffffffffffff\n      and\n      dup2\n      jump\t// out\n        /* \"Playground/ShopSolver.sol\":575:666  function callShopTwo() public {... */\n    tag_29:\n        /* \"Playground/ShopSolver.sol\":615:624  Shop shop */\n      0x00\n        /* \"Playground/ShopSolver.sol\":632:638  shoppy */\n      dup1\n      0x00\n      swap1\n      sload\n      swap1\n      0x0100\n      exp\n      swap1\n      div\n      0xffffffffffffffffffffffffffffffffffffffff\n      and\n        /* \"Playground/ShopSolver.sol\":615:639  Shop shop = Shop(shoppy) */\n      swap1\n      pop\n        /* \"Playground/ShopSolver.sol\":649:653  shop */\n      dup1\n        /* \"Playground/ShopSolver.sol\":649:657  shop.buy */\n      0xffffffffffffffffffffffffffffffffffffffff\n      and\n      0xa6f2ae3a\n        /* \"Playground/ShopSolver.sol\":649:659  shop.buy() */\n      mload(0x40)\n      dup2\n      0xffffffff\n      and\n      0xe0\n      shl\n      dup2\n      mstore\n      0x04\n      add\n      0x00\n      mload(0x40)\n      dup1\n      dup4\n      sub\n      dup2\n      0x00\n      dup8\n      dup1\n      extcodesize\n      iszero\n      dup1\n      iszero\n      tag_48\n      jumpi\n      0x00\n      dup1\n      revert\n    tag_48:\n      pop\n      gas\n      call\n      iszero\n      dup1\n      iszero\n      tag_50\n      jumpi\n      returndatasize\n      0x00\n      dup1\n      returndatacopy\n      revert(0x00, returndatasize)\n    tag_50:\n      pop\n      pop\n      pop\n      pop\n        /* \"Playground/ShopSolver.sol\":605:666  {... */\n      pop\n        /* \"Playground/ShopSolver.sol\":575:666  function callShopTwo() public {... */\n      jump\t// out\n        /* \"#utility.yul\":7:146   */\n    tag_52:\n        /* \"#utility.yul\":53:58   */\n      0x00\n        /* \"#utility.yul\":91:97   */\n      dup2\n        /* \"#utility.yul\":78:98   */\n      calldataload\n        /* \"#utility.yul\":69:98   */\n      swap1\n      pop\n        /* \"#utility.yul\":107:140   */\n      tag_54\n        /* \"#utility.yul\":134:139   */\n      dup2\n        /* \"#utility.yul\":107:140   */\n      tag_55\n      jump\t// in\n    tag_54:\n        /* \"#utility.yul\":7:146   */\n      swap3\n      swap2\n      pop\n      pop\n      jump\t// out\n        /* \"#utility.yul\":152:289   */\n    tag_56:\n        /* \"#utility.yul\":206:211   */\n      0x00\n        /* \"#utility.yul\":237:243   */\n      dup2\n        /* \"#utility.yul\":231:244   */\n      mload\n        /* \"#utility.yul\":222:244   */\n      swap1\n      pop\n        /* \"#utility.yul\":253:283   */\n      tag_58\n        /* \"#utility.yul\":277:282   */\n      dup2\n        /* \"#utility.yul\":253:283   */\n      tag_59\n      jump\t// in\n    tag_58:\n        /* \"#utility.yul\":152:289   */\n      swap3\n      swap2\n      pop\n      pop\n      jump\t// out\n        /* \"#utility.yul\":295:624   */\n    tag_18:\n        /* \"#utility.yul\":354:360   */\n      0x00\n        /* \"#utility.yul\":403:405   */\n      0x20\n        /* \"#utility.yul\":391:400   */\n      dup3\n        /* \"#utility.yul\":382:389   */\n      dup5\n        /* \"#utility.yul\":378:401   */\n      sub\n        /* \"#utility.yul\":374:406   */\n      slt\n        /* \"#utility.yul\":371:490   */\n      iszero\n      tag_61\n      jumpi\n        /* \"#utility.yul\":409:488   */\n      tag_62\n      tag_63\n      jump\t// in\n    tag_62:\n        /* \"#utility.yul\":371:490   */\n    tag_61:\n        /* \"#utility.yul\":529:530   */\n      0x00\n        /* \"#utility.yul\":554:607   */\n      tag_64\n        /* \"#utility.yul\":599:606   */\n      dup5\n        /* \"#utility.yul\":590:596   */\n      dup3\n        /* \"#utility.yul\":579:588   */\n      dup6\n        /* \"#utility.yul\":575:597   */\n      add\n        /* \"#utility.yul\":554:607   */\n      tag_52\n      jump\t// in\n    tag_64:\n        /* \"#utility.yul\":544:607   */\n      swap2\n      pop\n        /* \"#utility.yul\":500:617   */\n      pop\n        /* \"#utility.yul\":295:624   */\n      swap3\n      swap2\n      pop\n      pop\n      jump\t// out\n        /* \"#utility.yul\":630:975   */\n    tag_35:\n        /* \"#utility.yul\":697:703   */\n      0x00\n        /* \"#utility.yul\":746:748   */\n      0x20\n        /* \"#utility.yul\":734:743   */\n      dup3\n        /* \"#utility.yul\":725:732   */\n      dup5\n        /* \"#utility.yul\":721:744   */\n      sub\n        /* \"#utility.yul\":717:749   */\n      slt\n        /* \"#utility.yul\":714:833   */\n      iszero\n      tag_66\n      jumpi\n        /* \"#utility.yul\":752:831   */\n      tag_67\n      tag_63\n      jump\t// in\n    tag_67:\n        /* \"#utility.yul\":714:833   */\n    tag_66:\n        /* \"#utility.yul\":872:873   */\n      0x00\n        /* \"#utility.yul\":897:958   */\n      tag_68\n        /* \"#utility.yul\":950:957   */\n      dup5\n        /* \"#utility.yul\":941:947   */\n      dup3\n        /* \"#utility.yul\":930:939   */\n      dup6\n        /* \"#utility.yul\":926:948   */\n      add\n        /* \"#utility.yul\":897:958   */\n      tag_56\n      jump\t// in\n    tag_68:\n        /* \"#utility.yul\":887:958   */\n      swap2\n      pop\n        /* \"#utility.yul\":843:968   */\n      pop\n        /* \"#utility.yul\":630:975   */\n      swap3\n      swap2\n      pop\n      pop\n      jump\t// out\n        /* \"#utility.yul\":981:1099   */\n    tag_69:\n        /* \"#utility.yul\":1068:1092   */\n      tag_71\n        /* \"#utility.yul\":1086:1091   */\n      dup2\n        /* \"#utility.yul\":1068:1092   */\n      tag_72\n      jump\t// in\n    tag_71:\n        /* \"#utility.yul\":1063:1066   */\n      dup3\n        /* \"#utility.yul\":1056:1093   */\n      mstore\n        /* \"#utility.yul\":981:1099   */\n      pop\n      pop\n      jump\t// out\n        /* \"#utility.yul\":1105:1214   */\n    tag_73:\n        /* \"#utility.yul\":1186:1207   */\n      tag_75\n        /* \"#utility.yul\":1201:1206   */\n      dup2\n        /* \"#utility.yul\":1186:1207   */\n      tag_76\n      jump\t// in\n    tag_75:\n        /* \"#utility.yul\":1181:1184   */\n      dup3\n        /* \"#utility.yul\":1174:1208   */\n      mstore\n        /* \"#utility.yul\":1105:1214   */\n      pop\n      pop\n      jump\t// out\n        /* \"#utility.yul\":1220:1338   */\n    tag_77:\n        /* \"#utility.yul\":1307:1331   */\n      tag_79\n        /* \"#utility.yul\":1325:1330   */\n      dup2\n        /* \"#utility.yul\":1307:1331   */\n      tag_80\n      jump\t// in\n    tag_79:\n        /* \"#utility.yul\":1302:1305   */\n      dup3\n        /* \"#utility.yul\":1295:1332   */\n      mstore\n        /* \"#utility.yul\":1220:1338   */\n      pop\n      pop\n      jump\t// out\n        /* \"#utility.yul\":1344:1566   */\n    tag_27:\n        /* \"#utility.yul\":1437:1441   */\n      0x00\n        /* \"#utility.yul\":1475:1477   */\n      0x20\n        /* \"#utility.yul\":1464:1473   */\n      dup3\n        /* \"#utility.yul\":1460:1478   */\n      add\n        /* \"#utility.yul\":1452:1478   */\n      swap1\n      pop\n        /* \"#utility.yul\":1488:1559   */\n      tag_82\n        /* \"#utility.yul\":1556:1557   */\n      0x00\n        /* \"#utility.yul\":1545:1554   */\n      dup4\n        /* \"#utility.yul\":1541:1558   */\n      add\n        /* \"#utility.yul\":1532:1538   */\n      dup5\n        /* \"#utility.yul\":1488:1559   */\n      tag_69\n      jump\t// in\n    tag_82:\n        /* \"#utility.yul\":1344:1566   */\n      swap3\n      swap2\n      pop\n      pop\n      jump\t// out\n        /* \"#utility.yul\":1572:1782   */\n    tag_12:\n        /* \"#utility.yul\":1659:1663   */\n      0x00\n        /* \"#utility.yul\":1697:1699   */\n      0x20\n        /* \"#utility.yul\":1686:1695   */\n      dup3\n        /* \"#utility.yul\":1682:1700   */\n      add\n        /* \"#utility.yul\":1674:1700   */\n      swap1\n      pop\n        /* \"#utility.yul\":1710:1775   */\n      tag_84\n        /* \"#utility.yul\":1772:1773   */\n      0x00\n        /* \"#utility.yul\":1761:1770   */\n      dup4\n        /* \"#utility.yul\":1757:1774   */\n      add\n        /* \"#utility.yul\":1748:1754   */\n      dup5\n        /* \"#utility.yul\":1710:1775   */\n      tag_73\n      jump\t// in\n    tag_84:\n        /* \"#utility.yul\":1572:1782   */\n      swap3\n      swap2\n      pop\n      pop\n      jump\t// out\n        /* \"#utility.yul\":1788:2010   */\n    tag_23:\n        /* \"#utility.yul\":1881:1885   */\n      0x00\n        /* \"#utility.yul\":1919:1921   */\n      0x20\n        /* \"#utility.yul\":1908:1917   */\n      dup3\n        /* \"#utility.yul\":1904:1922   */\n      add\n        /* \"#utility.yul\":1896:1922   */\n      swap1\n      pop\n        /* \"#utility.yul\":1932:2003   */\n      tag_86\n        /* \"#utility.yul\":2000:2001   */\n      0x00\n        /* \"#utility.yul\":1989:1998   */\n      dup4\n        /* \"#utility.yul\":1985:2002   */\n      add\n        /* \"#utility.yul\":1976:1982   */\n      dup5\n        /* \"#utility.yul\":1932:2003   */\n      tag_77\n      jump\t// in\n    tag_86:\n        /* \"#utility.yul\":1788:2010   */\n      swap3\n      swap2\n      pop\n      pop\n      jump\t// out\n        /* \"#utility.yul\":2097:2193   */\n    tag_72:\n        /* \"#utility.yul\":2134:2141   */\n      0x00\n        /* \"#utility.yul\":2163:2187   */\n      tag_90\n        /* \"#utility.yul\":2181:2186   */\n      dup3\n        /* \"#utility.yul\":2163:2187   */\n      tag_91\n      jump\t// in\n    tag_90:\n        /* \"#utility.yul\":2152:2187   */\n      swap1\n      pop\n        /* \"#utility.yul\":2097:2193   */\n      swap2\n      swap1\n      pop\n      jump\t// out\n        /* \"#utility.yul\":2199:2289   */\n    tag_76:\n        /* \"#utility.yul\":2233:2240   */\n      0x00\n        /* \"#utility.yul\":2276:2281   */\n      dup2\n        /* \"#utility.yul\":2269:2282   */\n      iszero\n        /* \"#utility.yul\":2262:2283   */\n      iszero\n        /* \"#utility.yul\":2251:2283   */\n      swap1\n      pop\n        /* \"#utility.yul\":2199:2289   */\n      swap2\n      swap1\n      pop\n      jump\t// out\n        /* \"#utility.yul\":2295:2421   */\n    tag_91:\n        /* \"#utility.yul\":2332:2339   */\n      0x00\n        /* \"#utility.yul\":2372:2414   */\n      0xffffffffffffffffffffffffffffffffffffffff\n        /* \"#utility.yul\":2365:2370   */\n      dup3\n        /* \"#utility.yul\":2361:2415   */\n      and\n        /* \"#utility.yul\":2350:2415   */\n      swap1\n      pop\n        /* \"#utility.yul\":2295:2421   */\n      swap2\n      swap1\n      pop\n      jump\t// out\n        /* \"#utility.yul\":2427:2504   */\n    tag_80:\n        /* \"#utility.yul\":2464:2471   */\n      0x00\n        /* \"#utility.yul\":2493:2498   */\n      dup2\n        /* \"#utility.yul\":2482:2498   */\n      swap1\n      pop\n        /* \"#utility.yul\":2427:2504   */\n      swap2\n      swap1\n      pop\n      jump\t// out\n        /* \"#utility.yul\":2633:2750   */\n    tag_63:\n        /* \"#utility.yul\":2742:2743   */\n      0x00\n        /* \"#utility.yul\":2739:2740   */\n      dup1\n        /* \"#utility.yul\":2732:2744   */\n      revert\n        /* \"#utility.yul\":2756:2878   */\n    tag_55:\n        /* \"#utility.yul\":2829:2853   */\n      tag_99\n        /* \"#utility.yul\":2847:2852   */\n      dup2\n        /* \"#utility.yul\":2829:2853   */\n      tag_72\n      jump\t// in\n    tag_99:\n        /* \"#utility.yul\":2822:2827   */\n      dup2\n        /* \"#utility.yul\":2819:2854   */\n      eq\n        /* \"#utility.yul\":2809:2872   */\n      tag_100\n      jumpi\n        /* \"#utility.yul\":2868:2869   */\n      0x00\n        /* \"#utility.yul\":2865:2866   */\n      dup1\n        /* \"#utility.yul\":2858:2870   */\n      revert\n        /* \"#utility.yul\":2809:2872   */\n    tag_100:\n        /* \"#utility.yul\":2756:2878   */\n      pop\n      jump\t// out\n        /* \"#utility.yul\":2884:3000   */\n    tag_59:\n        /* \"#utility.yul\":2954:2975   */\n      tag_102\n        /* \"#utility.yul\":2969:2974   */\n      dup2\n        /* \"#utility.yul\":2954:2975   */\n      tag_76\n      jump\t// in\n    tag_102:\n        /* \"#utility.yul\":2947:2952   */\n      dup2\n        /* \"#utility.yul\":2944:2976   */\n      eq\n        /* \"#utility.yul\":2934:2994   */\n      tag_103\n      jumpi\n        /* \"#utility.yul\":2990:2991   */\n      0x00\n        /* \"#utility.yul\":2987:2988   */\n      dup1\n        /* \"#utility.yul\":2980:2992   */\n      revert\n        /* \"#utility.yul\":2934:2994   */\n    tag_103:\n        /* \"#utility.yul\":2884:3000   */\n      pop\n      jump\t// out\n\n    auxdata: 0xa2646970667358221220286d23b734c3717a1d17bdae91f14c8a947ac97f1b6966e22be4abada872f36c64736f6c63430008070033\n}\n",
				"bytecode": {
					"linkReferences": {},
					"object": "608060405273808e30f5a641e756ae0a46917493b2dc3637f8086000806101000a81548173ffffffffffffffffffffffffffffffffffffffff021916908373ffffffffffffffffffffffffffffffffffffffff1602179055506001600060146101000a81548160ff02191690831515021790555034801561007f57600080fd5b506105468061008f6000396000f3fe608060405234801561001057600080fd5b50600436106100625760003560e01c80631cb2dab51461006757806340a3d246146100855780634ee83d84146100a3578063a035b1fe146100bf578063ba4708cb146100dd578063fdbfbff6146100fb575b600080fd5b61006f610105565b60405161007c919061045f565b60405180910390f35b61008d6101af565b60405161009a919061045f565b60405180910390f35b6100bd60048036038101906100b891906103bd565b6101c2565b005b6100c761022b565b6040516100d4919061047a565b60405180910390f35b6100e56102e6565b6040516100f29190610444565b60405180910390f35b61010361030a565b005b60008060008054906101000a900473ffffffffffffffffffffffffffffffffffffffff1690508073ffffffffffffffffffffffffffffffffffffffff1663e852e7416040518163ffffffff1660e01b815260040160206040518083038186803b15801561017157600080fd5b505afa158015610185573d6000803e3d6000fd5b505050506040513d601f19601f820116820180604052508101906101a991906103ea565b91505090565b600060149054906101000a900460ff1681565b60008190508073ffffffffffffffffffffffffffffffffffffffff1663a6f2ae3a6040518163ffffffff1660e01b8152600401600060405180830381600087803b15801561020f57600080fd5b505af1158015610223573d6000803e3d6000fd5b505050505050565b60008060008054906101000a900473ffffffffffffffffffffffffffffffffffffffff1690508073ffffffffffffffffffffffffffffffffffffffff1663e852e7416040518163ffffffff1660e01b815260040160206040518083038186803b15801561029757600080fd5b505afa1580156102ab573d6000803e3d6000fd5b505050506040513d601f19601f820116820180604052508101906102cf91906103ea565b6102dd5760649150506102e3565b60019150505b90565b60008054906101000a900473ffffffffffffffffffffffffffffffffffffffff1681565b60008060009054906101000a900473ffffffffffffffffffffffffffffffffffffffff1690508073ffffffffffffffffffffffffffffffffffffffff1663a6f2ae3a6040518163ffffffff1660e01b8152600401600060405180830381600087803b15801561037857600080fd5b505af115801561038c573d6000803e3d6000fd5b5050505050565b6000813590506103a2816104e2565b92915050565b6000815190506103b7816104f9565b92915050565b6000602082840312156103d3576103d26104dd565b5b60006103e184828501610393565b91505092915050565b600060208284031215610400576103ff6104dd565b5b600061040e848285016103a8565b91505092915050565b61042081610495565b82525050565b61042f816104a7565b82525050565b61043e816104d3565b82525050565b60006020820190506104596000830184610417565b92915050565b60006020820190506104746000830184610426565b92915050565b600060208201905061048f6000830184610435565b92915050565b60006104a0826104b3565b9050919050565b60008115159050919050565b600073ffffffffffffffffffffffffffffffffffffffff82169050919050565b6000819050919050565b600080fd5b6104eb81610495565b81146104f657600080fd5b50565b610502816104a7565b811461050d57600080fd5b5056fea2646970667358221220286d23b734c3717a1d17bdae91f14c8a947ac97f1b6966e22be4abada872f36c64736f6c63430008070033",
					"opcodes": "PUSH1 0x80 PUSH1 0x40 MSTORE PUSH20 0x808E30F5A641E756AE0A46917493B2DC3637F808 PUSH1 0x0 DUP1 PUSH2 0x100 EXP DUP2 SLOAD DUP2 PUSH20 0xFFFFFFFFFFFFFFFFFFFFFFFFFFFFFFFFFFFFFFFF MUL NOT AND SWAP1 DUP4 PUSH20 0xFFFFFFFFFFFFFFFFFFFFFFFFFFFFFFFFFFFFFFFF AND MUL OR SWAP1 SSTORE POP PUSH1 0x1 PUSH1 0x0 PUSH1 0x14 PUSH2 0x100 EXP DUP2 SLOAD DUP2 PUSH1 0xFF MUL NOT AND SWAP1 DUP4 ISZERO ISZERO MUL OR SWAP1 SSTORE POP CALLVALUE DUP1 ISZERO PUSH2 0x7F JUMPI PUSH1 0x0 DUP1 REVERT JUMPDEST POP PUSH2 0x546 DUP1 PUSH2 0x8F PUSH1 0x0 CODECOPY PUSH1 0x0 RETURN INVALID PUSH1 0x80 PUSH1 0x40 MSTORE CALLVALUE DUP1 ISZERO PUSH2 0x10 JUMPI PUSH1 0x0 DUP1 REVERT JUMPDEST POP PUSH1 0x4 CALLDATASIZE LT PUSH2 0x62 JUMPI PUSH1 0x0 CALLDATALOAD PUSH1 0xE0 SHR DUP1 PUSH4 0x1CB2DAB5 EQ PUSH2 0x67 JUMPI DUP1 PUSH4 0x40A3D246 EQ PUSH2 0x85 JUMPI DUP1 PUSH4 0x4EE83D84 EQ PUSH2 0xA3 JUMPI DUP1 PUSH4 0xA035B1FE EQ PUSH2 0xBF JUMPI DUP1 PUSH4 0xBA4708CB EQ PUSH2 0xDD JUMPI DUP1 PUSH4 0xFDBFBFF6 EQ PUSH2 0xFB JUMPI JUMPDEST PUSH1 0x0 DUP1 REVERT JUMPDEST PUSH2 0x6F PUSH2 0x105 JUMP JUMPDEST PUSH1 0x40 MLOAD PUSH2 0x7C SWAP2 SWAP1 PUSH2 0x45F JUMP JUMPDEST PUSH1 0x40 MLOAD DUP1 SWAP2 SUB SWAP1 RETURN JUMPDEST PUSH2 0x8D PUSH2 0x1AF JUMP JUMPDEST PUSH1 0x40 MLOAD PUSH2 0x9A SWAP2 SWAP1 PUSH2 0x45F JUMP JUMPDEST PUSH1 0x40 MLOAD DUP1 SWAP2 SUB SWAP1 RETURN JUMPDEST PUSH2 0xBD PUSH1 0x4 DUP1 CALLDATASIZE SUB DUP2 ADD SWAP1 PUSH2 0xB8 SWAP2 SWAP1 PUSH2 0x3BD JUMP JUMPDEST PUSH2 0x1C2 JUMP JUMPDEST STOP JUMPDEST PUSH2 0xC7 PUSH2 0x22B JUMP JUMPDEST PUSH1 0x40 MLOAD PUSH2 0xD4 SWAP2 SWAP1 PUSH2 0x47A JUMP JUMPDEST PUSH1 0x40 MLOAD DUP1 SWAP2 SUB SWAP1 RETURN JUMPDEST PUSH2 0xE5 PUSH2 0x2E6 JUMP JUMPDEST PUSH1 0x40 MLOAD PUSH2 0xF2 SWAP2 SWAP1 PUSH2 0x444 JUMP JUMPDEST PUSH1 0x40 MLOAD DUP1 SWAP2 SUB SWAP1 RETURN JUMPDEST PUSH2 0x103 PUSH2 0x30A JUMP JUMPDEST STOP JUMPDEST PUSH1 0x0 DUP1 PUSH1 0x0 DUP1 SLOAD SWAP1 PUSH2 0x100 EXP SWAP1 DIV PUSH20 0xFFFFFFFFFFFFFFFFFFFFFFFFFFFFFFFFFFFFFFFF AND SWAP1 POP DUP1 PUSH20 0xFFFFFFFFFFFFFFFFFFFFFFFFFFFFFFFFFFFFFFFF AND PUSH4 0xE852E741 PUSH1 0x40 MLOAD DUP2 PUSH4 0xFFFFFFFF AND PUSH1 0xE0 SHL DUP2 MSTORE PUSH1 0x4 ADD PUSH1 0x20 PUSH1 0x40 MLOAD DUP1 DUP4 SUB DUP2 DUP7 DUP1 EXTCODESIZE ISZERO DUP1 ISZERO PUSH2 0x171 JUMPI PUSH1 0x0 DUP1 REVERT JUMPDEST POP GAS STATICCALL ISZERO DUP1 ISZERO PUSH2 0x185 JUMPI RETURNDATASIZE PUSH1 0x0 DUP1 RETURNDATACOPY RETURNDATASIZE PUSH1 0x0 REVERT JUMPDEST POP POP POP POP PUSH1 0x40 MLOAD RETURNDATASIZE PUSH1 0x1F NOT PUSH1 0x1F DUP3 ADD AND DUP3 ADD DUP1 PUSH1 0x40 MSTORE POP DUP2 ADD SWAP1 PUSH2 0x1A9 SWAP2 SWAP1 PUSH2 0x3EA JUMP JUMPDEST SWAP2 POP POP SWAP1 JUMP JUMPDEST PUSH1 0x0 PUSH1 0x14 SWAP1 SLOAD SWAP1 PUSH2 0x100 EXP SWAP1 DIV PUSH1 0xFF AND DUP2 JUMP JUMPDEST PUSH1 0x0 DUP2 SWAP1 POP DUP1 PUSH20 0xFFFFFFFFFFFFFFFFFFFFFFFFFFFFFFFFFFFFFFFF AND PUSH4 0xA6F2AE3A PUSH1 0x40 MLOAD DUP2 PUSH4 0xFFFFFFFF AND PUSH1 0xE0 SHL DUP2 MSTORE PUSH1 0x4 ADD PUSH1 0x0 PUSH1 0x40 MLOAD DUP1 DUP4 SUB DUP2 PUSH1 0x0 DUP8 DUP1 EXTCODESIZE ISZERO DUP1 ISZERO PUSH2 0x20F JUMPI PUSH1 0x0 DUP1 REVERT JUMPDEST POP GAS CALL ISZERO DUP1 ISZERO PUSH2 0x223 JUMPI RETURNDATASIZE PUSH1 0x0 DUP1 RETURNDATACOPY RETURNDATASIZE PUSH1 0x0 REVERT JUMPDEST POP POP POP POP POP POP JUMP JUMPDEST PUSH1 0x0 DUP1 PUSH1 0x0 DUP1 SLOAD SWAP1 PUSH2 0x100 EXP SWAP1 DIV PUSH20 0xFFFFFFFFFFFFFFFFFFFFFFFFFFFFFFFFFFFFFFFF AND SWAP1 POP DUP1 PUSH20 0xFFFFFFFFFFFFFFFFFFFFFFFFFFFFFFFFFFFFFFFF AND PUSH4 0xE852E741 PUSH1 0x40 MLOAD DUP2 PUSH4 0xFFFFFFFF AND PUSH1 0xE0 SHL DUP2 MSTORE PUSH1 0x4 ADD PUSH1 0x20 PUSH1 0x40 MLOAD DUP1 DUP4 SUB DUP2 DUP7 DUP1 EXTCODESIZE ISZERO DUP1 ISZERO PUSH2 0x297 JUMPI PUSH1 0x0 DUP1 REVERT JUMPDEST POP GAS STATICCALL ISZERO DUP1 ISZERO PUSH2 0x2AB JUMPI RETURNDATASIZE PUSH1 0x0 DUP1 RETURNDATACOPY RETURNDATASIZE PUSH1 0x0 REVERT JUMPDEST POP POP POP POP PUSH1 0x40 MLOAD RETURNDATASIZE PUSH1 0x1F NOT PUSH1 0x1F DUP3 ADD AND DUP3 ADD DUP1 PUSH1 0x40 MSTORE POP DUP2 ADD SWAP1 PUSH2 0x2CF SWAP2 SWAP1 PUSH2 0x3EA JUMP JUMPDEST PUSH2 0x2DD JUMPI PUSH1 0x64 SWAP2 POP POP PUSH2 0x2E3 JUMP JUMPDEST PUSH1 0x1 SWAP2 POP POP JUMPDEST SWAP1 JUMP JUMPDEST PUSH1 0x0 DUP1 SLOAD SWAP1 PUSH2 0x100 EXP SWAP1 DIV PUSH20 0xFFFFFFFFFFFFFFFFFFFFFFFFFFFFFFFFFFFFFFFF AND DUP2 JUMP JUMPDEST PUSH1 0x0 DUP1 PUSH1 0x0 SWAP1 SLOAD SWAP1 PUSH2 0x100 EXP SWAP1 DIV PUSH20 0xFFFFFFFFFFFFFFFFFFFFFFFFFFFFFFFFFFFFFFFF AND SWAP1 POP DUP1 PUSH20 0xFFFFFFFFFFFFFFFFFFFFFFFFFFFFFFFFFFFFFFFF AND PUSH4 0xA6F2AE3A PUSH1 0x40 MLOAD DUP2 PUSH4 0xFFFFFFFF AND PUSH1 0xE0 SHL DUP2 MSTORE PUSH1 0x4 ADD PUSH1 0x0 PUSH1 0x40 MLOAD DUP1 DUP4 SUB DUP2 PUSH1 0x0 DUP8 DUP1 EXTCODESIZE ISZERO DUP1 ISZERO PUSH2 0x378 JUMPI PUSH1 0x0 DUP1 REVERT JUMPDEST POP GAS CALL ISZERO DUP1 ISZERO PUSH2 0x38C JUMPI RETURNDATASIZE PUSH1 0x0 DUP1 RETURNDATACOPY RETURNDATASIZE PUSH1 0x0 REVERT JUMPDEST POP POP POP POP POP JUMP JUMPDEST PUSH1 0x0 DUP2 CALLDATALOAD SWAP1 POP PUSH2 0x3A2 DUP2 PUSH2 0x4E2 JUMP JUMPDEST SWAP3 SWAP2 POP POP JUMP JUMPDEST PUSH1 0x0 DUP2 MLOAD SWAP1 POP PUSH2 0x3B7 DUP2 PUSH2 0x4F9 JUMP JUMPDEST SWAP3 SWAP2 POP POP JUMP JUMPDEST PUSH1 0x0 PUSH1 0x20 DUP3 DUP5 SUB SLT ISZERO PUSH2 0x3D3 JUMPI PUSH2 0x3D2 PUSH2 0x4DD JUMP JUMPDEST JUMPDEST PUSH1 0x0 PUSH2 0x3E1 DUP5 DUP3 DUP6 ADD PUSH2 0x393 JUMP JUMPDEST SWAP2 POP POP SWAP3 SWAP2 POP POP JUMP JUMPDEST PUSH1 0x0 PUSH1 0x20 DUP3 DUP5 SUB SLT ISZERO PUSH2 0x400 JUMPI PUSH2 0x3FF PUSH2 0x4DD JUMP JUMPDEST JUMPDEST PUSH1 0x0 PUSH2 0x40E DUP5 DUP3 DUP6 ADD PUSH2 0x3A8 JUMP JUMPDEST SWAP2 POP POP SWAP3 SWAP2 POP POP JUMP JUMPDEST PUSH2 0x420 DUP2 PUSH2 0x495 JUMP JUMPDEST DUP3 MSTORE POP POP JUMP JUMPDEST PUSH2 0x42F DUP2 PUSH2 0x4A7 JUMP JUMPDEST DUP3 MSTORE POP POP JUMP JUMPDEST PUSH2 0x43E DUP2 PUSH2 0x4D3 JUMP JUMPDEST DUP3 MSTORE POP POP JUMP JUMPDEST PUSH1 0x0 PUSH1 0x20 DUP3 ADD SWAP1 POP PUSH2 0x459 PUSH1 0x0 DUP4 ADD DUP5 PUSH2 0x417 JUMP JUMPDEST SWAP3 SWAP2 POP POP JUMP JUMPDEST PUSH1 0x0 PUSH1 0x20 DUP3 ADD SWAP1 POP PUSH2 0x474 PUSH1 0x0 DUP4 ADD DUP5 PUSH2 0x426 JUMP JUMPDEST SWAP3 SWAP2 POP POP JUMP JUMPDEST PUSH1 0x0 PUSH1 0x20 DUP3 ADD SWAP1 POP PUSH2 0x48F PUSH1 0x0 DUP4 ADD DUP5 PUSH2 0x435 JUMP JUMPDEST SWAP3 SWAP2 POP POP JUMP JUMPDEST PUSH1 0x0 PUSH2 0x4A0 DUP3 PUSH2 0x4B3 JUMP JUMPDEST SWAP1 POP SWAP2 SWAP1 POP JUMP JUMPDEST PUSH1 0x0 DUP2 ISZERO ISZERO SWAP1 POP SWAP2 SWAP1 POP JUMP JUMPDEST PUSH1 0x0 PUSH20 0xFFFFFFFFFFFFFFFFFFFFFFFFFFFFFFFFFFFFFFFF DUP3 AND SWAP1 POP SWAP2 SWAP1 POP JUMP JUMPDEST PUSH1 0x0 DUP2 SWAP1 POP SWAP2 SWAP1 POP JUMP JUMPDEST PUSH1 0x0 DUP1 REVERT JUMPDEST PUSH2 0x4EB DUP2 PUSH2 0x495 JUMP JUMPDEST DUP2 EQ PUSH2 0x4F6 JUMPI PUSH1 0x0 DUP1 REVERT JUMPDEST POP JUMP JUMPDEST PUSH2 0x502 DUP2 PUSH2 0x4A7 JUMP JUMPDEST DUP2 EQ PUSH2 0x50D JUMPI PUSH1 0x0 DUP1 REVERT JUMPDEST POP JUMP INVALID LOG2 PUSH5 0x6970667358 0x22 SLT KECCAK256 0x28 PUSH14 0x23B734C3717A1D17BDAE91F14C8A SWAP5 PUSH27 0xC97F1B6966E22BE4ABADA872F36C64736F6C634300080700330000 "
				},
				"gasEstimates": {
					"creation": {
						"codeDepositCost": "270000",
						"executionCost": "48896",
						"totalCost": "318896"
					},
					"external": {
						"callShop(address)": "infinite",
						"callShopTwo()": "infinite",
						"price()": "infinite",
						"returnIsSold()": "infinite",
						"shoppy()": "2577",
						"toggle()": "2521"
					}
				},
				"methodIdentifiers": {
					"callShop(address)": "4ee83d84",
					"callShopTwo()": "fdbfbff6",
					"price()": "a035b1fe",
					"returnIsSold()": "1cb2dab5",
					"shoppy()": "ba4708cb",
					"toggle()": "40a3d246"
				}
			},
			"storageLayout": {
				"storage": [
					{
						"astId": 13,
						"contract": "Playground/ShopSolver.sol:Buyer",
						"label": "shoppy",
						"offset": 0,
						"slot": "0",
						"type": "t_address"
					},
					{
						"astId": 16,
						"contract": "Playground/ShopSolver.sol:Buyer",
						"label": "toggle",
						"offset": 20,
						"slot": "0",
						"type": "t_bool"
					}
				],
				"types": {
					"t_address": {
						"encoding": "inplace",
						"label": "address",
						"numberOfBytes": "20"
					},
					"t_bool": {
						"encoding": "inplace",
						"label": "bool",
						"numberOfBytes": "1"
					}
				}
			},
			"userdoc": {
				"kind": "user",
				"methods": {},
				"version": 1
			}
		}
	}
}