{
	"2_Playground/Reentrancy.sol": {
		"Reentrance": {
			"abi": [
				{
					"inputs": [
						{
							"internalType": "address",
							"name": "_who",
							"type": "address"
						}
					],
					"name": "balanceOf",
					"outputs": [
						{
							"internalType": "uint256",
							"name": "balance",
							"type": "uint256"
						}
					],
					"stateMutability": "view",
					"type": "function"
				},
				{
					"inputs": [
						{
							"internalType": "address",
							"name": "",
							"type": "address"
						}
					],
					"name": "balances",
					"outputs": [
						{
							"internalType": "uint256",
							"name": "",
							"type": "uint256"
						}
					],
					"stateMutability": "view",
					"type": "function"
				},
				{
					"inputs": [
						{
							"internalType": "address",
							"name": "_to",
							"type": "address"
						}
					],
					"name": "donate",
					"outputs": [],
					"stateMutability": "payable",
					"type": "function"
				},
				{
					"inputs": [
						{
							"internalType": "uint256",
							"name": "_amount",
							"type": "uint256"
						}
					],
					"name": "withdraw",
					"outputs": [],
					"stateMutability": "nonpayable",
					"type": "function"
				},
				{
					"stateMutability": "payable",
					"type": "receive"
				}
			],
			"devdoc": {
				"kind": "dev",
				"methods": {},
				"version": 1
			},
			"evm": {
				"assembly": "    /* \"2_Playground/Reentrancy.sol\":169:747  contract Reentrance {... */\n  mstore(0x40, 0x80)\n  callvalue\n  dup1\n  iszero\n  tag_1\n  jumpi\n  0x00\n  dup1\n  revert\ntag_1:\n  pop\n  dataSize(sub_0)\n  dup1\n  dataOffset(sub_0)\n  0x00\n  codecopy\n  0x00\n  return\nstop\n\nsub_0: assembly {\n        /* \"2_Playground/Reentrancy.sol\":169:747  contract Reentrance {... */\n      mstore(0x40, 0x80)\n      jumpi(tag_1, lt(calldatasize, 0x04))\n      shr(0xe0, calldataload(0x00))\n      dup1\n      0x362a95\n      eq\n      tag_3\n      jumpi\n      dup1\n      0x27e235e3\n      eq\n      tag_4\n      jumpi\n      dup1\n      0x2e1a7d4d\n      eq\n      tag_5\n      jumpi\n      dup1\n      0x70a08231\n      eq\n      tag_6\n      jumpi\n      jump(tag_2)\n    tag_1:\n      jumpi(tag_2, calldatasize)\n      stop\n    tag_2:\n      0x00\n      dup1\n      revert\n        /* \"2_Playground/Reentrancy.sol\":271:370  function donate(address _to) public payable {... */\n    tag_3:\n      tag_9\n      0x04\n      dup1\n      calldatasize\n      sub\n      dup2\n      add\n      swap1\n      tag_10\n      swap2\n      swap1\n      tag_11\n      jump\t// in\n    tag_10:\n      tag_12\n      jump\t// in\n    tag_9:\n      stop\n        /* \"2_Playground/Reentrancy.sol\":226:266  mapping(address => uint) public balances */\n    tag_4:\n      callvalue\n      dup1\n      iszero\n      tag_13\n      jumpi\n      0x00\n      dup1\n      revert\n    tag_13:\n      pop\n      tag_14\n      0x04\n      dup1\n      calldatasize\n      sub\n      dup2\n      add\n      swap1\n      tag_15\n      swap2\n      swap1\n      tag_11\n      jump\t// in\n    tag_15:\n      tag_16\n      jump\t// in\n    tag_14:\n      mload(0x40)\n      tag_17\n      swap2\n      swap1\n      tag_18\n      jump\t// in\n    tag_17:\n      mload(0x40)\n      dup1\n      swap2\n      sub\n      swap1\n      return\n        /* \"2_Playground/Reentrancy.sol\":478:712  function withdraw(uint _amount) public {... */\n    tag_5:\n      callvalue\n      dup1\n      iszero\n      tag_19\n      jumpi\n      0x00\n      dup1\n      revert\n    tag_19:\n      pop\n      tag_20\n      0x04\n      dup1\n      calldatasize\n      sub\n      dup2\n      add\n      swap1\n      tag_21\n      swap2\n      swap1\n      tag_22\n      jump\t// in\n    tag_21:\n      tag_23\n      jump\t// in\n    tag_20:\n      stop\n        /* \"2_Playground/Reentrancy.sol\":374:474  function balanceOf(address _who) public view returns (uint balance) {... */\n    tag_6:\n      callvalue\n      dup1\n      iszero\n      tag_24\n      jumpi\n      0x00\n      dup1\n      revert\n    tag_24:\n      pop\n      tag_25\n      0x04\n      dup1\n      calldatasize\n      sub\n      dup2\n      add\n      swap1\n      tag_26\n      swap2\n      swap1\n      tag_11\n      jump\t// in\n    tag_26:\n      tag_27\n      jump\t// in\n    tag_25:\n      mload(0x40)\n      tag_28\n      swap2\n      swap1\n      tag_18\n      jump\t// in\n    tag_28:\n      mload(0x40)\n      dup1\n      swap2\n      sub\n      swap1\n      return\n        /* \"2_Playground/Reentrancy.sol\":271:370  function donate(address _to) public payable {... */\n    tag_12:\n        /* \"2_Playground/Reentrancy.sol\":337:365  balances[_to].add(msg.value) */\n      tag_30\n        /* \"2_Playground/Reentrancy.sol\":355:364  msg.value */\n      callvalue\n        /* \"2_Playground/Reentrancy.sol\":337:345  balances */\n      0x00\n        /* \"2_Playground/Reentrancy.sol\":337:350  balances[_to] */\n      dup1\n        /* \"2_Playground/Reentrancy.sol\":346:349  _to */\n      dup5\n        /* \"2_Playground/Reentrancy.sol\":337:350  balances[_to] */\n      0xffffffffffffffffffffffffffffffffffffffff\n      and\n      0xffffffffffffffffffffffffffffffffffffffff\n      and\n      dup2\n      mstore\n      0x20\n      add\n      swap1\n      dup2\n      mstore\n      0x20\n      add\n      0x00\n      keccak256\n      sload\n        /* \"2_Playground/Reentrancy.sol\":337:354  balances[_to].add */\n      tag_31\n      swap1\n        /* \"2_Playground/Reentrancy.sol\":337:365  balances[_to].add(msg.value) */\n      swap2\n      swap1\n      0xffffffff\n      and\n      jump\t// in\n    tag_30:\n        /* \"2_Playground/Reentrancy.sol\":321:329  balances */\n      0x00\n        /* \"2_Playground/Reentrancy.sol\":321:334  balances[_to] */\n      dup1\n        /* \"2_Playground/Reentrancy.sol\":330:333  _to */\n      dup4\n        /* \"2_Playground/Reentrancy.sol\":321:334  balances[_to] */\n      0xffffffffffffffffffffffffffffffffffffffff\n      and\n      0xffffffffffffffffffffffffffffffffffffffff\n      and\n      dup2\n      mstore\n      0x20\n      add\n      swap1\n      dup2\n      mstore\n      0x20\n      add\n      0x00\n      keccak256\n        /* \"2_Playground/Reentrancy.sol\":321:365  balances[_to] = balances[_to].add(msg.value) */\n      dup2\n      swap1\n      sstore\n      pop\n        /* \"2_Playground/Reentrancy.sol\":271:370  function donate(address _to) public payable {... */\n      pop\n      jump\t// out\n        /* \"2_Playground/Reentrancy.sol\":226:266  mapping(address => uint) public balances */\n    tag_16:\n      mstore(0x20, 0x00)\n      dup1\n      0x00\n      mstore\n      keccak256(0x00, 0x40)\n      0x00\n      swap2\n      pop\n      swap1\n      pop\n      sload\n      dup2\n      jump\t// out\n        /* \"2_Playground/Reentrancy.sol\":478:712  function withdraw(uint _amount) public {... */\n    tag_23:\n        /* \"2_Playground/Reentrancy.sol\":550:557  _amount */\n      dup1\n        /* \"2_Playground/Reentrancy.sol\":526:534  balances */\n      0x00\n        /* \"2_Playground/Reentrancy.sol\":526:546  balances[msg.sender] */\n      dup1\n        /* \"2_Playground/Reentrancy.sol\":535:545  msg.sender */\n      caller\n        /* \"2_Playground/Reentrancy.sol\":526:546  balances[msg.sender] */\n      0xffffffffffffffffffffffffffffffffffffffff\n      and\n      0xffffffffffffffffffffffffffffffffffffffff\n      and\n      dup2\n      mstore\n      0x20\n      add\n      swap1\n      dup2\n      mstore\n      0x20\n      add\n      0x00\n      keccak256\n      sload\n        /* \"2_Playground/Reentrancy.sol\":526:557  balances[msg.sender] >= _amount */\n      lt\n        /* \"2_Playground/Reentrancy.sol\":523:708  if(balances[msg.sender] >= _amount) {... */\n      tag_33\n      jumpi\n        /* \"2_Playground/Reentrancy.sol\":568:579  bool result */\n      0x00\n        /* \"2_Playground/Reentrancy.sol\":584:594  msg.sender */\n      caller\n        /* \"2_Playground/Reentrancy.sol\":584:599  msg.sender.call */\n      0xffffffffffffffffffffffffffffffffffffffff\n      and\n        /* \"2_Playground/Reentrancy.sol\":606:613  _amount */\n      dup3\n        /* \"2_Playground/Reentrancy.sol\":584:618  msg.sender.call{value:_amount}(\"\") */\n      mload(0x40)\n      tag_34\n      swap1\n      tag_35\n      jump\t// in\n    tag_34:\n      0x00\n      mload(0x40)\n      dup1\n      dup4\n      sub\n      dup2\n      dup6\n      dup8\n      gas\n      call\n      swap3\n      pop\n      pop\n      pop\n      returndatasize\n      dup1\n      0x00\n      dup2\n      eq\n      tag_38\n      jumpi\n      mload(0x40)\n      swap2\n      pop\n      and(add(returndatasize, 0x3f), not(0x1f))\n      dup3\n      add\n      0x40\n      mstore\n      returndatasize\n      dup3\n      mstore\n      returndatasize\n      0x00\n      0x20\n      dup5\n      add\n      returndatacopy\n      jump(tag_37)\n    tag_38:\n      0x60\n      swap2\n      pop\n    tag_37:\n      pop\n        /* \"2_Playground/Reentrancy.sol\":567:618  (bool result,) = msg.sender.call{value:_amount}(\"\") */\n      pop\n      swap1\n      pop\n        /* \"2_Playground/Reentrancy.sol\":694:701  _amount */\n      dup2\n        /* \"2_Playground/Reentrancy.sol\":670:678  balances */\n      0x00\n        /* \"2_Playground/Reentrancy.sol\":670:690  balances[msg.sender] */\n      dup1\n        /* \"2_Playground/Reentrancy.sol\":679:689  msg.sender */\n      caller\n        /* \"2_Playground/Reentrancy.sol\":670:690  balances[msg.sender] */\n      0xffffffffffffffffffffffffffffffffffffffff\n      and\n      0xffffffffffffffffffffffffffffffffffffffff\n      and\n      dup2\n      mstore\n      0x20\n      add\n      swap1\n      dup2\n      mstore\n      0x20\n      add\n      0x00\n      keccak256\n      0x00\n        /* \"2_Playground/Reentrancy.sol\":670:701  balances[msg.sender] -= _amount */\n      dup3\n      dup3\n      sload\n      tag_40\n      swap2\n      swap1\n      tag_41\n      jump\t// in\n    tag_40:\n      swap3\n      pop\n      pop\n      dup2\n      swap1\n      sstore\n      pop\n        /* \"2_Playground/Reentrancy.sol\":523:708  if(balances[msg.sender] >= _amount) {... */\n      pop\n    tag_33:\n        /* \"2_Playground/Reentrancy.sol\":478:712  function withdraw(uint _amount) public {... */\n      pop\n      jump\t// out\n        /* \"2_Playground/Reentrancy.sol\":374:474  function balanceOf(address _who) public view returns (uint balance) {... */\n    tag_27:\n        /* \"2_Playground/Reentrancy.sol\":428:440  uint balance */\n      0x00\n        /* \"2_Playground/Reentrancy.sol\":455:463  balances */\n      dup1\n        /* \"2_Playground/Reentrancy.sol\":455:469  balances[_who] */\n      0x00\n        /* \"2_Playground/Reentrancy.sol\":464:468  _who */\n      dup4\n        /* \"2_Playground/Reentrancy.sol\":455:469  balances[_who] */\n      0xffffffffffffffffffffffffffffffffffffffff\n      and\n      0xffffffffffffffffffffffffffffffffffffffff\n      and\n      dup2\n      mstore\n      0x20\n      add\n      swap1\n      dup2\n      mstore\n      0x20\n      add\n      0x00\n      keccak256\n      sload\n        /* \"2_Playground/Reentrancy.sol\":448:469  return balances[_who] */\n      swap1\n      pop\n        /* \"2_Playground/Reentrancy.sol\":374:474  function balanceOf(address _who) public view returns (uint balance) {... */\n      swap2\n      swap1\n      pop\n      jump\t// out\n        /* \"https://github.com/OpenZeppelin/openzeppelin-contracts/blob/master/contracts/utils/math/SafeMath.sol\":2755:2851  function add(uint256 a, uint256 b) internal pure returns (uint256) {... */\n    tag_31:\n        /* \"https://github.com/OpenZeppelin/openzeppelin-contracts/blob/master/contracts/utils/math/SafeMath.sol\":2813:2820  uint256 */\n      0x00\n        /* \"https://github.com/OpenZeppelin/openzeppelin-contracts/blob/master/contracts/utils/math/SafeMath.sol\":2843:2844  b */\n      dup2\n        /* \"https://github.com/OpenZeppelin/openzeppelin-contracts/blob/master/contracts/utils/math/SafeMath.sol\":2839:2840  a */\n      dup4\n        /* \"https://github.com/OpenZeppelin/openzeppelin-contracts/blob/master/contracts/utils/math/SafeMath.sol\":2839:2844  a + b */\n      tag_44\n      swap2\n      swap1\n      tag_45\n      jump\t// in\n    tag_44:\n        /* \"https://github.com/OpenZeppelin/openzeppelin-contracts/blob/master/contracts/utils/math/SafeMath.sol\":2832:2844  return a + b */\n      swap1\n      pop\n        /* \"https://github.com/OpenZeppelin/openzeppelin-contracts/blob/master/contracts/utils/math/SafeMath.sol\":2755:2851  function add(uint256 a, uint256 b) internal pure returns (uint256) {... */\n      swap3\n      swap2\n      pop\n      pop\n      jump\t// out\n        /* \"#utility.yul\":7:146   */\n    tag_47:\n      0x00\n        /* \"#utility.yul\":91:97   */\n      dup2\n        /* \"#utility.yul\":78:98   */\n      calldataload\n        /* \"#utility.yul\":69:98   */\n      swap1\n      pop\n        /* \"#utility.yul\":107:140   */\n      tag_49\n        /* \"#utility.yul\":134:139   */\n      dup2\n        /* \"#utility.yul\":107:140   */\n      tag_50\n      jump\t// in\n    tag_49:\n        /* \"#utility.yul\":59:146   */\n      swap3\n      swap2\n      pop\n      pop\n      jump\t// out\n        /* \"#utility.yul\":152:291   */\n    tag_51:\n      0x00\n        /* \"#utility.yul\":236:242   */\n      dup2\n        /* \"#utility.yul\":223:243   */\n      calldataload\n        /* \"#utility.yul\":214:243   */\n      swap1\n      pop\n        /* \"#utility.yul\":252:285   */\n      tag_53\n        /* \"#utility.yul\":279:284   */\n      dup2\n        /* \"#utility.yul\":252:285   */\n      tag_54\n      jump\t// in\n    tag_53:\n        /* \"#utility.yul\":204:291   */\n      swap3\n      swap2\n      pop\n      pop\n      jump\t// out\n        /* \"#utility.yul\":297:559   */\n    tag_11:\n      0x00\n        /* \"#utility.yul\":405:407   */\n      0x20\n        /* \"#utility.yul\":393:402   */\n      dup3\n        /* \"#utility.yul\":384:391   */\n      dup5\n        /* \"#utility.yul\":380:403   */\n      sub\n        /* \"#utility.yul\":376:408   */\n      slt\n        /* \"#utility.yul\":373:375   */\n      iszero\n      tag_56\n      jumpi\n        /* \"#utility.yul\":421:422   */\n      0x00\n        /* \"#utility.yul\":418:419   */\n      dup1\n        /* \"#utility.yul\":411:423   */\n      revert\n        /* \"#utility.yul\":373:375   */\n    tag_56:\n        /* \"#utility.yul\":464:465   */\n      0x00\n        /* \"#utility.yul\":489:542   */\n      tag_57\n        /* \"#utility.yul\":534:541   */\n      dup5\n        /* \"#utility.yul\":525:531   */\n      dup3\n        /* \"#utility.yul\":514:523   */\n      dup6\n        /* \"#utility.yul\":510:532   */\n      add\n        /* \"#utility.yul\":489:542   */\n      tag_47\n      jump\t// in\n    tag_57:\n        /* \"#utility.yul\":479:542   */\n      swap2\n      pop\n        /* \"#utility.yul\":435:552   */\n      pop\n        /* \"#utility.yul\":363:559   */\n      swap3\n      swap2\n      pop\n      pop\n      jump\t// out\n        /* \"#utility.yul\":565:827   */\n    tag_22:\n      0x00\n        /* \"#utility.yul\":673:675   */\n      0x20\n        /* \"#utility.yul\":661:670   */\n      dup3\n        /* \"#utility.yul\":652:659   */\n      dup5\n        /* \"#utility.yul\":648:671   */\n      sub\n        /* \"#utility.yul\":644:676   */\n      slt\n        /* \"#utility.yul\":641:643   */\n      iszero\n      tag_59\n      jumpi\n        /* \"#utility.yul\":689:690   */\n      0x00\n        /* \"#utility.yul\":686:687   */\n      dup1\n        /* \"#utility.yul\":679:691   */\n      revert\n        /* \"#utility.yul\":641:643   */\n    tag_59:\n        /* \"#utility.yul\":732:733   */\n      0x00\n        /* \"#utility.yul\":757:810   */\n      tag_60\n        /* \"#utility.yul\":802:809   */\n      dup5\n        /* \"#utility.yul\":793:799   */\n      dup3\n        /* \"#utility.yul\":782:791   */\n      dup6\n        /* \"#utility.yul\":778:800   */\n      add\n        /* \"#utility.yul\":757:810   */\n      tag_51\n      jump\t// in\n    tag_60:\n        /* \"#utility.yul\":747:810   */\n      swap2\n      pop\n        /* \"#utility.yul\":703:820   */\n      pop\n        /* \"#utility.yul\":631:827   */\n      swap3\n      swap2\n      pop\n      pop\n      jump\t// out\n        /* \"#utility.yul\":833:1130   */\n    tag_61:\n      0x00\n        /* \"#utility.yul\":1013:1096   */\n      tag_63\n        /* \"#utility.yul\":1094:1095   */\n      0x00\n        /* \"#utility.yul\":1089:1092   */\n      dup4\n        /* \"#utility.yul\":1013:1096   */\n      tag_64\n      jump\t// in\n    tag_63:\n        /* \"#utility.yul\":1006:1096   */\n      swap2\n      pop\n        /* \"#utility.yul\":1122:1123   */\n      0x00\n        /* \"#utility.yul\":1117:1120   */\n      dup3\n        /* \"#utility.yul\":1113:1124   */\n      add\n        /* \"#utility.yul\":1106:1124   */\n      swap1\n      pop\n        /* \"#utility.yul\":996:1130   */\n      swap2\n      swap1\n      pop\n      jump\t// out\n        /* \"#utility.yul\":1136:1254   */\n    tag_65:\n        /* \"#utility.yul\":1223:1247   */\n      tag_67\n        /* \"#utility.yul\":1241:1246   */\n      dup2\n        /* \"#utility.yul\":1223:1247   */\n      tag_68\n      jump\t// in\n    tag_67:\n        /* \"#utility.yul\":1218:1221   */\n      dup3\n        /* \"#utility.yul\":1211:1248   */\n      mstore\n        /* \"#utility.yul\":1201:1254   */\n      pop\n      pop\n      jump\t// out\n        /* \"#utility.yul\":1260:1639   */\n    tag_35:\n      0x00\n        /* \"#utility.yul\":1466:1613   */\n      tag_70\n        /* \"#utility.yul\":1609:1612   */\n      dup3\n        /* \"#utility.yul\":1466:1613   */\n      tag_61\n      jump\t// in\n    tag_70:\n        /* \"#utility.yul\":1459:1613   */\n      swap2\n      pop\n        /* \"#utility.yul\":1630:1633   */\n      dup2\n        /* \"#utility.yul\":1623:1633   */\n      swap1\n      pop\n        /* \"#utility.yul\":1448:1639   */\n      swap2\n      swap1\n      pop\n      jump\t// out\n        /* \"#utility.yul\":1645:1867   */\n    tag_18:\n      0x00\n        /* \"#utility.yul\":1776:1778   */\n      0x20\n        /* \"#utility.yul\":1765:1774   */\n      dup3\n        /* \"#utility.yul\":1761:1779   */\n      add\n        /* \"#utility.yul\":1753:1779   */\n      swap1\n      pop\n        /* \"#utility.yul\":1789:1860   */\n      tag_72\n        /* \"#utility.yul\":1857:1858   */\n      0x00\n        /* \"#utility.yul\":1846:1855   */\n      dup4\n        /* \"#utility.yul\":1842:1859   */\n      add\n        /* \"#utility.yul\":1833:1839   */\n      dup5\n        /* \"#utility.yul\":1789:1860   */\n      tag_65\n      jump\t// in\n    tag_72:\n        /* \"#utility.yul\":1743:1867   */\n      swap3\n      swap2\n      pop\n      pop\n      jump\t// out\n        /* \"#utility.yul\":1873:2020   */\n    tag_64:\n      0x00\n        /* \"#utility.yul\":2011:2014   */\n      dup2\n        /* \"#utility.yul\":1996:2014   */\n      swap1\n      pop\n        /* \"#utility.yul\":1986:2020   */\n      swap3\n      swap2\n      pop\n      pop\n      jump\t// out\n        /* \"#utility.yul\":2026:2331   */\n    tag_45:\n      0x00\n        /* \"#utility.yul\":2085:2105   */\n      tag_75\n        /* \"#utility.yul\":2103:2104   */\n      dup3\n        /* \"#utility.yul\":2085:2105   */\n      tag_68\n      jump\t// in\n    tag_75:\n        /* \"#utility.yul\":2080:2105   */\n      swap2\n      pop\n        /* \"#utility.yul\":2119:2139   */\n      tag_76\n        /* \"#utility.yul\":2137:2138   */\n      dup4\n        /* \"#utility.yul\":2119:2139   */\n      tag_68\n      jump\t// in\n    tag_76:\n        /* \"#utility.yul\":2114:2139   */\n      swap3\n      pop\n        /* \"#utility.yul\":2273:2274   */\n      dup3\n        /* \"#utility.yul\":2205:2271   */\n      0xffffffffffffffffffffffffffffffffffffffffffffffffffffffffffffffff\n        /* \"#utility.yul\":2201:2275   */\n      sub\n        /* \"#utility.yul\":2198:2199   */\n      dup3\n        /* \"#utility.yul\":2195:2276   */\n      gt\n        /* \"#utility.yul\":2192:2194   */\n      iszero\n      tag_77\n      jumpi\n        /* \"#utility.yul\":2279:2297   */\n      tag_78\n      tag_79\n      jump\t// in\n    tag_78:\n        /* \"#utility.yul\":2192:2194   */\n    tag_77:\n        /* \"#utility.yul\":2323:2324   */\n      dup3\n        /* \"#utility.yul\":2320:2321   */\n      dup3\n        /* \"#utility.yul\":2316:2325   */\n      add\n        /* \"#utility.yul\":2309:2325   */\n      swap1\n      pop\n        /* \"#utility.yul\":2070:2331   */\n      swap3\n      swap2\n      pop\n      pop\n      jump\t// out\n        /* \"#utility.yul\":2337:2528   */\n    tag_41:\n      0x00\n        /* \"#utility.yul\":2397:2417   */\n      tag_81\n        /* \"#utility.yul\":2415:2416   */\n      dup3\n        /* \"#utility.yul\":2397:2417   */\n      tag_68\n      jump\t// in\n    tag_81:\n        /* \"#utility.yul\":2392:2417   */\n      swap2\n      pop\n        /* \"#utility.yul\":2431:2451   */\n      tag_82\n        /* \"#utility.yul\":2449:2450   */\n      dup4\n        /* \"#utility.yul\":2431:2451   */\n      tag_68\n      jump\t// in\n    tag_82:\n        /* \"#utility.yul\":2426:2451   */\n      swap3\n      pop\n        /* \"#utility.yul\":2470:2471   */\n      dup3\n        /* \"#utility.yul\":2467:2468   */\n      dup3\n        /* \"#utility.yul\":2464:2472   */\n      lt\n        /* \"#utility.yul\":2461:2463   */\n      iszero\n      tag_83\n      jumpi\n        /* \"#utility.yul\":2475:2493   */\n      tag_84\n      tag_79\n      jump\t// in\n    tag_84:\n        /* \"#utility.yul\":2461:2463   */\n    tag_83:\n        /* \"#utility.yul\":2520:2521   */\n      dup3\n        /* \"#utility.yul\":2517:2518   */\n      dup3\n        /* \"#utility.yul\":2513:2522   */\n      sub\n        /* \"#utility.yul\":2505:2522   */\n      swap1\n      pop\n        /* \"#utility.yul\":2382:2528   */\n      swap3\n      swap2\n      pop\n      pop\n      jump\t// out\n        /* \"#utility.yul\":2534:2630   */\n    tag_85:\n      0x00\n        /* \"#utility.yul\":2600:2624   */\n      tag_87\n        /* \"#utility.yul\":2618:2623   */\n      dup3\n        /* \"#utility.yul\":2600:2624   */\n      tag_88\n      jump\t// in\n    tag_87:\n        /* \"#utility.yul\":2589:2624   */\n      swap1\n      pop\n        /* \"#utility.yul\":2579:2630   */\n      swap2\n      swap1\n      pop\n      jump\t// out\n        /* \"#utility.yul\":2636:2762   */\n    tag_88:\n      0x00\n        /* \"#utility.yul\":2713:2755   */\n      0xffffffffffffffffffffffffffffffffffffffff\n        /* \"#utility.yul\":2706:2711   */\n      dup3\n        /* \"#utility.yul\":2702:2756   */\n      and\n        /* \"#utility.yul\":2691:2756   */\n      swap1\n      pop\n        /* \"#utility.yul\":2681:2762   */\n      swap2\n      swap1\n      pop\n      jump\t// out\n        /* \"#utility.yul\":2768:2845   */\n    tag_68:\n      0x00\n        /* \"#utility.yul\":2834:2839   */\n      dup2\n        /* \"#utility.yul\":2823:2839   */\n      swap1\n      pop\n        /* \"#utility.yul\":2813:2845   */\n      swap2\n      swap1\n      pop\n      jump\t// out\n        /* \"#utility.yul\":2851:3031   */\n    tag_79:\n        /* \"#utility.yul\":2899:2976   */\n      0x4e487b7100000000000000000000000000000000000000000000000000000000\n        /* \"#utility.yul\":2896:2897   */\n      0x00\n        /* \"#utility.yul\":2889:2977   */\n      mstore\n        /* \"#utility.yul\":2996:3000   */\n      0x11\n        /* \"#utility.yul\":2993:2994   */\n      0x04\n        /* \"#utility.yul\":2986:3001   */\n      mstore\n        /* \"#utility.yul\":3020:3024   */\n      0x24\n        /* \"#utility.yul\":3017:3018   */\n      0x00\n        /* \"#utility.yul\":3010:3025   */\n      revert\n        /* \"#utility.yul\":3037:3159   */\n    tag_50:\n        /* \"#utility.yul\":3110:3134   */\n      tag_93\n        /* \"#utility.yul\":3128:3133   */\n      dup2\n        /* \"#utility.yul\":3110:3134   */\n      tag_85\n      jump\t// in\n    tag_93:\n        /* \"#utility.yul\":3103:3108   */\n      dup2\n        /* \"#utility.yul\":3100:3135   */\n      eq\n        /* \"#utility.yul\":3090:3092   */\n      tag_94\n      jumpi\n        /* \"#utility.yul\":3149:3150   */\n      0x00\n        /* \"#utility.yul\":3146:3147   */\n      dup1\n        /* \"#utility.yul\":3139:3151   */\n      revert\n        /* \"#utility.yul\":3090:3092   */\n    tag_94:\n        /* \"#utility.yul\":3080:3159   */\n      pop\n      jump\t// out\n        /* \"#utility.yul\":3165:3287   */\n    tag_54:\n        /* \"#utility.yul\":3238:3262   */\n      tag_96\n        /* \"#utility.yul\":3256:3261   */\n      dup2\n        /* \"#utility.yul\":3238:3262   */\n      tag_68\n      jump\t// in\n    tag_96:\n        /* \"#utility.yul\":3231:3236   */\n      dup2\n        /* \"#utility.yul\":3228:3263   */\n      eq\n        /* \"#utility.yul\":3218:3220   */\n      tag_97\n      jumpi\n        /* \"#utility.yul\":3277:3278   */\n      0x00\n        /* \"#utility.yul\":3274:3275   */\n      dup1\n        /* \"#utility.yul\":3267:3279   */\n      revert\n        /* \"#utility.yul\":3218:3220   */\n    tag_97:\n        /* \"#utility.yul\":3208:3287   */\n      pop\n      jump\t// out\n\n    auxdata: 0xa264697066735822122035dd01d010ab48db743327772000f0cba14878d302a2961fd9a2f71eeebfcfc564736f6c63430008000033\n}\n",
				"bytecode": {
					"linkReferences": {},
					"object": "608060405234801561001057600080fd5b5061055d806100206000396000f3fe6080604052600436106100425760003560e01c8062362a951461004e57806327e235e31461006a5780632e1a7d4d146100a757806370a08231146100d057610049565b3661004957005b600080fd5b6100686004803603810190610063919061034e565b61010d565b005b34801561007657600080fd5b50610091600480360381019061008c919061034e565b6101a3565b60405161009e91906103de565b60405180910390f35b3480156100b357600080fd5b506100ce60048036038101906100c99190610377565b6101bb565b005b3480156100dc57600080fd5b506100f760048036038101906100f2919061034e565b6102c6565b60405161010491906103de565b60405180910390f35b61015e346000808473ffffffffffffffffffffffffffffffffffffffff1673ffffffffffffffffffffffffffffffffffffffff1681526020019081526020016000205461030e90919063ffffffff16565b6000808373ffffffffffffffffffffffffffffffffffffffff1673ffffffffffffffffffffffffffffffffffffffff1681526020019081526020016000208190555050565b60006020528060005260406000206000915090505481565b806000803373ffffffffffffffffffffffffffffffffffffffff1673ffffffffffffffffffffffffffffffffffffffff16815260200190815260200160002054106102c35760003373ffffffffffffffffffffffffffffffffffffffff1682604051610226906103c9565b60006040518083038185875af1925050503d8060008114610263576040519150601f19603f3d011682016040523d82523d6000602084013e610268565b606091505b50509050816000803373ffffffffffffffffffffffffffffffffffffffff1673ffffffffffffffffffffffffffffffffffffffff16815260200190815260200160002060008282546102ba919061045a565b92505081905550505b50565b60008060008373ffffffffffffffffffffffffffffffffffffffff1673ffffffffffffffffffffffffffffffffffffffff168152602001908152602001600020549050919050565b6000818361031c9190610404565b905092915050565b600081359050610333816104f9565b92915050565b60008135905061034881610510565b92915050565b60006020828403121561036057600080fd5b600061036e84828501610324565b91505092915050565b60006020828403121561038957600080fd5b600061039784828501610339565b91505092915050565b60006103ad6000836103f9565b9150600082019050919050565b6103c3816104c0565b82525050565b60006103d4826103a0565b9150819050919050565b60006020820190506103f360008301846103ba565b92915050565b600081905092915050565b600061040f826104c0565b915061041a836104c0565b9250827fffffffffffffffffffffffffffffffffffffffffffffffffffffffffffffffff0382111561044f5761044e6104ca565b5b828201905092915050565b6000610465826104c0565b9150610470836104c0565b925082821015610483576104826104ca565b5b828203905092915050565b6000610499826104a0565b9050919050565b600073ffffffffffffffffffffffffffffffffffffffff82169050919050565b6000819050919050565b7f4e487b7100000000000000000000000000000000000000000000000000000000600052601160045260246000fd5b6105028161048e565b811461050d57600080fd5b50565b610519816104c0565b811461052457600080fd5b5056fea264697066735822122035dd01d010ab48db743327772000f0cba14878d302a2961fd9a2f71eeebfcfc564736f6c63430008000033",
					"opcodes": "PUSH1 0x80 PUSH1 0x40 MSTORE CALLVALUE DUP1 ISZERO PUSH2 0x10 JUMPI PUSH1 0x0 DUP1 REVERT JUMPDEST POP PUSH2 0x55D DUP1 PUSH2 0x20 PUSH1 0x0 CODECOPY PUSH1 0x0 RETURN INVALID PUSH1 0x80 PUSH1 0x40 MSTORE PUSH1 0x4 CALLDATASIZE LT PUSH2 0x42 JUMPI PUSH1 0x0 CALLDATALOAD PUSH1 0xE0 SHR DUP1 PUSH3 0x362A95 EQ PUSH2 0x4E JUMPI DUP1 PUSH4 0x27E235E3 EQ PUSH2 0x6A JUMPI DUP1 PUSH4 0x2E1A7D4D EQ PUSH2 0xA7 JUMPI DUP1 PUSH4 0x70A08231 EQ PUSH2 0xD0 JUMPI PUSH2 0x49 JUMP JUMPDEST CALLDATASIZE PUSH2 0x49 JUMPI STOP JUMPDEST PUSH1 0x0 DUP1 REVERT JUMPDEST PUSH2 0x68 PUSH1 0x4 DUP1 CALLDATASIZE SUB DUP2 ADD SWAP1 PUSH2 0x63 SWAP2 SWAP1 PUSH2 0x34E JUMP JUMPDEST PUSH2 0x10D JUMP JUMPDEST STOP JUMPDEST CALLVALUE DUP1 ISZERO PUSH2 0x76 JUMPI PUSH1 0x0 DUP1 REVERT JUMPDEST POP PUSH2 0x91 PUSH1 0x4 DUP1 CALLDATASIZE SUB DUP2 ADD SWAP1 PUSH2 0x8C SWAP2 SWAP1 PUSH2 0x34E JUMP JUMPDEST PUSH2 0x1A3 JUMP JUMPDEST PUSH1 0x40 MLOAD PUSH2 0x9E SWAP2 SWAP1 PUSH2 0x3DE JUMP JUMPDEST PUSH1 0x40 MLOAD DUP1 SWAP2 SUB SWAP1 RETURN JUMPDEST CALLVALUE DUP1 ISZERO PUSH2 0xB3 JUMPI PUSH1 0x0 DUP1 REVERT JUMPDEST POP PUSH2 0xCE PUSH1 0x4 DUP1 CALLDATASIZE SUB DUP2 ADD SWAP1 PUSH2 0xC9 SWAP2 SWAP1 PUSH2 0x377 JUMP JUMPDEST PUSH2 0x1BB JUMP JUMPDEST STOP JUMPDEST CALLVALUE DUP1 ISZERO PUSH2 0xDC JUMPI PUSH1 0x0 DUP1 REVERT JUMPDEST POP PUSH2 0xF7 PUSH1 0x4 DUP1 CALLDATASIZE SUB DUP2 ADD SWAP1 PUSH2 0xF2 SWAP2 SWAP1 PUSH2 0x34E JUMP JUMPDEST PUSH2 0x2C6 JUMP JUMPDEST PUSH1 0x40 MLOAD PUSH2 0x104 SWAP2 SWAP1 PUSH2 0x3DE JUMP JUMPDEST PUSH1 0x40 MLOAD DUP1 SWAP2 SUB SWAP1 RETURN JUMPDEST PUSH2 0x15E CALLVALUE PUSH1 0x0 DUP1 DUP5 PUSH20 0xFFFFFFFFFFFFFFFFFFFFFFFFFFFFFFFFFFFFFFFF AND PUSH20 0xFFFFFFFFFFFFFFFFFFFFFFFFFFFFFFFFFFFFFFFF AND DUP2 MSTORE PUSH1 0x20 ADD SWAP1 DUP2 MSTORE PUSH1 0x20 ADD PUSH1 0x0 KECCAK256 SLOAD PUSH2 0x30E SWAP1 SWAP2 SWAP1 PUSH4 0xFFFFFFFF AND JUMP JUMPDEST PUSH1 0x0 DUP1 DUP4 PUSH20 0xFFFFFFFFFFFFFFFFFFFFFFFFFFFFFFFFFFFFFFFF AND PUSH20 0xFFFFFFFFFFFFFFFFFFFFFFFFFFFFFFFFFFFFFFFF AND DUP2 MSTORE PUSH1 0x20 ADD SWAP1 DUP2 MSTORE PUSH1 0x20 ADD PUSH1 0x0 KECCAK256 DUP2 SWAP1 SSTORE POP POP JUMP JUMPDEST PUSH1 0x0 PUSH1 0x20 MSTORE DUP1 PUSH1 0x0 MSTORE PUSH1 0x40 PUSH1 0x0 KECCAK256 PUSH1 0x0 SWAP2 POP SWAP1 POP SLOAD DUP2 JUMP JUMPDEST DUP1 PUSH1 0x0 DUP1 CALLER PUSH20 0xFFFFFFFFFFFFFFFFFFFFFFFFFFFFFFFFFFFFFFFF AND PUSH20 0xFFFFFFFFFFFFFFFFFFFFFFFFFFFFFFFFFFFFFFFF AND DUP2 MSTORE PUSH1 0x20 ADD SWAP1 DUP2 MSTORE PUSH1 0x20 ADD PUSH1 0x0 KECCAK256 SLOAD LT PUSH2 0x2C3 JUMPI PUSH1 0x0 CALLER PUSH20 0xFFFFFFFFFFFFFFFFFFFFFFFFFFFFFFFFFFFFFFFF AND DUP3 PUSH1 0x40 MLOAD PUSH2 0x226 SWAP1 PUSH2 0x3C9 JUMP JUMPDEST PUSH1 0x0 PUSH1 0x40 MLOAD DUP1 DUP4 SUB DUP2 DUP6 DUP8 GAS CALL SWAP3 POP POP POP RETURNDATASIZE DUP1 PUSH1 0x0 DUP2 EQ PUSH2 0x263 JUMPI PUSH1 0x40 MLOAD SWAP2 POP PUSH1 0x1F NOT PUSH1 0x3F RETURNDATASIZE ADD AND DUP3 ADD PUSH1 0x40 MSTORE RETURNDATASIZE DUP3 MSTORE RETURNDATASIZE PUSH1 0x0 PUSH1 0x20 DUP5 ADD RETURNDATACOPY PUSH2 0x268 JUMP JUMPDEST PUSH1 0x60 SWAP2 POP JUMPDEST POP POP SWAP1 POP DUP2 PUSH1 0x0 DUP1 CALLER PUSH20 0xFFFFFFFFFFFFFFFFFFFFFFFFFFFFFFFFFFFFFFFF AND PUSH20 0xFFFFFFFFFFFFFFFFFFFFFFFFFFFFFFFFFFFFFFFF AND DUP2 MSTORE PUSH1 0x20 ADD SWAP1 DUP2 MSTORE PUSH1 0x20 ADD PUSH1 0x0 KECCAK256 PUSH1 0x0 DUP3 DUP3 SLOAD PUSH2 0x2BA SWAP2 SWAP1 PUSH2 0x45A JUMP JUMPDEST SWAP3 POP POP DUP2 SWAP1 SSTORE POP POP JUMPDEST POP JUMP JUMPDEST PUSH1 0x0 DUP1 PUSH1 0x0 DUP4 PUSH20 0xFFFFFFFFFFFFFFFFFFFFFFFFFFFFFFFFFFFFFFFF AND PUSH20 0xFFFFFFFFFFFFFFFFFFFFFFFFFFFFFFFFFFFFFFFF AND DUP2 MSTORE PUSH1 0x20 ADD SWAP1 DUP2 MSTORE PUSH1 0x20 ADD PUSH1 0x0 KECCAK256 SLOAD SWAP1 POP SWAP2 SWAP1 POP JUMP JUMPDEST PUSH1 0x0 DUP2 DUP4 PUSH2 0x31C SWAP2 SWAP1 PUSH2 0x404 JUMP JUMPDEST SWAP1 POP SWAP3 SWAP2 POP POP JUMP JUMPDEST PUSH1 0x0 DUP2 CALLDATALOAD SWAP1 POP PUSH2 0x333 DUP2 PUSH2 0x4F9 JUMP JUMPDEST SWAP3 SWAP2 POP POP JUMP JUMPDEST PUSH1 0x0 DUP2 CALLDATALOAD SWAP1 POP PUSH2 0x348 DUP2 PUSH2 0x510 JUMP JUMPDEST SWAP3 SWAP2 POP POP JUMP JUMPDEST PUSH1 0x0 PUSH1 0x20 DUP3 DUP5 SUB SLT ISZERO PUSH2 0x360 JUMPI PUSH1 0x0 DUP1 REVERT JUMPDEST PUSH1 0x0 PUSH2 0x36E DUP5 DUP3 DUP6 ADD PUSH2 0x324 JUMP JUMPDEST SWAP2 POP POP SWAP3 SWAP2 POP POP JUMP JUMPDEST PUSH1 0x0 PUSH1 0x20 DUP3 DUP5 SUB SLT ISZERO PUSH2 0x389 JUMPI PUSH1 0x0 DUP1 REVERT JUMPDEST PUSH1 0x0 PUSH2 0x397 DUP5 DUP3 DUP6 ADD PUSH2 0x339 JUMP JUMPDEST SWAP2 POP POP SWAP3 SWAP2 POP POP JUMP JUMPDEST PUSH1 0x0 PUSH2 0x3AD PUSH1 0x0 DUP4 PUSH2 0x3F9 JUMP JUMPDEST SWAP2 POP PUSH1 0x0 DUP3 ADD SWAP1 POP SWAP2 SWAP1 POP JUMP JUMPDEST PUSH2 0x3C3 DUP2 PUSH2 0x4C0 JUMP JUMPDEST DUP3 MSTORE POP POP JUMP JUMPDEST PUSH1 0x0 PUSH2 0x3D4 DUP3 PUSH2 0x3A0 JUMP JUMPDEST SWAP2 POP DUP2 SWAP1 POP SWAP2 SWAP1 POP JUMP JUMPDEST PUSH1 0x0 PUSH1 0x20 DUP3 ADD SWAP1 POP PUSH2 0x3F3 PUSH1 0x0 DUP4 ADD DUP5 PUSH2 0x3BA JUMP JUMPDEST SWAP3 SWAP2 POP POP JUMP JUMPDEST PUSH1 0x0 DUP2 SWAP1 POP SWAP3 SWAP2 POP POP JUMP JUMPDEST PUSH1 0x0 PUSH2 0x40F DUP3 PUSH2 0x4C0 JUMP JUMPDEST SWAP2 POP PUSH2 0x41A DUP4 PUSH2 0x4C0 JUMP JUMPDEST SWAP3 POP DUP3 PUSH32 0xFFFFFFFFFFFFFFFFFFFFFFFFFFFFFFFFFFFFFFFFFFFFFFFFFFFFFFFFFFFFFFFF SUB DUP3 GT ISZERO PUSH2 0x44F JUMPI PUSH2 0x44E PUSH2 0x4CA JUMP JUMPDEST JUMPDEST DUP3 DUP3 ADD SWAP1 POP SWAP3 SWAP2 POP POP JUMP JUMPDEST PUSH1 0x0 PUSH2 0x465 DUP3 PUSH2 0x4C0 JUMP JUMPDEST SWAP2 POP PUSH2 0x470 DUP4 PUSH2 0x4C0 JUMP JUMPDEST SWAP3 POP DUP3 DUP3 LT ISZERO PUSH2 0x483 JUMPI PUSH2 0x482 PUSH2 0x4CA JUMP JUMPDEST JUMPDEST DUP3 DUP3 SUB SWAP1 POP SWAP3 SWAP2 POP POP JUMP JUMPDEST PUSH1 0x0 PUSH2 0x499 DUP3 PUSH2 0x4A0 JUMP JUMPDEST SWAP1 POP SWAP2 SWAP1 POP JUMP JUMPDEST PUSH1 0x0 PUSH20 0xFFFFFFFFFFFFFFFFFFFFFFFFFFFFFFFFFFFFFFFF DUP3 AND SWAP1 POP SWAP2 SWAP1 POP JUMP JUMPDEST PUSH1 0x0 DUP2 SWAP1 POP SWAP2 SWAP1 POP JUMP JUMPDEST PUSH32 0x4E487B7100000000000000000000000000000000000000000000000000000000 PUSH1 0x0 MSTORE PUSH1 0x11 PUSH1 0x4 MSTORE PUSH1 0x24 PUSH1 0x0 REVERT JUMPDEST PUSH2 0x502 DUP2 PUSH2 0x48E JUMP JUMPDEST DUP2 EQ PUSH2 0x50D JUMPI PUSH1 0x0 DUP1 REVERT JUMPDEST POP JUMP JUMPDEST PUSH2 0x519 DUP2 PUSH2 0x4C0 JUMP JUMPDEST DUP2 EQ PUSH2 0x524 JUMPI PUSH1 0x0 DUP1 REVERT JUMPDEST POP JUMP INVALID LOG2 PUSH5 0x6970667358 0x22 SLT KECCAK256 CALLDATALOAD 0xDD ADD 0xD0 LT 0xAB 0x48 0xDB PUSH21 0x3327772000F0CBA14878D302A2961FD9A2F71EEEBF 0xCF 0xC5 PUSH5 0x736F6C6343 STOP ADDMOD STOP STOP CALLER "
				},
				"gasEstimates": {
					"creation": {
						"codeDepositCost": "274600",
						"executionCost": "312",
						"totalCost": "274912"
					},
					"external": {
						"balanceOf(address)": "1585",
						"balances(address)": "1514",
						"donate(address)": "infinite",
						"withdraw(uint256)": "infinite"
					}
				},
				"methodIdentifiers": {
					"balanceOf(address)": "70a08231",
					"balances(address)": "27e235e3",
					"donate(address)": "00362a95",
					"withdraw(uint256)": "2e1a7d4d"
				}
			},
			"storageLayout": {
				"storage": [
					{
						"astId": 9,
						"contract": "2_Playground/Reentrancy.sol:Reentrance",
						"label": "balances",
						"offset": 0,
						"slot": "0",
						"type": "t_mapping(t_address,t_uint256)"
					}
				],
				"types": {
					"t_address": {
						"encoding": "inplace",
						"label": "address",
						"numberOfBytes": "20"
					},
					"t_mapping(t_address,t_uint256)": {
						"encoding": "mapping",
						"key": "t_address",
						"label": "mapping(address => uint256)",
						"numberOfBytes": "32",
						"value": "t_uint256"
					},
					"t_uint256": {
						"encoding": "inplace",
						"label": "uint256",
						"numberOfBytes": "32"
					}
				}
			},
			"userdoc": {
				"kind": "user",
				"methods": {},
				"version": 1
			}
		}
	}
}