{
	"SolidityByExample/4_DeFi/15_StableSwapAMM.sol": {
		"StableSwap": {
			"abi": [
				{
					"inputs": [
						{
							"internalType": "uint256[3]",
							"name": "amounts",
							"type": "uint256[3]"
						},
						{
							"internalType": "uint256",
							"name": "minShares",
							"type": "uint256"
						}
					],
					"name": "addLiquidity",
					"outputs": [
						{
							"internalType": "uint256",
							"name": "shares",
							"type": "uint256"
						}
					],
					"stateMutability": "nonpayable",
					"type": "function"
				},
				{
					"inputs": [
						{
							"internalType": "address",
							"name": "",
							"type": "address"
						}
					],
					"name": "balanceOf",
					"outputs": [
						{
							"internalType": "uint256",
							"name": "",
							"type": "uint256"
						}
					],
					"stateMutability": "view",
					"type": "function"
				},
				{
					"inputs": [
						{
							"internalType": "uint256",
							"name": "",
							"type": "uint256"
						}
					],
					"name": "balances",
					"outputs": [
						{
							"internalType": "uint256",
							"name": "",
							"type": "uint256"
						}
					],
					"stateMutability": "view",
					"type": "function"
				},
				{
					"inputs": [
						{
							"internalType": "uint256",
							"name": "shares",
							"type": "uint256"
						},
						{
							"internalType": "uint256",
							"name": "i",
							"type": "uint256"
						}
					],
					"name": "calcWithdrawOneToken",
					"outputs": [
						{
							"internalType": "uint256",
							"name": "dy",
							"type": "uint256"
						},
						{
							"internalType": "uint256",
							"name": "fee",
							"type": "uint256"
						}
					],
					"stateMutability": "view",
					"type": "function"
				},
				{
					"inputs": [],
					"name": "getVirtualPrice",
					"outputs": [
						{
							"internalType": "uint256",
							"name": "",
							"type": "uint256"
						}
					],
					"stateMutability": "view",
					"type": "function"
				},
				{
					"inputs": [
						{
							"internalType": "uint256",
							"name": "shares",
							"type": "uint256"
						},
						{
							"internalType": "uint256[3]",
							"name": "minAmountsOut",
							"type": "uint256[3]"
						}
					],
					"name": "removeLiquidity",
					"outputs": [
						{
							"internalType": "uint256[3]",
							"name": "amountsOut",
							"type": "uint256[3]"
						}
					],
					"stateMutability": "nonpayable",
					"type": "function"
				},
				{
					"inputs": [
						{
							"internalType": "uint256",
							"name": "shares",
							"type": "uint256"
						},
						{
							"internalType": "uint256",
							"name": "i",
							"type": "uint256"
						},
						{
							"internalType": "uint256",
							"name": "minAmountOut",
							"type": "uint256"
						}
					],
					"name": "removeLiquidityOneToken",
					"outputs": [
						{
							"internalType": "uint256",
							"name": "amountOut",
							"type": "uint256"
						}
					],
					"stateMutability": "nonpayable",
					"type": "function"
				},
				{
					"inputs": [
						{
							"internalType": "uint256",
							"name": "i",
							"type": "uint256"
						},
						{
							"internalType": "uint256",
							"name": "j",
							"type": "uint256"
						},
						{
							"internalType": "uint256",
							"name": "dx",
							"type": "uint256"
						},
						{
							"internalType": "uint256",
							"name": "minDy",
							"type": "uint256"
						}
					],
					"name": "swap",
					"outputs": [
						{
							"internalType": "uint256",
							"name": "dy",
							"type": "uint256"
						}
					],
					"stateMutability": "nonpayable",
					"type": "function"
				},
				{
					"inputs": [
						{
							"internalType": "uint256",
							"name": "",
							"type": "uint256"
						}
					],
					"name": "tokens",
					"outputs": [
						{
							"internalType": "address",
							"name": "",
							"type": "address"
						}
					],
					"stateMutability": "view",
					"type": "function"
				},
				{
					"inputs": [],
					"name": "totalSupply",
					"outputs": [
						{
							"internalType": "uint256",
							"name": "",
							"type": "uint256"
						}
					],
					"stateMutability": "view",
					"type": "function"
				}
			],
			"devdoc": {
				"kind": "dev",
				"methods": {
					"removeLiquidityOneToken(uint256,uint256,uint256)": {
						"params": {
							"i": "Token to withdraw",
							"minAmountOut": "Minimum amount of token i that must be withdrawn",
							"shares": "Shares to burn"
						}
					},
					"swap(uint256,uint256,uint256,uint256)": {
						"params": {
							"dx": "Token in amount",
							"i": "Index of token in",
							"j": "Index of token out",
							"minDy": "Minimum token out"
						}
					}
				},
				"version": 1
			},
			"evm": {
				"assembly": "    /* \"SolidityByExample/4_DeFi/15_StableSwapAMM.sol\":680:12263  contract StableSwap {... */\n  mstore(0x40, 0x80)\n    /* \"SolidityByExample/4_DeFi/15_StableSwapAMM.sol\":1613:1658  uint[N] private multipliers = [1, 1e12, 1e12] */\n  mload(0x40)\n  dup1\n  0x60\n  add\n  0x40\n  mstore\n  dup1\n    /* \"SolidityByExample/4_DeFi/15_StableSwapAMM.sol\":1644:1645  1 */\n  0x01\n    /* \"SolidityByExample/4_DeFi/15_StableSwapAMM.sol\":1613:1658  uint[N] private multipliers = [1, 1e12, 1e12] */\n  0xffffffffff\n  and\n  dup2\n  mstore\n  0x20\n  add\n    /* \"SolidityByExample/4_DeFi/15_StableSwapAMM.sol\":1647:1651  1e12 */\n  0xe8d4a51000\n    /* \"SolidityByExample/4_DeFi/15_StableSwapAMM.sol\":1613:1658  uint[N] private multipliers = [1, 1e12, 1e12] */\n  0xffffffffff\n  and\n  dup2\n  mstore\n  0x20\n  add\n    /* \"SolidityByExample/4_DeFi/15_StableSwapAMM.sol\":1653:1657  1e12 */\n  0xe8d4a51000\n    /* \"SolidityByExample/4_DeFi/15_StableSwapAMM.sol\":1613:1658  uint[N] private multipliers = [1, 1e12, 1e12] */\n  0xffffffffff\n  and\n  dup2\n  mstore\n  pop\n  0x03\n  swap1\n  0x03\n  tag_1\n  swap3\n  swap2\n  swap1\n  tag_2\n  jump\t// in\ntag_1:\n  pop\n    /* \"SolidityByExample/4_DeFi/15_StableSwapAMM.sol\":680:12263  contract StableSwap {... */\n  callvalue\n  dup1\n  iszero\n  tag_3\n  jumpi\n  0x00\n  dup1\n  revert\ntag_3:\n  pop\n  jump(tag_4)\ntag_2:\n  dup3\n  0x03\n  dup2\n  add\n  swap3\n  dup3\n  iszero\n  tag_5\n  jumpi\n  swap2\n  0x20\n  mul\n  dup3\n  add\ntag_6:\n  dup3\n  dup2\n  gt\n  iszero\n  tag_7\n  jumpi\n  dup3\n  mload\n  dup3\n  swap1\n  0xffffffffff\n  and\n  swap1\n  sstore\n  swap2\n  0x20\n  add\n  swap2\n  swap1\n  0x01\n  add\n  swap1\n  jump(tag_6)\ntag_7:\ntag_5:\n  pop\n  swap1\n  pop\n  tag_8\n  swap2\n  swap1\n  tag_9\n  jump\t// in\ntag_8:\n  pop\n  swap1\n  jump\t// out\ntag_9:\ntag_10:\n  dup1\n  dup3\n  gt\n  iszero\n  tag_11\n  jumpi\n  0x00\n  dup2\n  0x00\n  swap1\n  sstore\n  pop\n  0x01\n  add\n  jump(tag_10)\ntag_11:\n  pop\n  swap1\n  jump\t// out\ntag_4:\n  dataSize(sub_0)\n  dup1\n  dataOffset(sub_0)\n  0x00\n  codecopy\n  0x00\n  return\nstop\n\nsub_0: assembly {\n        /* \"SolidityByExample/4_DeFi/15_StableSwapAMM.sol\":680:12263  contract StableSwap {... */\n      mstore(0x40, 0x80)\n      callvalue\n      dup1\n      iszero\n      tag_1\n      jumpi\n      0x00\n      dup1\n      revert\n    tag_1:\n      pop\n      jumpi(tag_2, lt(calldatasize, 0x04))\n      shr(0xe0, calldataload(0x00))\n      dup1\n      0x70a08231\n      gt\n      tag_13\n      jumpi\n      dup1\n      0x70a08231\n      eq\n      tag_8\n      jumpi\n      dup1\n      0xa4bf0446\n      eq\n      tag_9\n      jumpi\n      dup1\n      0xa60dc3b1\n      eq\n      tag_10\n      jumpi\n      dup1\n      0xd035862c\n      eq\n      tag_11\n      jumpi\n      dup1\n      0xe25aa5fa\n      eq\n      tag_12\n      jumpi\n      jump(tag_2)\n    tag_13:\n      dup1\n      0x18160ddd\n      eq\n      tag_3\n      jumpi\n      dup1\n      0x4903b0d1\n      eq\n      tag_4\n      jumpi\n      dup1\n      0x4f64b2be\n      eq\n      tag_5\n      jumpi\n      dup1\n      0x5673b02d\n      eq\n      tag_6\n      jumpi\n      dup1\n      0x7066b5b2\n      eq\n      tag_7\n      jumpi\n    tag_2:\n      0x00\n      dup1\n      revert\n        /* \"SolidityByExample/4_DeFi/15_StableSwapAMM.sol\":1770:1793  uint public totalSupply */\n    tag_3:\n      tag_14\n      tag_15\n      jump\t// in\n    tag_14:\n      mload(0x40)\n      tag_16\n      swap2\n      swap1\n      tag_17\n      jump\t// in\n    tag_16:\n      mload(0x40)\n      dup1\n      swap2\n      sub\n      swap1\n      return\n        /* \"SolidityByExample/4_DeFi/15_StableSwapAMM.sol\":1664:1687  uint[N] public balances */\n    tag_4:\n      tag_18\n      0x04\n      dup1\n      calldatasize\n      sub\n      dup2\n      add\n      swap1\n      tag_19\n      swap2\n      swap1\n      tag_20\n      jump\t// in\n    tag_19:\n      tag_21\n      jump\t// in\n    tag_18:\n      mload(0x40)\n      tag_22\n      swap2\n      swap1\n      tag_17\n      jump\t// in\n    tag_22:\n      mload(0x40)\n      dup1\n      swap2\n      sub\n      swap1\n      return\n        /* \"SolidityByExample/4_DeFi/15_StableSwapAMM.sol\":1467:1491  address[N] public tokens */\n    tag_5:\n      tag_23\n      0x04\n      dup1\n      calldatasize\n      sub\n      dup2\n      add\n      swap1\n      tag_24\n      swap2\n      swap1\n      tag_20\n      jump\t// in\n    tag_24:\n      tag_25\n      jump\t// in\n    tag_23:\n      mload(0x40)\n      tag_26\n      swap2\n      swap1\n      tag_27\n      jump\t// in\n    tag_26:\n      mload(0x40)\n      dup1\n      swap2\n      sub\n      swap1\n      return\n        /* \"SolidityByExample/4_DeFi/15_StableSwapAMM.sol\":7028:7807  function swap(... */\n    tag_6:\n      tag_28\n      0x04\n      dup1\n      calldatasize\n      sub\n      dup2\n      add\n      swap1\n      tag_29\n      swap2\n      swap1\n      tag_30\n      jump\t// in\n    tag_29:\n      tag_31\n      jump\t// in\n    tag_28:\n      mload(0x40)\n      tag_32\n      swap2\n      swap1\n      tag_17\n      jump\t// in\n    tag_32:\n      mload(0x40)\n      dup1\n      swap2\n      sub\n      swap1\n      return\n        /* \"SolidityByExample/4_DeFi/15_StableSwapAMM.sol\":11872:12261  function removeLiquidityOneToken(... */\n    tag_7:\n      tag_33\n      0x04\n      dup1\n      calldatasize\n      sub\n      dup2\n      add\n      swap1\n      tag_34\n      swap2\n      swap1\n      tag_35\n      jump\t// in\n    tag_34:\n      tag_36\n      jump\t// in\n    tag_33:\n      mload(0x40)\n      tag_37\n      swap2\n      swap1\n      tag_17\n      jump\t// in\n    tag_37:\n      mload(0x40)\n      dup1\n      swap2\n      sub\n      swap1\n      return\n        /* \"SolidityByExample/4_DeFi/15_StableSwapAMM.sol\":1799:1840  mapping(address => uint) public balanceOf */\n    tag_8:\n      tag_38\n      0x04\n      dup1\n      calldatasize\n      sub\n      dup2\n      add\n      swap1\n      tag_39\n      swap2\n      swap1\n      tag_40\n      jump\t// in\n    tag_39:\n      tag_41\n      jump\t// in\n    tag_38:\n      mload(0x40)\n      tag_42\n      swap2\n      swap1\n      tag_17\n      jump\t// in\n    tag_42:\n      mload(0x40)\n      dup1\n      swap2\n      sub\n      swap1\n      return\n        /* \"SolidityByExample/4_DeFi/15_StableSwapAMM.sol\":7813:9596  function addLiquidity(uint[N] calldata amounts, uint minShares)... */\n    tag_9:\n      tag_43\n      0x04\n      dup1\n      calldatasize\n      sub\n      dup2\n      add\n      swap1\n      tag_44\n      swap2\n      swap1\n      tag_45\n      jump\t// in\n    tag_44:\n      tag_46\n      jump\t// in\n    tag_43:\n      mload(0x40)\n      tag_47\n      swap2\n      swap1\n      tag_17\n      jump\t// in\n    tag_47:\n      mload(0x40)\n      dup1\n      swap2\n      sub\n      swap1\n      return\n        /* \"SolidityByExample/4_DeFi/15_StableSwapAMM.sol\":11482:11659  function calcWithdrawOneToken(uint shares, uint i)... */\n    tag_10:\n      tag_48\n      0x04\n      dup1\n      calldatasize\n      sub\n      dup2\n      add\n      swap1\n      tag_49\n      swap2\n      swap1\n      tag_50\n      jump\t// in\n    tag_49:\n      tag_51\n      jump\t// in\n    tag_48:\n      mload(0x40)\n      tag_52\n      swap3\n      swap2\n      swap1\n      tag_53\n      jump\t// in\n    tag_52:\n      mload(0x40)\n      dup1\n      swap2\n      sub\n      swap1\n      return\n        /* \"SolidityByExample/4_DeFi/15_StableSwapAMM.sol\":9602:10142  function removeLiquidity(uint shares, uint[N] calldata minAmountsOut)... */\n    tag_11:\n      tag_54\n      0x04\n      dup1\n      calldatasize\n      sub\n      dup2\n      add\n      swap1\n      tag_55\n      swap2\n      swap1\n      tag_56\n      jump\t// in\n    tag_55:\n      tag_57\n      jump\t// in\n    tag_54:\n      mload(0x40)\n      tag_58\n      swap2\n      swap1\n      tag_59\n      jump\t// in\n    tag_58:\n      mload(0x40)\n      dup1\n      swap2\n      sub\n      swap1\n      return\n        /* \"SolidityByExample/4_DeFi/15_StableSwapAMM.sol\":6564:6813  function getVirtualPrice() external view returns (uint) {... */\n    tag_12:\n      tag_60\n      tag_61\n      jump\t// in\n    tag_60:\n      mload(0x40)\n      tag_62\n      swap2\n      swap1\n      tag_17\n      jump\t// in\n    tag_62:\n      mload(0x40)\n      dup1\n      swap2\n      sub\n      swap1\n      return\n        /* \"SolidityByExample/4_DeFi/15_StableSwapAMM.sol\":1770:1793  uint public totalSupply */\n    tag_15:\n      sload(0x09)\n      dup2\n      jump\t// out\n        /* \"SolidityByExample/4_DeFi/15_StableSwapAMM.sol\":1664:1687  uint[N] public balances */\n    tag_21:\n      0x06\n      dup2\n      0x03\n      dup2\n      lt\n      tag_63\n      jumpi\n      0x00\n      dup1\n      revert\n    tag_63:\n      add\n      0x00\n      swap2\n      pop\n      swap1\n      pop\n      sload\n      dup2\n      jump\t// out\n        /* \"SolidityByExample/4_DeFi/15_StableSwapAMM.sol\":1467:1491  address[N] public tokens */\n    tag_25:\n      0x00\n      dup2\n      0x03\n      dup2\n      lt\n      tag_65\n      jumpi\n      0x00\n      dup1\n      revert\n    tag_65:\n      add\n      0x00\n      swap2\n      pop\n      sload\n      swap1\n      0x0100\n      exp\n      swap1\n      div\n      0xffffffffffffffffffffffffffffffffffffffff\n      and\n      dup2\n      jump\t// out\n        /* \"SolidityByExample/4_DeFi/15_StableSwapAMM.sol\":7028:7807  function swap(... */\n    tag_31:\n        /* \"SolidityByExample/4_DeFi/15_StableSwapAMM.sol\":7135:7142  uint dy */\n      0x00\n        /* \"SolidityByExample/4_DeFi/15_StableSwapAMM.sol\":7167:7168  j */\n      dup4\n        /* \"SolidityByExample/4_DeFi/15_StableSwapAMM.sol\":7162:7163  i */\n      dup6\n        /* \"SolidityByExample/4_DeFi/15_StableSwapAMM.sol\":7162:7168  i != j */\n      sub\n        /* \"SolidityByExample/4_DeFi/15_StableSwapAMM.sol\":7154:7178  require(i != j, \"i = j\") */\n      tag_68\n      jumpi\n      mload(0x40)\n      0x08c379a000000000000000000000000000000000000000000000000000000000\n      dup2\n      mstore\n      0x04\n      add\n      tag_69\n      swap1\n      tag_70\n      jump\t// in\n    tag_69:\n      mload(0x40)\n      dup1\n      swap2\n      sub\n      swap1\n      revert\n    tag_68:\n        /* \"SolidityByExample/4_DeFi/15_StableSwapAMM.sol\":7196:7202  tokens */\n      0x00\n        /* \"SolidityByExample/4_DeFi/15_StableSwapAMM.sol\":7203:7204  i */\n      dup6\n        /* \"SolidityByExample/4_DeFi/15_StableSwapAMM.sol\":7196:7205  tokens[i] */\n      0x03\n      dup2\n      lt\n      tag_71\n      jumpi\n      tag_72\n      tag_73\n      jump\t// in\n    tag_72:\n    tag_71:\n      add\n      0x00\n      swap1\n      sload\n      swap1\n      0x0100\n      exp\n      swap1\n      div\n      0xffffffffffffffffffffffffffffffffffffffff\n      and\n        /* \"SolidityByExample/4_DeFi/15_StableSwapAMM.sol\":7189:7219  IERC20(tokens[i]).transferFrom */\n      0xffffffffffffffffffffffffffffffffffffffff\n      and\n      0x23b872dd\n        /* \"SolidityByExample/4_DeFi/15_StableSwapAMM.sol\":7220:7230  msg.sender */\n      caller\n        /* \"SolidityByExample/4_DeFi/15_StableSwapAMM.sol\":7240:7244  this */\n      address\n        /* \"SolidityByExample/4_DeFi/15_StableSwapAMM.sol\":7247:7249  dx */\n      dup7\n        /* \"SolidityByExample/4_DeFi/15_StableSwapAMM.sol\":7189:7250  IERC20(tokens[i]).transferFrom(msg.sender, address(this), dx) */\n      mload(0x40)\n      dup5\n      0xffffffff\n      and\n      0xe0\n      shl\n      dup2\n      mstore\n      0x04\n      add\n      tag_75\n      swap4\n      swap3\n      swap2\n      swap1\n      tag_76\n      jump\t// in\n    tag_75:\n      0x20\n      mload(0x40)\n      dup1\n      dup4\n      sub\n      dup2\n      0x00\n      dup8\n      gas\n      call\n      iszero\n      dup1\n      iszero\n      tag_78\n      jumpi\n      returndatasize\n      0x00\n      dup1\n      returndatacopy\n      revert(0x00, returndatasize)\n    tag_78:\n      pop\n      pop\n      pop\n      pop\n      mload(0x40)\n      returndatasize\n      not(0x1f)\n      0x1f\n      dup3\n      add\n      and\n      dup3\n      add\n      dup1\n      0x40\n      mstore\n      pop\n      dup2\n      add\n      swap1\n      tag_79\n      swap2\n      swap1\n      tag_80\n      jump\t// in\n    tag_79:\n      pop\n        /* \"SolidityByExample/4_DeFi/15_StableSwapAMM.sol\":7285:7302  uint[N] memory xp */\n      0x00\n        /* \"SolidityByExample/4_DeFi/15_StableSwapAMM.sol\":7305:7310  _xp() */\n      tag_81\n        /* \"SolidityByExample/4_DeFi/15_StableSwapAMM.sol\":7305:7308  _xp */\n      tag_82\n        /* \"SolidityByExample/4_DeFi/15_StableSwapAMM.sol\":7305:7310  _xp() */\n      jump\t// in\n    tag_81:\n        /* \"SolidityByExample/4_DeFi/15_StableSwapAMM.sol\":7285:7310  uint[N] memory xp = _xp() */\n      swap1\n      pop\n        /* \"SolidityByExample/4_DeFi/15_StableSwapAMM.sol\":7320:7326  uint x */\n      0x00\n        /* \"SolidityByExample/4_DeFi/15_StableSwapAMM.sol\":7342:7353  multipliers */\n      0x03\n        /* \"SolidityByExample/4_DeFi/15_StableSwapAMM.sol\":7354:7355  i */\n      dup8\n        /* \"SolidityByExample/4_DeFi/15_StableSwapAMM.sol\":7342:7356  multipliers[i] */\n      0x03\n      dup2\n      lt\n      tag_83\n      jumpi\n      tag_84\n      tag_73\n      jump\t// in\n    tag_84:\n    tag_83:\n      add\n      sload\n        /* \"SolidityByExample/4_DeFi/15_StableSwapAMM.sol\":7337:7339  dx */\n      dup6\n        /* \"SolidityByExample/4_DeFi/15_StableSwapAMM.sol\":7337:7356  dx * multipliers[i] */\n      tag_86\n      swap2\n      swap1\n      tag_87\n      jump\t// in\n    tag_86:\n        /* \"SolidityByExample/4_DeFi/15_StableSwapAMM.sol\":7329:7331  xp */\n      dup3\n        /* \"SolidityByExample/4_DeFi/15_StableSwapAMM.sol\":7332:7333  i */\n      dup9\n        /* \"SolidityByExample/4_DeFi/15_StableSwapAMM.sol\":7329:7334  xp[i] */\n      0x03\n      dup2\n      lt\n      tag_88\n      jumpi\n      tag_89\n      tag_73\n      jump\t// in\n    tag_89:\n    tag_88:\n      0x20\n      mul\n      add\n      mload\n        /* \"SolidityByExample/4_DeFi/15_StableSwapAMM.sol\":7329:7356  xp[i] + dx * multipliers[i] */\n      tag_90\n      swap2\n      swap1\n      tag_91\n      jump\t// in\n    tag_90:\n        /* \"SolidityByExample/4_DeFi/15_StableSwapAMM.sol\":7320:7356  uint x = xp[i] + dx * multipliers[i] */\n      swap1\n      pop\n        /* \"SolidityByExample/4_DeFi/15_StableSwapAMM.sol\":7367:7374  uint y0 */\n      0x00\n        /* \"SolidityByExample/4_DeFi/15_StableSwapAMM.sol\":7377:7379  xp */\n      dup3\n        /* \"SolidityByExample/4_DeFi/15_StableSwapAMM.sol\":7380:7381  j */\n      dup8\n        /* \"SolidityByExample/4_DeFi/15_StableSwapAMM.sol\":7377:7382  xp[j] */\n      0x03\n      dup2\n      lt\n      tag_92\n      jumpi\n      tag_93\n      tag_73\n      jump\t// in\n    tag_93:\n    tag_92:\n      0x20\n      mul\n      add\n      mload\n        /* \"SolidityByExample/4_DeFi/15_StableSwapAMM.sol\":7367:7382  uint y0 = xp[j] */\n      swap1\n      pop\n        /* \"SolidityByExample/4_DeFi/15_StableSwapAMM.sol\":7392:7399  uint y1 */\n      0x00\n        /* \"SolidityByExample/4_DeFi/15_StableSwapAMM.sol\":7402:7420  _getY(i, j, x, xp) */\n      tag_94\n        /* \"SolidityByExample/4_DeFi/15_StableSwapAMM.sol\":7408:7409  i */\n      dup10\n        /* \"SolidityByExample/4_DeFi/15_StableSwapAMM.sol\":7411:7412  j */\n      dup10\n        /* \"SolidityByExample/4_DeFi/15_StableSwapAMM.sol\":7414:7415  x */\n      dup6\n        /* \"SolidityByExample/4_DeFi/15_StableSwapAMM.sol\":7417:7419  xp */\n      dup8\n        /* \"SolidityByExample/4_DeFi/15_StableSwapAMM.sol\":7402:7407  _getY */\n      tag_95\n        /* \"SolidityByExample/4_DeFi/15_StableSwapAMM.sol\":7402:7420  _getY(i, j, x, xp) */\n      jump\t// in\n    tag_94:\n        /* \"SolidityByExample/4_DeFi/15_StableSwapAMM.sol\":7392:7420  uint y1 = _getY(i, j, x, xp) */\n      swap1\n      pop\n        /* \"SolidityByExample/4_DeFi/15_StableSwapAMM.sol\":7530:7541  multipliers */\n      0x03\n        /* \"SolidityByExample/4_DeFi/15_StableSwapAMM.sol\":7542:7543  j */\n      dup9\n        /* \"SolidityByExample/4_DeFi/15_StableSwapAMM.sol\":7530:7544  multipliers[j] */\n      0x03\n      dup2\n      lt\n      tag_96\n      jumpi\n      tag_97\n      tag_73\n      jump\t// in\n    tag_97:\n    tag_96:\n      add\n      sload\n        /* \"SolidityByExample/4_DeFi/15_StableSwapAMM.sol\":7525:7526  1 */\n      0x01\n        /* \"SolidityByExample/4_DeFi/15_StableSwapAMM.sol\":7520:7522  y1 */\n      dup3\n        /* \"SolidityByExample/4_DeFi/15_StableSwapAMM.sol\":7515:7517  y0 */\n      dup5\n        /* \"SolidityByExample/4_DeFi/15_StableSwapAMM.sol\":7515:7522  y0 - y1 */\n      tag_99\n      swap2\n      swap1\n      tag_100\n      jump\t// in\n    tag_99:\n        /* \"SolidityByExample/4_DeFi/15_StableSwapAMM.sol\":7515:7526  y0 - y1 - 1 */\n      tag_101\n      swap2\n      swap1\n      tag_100\n      jump\t// in\n    tag_101:\n        /* \"SolidityByExample/4_DeFi/15_StableSwapAMM.sol\":7514:7544  (y0 - y1 - 1) / multipliers[j] */\n      tag_102\n      swap2\n      swap1\n      tag_103\n      jump\t// in\n    tag_102:\n        /* \"SolidityByExample/4_DeFi/15_StableSwapAMM.sol\":7509:7544  dy = (y0 - y1 - 1) / multipliers[j] */\n      swap5\n      pop\n        /* \"SolidityByExample/4_DeFi/15_StableSwapAMM.sol\":7587:7595  uint fee */\n      0x00\n        /* \"SolidityByExample/4_DeFi/15_StableSwapAMM.sol\":1457:1460  1e6 */\n      0x0f4240\n        /* \"SolidityByExample/4_DeFi/15_StableSwapAMM.sol\":1029:1032  300 */\n      0x012c\n        /* \"SolidityByExample/4_DeFi/15_StableSwapAMM.sol\":7599:7601  dy */\n      dup8\n        /* \"SolidityByExample/4_DeFi/15_StableSwapAMM.sol\":7599:7612  dy * SWAP_FEE */\n      tag_104\n      swap2\n      swap1\n      tag_87\n      jump\t// in\n    tag_104:\n        /* \"SolidityByExample/4_DeFi/15_StableSwapAMM.sol\":7598:7631  (dy * SWAP_FEE) / FEE_DENOMINATOR */\n      tag_105\n      swap2\n      swap1\n      tag_103\n      jump\t// in\n    tag_105:\n        /* \"SolidityByExample/4_DeFi/15_StableSwapAMM.sol\":7587:7631  uint fee = (dy * SWAP_FEE) / FEE_DENOMINATOR */\n      swap1\n      pop\n        /* \"SolidityByExample/4_DeFi/15_StableSwapAMM.sol\":7647:7650  fee */\n      dup1\n        /* \"SolidityByExample/4_DeFi/15_StableSwapAMM.sol\":7641:7650  dy -= fee */\n      dup7\n      tag_106\n      swap2\n      swap1\n      tag_100\n      jump\t// in\n    tag_106:\n      swap6\n      pop\n        /* \"SolidityByExample/4_DeFi/15_StableSwapAMM.sol\":7674:7679  minDy */\n      dup7\n        /* \"SolidityByExample/4_DeFi/15_StableSwapAMM.sol\":7668:7670  dy */\n      dup7\n        /* \"SolidityByExample/4_DeFi/15_StableSwapAMM.sol\":7668:7679  dy >= minDy */\n      lt\n      iszero\n        /* \"SolidityByExample/4_DeFi/15_StableSwapAMM.sol\":7660:7692  require(dy >= minDy, \"dy < min\") */\n      tag_107\n      jumpi\n      mload(0x40)\n      0x08c379a000000000000000000000000000000000000000000000000000000000\n      dup2\n      mstore\n      0x04\n      add\n      tag_108\n      swap1\n      tag_109\n      jump\t// in\n    tag_108:\n      mload(0x40)\n      dup1\n      swap2\n      sub\n      swap1\n      revert\n    tag_107:\n        /* \"SolidityByExample/4_DeFi/15_StableSwapAMM.sol\":7718:7720  dx */\n      dup8\n        /* \"SolidityByExample/4_DeFi/15_StableSwapAMM.sol\":7703:7711  balances */\n      0x06\n        /* \"SolidityByExample/4_DeFi/15_StableSwapAMM.sol\":7712:7713  i */\n      dup12\n        /* \"SolidityByExample/4_DeFi/15_StableSwapAMM.sol\":7703:7714  balances[i] */\n      0x03\n      dup2\n      lt\n      tag_110\n      jumpi\n      tag_111\n      tag_73\n      jump\t// in\n    tag_111:\n    tag_110:\n      add\n      0x00\n        /* \"SolidityByExample/4_DeFi/15_StableSwapAMM.sol\":7703:7720  balances[i] += dx */\n      dup3\n      dup3\n      sload\n      tag_113\n      swap2\n      swap1\n      tag_91\n      jump\t// in\n    tag_113:\n      swap3\n      pop\n      pop\n      dup2\n      swap1\n      sstore\n      pop\n        /* \"SolidityByExample/4_DeFi/15_StableSwapAMM.sol\":7745:7747  dy */\n      dup6\n        /* \"SolidityByExample/4_DeFi/15_StableSwapAMM.sol\":7730:7738  balances */\n      0x06\n        /* \"SolidityByExample/4_DeFi/15_StableSwapAMM.sol\":7739:7740  j */\n      dup11\n        /* \"SolidityByExample/4_DeFi/15_StableSwapAMM.sol\":7730:7741  balances[j] */\n      0x03\n      dup2\n      lt\n      tag_114\n      jumpi\n      tag_115\n      tag_73\n      jump\t// in\n    tag_115:\n    tag_114:\n      add\n      0x00\n        /* \"SolidityByExample/4_DeFi/15_StableSwapAMM.sol\":7730:7747  balances[j] -= dy */\n      dup3\n      dup3\n      sload\n      tag_117\n      swap2\n      swap1\n      tag_100\n      jump\t// in\n    tag_117:\n      swap3\n      pop\n      pop\n      dup2\n      swap1\n      sstore\n      pop\n        /* \"SolidityByExample/4_DeFi/15_StableSwapAMM.sol\":7765:7771  tokens */\n      0x00\n        /* \"SolidityByExample/4_DeFi/15_StableSwapAMM.sol\":7772:7773  j */\n      dup10\n        /* \"SolidityByExample/4_DeFi/15_StableSwapAMM.sol\":7765:7774  tokens[j] */\n      0x03\n      dup2\n      lt\n      tag_118\n      jumpi\n      tag_119\n      tag_73\n      jump\t// in\n    tag_119:\n    tag_118:\n      add\n      0x00\n      swap1\n      sload\n      swap1\n      0x0100\n      exp\n      swap1\n      div\n      0xffffffffffffffffffffffffffffffffffffffff\n      and\n        /* \"SolidityByExample/4_DeFi/15_StableSwapAMM.sol\":7758:7784  IERC20(tokens[j]).transfer */\n      0xffffffffffffffffffffffffffffffffffffffff\n      and\n      0xa9059cbb\n        /* \"SolidityByExample/4_DeFi/15_StableSwapAMM.sol\":7785:7795  msg.sender */\n      caller\n        /* \"SolidityByExample/4_DeFi/15_StableSwapAMM.sol\":7797:7799  dy */\n      dup9\n        /* \"SolidityByExample/4_DeFi/15_StableSwapAMM.sol\":7758:7800  IERC20(tokens[j]).transfer(msg.sender, dy) */\n      mload(0x40)\n      dup4\n      0xffffffff\n      and\n      0xe0\n      shl\n      dup2\n      mstore\n      0x04\n      add\n      tag_121\n      swap3\n      swap2\n      swap1\n      tag_122\n      jump\t// in\n    tag_121:\n      0x20\n      mload(0x40)\n      dup1\n      dup4\n      sub\n      dup2\n      0x00\n      dup8\n      gas\n      call\n      iszero\n      dup1\n      iszero\n      tag_124\n      jumpi\n      returndatasize\n      0x00\n      dup1\n      returndatacopy\n      revert(0x00, returndatasize)\n    tag_124:\n      pop\n      pop\n      pop\n      pop\n      mload(0x40)\n      returndatasize\n      not(0x1f)\n      0x1f\n      dup3\n      add\n      and\n      dup3\n      add\n      dup1\n      0x40\n      mstore\n      pop\n      dup2\n      add\n      swap1\n      tag_125\n      swap2\n      swap1\n      tag_80\n      jump\t// in\n    tag_125:\n      pop\n        /* \"SolidityByExample/4_DeFi/15_StableSwapAMM.sol\":7144:7807  {... */\n      pop\n      pop\n      pop\n      pop\n      pop\n        /* \"SolidityByExample/4_DeFi/15_StableSwapAMM.sol\":7028:7807  function swap(... */\n      swap5\n      swap4\n      pop\n      pop\n      pop\n      pop\n      jump\t// out\n        /* \"SolidityByExample/4_DeFi/15_StableSwapAMM.sol\":11872:12261  function removeLiquidityOneToken(... */\n    tag_36:\n        /* \"SolidityByExample/4_DeFi/15_StableSwapAMM.sol\":11993:12007  uint amountOut */\n      0x00\n        /* \"SolidityByExample/4_DeFi/15_StableSwapAMM.sol\":12035:12067  _calcWithdrawOneToken(shares, i) */\n      tag_127\n        /* \"SolidityByExample/4_DeFi/15_StableSwapAMM.sol\":12057:12063  shares */\n      dup5\n        /* \"SolidityByExample/4_DeFi/15_StableSwapAMM.sol\":12065:12066  i */\n      dup5\n        /* \"SolidityByExample/4_DeFi/15_StableSwapAMM.sol\":12035:12056  _calcWithdrawOneToken */\n      tag_128\n        /* \"SolidityByExample/4_DeFi/15_StableSwapAMM.sol\":12035:12067  _calcWithdrawOneToken(shares, i) */\n      jump\t// in\n    tag_127:\n        /* \"SolidityByExample/4_DeFi/15_StableSwapAMM.sol\":12019:12067  (amountOut, ) = _calcWithdrawOneToken(shares, i) */\n      pop\n      dup1\n      swap2\n      pop\n      pop\n        /* \"SolidityByExample/4_DeFi/15_StableSwapAMM.sol\":12098:12110  minAmountOut */\n      dup2\n        /* \"SolidityByExample/4_DeFi/15_StableSwapAMM.sol\":12085:12094  amountOut */\n      dup2\n        /* \"SolidityByExample/4_DeFi/15_StableSwapAMM.sol\":12085:12110  amountOut >= minAmountOut */\n      lt\n      iszero\n        /* \"SolidityByExample/4_DeFi/15_StableSwapAMM.sol\":12077:12124  require(amountOut >= minAmountOut, \"out < min\") */\n      tag_129\n      jumpi\n      mload(0x40)\n      0x08c379a000000000000000000000000000000000000000000000000000000000\n      dup2\n      mstore\n      0x04\n      add\n      tag_130\n      swap1\n      tag_131\n      jump\t// in\n    tag_130:\n      mload(0x40)\n      dup1\n      swap2\n      sub\n      swap1\n      revert\n    tag_129:\n        /* \"SolidityByExample/4_DeFi/15_StableSwapAMM.sol\":12150:12159  amountOut */\n      dup1\n        /* \"SolidityByExample/4_DeFi/15_StableSwapAMM.sol\":12135:12143  balances */\n      0x06\n        /* \"SolidityByExample/4_DeFi/15_StableSwapAMM.sol\":12144:12145  i */\n      dup5\n        /* \"SolidityByExample/4_DeFi/15_StableSwapAMM.sol\":12135:12146  balances[i] */\n      0x03\n      dup2\n      lt\n      tag_132\n      jumpi\n      tag_133\n      tag_73\n      jump\t// in\n    tag_133:\n    tag_132:\n      add\n      0x00\n        /* \"SolidityByExample/4_DeFi/15_StableSwapAMM.sol\":12135:12159  balances[i] -= amountOut */\n      dup3\n      dup3\n      sload\n      tag_135\n      swap2\n      swap1\n      tag_100\n      jump\t// in\n    tag_135:\n      swap3\n      pop\n      pop\n      dup2\n      swap1\n      sstore\n      pop\n        /* \"SolidityByExample/4_DeFi/15_StableSwapAMM.sol\":12169:12194  _burn(msg.sender, shares) */\n      tag_136\n        /* \"SolidityByExample/4_DeFi/15_StableSwapAMM.sol\":12175:12185  msg.sender */\n      caller\n        /* \"SolidityByExample/4_DeFi/15_StableSwapAMM.sol\":12187:12193  shares */\n      dup6\n        /* \"SolidityByExample/4_DeFi/15_StableSwapAMM.sol\":12169:12174  _burn */\n      tag_137\n        /* \"SolidityByExample/4_DeFi/15_StableSwapAMM.sol\":12169:12194  _burn(msg.sender, shares) */\n      jump\t// in\n    tag_136:\n        /* \"SolidityByExample/4_DeFi/15_StableSwapAMM.sol\":12212:12218  tokens */\n      0x00\n        /* \"SolidityByExample/4_DeFi/15_StableSwapAMM.sol\":12219:12220  i */\n      dup4\n        /* \"SolidityByExample/4_DeFi/15_StableSwapAMM.sol\":12212:12221  tokens[i] */\n      0x03\n      dup2\n      lt\n      tag_138\n      jumpi\n      tag_139\n      tag_73\n      jump\t// in\n    tag_139:\n    tag_138:\n      add\n      0x00\n      swap1\n      sload\n      swap1\n      0x0100\n      exp\n      swap1\n      div\n      0xffffffffffffffffffffffffffffffffffffffff\n      and\n        /* \"SolidityByExample/4_DeFi/15_StableSwapAMM.sol\":12205:12231  IERC20(tokens[i]).transfer */\n      0xffffffffffffffffffffffffffffffffffffffff\n      and\n      0xa9059cbb\n        /* \"SolidityByExample/4_DeFi/15_StableSwapAMM.sol\":12232:12242  msg.sender */\n      caller\n        /* \"SolidityByExample/4_DeFi/15_StableSwapAMM.sol\":12244:12253  amountOut */\n      dup4\n        /* \"SolidityByExample/4_DeFi/15_StableSwapAMM.sol\":12205:12254  IERC20(tokens[i]).transfer(msg.sender, amountOut) */\n      mload(0x40)\n      dup4\n      0xffffffff\n      and\n      0xe0\n      shl\n      dup2\n      mstore\n      0x04\n      add\n      tag_141\n      swap3\n      swap2\n      swap1\n      tag_122\n      jump\t// in\n    tag_141:\n      0x20\n      mload(0x40)\n      dup1\n      dup4\n      sub\n      dup2\n      0x00\n      dup8\n      gas\n      call\n      iszero\n      dup1\n      iszero\n      tag_143\n      jumpi\n      returndatasize\n      0x00\n      dup1\n      returndatacopy\n      revert(0x00, returndatasize)\n    tag_143:\n      pop\n      pop\n      pop\n      pop\n      mload(0x40)\n      returndatasize\n      not(0x1f)\n      0x1f\n      dup3\n      add\n      and\n      dup3\n      add\n      dup1\n      0x40\n      mstore\n      pop\n      dup2\n      add\n      swap1\n      tag_144\n      swap2\n      swap1\n      tag_80\n      jump\t// in\n    tag_144:\n      pop\n        /* \"SolidityByExample/4_DeFi/15_StableSwapAMM.sol\":11872:12261  function removeLiquidityOneToken(... */\n      swap4\n      swap3\n      pop\n      pop\n      pop\n      jump\t// out\n        /* \"SolidityByExample/4_DeFi/15_StableSwapAMM.sol\":1799:1840  mapping(address => uint) public balanceOf */\n    tag_41:\n      mstore(0x20, 0x0a)\n      dup1\n      0x00\n      mstore\n      keccak256(0x00, 0x40)\n      0x00\n      swap2\n      pop\n      swap1\n      pop\n      sload\n      dup2\n      jump\t// out\n        /* \"SolidityByExample/4_DeFi/15_StableSwapAMM.sol\":7813:9596  function addLiquidity(uint[N] calldata amounts, uint minShares)... */\n    tag_46:\n        /* \"SolidityByExample/4_DeFi/15_StableSwapAMM.sol\":7911:7922  uint shares */\n      0x00\n        /* \"SolidityByExample/4_DeFi/15_StableSwapAMM.sol\":7980:7997  uint _totalSupply */\n      dup1\n        /* \"SolidityByExample/4_DeFi/15_StableSwapAMM.sol\":8000:8011  totalSupply */\n      sload(0x09)\n        /* \"SolidityByExample/4_DeFi/15_StableSwapAMM.sol\":7980:8011  uint _totalSupply = totalSupply */\n      swap1\n      pop\n        /* \"SolidityByExample/4_DeFi/15_StableSwapAMM.sol\":8021:8028  uint d0 */\n      0x00\n        /* \"SolidityByExample/4_DeFi/15_StableSwapAMM.sol\":8038:8059  uint[N] memory old_xs */\n      dup1\n        /* \"SolidityByExample/4_DeFi/15_StableSwapAMM.sol\":8062:8067  _xp() */\n      tag_146\n        /* \"SolidityByExample/4_DeFi/15_StableSwapAMM.sol\":8062:8065  _xp */\n      tag_82\n        /* \"SolidityByExample/4_DeFi/15_StableSwapAMM.sol\":8062:8067  _xp() */\n      jump\t// in\n    tag_146:\n        /* \"SolidityByExample/4_DeFi/15_StableSwapAMM.sol\":8038:8067  uint[N] memory old_xs = _xp() */\n      swap1\n      pop\n        /* \"SolidityByExample/4_DeFi/15_StableSwapAMM.sol\":8096:8097  0 */\n      0x00\n        /* \"SolidityByExample/4_DeFi/15_StableSwapAMM.sol\":8081:8093  _totalSupply */\n      dup4\n        /* \"SolidityByExample/4_DeFi/15_StableSwapAMM.sol\":8081:8097  _totalSupply > 0 */\n      gt\n        /* \"SolidityByExample/4_DeFi/15_StableSwapAMM.sol\":8077:8142  if (_totalSupply > 0) {... */\n      iszero\n      tag_147\n      jumpi\n        /* \"SolidityByExample/4_DeFi/15_StableSwapAMM.sol\":8118:8131  _getD(old_xs) */\n      tag_148\n        /* \"SolidityByExample/4_DeFi/15_StableSwapAMM.sol\":8124:8130  old_xs */\n      dup2\n        /* \"SolidityByExample/4_DeFi/15_StableSwapAMM.sol\":8118:8123  _getD */\n      tag_149\n        /* \"SolidityByExample/4_DeFi/15_StableSwapAMM.sol\":8118:8131  _getD(old_xs) */\n      jump\t// in\n    tag_148:\n        /* \"SolidityByExample/4_DeFi/15_StableSwapAMM.sol\":8113:8131  d0 = _getD(old_xs) */\n      swap2\n      pop\n        /* \"SolidityByExample/4_DeFi/15_StableSwapAMM.sol\":8077:8142  if (_totalSupply > 0) {... */\n    tag_147:\n        /* \"SolidityByExample/4_DeFi/15_StableSwapAMM.sol\":8182:8203  uint[N] memory new_xs */\n      tag_150\n      tag_151\n      jump\t// in\n    tag_150:\n        /* \"SolidityByExample/4_DeFi/15_StableSwapAMM.sol\":8218:8224  uint i */\n      0x00\n        /* \"SolidityByExample/4_DeFi/15_StableSwapAMM.sol\":8213:8539  for (uint i; i < N; ++i) {... */\n    tag_152:\n        /* \"SolidityByExample/4_DeFi/15_StableSwapAMM.sol\":756:757  3 */\n      0x03\n        /* \"SolidityByExample/4_DeFi/15_StableSwapAMM.sol\":8226:8227  i */\n      dup2\n        /* \"SolidityByExample/4_DeFi/15_StableSwapAMM.sol\":8226:8231  i < N */\n      lt\n        /* \"SolidityByExample/4_DeFi/15_StableSwapAMM.sol\":8213:8539  for (uint i; i < N; ++i) {... */\n      iszero\n      tag_153\n      jumpi\n        /* \"SolidityByExample/4_DeFi/15_StableSwapAMM.sol\":8252:8263  uint amount */\n      0x00\n        /* \"SolidityByExample/4_DeFi/15_StableSwapAMM.sol\":8266:8273  amounts */\n      dup9\n        /* \"SolidityByExample/4_DeFi/15_StableSwapAMM.sol\":8274:8275  i */\n      dup3\n        /* \"SolidityByExample/4_DeFi/15_StableSwapAMM.sol\":8266:8276  amounts[i] */\n      0x03\n      dup2\n      lt\n      tag_155\n      jumpi\n      tag_156\n      tag_73\n      jump\t// in\n    tag_156:\n    tag_155:\n      0x20\n      mul\n      add\n      calldataload\n        /* \"SolidityByExample/4_DeFi/15_StableSwapAMM.sol\":8252:8276  uint amount = amounts[i] */\n      swap1\n      pop\n        /* \"SolidityByExample/4_DeFi/15_StableSwapAMM.sol\":8303:8304  0 */\n      0x00\n        /* \"SolidityByExample/4_DeFi/15_StableSwapAMM.sol\":8294:8300  amount */\n      dup2\n        /* \"SolidityByExample/4_DeFi/15_StableSwapAMM.sol\":8294:8304  amount > 0 */\n      gt\n        /* \"SolidityByExample/4_DeFi/15_StableSwapAMM.sol\":8290:8529  if (amount > 0) {... */\n      iszero\n      tag_157\n      jumpi\n        /* \"SolidityByExample/4_DeFi/15_StableSwapAMM.sol\":8331:8337  tokens */\n      0x00\n        /* \"SolidityByExample/4_DeFi/15_StableSwapAMM.sol\":8338:8339  i */\n      dup3\n        /* \"SolidityByExample/4_DeFi/15_StableSwapAMM.sol\":8331:8340  tokens[i] */\n      0x03\n      dup2\n      lt\n      tag_158\n      jumpi\n      tag_159\n      tag_73\n      jump\t// in\n    tag_159:\n    tag_158:\n      add\n      0x00\n      swap1\n      sload\n      swap1\n      0x0100\n      exp\n      swap1\n      div\n      0xffffffffffffffffffffffffffffffffffffffff\n      and\n        /* \"SolidityByExample/4_DeFi/15_StableSwapAMM.sol\":8324:8354  IERC20(tokens[i]).transferFrom */\n      0xffffffffffffffffffffffffffffffffffffffff\n      and\n      0x23b872dd\n        /* \"SolidityByExample/4_DeFi/15_StableSwapAMM.sol\":8355:8365  msg.sender */\n      caller\n        /* \"SolidityByExample/4_DeFi/15_StableSwapAMM.sol\":8375:8379  this */\n      address\n        /* \"SolidityByExample/4_DeFi/15_StableSwapAMM.sol\":8382:8388  amount */\n      dup5\n        /* \"SolidityByExample/4_DeFi/15_StableSwapAMM.sol\":8324:8389  IERC20(tokens[i]).transferFrom(msg.sender, address(this), amount) */\n      mload(0x40)\n      dup5\n      0xffffffff\n      and\n      0xe0\n      shl\n      dup2\n      mstore\n      0x04\n      add\n      tag_161\n      swap4\n      swap3\n      swap2\n      swap1\n      tag_76\n      jump\t// in\n    tag_161:\n      0x20\n      mload(0x40)\n      dup1\n      dup4\n      sub\n      dup2\n      0x00\n      dup8\n      gas\n      call\n      iszero\n      dup1\n      iszero\n      tag_163\n      jumpi\n      returndatasize\n      0x00\n      dup1\n      returndatacopy\n      revert(0x00, returndatasize)\n    tag_163:\n      pop\n      pop\n      pop\n      pop\n      mload(0x40)\n      returndatasize\n      not(0x1f)\n      0x1f\n      dup3\n      add\n      and\n      dup3\n      add\n      dup1\n      0x40\n      mstore\n      pop\n      dup2\n      add\n      swap1\n      tag_164\n      swap2\n      swap1\n      tag_80\n      jump\t// in\n    tag_164:\n      pop\n        /* \"SolidityByExample/4_DeFi/15_StableSwapAMM.sol\":8440:8451  multipliers */\n      0x03\n        /* \"SolidityByExample/4_DeFi/15_StableSwapAMM.sol\":8452:8453  i */\n      dup3\n        /* \"SolidityByExample/4_DeFi/15_StableSwapAMM.sol\":8440:8454  multipliers[i] */\n      0x03\n      dup2\n      lt\n      tag_165\n      jumpi\n      tag_166\n      tag_73\n      jump\t// in\n    tag_166:\n    tag_165:\n      add\n      sload\n        /* \"SolidityByExample/4_DeFi/15_StableSwapAMM.sol\":8431:8437  amount */\n      dup2\n        /* \"SolidityByExample/4_DeFi/15_StableSwapAMM.sol\":8431:8454  amount * multipliers[i] */\n      tag_168\n      swap2\n      swap1\n      tag_87\n      jump\t// in\n    tag_168:\n        /* \"SolidityByExample/4_DeFi/15_StableSwapAMM.sol\":8419:8425  old_xs */\n      dup5\n        /* \"SolidityByExample/4_DeFi/15_StableSwapAMM.sol\":8426:8427  i */\n      dup4\n        /* \"SolidityByExample/4_DeFi/15_StableSwapAMM.sol\":8419:8428  old_xs[i] */\n      0x03\n      dup2\n      lt\n      tag_169\n      jumpi\n      tag_170\n      tag_73\n      jump\t// in\n    tag_170:\n    tag_169:\n      0x20\n      mul\n      add\n      mload\n        /* \"SolidityByExample/4_DeFi/15_StableSwapAMM.sol\":8419:8454  old_xs[i] + amount * multipliers[i] */\n      tag_171\n      swap2\n      swap1\n      tag_91\n      jump\t// in\n    tag_171:\n        /* \"SolidityByExample/4_DeFi/15_StableSwapAMM.sol\":8407:8413  new_xs */\n      dup4\n        /* \"SolidityByExample/4_DeFi/15_StableSwapAMM.sol\":8414:8415  i */\n      dup4\n        /* \"SolidityByExample/4_DeFi/15_StableSwapAMM.sol\":8407:8416  new_xs[i] */\n      0x03\n      dup2\n      lt\n      tag_172\n      jumpi\n      tag_173\n      tag_73\n      jump\t// in\n    tag_173:\n    tag_172:\n      0x20\n      mul\n      add\n        /* \"SolidityByExample/4_DeFi/15_StableSwapAMM.sol\":8407:8454  new_xs[i] = old_xs[i] + amount * multipliers[i] */\n      dup2\n      dup2\n      mstore\n      pop\n      pop\n        /* \"SolidityByExample/4_DeFi/15_StableSwapAMM.sol\":8290:8529  if (amount > 0) {... */\n      jump(tag_174)\n    tag_157:\n        /* \"SolidityByExample/4_DeFi/15_StableSwapAMM.sol\":8505:8511  old_xs */\n      dup4\n        /* \"SolidityByExample/4_DeFi/15_StableSwapAMM.sol\":8512:8513  i */\n      dup3\n        /* \"SolidityByExample/4_DeFi/15_StableSwapAMM.sol\":8505:8514  old_xs[i] */\n      0x03\n      dup2\n      lt\n      tag_175\n      jumpi\n      tag_176\n      tag_73\n      jump\t// in\n    tag_176:\n    tag_175:\n      0x20\n      mul\n      add\n      mload\n        /* \"SolidityByExample/4_DeFi/15_StableSwapAMM.sol\":8493:8499  new_xs */\n      dup4\n        /* \"SolidityByExample/4_DeFi/15_StableSwapAMM.sol\":8500:8501  i */\n      dup4\n        /* \"SolidityByExample/4_DeFi/15_StableSwapAMM.sol\":8493:8502  new_xs[i] */\n      0x03\n      dup2\n      lt\n      tag_177\n      jumpi\n      tag_178\n      tag_73\n      jump\t// in\n    tag_178:\n    tag_177:\n      0x20\n      mul\n      add\n        /* \"SolidityByExample/4_DeFi/15_StableSwapAMM.sol\":8493:8514  new_xs[i] = old_xs[i] */\n      dup2\n      dup2\n      mstore\n      pop\n      pop\n        /* \"SolidityByExample/4_DeFi/15_StableSwapAMM.sol\":8290:8529  if (amount > 0) {... */\n    tag_174:\n        /* \"SolidityByExample/4_DeFi/15_StableSwapAMM.sol\":8238:8539  {... */\n      pop\n        /* \"SolidityByExample/4_DeFi/15_StableSwapAMM.sol\":8233:8236  ++i */\n      dup1\n      tag_179\n      swap1\n      tag_180\n      jump\t// in\n    tag_179:\n      swap1\n      pop\n        /* \"SolidityByExample/4_DeFi/15_StableSwapAMM.sol\":8213:8539  for (uint i; i < N; ++i) {... */\n      jump(tag_152)\n    tag_153:\n      pop\n        /* \"SolidityByExample/4_DeFi/15_StableSwapAMM.sol\":8587:8594  uint d1 */\n      0x00\n        /* \"SolidityByExample/4_DeFi/15_StableSwapAMM.sol\":8597:8610  _getD(new_xs) */\n      tag_181\n        /* \"SolidityByExample/4_DeFi/15_StableSwapAMM.sol\":8603:8609  new_xs */\n      dup3\n        /* \"SolidityByExample/4_DeFi/15_StableSwapAMM.sol\":8597:8602  _getD */\n      tag_149\n        /* \"SolidityByExample/4_DeFi/15_StableSwapAMM.sol\":8597:8610  _getD(new_xs) */\n      jump\t// in\n    tag_181:\n        /* \"SolidityByExample/4_DeFi/15_StableSwapAMM.sol\":8587:8610  uint d1 = _getD(new_xs) */\n      swap1\n      pop\n        /* \"SolidityByExample/4_DeFi/15_StableSwapAMM.sol\":8633:8635  d0 */\n      dup4\n        /* \"SolidityByExample/4_DeFi/15_StableSwapAMM.sol\":8628:8630  d1 */\n      dup2\n        /* \"SolidityByExample/4_DeFi/15_StableSwapAMM.sol\":8628:8635  d1 > d0 */\n      gt\n        /* \"SolidityByExample/4_DeFi/15_StableSwapAMM.sol\":8620:8665  require(d1 > d0, \"liquidity didn't increase\") */\n      tag_182\n      jumpi\n      mload(0x40)\n      0x08c379a000000000000000000000000000000000000000000000000000000000\n      dup2\n      mstore\n      0x04\n      add\n      tag_183\n      swap1\n      tag_184\n      jump\t// in\n    tag_183:\n      mload(0x40)\n      dup1\n      swap2\n      sub\n      swap1\n      revert\n    tag_182:\n        /* \"SolidityByExample/4_DeFi/15_StableSwapAMM.sol\":8733:8740  uint d2 */\n      0x00\n        /* \"SolidityByExample/4_DeFi/15_StableSwapAMM.sol\":8769:8770  0 */\n      dup1\n        /* \"SolidityByExample/4_DeFi/15_StableSwapAMM.sol\":8754:8766  _totalSupply */\n      dup7\n        /* \"SolidityByExample/4_DeFi/15_StableSwapAMM.sol\":8754:8770  _totalSupply > 0 */\n      gt\n        /* \"SolidityByExample/4_DeFi/15_StableSwapAMM.sol\":8750:9166  if (_totalSupply > 0) {... */\n      iszero\n      tag_185\n      jumpi\n        /* \"SolidityByExample/4_DeFi/15_StableSwapAMM.sol\":8791:8797  uint i */\n      0x00\n        /* \"SolidityByExample/4_DeFi/15_StableSwapAMM.sol\":8786:9085  for (uint i; i < N; ++i) {... */\n    tag_186:\n        /* \"SolidityByExample/4_DeFi/15_StableSwapAMM.sol\":756:757  3 */\n      0x03\n        /* \"SolidityByExample/4_DeFi/15_StableSwapAMM.sol\":8799:8800  i */\n      dup2\n        /* \"SolidityByExample/4_DeFi/15_StableSwapAMM.sol\":8799:8804  i < N */\n      lt\n        /* \"SolidityByExample/4_DeFi/15_StableSwapAMM.sol\":8786:9085  for (uint i; i < N; ++i) {... */\n      iszero\n      tag_187\n      jumpi\n        /* \"SolidityByExample/4_DeFi/15_StableSwapAMM.sol\":8895:8912  uint idealBalance */\n      0x00\n        /* \"SolidityByExample/4_DeFi/15_StableSwapAMM.sol\":8934:8936  d0 */\n      dup7\n        /* \"SolidityByExample/4_DeFi/15_StableSwapAMM.sol\":8928:8930  d1 */\n      dup5\n        /* \"SolidityByExample/4_DeFi/15_StableSwapAMM.sol\":8916:8922  old_xs */\n      dup8\n        /* \"SolidityByExample/4_DeFi/15_StableSwapAMM.sol\":8923:8924  i */\n      dup5\n        /* \"SolidityByExample/4_DeFi/15_StableSwapAMM.sol\":8916:8925  old_xs[i] */\n      0x03\n      dup2\n      lt\n      tag_189\n      jumpi\n      tag_190\n      tag_73\n      jump\t// in\n    tag_190:\n    tag_189:\n      0x20\n      mul\n      add\n      mload\n        /* \"SolidityByExample/4_DeFi/15_StableSwapAMM.sol\":8916:8930  old_xs[i] * d1 */\n      tag_191\n      swap2\n      swap1\n      tag_87\n      jump\t// in\n    tag_191:\n        /* \"SolidityByExample/4_DeFi/15_StableSwapAMM.sol\":8915:8936  (old_xs[i] * d1) / d0 */\n      tag_192\n      swap2\n      swap1\n      tag_103\n      jump\t// in\n    tag_192:\n        /* \"SolidityByExample/4_DeFi/15_StableSwapAMM.sol\":8895:8936  uint idealBalance = (old_xs[i] * d1) / d0 */\n      swap1\n      pop\n        /* \"SolidityByExample/4_DeFi/15_StableSwapAMM.sol\":8954:8963  uint diff */\n      0x00\n        /* \"SolidityByExample/4_DeFi/15_StableSwapAMM.sol\":8966:8999  Math.abs(new_xs[i], idealBalance) */\n      tag_193\n        /* \"SolidityByExample/4_DeFi/15_StableSwapAMM.sol\":8975:8981  new_xs */\n      dup7\n        /* \"SolidityByExample/4_DeFi/15_StableSwapAMM.sol\":8982:8983  i */\n      dup5\n        /* \"SolidityByExample/4_DeFi/15_StableSwapAMM.sol\":8975:8984  new_xs[i] */\n      0x03\n      dup2\n      lt\n      tag_194\n      jumpi\n      tag_195\n      tag_73\n      jump\t// in\n    tag_195:\n    tag_194:\n      0x20\n      mul\n      add\n      mload\n        /* \"SolidityByExample/4_DeFi/15_StableSwapAMM.sol\":8986:8998  idealBalance */\n      dup4\n        /* \"SolidityByExample/4_DeFi/15_StableSwapAMM.sol\":8966:8974  Math.abs */\n      tag_196\n        /* \"SolidityByExample/4_DeFi/15_StableSwapAMM.sol\":8966:8999  Math.abs(new_xs[i], idealBalance) */\n      jump\t// in\n    tag_193:\n        /* \"SolidityByExample/4_DeFi/15_StableSwapAMM.sol\":8954:8999  uint diff = Math.abs(new_xs[i], idealBalance) */\n      swap1\n      pop\n        /* \"SolidityByExample/4_DeFi/15_StableSwapAMM.sol\":1457:1460  1e6 */\n      0x0f4240\n        /* \"SolidityByExample/4_DeFi/15_StableSwapAMM.sol\":9047:9051  diff */\n      dup2\n        /* \"SolidityByExample/4_DeFi/15_StableSwapAMM.sol\":1408:1409  1 */\n      0x01\n        /* \"SolidityByExample/4_DeFi/15_StableSwapAMM.sol\":756:757  3 */\n      0x03\n        /* \"SolidityByExample/4_DeFi/15_StableSwapAMM.sol\":1404:1409  N - 1 */\n      tag_197\n      swap2\n      swap1\n      tag_100\n      jump\t// in\n    tag_197:\n        /* \"SolidityByExample/4_DeFi/15_StableSwapAMM.sol\":1399:1400  4 */\n      0x04\n        /* \"SolidityByExample/4_DeFi/15_StableSwapAMM.sol\":1399:1410  4 * (N - 1) */\n      tag_198\n      swap2\n      swap1\n      tag_87\n      jump\t// in\n    tag_198:\n        /* \"SolidityByExample/4_DeFi/15_StableSwapAMM.sol\":756:757  3 */\n      0x03\n        /* \"SolidityByExample/4_DeFi/15_StableSwapAMM.sol\":1029:1032  300 */\n      0x012c\n        /* \"SolidityByExample/4_DeFi/15_StableSwapAMM.sol\":1382:1394  SWAP_FEE * N */\n      tag_199\n      swap2\n      swap1\n      tag_87\n      jump\t// in\n    tag_199:\n        /* \"SolidityByExample/4_DeFi/15_StableSwapAMM.sol\":1381:1411  (SWAP_FEE * N) / (4 * (N - 1)) */\n      tag_200\n      swap2\n      swap1\n      tag_103\n      jump\t// in\n    tag_200:\n        /* \"SolidityByExample/4_DeFi/15_StableSwapAMM.sol\":9031:9051  LIQUIDITY_FEE * diff */\n      tag_201\n      swap2\n      swap1\n      tag_87\n      jump\t// in\n    tag_201:\n        /* \"SolidityByExample/4_DeFi/15_StableSwapAMM.sol\":9030:9070  (LIQUIDITY_FEE * diff) / FEE_DENOMINATOR */\n      tag_202\n      swap2\n      swap1\n      tag_103\n      jump\t// in\n    tag_202:\n        /* \"SolidityByExample/4_DeFi/15_StableSwapAMM.sol\":9017:9023  new_xs */\n      dup7\n        /* \"SolidityByExample/4_DeFi/15_StableSwapAMM.sol\":9024:9025  i */\n      dup5\n        /* \"SolidityByExample/4_DeFi/15_StableSwapAMM.sol\":9017:9026  new_xs[i] */\n      0x03\n      dup2\n      lt\n      tag_203\n      jumpi\n      tag_204\n      tag_73\n      jump\t// in\n    tag_204:\n    tag_203:\n      0x20\n      mul\n      add\n        /* \"SolidityByExample/4_DeFi/15_StableSwapAMM.sol\":9017:9070  new_xs[i] -= (LIQUIDITY_FEE * diff) / FEE_DENOMINATOR */\n      dup2\n      dup2\n      mload\n      tag_205\n      swap2\n      swap1\n      tag_100\n      jump\t// in\n    tag_205:\n      swap2\n      pop\n      dup2\n      dup2\n      mstore\n      pop\n      pop\n        /* \"SolidityByExample/4_DeFi/15_StableSwapAMM.sol\":8811:9085  {... */\n      pop\n      pop\n        /* \"SolidityByExample/4_DeFi/15_StableSwapAMM.sol\":8806:8809  ++i */\n      dup1\n      tag_206\n      swap1\n      tag_180\n      jump\t// in\n    tag_206:\n      swap1\n      pop\n        /* \"SolidityByExample/4_DeFi/15_StableSwapAMM.sol\":8786:9085  for (uint i; i < N; ++i) {... */\n      jump(tag_186)\n    tag_187:\n      pop\n        /* \"SolidityByExample/4_DeFi/15_StableSwapAMM.sol\":9104:9117  _getD(new_xs) */\n      tag_207\n        /* \"SolidityByExample/4_DeFi/15_StableSwapAMM.sol\":9110:9116  new_xs */\n      dup4\n        /* \"SolidityByExample/4_DeFi/15_StableSwapAMM.sol\":9104:9109  _getD */\n      tag_149\n        /* \"SolidityByExample/4_DeFi/15_StableSwapAMM.sol\":9104:9117  _getD(new_xs) */\n      jump\t// in\n    tag_207:\n        /* \"SolidityByExample/4_DeFi/15_StableSwapAMM.sol\":9099:9117  d2 = _getD(new_xs) */\n      swap1\n      pop\n        /* \"SolidityByExample/4_DeFi/15_StableSwapAMM.sol\":8750:9166  if (_totalSupply > 0) {... */\n      jump(tag_208)\n    tag_185:\n        /* \"SolidityByExample/4_DeFi/15_StableSwapAMM.sol\":9153:9155  d1 */\n      dup2\n        /* \"SolidityByExample/4_DeFi/15_StableSwapAMM.sol\":9148:9155  d2 = d1 */\n      swap1\n      pop\n        /* \"SolidityByExample/4_DeFi/15_StableSwapAMM.sol\":8750:9166  if (_totalSupply > 0) {... */\n    tag_208:\n        /* \"SolidityByExample/4_DeFi/15_StableSwapAMM.sol\":9208:9214  uint i */\n      0x00\n        /* \"SolidityByExample/4_DeFi/15_StableSwapAMM.sol\":9203:9278  for (uint i; i < N; ++i) {... */\n    tag_209:\n        /* \"SolidityByExample/4_DeFi/15_StableSwapAMM.sol\":756:757  3 */\n      0x03\n        /* \"SolidityByExample/4_DeFi/15_StableSwapAMM.sol\":9216:9217  i */\n      dup2\n        /* \"SolidityByExample/4_DeFi/15_StableSwapAMM.sol\":9216:9221  i < N */\n      lt\n        /* \"SolidityByExample/4_DeFi/15_StableSwapAMM.sol\":9203:9278  for (uint i; i < N; ++i) {... */\n      iszero\n      tag_210\n      jumpi\n        /* \"SolidityByExample/4_DeFi/15_StableSwapAMM.sol\":9257:9264  amounts */\n      dup10\n        /* \"SolidityByExample/4_DeFi/15_StableSwapAMM.sol\":9265:9266  i */\n      dup2\n        /* \"SolidityByExample/4_DeFi/15_StableSwapAMM.sol\":9257:9267  amounts[i] */\n      0x03\n      dup2\n      lt\n      tag_212\n      jumpi\n      tag_213\n      tag_73\n      jump\t// in\n    tag_213:\n    tag_212:\n      0x20\n      mul\n      add\n      calldataload\n        /* \"SolidityByExample/4_DeFi/15_StableSwapAMM.sol\":9242:9250  balances */\n      0x06\n        /* \"SolidityByExample/4_DeFi/15_StableSwapAMM.sol\":9251:9252  i */\n      dup3\n        /* \"SolidityByExample/4_DeFi/15_StableSwapAMM.sol\":9242:9253  balances[i] */\n      0x03\n      dup2\n      lt\n      tag_214\n      jumpi\n      tag_215\n      tag_73\n      jump\t// in\n    tag_215:\n    tag_214:\n      add\n      0x00\n        /* \"SolidityByExample/4_DeFi/15_StableSwapAMM.sol\":9242:9267  balances[i] += amounts[i] */\n      dup3\n      dup3\n      sload\n      tag_217\n      swap2\n      swap1\n      tag_91\n      jump\t// in\n    tag_217:\n      swap3\n      pop\n      pop\n      dup2\n      swap1\n      sstore\n      pop\n        /* \"SolidityByExample/4_DeFi/15_StableSwapAMM.sol\":9223:9226  ++i */\n      dup1\n      tag_218\n      swap1\n      tag_180\n      jump\t// in\n    tag_218:\n      swap1\n      pop\n        /* \"SolidityByExample/4_DeFi/15_StableSwapAMM.sol\":9203:9278  for (uint i; i < N; ++i) {... */\n      jump(tag_209)\n    tag_210:\n      pop\n        /* \"SolidityByExample/4_DeFi/15_StableSwapAMM.sol\":9391:9392  0 */\n      0x00\n        /* \"SolidityByExample/4_DeFi/15_StableSwapAMM.sol\":9376:9388  _totalSupply */\n      dup7\n        /* \"SolidityByExample/4_DeFi/15_StableSwapAMM.sol\":9376:9392  _totalSupply > 0 */\n      gt\n        /* \"SolidityByExample/4_DeFi/15_StableSwapAMM.sol\":9372:9501  if (_totalSupply > 0) {... */\n      iszero\n      tag_219\n      jumpi\n        /* \"SolidityByExample/4_DeFi/15_StableSwapAMM.sol\":9446:9448  d0 */\n      dup5\n        /* \"SolidityByExample/4_DeFi/15_StableSwapAMM.sol\":9430:9442  _totalSupply */\n      dup7\n        /* \"SolidityByExample/4_DeFi/15_StableSwapAMM.sol\":9424:9426  d0 */\n      dup7\n        /* \"SolidityByExample/4_DeFi/15_StableSwapAMM.sol\":9419:9421  d2 */\n      dup4\n        /* \"SolidityByExample/4_DeFi/15_StableSwapAMM.sol\":9419:9426  d2 - d0 */\n      tag_220\n      swap2\n      swap1\n      tag_100\n      jump\t// in\n    tag_220:\n        /* \"SolidityByExample/4_DeFi/15_StableSwapAMM.sol\":9418:9442  (d2 - d0) * _totalSupply */\n      tag_221\n      swap2\n      swap1\n      tag_87\n      jump\t// in\n    tag_221:\n        /* \"SolidityByExample/4_DeFi/15_StableSwapAMM.sol\":9417:9448  ((d2 - d0) * _totalSupply) / d0 */\n      tag_222\n      swap2\n      swap1\n      tag_103\n      jump\t// in\n    tag_222:\n        /* \"SolidityByExample/4_DeFi/15_StableSwapAMM.sol\":9408:9448  shares = ((d2 - d0) * _totalSupply) / d0 */\n      swap7\n      pop\n        /* \"SolidityByExample/4_DeFi/15_StableSwapAMM.sol\":9372:9501  if (_totalSupply > 0) {... */\n      jump(tag_223)\n    tag_219:\n        /* \"SolidityByExample/4_DeFi/15_StableSwapAMM.sol\":9488:9490  d2 */\n      dup1\n        /* \"SolidityByExample/4_DeFi/15_StableSwapAMM.sol\":9479:9490  shares = d2 */\n      swap7\n      pop\n        /* \"SolidityByExample/4_DeFi/15_StableSwapAMM.sol\":9372:9501  if (_totalSupply > 0) {... */\n    tag_223:\n        /* \"SolidityByExample/4_DeFi/15_StableSwapAMM.sol\":9528:9537  minShares */\n      dup8\n        /* \"SolidityByExample/4_DeFi/15_StableSwapAMM.sol\":9518:9524  shares */\n      dup8\n        /* \"SolidityByExample/4_DeFi/15_StableSwapAMM.sol\":9518:9537  shares >= minShares */\n      lt\n      iszero\n        /* \"SolidityByExample/4_DeFi/15_StableSwapAMM.sol\":9510:9554  require(shares >= minShares, \"shares < min\") */\n      tag_224\n      jumpi\n      mload(0x40)\n      0x08c379a000000000000000000000000000000000000000000000000000000000\n      dup2\n      mstore\n      0x04\n      add\n      tag_225\n      swap1\n      tag_226\n      jump\t// in\n    tag_225:\n      mload(0x40)\n      dup1\n      swap2\n      sub\n      swap1\n      revert\n    tag_224:\n        /* \"SolidityByExample/4_DeFi/15_StableSwapAMM.sol\":9564:9589  _mint(msg.sender, shares) */\n      tag_227\n        /* \"SolidityByExample/4_DeFi/15_StableSwapAMM.sol\":9570:9580  msg.sender */\n      caller\n        /* \"SolidityByExample/4_DeFi/15_StableSwapAMM.sol\":9582:9588  shares */\n      dup9\n        /* \"SolidityByExample/4_DeFi/15_StableSwapAMM.sol\":9564:9569  _mint */\n      tag_228\n        /* \"SolidityByExample/4_DeFi/15_StableSwapAMM.sol\":9564:9589  _mint(msg.sender, shares) */\n      jump\t// in\n    tag_227:\n        /* \"SolidityByExample/4_DeFi/15_StableSwapAMM.sol\":7928:9596  {... */\n      pop\n      pop\n      pop\n      pop\n      pop\n      pop\n        /* \"SolidityByExample/4_DeFi/15_StableSwapAMM.sol\":7813:9596  function addLiquidity(uint[N] calldata amounts, uint minShares)... */\n      swap3\n      swap2\n      pop\n      pop\n      jump\t// out\n        /* \"SolidityByExample/4_DeFi/15_StableSwapAMM.sol\":11482:11659  function calcWithdrawOneToken(uint shares, uint i)... */\n    tag_51:\n        /* \"SolidityByExample/4_DeFi/15_StableSwapAMM.sol\":11580:11587  uint dy */\n      0x00\n        /* \"SolidityByExample/4_DeFi/15_StableSwapAMM.sol\":11589:11597  uint fee */\n      dup1\n        /* \"SolidityByExample/4_DeFi/15_StableSwapAMM.sol\":11620:11652  _calcWithdrawOneToken(shares, i) */\n      tag_230\n        /* \"SolidityByExample/4_DeFi/15_StableSwapAMM.sol\":11642:11648  shares */\n      dup5\n        /* \"SolidityByExample/4_DeFi/15_StableSwapAMM.sol\":11650:11651  i */\n      dup5\n        /* \"SolidityByExample/4_DeFi/15_StableSwapAMM.sol\":11620:11641  _calcWithdrawOneToken */\n      tag_128\n        /* \"SolidityByExample/4_DeFi/15_StableSwapAMM.sol\":11620:11652  _calcWithdrawOneToken(shares, i) */\n      jump\t// in\n    tag_230:\n        /* \"SolidityByExample/4_DeFi/15_StableSwapAMM.sol\":11613:11652  return _calcWithdrawOneToken(shares, i) */\n      swap2\n      pop\n      swap2\n      pop\n        /* \"SolidityByExample/4_DeFi/15_StableSwapAMM.sol\":11482:11659  function calcWithdrawOneToken(uint shares, uint i)... */\n      swap3\n      pop\n      swap3\n      swap1\n      pop\n      jump\t// out\n        /* \"SolidityByExample/4_DeFi/15_StableSwapAMM.sol\":9602:10142  function removeLiquidity(uint shares, uint[N] calldata minAmountsOut)... */\n    tag_57:\n        /* \"SolidityByExample/4_DeFi/15_StableSwapAMM.sol\":9706:9731  uint[N] memory amountsOut */\n      tag_231\n      tag_151\n      jump\t// in\n    tag_231:\n        /* \"SolidityByExample/4_DeFi/15_StableSwapAMM.sol\":9747:9764  uint _totalSupply */\n      0x00\n        /* \"SolidityByExample/4_DeFi/15_StableSwapAMM.sol\":9767:9778  totalSupply */\n      sload(0x09)\n        /* \"SolidityByExample/4_DeFi/15_StableSwapAMM.sol\":9747:9778  uint _totalSupply = totalSupply */\n      swap1\n      pop\n        /* \"SolidityByExample/4_DeFi/15_StableSwapAMM.sol\":9794:9800  uint i */\n      0x00\n        /* \"SolidityByExample/4_DeFi/15_StableSwapAMM.sol\":9789:10100  for (uint i; i < N; ++i) {... */\n    tag_233:\n        /* \"SolidityByExample/4_DeFi/15_StableSwapAMM.sol\":756:757  3 */\n      0x03\n        /* \"SolidityByExample/4_DeFi/15_StableSwapAMM.sol\":9802:9803  i */\n      dup2\n        /* \"SolidityByExample/4_DeFi/15_StableSwapAMM.sol\":9802:9807  i < N */\n      lt\n        /* \"SolidityByExample/4_DeFi/15_StableSwapAMM.sol\":9789:10100  for (uint i; i < N; ++i) {... */\n      iszero\n      tag_234\n      jumpi\n        /* \"SolidityByExample/4_DeFi/15_StableSwapAMM.sol\":9828:9842  uint amountOut */\n      0x00\n        /* \"SolidityByExample/4_DeFi/15_StableSwapAMM.sol\":9870:9882  _totalSupply */\n      dup3\n        /* \"SolidityByExample/4_DeFi/15_StableSwapAMM.sol\":9860:9866  shares */\n      dup7\n        /* \"SolidityByExample/4_DeFi/15_StableSwapAMM.sol\":9846:9854  balances */\n      0x06\n        /* \"SolidityByExample/4_DeFi/15_StableSwapAMM.sol\":9855:9856  i */\n      dup5\n        /* \"SolidityByExample/4_DeFi/15_StableSwapAMM.sol\":9846:9857  balances[i] */\n      0x03\n      dup2\n      lt\n      tag_236\n      jumpi\n      tag_237\n      tag_73\n      jump\t// in\n    tag_237:\n    tag_236:\n      add\n      sload\n        /* \"SolidityByExample/4_DeFi/15_StableSwapAMM.sol\":9846:9866  balances[i] * shares */\n      tag_239\n      swap2\n      swap1\n      tag_87\n      jump\t// in\n    tag_239:\n        /* \"SolidityByExample/4_DeFi/15_StableSwapAMM.sol\":9845:9882  (balances[i] * shares) / _totalSupply */\n      tag_240\n      swap2\n      swap1\n      tag_103\n      jump\t// in\n    tag_240:\n        /* \"SolidityByExample/4_DeFi/15_StableSwapAMM.sol\":9828:9882  uint amountOut = (balances[i] * shares) / _totalSupply */\n      swap1\n      pop\n        /* \"SolidityByExample/4_DeFi/15_StableSwapAMM.sol\":9917:9930  minAmountsOut */\n      dup5\n        /* \"SolidityByExample/4_DeFi/15_StableSwapAMM.sol\":9931:9932  i */\n      dup3\n        /* \"SolidityByExample/4_DeFi/15_StableSwapAMM.sol\":9917:9933  minAmountsOut[i] */\n      0x03\n      dup2\n      lt\n      tag_241\n      jumpi\n      tag_242\n      tag_73\n      jump\t// in\n    tag_242:\n    tag_241:\n      0x20\n      mul\n      add\n      calldataload\n        /* \"SolidityByExample/4_DeFi/15_StableSwapAMM.sol\":9904:9913  amountOut */\n      dup2\n        /* \"SolidityByExample/4_DeFi/15_StableSwapAMM.sol\":9904:9933  amountOut >= minAmountsOut[i] */\n      lt\n      iszero\n        /* \"SolidityByExample/4_DeFi/15_StableSwapAMM.sol\":9896:9947  require(amountOut >= minAmountsOut[i], \"out < min\") */\n      tag_243\n      jumpi\n      mload(0x40)\n      0x08c379a000000000000000000000000000000000000000000000000000000000\n      dup2\n      mstore\n      0x04\n      add\n      tag_244\n      swap1\n      tag_131\n      jump\t// in\n    tag_244:\n      mload(0x40)\n      dup1\n      swap2\n      sub\n      swap1\n      revert\n    tag_243:\n        /* \"SolidityByExample/4_DeFi/15_StableSwapAMM.sol\":9977:9986  amountOut */\n      dup1\n        /* \"SolidityByExample/4_DeFi/15_StableSwapAMM.sol\":9962:9970  balances */\n      0x06\n        /* \"SolidityByExample/4_DeFi/15_StableSwapAMM.sol\":9971:9972  i */\n      dup4\n        /* \"SolidityByExample/4_DeFi/15_StableSwapAMM.sol\":9962:9973  balances[i] */\n      0x03\n      dup2\n      lt\n      tag_245\n      jumpi\n      tag_246\n      tag_73\n      jump\t// in\n    tag_246:\n    tag_245:\n      add\n      0x00\n        /* \"SolidityByExample/4_DeFi/15_StableSwapAMM.sol\":9962:9986  balances[i] -= amountOut */\n      dup3\n      dup3\n      sload\n      tag_248\n      swap2\n      swap1\n      tag_100\n      jump\t// in\n    tag_248:\n      swap3\n      pop\n      pop\n      dup2\n      swap1\n      sstore\n      pop\n        /* \"SolidityByExample/4_DeFi/15_StableSwapAMM.sol\":10016:10025  amountOut */\n      dup1\n        /* \"SolidityByExample/4_DeFi/15_StableSwapAMM.sol\":10000:10010  amountsOut */\n      dup5\n        /* \"SolidityByExample/4_DeFi/15_StableSwapAMM.sol\":10011:10012  i */\n      dup4\n        /* \"SolidityByExample/4_DeFi/15_StableSwapAMM.sol\":10000:10013  amountsOut[i] */\n      0x03\n      dup2\n      lt\n      tag_249\n      jumpi\n      tag_250\n      tag_73\n      jump\t// in\n    tag_250:\n    tag_249:\n      0x20\n      mul\n      add\n        /* \"SolidityByExample/4_DeFi/15_StableSwapAMM.sol\":10000:10025  amountsOut[i] = amountOut */\n      dup2\n      dup2\n      mstore\n      pop\n      pop\n        /* \"SolidityByExample/4_DeFi/15_StableSwapAMM.sol\":10047:10053  tokens */\n      0x00\n        /* \"SolidityByExample/4_DeFi/15_StableSwapAMM.sol\":10054:10055  i */\n      dup3\n        /* \"SolidityByExample/4_DeFi/15_StableSwapAMM.sol\":10047:10056  tokens[i] */\n      0x03\n      dup2\n      lt\n      tag_251\n      jumpi\n      tag_252\n      tag_73\n      jump\t// in\n    tag_252:\n    tag_251:\n      add\n      0x00\n      swap1\n      sload\n      swap1\n      0x0100\n      exp\n      swap1\n      div\n      0xffffffffffffffffffffffffffffffffffffffff\n      and\n        /* \"SolidityByExample/4_DeFi/15_StableSwapAMM.sol\":10040:10066  IERC20(tokens[i]).transfer */\n      0xffffffffffffffffffffffffffffffffffffffff\n      and\n      0xa9059cbb\n        /* \"SolidityByExample/4_DeFi/15_StableSwapAMM.sol\":10067:10077  msg.sender */\n      caller\n        /* \"SolidityByExample/4_DeFi/15_StableSwapAMM.sol\":10079:10088  amountOut */\n      dup4\n        /* \"SolidityByExample/4_DeFi/15_StableSwapAMM.sol\":10040:10089  IERC20(tokens[i]).transfer(msg.sender, amountOut) */\n      mload(0x40)\n      dup4\n      0xffffffff\n      and\n      0xe0\n      shl\n      dup2\n      mstore\n      0x04\n      add\n      tag_254\n      swap3\n      swap2\n      swap1\n      tag_122\n      jump\t// in\n    tag_254:\n      0x20\n      mload(0x40)\n      dup1\n      dup4\n      sub\n      dup2\n      0x00\n      dup8\n      gas\n      call\n      iszero\n      dup1\n      iszero\n      tag_256\n      jumpi\n      returndatasize\n      0x00\n      dup1\n      returndatacopy\n      revert(0x00, returndatasize)\n    tag_256:\n      pop\n      pop\n      pop\n      pop\n      mload(0x40)\n      returndatasize\n      not(0x1f)\n      0x1f\n      dup3\n      add\n      and\n      dup3\n      add\n      dup1\n      0x40\n      mstore\n      pop\n      dup2\n      add\n      swap1\n      tag_257\n      swap2\n      swap1\n      tag_80\n      jump\t// in\n    tag_257:\n      pop\n        /* \"SolidityByExample/4_DeFi/15_StableSwapAMM.sol\":9814:10100  {... */\n      pop\n        /* \"SolidityByExample/4_DeFi/15_StableSwapAMM.sol\":9809:9812  ++i */\n      dup1\n      tag_258\n      swap1\n      tag_180\n      jump\t// in\n    tag_258:\n      swap1\n      pop\n        /* \"SolidityByExample/4_DeFi/15_StableSwapAMM.sol\":9789:10100  for (uint i; i < N; ++i) {... */\n      jump(tag_233)\n    tag_234:\n      pop\n        /* \"SolidityByExample/4_DeFi/15_StableSwapAMM.sol\":10110:10135  _burn(msg.sender, shares) */\n      tag_259\n        /* \"SolidityByExample/4_DeFi/15_StableSwapAMM.sol\":10116:10126  msg.sender */\n      caller\n        /* \"SolidityByExample/4_DeFi/15_StableSwapAMM.sol\":10128:10134  shares */\n      dup6\n        /* \"SolidityByExample/4_DeFi/15_StableSwapAMM.sol\":10110:10115  _burn */\n      tag_137\n        /* \"SolidityByExample/4_DeFi/15_StableSwapAMM.sol\":10110:10135  _burn(msg.sender, shares) */\n      jump\t// in\n    tag_259:\n        /* \"SolidityByExample/4_DeFi/15_StableSwapAMM.sol\":9737:10142  {... */\n      pop\n        /* \"SolidityByExample/4_DeFi/15_StableSwapAMM.sol\":9602:10142  function removeLiquidity(uint shares, uint[N] calldata minAmountsOut)... */\n      swap3\n      swap2\n      pop\n      pop\n      jump\t// out\n        /* \"SolidityByExample/4_DeFi/15_StableSwapAMM.sol\":6564:6813  function getVirtualPrice() external view returns (uint) {... */\n    tag_61:\n        /* \"SolidityByExample/4_DeFi/15_StableSwapAMM.sol\":6614:6618  uint */\n      0x00\n        /* \"SolidityByExample/4_DeFi/15_StableSwapAMM.sol\":6630:6636  uint d */\n      dup1\n        /* \"SolidityByExample/4_DeFi/15_StableSwapAMM.sol\":6639:6651  _getD(_xp()) */\n      tag_261\n        /* \"SolidityByExample/4_DeFi/15_StableSwapAMM.sol\":6645:6650  _xp() */\n      tag_262\n        /* \"SolidityByExample/4_DeFi/15_StableSwapAMM.sol\":6645:6648  _xp */\n      tag_82\n        /* \"SolidityByExample/4_DeFi/15_StableSwapAMM.sol\":6645:6650  _xp() */\n      jump\t// in\n    tag_262:\n        /* \"SolidityByExample/4_DeFi/15_StableSwapAMM.sol\":6639:6644  _getD */\n      tag_149\n        /* \"SolidityByExample/4_DeFi/15_StableSwapAMM.sol\":6639:6651  _getD(_xp()) */\n      jump\t// in\n    tag_261:\n        /* \"SolidityByExample/4_DeFi/15_StableSwapAMM.sol\":6630:6651  uint d = _getD(_xp()) */\n      swap1\n      pop\n        /* \"SolidityByExample/4_DeFi/15_StableSwapAMM.sol\":6661:6678  uint _totalSupply */\n      0x00\n        /* \"SolidityByExample/4_DeFi/15_StableSwapAMM.sol\":6681:6692  totalSupply */\n      sload(0x09)\n        /* \"SolidityByExample/4_DeFi/15_StableSwapAMM.sol\":6661:6692  uint _totalSupply = totalSupply */\n      swap1\n      pop\n        /* \"SolidityByExample/4_DeFi/15_StableSwapAMM.sol\":6721:6722  0 */\n      0x00\n        /* \"SolidityByExample/4_DeFi/15_StableSwapAMM.sol\":6706:6718  _totalSupply */\n      dup2\n        /* \"SolidityByExample/4_DeFi/15_StableSwapAMM.sol\":6706:6722  _totalSupply > 0 */\n      gt\n        /* \"SolidityByExample/4_DeFi/15_StableSwapAMM.sol\":6702:6789  if (_totalSupply > 0) {... */\n      iszero\n      tag_263\n      jumpi\n        /* \"SolidityByExample/4_DeFi/15_StableSwapAMM.sol\":6766:6778  _totalSupply */\n      dup1\n        /* \"SolidityByExample/4_DeFi/15_StableSwapAMM.sol\":1762:1764  18 */\n      0x12\n        /* \"SolidityByExample/4_DeFi/15_StableSwapAMM.sol\":6750:6752  10 */\n      0x0a\n        /* \"SolidityByExample/4_DeFi/15_StableSwapAMM.sol\":6750:6762  10**DECIMALS */\n      tag_264\n      swap2\n      swap1\n      tag_265\n      jump\t// in\n    tag_264:\n        /* \"SolidityByExample/4_DeFi/15_StableSwapAMM.sol\":6746:6747  d */\n      dup4\n        /* \"SolidityByExample/4_DeFi/15_StableSwapAMM.sol\":6746:6762  d * 10**DECIMALS */\n      tag_266\n      swap2\n      swap1\n      tag_87\n      jump\t// in\n    tag_266:\n        /* \"SolidityByExample/4_DeFi/15_StableSwapAMM.sol\":6745:6778  (d * 10**DECIMALS) / _totalSupply */\n      tag_267\n      swap2\n      swap1\n      tag_103\n      jump\t// in\n    tag_267:\n        /* \"SolidityByExample/4_DeFi/15_StableSwapAMM.sol\":6738:6778  return (d * 10**DECIMALS) / _totalSupply */\n      swap3\n      pop\n      pop\n      pop\n      jump(tag_260)\n        /* \"SolidityByExample/4_DeFi/15_StableSwapAMM.sol\":6702:6789  if (_totalSupply > 0) {... */\n    tag_263:\n        /* \"SolidityByExample/4_DeFi/15_StableSwapAMM.sol\":6805:6806  0 */\n      0x00\n        /* \"SolidityByExample/4_DeFi/15_StableSwapAMM.sol\":6798:6806  return 0 */\n      swap3\n      pop\n      pop\n      pop\n        /* \"SolidityByExample/4_DeFi/15_StableSwapAMM.sol\":6564:6813  function getVirtualPrice() external view returns (uint) {... */\n    tag_260:\n      swap1\n      jump\t// out\n        /* \"SolidityByExample/4_DeFi/15_StableSwapAMM.sol\":2178:2336  function _xp() private view returns (uint[N] memory xp) {... */\n    tag_82:\n        /* \"SolidityByExample/4_DeFi/15_StableSwapAMM.sol\":2215:2232  uint[N] memory xp */\n      tag_268\n      tag_151\n      jump\t// in\n    tag_268:\n        /* \"SolidityByExample/4_DeFi/15_StableSwapAMM.sol\":2249:2255  uint i */\n      0x00\n        /* \"SolidityByExample/4_DeFi/15_StableSwapAMM.sol\":2244:2330  for (uint i; i < N; ++i) {... */\n    tag_270:\n        /* \"SolidityByExample/4_DeFi/15_StableSwapAMM.sol\":756:757  3 */\n      0x03\n        /* \"SolidityByExample/4_DeFi/15_StableSwapAMM.sol\":2257:2258  i */\n      dup2\n        /* \"SolidityByExample/4_DeFi/15_StableSwapAMM.sol\":2257:2262  i < N */\n      lt\n        /* \"SolidityByExample/4_DeFi/15_StableSwapAMM.sol\":2244:2330  for (uint i; i < N; ++i) {... */\n      iszero\n      tag_271\n      jumpi\n        /* \"SolidityByExample/4_DeFi/15_StableSwapAMM.sol\":2305:2316  multipliers */\n      0x03\n        /* \"SolidityByExample/4_DeFi/15_StableSwapAMM.sol\":2317:2318  i */\n      dup2\n        /* \"SolidityByExample/4_DeFi/15_StableSwapAMM.sol\":2305:2319  multipliers[i] */\n      0x03\n      dup2\n      lt\n      tag_273\n      jumpi\n      tag_274\n      tag_73\n      jump\t// in\n    tag_274:\n    tag_273:\n      add\n      sload\n        /* \"SolidityByExample/4_DeFi/15_StableSwapAMM.sol\":2291:2299  balances */\n      0x06\n        /* \"SolidityByExample/4_DeFi/15_StableSwapAMM.sol\":2300:2301  i */\n      dup3\n        /* \"SolidityByExample/4_DeFi/15_StableSwapAMM.sol\":2291:2302  balances[i] */\n      0x03\n      dup2\n      lt\n      tag_276\n      jumpi\n      tag_277\n      tag_73\n      jump\t// in\n    tag_277:\n    tag_276:\n      add\n      sload\n        /* \"SolidityByExample/4_DeFi/15_StableSwapAMM.sol\":2291:2319  balances[i] * multipliers[i] */\n      tag_279\n      swap2\n      swap1\n      tag_87\n      jump\t// in\n    tag_279:\n        /* \"SolidityByExample/4_DeFi/15_StableSwapAMM.sol\":2283:2285  xp */\n      dup3\n        /* \"SolidityByExample/4_DeFi/15_StableSwapAMM.sol\":2286:2287  i */\n      dup3\n        /* \"SolidityByExample/4_DeFi/15_StableSwapAMM.sol\":2283:2288  xp[i] */\n      0x03\n      dup2\n      lt\n      tag_280\n      jumpi\n      tag_281\n      tag_73\n      jump\t// in\n    tag_281:\n    tag_280:\n      0x20\n      mul\n      add\n        /* \"SolidityByExample/4_DeFi/15_StableSwapAMM.sol\":2283:2319  xp[i] = balances[i] * multipliers[i] */\n      dup2\n      dup2\n      mstore\n      pop\n      pop\n        /* \"SolidityByExample/4_DeFi/15_StableSwapAMM.sol\":2264:2267  ++i */\n      dup1\n      tag_282\n      swap1\n      tag_180\n      jump\t// in\n    tag_282:\n      swap1\n      pop\n        /* \"SolidityByExample/4_DeFi/15_StableSwapAMM.sol\":2244:2330  for (uint i; i < N; ++i) {... */\n      jump(tag_270)\n    tag_271:\n      pop\n        /* \"SolidityByExample/4_DeFi/15_StableSwapAMM.sol\":2178:2336  function _xp() private view returns (uint[N] memory xp) {... */\n      swap1\n      jump\t// out\n        /* \"SolidityByExample/4_DeFi/15_StableSwapAMM.sol\":4008:5309  function _getY(... */\n    tag_95:\n        /* \"SolidityByExample/4_DeFi/15_StableSwapAMM.sol\":4126:4130  uint */\n      0x00\n        /* \"SolidityByExample/4_DeFi/15_StableSwapAMM.sol\":4528:4534  uint a */\n      dup1\n        /* \"SolidityByExample/4_DeFi/15_StableSwapAMM.sol\":756:757  3 */\n      0x03\n        /* \"SolidityByExample/4_DeFi/15_StableSwapAMM.sol\":974:975  1 */\n      0x01\n        /* \"SolidityByExample/4_DeFi/15_StableSwapAMM.sol\":756:757  3 */\n      0x03\n        /* \"SolidityByExample/4_DeFi/15_StableSwapAMM.sol\":970:975  N - 1 */\n      tag_284\n      swap2\n      swap1\n      tag_100\n      jump\t// in\n    tag_284:\n        /* \"SolidityByExample/4_DeFi/15_StableSwapAMM.sol\":756:757  3 */\n      0x03\n        /* \"SolidityByExample/4_DeFi/15_StableSwapAMM.sol\":966:976  N**(N - 1) */\n      tag_285\n      swap2\n      swap1\n      tag_265\n      jump\t// in\n    tag_285:\n        /* \"SolidityByExample/4_DeFi/15_StableSwapAMM.sol\":958:962  1000 */\n      0x03e8\n        /* \"SolidityByExample/4_DeFi/15_StableSwapAMM.sol\":958:977  1000 * (N**(N - 1)) */\n      tag_286\n      swap2\n      swap1\n      tag_87\n      jump\t// in\n    tag_286:\n        /* \"SolidityByExample/4_DeFi/15_StableSwapAMM.sol\":4537:4542  A * N */\n      tag_287\n      swap2\n      swap1\n      tag_87\n      jump\t// in\n    tag_287:\n        /* \"SolidityByExample/4_DeFi/15_StableSwapAMM.sol\":4528:4542  uint a = A * N */\n      swap1\n      pop\n        /* \"SolidityByExample/4_DeFi/15_StableSwapAMM.sol\":4552:4558  uint d */\n      0x00\n        /* \"SolidityByExample/4_DeFi/15_StableSwapAMM.sol\":4561:4570  _getD(xp) */\n      tag_288\n        /* \"SolidityByExample/4_DeFi/15_StableSwapAMM.sol\":4567:4569  xp */\n      dup5\n        /* \"SolidityByExample/4_DeFi/15_StableSwapAMM.sol\":4561:4566  _getD */\n      tag_149\n        /* \"SolidityByExample/4_DeFi/15_StableSwapAMM.sol\":4561:4570  _getD(xp) */\n      jump\t// in\n    tag_288:\n        /* \"SolidityByExample/4_DeFi/15_StableSwapAMM.sol\":4552:4570  uint d = _getD(xp) */\n      swap1\n      pop\n        /* \"SolidityByExample/4_DeFi/15_StableSwapAMM.sol\":4580:4586  uint s */\n      0x00\n        /* \"SolidityByExample/4_DeFi/15_StableSwapAMM.sol\":4596:4602  uint c */\n      dup1\n        /* \"SolidityByExample/4_DeFi/15_StableSwapAMM.sol\":4605:4606  d */\n      dup3\n        /* \"SolidityByExample/4_DeFi/15_StableSwapAMM.sol\":4596:4606  uint c = d */\n      swap1\n      pop\n        /* \"SolidityByExample/4_DeFi/15_StableSwapAMM.sol\":4617:4624  uint _x */\n      0x00\n        /* \"SolidityByExample/4_DeFi/15_StableSwapAMM.sol\":4639:4645  uint k */\n      dup1\n        /* \"SolidityByExample/4_DeFi/15_StableSwapAMM.sol\":4634:4900  for (uint k; k < N; ++k) {... */\n    tag_289:\n        /* \"SolidityByExample/4_DeFi/15_StableSwapAMM.sol\":756:757  3 */\n      0x03\n        /* \"SolidityByExample/4_DeFi/15_StableSwapAMM.sol\":4647:4648  k */\n      dup2\n        /* \"SolidityByExample/4_DeFi/15_StableSwapAMM.sol\":4647:4652  k < N */\n      lt\n        /* \"SolidityByExample/4_DeFi/15_StableSwapAMM.sol\":4634:4900  for (uint k; k < N; ++k) {... */\n      iszero\n      tag_290\n      jumpi\n        /* \"SolidityByExample/4_DeFi/15_StableSwapAMM.sol\":4682:4683  i */\n      dup11\n        /* \"SolidityByExample/4_DeFi/15_StableSwapAMM.sol\":4677:4678  k */\n      dup2\n        /* \"SolidityByExample/4_DeFi/15_StableSwapAMM.sol\":4677:4683  k == i */\n      sub\n        /* \"SolidityByExample/4_DeFi/15_StableSwapAMM.sol\":4673:4832  if (k == i) {... */\n      tag_292\n      jumpi\n        /* \"SolidityByExample/4_DeFi/15_StableSwapAMM.sol\":4708:4709  x */\n      dup9\n        /* \"SolidityByExample/4_DeFi/15_StableSwapAMM.sol\":4703:4709  _x = x */\n      swap2\n      pop\n        /* \"SolidityByExample/4_DeFi/15_StableSwapAMM.sol\":4673:4832  if (k == i) {... */\n      jump(tag_293)\n    tag_292:\n        /* \"SolidityByExample/4_DeFi/15_StableSwapAMM.sol\":4739:4740  j */\n      dup10\n        /* \"SolidityByExample/4_DeFi/15_StableSwapAMM.sol\":4734:4735  k */\n      dup2\n        /* \"SolidityByExample/4_DeFi/15_StableSwapAMM.sol\":4734:4740  k == j */\n      sub\n        /* \"SolidityByExample/4_DeFi/15_StableSwapAMM.sol\":4730:4832  if (k == j) {... */\n      iszero\n        /* \"SolidityByExample/4_DeFi/15_StableSwapAMM.sol\":4760:4768  continue */\n      tag_291\n        /* \"SolidityByExample/4_DeFi/15_StableSwapAMM.sol\":4730:4832  if (k == j) {... */\n      jumpi\n        /* \"SolidityByExample/4_DeFi/15_StableSwapAMM.sol\":4812:4814  xp */\n      dup8\n        /* \"SolidityByExample/4_DeFi/15_StableSwapAMM.sol\":4815:4816  k */\n      dup2\n        /* \"SolidityByExample/4_DeFi/15_StableSwapAMM.sol\":4812:4817  xp[k] */\n      0x03\n      dup2\n      lt\n      tag_296\n      jumpi\n      tag_297\n      tag_73\n      jump\t// in\n    tag_297:\n    tag_296:\n      0x20\n      mul\n      add\n      mload\n        /* \"SolidityByExample/4_DeFi/15_StableSwapAMM.sol\":4807:4817  _x = xp[k] */\n      swap2\n      pop\n        /* \"SolidityByExample/4_DeFi/15_StableSwapAMM.sol\":4673:4832  if (k == i) {... */\n    tag_293:\n        /* \"SolidityByExample/4_DeFi/15_StableSwapAMM.sol\":4851:4853  _x */\n      dup2\n        /* \"SolidityByExample/4_DeFi/15_StableSwapAMM.sol\":4846:4853  s += _x */\n      dup5\n      tag_298\n      swap2\n      swap1\n      tag_91\n      jump\t// in\n    tag_298:\n      swap4\n      pop\n        /* \"SolidityByExample/4_DeFi/15_StableSwapAMM.sol\":4886:4888  _x */\n      dup2\n        /* \"SolidityByExample/4_DeFi/15_StableSwapAMM.sol\":756:757  3 */\n      0x03\n        /* \"SolidityByExample/4_DeFi/15_StableSwapAMM.sol\":4882:4888  N * _x */\n      tag_299\n      swap2\n      swap1\n      tag_87\n      jump\t// in\n    tag_299:\n        /* \"SolidityByExample/4_DeFi/15_StableSwapAMM.sol\":4876:4877  d */\n      dup6\n        /* \"SolidityByExample/4_DeFi/15_StableSwapAMM.sol\":4872:4873  c */\n      dup5\n        /* \"SolidityByExample/4_DeFi/15_StableSwapAMM.sol\":4872:4877  c * d */\n      tag_300\n      swap2\n      swap1\n      tag_87\n      jump\t// in\n    tag_300:\n        /* \"SolidityByExample/4_DeFi/15_StableSwapAMM.sol\":4871:4889  (c * d) / (N * _x) */\n      tag_301\n      swap2\n      swap1\n      tag_103\n      jump\t// in\n    tag_301:\n        /* \"SolidityByExample/4_DeFi/15_StableSwapAMM.sol\":4867:4889  c = (c * d) / (N * _x) */\n      swap3\n      pop\n        /* \"SolidityByExample/4_DeFi/15_StableSwapAMM.sol\":4634:4900  for (uint k; k < N; ++k) {... */\n    tag_291:\n        /* \"SolidityByExample/4_DeFi/15_StableSwapAMM.sol\":4654:4657  ++k */\n      dup1\n      tag_302\n      swap1\n      tag_180\n      jump\t// in\n    tag_302:\n      swap1\n      pop\n        /* \"SolidityByExample/4_DeFi/15_StableSwapAMM.sol\":4634:4900  for (uint k; k < N; ++k) {... */\n      jump(tag_289)\n    tag_290:\n      pop\n        /* \"SolidityByExample/4_DeFi/15_StableSwapAMM.sol\":4928:4929  a */\n      dup5\n        /* \"SolidityByExample/4_DeFi/15_StableSwapAMM.sol\":756:757  3 */\n      0x03\n        /* \"SolidityByExample/4_DeFi/15_StableSwapAMM.sol\":4924:4929  N * a */\n      tag_303\n      swap2\n      swap1\n      tag_87\n      jump\t// in\n    tag_303:\n        /* \"SolidityByExample/4_DeFi/15_StableSwapAMM.sol\":4918:4919  d */\n      dup5\n        /* \"SolidityByExample/4_DeFi/15_StableSwapAMM.sol\":4914:4915  c */\n      dup4\n        /* \"SolidityByExample/4_DeFi/15_StableSwapAMM.sol\":4914:4919  c * d */\n      tag_304\n      swap2\n      swap1\n      tag_87\n      jump\t// in\n    tag_304:\n        /* \"SolidityByExample/4_DeFi/15_StableSwapAMM.sol\":4913:4930  (c * d) / (N * a) */\n      tag_305\n      swap2\n      swap1\n      tag_103\n      jump\t// in\n    tag_305:\n        /* \"SolidityByExample/4_DeFi/15_StableSwapAMM.sol\":4909:4930  c = (c * d) / (N * a) */\n      swap2\n      pop\n        /* \"SolidityByExample/4_DeFi/15_StableSwapAMM.sol\":4940:4946  uint b */\n      0x00\n        /* \"SolidityByExample/4_DeFi/15_StableSwapAMM.sol\":4957:4958  a */\n      dup6\n        /* \"SolidityByExample/4_DeFi/15_StableSwapAMM.sol\":4953:4954  d */\n      dup6\n        /* \"SolidityByExample/4_DeFi/15_StableSwapAMM.sol\":4953:4958  d / a */\n      tag_306\n      swap2\n      swap1\n      tag_103\n      jump\t// in\n    tag_306:\n        /* \"SolidityByExample/4_DeFi/15_StableSwapAMM.sol\":4949:4950  s */\n      dup5\n        /* \"SolidityByExample/4_DeFi/15_StableSwapAMM.sol\":4949:4958  s + d / a */\n      tag_307\n      swap2\n      swap1\n      tag_91\n      jump\t// in\n    tag_307:\n        /* \"SolidityByExample/4_DeFi/15_StableSwapAMM.sol\":4940:4958  uint b = s + d / a */\n      swap1\n      pop\n        /* \"SolidityByExample/4_DeFi/15_StableSwapAMM.sol\":4996:5007  uint y_prev */\n      0x00\n        /* \"SolidityByExample/4_DeFi/15_StableSwapAMM.sol\":5050:5056  uint y */\n      dup1\n        /* \"SolidityByExample/4_DeFi/15_StableSwapAMM.sol\":5059:5060  d */\n      dup7\n        /* \"SolidityByExample/4_DeFi/15_StableSwapAMM.sol\":5050:5060  uint y = d */\n      swap1\n      pop\n        /* \"SolidityByExample/4_DeFi/15_StableSwapAMM.sol\":5075:5082  uint _i */\n      0x00\n        /* \"SolidityByExample/4_DeFi/15_StableSwapAMM.sol\":5070:5266  for (uint _i; _i < 255; ++_i) {... */\n    tag_308:\n        /* \"SolidityByExample/4_DeFi/15_StableSwapAMM.sol\":5089:5092  255 */\n      0xff\n        /* \"SolidityByExample/4_DeFi/15_StableSwapAMM.sol\":5084:5086  _i */\n      dup2\n        /* \"SolidityByExample/4_DeFi/15_StableSwapAMM.sol\":5084:5092  _i < 255 */\n      lt\n        /* \"SolidityByExample/4_DeFi/15_StableSwapAMM.sol\":5070:5266  for (uint _i; _i < 255; ++_i) {... */\n      iszero\n      tag_309\n      jumpi\n        /* \"SolidityByExample/4_DeFi/15_StableSwapAMM.sol\":5123:5124  y */\n      dup2\n        /* \"SolidityByExample/4_DeFi/15_StableSwapAMM.sol\":5114:5124  y_prev = y */\n      swap3\n      pop\n        /* \"SolidityByExample/4_DeFi/15_StableSwapAMM.sol\":5169:5170  d */\n      dup8\n        /* \"SolidityByExample/4_DeFi/15_StableSwapAMM.sol\":5165:5166  b */\n      dup5\n        /* \"SolidityByExample/4_DeFi/15_StableSwapAMM.sol\":5161:5162  y */\n      dup4\n        /* \"SolidityByExample/4_DeFi/15_StableSwapAMM.sol\":5157:5158  2 */\n      0x02\n        /* \"SolidityByExample/4_DeFi/15_StableSwapAMM.sol\":5157:5162  2 * y */\n      tag_311\n      swap2\n      swap1\n      tag_87\n      jump\t// in\n    tag_311:\n        /* \"SolidityByExample/4_DeFi/15_StableSwapAMM.sol\":5157:5166  2 * y + b */\n      tag_312\n      swap2\n      swap1\n      tag_91\n      jump\t// in\n    tag_312:\n        /* \"SolidityByExample/4_DeFi/15_StableSwapAMM.sol\":5157:5170  2 * y + b - d */\n      tag_313\n      swap2\n      swap1\n      tag_100\n      jump\t// in\n    tag_313:\n        /* \"SolidityByExample/4_DeFi/15_StableSwapAMM.sol\":5151:5152  c */\n      dup7\n        /* \"SolidityByExample/4_DeFi/15_StableSwapAMM.sol\":5147:5148  y */\n      dup4\n        /* \"SolidityByExample/4_DeFi/15_StableSwapAMM.sol\":5143:5144  y */\n      dup5\n        /* \"SolidityByExample/4_DeFi/15_StableSwapAMM.sol\":5143:5148  y * y */\n      tag_314\n      swap2\n      swap1\n      tag_87\n      jump\t// in\n    tag_314:\n        /* \"SolidityByExample/4_DeFi/15_StableSwapAMM.sol\":5143:5152  y * y + c */\n      tag_315\n      swap2\n      swap1\n      tag_91\n      jump\t// in\n    tag_315:\n        /* \"SolidityByExample/4_DeFi/15_StableSwapAMM.sol\":5142:5171  (y * y + c) / (2 * y + b - d) */\n      tag_316\n      swap2\n      swap1\n      tag_103\n      jump\t// in\n    tag_316:\n        /* \"SolidityByExample/4_DeFi/15_StableSwapAMM.sol\":5138:5171  y = (y * y + c) / (2 * y + b - d) */\n      swap2\n      pop\n        /* \"SolidityByExample/4_DeFi/15_StableSwapAMM.sol\":5212:5213  1 */\n      0x01\n        /* \"SolidityByExample/4_DeFi/15_StableSwapAMM.sol\":5189:5208  Math.abs(y, y_prev) */\n      tag_317\n        /* \"SolidityByExample/4_DeFi/15_StableSwapAMM.sol\":5198:5199  y */\n      dup4\n        /* \"SolidityByExample/4_DeFi/15_StableSwapAMM.sol\":5201:5207  y_prev */\n      dup6\n        /* \"SolidityByExample/4_DeFi/15_StableSwapAMM.sol\":5189:5197  Math.abs */\n      tag_196\n        /* \"SolidityByExample/4_DeFi/15_StableSwapAMM.sol\":5189:5208  Math.abs(y, y_prev) */\n      jump\t// in\n    tag_317:\n        /* \"SolidityByExample/4_DeFi/15_StableSwapAMM.sol\":5189:5213  Math.abs(y, y_prev) <= 1 */\n      gt\n        /* \"SolidityByExample/4_DeFi/15_StableSwapAMM.sol\":5185:5256  if (Math.abs(y, y_prev) <= 1) {... */\n      tag_318\n      jumpi\n        /* \"SolidityByExample/4_DeFi/15_StableSwapAMM.sol\":5240:5241  y */\n      dup2\n        /* \"SolidityByExample/4_DeFi/15_StableSwapAMM.sol\":5233:5241  return y */\n      swap10\n      pop\n      pop\n      pop\n      pop\n      pop\n      pop\n      pop\n      pop\n      pop\n      pop\n      jump(tag_283)\n        /* \"SolidityByExample/4_DeFi/15_StableSwapAMM.sol\":5185:5256  if (Math.abs(y, y_prev) <= 1) {... */\n    tag_318:\n        /* \"SolidityByExample/4_DeFi/15_StableSwapAMM.sol\":5094:5098  ++_i */\n      dup1\n      tag_319\n      swap1\n      tag_180\n      jump\t// in\n    tag_319:\n      swap1\n      pop\n        /* \"SolidityByExample/4_DeFi/15_StableSwapAMM.sol\":5070:5266  for (uint _i; _i < 255; ++_i) {... */\n      jump(tag_308)\n    tag_309:\n      pop\n        /* \"SolidityByExample/4_DeFi/15_StableSwapAMM.sol\":5275:5302  revert(\"y didn't converge\") */\n      mload(0x40)\n      0x08c379a000000000000000000000000000000000000000000000000000000000\n      dup2\n      mstore\n      0x04\n      add\n      tag_320\n      swap1\n      tag_321\n      jump\t// in\n    tag_320:\n      mload(0x40)\n      dup1\n      swap2\n      sub\n      swap1\n      revert\n        /* \"SolidityByExample/4_DeFi/15_StableSwapAMM.sol\":4008:5309  function _getY(... */\n    tag_283:\n      swap5\n      swap4\n      pop\n      pop\n      pop\n      pop\n      jump\t// out\n        /* \"SolidityByExample/4_DeFi/15_StableSwapAMM.sol\":10419:11476  function _calcWithdrawOneToken(uint shares, uint i)... */\n    tag_128:\n        /* \"SolidityByExample/4_DeFi/15_StableSwapAMM.sol\":10517:10524  uint dy */\n      0x00\n        /* \"SolidityByExample/4_DeFi/15_StableSwapAMM.sol\":10526:10534  uint fee */\n      dup1\n        /* \"SolidityByExample/4_DeFi/15_StableSwapAMM.sol\":10550:10567  uint _totalSupply */\n      0x00\n        /* \"SolidityByExample/4_DeFi/15_StableSwapAMM.sol\":10570:10581  totalSupply */\n      sload(0x09)\n        /* \"SolidityByExample/4_DeFi/15_StableSwapAMM.sol\":10550:10581  uint _totalSupply = totalSupply */\n      swap1\n      pop\n        /* \"SolidityByExample/4_DeFi/15_StableSwapAMM.sol\":10591:10608  uint[N] memory xp */\n      0x00\n        /* \"SolidityByExample/4_DeFi/15_StableSwapAMM.sol\":10611:10616  _xp() */\n      tag_323\n        /* \"SolidityByExample/4_DeFi/15_StableSwapAMM.sol\":10611:10614  _xp */\n      tag_82\n        /* \"SolidityByExample/4_DeFi/15_StableSwapAMM.sol\":10611:10616  _xp() */\n      jump\t// in\n    tag_323:\n        /* \"SolidityByExample/4_DeFi/15_StableSwapAMM.sol\":10591:10616  uint[N] memory xp = _xp() */\n      swap1\n      pop\n        /* \"SolidityByExample/4_DeFi/15_StableSwapAMM.sol\":10658:10665  uint d0 */\n      0x00\n        /* \"SolidityByExample/4_DeFi/15_StableSwapAMM.sol\":10668:10677  _getD(xp) */\n      tag_324\n        /* \"SolidityByExample/4_DeFi/15_StableSwapAMM.sol\":10674:10676  xp */\n      dup3\n        /* \"SolidityByExample/4_DeFi/15_StableSwapAMM.sol\":10668:10673  _getD */\n      tag_149\n        /* \"SolidityByExample/4_DeFi/15_StableSwapAMM.sol\":10668:10677  _getD(xp) */\n      jump\t// in\n    tag_324:\n        /* \"SolidityByExample/4_DeFi/15_StableSwapAMM.sol\":10658:10677  uint d0 = _getD(xp) */\n      swap1\n      pop\n        /* \"SolidityByExample/4_DeFi/15_StableSwapAMM.sol\":10687:10694  uint d1 */\n      0x00\n        /* \"SolidityByExample/4_DeFi/15_StableSwapAMM.sol\":10718:10730  _totalSupply */\n      dup4\n        /* \"SolidityByExample/4_DeFi/15_StableSwapAMM.sol\":10708:10714  shares */\n      dup9\n        /* \"SolidityByExample/4_DeFi/15_StableSwapAMM.sol\":10703:10705  d0 */\n      dup4\n        /* \"SolidityByExample/4_DeFi/15_StableSwapAMM.sol\":10703:10714  d0 * shares */\n      tag_325\n      swap2\n      swap1\n      tag_87\n      jump\t// in\n    tag_325:\n        /* \"SolidityByExample/4_DeFi/15_StableSwapAMM.sol\":10702:10730  (d0 * shares) / _totalSupply */\n      tag_326\n      swap2\n      swap1\n      tag_103\n      jump\t// in\n    tag_326:\n        /* \"SolidityByExample/4_DeFi/15_StableSwapAMM.sol\":10697:10699  d0 */\n      dup3\n        /* \"SolidityByExample/4_DeFi/15_StableSwapAMM.sol\":10697:10730  d0 - (d0 * shares) / _totalSupply */\n      tag_327\n      swap2\n      swap1\n      tag_100\n      jump\t// in\n    tag_327:\n        /* \"SolidityByExample/4_DeFi/15_StableSwapAMM.sol\":10687:10730  uint d1 = d0 - (d0 * shares) / _totalSupply */\n      swap1\n      pop\n        /* \"SolidityByExample/4_DeFi/15_StableSwapAMM.sol\":10787:10794  uint y0 */\n      0x00\n        /* \"SolidityByExample/4_DeFi/15_StableSwapAMM.sol\":10797:10814  _getYD(i, xp, d1) */\n      tag_328\n        /* \"SolidityByExample/4_DeFi/15_StableSwapAMM.sol\":10804:10805  i */\n      dup9\n        /* \"SolidityByExample/4_DeFi/15_StableSwapAMM.sol\":10807:10809  xp */\n      dup6\n        /* \"SolidityByExample/4_DeFi/15_StableSwapAMM.sol\":10811:10813  d1 */\n      dup5\n        /* \"SolidityByExample/4_DeFi/15_StableSwapAMM.sol\":10797:10803  _getYD */\n      tag_329\n        /* \"SolidityByExample/4_DeFi/15_StableSwapAMM.sol\":10797:10814  _getYD(i, xp, d1) */\n      jump\t// in\n    tag_328:\n        /* \"SolidityByExample/4_DeFi/15_StableSwapAMM.sol\":10787:10814  uint y0 = _getYD(i, xp, d1) */\n      swap1\n      pop\n        /* \"SolidityByExample/4_DeFi/15_StableSwapAMM.sol\":10866:10874  uint dy0 */\n      0x00\n        /* \"SolidityByExample/4_DeFi/15_StableSwapAMM.sol\":10892:10903  multipliers */\n      0x03\n        /* \"SolidityByExample/4_DeFi/15_StableSwapAMM.sol\":10904:10905  i */\n      dup10\n        /* \"SolidityByExample/4_DeFi/15_StableSwapAMM.sol\":10892:10906  multipliers[i] */\n      0x03\n      dup2\n      lt\n      tag_330\n      jumpi\n      tag_331\n      tag_73\n      jump\t// in\n    tag_331:\n    tag_330:\n      add\n      sload\n        /* \"SolidityByExample/4_DeFi/15_StableSwapAMM.sol\":10886:10888  y0 */\n      dup3\n        /* \"SolidityByExample/4_DeFi/15_StableSwapAMM.sol\":10878:10880  xp */\n      dup7\n        /* \"SolidityByExample/4_DeFi/15_StableSwapAMM.sol\":10881:10882  i */\n      dup12\n        /* \"SolidityByExample/4_DeFi/15_StableSwapAMM.sol\":10878:10883  xp[i] */\n      0x03\n      dup2\n      lt\n      tag_333\n      jumpi\n      tag_334\n      tag_73\n      jump\t// in\n    tag_334:\n    tag_333:\n      0x20\n      mul\n      add\n      mload\n        /* \"SolidityByExample/4_DeFi/15_StableSwapAMM.sol\":10878:10888  xp[i] - y0 */\n      tag_335\n      swap2\n      swap1\n      tag_100\n      jump\t// in\n    tag_335:\n        /* \"SolidityByExample/4_DeFi/15_StableSwapAMM.sol\":10877:10906  (xp[i] - y0) / multipliers[i] */\n      tag_336\n      swap2\n      swap1\n      tag_103\n      jump\t// in\n    tag_336:\n        /* \"SolidityByExample/4_DeFi/15_StableSwapAMM.sol\":10866:10906  uint dy0 = (xp[i] - y0) / multipliers[i] */\n      swap1\n      pop\n        /* \"SolidityByExample/4_DeFi/15_StableSwapAMM.sol\":10973:10980  uint dx */\n      0x00\n        /* \"SolidityByExample/4_DeFi/15_StableSwapAMM.sol\":10995:11001  uint j */\n      dup1\n        /* \"SolidityByExample/4_DeFi/15_StableSwapAMM.sol\":10990:11273  for (uint j; j < N; ++j) {... */\n    tag_337:\n        /* \"SolidityByExample/4_DeFi/15_StableSwapAMM.sol\":756:757  3 */\n      0x03\n        /* \"SolidityByExample/4_DeFi/15_StableSwapAMM.sol\":11003:11004  j */\n      dup2\n        /* \"SolidityByExample/4_DeFi/15_StableSwapAMM.sol\":11003:11008  j < N */\n      lt\n        /* \"SolidityByExample/4_DeFi/15_StableSwapAMM.sol\":10990:11273  for (uint j; j < N; ++j) {... */\n      iszero\n      tag_338\n      jumpi\n        /* \"SolidityByExample/4_DeFi/15_StableSwapAMM.sol\":11038:11039  i */\n      dup11\n        /* \"SolidityByExample/4_DeFi/15_StableSwapAMM.sol\":11033:11034  j */\n      dup2\n        /* \"SolidityByExample/4_DeFi/15_StableSwapAMM.sol\":11033:11039  j == i */\n      sub\n        /* \"SolidityByExample/4_DeFi/15_StableSwapAMM.sol\":11029:11202  if (j == i) {... */\n      tag_340\n      jumpi\n        /* \"SolidityByExample/4_DeFi/15_StableSwapAMM.sol\":11084:11086  y0 */\n      dup4\n        /* \"SolidityByExample/4_DeFi/15_StableSwapAMM.sol\":11079:11081  d0 */\n      dup7\n        /* \"SolidityByExample/4_DeFi/15_StableSwapAMM.sol\":11073:11075  d1 */\n      dup7\n        /* \"SolidityByExample/4_DeFi/15_StableSwapAMM.sol\":11065:11067  xp */\n      dup10\n        /* \"SolidityByExample/4_DeFi/15_StableSwapAMM.sol\":11068:11069  j */\n      dup5\n        /* \"SolidityByExample/4_DeFi/15_StableSwapAMM.sol\":11065:11070  xp[j] */\n      0x03\n      dup2\n      lt\n      tag_341\n      jumpi\n      tag_342\n      tag_73\n      jump\t// in\n    tag_342:\n    tag_341:\n      0x20\n      mul\n      add\n      mload\n        /* \"SolidityByExample/4_DeFi/15_StableSwapAMM.sol\":11065:11075  xp[j] * d1 */\n      tag_343\n      swap2\n      swap1\n      tag_87\n      jump\t// in\n    tag_343:\n        /* \"SolidityByExample/4_DeFi/15_StableSwapAMM.sol\":11064:11081  (xp[j] * d1) / d0 */\n      tag_344\n      swap2\n      swap1\n      tag_103\n      jump\t// in\n    tag_344:\n        /* \"SolidityByExample/4_DeFi/15_StableSwapAMM.sol\":11064:11086  (xp[j] * d1) / d0 - y0 */\n      tag_345\n      swap2\n      swap1\n      tag_100\n      jump\t// in\n    tag_345:\n        /* \"SolidityByExample/4_DeFi/15_StableSwapAMM.sol\":11059:11086  dx = (xp[j] * d1) / d0 - y0 */\n      swap2\n      pop\n        /* \"SolidityByExample/4_DeFi/15_StableSwapAMM.sol\":11029:11202  if (j == i) {... */\n      jump(tag_346)\n    tag_340:\n        /* \"SolidityByExample/4_DeFi/15_StableSwapAMM.sol\":11185:11187  d0 */\n      dup6\n        /* \"SolidityByExample/4_DeFi/15_StableSwapAMM.sol\":11179:11181  d1 */\n      dup6\n        /* \"SolidityByExample/4_DeFi/15_StableSwapAMM.sol\":11171:11173  xp */\n      dup9\n        /* \"SolidityByExample/4_DeFi/15_StableSwapAMM.sol\":11174:11175  j */\n      dup4\n        /* \"SolidityByExample/4_DeFi/15_StableSwapAMM.sol\":11171:11176  xp[j] */\n      0x03\n      dup2\n      lt\n      tag_347\n      jumpi\n      tag_348\n      tag_73\n      jump\t// in\n    tag_348:\n    tag_347:\n      0x20\n      mul\n      add\n      mload\n        /* \"SolidityByExample/4_DeFi/15_StableSwapAMM.sol\":11171:11181  xp[j] * d1 */\n      tag_349\n      swap2\n      swap1\n      tag_87\n      jump\t// in\n    tag_349:\n        /* \"SolidityByExample/4_DeFi/15_StableSwapAMM.sol\":11170:11187  (xp[j] * d1) / d0 */\n      tag_350\n      swap2\n      swap1\n      tag_103\n      jump\t// in\n    tag_350:\n        /* \"SolidityByExample/4_DeFi/15_StableSwapAMM.sol\":11162:11164  xp */\n      dup8\n        /* \"SolidityByExample/4_DeFi/15_StableSwapAMM.sol\":11165:11166  j */\n      dup3\n        /* \"SolidityByExample/4_DeFi/15_StableSwapAMM.sol\":11162:11167  xp[j] */\n      0x03\n      dup2\n      lt\n      tag_351\n      jumpi\n      tag_352\n      tag_73\n      jump\t// in\n    tag_352:\n    tag_351:\n      0x20\n      mul\n      add\n      mload\n        /* \"SolidityByExample/4_DeFi/15_StableSwapAMM.sol\":11162:11187  xp[j] - (xp[j] * d1) / d0 */\n      tag_353\n      swap2\n      swap1\n      tag_100\n      jump\t// in\n    tag_353:\n        /* \"SolidityByExample/4_DeFi/15_StableSwapAMM.sol\":11157:11187  dx = xp[j] - (xp[j] * d1) / d0 */\n      swap2\n      pop\n        /* \"SolidityByExample/4_DeFi/15_StableSwapAMM.sol\":11029:11202  if (j == i) {... */\n    tag_346:\n        /* \"SolidityByExample/4_DeFi/15_StableSwapAMM.sol\":1457:1460  1e6 */\n      0x0f4240\n        /* \"SolidityByExample/4_DeFi/15_StableSwapAMM.sol\":11241:11243  dx */\n      dup3\n        /* \"SolidityByExample/4_DeFi/15_StableSwapAMM.sol\":1408:1409  1 */\n      0x01\n        /* \"SolidityByExample/4_DeFi/15_StableSwapAMM.sol\":756:757  3 */\n      0x03\n        /* \"SolidityByExample/4_DeFi/15_StableSwapAMM.sol\":1404:1409  N - 1 */\n      tag_354\n      swap2\n      swap1\n      tag_100\n      jump\t// in\n    tag_354:\n        /* \"SolidityByExample/4_DeFi/15_StableSwapAMM.sol\":1399:1400  4 */\n      0x04\n        /* \"SolidityByExample/4_DeFi/15_StableSwapAMM.sol\":1399:1410  4 * (N - 1) */\n      tag_355\n      swap2\n      swap1\n      tag_87\n      jump\t// in\n    tag_355:\n        /* \"SolidityByExample/4_DeFi/15_StableSwapAMM.sol\":756:757  3 */\n      0x03\n        /* \"SolidityByExample/4_DeFi/15_StableSwapAMM.sol\":1029:1032  300 */\n      0x012c\n        /* \"SolidityByExample/4_DeFi/15_StableSwapAMM.sol\":1382:1394  SWAP_FEE * N */\n      tag_356\n      swap2\n      swap1\n      tag_87\n      jump\t// in\n    tag_356:\n        /* \"SolidityByExample/4_DeFi/15_StableSwapAMM.sol\":1381:1411  (SWAP_FEE * N) / (4 * (N - 1)) */\n      tag_357\n      swap2\n      swap1\n      tag_103\n      jump\t// in\n    tag_357:\n        /* \"SolidityByExample/4_DeFi/15_StableSwapAMM.sol\":11225:11243  LIQUIDITY_FEE * dx */\n      tag_358\n      swap2\n      swap1\n      tag_87\n      jump\t// in\n    tag_358:\n        /* \"SolidityByExample/4_DeFi/15_StableSwapAMM.sol\":11224:11262  (LIQUIDITY_FEE * dx) / FEE_DENOMINATOR */\n      tag_359\n      swap2\n      swap1\n      tag_103\n      jump\t// in\n    tag_359:\n        /* \"SolidityByExample/4_DeFi/15_StableSwapAMM.sol\":11215:11217  xp */\n      dup8\n        /* \"SolidityByExample/4_DeFi/15_StableSwapAMM.sol\":11218:11219  j */\n      dup3\n        /* \"SolidityByExample/4_DeFi/15_StableSwapAMM.sol\":11215:11220  xp[j] */\n      0x03\n      dup2\n      lt\n      tag_360\n      jumpi\n      tag_361\n      tag_73\n      jump\t// in\n    tag_361:\n    tag_360:\n      0x20\n      mul\n      add\n        /* \"SolidityByExample/4_DeFi/15_StableSwapAMM.sol\":11215:11262  xp[j] -= (LIQUIDITY_FEE * dx) / FEE_DENOMINATOR */\n      dup2\n      dup2\n      mload\n      tag_362\n      swap2\n      swap1\n      tag_100\n      jump\t// in\n    tag_362:\n      swap2\n      pop\n      dup2\n      dup2\n      mstore\n      pop\n      pop\n        /* \"SolidityByExample/4_DeFi/15_StableSwapAMM.sol\":11010:11013  ++j */\n      dup1\n      tag_363\n      swap1\n      tag_180\n      jump\t// in\n    tag_363:\n      swap1\n      pop\n        /* \"SolidityByExample/4_DeFi/15_StableSwapAMM.sol\":10990:11273  for (uint j; j < N; ++j) {... */\n      jump(tag_337)\n    tag_338:\n      pop\n        /* \"SolidityByExample/4_DeFi/15_StableSwapAMM.sol\":11341:11348  uint y1 */\n      0x00\n        /* \"SolidityByExample/4_DeFi/15_StableSwapAMM.sol\":11351:11368  _getYD(i, xp, d1) */\n      tag_364\n        /* \"SolidityByExample/4_DeFi/15_StableSwapAMM.sol\":11358:11359  i */\n      dup12\n        /* \"SolidityByExample/4_DeFi/15_StableSwapAMM.sol\":11361:11363  xp */\n      dup9\n        /* \"SolidityByExample/4_DeFi/15_StableSwapAMM.sol\":11365:11367  d1 */\n      dup8\n        /* \"SolidityByExample/4_DeFi/15_StableSwapAMM.sol\":11351:11357  _getYD */\n      tag_329\n        /* \"SolidityByExample/4_DeFi/15_StableSwapAMM.sol\":11351:11368  _getYD(i, xp, d1) */\n      jump\t// in\n    tag_364:\n        /* \"SolidityByExample/4_DeFi/15_StableSwapAMM.sol\":11341:11368  uint y1 = _getYD(i, xp, d1) */\n      swap1\n      pop\n        /* \"SolidityByExample/4_DeFi/15_StableSwapAMM.sol\":11431:11442  multipliers */\n      0x03\n        /* \"SolidityByExample/4_DeFi/15_StableSwapAMM.sol\":11443:11444  i */\n      dup12\n        /* \"SolidityByExample/4_DeFi/15_StableSwapAMM.sol\":11431:11445  multipliers[i] */\n      0x03\n      dup2\n      lt\n      tag_365\n      jumpi\n      tag_366\n      tag_73\n      jump\t// in\n    tag_366:\n    tag_365:\n      add\n      sload\n        /* \"SolidityByExample/4_DeFi/15_StableSwapAMM.sol\":11426:11427  1 */\n      0x01\n        /* \"SolidityByExample/4_DeFi/15_StableSwapAMM.sol\":11421:11423  y1 */\n      dup3\n        /* \"SolidityByExample/4_DeFi/15_StableSwapAMM.sol\":11413:11415  xp */\n      dup10\n        /* \"SolidityByExample/4_DeFi/15_StableSwapAMM.sol\":11416:11417  i */\n      dup15\n        /* \"SolidityByExample/4_DeFi/15_StableSwapAMM.sol\":11413:11418  xp[i] */\n      0x03\n      dup2\n      lt\n      tag_368\n      jumpi\n      tag_369\n      tag_73\n      jump\t// in\n    tag_369:\n    tag_368:\n      0x20\n      mul\n      add\n      mload\n        /* \"SolidityByExample/4_DeFi/15_StableSwapAMM.sol\":11413:11423  xp[i] - y1 */\n      tag_370\n      swap2\n      swap1\n      tag_100\n      jump\t// in\n    tag_370:\n        /* \"SolidityByExample/4_DeFi/15_StableSwapAMM.sol\":11413:11427  xp[i] - y1 - 1 */\n      tag_371\n      swap2\n      swap1\n      tag_100\n      jump\t// in\n    tag_371:\n        /* \"SolidityByExample/4_DeFi/15_StableSwapAMM.sol\":11412:11445  (xp[i] - y1 - 1) / multipliers[i] */\n      tag_372\n      swap2\n      swap1\n      tag_103\n      jump\t// in\n    tag_372:\n        /* \"SolidityByExample/4_DeFi/15_StableSwapAMM.sol\":11407:11445  dy = (xp[i] - y1 - 1) / multipliers[i] */\n      swap10\n      pop\n        /* \"SolidityByExample/4_DeFi/15_StableSwapAMM.sol\":11467:11469  dy */\n      dup10\n        /* \"SolidityByExample/4_DeFi/15_StableSwapAMM.sol\":11461:11464  dy0 */\n      dup4\n        /* \"SolidityByExample/4_DeFi/15_StableSwapAMM.sol\":11461:11469  dy0 - dy */\n      tag_373\n      swap2\n      swap1\n      tag_100\n      jump\t// in\n    tag_373:\n        /* \"SolidityByExample/4_DeFi/15_StableSwapAMM.sol\":11455:11469  fee = dy0 - dy */\n      swap9\n      pop\n        /* \"SolidityByExample/4_DeFi/15_StableSwapAMM.sol\":10540:11476  {... */\n      pop\n      pop\n      pop\n      pop\n      pop\n      pop\n      pop\n      pop\n        /* \"SolidityByExample/4_DeFi/15_StableSwapAMM.sol\":10419:11476  function _calcWithdrawOneToken(uint shares, uint i)... */\n      swap3\n      pop\n      swap3\n      swap1\n      pop\n      jump\t// out\n        /* \"SolidityByExample/4_DeFi/15_StableSwapAMM.sol\":1977:2105  function _burn(address _from, uint _amount) private {... */\n    tag_137:\n        /* \"SolidityByExample/4_DeFi/15_StableSwapAMM.sol\":2059:2066  _amount */\n      dup1\n        /* \"SolidityByExample/4_DeFi/15_StableSwapAMM.sol\":2039:2048  balanceOf */\n      0x0a\n        /* \"SolidityByExample/4_DeFi/15_StableSwapAMM.sol\":2039:2055  balanceOf[_from] */\n      0x00\n        /* \"SolidityByExample/4_DeFi/15_StableSwapAMM.sol\":2049:2054  _from */\n      dup5\n        /* \"SolidityByExample/4_DeFi/15_StableSwapAMM.sol\":2039:2055  balanceOf[_from] */\n      0xffffffffffffffffffffffffffffffffffffffff\n      and\n      0xffffffffffffffffffffffffffffffffffffffff\n      and\n      dup2\n      mstore\n      0x20\n      add\n      swap1\n      dup2\n      mstore\n      0x20\n      add\n      0x00\n      keccak256\n      0x00\n        /* \"SolidityByExample/4_DeFi/15_StableSwapAMM.sol\":2039:2066  balanceOf[_from] -= _amount */\n      dup3\n      dup3\n      sload\n      tag_375\n      swap2\n      swap1\n      tag_100\n      jump\t// in\n    tag_375:\n      swap3\n      pop\n      pop\n      dup2\n      swap1\n      sstore\n      pop\n        /* \"SolidityByExample/4_DeFi/15_StableSwapAMM.sol\":2091:2098  _amount */\n      dup1\n        /* \"SolidityByExample/4_DeFi/15_StableSwapAMM.sol\":2076:2087  totalSupply */\n      0x09\n      0x00\n        /* \"SolidityByExample/4_DeFi/15_StableSwapAMM.sol\":2076:2098  totalSupply -= _amount */\n      dup3\n      dup3\n      sload\n      tag_376\n      swap2\n      swap1\n      tag_100\n      jump\t// in\n    tag_376:\n      swap3\n      pop\n      pop\n      dup2\n      swap1\n      sstore\n      pop\n        /* \"SolidityByExample/4_DeFi/15_StableSwapAMM.sol\":1977:2105  function _burn(address _from, uint _amount) private {... */\n      pop\n      pop\n      jump\t// out\n        /* \"SolidityByExample/4_DeFi/15_StableSwapAMM.sol\":2555:3740  function _getD(uint[N] memory xp) private pure returns (uint) {... */\n    tag_149:\n        /* \"SolidityByExample/4_DeFi/15_StableSwapAMM.sol\":2611:2615  uint */\n      0x00\n        /* \"SolidityByExample/4_DeFi/15_StableSwapAMM.sol\":3053:3059  uint a */\n      dup1\n        /* \"SolidityByExample/4_DeFi/15_StableSwapAMM.sol\":756:757  3 */\n      0x03\n        /* \"SolidityByExample/4_DeFi/15_StableSwapAMM.sol\":974:975  1 */\n      0x01\n        /* \"SolidityByExample/4_DeFi/15_StableSwapAMM.sol\":756:757  3 */\n      0x03\n        /* \"SolidityByExample/4_DeFi/15_StableSwapAMM.sol\":970:975  N - 1 */\n      tag_378\n      swap2\n      swap1\n      tag_100\n      jump\t// in\n    tag_378:\n        /* \"SolidityByExample/4_DeFi/15_StableSwapAMM.sol\":756:757  3 */\n      0x03\n        /* \"SolidityByExample/4_DeFi/15_StableSwapAMM.sol\":966:976  N**(N - 1) */\n      tag_379\n      swap2\n      swap1\n      tag_265\n      jump\t// in\n    tag_379:\n        /* \"SolidityByExample/4_DeFi/15_StableSwapAMM.sol\":958:962  1000 */\n      0x03e8\n        /* \"SolidityByExample/4_DeFi/15_StableSwapAMM.sol\":958:977  1000 * (N**(N - 1)) */\n      tag_380\n      swap2\n      swap1\n      tag_87\n      jump\t// in\n    tag_380:\n        /* \"SolidityByExample/4_DeFi/15_StableSwapAMM.sol\":3062:3067  A * N */\n      tag_381\n      swap2\n      swap1\n      tag_87\n      jump\t// in\n    tag_381:\n        /* \"SolidityByExample/4_DeFi/15_StableSwapAMM.sol\":3053:3067  uint a = A * N */\n      swap1\n      pop\n        /* \"SolidityByExample/4_DeFi/15_StableSwapAMM.sol\":3086:3092  uint s */\n      0x00\n        /* \"SolidityByExample/4_DeFi/15_StableSwapAMM.sol\":3136:3142  uint i */\n      dup1\n        /* \"SolidityByExample/4_DeFi/15_StableSwapAMM.sol\":3131:3191  for (uint i; i < N; ++i) {... */\n    tag_382:\n        /* \"SolidityByExample/4_DeFi/15_StableSwapAMM.sol\":756:757  3 */\n      0x03\n        /* \"SolidityByExample/4_DeFi/15_StableSwapAMM.sol\":3144:3145  i */\n      dup2\n        /* \"SolidityByExample/4_DeFi/15_StableSwapAMM.sol\":3144:3149  i < N */\n      lt\n        /* \"SolidityByExample/4_DeFi/15_StableSwapAMM.sol\":3131:3191  for (uint i; i < N; ++i) {... */\n      iszero\n      tag_383\n      jumpi\n        /* \"SolidityByExample/4_DeFi/15_StableSwapAMM.sol\":3175:3177  xp */\n      dup5\n        /* \"SolidityByExample/4_DeFi/15_StableSwapAMM.sol\":3178:3179  i */\n      dup2\n        /* \"SolidityByExample/4_DeFi/15_StableSwapAMM.sol\":3175:3180  xp[i] */\n      0x03\n      dup2\n      lt\n      tag_385\n      jumpi\n      tag_386\n      tag_73\n      jump\t// in\n    tag_386:\n    tag_385:\n      0x20\n      mul\n      add\n      mload\n        /* \"SolidityByExample/4_DeFi/15_StableSwapAMM.sol\":3170:3180  s += xp[i] */\n      dup3\n      tag_387\n      swap2\n      swap1\n      tag_91\n      jump\t// in\n    tag_387:\n      swap2\n      pop\n        /* \"SolidityByExample/4_DeFi/15_StableSwapAMM.sol\":3151:3154  ++i */\n      dup1\n      tag_388\n      swap1\n      tag_180\n      jump\t// in\n    tag_388:\n      swap1\n      pop\n        /* \"SolidityByExample/4_DeFi/15_StableSwapAMM.sol\":3131:3191  for (uint i; i < N; ++i) {... */\n      jump(tag_382)\n    tag_383:\n      pop\n        /* \"SolidityByExample/4_DeFi/15_StableSwapAMM.sol\":3261:3267  uint d */\n      0x00\n        /* \"SolidityByExample/4_DeFi/15_StableSwapAMM.sol\":3270:3271  s */\n      dup2\n        /* \"SolidityByExample/4_DeFi/15_StableSwapAMM.sol\":3261:3271  uint d = s */\n      swap1\n      pop\n        /* \"SolidityByExample/4_DeFi/15_StableSwapAMM.sol\":3281:3292  uint d_prev */\n      0x00\n        /* \"SolidityByExample/4_DeFi/15_StableSwapAMM.sol\":3307:3313  uint i */\n      dup1\n        /* \"SolidityByExample/4_DeFi/15_StableSwapAMM.sol\":3302:3697  for (uint i; i < 255; ++i) {... */\n    tag_389:\n        /* \"SolidityByExample/4_DeFi/15_StableSwapAMM.sol\":3319:3322  255 */\n      0xff\n        /* \"SolidityByExample/4_DeFi/15_StableSwapAMM.sol\":3315:3316  i */\n      dup2\n        /* \"SolidityByExample/4_DeFi/15_StableSwapAMM.sol\":3315:3322  i < 255 */\n      lt\n        /* \"SolidityByExample/4_DeFi/15_StableSwapAMM.sol\":3302:3697  for (uint i; i < 255; ++i) {... */\n      iszero\n      tag_390\n      jumpi\n        /* \"SolidityByExample/4_DeFi/15_StableSwapAMM.sol\":3402:3408  uint p */\n      0x00\n        /* \"SolidityByExample/4_DeFi/15_StableSwapAMM.sol\":3411:3412  d */\n      dup4\n        /* \"SolidityByExample/4_DeFi/15_StableSwapAMM.sol\":3402:3412  uint p = d */\n      swap1\n      pop\n        /* \"SolidityByExample/4_DeFi/15_StableSwapAMM.sol\":3431:3437  uint j */\n      0x00\n        /* \"SolidityByExample/4_DeFi/15_StableSwapAMM.sol\":3426:3509  for (uint j; j < N; ++j) {... */\n    tag_392:\n        /* \"SolidityByExample/4_DeFi/15_StableSwapAMM.sol\":756:757  3 */\n      0x03\n        /* \"SolidityByExample/4_DeFi/15_StableSwapAMM.sol\":3439:3440  j */\n      dup2\n        /* \"SolidityByExample/4_DeFi/15_StableSwapAMM.sol\":3439:3444  j < N */\n      lt\n        /* \"SolidityByExample/4_DeFi/15_StableSwapAMM.sol\":3426:3509  for (uint j; j < N; ++j) {... */\n      iszero\n      tag_393\n      jumpi\n        /* \"SolidityByExample/4_DeFi/15_StableSwapAMM.sol\":3488:3490  xp */\n      dup9\n        /* \"SolidityByExample/4_DeFi/15_StableSwapAMM.sol\":3491:3492  j */\n      dup2\n        /* \"SolidityByExample/4_DeFi/15_StableSwapAMM.sol\":3488:3493  xp[j] */\n      0x03\n      dup2\n      lt\n      tag_395\n      jumpi\n      tag_396\n      tag_73\n      jump\t// in\n    tag_396:\n    tag_395:\n      0x20\n      mul\n      add\n      mload\n        /* \"SolidityByExample/4_DeFi/15_StableSwapAMM.sol\":756:757  3 */\n      0x03\n        /* \"SolidityByExample/4_DeFi/15_StableSwapAMM.sol\":3484:3493  N * xp[j] */\n      tag_397\n      swap2\n      swap1\n      tag_87\n      jump\t// in\n    tag_397:\n        /* \"SolidityByExample/4_DeFi/15_StableSwapAMM.sol\":3478:3479  d */\n      dup6\n        /* \"SolidityByExample/4_DeFi/15_StableSwapAMM.sol\":3474:3475  p */\n      dup4\n        /* \"SolidityByExample/4_DeFi/15_StableSwapAMM.sol\":3474:3479  p * d */\n      tag_398\n      swap2\n      swap1\n      tag_87\n      jump\t// in\n    tag_398:\n        /* \"SolidityByExample/4_DeFi/15_StableSwapAMM.sol\":3473:3494  (p * d) / (N * xp[j]) */\n      tag_399\n      swap2\n      swap1\n      tag_103\n      jump\t// in\n    tag_399:\n        /* \"SolidityByExample/4_DeFi/15_StableSwapAMM.sol\":3469:3494  p = (p * d) / (N * xp[j]) */\n      swap2\n      pop\n        /* \"SolidityByExample/4_DeFi/15_StableSwapAMM.sol\":3446:3449  ++j */\n      dup1\n      tag_400\n      swap1\n      tag_180\n      jump\t// in\n    tag_400:\n      swap1\n      pop\n        /* \"SolidityByExample/4_DeFi/15_StableSwapAMM.sol\":3426:3509  for (uint j; j < N; ++j) {... */\n      jump(tag_392)\n    tag_393:\n      pop\n        /* \"SolidityByExample/4_DeFi/15_StableSwapAMM.sol\":3531:3532  d */\n      dup4\n        /* \"SolidityByExample/4_DeFi/15_StableSwapAMM.sol\":3522:3532  d_prev = d */\n      swap3\n      pop\n        /* \"SolidityByExample/4_DeFi/15_StableSwapAMM.sol\":3599:3600  p */\n      dup1\n        /* \"SolidityByExample/4_DeFi/15_StableSwapAMM.sol\":3594:3595  1 */\n      0x01\n        /* \"SolidityByExample/4_DeFi/15_StableSwapAMM.sol\":756:757  3 */\n      0x03\n        /* \"SolidityByExample/4_DeFi/15_StableSwapAMM.sol\":3590:3595  N + 1 */\n      tag_401\n      swap2\n      swap1\n      tag_91\n      jump\t// in\n    tag_401:\n        /* \"SolidityByExample/4_DeFi/15_StableSwapAMM.sol\":3589:3600  (N + 1) * p */\n      tag_402\n      swap2\n      swap1\n      tag_87\n      jump\t// in\n    tag_402:\n        /* \"SolidityByExample/4_DeFi/15_StableSwapAMM.sol\":3585:3586  d */\n      dup5\n        /* \"SolidityByExample/4_DeFi/15_StableSwapAMM.sol\":3580:3581  1 */\n      0x01\n        /* \"SolidityByExample/4_DeFi/15_StableSwapAMM.sol\":3576:3577  a */\n      dup9\n        /* \"SolidityByExample/4_DeFi/15_StableSwapAMM.sol\":3576:3581  a - 1 */\n      tag_403\n      swap2\n      swap1\n      tag_100\n      jump\t// in\n    tag_403:\n        /* \"SolidityByExample/4_DeFi/15_StableSwapAMM.sol\":3575:3586  (a - 1) * d */\n      tag_404\n      swap2\n      swap1\n      tag_87\n      jump\t// in\n    tag_404:\n        /* \"SolidityByExample/4_DeFi/15_StableSwapAMM.sol\":3575:3600  (a - 1) * d + (N + 1) * p */\n      tag_405\n      swap2\n      swap1\n      tag_91\n      jump\t// in\n    tag_405:\n        /* \"SolidityByExample/4_DeFi/15_StableSwapAMM.sol\":3569:3570  d */\n      dup5\n        /* \"SolidityByExample/4_DeFi/15_StableSwapAMM.sol\":3564:3565  p */\n      dup3\n        /* \"SolidityByExample/4_DeFi/15_StableSwapAMM.sol\":756:757  3 */\n      0x03\n        /* \"SolidityByExample/4_DeFi/15_StableSwapAMM.sol\":3560:3565  N * p */\n      tag_406\n      swap2\n      swap1\n      tag_87\n      jump\t// in\n    tag_406:\n        /* \"SolidityByExample/4_DeFi/15_StableSwapAMM.sol\":3556:3557  s */\n      dup8\n        /* \"SolidityByExample/4_DeFi/15_StableSwapAMM.sol\":3552:3553  a */\n      dup10\n        /* \"SolidityByExample/4_DeFi/15_StableSwapAMM.sol\":3552:3557  a * s */\n      tag_407\n      swap2\n      swap1\n      tag_87\n      jump\t// in\n    tag_407:\n        /* \"SolidityByExample/4_DeFi/15_StableSwapAMM.sol\":3552:3565  a * s + N * p */\n      tag_408\n      swap2\n      swap1\n      tag_91\n      jump\t// in\n    tag_408:\n        /* \"SolidityByExample/4_DeFi/15_StableSwapAMM.sol\":3551:3570  (a * s + N * p) * d */\n      tag_409\n      swap2\n      swap1\n      tag_87\n      jump\t// in\n    tag_409:\n        /* \"SolidityByExample/4_DeFi/15_StableSwapAMM.sol\":3550:3601  ((a * s + N * p) * d) / ((a - 1) * d + (N + 1) * p) */\n      tag_410\n      swap2\n      swap1\n      tag_103\n      jump\t// in\n    tag_410:\n        /* \"SolidityByExample/4_DeFi/15_StableSwapAMM.sol\":3546:3601  d = ((a * s + N * p) * d) / ((a - 1) * d + (N + 1) * p) */\n      swap4\n      pop\n        /* \"SolidityByExample/4_DeFi/15_StableSwapAMM.sol\":3643:3644  1 */\n      0x01\n        /* \"SolidityByExample/4_DeFi/15_StableSwapAMM.sol\":3620:3639  Math.abs(d, d_prev) */\n      tag_411\n        /* \"SolidityByExample/4_DeFi/15_StableSwapAMM.sol\":3629:3630  d */\n      dup6\n        /* \"SolidityByExample/4_DeFi/15_StableSwapAMM.sol\":3632:3638  d_prev */\n      dup6\n        /* \"SolidityByExample/4_DeFi/15_StableSwapAMM.sol\":3620:3628  Math.abs */\n      tag_196\n        /* \"SolidityByExample/4_DeFi/15_StableSwapAMM.sol\":3620:3639  Math.abs(d, d_prev) */\n      jump\t// in\n    tag_411:\n        /* \"SolidityByExample/4_DeFi/15_StableSwapAMM.sol\":3620:3644  Math.abs(d, d_prev) <= 1 */\n      gt\n        /* \"SolidityByExample/4_DeFi/15_StableSwapAMM.sol\":3616:3687  if (Math.abs(d, d_prev) <= 1) {... */\n      tag_412\n      jumpi\n        /* \"SolidityByExample/4_DeFi/15_StableSwapAMM.sol\":3671:3672  d */\n      dup4\n        /* \"SolidityByExample/4_DeFi/15_StableSwapAMM.sol\":3664:3672  return d */\n      swap7\n      pop\n      pop\n      pop\n      pop\n      pop\n      pop\n      pop\n      jump(tag_377)\n        /* \"SolidityByExample/4_DeFi/15_StableSwapAMM.sol\":3616:3687  if (Math.abs(d, d_prev) <= 1) {... */\n    tag_412:\n        /* \"SolidityByExample/4_DeFi/15_StableSwapAMM.sol\":3329:3697  {... */\n      pop\n        /* \"SolidityByExample/4_DeFi/15_StableSwapAMM.sol\":3324:3327  ++i */\n      dup1\n      tag_413\n      swap1\n      tag_180\n      jump\t// in\n    tag_413:\n      swap1\n      pop\n        /* \"SolidityByExample/4_DeFi/15_StableSwapAMM.sol\":3302:3697  for (uint i; i < 255; ++i) {... */\n      jump(tag_389)\n    tag_390:\n      pop\n        /* \"SolidityByExample/4_DeFi/15_StableSwapAMM.sol\":3706:3733  revert(\"D didn't converge\") */\n      mload(0x40)\n      0x08c379a000000000000000000000000000000000000000000000000000000000\n      dup2\n      mstore\n      0x04\n      add\n      tag_414\n      swap1\n      tag_415\n      jump\t// in\n    tag_414:\n      mload(0x40)\n      dup1\n      swap2\n      sub\n      swap1\n      revert\n        /* \"SolidityByExample/4_DeFi/15_StableSwapAMM.sol\":2555:3740  function _getD(uint[N] memory xp) private pure returns (uint) {... */\n    tag_377:\n      swap2\n      swap1\n      pop\n      jump\t// out\n        /* \"SolidityByExample/4_DeFi/15_StableSwapAMM.sol\":572:676  function abs(uint x, uint y) internal pure returns (uint) {... */\n    tag_196:\n        /* \"SolidityByExample/4_DeFi/15_StableSwapAMM.sol\":624:628  uint */\n      0x00\n        /* \"SolidityByExample/4_DeFi/15_StableSwapAMM.sol\":652:653  y */\n      dup2\n        /* \"SolidityByExample/4_DeFi/15_StableSwapAMM.sol\":647:648  x */\n      dup4\n        /* \"SolidityByExample/4_DeFi/15_StableSwapAMM.sol\":647:653  x >= y */\n      lt\n      iszero\n        /* \"SolidityByExample/4_DeFi/15_StableSwapAMM.sol\":647:669  x >= y ? x - y : y - x */\n      tag_417\n      jumpi\n        /* \"SolidityByExample/4_DeFi/15_StableSwapAMM.sol\":668:669  x */\n      dup3\n        /* \"SolidityByExample/4_DeFi/15_StableSwapAMM.sol\":664:665  y */\n      dup3\n        /* \"SolidityByExample/4_DeFi/15_StableSwapAMM.sol\":664:669  y - x */\n      tag_418\n      swap2\n      swap1\n      tag_100\n      jump\t// in\n    tag_418:\n        /* \"SolidityByExample/4_DeFi/15_StableSwapAMM.sol\":647:669  x >= y ? x - y : y - x */\n      jump(tag_419)\n    tag_417:\n        /* \"SolidityByExample/4_DeFi/15_StableSwapAMM.sol\":660:661  y */\n      dup2\n        /* \"SolidityByExample/4_DeFi/15_StableSwapAMM.sol\":656:657  x */\n      dup4\n        /* \"SolidityByExample/4_DeFi/15_StableSwapAMM.sol\":656:661  x - y */\n      tag_420\n      swap2\n      swap1\n      tag_100\n      jump\t// in\n    tag_420:\n        /* \"SolidityByExample/4_DeFi/15_StableSwapAMM.sol\":647:669  x >= y ? x - y : y - x */\n    tag_419:\n        /* \"SolidityByExample/4_DeFi/15_StableSwapAMM.sol\":640:669  return x >= y ? x - y : y - x */\n      swap1\n      pop\n        /* \"SolidityByExample/4_DeFi/15_StableSwapAMM.sol\":572:676  function abs(uint x, uint y) internal pure returns (uint) {... */\n      swap3\n      swap2\n      pop\n      pop\n      jump\t// out\n        /* \"SolidityByExample/4_DeFi/15_StableSwapAMM.sol\":1847:1971  function _mint(address _to, uint _amount) private {... */\n    tag_228:\n        /* \"SolidityByExample/4_DeFi/15_StableSwapAMM.sol\":1925:1932  _amount */\n      dup1\n        /* \"SolidityByExample/4_DeFi/15_StableSwapAMM.sol\":1907:1916  balanceOf */\n      0x0a\n        /* \"SolidityByExample/4_DeFi/15_StableSwapAMM.sol\":1907:1921  balanceOf[_to] */\n      0x00\n        /* \"SolidityByExample/4_DeFi/15_StableSwapAMM.sol\":1917:1920  _to */\n      dup5\n        /* \"SolidityByExample/4_DeFi/15_StableSwapAMM.sol\":1907:1921  balanceOf[_to] */\n      0xffffffffffffffffffffffffffffffffffffffff\n      and\n      0xffffffffffffffffffffffffffffffffffffffff\n      and\n      dup2\n      mstore\n      0x20\n      add\n      swap1\n      dup2\n      mstore\n      0x20\n      add\n      0x00\n      keccak256\n      0x00\n        /* \"SolidityByExample/4_DeFi/15_StableSwapAMM.sol\":1907:1932  balanceOf[_to] += _amount */\n      dup3\n      dup3\n      sload\n      tag_422\n      swap2\n      swap1\n      tag_91\n      jump\t// in\n    tag_422:\n      swap3\n      pop\n      pop\n      dup2\n      swap1\n      sstore\n      pop\n        /* \"SolidityByExample/4_DeFi/15_StableSwapAMM.sol\":1957:1964  _amount */\n      dup1\n        /* \"SolidityByExample/4_DeFi/15_StableSwapAMM.sol\":1942:1953  totalSupply */\n      0x09\n      0x00\n        /* \"SolidityByExample/4_DeFi/15_StableSwapAMM.sol\":1942:1964  totalSupply += _amount */\n      dup3\n      dup3\n      sload\n      tag_423\n      swap2\n      swap1\n      tag_91\n      jump\t// in\n    tag_423:\n      swap3\n      pop\n      pop\n      dup2\n      swap1\n      sstore\n      pop\n        /* \"SolidityByExample/4_DeFi/15_StableSwapAMM.sol\":1847:1971  function _mint(address _to, uint _amount) private {... */\n      pop\n      pop\n      jump\t// out\n        /* \"SolidityByExample/4_DeFi/15_StableSwapAMM.sol\":5667:6482  function _getYD(... */\n    tag_329:\n        /* \"SolidityByExample/4_DeFi/15_StableSwapAMM.sol\":5770:5774  uint */\n      0x00\n        /* \"SolidityByExample/4_DeFi/15_StableSwapAMM.sol\":5786:5792  uint a */\n      dup1\n        /* \"SolidityByExample/4_DeFi/15_StableSwapAMM.sol\":756:757  3 */\n      0x03\n        /* \"SolidityByExample/4_DeFi/15_StableSwapAMM.sol\":974:975  1 */\n      0x01\n        /* \"SolidityByExample/4_DeFi/15_StableSwapAMM.sol\":756:757  3 */\n      0x03\n        /* \"SolidityByExample/4_DeFi/15_StableSwapAMM.sol\":970:975  N - 1 */\n      tag_425\n      swap2\n      swap1\n      tag_100\n      jump\t// in\n    tag_425:\n        /* \"SolidityByExample/4_DeFi/15_StableSwapAMM.sol\":756:757  3 */\n      0x03\n        /* \"SolidityByExample/4_DeFi/15_StableSwapAMM.sol\":966:976  N**(N - 1) */\n      tag_426\n      swap2\n      swap1\n      tag_265\n      jump\t// in\n    tag_426:\n        /* \"SolidityByExample/4_DeFi/15_StableSwapAMM.sol\":958:962  1000 */\n      0x03e8\n        /* \"SolidityByExample/4_DeFi/15_StableSwapAMM.sol\":958:977  1000 * (N**(N - 1)) */\n      tag_427\n      swap2\n      swap1\n      tag_87\n      jump\t// in\n    tag_427:\n        /* \"SolidityByExample/4_DeFi/15_StableSwapAMM.sol\":5795:5800  A * N */\n      tag_428\n      swap2\n      swap1\n      tag_87\n      jump\t// in\n    tag_428:\n        /* \"SolidityByExample/4_DeFi/15_StableSwapAMM.sol\":5786:5800  uint a = A * N */\n      swap1\n      pop\n        /* \"SolidityByExample/4_DeFi/15_StableSwapAMM.sol\":5810:5816  uint s */\n      0x00\n        /* \"SolidityByExample/4_DeFi/15_StableSwapAMM.sol\":5826:5832  uint c */\n      dup1\n        /* \"SolidityByExample/4_DeFi/15_StableSwapAMM.sol\":5835:5836  d */\n      dup5\n        /* \"SolidityByExample/4_DeFi/15_StableSwapAMM.sol\":5826:5836  uint c = d */\n      swap1\n      pop\n        /* \"SolidityByExample/4_DeFi/15_StableSwapAMM.sol\":5847:5854  uint _x */\n      0x00\n        /* \"SolidityByExample/4_DeFi/15_StableSwapAMM.sol\":5869:5875  uint k */\n      dup1\n        /* \"SolidityByExample/4_DeFi/15_StableSwapAMM.sol\":5864:6073  for (uint k; k < N; ++k) {... */\n    tag_429:\n        /* \"SolidityByExample/4_DeFi/15_StableSwapAMM.sol\":756:757  3 */\n      0x03\n        /* \"SolidityByExample/4_DeFi/15_StableSwapAMM.sol\":5877:5878  k */\n      dup2\n        /* \"SolidityByExample/4_DeFi/15_StableSwapAMM.sol\":5877:5882  k < N */\n      lt\n        /* \"SolidityByExample/4_DeFi/15_StableSwapAMM.sol\":5864:6073  for (uint k; k < N; ++k) {... */\n      iszero\n      tag_430\n      jumpi\n        /* \"SolidityByExample/4_DeFi/15_StableSwapAMM.sol\":5912:5913  i */\n      dup9\n        /* \"SolidityByExample/4_DeFi/15_StableSwapAMM.sol\":5907:5908  k */\n      dup2\n        /* \"SolidityByExample/4_DeFi/15_StableSwapAMM.sol\":5907:5913  k != i */\n      eq\n        /* \"SolidityByExample/4_DeFi/15_StableSwapAMM.sol\":5903:6005  if (k != i) {... */\n      tag_432\n      jumpi\n        /* \"SolidityByExample/4_DeFi/15_StableSwapAMM.sol\":5938:5940  xp */\n      dup8\n        /* \"SolidityByExample/4_DeFi/15_StableSwapAMM.sol\":5941:5942  k */\n      dup2\n        /* \"SolidityByExample/4_DeFi/15_StableSwapAMM.sol\":5938:5943  xp[k] */\n      0x03\n      dup2\n      lt\n      tag_433\n      jumpi\n      tag_434\n      tag_73\n      jump\t// in\n    tag_434:\n    tag_433:\n      0x20\n      mul\n      add\n      mload\n        /* \"SolidityByExample/4_DeFi/15_StableSwapAMM.sol\":5933:5943  _x = xp[k] */\n      swap2\n      pop\n        /* \"SolidityByExample/4_DeFi/15_StableSwapAMM.sol\":5903:6005  if (k != i) {... */\n      jump(tag_435)\n    tag_432:\n        /* \"SolidityByExample/4_DeFi/15_StableSwapAMM.sol\":5982:5990  continue */\n      jump(tag_431)\n        /* \"SolidityByExample/4_DeFi/15_StableSwapAMM.sol\":5903:6005  if (k != i) {... */\n    tag_435:\n        /* \"SolidityByExample/4_DeFi/15_StableSwapAMM.sol\":6024:6026  _x */\n      dup2\n        /* \"SolidityByExample/4_DeFi/15_StableSwapAMM.sol\":6019:6026  s += _x */\n      dup5\n      tag_436\n      swap2\n      swap1\n      tag_91\n      jump\t// in\n    tag_436:\n      swap4\n      pop\n        /* \"SolidityByExample/4_DeFi/15_StableSwapAMM.sol\":6059:6061  _x */\n      dup2\n        /* \"SolidityByExample/4_DeFi/15_StableSwapAMM.sol\":756:757  3 */\n      0x03\n        /* \"SolidityByExample/4_DeFi/15_StableSwapAMM.sol\":6055:6061  N * _x */\n      tag_437\n      swap2\n      swap1\n      tag_87\n      jump\t// in\n    tag_437:\n        /* \"SolidityByExample/4_DeFi/15_StableSwapAMM.sol\":6049:6050  d */\n      dup8\n        /* \"SolidityByExample/4_DeFi/15_StableSwapAMM.sol\":6045:6046  c */\n      dup5\n        /* \"SolidityByExample/4_DeFi/15_StableSwapAMM.sol\":6045:6050  c * d */\n      tag_438\n      swap2\n      swap1\n      tag_87\n      jump\t// in\n    tag_438:\n        /* \"SolidityByExample/4_DeFi/15_StableSwapAMM.sol\":6044:6062  (c * d) / (N * _x) */\n      tag_439\n      swap2\n      swap1\n      tag_103\n      jump\t// in\n    tag_439:\n        /* \"SolidityByExample/4_DeFi/15_StableSwapAMM.sol\":6040:6062  c = (c * d) / (N * _x) */\n      swap3\n      pop\n        /* \"SolidityByExample/4_DeFi/15_StableSwapAMM.sol\":5864:6073  for (uint k; k < N; ++k) {... */\n    tag_431:\n        /* \"SolidityByExample/4_DeFi/15_StableSwapAMM.sol\":5884:5887  ++k */\n      dup1\n      tag_440\n      swap1\n      tag_180\n      jump\t// in\n    tag_440:\n      swap1\n      pop\n        /* \"SolidityByExample/4_DeFi/15_StableSwapAMM.sol\":5864:6073  for (uint k; k < N; ++k) {... */\n      jump(tag_429)\n    tag_430:\n      pop\n        /* \"SolidityByExample/4_DeFi/15_StableSwapAMM.sol\":6101:6102  a */\n      dup4\n        /* \"SolidityByExample/4_DeFi/15_StableSwapAMM.sol\":756:757  3 */\n      0x03\n        /* \"SolidityByExample/4_DeFi/15_StableSwapAMM.sol\":6097:6102  N * a */\n      tag_441\n      swap2\n      swap1\n      tag_87\n      jump\t// in\n    tag_441:\n        /* \"SolidityByExample/4_DeFi/15_StableSwapAMM.sol\":6091:6092  d */\n      dup7\n        /* \"SolidityByExample/4_DeFi/15_StableSwapAMM.sol\":6087:6088  c */\n      dup4\n        /* \"SolidityByExample/4_DeFi/15_StableSwapAMM.sol\":6087:6092  c * d */\n      tag_442\n      swap2\n      swap1\n      tag_87\n      jump\t// in\n    tag_442:\n        /* \"SolidityByExample/4_DeFi/15_StableSwapAMM.sol\":6086:6103  (c * d) / (N * a) */\n      tag_443\n      swap2\n      swap1\n      tag_103\n      jump\t// in\n    tag_443:\n        /* \"SolidityByExample/4_DeFi/15_StableSwapAMM.sol\":6082:6103  c = (c * d) / (N * a) */\n      swap2\n      pop\n        /* \"SolidityByExample/4_DeFi/15_StableSwapAMM.sol\":6113:6119  uint b */\n      0x00\n        /* \"SolidityByExample/4_DeFi/15_StableSwapAMM.sol\":6130:6131  a */\n      dup5\n        /* \"SolidityByExample/4_DeFi/15_StableSwapAMM.sol\":6126:6127  d */\n      dup8\n        /* \"SolidityByExample/4_DeFi/15_StableSwapAMM.sol\":6126:6131  d / a */\n      tag_444\n      swap2\n      swap1\n      tag_103\n      jump\t// in\n    tag_444:\n        /* \"SolidityByExample/4_DeFi/15_StableSwapAMM.sol\":6122:6123  s */\n      dup5\n        /* \"SolidityByExample/4_DeFi/15_StableSwapAMM.sol\":6122:6131  s + d / a */\n      tag_445\n      swap2\n      swap1\n      tag_91\n      jump\t// in\n    tag_445:\n        /* \"SolidityByExample/4_DeFi/15_StableSwapAMM.sol\":6113:6131  uint b = s + d / a */\n      swap1\n      pop\n        /* \"SolidityByExample/4_DeFi/15_StableSwapAMM.sol\":6169:6180  uint y_prev */\n      0x00\n        /* \"SolidityByExample/4_DeFi/15_StableSwapAMM.sol\":6223:6229  uint y */\n      dup1\n        /* \"SolidityByExample/4_DeFi/15_StableSwapAMM.sol\":6232:6233  d */\n      dup9\n        /* \"SolidityByExample/4_DeFi/15_StableSwapAMM.sol\":6223:6233  uint y = d */\n      swap1\n      pop\n        /* \"SolidityByExample/4_DeFi/15_StableSwapAMM.sol\":6248:6255  uint _i */\n      0x00\n        /* \"SolidityByExample/4_DeFi/15_StableSwapAMM.sol\":6243:6439  for (uint _i; _i < 255; ++_i) {... */\n    tag_446:\n        /* \"SolidityByExample/4_DeFi/15_StableSwapAMM.sol\":6262:6265  255 */\n      0xff\n        /* \"SolidityByExample/4_DeFi/15_StableSwapAMM.sol\":6257:6259  _i */\n      dup2\n        /* \"SolidityByExample/4_DeFi/15_StableSwapAMM.sol\":6257:6265  _i < 255 */\n      lt\n        /* \"SolidityByExample/4_DeFi/15_StableSwapAMM.sol\":6243:6439  for (uint _i; _i < 255; ++_i) {... */\n      iszero\n      tag_447\n      jumpi\n        /* \"SolidityByExample/4_DeFi/15_StableSwapAMM.sol\":6296:6297  y */\n      dup2\n        /* \"SolidityByExample/4_DeFi/15_StableSwapAMM.sol\":6287:6297  y_prev = y */\n      swap3\n      pop\n        /* \"SolidityByExample/4_DeFi/15_StableSwapAMM.sol\":6342:6343  d */\n      dup10\n        /* \"SolidityByExample/4_DeFi/15_StableSwapAMM.sol\":6338:6339  b */\n      dup5\n        /* \"SolidityByExample/4_DeFi/15_StableSwapAMM.sol\":6334:6335  y */\n      dup4\n        /* \"SolidityByExample/4_DeFi/15_StableSwapAMM.sol\":6330:6331  2 */\n      0x02\n        /* \"SolidityByExample/4_DeFi/15_StableSwapAMM.sol\":6330:6335  2 * y */\n      tag_449\n      swap2\n      swap1\n      tag_87\n      jump\t// in\n    tag_449:\n        /* \"SolidityByExample/4_DeFi/15_StableSwapAMM.sol\":6330:6339  2 * y + b */\n      tag_450\n      swap2\n      swap1\n      tag_91\n      jump\t// in\n    tag_450:\n        /* \"SolidityByExample/4_DeFi/15_StableSwapAMM.sol\":6330:6343  2 * y + b - d */\n      tag_451\n      swap2\n      swap1\n      tag_100\n      jump\t// in\n    tag_451:\n        /* \"SolidityByExample/4_DeFi/15_StableSwapAMM.sol\":6324:6325  c */\n      dup7\n        /* \"SolidityByExample/4_DeFi/15_StableSwapAMM.sol\":6320:6321  y */\n      dup4\n        /* \"SolidityByExample/4_DeFi/15_StableSwapAMM.sol\":6316:6317  y */\n      dup5\n        /* \"SolidityByExample/4_DeFi/15_StableSwapAMM.sol\":6316:6321  y * y */\n      tag_452\n      swap2\n      swap1\n      tag_87\n      jump\t// in\n    tag_452:\n        /* \"SolidityByExample/4_DeFi/15_StableSwapAMM.sol\":6316:6325  y * y + c */\n      tag_453\n      swap2\n      swap1\n      tag_91\n      jump\t// in\n    tag_453:\n        /* \"SolidityByExample/4_DeFi/15_StableSwapAMM.sol\":6315:6344  (y * y + c) / (2 * y + b - d) */\n      tag_454\n      swap2\n      swap1\n      tag_103\n      jump\t// in\n    tag_454:\n        /* \"SolidityByExample/4_DeFi/15_StableSwapAMM.sol\":6311:6344  y = (y * y + c) / (2 * y + b - d) */\n      swap2\n      pop\n        /* \"SolidityByExample/4_DeFi/15_StableSwapAMM.sol\":6385:6386  1 */\n      0x01\n        /* \"SolidityByExample/4_DeFi/15_StableSwapAMM.sol\":6362:6381  Math.abs(y, y_prev) */\n      tag_455\n        /* \"SolidityByExample/4_DeFi/15_StableSwapAMM.sol\":6371:6372  y */\n      dup4\n        /* \"SolidityByExample/4_DeFi/15_StableSwapAMM.sol\":6374:6380  y_prev */\n      dup6\n        /* \"SolidityByExample/4_DeFi/15_StableSwapAMM.sol\":6362:6370  Math.abs */\n      tag_196\n        /* \"SolidityByExample/4_DeFi/15_StableSwapAMM.sol\":6362:6381  Math.abs(y, y_prev) */\n      jump\t// in\n    tag_455:\n        /* \"SolidityByExample/4_DeFi/15_StableSwapAMM.sol\":6362:6386  Math.abs(y, y_prev) <= 1 */\n      gt\n        /* \"SolidityByExample/4_DeFi/15_StableSwapAMM.sol\":6358:6429  if (Math.abs(y, y_prev) <= 1) {... */\n      tag_456\n      jumpi\n        /* \"SolidityByExample/4_DeFi/15_StableSwapAMM.sol\":6413:6414  y */\n      dup2\n        /* \"SolidityByExample/4_DeFi/15_StableSwapAMM.sol\":6406:6414  return y */\n      swap9\n      pop\n      pop\n      pop\n      pop\n      pop\n      pop\n      pop\n      pop\n      pop\n      jump(tag_424)\n        /* \"SolidityByExample/4_DeFi/15_StableSwapAMM.sol\":6358:6429  if (Math.abs(y, y_prev) <= 1) {... */\n    tag_456:\n        /* \"SolidityByExample/4_DeFi/15_StableSwapAMM.sol\":6267:6271  ++_i */\n      dup1\n      tag_457\n      swap1\n      tag_180\n      jump\t// in\n    tag_457:\n      swap1\n      pop\n        /* \"SolidityByExample/4_DeFi/15_StableSwapAMM.sol\":6243:6439  for (uint _i; _i < 255; ++_i) {... */\n      jump(tag_446)\n    tag_447:\n      pop\n        /* \"SolidityByExample/4_DeFi/15_StableSwapAMM.sol\":6448:6475  revert(\"y didn't converge\") */\n      mload(0x40)\n      0x08c379a000000000000000000000000000000000000000000000000000000000\n      dup2\n      mstore\n      0x04\n      add\n      tag_458\n      swap1\n      tag_321\n      jump\t// in\n    tag_458:\n      mload(0x40)\n      dup1\n      swap2\n      sub\n      swap1\n      revert\n        /* \"SolidityByExample/4_DeFi/15_StableSwapAMM.sol\":5667:6482  function _getYD(... */\n    tag_424:\n      swap4\n      swap3\n      pop\n      pop\n      pop\n      jump\t// out\n    tag_151:\n      mload(0x40)\n      dup1\n      0x60\n      add\n      0x40\n      mstore\n      dup1\n      0x03\n      swap1\n      0x20\n      dup3\n      mul\n      dup1\n      calldatasize\n      dup4\n      calldatacopy\n      dup1\n      dup3\n      add\n      swap2\n      pop\n      pop\n      swap1\n      pop\n      pop\n      swap1\n      jump\t// out\n        /* \"#utility.yul\":7:84   */\n    tag_459:\n        /* \"#utility.yul\":44:51   */\n      0x00\n        /* \"#utility.yul\":73:78   */\n      dup2\n        /* \"#utility.yul\":62:78   */\n      swap1\n      pop\n        /* \"#utility.yul\":7:84   */\n      swap2\n      swap1\n      pop\n      jump\t// out\n        /* \"#utility.yul\":90:208   */\n    tag_460:\n        /* \"#utility.yul\":177:201   */\n      tag_506\n        /* \"#utility.yul\":195:200   */\n      dup2\n        /* \"#utility.yul\":177:201   */\n      tag_459\n      jump\t// in\n    tag_506:\n        /* \"#utility.yul\":172:175   */\n      dup3\n        /* \"#utility.yul\":165:202   */\n      mstore\n        /* \"#utility.yul\":90:208   */\n      pop\n      pop\n      jump\t// out\n        /* \"#utility.yul\":214:436   */\n    tag_17:\n        /* \"#utility.yul\":307:311   */\n      0x00\n        /* \"#utility.yul\":345:347   */\n      0x20\n        /* \"#utility.yul\":334:343   */\n      dup3\n        /* \"#utility.yul\":330:348   */\n      add\n        /* \"#utility.yul\":322:348   */\n      swap1\n      pop\n        /* \"#utility.yul\":358:429   */\n      tag_508\n        /* \"#utility.yul\":426:427   */\n      0x00\n        /* \"#utility.yul\":415:424   */\n      dup4\n        /* \"#utility.yul\":411:428   */\n      add\n        /* \"#utility.yul\":402:408   */\n      dup5\n        /* \"#utility.yul\":358:429   */\n      tag_460\n      jump\t// in\n    tag_508:\n        /* \"#utility.yul\":214:436   */\n      swap3\n      swap2\n      pop\n      pop\n      jump\t// out\n        /* \"#utility.yul\":523:640   */\n    tag_462:\n        /* \"#utility.yul\":632:633   */\n      0x00\n        /* \"#utility.yul\":629:630   */\n      dup1\n        /* \"#utility.yul\":622:634   */\n      revert\n        /* \"#utility.yul\":769:891   */\n    tag_464:\n        /* \"#utility.yul\":842:866   */\n      tag_513\n        /* \"#utility.yul\":860:865   */\n      dup2\n        /* \"#utility.yul\":842:866   */\n      tag_459\n      jump\t// in\n    tag_513:\n        /* \"#utility.yul\":835:840   */\n      dup2\n        /* \"#utility.yul\":832:867   */\n      eq\n        /* \"#utility.yul\":822:885   */\n      tag_514\n      jumpi\n        /* \"#utility.yul\":881:882   */\n      0x00\n        /* \"#utility.yul\":878:879   */\n      dup1\n        /* \"#utility.yul\":871:883   */\n      revert\n        /* \"#utility.yul\":822:885   */\n    tag_514:\n        /* \"#utility.yul\":769:891   */\n      pop\n      jump\t// out\n        /* \"#utility.yul\":897:1036   */\n    tag_465:\n        /* \"#utility.yul\":943:948   */\n      0x00\n        /* \"#utility.yul\":981:987   */\n      dup2\n        /* \"#utility.yul\":968:988   */\n      calldataload\n        /* \"#utility.yul\":959:988   */\n      swap1\n      pop\n        /* \"#utility.yul\":997:1030   */\n      tag_516\n        /* \"#utility.yul\":1024:1029   */\n      dup2\n        /* \"#utility.yul\":997:1030   */\n      tag_464\n      jump\t// in\n    tag_516:\n        /* \"#utility.yul\":897:1036   */\n      swap3\n      swap2\n      pop\n      pop\n      jump\t// out\n        /* \"#utility.yul\":1042:1371   */\n    tag_20:\n        /* \"#utility.yul\":1101:1107   */\n      0x00\n        /* \"#utility.yul\":1150:1152   */\n      0x20\n        /* \"#utility.yul\":1138:1147   */\n      dup3\n        /* \"#utility.yul\":1129:1136   */\n      dup5\n        /* \"#utility.yul\":1125:1148   */\n      sub\n        /* \"#utility.yul\":1121:1153   */\n      slt\n        /* \"#utility.yul\":1118:1237   */\n      iszero\n      tag_518\n      jumpi\n        /* \"#utility.yul\":1156:1235   */\n      tag_519\n      tag_462\n      jump\t// in\n    tag_519:\n        /* \"#utility.yul\":1118:1237   */\n    tag_518:\n        /* \"#utility.yul\":1276:1277   */\n      0x00\n        /* \"#utility.yul\":1301:1354   */\n      tag_520\n        /* \"#utility.yul\":1346:1353   */\n      dup5\n        /* \"#utility.yul\":1337:1343   */\n      dup3\n        /* \"#utility.yul\":1326:1335   */\n      dup6\n        /* \"#utility.yul\":1322:1344   */\n      add\n        /* \"#utility.yul\":1301:1354   */\n      tag_465\n      jump\t// in\n    tag_520:\n        /* \"#utility.yul\":1291:1354   */\n      swap2\n      pop\n        /* \"#utility.yul\":1247:1364   */\n      pop\n        /* \"#utility.yul\":1042:1371   */\n      swap3\n      swap2\n      pop\n      pop\n      jump\t// out\n        /* \"#utility.yul\":1377:1503   */\n    tag_466:\n        /* \"#utility.yul\":1414:1421   */\n      0x00\n        /* \"#utility.yul\":1454:1496   */\n      0xffffffffffffffffffffffffffffffffffffffff\n        /* \"#utility.yul\":1447:1452   */\n      dup3\n        /* \"#utility.yul\":1443:1497   */\n      and\n        /* \"#utility.yul\":1432:1497   */\n      swap1\n      pop\n        /* \"#utility.yul\":1377:1503   */\n      swap2\n      swap1\n      pop\n      jump\t// out\n        /* \"#utility.yul\":1509:1605   */\n    tag_467:\n        /* \"#utility.yul\":1546:1553   */\n      0x00\n        /* \"#utility.yul\":1575:1599   */\n      tag_523\n        /* \"#utility.yul\":1593:1598   */\n      dup3\n        /* \"#utility.yul\":1575:1599   */\n      tag_466\n      jump\t// in\n    tag_523:\n        /* \"#utility.yul\":1564:1599   */\n      swap1\n      pop\n        /* \"#utility.yul\":1509:1605   */\n      swap2\n      swap1\n      pop\n      jump\t// out\n        /* \"#utility.yul\":1611:1729   */\n    tag_468:\n        /* \"#utility.yul\":1698:1722   */\n      tag_525\n        /* \"#utility.yul\":1716:1721   */\n      dup2\n        /* \"#utility.yul\":1698:1722   */\n      tag_467\n      jump\t// in\n    tag_525:\n        /* \"#utility.yul\":1693:1696   */\n      dup3\n        /* \"#utility.yul\":1686:1723   */\n      mstore\n        /* \"#utility.yul\":1611:1729   */\n      pop\n      pop\n      jump\t// out\n        /* \"#utility.yul\":1735:1957   */\n    tag_27:\n        /* \"#utility.yul\":1828:1832   */\n      0x00\n        /* \"#utility.yul\":1866:1868   */\n      0x20\n        /* \"#utility.yul\":1855:1864   */\n      dup3\n        /* \"#utility.yul\":1851:1869   */\n      add\n        /* \"#utility.yul\":1843:1869   */\n      swap1\n      pop\n        /* \"#utility.yul\":1879:1950   */\n      tag_527\n        /* \"#utility.yul\":1947:1948   */\n      0x00\n        /* \"#utility.yul\":1936:1945   */\n      dup4\n        /* \"#utility.yul\":1932:1949   */\n      add\n        /* \"#utility.yul\":1923:1929   */\n      dup5\n        /* \"#utility.yul\":1879:1950   */\n      tag_468\n      jump\t// in\n    tag_527:\n        /* \"#utility.yul\":1735:1957   */\n      swap3\n      swap2\n      pop\n      pop\n      jump\t// out\n        /* \"#utility.yul\":1963:2728   */\n    tag_30:\n        /* \"#utility.yul\":2049:2055   */\n      0x00\n        /* \"#utility.yul\":2057:2063   */\n      dup1\n        /* \"#utility.yul\":2065:2071   */\n      0x00\n        /* \"#utility.yul\":2073:2079   */\n      dup1\n        /* \"#utility.yul\":2122:2125   */\n      0x80\n        /* \"#utility.yul\":2110:2119   */\n      dup6\n        /* \"#utility.yul\":2101:2108   */\n      dup8\n        /* \"#utility.yul\":2097:2120   */\n      sub\n        /* \"#utility.yul\":2093:2126   */\n      slt\n        /* \"#utility.yul\":2090:2210   */\n      iszero\n      tag_529\n      jumpi\n        /* \"#utility.yul\":2129:2208   */\n      tag_530\n      tag_462\n      jump\t// in\n    tag_530:\n        /* \"#utility.yul\":2090:2210   */\n    tag_529:\n        /* \"#utility.yul\":2249:2250   */\n      0x00\n        /* \"#utility.yul\":2274:2327   */\n      tag_531\n        /* \"#utility.yul\":2319:2326   */\n      dup8\n        /* \"#utility.yul\":2310:2316   */\n      dup3\n        /* \"#utility.yul\":2299:2308   */\n      dup9\n        /* \"#utility.yul\":2295:2317   */\n      add\n        /* \"#utility.yul\":2274:2327   */\n      tag_465\n      jump\t// in\n    tag_531:\n        /* \"#utility.yul\":2264:2327   */\n      swap5\n      pop\n        /* \"#utility.yul\":2220:2337   */\n      pop\n        /* \"#utility.yul\":2376:2378   */\n      0x20\n        /* \"#utility.yul\":2402:2455   */\n      tag_532\n        /* \"#utility.yul\":2447:2454   */\n      dup8\n        /* \"#utility.yul\":2438:2444   */\n      dup3\n        /* \"#utility.yul\":2427:2436   */\n      dup9\n        /* \"#utility.yul\":2423:2445   */\n      add\n        /* \"#utility.yul\":2402:2455   */\n      tag_465\n      jump\t// in\n    tag_532:\n        /* \"#utility.yul\":2392:2455   */\n      swap4\n      pop\n        /* \"#utility.yul\":2347:2465   */\n      pop\n        /* \"#utility.yul\":2504:2506   */\n      0x40\n        /* \"#utility.yul\":2530:2583   */\n      tag_533\n        /* \"#utility.yul\":2575:2582   */\n      dup8\n        /* \"#utility.yul\":2566:2572   */\n      dup3\n        /* \"#utility.yul\":2555:2564   */\n      dup9\n        /* \"#utility.yul\":2551:2573   */\n      add\n        /* \"#utility.yul\":2530:2583   */\n      tag_465\n      jump\t// in\n    tag_533:\n        /* \"#utility.yul\":2520:2583   */\n      swap3\n      pop\n        /* \"#utility.yul\":2475:2593   */\n      pop\n        /* \"#utility.yul\":2632:2634   */\n      0x60\n        /* \"#utility.yul\":2658:2711   */\n      tag_534\n        /* \"#utility.yul\":2703:2710   */\n      dup8\n        /* \"#utility.yul\":2694:2700   */\n      dup3\n        /* \"#utility.yul\":2683:2692   */\n      dup9\n        /* \"#utility.yul\":2679:2701   */\n      add\n        /* \"#utility.yul\":2658:2711   */\n      tag_465\n      jump\t// in\n    tag_534:\n        /* \"#utility.yul\":2648:2711   */\n      swap2\n      pop\n        /* \"#utility.yul\":2603:2721   */\n      pop\n        /* \"#utility.yul\":1963:2728   */\n      swap3\n      swap6\n      swap2\n      swap5\n      pop\n      swap3\n      pop\n      jump\t// out\n        /* \"#utility.yul\":2734:3353   */\n    tag_35:\n        /* \"#utility.yul\":2811:2817   */\n      0x00\n        /* \"#utility.yul\":2819:2825   */\n      dup1\n        /* \"#utility.yul\":2827:2833   */\n      0x00\n        /* \"#utility.yul\":2876:2878   */\n      0x60\n        /* \"#utility.yul\":2864:2873   */\n      dup5\n        /* \"#utility.yul\":2855:2862   */\n      dup7\n        /* \"#utility.yul\":2851:2874   */\n      sub\n        /* \"#utility.yul\":2847:2879   */\n      slt\n        /* \"#utility.yul\":2844:2963   */\n      iszero\n      tag_536\n      jumpi\n        /* \"#utility.yul\":2882:2961   */\n      tag_537\n      tag_462\n      jump\t// in\n    tag_537:\n        /* \"#utility.yul\":2844:2963   */\n    tag_536:\n        /* \"#utility.yul\":3002:3003   */\n      0x00\n        /* \"#utility.yul\":3027:3080   */\n      tag_538\n        /* \"#utility.yul\":3072:3079   */\n      dup7\n        /* \"#utility.yul\":3063:3069   */\n      dup3\n        /* \"#utility.yul\":3052:3061   */\n      dup8\n        /* \"#utility.yul\":3048:3070   */\n      add\n        /* \"#utility.yul\":3027:3080   */\n      tag_465\n      jump\t// in\n    tag_538:\n        /* \"#utility.yul\":3017:3080   */\n      swap4\n      pop\n        /* \"#utility.yul\":2973:3090   */\n      pop\n        /* \"#utility.yul\":3129:3131   */\n      0x20\n        /* \"#utility.yul\":3155:3208   */\n      tag_539\n        /* \"#utility.yul\":3200:3207   */\n      dup7\n        /* \"#utility.yul\":3191:3197   */\n      dup3\n        /* \"#utility.yul\":3180:3189   */\n      dup8\n        /* \"#utility.yul\":3176:3198   */\n      add\n        /* \"#utility.yul\":3155:3208   */\n      tag_465\n      jump\t// in\n    tag_539:\n        /* \"#utility.yul\":3145:3208   */\n      swap3\n      pop\n        /* \"#utility.yul\":3100:3218   */\n      pop\n        /* \"#utility.yul\":3257:3259   */\n      0x40\n        /* \"#utility.yul\":3283:3336   */\n      tag_540\n        /* \"#utility.yul\":3328:3335   */\n      dup7\n        /* \"#utility.yul\":3319:3325   */\n      dup3\n        /* \"#utility.yul\":3308:3317   */\n      dup8\n        /* \"#utility.yul\":3304:3326   */\n      add\n        /* \"#utility.yul\":3283:3336   */\n      tag_465\n      jump\t// in\n    tag_540:\n        /* \"#utility.yul\":3273:3336   */\n      swap2\n      pop\n        /* \"#utility.yul\":3228:3346   */\n      pop\n        /* \"#utility.yul\":2734:3353   */\n      swap3\n      pop\n      swap3\n      pop\n      swap3\n      jump\t// out\n        /* \"#utility.yul\":3359:3481   */\n    tag_469:\n        /* \"#utility.yul\":3432:3456   */\n      tag_542\n        /* \"#utility.yul\":3450:3455   */\n      dup2\n        /* \"#utility.yul\":3432:3456   */\n      tag_467\n      jump\t// in\n    tag_542:\n        /* \"#utility.yul\":3425:3430   */\n      dup2\n        /* \"#utility.yul\":3422:3457   */\n      eq\n        /* \"#utility.yul\":3412:3475   */\n      tag_543\n      jumpi\n        /* \"#utility.yul\":3471:3472   */\n      0x00\n        /* \"#utility.yul\":3468:3469   */\n      dup1\n        /* \"#utility.yul\":3461:3473   */\n      revert\n        /* \"#utility.yul\":3412:3475   */\n    tag_543:\n        /* \"#utility.yul\":3359:3481   */\n      pop\n      jump\t// out\n        /* \"#utility.yul\":3487:3626   */\n    tag_470:\n        /* \"#utility.yul\":3533:3538   */\n      0x00\n        /* \"#utility.yul\":3571:3577   */\n      dup2\n        /* \"#utility.yul\":3558:3578   */\n      calldataload\n        /* \"#utility.yul\":3549:3578   */\n      swap1\n      pop\n        /* \"#utility.yul\":3587:3620   */\n      tag_545\n        /* \"#utility.yul\":3614:3619   */\n      dup2\n        /* \"#utility.yul\":3587:3620   */\n      tag_469\n      jump\t// in\n    tag_545:\n        /* \"#utility.yul\":3487:3626   */\n      swap3\n      swap2\n      pop\n      pop\n      jump\t// out\n        /* \"#utility.yul\":3632:3961   */\n    tag_40:\n        /* \"#utility.yul\":3691:3697   */\n      0x00\n        /* \"#utility.yul\":3740:3742   */\n      0x20\n        /* \"#utility.yul\":3728:3737   */\n      dup3\n        /* \"#utility.yul\":3719:3726   */\n      dup5\n        /* \"#utility.yul\":3715:3738   */\n      sub\n        /* \"#utility.yul\":3711:3743   */\n      slt\n        /* \"#utility.yul\":3708:3827   */\n      iszero\n      tag_547\n      jumpi\n        /* \"#utility.yul\":3746:3825   */\n      tag_548\n      tag_462\n      jump\t// in\n    tag_548:\n        /* \"#utility.yul\":3708:3827   */\n    tag_547:\n        /* \"#utility.yul\":3866:3867   */\n      0x00\n        /* \"#utility.yul\":3891:3944   */\n      tag_549\n        /* \"#utility.yul\":3936:3943   */\n      dup5\n        /* \"#utility.yul\":3927:3933   */\n      dup3\n        /* \"#utility.yul\":3916:3925   */\n      dup6\n        /* \"#utility.yul\":3912:3934   */\n      add\n        /* \"#utility.yul\":3891:3944   */\n      tag_470\n      jump\t// in\n    tag_549:\n        /* \"#utility.yul\":3881:3944   */\n      swap2\n      pop\n        /* \"#utility.yul\":3837:3954   */\n      pop\n        /* \"#utility.yul\":3632:3961   */\n      swap3\n      swap2\n      pop\n      pop\n      jump\t// out\n        /* \"#utility.yul\":3967:4084   */\n    tag_471:\n        /* \"#utility.yul\":4076:4077   */\n      0x00\n        /* \"#utility.yul\":4073:4074   */\n      dup1\n        /* \"#utility.yul\":4066:4078   */\n      revert\n        /* \"#utility.yul\":4108:4357   */\n    tag_472:\n        /* \"#utility.yul\":4179:4187   */\n      0x00\n        /* \"#utility.yul\":4210:4216   */\n      dup2\n        /* \"#utility.yul\":4198:4216   */\n      swap1\n      pop\n        /* \"#utility.yul\":4263:4266   */\n      dup3\n        /* \"#utility.yul\":4255:4259   */\n      0x20\n        /* \"#utility.yul\":4249:4253   */\n      0x03\n        /* \"#utility.yul\":4245:4260   */\n      mul\n        /* \"#utility.yul\":4235:4243   */\n      dup3\n        /* \"#utility.yul\":4231:4261   */\n      add\n        /* \"#utility.yul\":4228:4267   */\n      gt\n        /* \"#utility.yul\":4225:4351   */\n      iszero\n      tag_552\n      jumpi\n        /* \"#utility.yul\":4270:4349   */\n      tag_553\n      tag_471\n      jump\t// in\n    tag_553:\n        /* \"#utility.yul\":4225:4351   */\n    tag_552:\n        /* \"#utility.yul\":4108:4357   */\n      swap3\n      swap2\n      pop\n      pop\n      jump\t// out\n        /* \"#utility.yul\":4363:4888   */\n    tag_45:\n        /* \"#utility.yul\":4456:4462   */\n      0x00\n        /* \"#utility.yul\":4464:4470   */\n      dup1\n        /* \"#utility.yul\":4513:4516   */\n      0x80\n        /* \"#utility.yul\":4501:4510   */\n      dup4\n        /* \"#utility.yul\":4492:4499   */\n      dup6\n        /* \"#utility.yul\":4488:4511   */\n      sub\n        /* \"#utility.yul\":4484:4517   */\n      slt\n        /* \"#utility.yul\":4481:4601   */\n      iszero\n      tag_555\n      jumpi\n        /* \"#utility.yul\":4520:4599   */\n      tag_556\n      tag_462\n      jump\t// in\n    tag_556:\n        /* \"#utility.yul\":4481:4601   */\n    tag_555:\n        /* \"#utility.yul\":4640:4641   */\n      0x00\n        /* \"#utility.yul\":4665:4743   */\n      tag_557\n        /* \"#utility.yul\":4735:4742   */\n      dup6\n        /* \"#utility.yul\":4726:4732   */\n      dup3\n        /* \"#utility.yul\":4715:4724   */\n      dup7\n        /* \"#utility.yul\":4711:4733   */\n      add\n        /* \"#utility.yul\":4665:4743   */\n      tag_472\n      jump\t// in\n    tag_557:\n        /* \"#utility.yul\":4655:4743   */\n      swap3\n      pop\n        /* \"#utility.yul\":4611:4753   */\n      pop\n        /* \"#utility.yul\":4792:4794   */\n      0x60\n        /* \"#utility.yul\":4818:4871   */\n      tag_558\n        /* \"#utility.yul\":4863:4870   */\n      dup6\n        /* \"#utility.yul\":4854:4860   */\n      dup3\n        /* \"#utility.yul\":4843:4852   */\n      dup7\n        /* \"#utility.yul\":4839:4861   */\n      add\n        /* \"#utility.yul\":4818:4871   */\n      tag_465\n      jump\t// in\n    tag_558:\n        /* \"#utility.yul\":4808:4871   */\n      swap2\n      pop\n        /* \"#utility.yul\":4763:4881   */\n      pop\n        /* \"#utility.yul\":4363:4888   */\n      swap3\n      pop\n      swap3\n      swap1\n      pop\n      jump\t// out\n        /* \"#utility.yul\":4894:5368   */\n    tag_50:\n        /* \"#utility.yul\":4962:4968   */\n      0x00\n        /* \"#utility.yul\":4970:4976   */\n      dup1\n        /* \"#utility.yul\":5019:5021   */\n      0x40\n        /* \"#utility.yul\":5007:5016   */\n      dup4\n        /* \"#utility.yul\":4998:5005   */\n      dup6\n        /* \"#utility.yul\":4994:5017   */\n      sub\n        /* \"#utility.yul\":4990:5022   */\n      slt\n        /* \"#utility.yul\":4987:5106   */\n      iszero\n      tag_560\n      jumpi\n        /* \"#utility.yul\":5025:5104   */\n      tag_561\n      tag_462\n      jump\t// in\n    tag_561:\n        /* \"#utility.yul\":4987:5106   */\n    tag_560:\n        /* \"#utility.yul\":5145:5146   */\n      0x00\n        /* \"#utility.yul\":5170:5223   */\n      tag_562\n        /* \"#utility.yul\":5215:5222   */\n      dup6\n        /* \"#utility.yul\":5206:5212   */\n      dup3\n        /* \"#utility.yul\":5195:5204   */\n      dup7\n        /* \"#utility.yul\":5191:5213   */\n      add\n        /* \"#utility.yul\":5170:5223   */\n      tag_465\n      jump\t// in\n    tag_562:\n        /* \"#utility.yul\":5160:5223   */\n      swap3\n      pop\n        /* \"#utility.yul\":5116:5233   */\n      pop\n        /* \"#utility.yul\":5272:5274   */\n      0x20\n        /* \"#utility.yul\":5298:5351   */\n      tag_563\n        /* \"#utility.yul\":5343:5350   */\n      dup6\n        /* \"#utility.yul\":5334:5340   */\n      dup3\n        /* \"#utility.yul\":5323:5332   */\n      dup7\n        /* \"#utility.yul\":5319:5341   */\n      add\n        /* \"#utility.yul\":5298:5351   */\n      tag_465\n      jump\t// in\n    tag_563:\n        /* \"#utility.yul\":5288:5351   */\n      swap2\n      pop\n        /* \"#utility.yul\":5243:5361   */\n      pop\n        /* \"#utility.yul\":4894:5368   */\n      swap3\n      pop\n      swap3\n      swap1\n      pop\n      jump\t// out\n        /* \"#utility.yul\":5374:5706   */\n    tag_53:\n        /* \"#utility.yul\":5495:5499   */\n      0x00\n        /* \"#utility.yul\":5533:5535   */\n      0x40\n        /* \"#utility.yul\":5522:5531   */\n      dup3\n        /* \"#utility.yul\":5518:5536   */\n      add\n        /* \"#utility.yul\":5510:5536   */\n      swap1\n      pop\n        /* \"#utility.yul\":5546:5617   */\n      tag_565\n        /* \"#utility.yul\":5614:5615   */\n      0x00\n        /* \"#utility.yul\":5603:5612   */\n      dup4\n        /* \"#utility.yul\":5599:5616   */\n      add\n        /* \"#utility.yul\":5590:5596   */\n      dup6\n        /* \"#utility.yul\":5546:5617   */\n      tag_460\n      jump\t// in\n    tag_565:\n        /* \"#utility.yul\":5627:5699   */\n      tag_566\n        /* \"#utility.yul\":5695:5697   */\n      0x20\n        /* \"#utility.yul\":5684:5693   */\n      dup4\n        /* \"#utility.yul\":5680:5698   */\n      add\n        /* \"#utility.yul\":5671:5677   */\n      dup5\n        /* \"#utility.yul\":5627:5699   */\n      tag_460\n      jump\t// in\n    tag_566:\n        /* \"#utility.yul\":5374:5706   */\n      swap4\n      swap3\n      pop\n      pop\n      pop\n      jump\t// out\n        /* \"#utility.yul\":5712:6237   */\n    tag_56:\n        /* \"#utility.yul\":5805:5811   */\n      0x00\n        /* \"#utility.yul\":5813:5819   */\n      dup1\n        /* \"#utility.yul\":5862:5865   */\n      0x80\n        /* \"#utility.yul\":5850:5859   */\n      dup4\n        /* \"#utility.yul\":5841:5848   */\n      dup6\n        /* \"#utility.yul\":5837:5860   */\n      sub\n        /* \"#utility.yul\":5833:5866   */\n      slt\n        /* \"#utility.yul\":5830:5950   */\n      iszero\n      tag_568\n      jumpi\n        /* \"#utility.yul\":5869:5948   */\n      tag_569\n      tag_462\n      jump\t// in\n    tag_569:\n        /* \"#utility.yul\":5830:5950   */\n    tag_568:\n        /* \"#utility.yul\":5989:5990   */\n      0x00\n        /* \"#utility.yul\":6014:6067   */\n      tag_570\n        /* \"#utility.yul\":6059:6066   */\n      dup6\n        /* \"#utility.yul\":6050:6056   */\n      dup3\n        /* \"#utility.yul\":6039:6048   */\n      dup7\n        /* \"#utility.yul\":6035:6057   */\n      add\n        /* \"#utility.yul\":6014:6067   */\n      tag_465\n      jump\t// in\n    tag_570:\n        /* \"#utility.yul\":6004:6067   */\n      swap3\n      pop\n        /* \"#utility.yul\":5960:6077   */\n      pop\n        /* \"#utility.yul\":6116:6118   */\n      0x20\n        /* \"#utility.yul\":6142:6220   */\n      tag_571\n        /* \"#utility.yul\":6212:6219   */\n      dup6\n        /* \"#utility.yul\":6203:6209   */\n      dup3\n        /* \"#utility.yul\":6192:6201   */\n      dup7\n        /* \"#utility.yul\":6188:6210   */\n      add\n        /* \"#utility.yul\":6142:6220   */\n      tag_472\n      jump\t// in\n    tag_571:\n        /* \"#utility.yul\":6132:6220   */\n      swap2\n      pop\n        /* \"#utility.yul\":6087:6230   */\n      pop\n        /* \"#utility.yul\":5712:6237   */\n      swap3\n      pop\n      swap3\n      swap1\n      pop\n      jump\t// out\n        /* \"#utility.yul\":6243:6347   */\n    tag_473:\n        /* \"#utility.yul\":6308:6314   */\n      0x00\n        /* \"#utility.yul\":6336:6340   */\n      0x03\n        /* \"#utility.yul\":6326:6340   */\n      swap1\n      pop\n        /* \"#utility.yul\":6243:6347   */\n      swap2\n      swap1\n      pop\n      jump\t// out\n        /* \"#utility.yul\":6353:6496   */\n    tag_474:\n        /* \"#utility.yul\":6450:6461   */\n      0x00\n        /* \"#utility.yul\":6487:6490   */\n      dup2\n        /* \"#utility.yul\":6472:6490   */\n      swap1\n      pop\n        /* \"#utility.yul\":6353:6496   */\n      swap3\n      swap2\n      pop\n      pop\n      jump\t// out\n        /* \"#utility.yul\":6502:6600   */\n    tag_475:\n        /* \"#utility.yul\":6567:6571   */\n      0x00\n        /* \"#utility.yul\":6590:6593   */\n      dup2\n        /* \"#utility.yul\":6582:6593   */\n      swap1\n      pop\n        /* \"#utility.yul\":6502:6600   */\n      swap2\n      swap1\n      pop\n      jump\t// out\n        /* \"#utility.yul\":6606:6714   */\n    tag_476:\n        /* \"#utility.yul\":6683:6707   */\n      tag_576\n        /* \"#utility.yul\":6701:6706   */\n      dup2\n        /* \"#utility.yul\":6683:6707   */\n      tag_459\n      jump\t// in\n    tag_576:\n        /* \"#utility.yul\":6678:6681   */\n      dup3\n        /* \"#utility.yul\":6671:6708   */\n      mstore\n        /* \"#utility.yul\":6606:6714   */\n      pop\n      pop\n      jump\t// out\n        /* \"#utility.yul\":6720:6899   */\n    tag_477:\n        /* \"#utility.yul\":6789:6799   */\n      0x00\n        /* \"#utility.yul\":6810:6856   */\n      tag_578\n        /* \"#utility.yul\":6852:6855   */\n      dup4\n        /* \"#utility.yul\":6844:6850   */\n      dup4\n        /* \"#utility.yul\":6810:6856   */\n      tag_476\n      jump\t// in\n    tag_578:\n        /* \"#utility.yul\":6888:6892   */\n      0x20\n        /* \"#utility.yul\":6883:6886   */\n      dup4\n        /* \"#utility.yul\":6879:6893   */\n      add\n        /* \"#utility.yul\":6865:6893   */\n      swap1\n      pop\n        /* \"#utility.yul\":6720:6899   */\n      swap3\n      swap2\n      pop\n      pop\n      jump\t// out\n        /* \"#utility.yul\":6905:7016   */\n    tag_478:\n        /* \"#utility.yul\":6973:6977   */\n      0x00\n        /* \"#utility.yul\":7005:7009   */\n      0x20\n        /* \"#utility.yul\":7000:7003   */\n      dup3\n        /* \"#utility.yul\":6996:7010   */\n      add\n        /* \"#utility.yul\":6988:7010   */\n      swap1\n      pop\n        /* \"#utility.yul\":6905:7016   */\n      swap2\n      swap1\n      pop\n      jump\t// out\n        /* \"#utility.yul\":7054:7748   */\n    tag_479:\n        /* \"#utility.yul\":7190:7242   */\n      tag_581\n        /* \"#utility.yul\":7236:7241   */\n      dup2\n        /* \"#utility.yul\":7190:7242   */\n      tag_473\n      jump\t// in\n    tag_581:\n        /* \"#utility.yul\":7258:7342   */\n      tag_582\n        /* \"#utility.yul\":7335:7341   */\n      dup2\n        /* \"#utility.yul\":7330:7333   */\n      dup5\n        /* \"#utility.yul\":7258:7342   */\n      tag_474\n      jump\t// in\n    tag_582:\n        /* \"#utility.yul\":7251:7342   */\n      swap3\n      pop\n        /* \"#utility.yul\":7366:7420   */\n      tag_583\n        /* \"#utility.yul\":7414:7419   */\n      dup3\n        /* \"#utility.yul\":7366:7420   */\n      tag_475\n      jump\t// in\n    tag_583:\n        /* \"#utility.yul\":7443:7450   */\n      dup1\n        /* \"#utility.yul\":7474:7475   */\n      0x00\n        /* \"#utility.yul\":7459:7741   */\n    tag_584:\n        /* \"#utility.yul\":7484:7490   */\n      dup4\n        /* \"#utility.yul\":7481:7482   */\n      dup2\n        /* \"#utility.yul\":7478:7491   */\n      lt\n        /* \"#utility.yul\":7459:7741   */\n      iszero\n      tag_586\n      jumpi\n        /* \"#utility.yul\":7560:7566   */\n      dup2\n        /* \"#utility.yul\":7554:7567   */\n      mload\n        /* \"#utility.yul\":7587:7650   */\n      tag_587\n        /* \"#utility.yul\":7646:7649   */\n      dup8\n        /* \"#utility.yul\":7631:7644   */\n      dup3\n        /* \"#utility.yul\":7587:7650   */\n      tag_477\n      jump\t// in\n    tag_587:\n        /* \"#utility.yul\":7580:7650   */\n      swap7\n      pop\n        /* \"#utility.yul\":7673:7731   */\n      tag_588\n        /* \"#utility.yul\":7724:7730   */\n      dup4\n        /* \"#utility.yul\":7673:7731   */\n      tag_478\n      jump\t// in\n    tag_588:\n        /* \"#utility.yul\":7663:7731   */\n      swap3\n      pop\n        /* \"#utility.yul\":7519:7741   */\n      pop\n        /* \"#utility.yul\":7506:7507   */\n      0x01\n        /* \"#utility.yul\":7503:7504   */\n      dup2\n        /* \"#utility.yul\":7499:7508   */\n      add\n        /* \"#utility.yul\":7494:7508   */\n      swap1\n      pop\n        /* \"#utility.yul\":7459:7741   */\n      jump(tag_584)\n    tag_586:\n        /* \"#utility.yul\":7463:7477   */\n      pop\n        /* \"#utility.yul\":7166:7748   */\n      pop\n      pop\n      pop\n        /* \"#utility.yul\":7054:7748   */\n      pop\n      pop\n      jump\t// out\n        /* \"#utility.yul\":7754:8068   */\n    tag_59:\n        /* \"#utility.yul\":7893:7897   */\n      0x00\n        /* \"#utility.yul\":7931:7933   */\n      0x60\n        /* \"#utility.yul\":7920:7929   */\n      dup3\n        /* \"#utility.yul\":7916:7934   */\n      add\n        /* \"#utility.yul\":7908:7934   */\n      swap1\n      pop\n        /* \"#utility.yul\":7944:8061   */\n      tag_590\n        /* \"#utility.yul\":8058:8059   */\n      0x00\n        /* \"#utility.yul\":8047:8056   */\n      dup4\n        /* \"#utility.yul\":8043:8060   */\n      add\n        /* \"#utility.yul\":8034:8040   */\n      dup5\n        /* \"#utility.yul\":7944:8061   */\n      tag_479\n      jump\t// in\n    tag_590:\n        /* \"#utility.yul\":7754:8068   */\n      swap3\n      swap2\n      pop\n      pop\n      jump\t// out\n        /* \"#utility.yul\":8074:8243   */\n    tag_480:\n        /* \"#utility.yul\":8158:8169   */\n      0x00\n        /* \"#utility.yul\":8192:8198   */\n      dup3\n        /* \"#utility.yul\":8187:8190   */\n      dup3\n        /* \"#utility.yul\":8180:8199   */\n      mstore\n        /* \"#utility.yul\":8232:8236   */\n      0x20\n        /* \"#utility.yul\":8227:8230   */\n      dup3\n        /* \"#utility.yul\":8223:8237   */\n      add\n        /* \"#utility.yul\":8208:8237   */\n      swap1\n      pop\n        /* \"#utility.yul\":8074:8243   */\n      swap3\n      swap2\n      pop\n      pop\n      jump\t// out\n        /* \"#utility.yul\":8249:8404   */\n    tag_481:\n        /* \"#utility.yul\":8389:8396   */\n      0x69203d206a000000000000000000000000000000000000000000000000000000\n        /* \"#utility.yul\":8385:8386   */\n      0x00\n        /* \"#utility.yul\":8377:8383   */\n      dup3\n        /* \"#utility.yul\":8373:8387   */\n      add\n        /* \"#utility.yul\":8366:8397   */\n      mstore\n        /* \"#utility.yul\":8249:8404   */\n      pop\n      jump\t// out\n        /* \"#utility.yul\":8410:8775   */\n    tag_482:\n        /* \"#utility.yul\":8552:8555   */\n      0x00\n        /* \"#utility.yul\":8573:8639   */\n      tag_594\n        /* \"#utility.yul\":8637:8638   */\n      0x05\n        /* \"#utility.yul\":8632:8635   */\n      dup4\n        /* \"#utility.yul\":8573:8639   */\n      tag_480\n      jump\t// in\n    tag_594:\n        /* \"#utility.yul\":8566:8639   */\n      swap2\n      pop\n        /* \"#utility.yul\":8648:8741   */\n      tag_595\n        /* \"#utility.yul\":8737:8740   */\n      dup3\n        /* \"#utility.yul\":8648:8741   */\n      tag_481\n      jump\t// in\n    tag_595:\n        /* \"#utility.yul\":8766:8768   */\n      0x20\n        /* \"#utility.yul\":8761:8764   */\n      dup3\n        /* \"#utility.yul\":8757:8769   */\n      add\n        /* \"#utility.yul\":8750:8769   */\n      swap1\n      pop\n        /* \"#utility.yul\":8410:8775   */\n      swap2\n      swap1\n      pop\n      jump\t// out\n        /* \"#utility.yul\":8781:9200   */\n    tag_70:\n        /* \"#utility.yul\":8947:8951   */\n      0x00\n        /* \"#utility.yul\":8985:8987   */\n      0x20\n        /* \"#utility.yul\":8974:8983   */\n      dup3\n        /* \"#utility.yul\":8970:8988   */\n      add\n        /* \"#utility.yul\":8962:8988   */\n      swap1\n      pop\n        /* \"#utility.yul\":9034:9043   */\n      dup2\n        /* \"#utility.yul\":9028:9032   */\n      dup2\n        /* \"#utility.yul\":9024:9044   */\n      sub\n        /* \"#utility.yul\":9020:9021   */\n      0x00\n        /* \"#utility.yul\":9009:9018   */\n      dup4\n        /* \"#utility.yul\":9005:9022   */\n      add\n        /* \"#utility.yul\":8998:9045   */\n      mstore\n        /* \"#utility.yul\":9062:9193   */\n      tag_597\n        /* \"#utility.yul\":9188:9192   */\n      dup2\n        /* \"#utility.yul\":9062:9193   */\n      tag_482\n      jump\t// in\n    tag_597:\n        /* \"#utility.yul\":9054:9193   */\n      swap1\n      pop\n        /* \"#utility.yul\":8781:9200   */\n      swap2\n      swap1\n      pop\n      jump\t// out\n        /* \"#utility.yul\":9206:9386   */\n    tag_73:\n        /* \"#utility.yul\":9254:9331   */\n      0x4e487b7100000000000000000000000000000000000000000000000000000000\n        /* \"#utility.yul\":9251:9252   */\n      0x00\n        /* \"#utility.yul\":9244:9332   */\n      mstore\n        /* \"#utility.yul\":9351:9355   */\n      0x32\n        /* \"#utility.yul\":9348:9349   */\n      0x04\n        /* \"#utility.yul\":9341:9356   */\n      mstore\n        /* \"#utility.yul\":9375:9379   */\n      0x24\n        /* \"#utility.yul\":9372:9373   */\n      0x00\n        /* \"#utility.yul\":9365:9380   */\n      revert\n        /* \"#utility.yul\":9392:9834   */\n    tag_76:\n        /* \"#utility.yul\":9541:9545   */\n      0x00\n        /* \"#utility.yul\":9579:9581   */\n      0x60\n        /* \"#utility.yul\":9568:9577   */\n      dup3\n        /* \"#utility.yul\":9564:9582   */\n      add\n        /* \"#utility.yul\":9556:9582   */\n      swap1\n      pop\n        /* \"#utility.yul\":9592:9663   */\n      tag_600\n        /* \"#utility.yul\":9660:9661   */\n      0x00\n        /* \"#utility.yul\":9649:9658   */\n      dup4\n        /* \"#utility.yul\":9645:9662   */\n      add\n        /* \"#utility.yul\":9636:9642   */\n      dup7\n        /* \"#utility.yul\":9592:9663   */\n      tag_468\n      jump\t// in\n    tag_600:\n        /* \"#utility.yul\":9673:9745   */\n      tag_601\n        /* \"#utility.yul\":9741:9743   */\n      0x20\n        /* \"#utility.yul\":9730:9739   */\n      dup4\n        /* \"#utility.yul\":9726:9744   */\n      add\n        /* \"#utility.yul\":9717:9723   */\n      dup6\n        /* \"#utility.yul\":9673:9745   */\n      tag_468\n      jump\t// in\n    tag_601:\n        /* \"#utility.yul\":9755:9827   */\n      tag_602\n        /* \"#utility.yul\":9823:9825   */\n      0x40\n        /* \"#utility.yul\":9812:9821   */\n      dup4\n        /* \"#utility.yul\":9808:9826   */\n      add\n        /* \"#utility.yul\":9799:9805   */\n      dup5\n        /* \"#utility.yul\":9755:9827   */\n      tag_460\n      jump\t// in\n    tag_602:\n        /* \"#utility.yul\":9392:9834   */\n      swap5\n      swap4\n      pop\n      pop\n      pop\n      pop\n      jump\t// out\n        /* \"#utility.yul\":9840:9930   */\n    tag_483:\n        /* \"#utility.yul\":9874:9881   */\n      0x00\n        /* \"#utility.yul\":9917:9922   */\n      dup2\n        /* \"#utility.yul\":9910:9923   */\n      iszero\n        /* \"#utility.yul\":9903:9924   */\n      iszero\n        /* \"#utility.yul\":9892:9924   */\n      swap1\n      pop\n        /* \"#utility.yul\":9840:9930   */\n      swap2\n      swap1\n      pop\n      jump\t// out\n        /* \"#utility.yul\":9936:10052   */\n    tag_484:\n        /* \"#utility.yul\":10006:10027   */\n      tag_605\n        /* \"#utility.yul\":10021:10026   */\n      dup2\n        /* \"#utility.yul\":10006:10027   */\n      tag_483\n      jump\t// in\n    tag_605:\n        /* \"#utility.yul\":9999:10004   */\n      dup2\n        /* \"#utility.yul\":9996:10028   */\n      eq\n        /* \"#utility.yul\":9986:10046   */\n      tag_606\n      jumpi\n        /* \"#utility.yul\":10042:10043   */\n      0x00\n        /* \"#utility.yul\":10039:10040   */\n      dup1\n        /* \"#utility.yul\":10032:10044   */\n      revert\n        /* \"#utility.yul\":9986:10046   */\n    tag_606:\n        /* \"#utility.yul\":9936:10052   */\n      pop\n      jump\t// out\n        /* \"#utility.yul\":10058:10195   */\n    tag_485:\n        /* \"#utility.yul\":10112:10117   */\n      0x00\n        /* \"#utility.yul\":10143:10149   */\n      dup2\n        /* \"#utility.yul\":10137:10150   */\n      mload\n        /* \"#utility.yul\":10128:10150   */\n      swap1\n      pop\n        /* \"#utility.yul\":10159:10189   */\n      tag_608\n        /* \"#utility.yul\":10183:10188   */\n      dup2\n        /* \"#utility.yul\":10159:10189   */\n      tag_484\n      jump\t// in\n    tag_608:\n        /* \"#utility.yul\":10058:10195   */\n      swap3\n      swap2\n      pop\n      pop\n      jump\t// out\n        /* \"#utility.yul\":10201:10546   */\n    tag_80:\n        /* \"#utility.yul\":10268:10274   */\n      0x00\n        /* \"#utility.yul\":10317:10319   */\n      0x20\n        /* \"#utility.yul\":10305:10314   */\n      dup3\n        /* \"#utility.yul\":10296:10303   */\n      dup5\n        /* \"#utility.yul\":10292:10315   */\n      sub\n        /* \"#utility.yul\":10288:10320   */\n      slt\n        /* \"#utility.yul\":10285:10404   */\n      iszero\n      tag_610\n      jumpi\n        /* \"#utility.yul\":10323:10402   */\n      tag_611\n      tag_462\n      jump\t// in\n    tag_611:\n        /* \"#utility.yul\":10285:10404   */\n    tag_610:\n        /* \"#utility.yul\":10443:10444   */\n      0x00\n        /* \"#utility.yul\":10468:10529   */\n      tag_612\n        /* \"#utility.yul\":10521:10528   */\n      dup5\n        /* \"#utility.yul\":10512:10518   */\n      dup3\n        /* \"#utility.yul\":10501:10510   */\n      dup6\n        /* \"#utility.yul\":10497:10519   */\n      add\n        /* \"#utility.yul\":10468:10529   */\n      tag_485\n      jump\t// in\n    tag_612:\n        /* \"#utility.yul\":10458:10529   */\n      swap2\n      pop\n        /* \"#utility.yul\":10414:10539   */\n      pop\n        /* \"#utility.yul\":10201:10546   */\n      swap3\n      swap2\n      pop\n      pop\n      jump\t// out\n        /* \"#utility.yul\":10552:10732   */\n    tag_486:\n        /* \"#utility.yul\":10600:10677   */\n      0x4e487b7100000000000000000000000000000000000000000000000000000000\n        /* \"#utility.yul\":10597:10598   */\n      0x00\n        /* \"#utility.yul\":10590:10678   */\n      mstore\n        /* \"#utility.yul\":10697:10701   */\n      0x11\n        /* \"#utility.yul\":10694:10695   */\n      0x04\n        /* \"#utility.yul\":10687:10702   */\n      mstore\n        /* \"#utility.yul\":10721:10725   */\n      0x24\n        /* \"#utility.yul\":10718:10719   */\n      0x00\n        /* \"#utility.yul\":10711:10726   */\n      revert\n        /* \"#utility.yul\":10738:11148   */\n    tag_87:\n        /* \"#utility.yul\":10778:10785   */\n      0x00\n        /* \"#utility.yul\":10801:10821   */\n      tag_615\n        /* \"#utility.yul\":10819:10820   */\n      dup3\n        /* \"#utility.yul\":10801:10821   */\n      tag_459\n      jump\t// in\n    tag_615:\n        /* \"#utility.yul\":10796:10821   */\n      swap2\n      pop\n        /* \"#utility.yul\":10835:10855   */\n      tag_616\n        /* \"#utility.yul\":10853:10854   */\n      dup4\n        /* \"#utility.yul\":10835:10855   */\n      tag_459\n      jump\t// in\n    tag_616:\n        /* \"#utility.yul\":10830:10855   */\n      swap3\n      pop\n        /* \"#utility.yul\":10890:10891   */\n      dup3\n        /* \"#utility.yul\":10887:10888   */\n      dup3\n        /* \"#utility.yul\":10883:10892   */\n      mul\n        /* \"#utility.yul\":10912:10942   */\n      tag_617\n        /* \"#utility.yul\":10930:10941   */\n      dup2\n        /* \"#utility.yul\":10912:10942   */\n      tag_459\n      jump\t// in\n    tag_617:\n        /* \"#utility.yul\":10901:10942   */\n      swap2\n      pop\n        /* \"#utility.yul\":11091:11092   */\n      dup3\n        /* \"#utility.yul\":11082:11089   */\n      dup3\n        /* \"#utility.yul\":11078:11093   */\n      div\n        /* \"#utility.yul\":11075:11076   */\n      dup5\n        /* \"#utility.yul\":11072:11094   */\n      eq\n        /* \"#utility.yul\":11052:11053   */\n      dup4\n        /* \"#utility.yul\":11045:11054   */\n      iszero\n        /* \"#utility.yul\":11025:11108   */\n      or\n        /* \"#utility.yul\":11002:11141   */\n      tag_618\n      jumpi\n        /* \"#utility.yul\":11121:11139   */\n      tag_619\n      tag_486\n      jump\t// in\n    tag_619:\n        /* \"#utility.yul\":11002:11141   */\n    tag_618:\n        /* \"#utility.yul\":10786:11148   */\n      pop\n        /* \"#utility.yul\":10738:11148   */\n      swap3\n      swap2\n      pop\n      pop\n      jump\t// out\n        /* \"#utility.yul\":11154:11345   */\n    tag_91:\n        /* \"#utility.yul\":11194:11197   */\n      0x00\n        /* \"#utility.yul\":11213:11233   */\n      tag_621\n        /* \"#utility.yul\":11231:11232   */\n      dup3\n        /* \"#utility.yul\":11213:11233   */\n      tag_459\n      jump\t// in\n    tag_621:\n        /* \"#utility.yul\":11208:11233   */\n      swap2\n      pop\n        /* \"#utility.yul\":11247:11267   */\n      tag_622\n        /* \"#utility.yul\":11265:11266   */\n      dup4\n        /* \"#utility.yul\":11247:11267   */\n      tag_459\n      jump\t// in\n    tag_622:\n        /* \"#utility.yul\":11242:11267   */\n      swap3\n      pop\n        /* \"#utility.yul\":11290:11291   */\n      dup3\n        /* \"#utility.yul\":11287:11288   */\n      dup3\n        /* \"#utility.yul\":11283:11292   */\n      add\n        /* \"#utility.yul\":11276:11292   */\n      swap1\n      pop\n        /* \"#utility.yul\":11311:11314   */\n      dup1\n        /* \"#utility.yul\":11308:11309   */\n      dup3\n        /* \"#utility.yul\":11305:11315   */\n      gt\n        /* \"#utility.yul\":11302:11338   */\n      iszero\n      tag_623\n      jumpi\n        /* \"#utility.yul\":11318:11336   */\n      tag_624\n      tag_486\n      jump\t// in\n    tag_624:\n        /* \"#utility.yul\":11302:11338   */\n    tag_623:\n        /* \"#utility.yul\":11154:11345   */\n      swap3\n      swap2\n      pop\n      pop\n      jump\t// out\n        /* \"#utility.yul\":11351:11545   */\n    tag_100:\n        /* \"#utility.yul\":11391:11395   */\n      0x00\n        /* \"#utility.yul\":11411:11431   */\n      tag_626\n        /* \"#utility.yul\":11429:11430   */\n      dup3\n        /* \"#utility.yul\":11411:11431   */\n      tag_459\n      jump\t// in\n    tag_626:\n        /* \"#utility.yul\":11406:11431   */\n      swap2\n      pop\n        /* \"#utility.yul\":11445:11465   */\n      tag_627\n        /* \"#utility.yul\":11463:11464   */\n      dup4\n        /* \"#utility.yul\":11445:11465   */\n      tag_459\n      jump\t// in\n    tag_627:\n        /* \"#utility.yul\":11440:11465   */\n      swap3\n      pop\n        /* \"#utility.yul\":11489:11490   */\n      dup3\n        /* \"#utility.yul\":11486:11487   */\n      dup3\n        /* \"#utility.yul\":11482:11491   */\n      sub\n        /* \"#utility.yul\":11474:11491   */\n      swap1\n      pop\n        /* \"#utility.yul\":11513:11514   */\n      dup2\n        /* \"#utility.yul\":11507:11511   */\n      dup2\n        /* \"#utility.yul\":11504:11515   */\n      gt\n        /* \"#utility.yul\":11501:11538   */\n      iszero\n      tag_628\n      jumpi\n        /* \"#utility.yul\":11518:11536   */\n      tag_629\n      tag_486\n      jump\t// in\n    tag_629:\n        /* \"#utility.yul\":11501:11538   */\n    tag_628:\n        /* \"#utility.yul\":11351:11545   */\n      swap3\n      swap2\n      pop\n      pop\n      jump\t// out\n        /* \"#utility.yul\":11551:11731   */\n    tag_487:\n        /* \"#utility.yul\":11599:11676   */\n      0x4e487b7100000000000000000000000000000000000000000000000000000000\n        /* \"#utility.yul\":11596:11597   */\n      0x00\n        /* \"#utility.yul\":11589:11677   */\n      mstore\n        /* \"#utility.yul\":11696:11700   */\n      0x12\n        /* \"#utility.yul\":11693:11694   */\n      0x04\n        /* \"#utility.yul\":11686:11701   */\n      mstore\n        /* \"#utility.yul\":11720:11724   */\n      0x24\n        /* \"#utility.yul\":11717:11718   */\n      0x00\n        /* \"#utility.yul\":11710:11725   */\n      revert\n        /* \"#utility.yul\":11737:11922   */\n    tag_103:\n        /* \"#utility.yul\":11777:11778   */\n      0x00\n        /* \"#utility.yul\":11794:11814   */\n      tag_632\n        /* \"#utility.yul\":11812:11813   */\n      dup3\n        /* \"#utility.yul\":11794:11814   */\n      tag_459\n      jump\t// in\n    tag_632:\n        /* \"#utility.yul\":11789:11814   */\n      swap2\n      pop\n        /* \"#utility.yul\":11828:11848   */\n      tag_633\n        /* \"#utility.yul\":11846:11847   */\n      dup4\n        /* \"#utility.yul\":11828:11848   */\n      tag_459\n      jump\t// in\n    tag_633:\n        /* \"#utility.yul\":11823:11848   */\n      swap3\n      pop\n        /* \"#utility.yul\":11867:11868   */\n      dup3\n        /* \"#utility.yul\":11857:11892   */\n      tag_634\n      jumpi\n        /* \"#utility.yul\":11872:11890   */\n      tag_635\n      tag_487\n      jump\t// in\n    tag_635:\n        /* \"#utility.yul\":11857:11892   */\n    tag_634:\n        /* \"#utility.yul\":11914:11915   */\n      dup3\n        /* \"#utility.yul\":11911:11912   */\n      dup3\n        /* \"#utility.yul\":11907:11916   */\n      div\n        /* \"#utility.yul\":11902:11916   */\n      swap1\n      pop\n        /* \"#utility.yul\":11737:11922   */\n      swap3\n      swap2\n      pop\n      pop\n      jump\t// out\n        /* \"#utility.yul\":11928:12086   */\n    tag_488:\n        /* \"#utility.yul\":12068:12078   */\n      0x6479203c206d696e000000000000000000000000000000000000000000000000\n        /* \"#utility.yul\":12064:12065   */\n      0x00\n        /* \"#utility.yul\":12056:12062   */\n      dup3\n        /* \"#utility.yul\":12052:12066   */\n      add\n        /* \"#utility.yul\":12045:12079   */\n      mstore\n        /* \"#utility.yul\":11928:12086   */\n      pop\n      jump\t// out\n        /* \"#utility.yul\":12092:12457   */\n    tag_489:\n        /* \"#utility.yul\":12234:12237   */\n      0x00\n        /* \"#utility.yul\":12255:12321   */\n      tag_638\n        /* \"#utility.yul\":12319:12320   */\n      0x08\n        /* \"#utility.yul\":12314:12317   */\n      dup4\n        /* \"#utility.yul\":12255:12321   */\n      tag_480\n      jump\t// in\n    tag_638:\n        /* \"#utility.yul\":12248:12321   */\n      swap2\n      pop\n        /* \"#utility.yul\":12330:12423   */\n      tag_639\n        /* \"#utility.yul\":12419:12422   */\n      dup3\n        /* \"#utility.yul\":12330:12423   */\n      tag_488\n      jump\t// in\n    tag_639:\n        /* \"#utility.yul\":12448:12450   */\n      0x20\n        /* \"#utility.yul\":12443:12446   */\n      dup3\n        /* \"#utility.yul\":12439:12451   */\n      add\n        /* \"#utility.yul\":12432:12451   */\n      swap1\n      pop\n        /* \"#utility.yul\":12092:12457   */\n      swap2\n      swap1\n      pop\n      jump\t// out\n        /* \"#utility.yul\":12463:12882   */\n    tag_109:\n        /* \"#utility.yul\":12629:12633   */\n      0x00\n        /* \"#utility.yul\":12667:12669   */\n      0x20\n        /* \"#utility.yul\":12656:12665   */\n      dup3\n        /* \"#utility.yul\":12652:12670   */\n      add\n        /* \"#utility.yul\":12644:12670   */\n      swap1\n      pop\n        /* \"#utility.yul\":12716:12725   */\n      dup2\n        /* \"#utility.yul\":12710:12714   */\n      dup2\n        /* \"#utility.yul\":12706:12726   */\n      sub\n        /* \"#utility.yul\":12702:12703   */\n      0x00\n        /* \"#utility.yul\":12691:12700   */\n      dup4\n        /* \"#utility.yul\":12687:12704   */\n      add\n        /* \"#utility.yul\":12680:12727   */\n      mstore\n        /* \"#utility.yul\":12744:12875   */\n      tag_641\n        /* \"#utility.yul\":12870:12874   */\n      dup2\n        /* \"#utility.yul\":12744:12875   */\n      tag_489\n      jump\t// in\n    tag_641:\n        /* \"#utility.yul\":12736:12875   */\n      swap1\n      pop\n        /* \"#utility.yul\":12463:12882   */\n      swap2\n      swap1\n      pop\n      jump\t// out\n        /* \"#utility.yul\":12888:13220   */\n    tag_122:\n        /* \"#utility.yul\":13009:13013   */\n      0x00\n        /* \"#utility.yul\":13047:13049   */\n      0x40\n        /* \"#utility.yul\":13036:13045   */\n      dup3\n        /* \"#utility.yul\":13032:13050   */\n      add\n        /* \"#utility.yul\":13024:13050   */\n      swap1\n      pop\n        /* \"#utility.yul\":13060:13131   */\n      tag_643\n        /* \"#utility.yul\":13128:13129   */\n      0x00\n        /* \"#utility.yul\":13117:13126   */\n      dup4\n        /* \"#utility.yul\":13113:13130   */\n      add\n        /* \"#utility.yul\":13104:13110   */\n      dup6\n        /* \"#utility.yul\":13060:13131   */\n      tag_468\n      jump\t// in\n    tag_643:\n        /* \"#utility.yul\":13141:13213   */\n      tag_644\n        /* \"#utility.yul\":13209:13211   */\n      0x20\n        /* \"#utility.yul\":13198:13207   */\n      dup4\n        /* \"#utility.yul\":13194:13212   */\n      add\n        /* \"#utility.yul\":13185:13191   */\n      dup5\n        /* \"#utility.yul\":13141:13213   */\n      tag_460\n      jump\t// in\n    tag_644:\n        /* \"#utility.yul\":12888:13220   */\n      swap4\n      swap3\n      pop\n      pop\n      pop\n      jump\t// out\n        /* \"#utility.yul\":13226:13385   */\n    tag_490:\n        /* \"#utility.yul\":13366:13377   */\n      0x6f7574203c206d696e0000000000000000000000000000000000000000000000\n        /* \"#utility.yul\":13362:13363   */\n      0x00\n        /* \"#utility.yul\":13354:13360   */\n      dup3\n        /* \"#utility.yul\":13350:13364   */\n      add\n        /* \"#utility.yul\":13343:13378   */\n      mstore\n        /* \"#utility.yul\":13226:13385   */\n      pop\n      jump\t// out\n        /* \"#utility.yul\":13391:13756   */\n    tag_491:\n        /* \"#utility.yul\":13533:13536   */\n      0x00\n        /* \"#utility.yul\":13554:13620   */\n      tag_647\n        /* \"#utility.yul\":13618:13619   */\n      0x09\n        /* \"#utility.yul\":13613:13616   */\n      dup4\n        /* \"#utility.yul\":13554:13620   */\n      tag_480\n      jump\t// in\n    tag_647:\n        /* \"#utility.yul\":13547:13620   */\n      swap2\n      pop\n        /* \"#utility.yul\":13629:13722   */\n      tag_648\n        /* \"#utility.yul\":13718:13721   */\n      dup3\n        /* \"#utility.yul\":13629:13722   */\n      tag_490\n      jump\t// in\n    tag_648:\n        /* \"#utility.yul\":13747:13749   */\n      0x20\n        /* \"#utility.yul\":13742:13745   */\n      dup3\n        /* \"#utility.yul\":13738:13750   */\n      add\n        /* \"#utility.yul\":13731:13750   */\n      swap1\n      pop\n        /* \"#utility.yul\":13391:13756   */\n      swap2\n      swap1\n      pop\n      jump\t// out\n        /* \"#utility.yul\":13762:14181   */\n    tag_131:\n        /* \"#utility.yul\":13928:13932   */\n      0x00\n        /* \"#utility.yul\":13966:13968   */\n      0x20\n        /* \"#utility.yul\":13955:13964   */\n      dup3\n        /* \"#utility.yul\":13951:13969   */\n      add\n        /* \"#utility.yul\":13943:13969   */\n      swap1\n      pop\n        /* \"#utility.yul\":14015:14024   */\n      dup2\n        /* \"#utility.yul\":14009:14013   */\n      dup2\n        /* \"#utility.yul\":14005:14025   */\n      sub\n        /* \"#utility.yul\":14001:14002   */\n      0x00\n        /* \"#utility.yul\":13990:13999   */\n      dup4\n        /* \"#utility.yul\":13986:14003   */\n      add\n        /* \"#utility.yul\":13979:14026   */\n      mstore\n        /* \"#utility.yul\":14043:14174   */\n      tag_650\n        /* \"#utility.yul\":14169:14173   */\n      dup2\n        /* \"#utility.yul\":14043:14174   */\n      tag_491\n      jump\t// in\n    tag_650:\n        /* \"#utility.yul\":14035:14174   */\n      swap1\n      pop\n        /* \"#utility.yul\":13762:14181   */\n      swap2\n      swap1\n      pop\n      jump\t// out\n        /* \"#utility.yul\":14187:14420   */\n    tag_180:\n        /* \"#utility.yul\":14226:14229   */\n      0x00\n        /* \"#utility.yul\":14249:14273   */\n      tag_652\n        /* \"#utility.yul\":14267:14272   */\n      dup3\n        /* \"#utility.yul\":14249:14273   */\n      tag_459\n      jump\t// in\n    tag_652:\n        /* \"#utility.yul\":14240:14273   */\n      swap2\n      pop\n        /* \"#utility.yul\":14295:14361   */\n      0xffffffffffffffffffffffffffffffffffffffffffffffffffffffffffffffff\n        /* \"#utility.yul\":14288:14293   */\n      dup3\n        /* \"#utility.yul\":14285:14362   */\n      sub\n        /* \"#utility.yul\":14282:14385   */\n      tag_653\n      jumpi\n        /* \"#utility.yul\":14365:14383   */\n      tag_654\n      tag_486\n      jump\t// in\n    tag_654:\n        /* \"#utility.yul\":14282:14385   */\n    tag_653:\n        /* \"#utility.yul\":14412:14413   */\n      0x01\n        /* \"#utility.yul\":14405:14410   */\n      dup3\n        /* \"#utility.yul\":14401:14414   */\n      add\n        /* \"#utility.yul\":14394:14414   */\n      swap1\n      pop\n        /* \"#utility.yul\":14187:14420   */\n      swap2\n      swap1\n      pop\n      jump\t// out\n        /* \"#utility.yul\":14426:14601   */\n    tag_492:\n        /* \"#utility.yul\":14566:14593   */\n      0x6c6971756964697479206469646e277420696e63726561736500000000000000\n        /* \"#utility.yul\":14562:14563   */\n      0x00\n        /* \"#utility.yul\":14554:14560   */\n      dup3\n        /* \"#utility.yul\":14550:14564   */\n      add\n        /* \"#utility.yul\":14543:14594   */\n      mstore\n        /* \"#utility.yul\":14426:14601   */\n      pop\n      jump\t// out\n        /* \"#utility.yul\":14607:14973   */\n    tag_493:\n        /* \"#utility.yul\":14749:14752   */\n      0x00\n        /* \"#utility.yul\":14770:14837   */\n      tag_657\n        /* \"#utility.yul\":14834:14836   */\n      0x19\n        /* \"#utility.yul\":14829:14832   */\n      dup4\n        /* \"#utility.yul\":14770:14837   */\n      tag_480\n      jump\t// in\n    tag_657:\n        /* \"#utility.yul\":14763:14837   */\n      swap2\n      pop\n        /* \"#utility.yul\":14846:14939   */\n      tag_658\n        /* \"#utility.yul\":14935:14938   */\n      dup3\n        /* \"#utility.yul\":14846:14939   */\n      tag_492\n      jump\t// in\n    tag_658:\n        /* \"#utility.yul\":14964:14966   */\n      0x20\n        /* \"#utility.yul\":14959:14962   */\n      dup3\n        /* \"#utility.yul\":14955:14967   */\n      add\n        /* \"#utility.yul\":14948:14967   */\n      swap1\n      pop\n        /* \"#utility.yul\":14607:14973   */\n      swap2\n      swap1\n      pop\n      jump\t// out\n        /* \"#utility.yul\":14979:15398   */\n    tag_184:\n        /* \"#utility.yul\":15145:15149   */\n      0x00\n        /* \"#utility.yul\":15183:15185   */\n      0x20\n        /* \"#utility.yul\":15172:15181   */\n      dup3\n        /* \"#utility.yul\":15168:15186   */\n      add\n        /* \"#utility.yul\":15160:15186   */\n      swap1\n      pop\n        /* \"#utility.yul\":15232:15241   */\n      dup2\n        /* \"#utility.yul\":15226:15230   */\n      dup2\n        /* \"#utility.yul\":15222:15242   */\n      sub\n        /* \"#utility.yul\":15218:15219   */\n      0x00\n        /* \"#utility.yul\":15207:15216   */\n      dup4\n        /* \"#utility.yul\":15203:15220   */\n      add\n        /* \"#utility.yul\":15196:15243   */\n      mstore\n        /* \"#utility.yul\":15260:15391   */\n      tag_660\n        /* \"#utility.yul\":15386:15390   */\n      dup2\n        /* \"#utility.yul\":15260:15391   */\n      tag_493\n      jump\t// in\n    tag_660:\n        /* \"#utility.yul\":15252:15391   */\n      swap1\n      pop\n        /* \"#utility.yul\":14979:15398   */\n      swap2\n      swap1\n      pop\n      jump\t// out\n        /* \"#utility.yul\":15404:15566   */\n    tag_494:\n        /* \"#utility.yul\":15544:15558   */\n      0x736861726573203c206d696e0000000000000000000000000000000000000000\n        /* \"#utility.yul\":15540:15541   */\n      0x00\n        /* \"#utility.yul\":15532:15538   */\n      dup3\n        /* \"#utility.yul\":15528:15542   */\n      add\n        /* \"#utility.yul\":15521:15559   */\n      mstore\n        /* \"#utility.yul\":15404:15566   */\n      pop\n      jump\t// out\n        /* \"#utility.yul\":15572:15938   */\n    tag_495:\n        /* \"#utility.yul\":15714:15717   */\n      0x00\n        /* \"#utility.yul\":15735:15802   */\n      tag_663\n        /* \"#utility.yul\":15799:15801   */\n      0x0c\n        /* \"#utility.yul\":15794:15797   */\n      dup4\n        /* \"#utility.yul\":15735:15802   */\n      tag_480\n      jump\t// in\n    tag_663:\n        /* \"#utility.yul\":15728:15802   */\n      swap2\n      pop\n        /* \"#utility.yul\":15811:15904   */\n      tag_664\n        /* \"#utility.yul\":15900:15903   */\n      dup3\n        /* \"#utility.yul\":15811:15904   */\n      tag_494\n      jump\t// in\n    tag_664:\n        /* \"#utility.yul\":15929:15931   */\n      0x20\n        /* \"#utility.yul\":15924:15927   */\n      dup3\n        /* \"#utility.yul\":15920:15932   */\n      add\n        /* \"#utility.yul\":15913:15932   */\n      swap1\n      pop\n        /* \"#utility.yul\":15572:15938   */\n      swap2\n      swap1\n      pop\n      jump\t// out\n        /* \"#utility.yul\":15944:16363   */\n    tag_226:\n        /* \"#utility.yul\":16110:16114   */\n      0x00\n        /* \"#utility.yul\":16148:16150   */\n      0x20\n        /* \"#utility.yul\":16137:16146   */\n      dup3\n        /* \"#utility.yul\":16133:16151   */\n      add\n        /* \"#utility.yul\":16125:16151   */\n      swap1\n      pop\n        /* \"#utility.yul\":16197:16206   */\n      dup2\n        /* \"#utility.yul\":16191:16195   */\n      dup2\n        /* \"#utility.yul\":16187:16207   */\n      sub\n        /* \"#utility.yul\":16183:16184   */\n      0x00\n        /* \"#utility.yul\":16172:16181   */\n      dup4\n        /* \"#utility.yul\":16168:16185   */\n      add\n        /* \"#utility.yul\":16161:16208   */\n      mstore\n        /* \"#utility.yul\":16225:16356   */\n      tag_666\n        /* \"#utility.yul\":16351:16355   */\n      dup2\n        /* \"#utility.yul\":16225:16356   */\n      tag_495\n      jump\t// in\n    tag_666:\n        /* \"#utility.yul\":16217:16356   */\n      swap1\n      pop\n        /* \"#utility.yul\":15944:16363   */\n      swap2\n      swap1\n      pop\n      jump\t// out\n        /* \"#utility.yul\":16369:16471   */\n    tag_496:\n        /* \"#utility.yul\":16411:16419   */\n      0x00\n        /* \"#utility.yul\":16458:16463   */\n      dup2\n        /* \"#utility.yul\":16455:16456   */\n      0x01\n        /* \"#utility.yul\":16451:16464   */\n      shr\n        /* \"#utility.yul\":16430:16464   */\n      swap1\n      pop\n        /* \"#utility.yul\":16369:16471   */\n      swap2\n      swap1\n      pop\n      jump\t// out\n        /* \"#utility.yul\":16477:17325   */\n    tag_497:\n        /* \"#utility.yul\":16538:16543   */\n      0x00\n        /* \"#utility.yul\":16545:16549   */\n      dup1\n        /* \"#utility.yul\":16569:16575   */\n      dup3\n        /* \"#utility.yul\":16560:16575   */\n      swap2\n      pop\n        /* \"#utility.yul\":16593:16598   */\n      dup4\n        /* \"#utility.yul\":16584:16598   */\n      swap1\n      pop\n        /* \"#utility.yul\":16607:17319   */\n    tag_669:\n        /* \"#utility.yul\":16628:16629   */\n      0x01\n        /* \"#utility.yul\":16618:16626   */\n      dup6\n        /* \"#utility.yul\":16615:16630   */\n      gt\n        /* \"#utility.yul\":16607:17319   */\n      iszero\n      tag_671\n      jumpi\n        /* \"#utility.yul\":16723:16727   */\n      dup1\n        /* \"#utility.yul\":16718:16721   */\n      dup7\n        /* \"#utility.yul\":16714:16728   */\n      div\n        /* \"#utility.yul\":16708:16712   */\n      dup2\n        /* \"#utility.yul\":16705:16729   */\n      gt\n        /* \"#utility.yul\":16702:16752   */\n      iszero\n      tag_672\n      jumpi\n        /* \"#utility.yul\":16732:16750   */\n      tag_673\n      tag_486\n      jump\t// in\n    tag_673:\n        /* \"#utility.yul\":16702:16752   */\n    tag_672:\n        /* \"#utility.yul\":16782:16783   */\n      0x01\n        /* \"#utility.yul\":16772:16780   */\n      dup6\n        /* \"#utility.yul\":16768:16784   */\n      and\n        /* \"#utility.yul\":16765:17216   */\n      iszero\n      tag_674\n      jumpi\n        /* \"#utility.yul\":17197:17201   */\n      dup1\n        /* \"#utility.yul\":17190:17195   */\n      dup3\n        /* \"#utility.yul\":17186:17202   */\n      mul\n        /* \"#utility.yul\":17177:17202   */\n      swap2\n      pop\n        /* \"#utility.yul\":16765:17216   */\n    tag_674:\n        /* \"#utility.yul\":17247:17251   */\n      dup1\n        /* \"#utility.yul\":17241:17245   */\n      dup2\n        /* \"#utility.yul\":17237:17252   */\n      mul\n        /* \"#utility.yul\":17229:17252   */\n      swap1\n      pop\n        /* \"#utility.yul\":17277:17309   */\n      tag_675\n        /* \"#utility.yul\":17300:17308   */\n      dup6\n        /* \"#utility.yul\":17277:17309   */\n      tag_496\n      jump\t// in\n    tag_675:\n        /* \"#utility.yul\":17265:17309   */\n      swap5\n      pop\n        /* \"#utility.yul\":16607:17319   */\n      jump(tag_669)\n    tag_671:\n        /* \"#utility.yul\":16477:17325   */\n      swap5\n      pop\n      swap5\n      swap3\n      pop\n      pop\n      pop\n      jump\t// out\n        /* \"#utility.yul\":17331:18404   */\n    tag_498:\n        /* \"#utility.yul\":17385:17390   */\n      0x00\n        /* \"#utility.yul\":17576:17584   */\n      dup3\n        /* \"#utility.yul\":17566:17606   */\n      tag_677\n      jumpi\n        /* \"#utility.yul\":17597:17598   */\n      0x01\n        /* \"#utility.yul\":17588:17598   */\n      swap1\n      pop\n        /* \"#utility.yul\":17599:17604   */\n      jump(tag_676)\n        /* \"#utility.yul\":17566:17606   */\n    tag_677:\n        /* \"#utility.yul\":17625:17629   */\n      dup2\n        /* \"#utility.yul\":17615:17651   */\n      tag_678\n      jumpi\n        /* \"#utility.yul\":17642:17643   */\n      0x00\n        /* \"#utility.yul\":17633:17643   */\n      swap1\n      pop\n        /* \"#utility.yul\":17644:17649   */\n      jump(tag_676)\n        /* \"#utility.yul\":17615:17651   */\n    tag_678:\n        /* \"#utility.yul\":17711:17715   */\n      dup2\n        /* \"#utility.yul\":17759:17760   */\n      0x01\n        /* \"#utility.yul\":17754:17781   */\n      dup2\n      eq\n      tag_680\n      jumpi\n        /* \"#utility.yul\":17795:17796   */\n      0x02\n        /* \"#utility.yul\":17790:17981   */\n      dup2\n      eq\n      tag_681\n      jumpi\n        /* \"#utility.yul\":17704:17981   */\n      jump(tag_679)\n        /* \"#utility.yul\":17754:17781   */\n    tag_680:\n        /* \"#utility.yul\":17772:17773   */\n      0x01\n        /* \"#utility.yul\":17763:17773   */\n      swap2\n      pop\n        /* \"#utility.yul\":17774:17779   */\n      pop\n      jump(tag_676)\n        /* \"#utility.yul\":17790:17981   */\n    tag_681:\n        /* \"#utility.yul\":17835:17838   */\n      0xff\n        /* \"#utility.yul\":17825:17833   */\n      dup5\n        /* \"#utility.yul\":17822:17839   */\n      gt\n        /* \"#utility.yul\":17819:17862   */\n      iszero\n      tag_682\n      jumpi\n        /* \"#utility.yul\":17842:17860   */\n      tag_683\n      tag_486\n      jump\t// in\n    tag_683:\n        /* \"#utility.yul\":17819:17862   */\n    tag_682:\n        /* \"#utility.yul\":17891:17899   */\n      dup4\n        /* \"#utility.yul\":17888:17889   */\n      0x02\n        /* \"#utility.yul\":17884:17900   */\n      exp\n        /* \"#utility.yul\":17875:17900   */\n      swap2\n      pop\n        /* \"#utility.yul\":17926:17929   */\n      dup5\n        /* \"#utility.yul\":17919:17924   */\n      dup3\n        /* \"#utility.yul\":17916:17930   */\n      gt\n        /* \"#utility.yul\":17913:17953   */\n      iszero\n      tag_684\n      jumpi\n        /* \"#utility.yul\":17933:17951   */\n      tag_685\n      tag_486\n      jump\t// in\n    tag_685:\n        /* \"#utility.yul\":17913:17953   */\n    tag_684:\n        /* \"#utility.yul\":17966:17971   */\n      pop\n      jump(tag_676)\n        /* \"#utility.yul\":17704:17981   */\n    tag_679:\n      pop\n        /* \"#utility.yul\":18090:18092   */\n      0x20\n        /* \"#utility.yul\":18080:18088   */\n      dup4\n        /* \"#utility.yul\":18077:18093   */\n      lt\n        /* \"#utility.yul\":18071:18074   */\n      0x0133\n        /* \"#utility.yul\":18065:18069   */\n      dup4\n        /* \"#utility.yul\":18062:18075   */\n      lt\n        /* \"#utility.yul\":18058:18094   */\n      and\n        /* \"#utility.yul\":18040:18042   */\n      0x4e\n        /* \"#utility.yul\":18030:18038   */\n      dup5\n        /* \"#utility.yul\":18027:18043   */\n      lt\n        /* \"#utility.yul\":18022:18024   */\n      0x0b\n        /* \"#utility.yul\":18016:18020   */\n      dup5\n        /* \"#utility.yul\":18013:18025   */\n      lt\n        /* \"#utility.yul\":18009:18044   */\n      and\n        /* \"#utility.yul\":17993:18104   */\n      or\n        /* \"#utility.yul\":17990:18236   */\n      iszero\n      tag_686\n      jumpi\n        /* \"#utility.yul\":18146:18154   */\n      dup3\n        /* \"#utility.yul\":18140:18144   */\n      dup3\n        /* \"#utility.yul\":18136:18155   */\n      exp\n        /* \"#utility.yul\":18127:18155   */\n      swap1\n      pop\n        /* \"#utility.yul\":18181:18184   */\n      dup4\n        /* \"#utility.yul\":18174:18179   */\n      dup2\n        /* \"#utility.yul\":18171:18185   */\n      gt\n        /* \"#utility.yul\":18168:18208   */\n      iszero\n      tag_687\n      jumpi\n        /* \"#utility.yul\":18188:18206   */\n      tag_688\n      tag_486\n      jump\t// in\n    tag_688:\n        /* \"#utility.yul\":18168:18208   */\n    tag_687:\n        /* \"#utility.yul\":18221:18226   */\n      jump(tag_676)\n        /* \"#utility.yul\":17990:18236   */\n    tag_686:\n        /* \"#utility.yul\":18261:18303   */\n      tag_689\n        /* \"#utility.yul\":18299:18302   */\n      dup5\n        /* \"#utility.yul\":18289:18297   */\n      dup5\n        /* \"#utility.yul\":18283:18287   */\n      dup5\n        /* \"#utility.yul\":18280:18281   */\n      0x01\n        /* \"#utility.yul\":18261:18303   */\n      tag_497\n      jump\t// in\n    tag_689:\n        /* \"#utility.yul\":18246:18303   */\n      swap3\n      pop\n      swap1\n      pop\n        /* \"#utility.yul\":18335:18339   */\n      dup2\n        /* \"#utility.yul\":18330:18333   */\n      dup5\n        /* \"#utility.yul\":18326:18340   */\n      div\n        /* \"#utility.yul\":18319:18324   */\n      dup2\n        /* \"#utility.yul\":18316:18341   */\n      gt\n        /* \"#utility.yul\":18313:18364   */\n      iszero\n      tag_690\n      jumpi\n        /* \"#utility.yul\":18344:18362   */\n      tag_691\n      tag_486\n      jump\t// in\n    tag_691:\n        /* \"#utility.yul\":18313:18364   */\n    tag_690:\n        /* \"#utility.yul\":18393:18397   */\n      dup2\n        /* \"#utility.yul\":18386:18391   */\n      dup2\n        /* \"#utility.yul\":18382:18398   */\n      mul\n        /* \"#utility.yul\":18373:18398   */\n      swap1\n      pop\n        /* \"#utility.yul\":17331:18404   */\n    tag_676:\n      swap4\n      swap3\n      pop\n      pop\n      pop\n      jump\t// out\n        /* \"#utility.yul\":18410:18695   */\n    tag_265:\n        /* \"#utility.yul\":18470:18475   */\n      0x00\n        /* \"#utility.yul\":18494:18517   */\n      tag_693\n        /* \"#utility.yul\":18512:18516   */\n      dup3\n        /* \"#utility.yul\":18494:18517   */\n      tag_459\n      jump\t// in\n    tag_693:\n        /* \"#utility.yul\":18486:18517   */\n      swap2\n      pop\n        /* \"#utility.yul\":18538:18565   */\n      tag_694\n        /* \"#utility.yul\":18556:18564   */\n      dup4\n        /* \"#utility.yul\":18538:18565   */\n      tag_459\n      jump\t// in\n    tag_694:\n        /* \"#utility.yul\":18526:18565   */\n      swap3\n      pop\n        /* \"#utility.yul\":18584:18688   */\n      tag_695\n        /* \"#utility.yul\":18621:18687   */\n      0xffffffffffffffffffffffffffffffffffffffffffffffffffffffffffffffff\n        /* \"#utility.yul\":18611:18619   */\n      dup5\n        /* \"#utility.yul\":18605:18609   */\n      dup5\n        /* \"#utility.yul\":18584:18688   */\n      tag_498\n      jump\t// in\n    tag_695:\n        /* \"#utility.yul\":18575:18688   */\n      swap1\n      pop\n        /* \"#utility.yul\":18410:18695   */\n      swap3\n      swap2\n      pop\n      pop\n      jump\t// out\n        /* \"#utility.yul\":18701:18868   */\n    tag_499:\n        /* \"#utility.yul\":18841:18860   */\n      0x79206469646e277420636f6e7665726765000000000000000000000000000000\n        /* \"#utility.yul\":18837:18838   */\n      0x00\n        /* \"#utility.yul\":18829:18835   */\n      dup3\n        /* \"#utility.yul\":18825:18839   */\n      add\n        /* \"#utility.yul\":18818:18861   */\n      mstore\n        /* \"#utility.yul\":18701:18868   */\n      pop\n      jump\t// out\n        /* \"#utility.yul\":18874:19240   */\n    tag_500:\n        /* \"#utility.yul\":19016:19019   */\n      0x00\n        /* \"#utility.yul\":19037:19104   */\n      tag_698\n        /* \"#utility.yul\":19101:19103   */\n      0x11\n        /* \"#utility.yul\":19096:19099   */\n      dup4\n        /* \"#utility.yul\":19037:19104   */\n      tag_480\n      jump\t// in\n    tag_698:\n        /* \"#utility.yul\":19030:19104   */\n      swap2\n      pop\n        /* \"#utility.yul\":19113:19206   */\n      tag_699\n        /* \"#utility.yul\":19202:19205   */\n      dup3\n        /* \"#utility.yul\":19113:19206   */\n      tag_499\n      jump\t// in\n    tag_699:\n        /* \"#utility.yul\":19231:19233   */\n      0x20\n        /* \"#utility.yul\":19226:19229   */\n      dup3\n        /* \"#utility.yul\":19222:19234   */\n      add\n        /* \"#utility.yul\":19215:19234   */\n      swap1\n      pop\n        /* \"#utility.yul\":18874:19240   */\n      swap2\n      swap1\n      pop\n      jump\t// out\n        /* \"#utility.yul\":19246:19665   */\n    tag_321:\n        /* \"#utility.yul\":19412:19416   */\n      0x00\n        /* \"#utility.yul\":19450:19452   */\n      0x20\n        /* \"#utility.yul\":19439:19448   */\n      dup3\n        /* \"#utility.yul\":19435:19453   */\n      add\n        /* \"#utility.yul\":19427:19453   */\n      swap1\n      pop\n        /* \"#utility.yul\":19499:19508   */\n      dup2\n        /* \"#utility.yul\":19493:19497   */\n      dup2\n        /* \"#utility.yul\":19489:19509   */\n      sub\n        /* \"#utility.yul\":19485:19486   */\n      0x00\n        /* \"#utility.yul\":19474:19483   */\n      dup4\n        /* \"#utility.yul\":19470:19487   */\n      add\n        /* \"#utility.yul\":19463:19510   */\n      mstore\n        /* \"#utility.yul\":19527:19658   */\n      tag_701\n        /* \"#utility.yul\":19653:19657   */\n      dup2\n        /* \"#utility.yul\":19527:19658   */\n      tag_500\n      jump\t// in\n    tag_701:\n        /* \"#utility.yul\":19519:19658   */\n      swap1\n      pop\n        /* \"#utility.yul\":19246:19665   */\n      swap2\n      swap1\n      pop\n      jump\t// out\n        /* \"#utility.yul\":19671:19838   */\n    tag_501:\n        /* \"#utility.yul\":19811:19830   */\n      0x44206469646e277420636f6e7665726765000000000000000000000000000000\n        /* \"#utility.yul\":19807:19808   */\n      0x00\n        /* \"#utility.yul\":19799:19805   */\n      dup3\n        /* \"#utility.yul\":19795:19809   */\n      add\n        /* \"#utility.yul\":19788:19831   */\n      mstore\n        /* \"#utility.yul\":19671:19838   */\n      pop\n      jump\t// out\n        /* \"#utility.yul\":19844:20210   */\n    tag_502:\n        /* \"#utility.yul\":19986:19989   */\n      0x00\n        /* \"#utility.yul\":20007:20074   */\n      tag_704\n        /* \"#utility.yul\":20071:20073   */\n      0x11\n        /* \"#utility.yul\":20066:20069   */\n      dup4\n        /* \"#utility.yul\":20007:20074   */\n      tag_480\n      jump\t// in\n    tag_704:\n        /* \"#utility.yul\":20000:20074   */\n      swap2\n      pop\n        /* \"#utility.yul\":20083:20176   */\n      tag_705\n        /* \"#utility.yul\":20172:20175   */\n      dup3\n        /* \"#utility.yul\":20083:20176   */\n      tag_501\n      jump\t// in\n    tag_705:\n        /* \"#utility.yul\":20201:20203   */\n      0x20\n        /* \"#utility.yul\":20196:20199   */\n      dup3\n        /* \"#utility.yul\":20192:20204   */\n      add\n        /* \"#utility.yul\":20185:20204   */\n      swap1\n      pop\n        /* \"#utility.yul\":19844:20210   */\n      swap2\n      swap1\n      pop\n      jump\t// out\n        /* \"#utility.yul\":20216:20635   */\n    tag_415:\n        /* \"#utility.yul\":20382:20386   */\n      0x00\n        /* \"#utility.yul\":20420:20422   */\n      0x20\n        /* \"#utility.yul\":20409:20418   */\n      dup3\n        /* \"#utility.yul\":20405:20423   */\n      add\n        /* \"#utility.yul\":20397:20423   */\n      swap1\n      pop\n        /* \"#utility.yul\":20469:20478   */\n      dup2\n        /* \"#utility.yul\":20463:20467   */\n      dup2\n        /* \"#utility.yul\":20459:20479   */\n      sub\n        /* \"#utility.yul\":20455:20456   */\n      0x00\n        /* \"#utility.yul\":20444:20453   */\n      dup4\n        /* \"#utility.yul\":20440:20457   */\n      add\n        /* \"#utility.yul\":20433:20480   */\n      mstore\n        /* \"#utility.yul\":20497:20628   */\n      tag_707\n        /* \"#utility.yul\":20623:20627   */\n      dup2\n        /* \"#utility.yul\":20497:20628   */\n      tag_502\n      jump\t// in\n    tag_707:\n        /* \"#utility.yul\":20489:20628   */\n      swap1\n      pop\n        /* \"#utility.yul\":20216:20635   */\n      swap2\n      swap1\n      pop\n      jump\t// out\n\n    auxdata: 0xa2646970667358221220344626e5fd1c182c9325dfce1cbf4aaba2b4d865caa9f7b886c8aba366565e0e64736f6c63430008110033\n}\n",
				"bytecode": {
					"linkReferences": {},
					"object": "60806040526040518060600160405280600164ffffffffff16815260200164e8d4a5100064ffffffffff16815260200164e8d4a5100064ffffffffff1681525060039060036200005192919062000066565b503480156200005f57600080fd5b50620000d3565b8260038101928215620000a1579160200282015b82811115620000a0578251829064ffffffffff169055916020019190600101906200007a565b5b509050620000b09190620000b4565b5090565b5b80821115620000cf576000816000905550600101620000b5565b5090565b61222480620000e36000396000f3fe608060405234801561001057600080fd5b506004361061009e5760003560e01c806370a082311161006657806370a0823114610181578063a4bf0446146101b1578063a60dc3b1146101e1578063d035862c14610212578063e25aa5fa146102425761009e565b806318160ddd146100a35780634903b0d1146100c15780634f64b2be146100f15780635673b02d146101215780637066b5b214610151575b600080fd5b6100ab610260565b6040516100b89190611738565b60405180910390f35b6100db60048036038101906100d69190611784565b610266565b6040516100e89190611738565b60405180910390f35b61010b60048036038101906101069190611784565b610281565b60405161011891906117f2565b60405180910390f35b61013b6004803603810190610136919061180d565b6102b7565b6040516101489190611738565b60405180910390f35b61016b60048036038101906101669190611874565b6105f4565b6040516101789190611738565b60405180910390f35b61019b600480360381019061019691906118f3565b610739565b6040516101a89190611738565b60405180910390f35b6101cb60048036038101906101c69190611947565b610751565b6040516101d89190611738565b60405180910390f35b6101fb60048036038101906101f69190611987565b610b61565b6040516102099291906119c7565b60405180910390f35b61022c600480360381019061022791906119f0565b610b79565b6040516102399190611adb565b60405180910390f35b61024a610d3f565b6040516102579190611738565b60405180910390f35b60095481565b6006816003811061027657600080fd5b016000915090505481565b6000816003811061029157600080fd5b016000915054906101000a900473ffffffffffffffffffffffffffffffffffffffff1681565b60008385036102fb576040517f08c379a00000000000000000000000000000000000000000000000000000000081526004016102f290611b53565b60405180910390fd5b6000856003811061030f5761030e611b73565b5b0160009054906101000a900473ffffffffffffffffffffffffffffffffffffffff1673ffffffffffffffffffffffffffffffffffffffff166323b872dd3330866040518463ffffffff1660e01b815260040161036d93929190611ba2565b6020604051808303816000875af115801561038c573d6000803e3d6000fd5b505050506040513d601f19601f820116820180604052508101906103b09190611c11565b5060006103bb610d9b565b90506000600387600381106103d3576103d2611b73565b5b0154856103e09190611c6d565b8288600381106103f3576103f2611b73565b5b60200201516104029190611caf565b9050600082876003811061041957610418611b73565b5b60200201519050600061042e89898587610e16565b90506003886003811061044457610443611b73565b5b0154600182846104549190611ce3565b61045e9190611ce3565b6104689190611d46565b94506000620f424061012c8761047e9190611c6d565b6104889190611d46565b905080866104969190611ce3565b9550868610156104db576040517f08c379a00000000000000000000000000000000000000000000000000000000081526004016104d290611dc3565b60405180910390fd5b8760068b600381106104f0576104ef611b73565b5b0160008282546105009190611caf565b925050819055508560068a6003811061051c5761051b611b73565b5b01600082825461052c9190611ce3565b925050819055506000896003811061054757610546611b73565b5b0160009054906101000a900473ffffffffffffffffffffffffffffffffffffffff1673ffffffffffffffffffffffffffffffffffffffff1663a9059cbb33886040518363ffffffff1660e01b81526004016105a3929190611de3565b6020604051808303816000875af11580156105c2573d6000803e3d6000fd5b505050506040513d601f19601f820116820180604052508101906105e69190611c11565b505050505050949350505050565b60006106008484610ff8565b508091505081811015610648576040517f08c379a000000000000000000000000000000000000000000000000000000000815260040161063f90611e58565b60405180910390fd5b806006846003811061065d5761065c611b73565b5b01600082825461066d9190611ce3565b9250508190555061067e3385611244565b6000836003811061069257610691611b73565b5b0160009054906101000a900473ffffffffffffffffffffffffffffffffffffffff1673ffffffffffffffffffffffffffffffffffffffff1663a9059cbb33836040518363ffffffff1660e01b81526004016106ee929190611de3565b6020604051808303816000875af115801561070d573d6000803e3d6000fd5b505050506040513d601f19601f820116820180604052508101906107319190611c11565b509392505050565b600a6020528060005260406000206000915090505481565b6000806009549050600080610764610d9b565b9050600083111561077b57610778816112b7565b91505b6107836116fd565b60005b60038110156109155760008882600381106107a4576107a3611b73565b5b6020020135905060008111156108ce57600082600381106107c8576107c7611b73565b5b0160009054906101000a900473ffffffffffffffffffffffffffffffffffffffff1673ffffffffffffffffffffffffffffffffffffffff166323b872dd3330846040518463ffffffff1660e01b815260040161082693929190611ba2565b6020604051808303816000875af1158015610845573d6000803e3d6000fd5b505050506040513d601f19601f820116820180604052508101906108699190611c11565b506003826003811061087e5761087d611b73565b5b01548161088b9190611c6d565b84836003811061089e5761089d611b73565b5b60200201516108ad9190611caf565b8383600381106108c0576108bf611b73565b5b602002018181525050610903565b8382600381106108e1576108e0611b73565b5b60200201518383600381106108f9576108f8611b73565b5b6020020181815250505b508061090e90611e78565b9050610786565b506000610921826112b7565b9050838111610965576040517f08c379a000000000000000000000000000000000000000000000000000000000815260040161095c90611f0c565b60405180910390fd5b600080861115610a6d5760005b6003811015610a5c576000868487846003811061099257610991611b73565b5b60200201516109a19190611c6d565b6109ab9190611d46565b905060006109d08684600381106109c5576109c4611b73565b5b60200201518361148e565b9050620f424081600160036109e59190611ce3565b60046109f19190611c6d565b600361012c610a009190611c6d565b610a0a9190611d46565b610a149190611c6d565b610a1e9190611d46565b868460038110610a3157610a30611b73565b5b60200201818151610a429190611ce3565b91508181525050505080610a5590611e78565b9050610972565b50610a66836112b7565b9050610a71565b8190505b60005b6003811015610ad157898160038110610a9057610a8f611b73565b5b602002013560068260038110610aa957610aa8611b73565b5b016000828254610ab99190611caf565b9250508190555080610aca90611e78565b9050610a74565b506000861115610b045784868683610ae99190611ce3565b610af39190611c6d565b610afd9190611d46565b9650610b08565b8096505b87871015610b4b576040517f08c379a0000000000000000000000000000000000000000000000000000000008152600401610b4290611f78565b60405180910390fd5b610b5533886114be565b50505050505092915050565b600080610b6e8484610ff8565b915091509250929050565b610b816116fd565b6000600954905060005b6003811015610d2d576000828660068460038110610bac57610bab611b73565b5b0154610bb89190611c6d565b610bc29190611d46565b9050848260038110610bd757610bd6611b73565b5b6020020135811015610c1e576040517f08c379a0000000000000000000000000000000000000000000000000000000008152600401610c1590611e58565b60405180910390fd5b8060068360038110610c3357610c32611b73565b5b016000828254610c439190611ce3565b9250508190555080848360038110610c5e57610c5d611b73565b5b60200201818152505060008260038110610c7b57610c7a611b73565b5b0160009054906101000a900473ffffffffffffffffffffffffffffffffffffffff1673ffffffffffffffffffffffffffffffffffffffff1663a9059cbb33836040518363ffffffff1660e01b8152600401610cd7929190611de3565b6020604051808303816000875af1158015610cf6573d6000803e3d6000fd5b505050506040513d601f19601f82011682018060405250810190610d1a9190611c11565b505080610d2690611e78565b9050610b8b565b50610d383385611244565b5092915050565b600080610d52610d4d610d9b565b6112b7565b9050600060095490506000811115610d9157806012600a610d7391906120cb565b83610d7e9190611c6d565b610d889190611d46565b92505050610d98565b6000925050505b90565b610da36116fd565b60005b6003811015610e125760038160038110610dc357610dc2611b73565b5b015460068260038110610dd957610dd8611b73565b5b0154610de59190611c6d565b828260038110610df857610df7611b73565b5b60200201818152505080610e0b90611e78565b9050610da6565b5090565b600080600360016003610e299190611ce3565b6003610e3591906120cb565b6103e8610e429190611c6d565b610e4c9190611c6d565b90506000610e59846112b7565b90506000808290506000805b6003811015610ee5578a8103610e7d57889150610ea0565b89810315610ed457878160038110610e9857610e97611b73565b5b602002015191505b8184610eac9190611caf565b9350816003610ebb9190611c6d565b8584610ec79190611c6d565b610ed19190611d46565b92505b80610ede90611e78565b9050610e65565b50846003610ef39190611c6d565b8483610eff9190611c6d565b610f099190611d46565b915060008585610f199190611d46565b84610f249190611caf565b905060008086905060005b60ff811015610fb4578192508784836002610f4a9190611c6d565b610f549190611caf565b610f5e9190611ce3565b868384610f6b9190611c6d565b610f759190611caf565b610f7f9190611d46565b91506001610f8d838561148e565b11610fa357819950505050505050505050610ff0565b80610fad90611e78565b9050610f2f565b506040517f08c379a0000000000000000000000000000000000000000000000000000000008152600401610fe790612162565b60405180910390fd5b949350505050565b60008060006009549050600061100c610d9b565b90506000611019826112b7565b9050600083888361102a9190611c6d565b6110349190611d46565b8261103f9190611ce3565b9050600061104e888584611531565b905060006003896003811061106657611065611b73565b5b015482868b6003811061107c5761107b611b73565b5b602002015161108b9190611ce3565b6110959190611d46565b90506000805b60038110156111c6578a81036110eb578386868984600381106110c1576110c0611b73565b5b60200201516110d09190611c6d565b6110da9190611d46565b6110e49190611ce3565b915061113e565b8585888360038110611100576110ff611b73565b5b602002015161110f9190611c6d565b6111199190611d46565b87826003811061112c5761112b611b73565b5b602002015161113b9190611ce3565b91505b620f424082600160036111519190611ce3565b600461115d9190611c6d565b600361012c61116c9190611c6d565b6111769190611d46565b6111809190611c6d565b61118a9190611d46565b87826003811061119d5761119c611b73565b5b602002018181516111ae9190611ce3565b91508181525050806111bf90611e78565b905061109b565b5060006111d48b8887611531565b905060038b600381106111ea576111e9611b73565b5b0154600182898e6003811061120257611201611b73565b5b60200201516112119190611ce3565b61121b9190611ce3565b6112259190611d46565b995089836112339190611ce3565b985050505050505050509250929050565b80600a60008473ffffffffffffffffffffffffffffffffffffffff1673ffffffffffffffffffffffffffffffffffffffff16815260200190815260200160002060008282546112939190611ce3565b9250508190555080600960008282546112ac9190611ce3565b925050819055505050565b6000806003600160036112ca9190611ce3565b60036112d691906120cb565b6103e86112e39190611c6d565b6112ed9190611c6d565b90506000805b60038110156113325784816003811061130f5761130e611b73565b5b60200201518261131f9190611caf565b91508061132b90611e78565b90506112f3565b5060008190506000805b60ff81101561144d57600083905060005b60038110156113a35788816003811061136957611368611b73565b5b6020020151600361137a9190611c6d565b85836113869190611c6d565b6113909190611d46565b91508061139c90611e78565b905061134d565b5083925080600160036113b69190611caf565b6113c09190611c6d565b846001886113ce9190611ce3565b6113d89190611c6d565b6113e29190611caf565b848260036113f09190611c6d565b87896113fc9190611c6d565b6114069190611caf565b6114109190611c6d565b61141a9190611d46565b93506001611428858561148e565b1161143b57839650505050505050611489565b508061144690611e78565b905061133c565b506040517f08c379a0000000000000000000000000000000000000000000000000000000008152600401611480906121ce565b60405180910390fd5b919050565b6000818310156114a95782826114a49190611ce3565b6114b6565b81836114b59190611ce3565b5b905092915050565b80600a60008473ffffffffffffffffffffffffffffffffffffffff1673ffffffffffffffffffffffffffffffffffffffff168152602001908152602001600020600082825461150d9190611caf565b9250508190555080600960008282546115269190611caf565b925050819055505050565b6000806003600160036115449190611ce3565b600361155091906120cb565b6103e861155d9190611c6d565b6115679190611c6d565b90506000808490506000805b60038110156115ec578881146115a25787816003811061159657611595611b73565b5b602002015191506115a7565b6115db565b81846115b39190611caf565b93508160036115c29190611c6d565b87846115ce9190611c6d565b6115d89190611d46565b92505b806115e590611e78565b9050611573565b508360036115fa9190611c6d565b86836116069190611c6d565b6116109190611d46565b9150600084876116209190611d46565b8461162b9190611caf565b905060008088905060005b60ff8110156116ba5781925089848360026116519190611c6d565b61165b9190611caf565b6116659190611ce3565b8683846116729190611c6d565b61167c9190611caf565b6116869190611d46565b91506001611694838561148e565b116116a95781985050505050505050506116f6565b806116b390611e78565b9050611636565b506040517f08c379a00000000000000000000000000000000000000000000000000000000081526004016116ed90612162565b60405180910390fd5b9392505050565b6040518060600160405280600390602082028036833780820191505090505090565b6000819050919050565b6117328161171f565b82525050565b600060208201905061174d6000830184611729565b92915050565b600080fd5b6117618161171f565b811461176c57600080fd5b50565b60008135905061177e81611758565b92915050565b60006020828403121561179a57611799611753565b5b60006117a88482850161176f565b91505092915050565b600073ffffffffffffffffffffffffffffffffffffffff82169050919050565b60006117dc826117b1565b9050919050565b6117ec816117d1565b82525050565b600060208201905061180760008301846117e3565b92915050565b6000806000806080858703121561182757611826611753565b5b60006118358782880161176f565b94505060206118468782880161176f565b93505060406118578782880161176f565b92505060606118688782880161176f565b91505092959194509250565b60008060006060848603121561188d5761188c611753565b5b600061189b8682870161176f565b93505060206118ac8682870161176f565b92505060406118bd8682870161176f565b9150509250925092565b6118d0816117d1565b81146118db57600080fd5b50565b6000813590506118ed816118c7565b92915050565b60006020828403121561190957611908611753565b5b6000611917848285016118de565b91505092915050565b600080fd5b60008190508260206003028201111561194157611940611920565b5b92915050565b6000806080838503121561195e5761195d611753565b5b600061196c85828601611925565b925050606061197d8582860161176f565b9150509250929050565b6000806040838503121561199e5761199d611753565b5b60006119ac8582860161176f565b92505060206119bd8582860161176f565b9150509250929050565b60006040820190506119dc6000830185611729565b6119e96020830184611729565b9392505050565b60008060808385031215611a0757611a06611753565b5b6000611a158582860161176f565b9250506020611a2685828601611925565b9150509250929050565b600060039050919050565b600081905092915050565b6000819050919050565b611a598161171f565b82525050565b6000611a6b8383611a50565b60208301905092915050565b6000602082019050919050565b611a8d81611a30565b611a978184611a3b565b9250611aa282611a46565b8060005b83811015611ad3578151611aba8782611a5f565b9650611ac583611a77565b925050600181019050611aa6565b505050505050565b6000606082019050611af06000830184611a84565b92915050565b600082825260208201905092915050565b7f69203d206a000000000000000000000000000000000000000000000000000000600082015250565b6000611b3d600583611af6565b9150611b4882611b07565b602082019050919050565b60006020820190508181036000830152611b6c81611b30565b9050919050565b7f4e487b7100000000000000000000000000000000000000000000000000000000600052603260045260246000fd5b6000606082019050611bb760008301866117e3565b611bc460208301856117e3565b611bd16040830184611729565b949350505050565b60008115159050919050565b611bee81611bd9565b8114611bf957600080fd5b50565b600081519050611c0b81611be5565b92915050565b600060208284031215611c2757611c26611753565b5b6000611c3584828501611bfc565b91505092915050565b7f4e487b7100000000000000000000000000000000000000000000000000000000600052601160045260246000fd5b6000611c788261171f565b9150611c838361171f565b9250828202611c918161171f565b91508282048414831517611ca857611ca7611c3e565b5b5092915050565b6000611cba8261171f565b9150611cc58361171f565b9250828201905080821115611cdd57611cdc611c3e565b5b92915050565b6000611cee8261171f565b9150611cf98361171f565b9250828203905081811115611d1157611d10611c3e565b5b92915050565b7f4e487b7100000000000000000000000000000000000000000000000000000000600052601260045260246000fd5b6000611d518261171f565b9150611d5c8361171f565b925082611d6c57611d6b611d17565b5b828204905092915050565b7f6479203c206d696e000000000000000000000000000000000000000000000000600082015250565b6000611dad600883611af6565b9150611db882611d77565b602082019050919050565b60006020820190508181036000830152611ddc81611da0565b9050919050565b6000604082019050611df860008301856117e3565b611e056020830184611729565b9392505050565b7f6f7574203c206d696e0000000000000000000000000000000000000000000000600082015250565b6000611e42600983611af6565b9150611e4d82611e0c565b602082019050919050565b60006020820190508181036000830152611e7181611e35565b9050919050565b6000611e838261171f565b91507fffffffffffffffffffffffffffffffffffffffffffffffffffffffffffffffff8203611eb557611eb4611c3e565b5b600182019050919050565b7f6c6971756964697479206469646e277420696e63726561736500000000000000600082015250565b6000611ef6601983611af6565b9150611f0182611ec0565b602082019050919050565b60006020820190508181036000830152611f2581611ee9565b9050919050565b7f736861726573203c206d696e0000000000000000000000000000000000000000600082015250565b6000611f62600c83611af6565b9150611f6d82611f2c565b602082019050919050565b60006020820190508181036000830152611f9181611f55565b9050919050565b60008160011c9050919050565b6000808291508390505b6001851115611fef57808604811115611fcb57611fca611c3e565b5b6001851615611fda5780820291505b8081029050611fe885611f98565b9450611faf565b94509492505050565b60008261200857600190506120c4565b8161201657600090506120c4565b816001811461202c576002811461203657612065565b60019150506120c4565b60ff84111561204857612047611c3e565b5b8360020a91508482111561205f5761205e611c3e565b5b506120c4565b5060208310610133831016604e8410600b841016171561209a5782820a90508381111561209557612094611c3e565b5b6120c4565b6120a78484846001611fa5565b925090508184048111156120be576120bd611c3e565b5b81810290505b9392505050565b60006120d68261171f565b91506120e18361171f565b925061210e7fffffffffffffffffffffffffffffffffffffffffffffffffffffffffffffffff8484611ff8565b905092915050565b7f79206469646e277420636f6e7665726765000000000000000000000000000000600082015250565b600061214c601183611af6565b915061215782612116565b602082019050919050565b6000602082019050818103600083015261217b8161213f565b9050919050565b7f44206469646e277420636f6e7665726765000000000000000000000000000000600082015250565b60006121b8601183611af6565b91506121c382612182565b602082019050919050565b600060208201905081810360008301526121e7816121ab565b905091905056fea2646970667358221220344626e5fd1c182c9325dfce1cbf4aaba2b4d865caa9f7b886c8aba366565e0e64736f6c63430008110033",
					"opcodes": "PUSH1 0x80 PUSH1 0x40 MSTORE PUSH1 0x40 MLOAD DUP1 PUSH1 0x60 ADD PUSH1 0x40 MSTORE DUP1 PUSH1 0x1 PUSH5 0xFFFFFFFFFF AND DUP2 MSTORE PUSH1 0x20 ADD PUSH5 0xE8D4A51000 PUSH5 0xFFFFFFFFFF AND DUP2 MSTORE PUSH1 0x20 ADD PUSH5 0xE8D4A51000 PUSH5 0xFFFFFFFFFF AND DUP2 MSTORE POP PUSH1 0x3 SWAP1 PUSH1 0x3 PUSH3 0x51 SWAP3 SWAP2 SWAP1 PUSH3 0x66 JUMP JUMPDEST POP CALLVALUE DUP1 ISZERO PUSH3 0x5F JUMPI PUSH1 0x0 DUP1 REVERT JUMPDEST POP PUSH3 0xD3 JUMP JUMPDEST DUP3 PUSH1 0x3 DUP2 ADD SWAP3 DUP3 ISZERO PUSH3 0xA1 JUMPI SWAP2 PUSH1 0x20 MUL DUP3 ADD JUMPDEST DUP3 DUP2 GT ISZERO PUSH3 0xA0 JUMPI DUP3 MLOAD DUP3 SWAP1 PUSH5 0xFFFFFFFFFF AND SWAP1 SSTORE SWAP2 PUSH1 0x20 ADD SWAP2 SWAP1 PUSH1 0x1 ADD SWAP1 PUSH3 0x7A JUMP JUMPDEST JUMPDEST POP SWAP1 POP PUSH3 0xB0 SWAP2 SWAP1 PUSH3 0xB4 JUMP JUMPDEST POP SWAP1 JUMP JUMPDEST JUMPDEST DUP1 DUP3 GT ISZERO PUSH3 0xCF JUMPI PUSH1 0x0 DUP2 PUSH1 0x0 SWAP1 SSTORE POP PUSH1 0x1 ADD PUSH3 0xB5 JUMP JUMPDEST POP SWAP1 JUMP JUMPDEST PUSH2 0x2224 DUP1 PUSH3 0xE3 PUSH1 0x0 CODECOPY PUSH1 0x0 RETURN INVALID PUSH1 0x80 PUSH1 0x40 MSTORE CALLVALUE DUP1 ISZERO PUSH2 0x10 JUMPI PUSH1 0x0 DUP1 REVERT JUMPDEST POP PUSH1 0x4 CALLDATASIZE LT PUSH2 0x9E JUMPI PUSH1 0x0 CALLDATALOAD PUSH1 0xE0 SHR DUP1 PUSH4 0x70A08231 GT PUSH2 0x66 JUMPI DUP1 PUSH4 0x70A08231 EQ PUSH2 0x181 JUMPI DUP1 PUSH4 0xA4BF0446 EQ PUSH2 0x1B1 JUMPI DUP1 PUSH4 0xA60DC3B1 EQ PUSH2 0x1E1 JUMPI DUP1 PUSH4 0xD035862C EQ PUSH2 0x212 JUMPI DUP1 PUSH4 0xE25AA5FA EQ PUSH2 0x242 JUMPI PUSH2 0x9E JUMP JUMPDEST DUP1 PUSH4 0x18160DDD EQ PUSH2 0xA3 JUMPI DUP1 PUSH4 0x4903B0D1 EQ PUSH2 0xC1 JUMPI DUP1 PUSH4 0x4F64B2BE EQ PUSH2 0xF1 JUMPI DUP1 PUSH4 0x5673B02D EQ PUSH2 0x121 JUMPI DUP1 PUSH4 0x7066B5B2 EQ PUSH2 0x151 JUMPI JUMPDEST PUSH1 0x0 DUP1 REVERT JUMPDEST PUSH2 0xAB PUSH2 0x260 JUMP JUMPDEST PUSH1 0x40 MLOAD PUSH2 0xB8 SWAP2 SWAP1 PUSH2 0x1738 JUMP JUMPDEST PUSH1 0x40 MLOAD DUP1 SWAP2 SUB SWAP1 RETURN JUMPDEST PUSH2 0xDB PUSH1 0x4 DUP1 CALLDATASIZE SUB DUP2 ADD SWAP1 PUSH2 0xD6 SWAP2 SWAP1 PUSH2 0x1784 JUMP JUMPDEST PUSH2 0x266 JUMP JUMPDEST PUSH1 0x40 MLOAD PUSH2 0xE8 SWAP2 SWAP1 PUSH2 0x1738 JUMP JUMPDEST PUSH1 0x40 MLOAD DUP1 SWAP2 SUB SWAP1 RETURN JUMPDEST PUSH2 0x10B PUSH1 0x4 DUP1 CALLDATASIZE SUB DUP2 ADD SWAP1 PUSH2 0x106 SWAP2 SWAP1 PUSH2 0x1784 JUMP JUMPDEST PUSH2 0x281 JUMP JUMPDEST PUSH1 0x40 MLOAD PUSH2 0x118 SWAP2 SWAP1 PUSH2 0x17F2 JUMP JUMPDEST PUSH1 0x40 MLOAD DUP1 SWAP2 SUB SWAP1 RETURN JUMPDEST PUSH2 0x13B PUSH1 0x4 DUP1 CALLDATASIZE SUB DUP2 ADD SWAP1 PUSH2 0x136 SWAP2 SWAP1 PUSH2 0x180D JUMP JUMPDEST PUSH2 0x2B7 JUMP JUMPDEST PUSH1 0x40 MLOAD PUSH2 0x148 SWAP2 SWAP1 PUSH2 0x1738 JUMP JUMPDEST PUSH1 0x40 MLOAD DUP1 SWAP2 SUB SWAP1 RETURN JUMPDEST PUSH2 0x16B PUSH1 0x4 DUP1 CALLDATASIZE SUB DUP2 ADD SWAP1 PUSH2 0x166 SWAP2 SWAP1 PUSH2 0x1874 JUMP JUMPDEST PUSH2 0x5F4 JUMP JUMPDEST PUSH1 0x40 MLOAD PUSH2 0x178 SWAP2 SWAP1 PUSH2 0x1738 JUMP JUMPDEST PUSH1 0x40 MLOAD DUP1 SWAP2 SUB SWAP1 RETURN JUMPDEST PUSH2 0x19B PUSH1 0x4 DUP1 CALLDATASIZE SUB DUP2 ADD SWAP1 PUSH2 0x196 SWAP2 SWAP1 PUSH2 0x18F3 JUMP JUMPDEST PUSH2 0x739 JUMP JUMPDEST PUSH1 0x40 MLOAD PUSH2 0x1A8 SWAP2 SWAP1 PUSH2 0x1738 JUMP JUMPDEST PUSH1 0x40 MLOAD DUP1 SWAP2 SUB SWAP1 RETURN JUMPDEST PUSH2 0x1CB PUSH1 0x4 DUP1 CALLDATASIZE SUB DUP2 ADD SWAP1 PUSH2 0x1C6 SWAP2 SWAP1 PUSH2 0x1947 JUMP JUMPDEST PUSH2 0x751 JUMP JUMPDEST PUSH1 0x40 MLOAD PUSH2 0x1D8 SWAP2 SWAP1 PUSH2 0x1738 JUMP JUMPDEST PUSH1 0x40 MLOAD DUP1 SWAP2 SUB SWAP1 RETURN JUMPDEST PUSH2 0x1FB PUSH1 0x4 DUP1 CALLDATASIZE SUB DUP2 ADD SWAP1 PUSH2 0x1F6 SWAP2 SWAP1 PUSH2 0x1987 JUMP JUMPDEST PUSH2 0xB61 JUMP JUMPDEST PUSH1 0x40 MLOAD PUSH2 0x209 SWAP3 SWAP2 SWAP1 PUSH2 0x19C7 JUMP JUMPDEST PUSH1 0x40 MLOAD DUP1 SWAP2 SUB SWAP1 RETURN JUMPDEST PUSH2 0x22C PUSH1 0x4 DUP1 CALLDATASIZE SUB DUP2 ADD SWAP1 PUSH2 0x227 SWAP2 SWAP1 PUSH2 0x19F0 JUMP JUMPDEST PUSH2 0xB79 JUMP JUMPDEST PUSH1 0x40 MLOAD PUSH2 0x239 SWAP2 SWAP1 PUSH2 0x1ADB JUMP JUMPDEST PUSH1 0x40 MLOAD DUP1 SWAP2 SUB SWAP1 RETURN JUMPDEST PUSH2 0x24A PUSH2 0xD3F JUMP JUMPDEST PUSH1 0x40 MLOAD PUSH2 0x257 SWAP2 SWAP1 PUSH2 0x1738 JUMP JUMPDEST PUSH1 0x40 MLOAD DUP1 SWAP2 SUB SWAP1 RETURN JUMPDEST PUSH1 0x9 SLOAD DUP2 JUMP JUMPDEST PUSH1 0x6 DUP2 PUSH1 0x3 DUP2 LT PUSH2 0x276 JUMPI PUSH1 0x0 DUP1 REVERT JUMPDEST ADD PUSH1 0x0 SWAP2 POP SWAP1 POP SLOAD DUP2 JUMP JUMPDEST PUSH1 0x0 DUP2 PUSH1 0x3 DUP2 LT PUSH2 0x291 JUMPI PUSH1 0x0 DUP1 REVERT JUMPDEST ADD PUSH1 0x0 SWAP2 POP SLOAD SWAP1 PUSH2 0x100 EXP SWAP1 DIV PUSH20 0xFFFFFFFFFFFFFFFFFFFFFFFFFFFFFFFFFFFFFFFF AND DUP2 JUMP JUMPDEST PUSH1 0x0 DUP4 DUP6 SUB PUSH2 0x2FB JUMPI PUSH1 0x40 MLOAD PUSH32 0x8C379A000000000000000000000000000000000000000000000000000000000 DUP2 MSTORE PUSH1 0x4 ADD PUSH2 0x2F2 SWAP1 PUSH2 0x1B53 JUMP JUMPDEST PUSH1 0x40 MLOAD DUP1 SWAP2 SUB SWAP1 REVERT JUMPDEST PUSH1 0x0 DUP6 PUSH1 0x3 DUP2 LT PUSH2 0x30F JUMPI PUSH2 0x30E PUSH2 0x1B73 JUMP JUMPDEST JUMPDEST ADD PUSH1 0x0 SWAP1 SLOAD SWAP1 PUSH2 0x100 EXP SWAP1 DIV PUSH20 0xFFFFFFFFFFFFFFFFFFFFFFFFFFFFFFFFFFFFFFFF AND PUSH20 0xFFFFFFFFFFFFFFFFFFFFFFFFFFFFFFFFFFFFFFFF AND PUSH4 0x23B872DD CALLER ADDRESS DUP7 PUSH1 0x40 MLOAD DUP5 PUSH4 0xFFFFFFFF AND PUSH1 0xE0 SHL DUP2 MSTORE PUSH1 0x4 ADD PUSH2 0x36D SWAP4 SWAP3 SWAP2 SWAP1 PUSH2 0x1BA2 JUMP JUMPDEST PUSH1 0x20 PUSH1 0x40 MLOAD DUP1 DUP4 SUB DUP2 PUSH1 0x0 DUP8 GAS CALL ISZERO DUP1 ISZERO PUSH2 0x38C JUMPI RETURNDATASIZE PUSH1 0x0 DUP1 RETURNDATACOPY RETURNDATASIZE PUSH1 0x0 REVERT JUMPDEST POP POP POP POP PUSH1 0x40 MLOAD RETURNDATASIZE PUSH1 0x1F NOT PUSH1 0x1F DUP3 ADD AND DUP3 ADD DUP1 PUSH1 0x40 MSTORE POP DUP2 ADD SWAP1 PUSH2 0x3B0 SWAP2 SWAP1 PUSH2 0x1C11 JUMP JUMPDEST POP PUSH1 0x0 PUSH2 0x3BB PUSH2 0xD9B JUMP JUMPDEST SWAP1 POP PUSH1 0x0 PUSH1 0x3 DUP8 PUSH1 0x3 DUP2 LT PUSH2 0x3D3 JUMPI PUSH2 0x3D2 PUSH2 0x1B73 JUMP JUMPDEST JUMPDEST ADD SLOAD DUP6 PUSH2 0x3E0 SWAP2 SWAP1 PUSH2 0x1C6D JUMP JUMPDEST DUP3 DUP9 PUSH1 0x3 DUP2 LT PUSH2 0x3F3 JUMPI PUSH2 0x3F2 PUSH2 0x1B73 JUMP JUMPDEST JUMPDEST PUSH1 0x20 MUL ADD MLOAD PUSH2 0x402 SWAP2 SWAP1 PUSH2 0x1CAF JUMP JUMPDEST SWAP1 POP PUSH1 0x0 DUP3 DUP8 PUSH1 0x3 DUP2 LT PUSH2 0x419 JUMPI PUSH2 0x418 PUSH2 0x1B73 JUMP JUMPDEST JUMPDEST PUSH1 0x20 MUL ADD MLOAD SWAP1 POP PUSH1 0x0 PUSH2 0x42E DUP10 DUP10 DUP6 DUP8 PUSH2 0xE16 JUMP JUMPDEST SWAP1 POP PUSH1 0x3 DUP9 PUSH1 0x3 DUP2 LT PUSH2 0x444 JUMPI PUSH2 0x443 PUSH2 0x1B73 JUMP JUMPDEST JUMPDEST ADD SLOAD PUSH1 0x1 DUP3 DUP5 PUSH2 0x454 SWAP2 SWAP1 PUSH2 0x1CE3 JUMP JUMPDEST PUSH2 0x45E SWAP2 SWAP1 PUSH2 0x1CE3 JUMP JUMPDEST PUSH2 0x468 SWAP2 SWAP1 PUSH2 0x1D46 JUMP JUMPDEST SWAP5 POP PUSH1 0x0 PUSH3 0xF4240 PUSH2 0x12C DUP8 PUSH2 0x47E SWAP2 SWAP1 PUSH2 0x1C6D JUMP JUMPDEST PUSH2 0x488 SWAP2 SWAP1 PUSH2 0x1D46 JUMP JUMPDEST SWAP1 POP DUP1 DUP7 PUSH2 0x496 SWAP2 SWAP1 PUSH2 0x1CE3 JUMP JUMPDEST SWAP6 POP DUP7 DUP7 LT ISZERO PUSH2 0x4DB JUMPI PUSH1 0x40 MLOAD PUSH32 0x8C379A000000000000000000000000000000000000000000000000000000000 DUP2 MSTORE PUSH1 0x4 ADD PUSH2 0x4D2 SWAP1 PUSH2 0x1DC3 JUMP JUMPDEST PUSH1 0x40 MLOAD DUP1 SWAP2 SUB SWAP1 REVERT JUMPDEST DUP8 PUSH1 0x6 DUP12 PUSH1 0x3 DUP2 LT PUSH2 0x4F0 JUMPI PUSH2 0x4EF PUSH2 0x1B73 JUMP JUMPDEST JUMPDEST ADD PUSH1 0x0 DUP3 DUP3 SLOAD PUSH2 0x500 SWAP2 SWAP1 PUSH2 0x1CAF JUMP JUMPDEST SWAP3 POP POP DUP2 SWAP1 SSTORE POP DUP6 PUSH1 0x6 DUP11 PUSH1 0x3 DUP2 LT PUSH2 0x51C JUMPI PUSH2 0x51B PUSH2 0x1B73 JUMP JUMPDEST JUMPDEST ADD PUSH1 0x0 DUP3 DUP3 SLOAD PUSH2 0x52C SWAP2 SWAP1 PUSH2 0x1CE3 JUMP JUMPDEST SWAP3 POP POP DUP2 SWAP1 SSTORE POP PUSH1 0x0 DUP10 PUSH1 0x3 DUP2 LT PUSH2 0x547 JUMPI PUSH2 0x546 PUSH2 0x1B73 JUMP JUMPDEST JUMPDEST ADD PUSH1 0x0 SWAP1 SLOAD SWAP1 PUSH2 0x100 EXP SWAP1 DIV PUSH20 0xFFFFFFFFFFFFFFFFFFFFFFFFFFFFFFFFFFFFFFFF AND PUSH20 0xFFFFFFFFFFFFFFFFFFFFFFFFFFFFFFFFFFFFFFFF AND PUSH4 0xA9059CBB CALLER DUP9 PUSH1 0x40 MLOAD DUP4 PUSH4 0xFFFFFFFF AND PUSH1 0xE0 SHL DUP2 MSTORE PUSH1 0x4 ADD PUSH2 0x5A3 SWAP3 SWAP2 SWAP1 PUSH2 0x1DE3 JUMP JUMPDEST PUSH1 0x20 PUSH1 0x40 MLOAD DUP1 DUP4 SUB DUP2 PUSH1 0x0 DUP8 GAS CALL ISZERO DUP1 ISZERO PUSH2 0x5C2 JUMPI RETURNDATASIZE PUSH1 0x0 DUP1 RETURNDATACOPY RETURNDATASIZE PUSH1 0x0 REVERT JUMPDEST POP POP POP POP PUSH1 0x40 MLOAD RETURNDATASIZE PUSH1 0x1F NOT PUSH1 0x1F DUP3 ADD AND DUP3 ADD DUP1 PUSH1 0x40 MSTORE POP DUP2 ADD SWAP1 PUSH2 0x5E6 SWAP2 SWAP1 PUSH2 0x1C11 JUMP JUMPDEST POP POP POP POP POP POP SWAP5 SWAP4 POP POP POP POP JUMP JUMPDEST PUSH1 0x0 PUSH2 0x600 DUP5 DUP5 PUSH2 0xFF8 JUMP JUMPDEST POP DUP1 SWAP2 POP POP DUP2 DUP2 LT ISZERO PUSH2 0x648 JUMPI PUSH1 0x40 MLOAD PUSH32 0x8C379A000000000000000000000000000000000000000000000000000000000 DUP2 MSTORE PUSH1 0x4 ADD PUSH2 0x63F SWAP1 PUSH2 0x1E58 JUMP JUMPDEST PUSH1 0x40 MLOAD DUP1 SWAP2 SUB SWAP1 REVERT JUMPDEST DUP1 PUSH1 0x6 DUP5 PUSH1 0x3 DUP2 LT PUSH2 0x65D JUMPI PUSH2 0x65C PUSH2 0x1B73 JUMP JUMPDEST JUMPDEST ADD PUSH1 0x0 DUP3 DUP3 SLOAD PUSH2 0x66D SWAP2 SWAP1 PUSH2 0x1CE3 JUMP JUMPDEST SWAP3 POP POP DUP2 SWAP1 SSTORE POP PUSH2 0x67E CALLER DUP6 PUSH2 0x1244 JUMP JUMPDEST PUSH1 0x0 DUP4 PUSH1 0x3 DUP2 LT PUSH2 0x692 JUMPI PUSH2 0x691 PUSH2 0x1B73 JUMP JUMPDEST JUMPDEST ADD PUSH1 0x0 SWAP1 SLOAD SWAP1 PUSH2 0x100 EXP SWAP1 DIV PUSH20 0xFFFFFFFFFFFFFFFFFFFFFFFFFFFFFFFFFFFFFFFF AND PUSH20 0xFFFFFFFFFFFFFFFFFFFFFFFFFFFFFFFFFFFFFFFF AND PUSH4 0xA9059CBB CALLER DUP4 PUSH1 0x40 MLOAD DUP4 PUSH4 0xFFFFFFFF AND PUSH1 0xE0 SHL DUP2 MSTORE PUSH1 0x4 ADD PUSH2 0x6EE SWAP3 SWAP2 SWAP1 PUSH2 0x1DE3 JUMP JUMPDEST PUSH1 0x20 PUSH1 0x40 MLOAD DUP1 DUP4 SUB DUP2 PUSH1 0x0 DUP8 GAS CALL ISZERO DUP1 ISZERO PUSH2 0x70D JUMPI RETURNDATASIZE PUSH1 0x0 DUP1 RETURNDATACOPY RETURNDATASIZE PUSH1 0x0 REVERT JUMPDEST POP POP POP POP PUSH1 0x40 MLOAD RETURNDATASIZE PUSH1 0x1F NOT PUSH1 0x1F DUP3 ADD AND DUP3 ADD DUP1 PUSH1 0x40 MSTORE POP DUP2 ADD SWAP1 PUSH2 0x731 SWAP2 SWAP1 PUSH2 0x1C11 JUMP JUMPDEST POP SWAP4 SWAP3 POP POP POP JUMP JUMPDEST PUSH1 0xA PUSH1 0x20 MSTORE DUP1 PUSH1 0x0 MSTORE PUSH1 0x40 PUSH1 0x0 KECCAK256 PUSH1 0x0 SWAP2 POP SWAP1 POP SLOAD DUP2 JUMP JUMPDEST PUSH1 0x0 DUP1 PUSH1 0x9 SLOAD SWAP1 POP PUSH1 0x0 DUP1 PUSH2 0x764 PUSH2 0xD9B JUMP JUMPDEST SWAP1 POP PUSH1 0x0 DUP4 GT ISZERO PUSH2 0x77B JUMPI PUSH2 0x778 DUP2 PUSH2 0x12B7 JUMP JUMPDEST SWAP2 POP JUMPDEST PUSH2 0x783 PUSH2 0x16FD JUMP JUMPDEST PUSH1 0x0 JUMPDEST PUSH1 0x3 DUP2 LT ISZERO PUSH2 0x915 JUMPI PUSH1 0x0 DUP9 DUP3 PUSH1 0x3 DUP2 LT PUSH2 0x7A4 JUMPI PUSH2 0x7A3 PUSH2 0x1B73 JUMP JUMPDEST JUMPDEST PUSH1 0x20 MUL ADD CALLDATALOAD SWAP1 POP PUSH1 0x0 DUP2 GT ISZERO PUSH2 0x8CE JUMPI PUSH1 0x0 DUP3 PUSH1 0x3 DUP2 LT PUSH2 0x7C8 JUMPI PUSH2 0x7C7 PUSH2 0x1B73 JUMP JUMPDEST JUMPDEST ADD PUSH1 0x0 SWAP1 SLOAD SWAP1 PUSH2 0x100 EXP SWAP1 DIV PUSH20 0xFFFFFFFFFFFFFFFFFFFFFFFFFFFFFFFFFFFFFFFF AND PUSH20 0xFFFFFFFFFFFFFFFFFFFFFFFFFFFFFFFFFFFFFFFF AND PUSH4 0x23B872DD CALLER ADDRESS DUP5 PUSH1 0x40 MLOAD DUP5 PUSH4 0xFFFFFFFF AND PUSH1 0xE0 SHL DUP2 MSTORE PUSH1 0x4 ADD PUSH2 0x826 SWAP4 SWAP3 SWAP2 SWAP1 PUSH2 0x1BA2 JUMP JUMPDEST PUSH1 0x20 PUSH1 0x40 MLOAD DUP1 DUP4 SUB DUP2 PUSH1 0x0 DUP8 GAS CALL ISZERO DUP1 ISZERO PUSH2 0x845 JUMPI RETURNDATASIZE PUSH1 0x0 DUP1 RETURNDATACOPY RETURNDATASIZE PUSH1 0x0 REVERT JUMPDEST POP POP POP POP PUSH1 0x40 MLOAD RETURNDATASIZE PUSH1 0x1F NOT PUSH1 0x1F DUP3 ADD AND DUP3 ADD DUP1 PUSH1 0x40 MSTORE POP DUP2 ADD SWAP1 PUSH2 0x869 SWAP2 SWAP1 PUSH2 0x1C11 JUMP JUMPDEST POP PUSH1 0x3 DUP3 PUSH1 0x3 DUP2 LT PUSH2 0x87E JUMPI PUSH2 0x87D PUSH2 0x1B73 JUMP JUMPDEST JUMPDEST ADD SLOAD DUP2 PUSH2 0x88B SWAP2 SWAP1 PUSH2 0x1C6D JUMP JUMPDEST DUP5 DUP4 PUSH1 0x3 DUP2 LT PUSH2 0x89E JUMPI PUSH2 0x89D PUSH2 0x1B73 JUMP JUMPDEST JUMPDEST PUSH1 0x20 MUL ADD MLOAD PUSH2 0x8AD SWAP2 SWAP1 PUSH2 0x1CAF JUMP JUMPDEST DUP4 DUP4 PUSH1 0x3 DUP2 LT PUSH2 0x8C0 JUMPI PUSH2 0x8BF PUSH2 0x1B73 JUMP JUMPDEST JUMPDEST PUSH1 0x20 MUL ADD DUP2 DUP2 MSTORE POP POP PUSH2 0x903 JUMP JUMPDEST DUP4 DUP3 PUSH1 0x3 DUP2 LT PUSH2 0x8E1 JUMPI PUSH2 0x8E0 PUSH2 0x1B73 JUMP JUMPDEST JUMPDEST PUSH1 0x20 MUL ADD MLOAD DUP4 DUP4 PUSH1 0x3 DUP2 LT PUSH2 0x8F9 JUMPI PUSH2 0x8F8 PUSH2 0x1B73 JUMP JUMPDEST JUMPDEST PUSH1 0x20 MUL ADD DUP2 DUP2 MSTORE POP POP JUMPDEST POP DUP1 PUSH2 0x90E SWAP1 PUSH2 0x1E78 JUMP JUMPDEST SWAP1 POP PUSH2 0x786 JUMP JUMPDEST POP PUSH1 0x0 PUSH2 0x921 DUP3 PUSH2 0x12B7 JUMP JUMPDEST SWAP1 POP DUP4 DUP2 GT PUSH2 0x965 JUMPI PUSH1 0x40 MLOAD PUSH32 0x8C379A000000000000000000000000000000000000000000000000000000000 DUP2 MSTORE PUSH1 0x4 ADD PUSH2 0x95C SWAP1 PUSH2 0x1F0C JUMP JUMPDEST PUSH1 0x40 MLOAD DUP1 SWAP2 SUB SWAP1 REVERT JUMPDEST PUSH1 0x0 DUP1 DUP7 GT ISZERO PUSH2 0xA6D JUMPI PUSH1 0x0 JUMPDEST PUSH1 0x3 DUP2 LT ISZERO PUSH2 0xA5C JUMPI PUSH1 0x0 DUP7 DUP5 DUP8 DUP5 PUSH1 0x3 DUP2 LT PUSH2 0x992 JUMPI PUSH2 0x991 PUSH2 0x1B73 JUMP JUMPDEST JUMPDEST PUSH1 0x20 MUL ADD MLOAD PUSH2 0x9A1 SWAP2 SWAP1 PUSH2 0x1C6D JUMP JUMPDEST PUSH2 0x9AB SWAP2 SWAP1 PUSH2 0x1D46 JUMP JUMPDEST SWAP1 POP PUSH1 0x0 PUSH2 0x9D0 DUP7 DUP5 PUSH1 0x3 DUP2 LT PUSH2 0x9C5 JUMPI PUSH2 0x9C4 PUSH2 0x1B73 JUMP JUMPDEST JUMPDEST PUSH1 0x20 MUL ADD MLOAD DUP4 PUSH2 0x148E JUMP JUMPDEST SWAP1 POP PUSH3 0xF4240 DUP2 PUSH1 0x1 PUSH1 0x3 PUSH2 0x9E5 SWAP2 SWAP1 PUSH2 0x1CE3 JUMP JUMPDEST PUSH1 0x4 PUSH2 0x9F1 SWAP2 SWAP1 PUSH2 0x1C6D JUMP JUMPDEST PUSH1 0x3 PUSH2 0x12C PUSH2 0xA00 SWAP2 SWAP1 PUSH2 0x1C6D JUMP JUMPDEST PUSH2 0xA0A SWAP2 SWAP1 PUSH2 0x1D46 JUMP JUMPDEST PUSH2 0xA14 SWAP2 SWAP1 PUSH2 0x1C6D JUMP JUMPDEST PUSH2 0xA1E SWAP2 SWAP1 PUSH2 0x1D46 JUMP JUMPDEST DUP7 DUP5 PUSH1 0x3 DUP2 LT PUSH2 0xA31 JUMPI PUSH2 0xA30 PUSH2 0x1B73 JUMP JUMPDEST JUMPDEST PUSH1 0x20 MUL ADD DUP2 DUP2 MLOAD PUSH2 0xA42 SWAP2 SWAP1 PUSH2 0x1CE3 JUMP JUMPDEST SWAP2 POP DUP2 DUP2 MSTORE POP POP POP POP DUP1 PUSH2 0xA55 SWAP1 PUSH2 0x1E78 JUMP JUMPDEST SWAP1 POP PUSH2 0x972 JUMP JUMPDEST POP PUSH2 0xA66 DUP4 PUSH2 0x12B7 JUMP JUMPDEST SWAP1 POP PUSH2 0xA71 JUMP JUMPDEST DUP2 SWAP1 POP JUMPDEST PUSH1 0x0 JUMPDEST PUSH1 0x3 DUP2 LT ISZERO PUSH2 0xAD1 JUMPI DUP10 DUP2 PUSH1 0x3 DUP2 LT PUSH2 0xA90 JUMPI PUSH2 0xA8F PUSH2 0x1B73 JUMP JUMPDEST JUMPDEST PUSH1 0x20 MUL ADD CALLDATALOAD PUSH1 0x6 DUP3 PUSH1 0x3 DUP2 LT PUSH2 0xAA9 JUMPI PUSH2 0xAA8 PUSH2 0x1B73 JUMP JUMPDEST JUMPDEST ADD PUSH1 0x0 DUP3 DUP3 SLOAD PUSH2 0xAB9 SWAP2 SWAP1 PUSH2 0x1CAF JUMP JUMPDEST SWAP3 POP POP DUP2 SWAP1 SSTORE POP DUP1 PUSH2 0xACA SWAP1 PUSH2 0x1E78 JUMP JUMPDEST SWAP1 POP PUSH2 0xA74 JUMP JUMPDEST POP PUSH1 0x0 DUP7 GT ISZERO PUSH2 0xB04 JUMPI DUP5 DUP7 DUP7 DUP4 PUSH2 0xAE9 SWAP2 SWAP1 PUSH2 0x1CE3 JUMP JUMPDEST PUSH2 0xAF3 SWAP2 SWAP1 PUSH2 0x1C6D JUMP JUMPDEST PUSH2 0xAFD SWAP2 SWAP1 PUSH2 0x1D46 JUMP JUMPDEST SWAP7 POP PUSH2 0xB08 JUMP JUMPDEST DUP1 SWAP7 POP JUMPDEST DUP8 DUP8 LT ISZERO PUSH2 0xB4B JUMPI PUSH1 0x40 MLOAD PUSH32 0x8C379A000000000000000000000000000000000000000000000000000000000 DUP2 MSTORE PUSH1 0x4 ADD PUSH2 0xB42 SWAP1 PUSH2 0x1F78 JUMP JUMPDEST PUSH1 0x40 MLOAD DUP1 SWAP2 SUB SWAP1 REVERT JUMPDEST PUSH2 0xB55 CALLER DUP9 PUSH2 0x14BE JUMP JUMPDEST POP POP POP POP POP POP SWAP3 SWAP2 POP POP JUMP JUMPDEST PUSH1 0x0 DUP1 PUSH2 0xB6E DUP5 DUP5 PUSH2 0xFF8 JUMP JUMPDEST SWAP2 POP SWAP2 POP SWAP3 POP SWAP3 SWAP1 POP JUMP JUMPDEST PUSH2 0xB81 PUSH2 0x16FD JUMP JUMPDEST PUSH1 0x0 PUSH1 0x9 SLOAD SWAP1 POP PUSH1 0x0 JUMPDEST PUSH1 0x3 DUP2 LT ISZERO PUSH2 0xD2D JUMPI PUSH1 0x0 DUP3 DUP7 PUSH1 0x6 DUP5 PUSH1 0x3 DUP2 LT PUSH2 0xBAC JUMPI PUSH2 0xBAB PUSH2 0x1B73 JUMP JUMPDEST JUMPDEST ADD SLOAD PUSH2 0xBB8 SWAP2 SWAP1 PUSH2 0x1C6D JUMP JUMPDEST PUSH2 0xBC2 SWAP2 SWAP1 PUSH2 0x1D46 JUMP JUMPDEST SWAP1 POP DUP5 DUP3 PUSH1 0x3 DUP2 LT PUSH2 0xBD7 JUMPI PUSH2 0xBD6 PUSH2 0x1B73 JUMP JUMPDEST JUMPDEST PUSH1 0x20 MUL ADD CALLDATALOAD DUP2 LT ISZERO PUSH2 0xC1E JUMPI PUSH1 0x40 MLOAD PUSH32 0x8C379A000000000000000000000000000000000000000000000000000000000 DUP2 MSTORE PUSH1 0x4 ADD PUSH2 0xC15 SWAP1 PUSH2 0x1E58 JUMP JUMPDEST PUSH1 0x40 MLOAD DUP1 SWAP2 SUB SWAP1 REVERT JUMPDEST DUP1 PUSH1 0x6 DUP4 PUSH1 0x3 DUP2 LT PUSH2 0xC33 JUMPI PUSH2 0xC32 PUSH2 0x1B73 JUMP JUMPDEST JUMPDEST ADD PUSH1 0x0 DUP3 DUP3 SLOAD PUSH2 0xC43 SWAP2 SWAP1 PUSH2 0x1CE3 JUMP JUMPDEST SWAP3 POP POP DUP2 SWAP1 SSTORE POP DUP1 DUP5 DUP4 PUSH1 0x3 DUP2 LT PUSH2 0xC5E JUMPI PUSH2 0xC5D PUSH2 0x1B73 JUMP JUMPDEST JUMPDEST PUSH1 0x20 MUL ADD DUP2 DUP2 MSTORE POP POP PUSH1 0x0 DUP3 PUSH1 0x3 DUP2 LT PUSH2 0xC7B JUMPI PUSH2 0xC7A PUSH2 0x1B73 JUMP JUMPDEST JUMPDEST ADD PUSH1 0x0 SWAP1 SLOAD SWAP1 PUSH2 0x100 EXP SWAP1 DIV PUSH20 0xFFFFFFFFFFFFFFFFFFFFFFFFFFFFFFFFFFFFFFFF AND PUSH20 0xFFFFFFFFFFFFFFFFFFFFFFFFFFFFFFFFFFFFFFFF AND PUSH4 0xA9059CBB CALLER DUP4 PUSH1 0x40 MLOAD DUP4 PUSH4 0xFFFFFFFF AND PUSH1 0xE0 SHL DUP2 MSTORE PUSH1 0x4 ADD PUSH2 0xCD7 SWAP3 SWAP2 SWAP1 PUSH2 0x1DE3 JUMP JUMPDEST PUSH1 0x20 PUSH1 0x40 MLOAD DUP1 DUP4 SUB DUP2 PUSH1 0x0 DUP8 GAS CALL ISZERO DUP1 ISZERO PUSH2 0xCF6 JUMPI RETURNDATASIZE PUSH1 0x0 DUP1 RETURNDATACOPY RETURNDATASIZE PUSH1 0x0 REVERT JUMPDEST POP POP POP POP PUSH1 0x40 MLOAD RETURNDATASIZE PUSH1 0x1F NOT PUSH1 0x1F DUP3 ADD AND DUP3 ADD DUP1 PUSH1 0x40 MSTORE POP DUP2 ADD SWAP1 PUSH2 0xD1A SWAP2 SWAP1 PUSH2 0x1C11 JUMP JUMPDEST POP POP DUP1 PUSH2 0xD26 SWAP1 PUSH2 0x1E78 JUMP JUMPDEST SWAP1 POP PUSH2 0xB8B JUMP JUMPDEST POP PUSH2 0xD38 CALLER DUP6 PUSH2 0x1244 JUMP JUMPDEST POP SWAP3 SWAP2 POP POP JUMP JUMPDEST PUSH1 0x0 DUP1 PUSH2 0xD52 PUSH2 0xD4D PUSH2 0xD9B JUMP JUMPDEST PUSH2 0x12B7 JUMP JUMPDEST SWAP1 POP PUSH1 0x0 PUSH1 0x9 SLOAD SWAP1 POP PUSH1 0x0 DUP2 GT ISZERO PUSH2 0xD91 JUMPI DUP1 PUSH1 0x12 PUSH1 0xA PUSH2 0xD73 SWAP2 SWAP1 PUSH2 0x20CB JUMP JUMPDEST DUP4 PUSH2 0xD7E SWAP2 SWAP1 PUSH2 0x1C6D JUMP JUMPDEST PUSH2 0xD88 SWAP2 SWAP1 PUSH2 0x1D46 JUMP JUMPDEST SWAP3 POP POP POP PUSH2 0xD98 JUMP JUMPDEST PUSH1 0x0 SWAP3 POP POP POP JUMPDEST SWAP1 JUMP JUMPDEST PUSH2 0xDA3 PUSH2 0x16FD JUMP JUMPDEST PUSH1 0x0 JUMPDEST PUSH1 0x3 DUP2 LT ISZERO PUSH2 0xE12 JUMPI PUSH1 0x3 DUP2 PUSH1 0x3 DUP2 LT PUSH2 0xDC3 JUMPI PUSH2 0xDC2 PUSH2 0x1B73 JUMP JUMPDEST JUMPDEST ADD SLOAD PUSH1 0x6 DUP3 PUSH1 0x3 DUP2 LT PUSH2 0xDD9 JUMPI PUSH2 0xDD8 PUSH2 0x1B73 JUMP JUMPDEST JUMPDEST ADD SLOAD PUSH2 0xDE5 SWAP2 SWAP1 PUSH2 0x1C6D JUMP JUMPDEST DUP3 DUP3 PUSH1 0x3 DUP2 LT PUSH2 0xDF8 JUMPI PUSH2 0xDF7 PUSH2 0x1B73 JUMP JUMPDEST JUMPDEST PUSH1 0x20 MUL ADD DUP2 DUP2 MSTORE POP POP DUP1 PUSH2 0xE0B SWAP1 PUSH2 0x1E78 JUMP JUMPDEST SWAP1 POP PUSH2 0xDA6 JUMP JUMPDEST POP SWAP1 JUMP JUMPDEST PUSH1 0x0 DUP1 PUSH1 0x3 PUSH1 0x1 PUSH1 0x3 PUSH2 0xE29 SWAP2 SWAP1 PUSH2 0x1CE3 JUMP JUMPDEST PUSH1 0x3 PUSH2 0xE35 SWAP2 SWAP1 PUSH2 0x20CB JUMP JUMPDEST PUSH2 0x3E8 PUSH2 0xE42 SWAP2 SWAP1 PUSH2 0x1C6D JUMP JUMPDEST PUSH2 0xE4C SWAP2 SWAP1 PUSH2 0x1C6D JUMP JUMPDEST SWAP1 POP PUSH1 0x0 PUSH2 0xE59 DUP5 PUSH2 0x12B7 JUMP JUMPDEST SWAP1 POP PUSH1 0x0 DUP1 DUP3 SWAP1 POP PUSH1 0x0 DUP1 JUMPDEST PUSH1 0x3 DUP2 LT ISZERO PUSH2 0xEE5 JUMPI DUP11 DUP2 SUB PUSH2 0xE7D JUMPI DUP9 SWAP2 POP PUSH2 0xEA0 JUMP JUMPDEST DUP10 DUP2 SUB ISZERO PUSH2 0xED4 JUMPI DUP8 DUP2 PUSH1 0x3 DUP2 LT PUSH2 0xE98 JUMPI PUSH2 0xE97 PUSH2 0x1B73 JUMP JUMPDEST JUMPDEST PUSH1 0x20 MUL ADD MLOAD SWAP2 POP JUMPDEST DUP2 DUP5 PUSH2 0xEAC SWAP2 SWAP1 PUSH2 0x1CAF JUMP JUMPDEST SWAP4 POP DUP2 PUSH1 0x3 PUSH2 0xEBB SWAP2 SWAP1 PUSH2 0x1C6D JUMP JUMPDEST DUP6 DUP5 PUSH2 0xEC7 SWAP2 SWAP1 PUSH2 0x1C6D JUMP JUMPDEST PUSH2 0xED1 SWAP2 SWAP1 PUSH2 0x1D46 JUMP JUMPDEST SWAP3 POP JUMPDEST DUP1 PUSH2 0xEDE SWAP1 PUSH2 0x1E78 JUMP JUMPDEST SWAP1 POP PUSH2 0xE65 JUMP JUMPDEST POP DUP5 PUSH1 0x3 PUSH2 0xEF3 SWAP2 SWAP1 PUSH2 0x1C6D JUMP JUMPDEST DUP5 DUP4 PUSH2 0xEFF SWAP2 SWAP1 PUSH2 0x1C6D JUMP JUMPDEST PUSH2 0xF09 SWAP2 SWAP1 PUSH2 0x1D46 JUMP JUMPDEST SWAP2 POP PUSH1 0x0 DUP6 DUP6 PUSH2 0xF19 SWAP2 SWAP1 PUSH2 0x1D46 JUMP JUMPDEST DUP5 PUSH2 0xF24 SWAP2 SWAP1 PUSH2 0x1CAF JUMP JUMPDEST SWAP1 POP PUSH1 0x0 DUP1 DUP7 SWAP1 POP PUSH1 0x0 JUMPDEST PUSH1 0xFF DUP2 LT ISZERO PUSH2 0xFB4 JUMPI DUP2 SWAP3 POP DUP8 DUP5 DUP4 PUSH1 0x2 PUSH2 0xF4A SWAP2 SWAP1 PUSH2 0x1C6D JUMP JUMPDEST PUSH2 0xF54 SWAP2 SWAP1 PUSH2 0x1CAF JUMP JUMPDEST PUSH2 0xF5E SWAP2 SWAP1 PUSH2 0x1CE3 JUMP JUMPDEST DUP7 DUP4 DUP5 PUSH2 0xF6B SWAP2 SWAP1 PUSH2 0x1C6D JUMP JUMPDEST PUSH2 0xF75 SWAP2 SWAP1 PUSH2 0x1CAF JUMP JUMPDEST PUSH2 0xF7F SWAP2 SWAP1 PUSH2 0x1D46 JUMP JUMPDEST SWAP2 POP PUSH1 0x1 PUSH2 0xF8D DUP4 DUP6 PUSH2 0x148E JUMP JUMPDEST GT PUSH2 0xFA3 JUMPI DUP2 SWAP10 POP POP POP POP POP POP POP POP POP POP PUSH2 0xFF0 JUMP JUMPDEST DUP1 PUSH2 0xFAD SWAP1 PUSH2 0x1E78 JUMP JUMPDEST SWAP1 POP PUSH2 0xF2F JUMP JUMPDEST POP PUSH1 0x40 MLOAD PUSH32 0x8C379A000000000000000000000000000000000000000000000000000000000 DUP2 MSTORE PUSH1 0x4 ADD PUSH2 0xFE7 SWAP1 PUSH2 0x2162 JUMP JUMPDEST PUSH1 0x40 MLOAD DUP1 SWAP2 SUB SWAP1 REVERT JUMPDEST SWAP5 SWAP4 POP POP POP POP JUMP JUMPDEST PUSH1 0x0 DUP1 PUSH1 0x0 PUSH1 0x9 SLOAD SWAP1 POP PUSH1 0x0 PUSH2 0x100C PUSH2 0xD9B JUMP JUMPDEST SWAP1 POP PUSH1 0x0 PUSH2 0x1019 DUP3 PUSH2 0x12B7 JUMP JUMPDEST SWAP1 POP PUSH1 0x0 DUP4 DUP9 DUP4 PUSH2 0x102A SWAP2 SWAP1 PUSH2 0x1C6D JUMP JUMPDEST PUSH2 0x1034 SWAP2 SWAP1 PUSH2 0x1D46 JUMP JUMPDEST DUP3 PUSH2 0x103F SWAP2 SWAP1 PUSH2 0x1CE3 JUMP JUMPDEST SWAP1 POP PUSH1 0x0 PUSH2 0x104E DUP9 DUP6 DUP5 PUSH2 0x1531 JUMP JUMPDEST SWAP1 POP PUSH1 0x0 PUSH1 0x3 DUP10 PUSH1 0x3 DUP2 LT PUSH2 0x1066 JUMPI PUSH2 0x1065 PUSH2 0x1B73 JUMP JUMPDEST JUMPDEST ADD SLOAD DUP3 DUP7 DUP12 PUSH1 0x3 DUP2 LT PUSH2 0x107C JUMPI PUSH2 0x107B PUSH2 0x1B73 JUMP JUMPDEST JUMPDEST PUSH1 0x20 MUL ADD MLOAD PUSH2 0x108B SWAP2 SWAP1 PUSH2 0x1CE3 JUMP JUMPDEST PUSH2 0x1095 SWAP2 SWAP1 PUSH2 0x1D46 JUMP JUMPDEST SWAP1 POP PUSH1 0x0 DUP1 JUMPDEST PUSH1 0x3 DUP2 LT ISZERO PUSH2 0x11C6 JUMPI DUP11 DUP2 SUB PUSH2 0x10EB JUMPI DUP4 DUP7 DUP7 DUP10 DUP5 PUSH1 0x3 DUP2 LT PUSH2 0x10C1 JUMPI PUSH2 0x10C0 PUSH2 0x1B73 JUMP JUMPDEST JUMPDEST PUSH1 0x20 MUL ADD MLOAD PUSH2 0x10D0 SWAP2 SWAP1 PUSH2 0x1C6D JUMP JUMPDEST PUSH2 0x10DA SWAP2 SWAP1 PUSH2 0x1D46 JUMP JUMPDEST PUSH2 0x10E4 SWAP2 SWAP1 PUSH2 0x1CE3 JUMP JUMPDEST SWAP2 POP PUSH2 0x113E JUMP JUMPDEST DUP6 DUP6 DUP9 DUP4 PUSH1 0x3 DUP2 LT PUSH2 0x1100 JUMPI PUSH2 0x10FF PUSH2 0x1B73 JUMP JUMPDEST JUMPDEST PUSH1 0x20 MUL ADD MLOAD PUSH2 0x110F SWAP2 SWAP1 PUSH2 0x1C6D JUMP JUMPDEST PUSH2 0x1119 SWAP2 SWAP1 PUSH2 0x1D46 JUMP JUMPDEST DUP8 DUP3 PUSH1 0x3 DUP2 LT PUSH2 0x112C JUMPI PUSH2 0x112B PUSH2 0x1B73 JUMP JUMPDEST JUMPDEST PUSH1 0x20 MUL ADD MLOAD PUSH2 0x113B SWAP2 SWAP1 PUSH2 0x1CE3 JUMP JUMPDEST SWAP2 POP JUMPDEST PUSH3 0xF4240 DUP3 PUSH1 0x1 PUSH1 0x3 PUSH2 0x1151 SWAP2 SWAP1 PUSH2 0x1CE3 JUMP JUMPDEST PUSH1 0x4 PUSH2 0x115D SWAP2 SWAP1 PUSH2 0x1C6D JUMP JUMPDEST PUSH1 0x3 PUSH2 0x12C PUSH2 0x116C SWAP2 SWAP1 PUSH2 0x1C6D JUMP JUMPDEST PUSH2 0x1176 SWAP2 SWAP1 PUSH2 0x1D46 JUMP JUMPDEST PUSH2 0x1180 SWAP2 SWAP1 PUSH2 0x1C6D JUMP JUMPDEST PUSH2 0x118A SWAP2 SWAP1 PUSH2 0x1D46 JUMP JUMPDEST DUP8 DUP3 PUSH1 0x3 DUP2 LT PUSH2 0x119D JUMPI PUSH2 0x119C PUSH2 0x1B73 JUMP JUMPDEST JUMPDEST PUSH1 0x20 MUL ADD DUP2 DUP2 MLOAD PUSH2 0x11AE SWAP2 SWAP1 PUSH2 0x1CE3 JUMP JUMPDEST SWAP2 POP DUP2 DUP2 MSTORE POP POP DUP1 PUSH2 0x11BF SWAP1 PUSH2 0x1E78 JUMP JUMPDEST SWAP1 POP PUSH2 0x109B JUMP JUMPDEST POP PUSH1 0x0 PUSH2 0x11D4 DUP12 DUP9 DUP8 PUSH2 0x1531 JUMP JUMPDEST SWAP1 POP PUSH1 0x3 DUP12 PUSH1 0x3 DUP2 LT PUSH2 0x11EA JUMPI PUSH2 0x11E9 PUSH2 0x1B73 JUMP JUMPDEST JUMPDEST ADD SLOAD PUSH1 0x1 DUP3 DUP10 DUP15 PUSH1 0x3 DUP2 LT PUSH2 0x1202 JUMPI PUSH2 0x1201 PUSH2 0x1B73 JUMP JUMPDEST JUMPDEST PUSH1 0x20 MUL ADD MLOAD PUSH2 0x1211 SWAP2 SWAP1 PUSH2 0x1CE3 JUMP JUMPDEST PUSH2 0x121B SWAP2 SWAP1 PUSH2 0x1CE3 JUMP JUMPDEST PUSH2 0x1225 SWAP2 SWAP1 PUSH2 0x1D46 JUMP JUMPDEST SWAP10 POP DUP10 DUP4 PUSH2 0x1233 SWAP2 SWAP1 PUSH2 0x1CE3 JUMP JUMPDEST SWAP9 POP POP POP POP POP POP POP POP POP SWAP3 POP SWAP3 SWAP1 POP JUMP JUMPDEST DUP1 PUSH1 0xA PUSH1 0x0 DUP5 PUSH20 0xFFFFFFFFFFFFFFFFFFFFFFFFFFFFFFFFFFFFFFFF AND PUSH20 0xFFFFFFFFFFFFFFFFFFFFFFFFFFFFFFFFFFFFFFFF AND DUP2 MSTORE PUSH1 0x20 ADD SWAP1 DUP2 MSTORE PUSH1 0x20 ADD PUSH1 0x0 KECCAK256 PUSH1 0x0 DUP3 DUP3 SLOAD PUSH2 0x1293 SWAP2 SWAP1 PUSH2 0x1CE3 JUMP JUMPDEST SWAP3 POP POP DUP2 SWAP1 SSTORE POP DUP1 PUSH1 0x9 PUSH1 0x0 DUP3 DUP3 SLOAD PUSH2 0x12AC SWAP2 SWAP1 PUSH2 0x1CE3 JUMP JUMPDEST SWAP3 POP POP DUP2 SWAP1 SSTORE POP POP POP JUMP JUMPDEST PUSH1 0x0 DUP1 PUSH1 0x3 PUSH1 0x1 PUSH1 0x3 PUSH2 0x12CA SWAP2 SWAP1 PUSH2 0x1CE3 JUMP JUMPDEST PUSH1 0x3 PUSH2 0x12D6 SWAP2 SWAP1 PUSH2 0x20CB JUMP JUMPDEST PUSH2 0x3E8 PUSH2 0x12E3 SWAP2 SWAP1 PUSH2 0x1C6D JUMP JUMPDEST PUSH2 0x12ED SWAP2 SWAP1 PUSH2 0x1C6D JUMP JUMPDEST SWAP1 POP PUSH1 0x0 DUP1 JUMPDEST PUSH1 0x3 DUP2 LT ISZERO PUSH2 0x1332 JUMPI DUP5 DUP2 PUSH1 0x3 DUP2 LT PUSH2 0x130F JUMPI PUSH2 0x130E PUSH2 0x1B73 JUMP JUMPDEST JUMPDEST PUSH1 0x20 MUL ADD MLOAD DUP3 PUSH2 0x131F SWAP2 SWAP1 PUSH2 0x1CAF JUMP JUMPDEST SWAP2 POP DUP1 PUSH2 0x132B SWAP1 PUSH2 0x1E78 JUMP JUMPDEST SWAP1 POP PUSH2 0x12F3 JUMP JUMPDEST POP PUSH1 0x0 DUP2 SWAP1 POP PUSH1 0x0 DUP1 JUMPDEST PUSH1 0xFF DUP2 LT ISZERO PUSH2 0x144D JUMPI PUSH1 0x0 DUP4 SWAP1 POP PUSH1 0x0 JUMPDEST PUSH1 0x3 DUP2 LT ISZERO PUSH2 0x13A3 JUMPI DUP9 DUP2 PUSH1 0x3 DUP2 LT PUSH2 0x1369 JUMPI PUSH2 0x1368 PUSH2 0x1B73 JUMP JUMPDEST JUMPDEST PUSH1 0x20 MUL ADD MLOAD PUSH1 0x3 PUSH2 0x137A SWAP2 SWAP1 PUSH2 0x1C6D JUMP JUMPDEST DUP6 DUP4 PUSH2 0x1386 SWAP2 SWAP1 PUSH2 0x1C6D JUMP JUMPDEST PUSH2 0x1390 SWAP2 SWAP1 PUSH2 0x1D46 JUMP JUMPDEST SWAP2 POP DUP1 PUSH2 0x139C SWAP1 PUSH2 0x1E78 JUMP JUMPDEST SWAP1 POP PUSH2 0x134D JUMP JUMPDEST POP DUP4 SWAP3 POP DUP1 PUSH1 0x1 PUSH1 0x3 PUSH2 0x13B6 SWAP2 SWAP1 PUSH2 0x1CAF JUMP JUMPDEST PUSH2 0x13C0 SWAP2 SWAP1 PUSH2 0x1C6D JUMP JUMPDEST DUP5 PUSH1 0x1 DUP9 PUSH2 0x13CE SWAP2 SWAP1 PUSH2 0x1CE3 JUMP JUMPDEST PUSH2 0x13D8 SWAP2 SWAP1 PUSH2 0x1C6D JUMP JUMPDEST PUSH2 0x13E2 SWAP2 SWAP1 PUSH2 0x1CAF JUMP JUMPDEST DUP5 DUP3 PUSH1 0x3 PUSH2 0x13F0 SWAP2 SWAP1 PUSH2 0x1C6D JUMP JUMPDEST DUP8 DUP10 PUSH2 0x13FC SWAP2 SWAP1 PUSH2 0x1C6D JUMP JUMPDEST PUSH2 0x1406 SWAP2 SWAP1 PUSH2 0x1CAF JUMP JUMPDEST PUSH2 0x1410 SWAP2 SWAP1 PUSH2 0x1C6D JUMP JUMPDEST PUSH2 0x141A SWAP2 SWAP1 PUSH2 0x1D46 JUMP JUMPDEST SWAP4 POP PUSH1 0x1 PUSH2 0x1428 DUP6 DUP6 PUSH2 0x148E JUMP JUMPDEST GT PUSH2 0x143B JUMPI DUP4 SWAP7 POP POP POP POP POP POP POP PUSH2 0x1489 JUMP JUMPDEST POP DUP1 PUSH2 0x1446 SWAP1 PUSH2 0x1E78 JUMP JUMPDEST SWAP1 POP PUSH2 0x133C JUMP JUMPDEST POP PUSH1 0x40 MLOAD PUSH32 0x8C379A000000000000000000000000000000000000000000000000000000000 DUP2 MSTORE PUSH1 0x4 ADD PUSH2 0x1480 SWAP1 PUSH2 0x21CE JUMP JUMPDEST PUSH1 0x40 MLOAD DUP1 SWAP2 SUB SWAP1 REVERT JUMPDEST SWAP2 SWAP1 POP JUMP JUMPDEST PUSH1 0x0 DUP2 DUP4 LT ISZERO PUSH2 0x14A9 JUMPI DUP3 DUP3 PUSH2 0x14A4 SWAP2 SWAP1 PUSH2 0x1CE3 JUMP JUMPDEST PUSH2 0x14B6 JUMP JUMPDEST DUP2 DUP4 PUSH2 0x14B5 SWAP2 SWAP1 PUSH2 0x1CE3 JUMP JUMPDEST JUMPDEST SWAP1 POP SWAP3 SWAP2 POP POP JUMP JUMPDEST DUP1 PUSH1 0xA PUSH1 0x0 DUP5 PUSH20 0xFFFFFFFFFFFFFFFFFFFFFFFFFFFFFFFFFFFFFFFF AND PUSH20 0xFFFFFFFFFFFFFFFFFFFFFFFFFFFFFFFFFFFFFFFF AND DUP2 MSTORE PUSH1 0x20 ADD SWAP1 DUP2 MSTORE PUSH1 0x20 ADD PUSH1 0x0 KECCAK256 PUSH1 0x0 DUP3 DUP3 SLOAD PUSH2 0x150D SWAP2 SWAP1 PUSH2 0x1CAF JUMP JUMPDEST SWAP3 POP POP DUP2 SWAP1 SSTORE POP DUP1 PUSH1 0x9 PUSH1 0x0 DUP3 DUP3 SLOAD PUSH2 0x1526 SWAP2 SWAP1 PUSH2 0x1CAF JUMP JUMPDEST SWAP3 POP POP DUP2 SWAP1 SSTORE POP POP POP JUMP JUMPDEST PUSH1 0x0 DUP1 PUSH1 0x3 PUSH1 0x1 PUSH1 0x3 PUSH2 0x1544 SWAP2 SWAP1 PUSH2 0x1CE3 JUMP JUMPDEST PUSH1 0x3 PUSH2 0x1550 SWAP2 SWAP1 PUSH2 0x20CB JUMP JUMPDEST PUSH2 0x3E8 PUSH2 0x155D SWAP2 SWAP1 PUSH2 0x1C6D JUMP JUMPDEST PUSH2 0x1567 SWAP2 SWAP1 PUSH2 0x1C6D JUMP JUMPDEST SWAP1 POP PUSH1 0x0 DUP1 DUP5 SWAP1 POP PUSH1 0x0 DUP1 JUMPDEST PUSH1 0x3 DUP2 LT ISZERO PUSH2 0x15EC JUMPI DUP9 DUP2 EQ PUSH2 0x15A2 JUMPI DUP8 DUP2 PUSH1 0x3 DUP2 LT PUSH2 0x1596 JUMPI PUSH2 0x1595 PUSH2 0x1B73 JUMP JUMPDEST JUMPDEST PUSH1 0x20 MUL ADD MLOAD SWAP2 POP PUSH2 0x15A7 JUMP JUMPDEST PUSH2 0x15DB JUMP JUMPDEST DUP2 DUP5 PUSH2 0x15B3 SWAP2 SWAP1 PUSH2 0x1CAF JUMP JUMPDEST SWAP4 POP DUP2 PUSH1 0x3 PUSH2 0x15C2 SWAP2 SWAP1 PUSH2 0x1C6D JUMP JUMPDEST DUP8 DUP5 PUSH2 0x15CE SWAP2 SWAP1 PUSH2 0x1C6D JUMP JUMPDEST PUSH2 0x15D8 SWAP2 SWAP1 PUSH2 0x1D46 JUMP JUMPDEST SWAP3 POP JUMPDEST DUP1 PUSH2 0x15E5 SWAP1 PUSH2 0x1E78 JUMP JUMPDEST SWAP1 POP PUSH2 0x1573 JUMP JUMPDEST POP DUP4 PUSH1 0x3 PUSH2 0x15FA SWAP2 SWAP1 PUSH2 0x1C6D JUMP JUMPDEST DUP7 DUP4 PUSH2 0x1606 SWAP2 SWAP1 PUSH2 0x1C6D JUMP JUMPDEST PUSH2 0x1610 SWAP2 SWAP1 PUSH2 0x1D46 JUMP JUMPDEST SWAP2 POP PUSH1 0x0 DUP5 DUP8 PUSH2 0x1620 SWAP2 SWAP1 PUSH2 0x1D46 JUMP JUMPDEST DUP5 PUSH2 0x162B SWAP2 SWAP1 PUSH2 0x1CAF JUMP JUMPDEST SWAP1 POP PUSH1 0x0 DUP1 DUP9 SWAP1 POP PUSH1 0x0 JUMPDEST PUSH1 0xFF DUP2 LT ISZERO PUSH2 0x16BA JUMPI DUP2 SWAP3 POP DUP10 DUP5 DUP4 PUSH1 0x2 PUSH2 0x1651 SWAP2 SWAP1 PUSH2 0x1C6D JUMP JUMPDEST PUSH2 0x165B SWAP2 SWAP1 PUSH2 0x1CAF JUMP JUMPDEST PUSH2 0x1665 SWAP2 SWAP1 PUSH2 0x1CE3 JUMP JUMPDEST DUP7 DUP4 DUP5 PUSH2 0x1672 SWAP2 SWAP1 PUSH2 0x1C6D JUMP JUMPDEST PUSH2 0x167C SWAP2 SWAP1 PUSH2 0x1CAF JUMP JUMPDEST PUSH2 0x1686 SWAP2 SWAP1 PUSH2 0x1D46 JUMP JUMPDEST SWAP2 POP PUSH1 0x1 PUSH2 0x1694 DUP4 DUP6 PUSH2 0x148E JUMP JUMPDEST GT PUSH2 0x16A9 JUMPI DUP2 SWAP9 POP POP POP POP POP POP POP POP POP PUSH2 0x16F6 JUMP JUMPDEST DUP1 PUSH2 0x16B3 SWAP1 PUSH2 0x1E78 JUMP JUMPDEST SWAP1 POP PUSH2 0x1636 JUMP JUMPDEST POP PUSH1 0x40 MLOAD PUSH32 0x8C379A000000000000000000000000000000000000000000000000000000000 DUP2 MSTORE PUSH1 0x4 ADD PUSH2 0x16ED SWAP1 PUSH2 0x2162 JUMP JUMPDEST PUSH1 0x40 MLOAD DUP1 SWAP2 SUB SWAP1 REVERT JUMPDEST SWAP4 SWAP3 POP POP POP JUMP JUMPDEST PUSH1 0x40 MLOAD DUP1 PUSH1 0x60 ADD PUSH1 0x40 MSTORE DUP1 PUSH1 0x3 SWAP1 PUSH1 0x20 DUP3 MUL DUP1 CALLDATASIZE DUP4 CALLDATACOPY DUP1 DUP3 ADD SWAP2 POP POP SWAP1 POP POP SWAP1 JUMP JUMPDEST PUSH1 0x0 DUP2 SWAP1 POP SWAP2 SWAP1 POP JUMP JUMPDEST PUSH2 0x1732 DUP2 PUSH2 0x171F JUMP JUMPDEST DUP3 MSTORE POP POP JUMP JUMPDEST PUSH1 0x0 PUSH1 0x20 DUP3 ADD SWAP1 POP PUSH2 0x174D PUSH1 0x0 DUP4 ADD DUP5 PUSH2 0x1729 JUMP JUMPDEST SWAP3 SWAP2 POP POP JUMP JUMPDEST PUSH1 0x0 DUP1 REVERT JUMPDEST PUSH2 0x1761 DUP2 PUSH2 0x171F JUMP JUMPDEST DUP2 EQ PUSH2 0x176C JUMPI PUSH1 0x0 DUP1 REVERT JUMPDEST POP JUMP JUMPDEST PUSH1 0x0 DUP2 CALLDATALOAD SWAP1 POP PUSH2 0x177E DUP2 PUSH2 0x1758 JUMP JUMPDEST SWAP3 SWAP2 POP POP JUMP JUMPDEST PUSH1 0x0 PUSH1 0x20 DUP3 DUP5 SUB SLT ISZERO PUSH2 0x179A JUMPI PUSH2 0x1799 PUSH2 0x1753 JUMP JUMPDEST JUMPDEST PUSH1 0x0 PUSH2 0x17A8 DUP5 DUP3 DUP6 ADD PUSH2 0x176F JUMP JUMPDEST SWAP2 POP POP SWAP3 SWAP2 POP POP JUMP JUMPDEST PUSH1 0x0 PUSH20 0xFFFFFFFFFFFFFFFFFFFFFFFFFFFFFFFFFFFFFFFF DUP3 AND SWAP1 POP SWAP2 SWAP1 POP JUMP JUMPDEST PUSH1 0x0 PUSH2 0x17DC DUP3 PUSH2 0x17B1 JUMP JUMPDEST SWAP1 POP SWAP2 SWAP1 POP JUMP JUMPDEST PUSH2 0x17EC DUP2 PUSH2 0x17D1 JUMP JUMPDEST DUP3 MSTORE POP POP JUMP JUMPDEST PUSH1 0x0 PUSH1 0x20 DUP3 ADD SWAP1 POP PUSH2 0x1807 PUSH1 0x0 DUP4 ADD DUP5 PUSH2 0x17E3 JUMP JUMPDEST SWAP3 SWAP2 POP POP JUMP JUMPDEST PUSH1 0x0 DUP1 PUSH1 0x0 DUP1 PUSH1 0x80 DUP6 DUP8 SUB SLT ISZERO PUSH2 0x1827 JUMPI PUSH2 0x1826 PUSH2 0x1753 JUMP JUMPDEST JUMPDEST PUSH1 0x0 PUSH2 0x1835 DUP8 DUP3 DUP9 ADD PUSH2 0x176F JUMP JUMPDEST SWAP5 POP POP PUSH1 0x20 PUSH2 0x1846 DUP8 DUP3 DUP9 ADD PUSH2 0x176F JUMP JUMPDEST SWAP4 POP POP PUSH1 0x40 PUSH2 0x1857 DUP8 DUP3 DUP9 ADD PUSH2 0x176F JUMP JUMPDEST SWAP3 POP POP PUSH1 0x60 PUSH2 0x1868 DUP8 DUP3 DUP9 ADD PUSH2 0x176F JUMP JUMPDEST SWAP2 POP POP SWAP3 SWAP6 SWAP2 SWAP5 POP SWAP3 POP JUMP JUMPDEST PUSH1 0x0 DUP1 PUSH1 0x0 PUSH1 0x60 DUP5 DUP7 SUB SLT ISZERO PUSH2 0x188D JUMPI PUSH2 0x188C PUSH2 0x1753 JUMP JUMPDEST JUMPDEST PUSH1 0x0 PUSH2 0x189B DUP7 DUP3 DUP8 ADD PUSH2 0x176F JUMP JUMPDEST SWAP4 POP POP PUSH1 0x20 PUSH2 0x18AC DUP7 DUP3 DUP8 ADD PUSH2 0x176F JUMP JUMPDEST SWAP3 POP POP PUSH1 0x40 PUSH2 0x18BD DUP7 DUP3 DUP8 ADD PUSH2 0x176F JUMP JUMPDEST SWAP2 POP POP SWAP3 POP SWAP3 POP SWAP3 JUMP JUMPDEST PUSH2 0x18D0 DUP2 PUSH2 0x17D1 JUMP JUMPDEST DUP2 EQ PUSH2 0x18DB JUMPI PUSH1 0x0 DUP1 REVERT JUMPDEST POP JUMP JUMPDEST PUSH1 0x0 DUP2 CALLDATALOAD SWAP1 POP PUSH2 0x18ED DUP2 PUSH2 0x18C7 JUMP JUMPDEST SWAP3 SWAP2 POP POP JUMP JUMPDEST PUSH1 0x0 PUSH1 0x20 DUP3 DUP5 SUB SLT ISZERO PUSH2 0x1909 JUMPI PUSH2 0x1908 PUSH2 0x1753 JUMP JUMPDEST JUMPDEST PUSH1 0x0 PUSH2 0x1917 DUP5 DUP3 DUP6 ADD PUSH2 0x18DE JUMP JUMPDEST SWAP2 POP POP SWAP3 SWAP2 POP POP JUMP JUMPDEST PUSH1 0x0 DUP1 REVERT JUMPDEST PUSH1 0x0 DUP2 SWAP1 POP DUP3 PUSH1 0x20 PUSH1 0x3 MUL DUP3 ADD GT ISZERO PUSH2 0x1941 JUMPI PUSH2 0x1940 PUSH2 0x1920 JUMP JUMPDEST JUMPDEST SWAP3 SWAP2 POP POP JUMP JUMPDEST PUSH1 0x0 DUP1 PUSH1 0x80 DUP4 DUP6 SUB SLT ISZERO PUSH2 0x195E JUMPI PUSH2 0x195D PUSH2 0x1753 JUMP JUMPDEST JUMPDEST PUSH1 0x0 PUSH2 0x196C DUP6 DUP3 DUP7 ADD PUSH2 0x1925 JUMP JUMPDEST SWAP3 POP POP PUSH1 0x60 PUSH2 0x197D DUP6 DUP3 DUP7 ADD PUSH2 0x176F JUMP JUMPDEST SWAP2 POP POP SWAP3 POP SWAP3 SWAP1 POP JUMP JUMPDEST PUSH1 0x0 DUP1 PUSH1 0x40 DUP4 DUP6 SUB SLT ISZERO PUSH2 0x199E JUMPI PUSH2 0x199D PUSH2 0x1753 JUMP JUMPDEST JUMPDEST PUSH1 0x0 PUSH2 0x19AC DUP6 DUP3 DUP7 ADD PUSH2 0x176F JUMP JUMPDEST SWAP3 POP POP PUSH1 0x20 PUSH2 0x19BD DUP6 DUP3 DUP7 ADD PUSH2 0x176F JUMP JUMPDEST SWAP2 POP POP SWAP3 POP SWAP3 SWAP1 POP JUMP JUMPDEST PUSH1 0x0 PUSH1 0x40 DUP3 ADD SWAP1 POP PUSH2 0x19DC PUSH1 0x0 DUP4 ADD DUP6 PUSH2 0x1729 JUMP JUMPDEST PUSH2 0x19E9 PUSH1 0x20 DUP4 ADD DUP5 PUSH2 0x1729 JUMP JUMPDEST SWAP4 SWAP3 POP POP POP JUMP JUMPDEST PUSH1 0x0 DUP1 PUSH1 0x80 DUP4 DUP6 SUB SLT ISZERO PUSH2 0x1A07 JUMPI PUSH2 0x1A06 PUSH2 0x1753 JUMP JUMPDEST JUMPDEST PUSH1 0x0 PUSH2 0x1A15 DUP6 DUP3 DUP7 ADD PUSH2 0x176F JUMP JUMPDEST SWAP3 POP POP PUSH1 0x20 PUSH2 0x1A26 DUP6 DUP3 DUP7 ADD PUSH2 0x1925 JUMP JUMPDEST SWAP2 POP POP SWAP3 POP SWAP3 SWAP1 POP JUMP JUMPDEST PUSH1 0x0 PUSH1 0x3 SWAP1 POP SWAP2 SWAP1 POP JUMP JUMPDEST PUSH1 0x0 DUP2 SWAP1 POP SWAP3 SWAP2 POP POP JUMP JUMPDEST PUSH1 0x0 DUP2 SWAP1 POP SWAP2 SWAP1 POP JUMP JUMPDEST PUSH2 0x1A59 DUP2 PUSH2 0x171F JUMP JUMPDEST DUP3 MSTORE POP POP JUMP JUMPDEST PUSH1 0x0 PUSH2 0x1A6B DUP4 DUP4 PUSH2 0x1A50 JUMP JUMPDEST PUSH1 0x20 DUP4 ADD SWAP1 POP SWAP3 SWAP2 POP POP JUMP JUMPDEST PUSH1 0x0 PUSH1 0x20 DUP3 ADD SWAP1 POP SWAP2 SWAP1 POP JUMP JUMPDEST PUSH2 0x1A8D DUP2 PUSH2 0x1A30 JUMP JUMPDEST PUSH2 0x1A97 DUP2 DUP5 PUSH2 0x1A3B JUMP JUMPDEST SWAP3 POP PUSH2 0x1AA2 DUP3 PUSH2 0x1A46 JUMP JUMPDEST DUP1 PUSH1 0x0 JUMPDEST DUP4 DUP2 LT ISZERO PUSH2 0x1AD3 JUMPI DUP2 MLOAD PUSH2 0x1ABA DUP8 DUP3 PUSH2 0x1A5F JUMP JUMPDEST SWAP7 POP PUSH2 0x1AC5 DUP4 PUSH2 0x1A77 JUMP JUMPDEST SWAP3 POP POP PUSH1 0x1 DUP2 ADD SWAP1 POP PUSH2 0x1AA6 JUMP JUMPDEST POP POP POP POP POP POP JUMP JUMPDEST PUSH1 0x0 PUSH1 0x60 DUP3 ADD SWAP1 POP PUSH2 0x1AF0 PUSH1 0x0 DUP4 ADD DUP5 PUSH2 0x1A84 JUMP JUMPDEST SWAP3 SWAP2 POP POP JUMP JUMPDEST PUSH1 0x0 DUP3 DUP3 MSTORE PUSH1 0x20 DUP3 ADD SWAP1 POP SWAP3 SWAP2 POP POP JUMP JUMPDEST PUSH32 0x69203D206A000000000000000000000000000000000000000000000000000000 PUSH1 0x0 DUP3 ADD MSTORE POP JUMP JUMPDEST PUSH1 0x0 PUSH2 0x1B3D PUSH1 0x5 DUP4 PUSH2 0x1AF6 JUMP JUMPDEST SWAP2 POP PUSH2 0x1B48 DUP3 PUSH2 0x1B07 JUMP JUMPDEST PUSH1 0x20 DUP3 ADD SWAP1 POP SWAP2 SWAP1 POP JUMP JUMPDEST PUSH1 0x0 PUSH1 0x20 DUP3 ADD SWAP1 POP DUP2 DUP2 SUB PUSH1 0x0 DUP4 ADD MSTORE PUSH2 0x1B6C DUP2 PUSH2 0x1B30 JUMP JUMPDEST SWAP1 POP SWAP2 SWAP1 POP JUMP JUMPDEST PUSH32 0x4E487B7100000000000000000000000000000000000000000000000000000000 PUSH1 0x0 MSTORE PUSH1 0x32 PUSH1 0x4 MSTORE PUSH1 0x24 PUSH1 0x0 REVERT JUMPDEST PUSH1 0x0 PUSH1 0x60 DUP3 ADD SWAP1 POP PUSH2 0x1BB7 PUSH1 0x0 DUP4 ADD DUP7 PUSH2 0x17E3 JUMP JUMPDEST PUSH2 0x1BC4 PUSH1 0x20 DUP4 ADD DUP6 PUSH2 0x17E3 JUMP JUMPDEST PUSH2 0x1BD1 PUSH1 0x40 DUP4 ADD DUP5 PUSH2 0x1729 JUMP JUMPDEST SWAP5 SWAP4 POP POP POP POP JUMP JUMPDEST PUSH1 0x0 DUP2 ISZERO ISZERO SWAP1 POP SWAP2 SWAP1 POP JUMP JUMPDEST PUSH2 0x1BEE DUP2 PUSH2 0x1BD9 JUMP JUMPDEST DUP2 EQ PUSH2 0x1BF9 JUMPI PUSH1 0x0 DUP1 REVERT JUMPDEST POP JUMP JUMPDEST PUSH1 0x0 DUP2 MLOAD SWAP1 POP PUSH2 0x1C0B DUP2 PUSH2 0x1BE5 JUMP JUMPDEST SWAP3 SWAP2 POP POP JUMP JUMPDEST PUSH1 0x0 PUSH1 0x20 DUP3 DUP5 SUB SLT ISZERO PUSH2 0x1C27 JUMPI PUSH2 0x1C26 PUSH2 0x1753 JUMP JUMPDEST JUMPDEST PUSH1 0x0 PUSH2 0x1C35 DUP5 DUP3 DUP6 ADD PUSH2 0x1BFC JUMP JUMPDEST SWAP2 POP POP SWAP3 SWAP2 POP POP JUMP JUMPDEST PUSH32 0x4E487B7100000000000000000000000000000000000000000000000000000000 PUSH1 0x0 MSTORE PUSH1 0x11 PUSH1 0x4 MSTORE PUSH1 0x24 PUSH1 0x0 REVERT JUMPDEST PUSH1 0x0 PUSH2 0x1C78 DUP3 PUSH2 0x171F JUMP JUMPDEST SWAP2 POP PUSH2 0x1C83 DUP4 PUSH2 0x171F JUMP JUMPDEST SWAP3 POP DUP3 DUP3 MUL PUSH2 0x1C91 DUP2 PUSH2 0x171F JUMP JUMPDEST SWAP2 POP DUP3 DUP3 DIV DUP5 EQ DUP4 ISZERO OR PUSH2 0x1CA8 JUMPI PUSH2 0x1CA7 PUSH2 0x1C3E JUMP JUMPDEST JUMPDEST POP SWAP3 SWAP2 POP POP JUMP JUMPDEST PUSH1 0x0 PUSH2 0x1CBA DUP3 PUSH2 0x171F JUMP JUMPDEST SWAP2 POP PUSH2 0x1CC5 DUP4 PUSH2 0x171F JUMP JUMPDEST SWAP3 POP DUP3 DUP3 ADD SWAP1 POP DUP1 DUP3 GT ISZERO PUSH2 0x1CDD JUMPI PUSH2 0x1CDC PUSH2 0x1C3E JUMP JUMPDEST JUMPDEST SWAP3 SWAP2 POP POP JUMP JUMPDEST PUSH1 0x0 PUSH2 0x1CEE DUP3 PUSH2 0x171F JUMP JUMPDEST SWAP2 POP PUSH2 0x1CF9 DUP4 PUSH2 0x171F JUMP JUMPDEST SWAP3 POP DUP3 DUP3 SUB SWAP1 POP DUP2 DUP2 GT ISZERO PUSH2 0x1D11 JUMPI PUSH2 0x1D10 PUSH2 0x1C3E JUMP JUMPDEST JUMPDEST SWAP3 SWAP2 POP POP JUMP JUMPDEST PUSH32 0x4E487B7100000000000000000000000000000000000000000000000000000000 PUSH1 0x0 MSTORE PUSH1 0x12 PUSH1 0x4 MSTORE PUSH1 0x24 PUSH1 0x0 REVERT JUMPDEST PUSH1 0x0 PUSH2 0x1D51 DUP3 PUSH2 0x171F JUMP JUMPDEST SWAP2 POP PUSH2 0x1D5C DUP4 PUSH2 0x171F JUMP JUMPDEST SWAP3 POP DUP3 PUSH2 0x1D6C JUMPI PUSH2 0x1D6B PUSH2 0x1D17 JUMP JUMPDEST JUMPDEST DUP3 DUP3 DIV SWAP1 POP SWAP3 SWAP2 POP POP JUMP JUMPDEST PUSH32 0x6479203C206D696E000000000000000000000000000000000000000000000000 PUSH1 0x0 DUP3 ADD MSTORE POP JUMP JUMPDEST PUSH1 0x0 PUSH2 0x1DAD PUSH1 0x8 DUP4 PUSH2 0x1AF6 JUMP JUMPDEST SWAP2 POP PUSH2 0x1DB8 DUP3 PUSH2 0x1D77 JUMP JUMPDEST PUSH1 0x20 DUP3 ADD SWAP1 POP SWAP2 SWAP1 POP JUMP JUMPDEST PUSH1 0x0 PUSH1 0x20 DUP3 ADD SWAP1 POP DUP2 DUP2 SUB PUSH1 0x0 DUP4 ADD MSTORE PUSH2 0x1DDC DUP2 PUSH2 0x1DA0 JUMP JUMPDEST SWAP1 POP SWAP2 SWAP1 POP JUMP JUMPDEST PUSH1 0x0 PUSH1 0x40 DUP3 ADD SWAP1 POP PUSH2 0x1DF8 PUSH1 0x0 DUP4 ADD DUP6 PUSH2 0x17E3 JUMP JUMPDEST PUSH2 0x1E05 PUSH1 0x20 DUP4 ADD DUP5 PUSH2 0x1729 JUMP JUMPDEST SWAP4 SWAP3 POP POP POP JUMP JUMPDEST PUSH32 0x6F7574203C206D696E0000000000000000000000000000000000000000000000 PUSH1 0x0 DUP3 ADD MSTORE POP JUMP JUMPDEST PUSH1 0x0 PUSH2 0x1E42 PUSH1 0x9 DUP4 PUSH2 0x1AF6 JUMP JUMPDEST SWAP2 POP PUSH2 0x1E4D DUP3 PUSH2 0x1E0C JUMP JUMPDEST PUSH1 0x20 DUP3 ADD SWAP1 POP SWAP2 SWAP1 POP JUMP JUMPDEST PUSH1 0x0 PUSH1 0x20 DUP3 ADD SWAP1 POP DUP2 DUP2 SUB PUSH1 0x0 DUP4 ADD MSTORE PUSH2 0x1E71 DUP2 PUSH2 0x1E35 JUMP JUMPDEST SWAP1 POP SWAP2 SWAP1 POP JUMP JUMPDEST PUSH1 0x0 PUSH2 0x1E83 DUP3 PUSH2 0x171F JUMP JUMPDEST SWAP2 POP PUSH32 0xFFFFFFFFFFFFFFFFFFFFFFFFFFFFFFFFFFFFFFFFFFFFFFFFFFFFFFFFFFFFFFFF DUP3 SUB PUSH2 0x1EB5 JUMPI PUSH2 0x1EB4 PUSH2 0x1C3E JUMP JUMPDEST JUMPDEST PUSH1 0x1 DUP3 ADD SWAP1 POP SWAP2 SWAP1 POP JUMP JUMPDEST PUSH32 0x6C6971756964697479206469646E277420696E63726561736500000000000000 PUSH1 0x0 DUP3 ADD MSTORE POP JUMP JUMPDEST PUSH1 0x0 PUSH2 0x1EF6 PUSH1 0x19 DUP4 PUSH2 0x1AF6 JUMP JUMPDEST SWAP2 POP PUSH2 0x1F01 DUP3 PUSH2 0x1EC0 JUMP JUMPDEST PUSH1 0x20 DUP3 ADD SWAP1 POP SWAP2 SWAP1 POP JUMP JUMPDEST PUSH1 0x0 PUSH1 0x20 DUP3 ADD SWAP1 POP DUP2 DUP2 SUB PUSH1 0x0 DUP4 ADD MSTORE PUSH2 0x1F25 DUP2 PUSH2 0x1EE9 JUMP JUMPDEST SWAP1 POP SWAP2 SWAP1 POP JUMP JUMPDEST PUSH32 0x736861726573203C206D696E0000000000000000000000000000000000000000 PUSH1 0x0 DUP3 ADD MSTORE POP JUMP JUMPDEST PUSH1 0x0 PUSH2 0x1F62 PUSH1 0xC DUP4 PUSH2 0x1AF6 JUMP JUMPDEST SWAP2 POP PUSH2 0x1F6D DUP3 PUSH2 0x1F2C JUMP JUMPDEST PUSH1 0x20 DUP3 ADD SWAP1 POP SWAP2 SWAP1 POP JUMP JUMPDEST PUSH1 0x0 PUSH1 0x20 DUP3 ADD SWAP1 POP DUP2 DUP2 SUB PUSH1 0x0 DUP4 ADD MSTORE PUSH2 0x1F91 DUP2 PUSH2 0x1F55 JUMP JUMPDEST SWAP1 POP SWAP2 SWAP1 POP JUMP JUMPDEST PUSH1 0x0 DUP2 PUSH1 0x1 SHR SWAP1 POP SWAP2 SWAP1 POP JUMP JUMPDEST PUSH1 0x0 DUP1 DUP3 SWAP2 POP DUP4 SWAP1 POP JUMPDEST PUSH1 0x1 DUP6 GT ISZERO PUSH2 0x1FEF JUMPI DUP1 DUP7 DIV DUP2 GT ISZERO PUSH2 0x1FCB JUMPI PUSH2 0x1FCA PUSH2 0x1C3E JUMP JUMPDEST JUMPDEST PUSH1 0x1 DUP6 AND ISZERO PUSH2 0x1FDA JUMPI DUP1 DUP3 MUL SWAP2 POP JUMPDEST DUP1 DUP2 MUL SWAP1 POP PUSH2 0x1FE8 DUP6 PUSH2 0x1F98 JUMP JUMPDEST SWAP5 POP PUSH2 0x1FAF JUMP JUMPDEST SWAP5 POP SWAP5 SWAP3 POP POP POP JUMP JUMPDEST PUSH1 0x0 DUP3 PUSH2 0x2008 JUMPI PUSH1 0x1 SWAP1 POP PUSH2 0x20C4 JUMP JUMPDEST DUP2 PUSH2 0x2016 JUMPI PUSH1 0x0 SWAP1 POP PUSH2 0x20C4 JUMP JUMPDEST DUP2 PUSH1 0x1 DUP2 EQ PUSH2 0x202C JUMPI PUSH1 0x2 DUP2 EQ PUSH2 0x2036 JUMPI PUSH2 0x2065 JUMP JUMPDEST PUSH1 0x1 SWAP2 POP POP PUSH2 0x20C4 JUMP JUMPDEST PUSH1 0xFF DUP5 GT ISZERO PUSH2 0x2048 JUMPI PUSH2 0x2047 PUSH2 0x1C3E JUMP JUMPDEST JUMPDEST DUP4 PUSH1 0x2 EXP SWAP2 POP DUP5 DUP3 GT ISZERO PUSH2 0x205F JUMPI PUSH2 0x205E PUSH2 0x1C3E JUMP JUMPDEST JUMPDEST POP PUSH2 0x20C4 JUMP JUMPDEST POP PUSH1 0x20 DUP4 LT PUSH2 0x133 DUP4 LT AND PUSH1 0x4E DUP5 LT PUSH1 0xB DUP5 LT AND OR ISZERO PUSH2 0x209A JUMPI DUP3 DUP3 EXP SWAP1 POP DUP4 DUP2 GT ISZERO PUSH2 0x2095 JUMPI PUSH2 0x2094 PUSH2 0x1C3E JUMP JUMPDEST JUMPDEST PUSH2 0x20C4 JUMP JUMPDEST PUSH2 0x20A7 DUP5 DUP5 DUP5 PUSH1 0x1 PUSH2 0x1FA5 JUMP JUMPDEST SWAP3 POP SWAP1 POP DUP2 DUP5 DIV DUP2 GT ISZERO PUSH2 0x20BE JUMPI PUSH2 0x20BD PUSH2 0x1C3E JUMP JUMPDEST JUMPDEST DUP2 DUP2 MUL SWAP1 POP JUMPDEST SWAP4 SWAP3 POP POP POP JUMP JUMPDEST PUSH1 0x0 PUSH2 0x20D6 DUP3 PUSH2 0x171F JUMP JUMPDEST SWAP2 POP PUSH2 0x20E1 DUP4 PUSH2 0x171F JUMP JUMPDEST SWAP3 POP PUSH2 0x210E PUSH32 0xFFFFFFFFFFFFFFFFFFFFFFFFFFFFFFFFFFFFFFFFFFFFFFFFFFFFFFFFFFFFFFFF DUP5 DUP5 PUSH2 0x1FF8 JUMP JUMPDEST SWAP1 POP SWAP3 SWAP2 POP POP JUMP JUMPDEST PUSH32 0x79206469646E277420636F6E7665726765000000000000000000000000000000 PUSH1 0x0 DUP3 ADD MSTORE POP JUMP JUMPDEST PUSH1 0x0 PUSH2 0x214C PUSH1 0x11 DUP4 PUSH2 0x1AF6 JUMP JUMPDEST SWAP2 POP PUSH2 0x2157 DUP3 PUSH2 0x2116 JUMP JUMPDEST PUSH1 0x20 DUP3 ADD SWAP1 POP SWAP2 SWAP1 POP JUMP JUMPDEST PUSH1 0x0 PUSH1 0x20 DUP3 ADD SWAP1 POP DUP2 DUP2 SUB PUSH1 0x0 DUP4 ADD MSTORE PUSH2 0x217B DUP2 PUSH2 0x213F JUMP JUMPDEST SWAP1 POP SWAP2 SWAP1 POP JUMP JUMPDEST PUSH32 0x44206469646E277420636F6E7665726765000000000000000000000000000000 PUSH1 0x0 DUP3 ADD MSTORE POP JUMP JUMPDEST PUSH1 0x0 PUSH2 0x21B8 PUSH1 0x11 DUP4 PUSH2 0x1AF6 JUMP JUMPDEST SWAP2 POP PUSH2 0x21C3 DUP3 PUSH2 0x2182 JUMP JUMPDEST PUSH1 0x20 DUP3 ADD SWAP1 POP SWAP2 SWAP1 POP JUMP JUMPDEST PUSH1 0x0 PUSH1 0x20 DUP3 ADD SWAP1 POP DUP2 DUP2 SUB PUSH1 0x0 DUP4 ADD MSTORE PUSH2 0x21E7 DUP2 PUSH2 0x21AB JUMP JUMPDEST SWAP1 POP SWAP2 SWAP1 POP JUMP INVALID LOG2 PUSH5 0x6970667358 0x22 SLT KECCAK256 CALLVALUE CHAINID 0x26 0xE5 REVERT SHR XOR 0x2C SWAP4 0x25 0xDF 0xCE SHR 0xBF 0x4A 0xAB LOG2 0xB4 0xD8 PUSH6 0xCAA9F7B886C8 0xAB LOG3 PUSH7 0x565E0E64736F6C PUSH4 0x43000811 STOP CALLER "
				},
				"gasEstimates": {
					"creation": {
						"codeDepositCost": "1748000",
						"executionCost": "infinite",
						"totalCost": "infinite"
					},
					"external": {
						"addLiquidity(uint256[3],uint256)": "infinite",
						"balanceOf(address)": "2814",
						"balances(uint256)": "infinite",
						"calcWithdrawOneToken(uint256,uint256)": "infinite",
						"getVirtualPrice()": "infinite",
						"removeLiquidity(uint256,uint256[3])": "infinite",
						"removeLiquidityOneToken(uint256,uint256,uint256)": "infinite",
						"swap(uint256,uint256,uint256,uint256)": "infinite",
						"tokens(uint256)": "2850",
						"totalSupply()": "2430"
					},
					"internal": {
						"_burn(address,uint256)": "infinite",
						"_calcWithdrawOneToken(uint256,uint256)": "infinite",
						"_getD(uint256[3] memory)": "infinite",
						"_getY(uint256,uint256,uint256,uint256[3] memory)": "infinite",
						"_getYD(uint256,uint256[3] memory,uint256)": "infinite",
						"_mint(address,uint256)": "infinite",
						"_xp()": "infinite"
					}
				},
				"methodIdentifiers": {
					"addLiquidity(uint256[3],uint256)": "a4bf0446",
					"balanceOf(address)": "70a08231",
					"balances(uint256)": "4903b0d1",
					"calcWithdrawOneToken(uint256,uint256)": "a60dc3b1",
					"getVirtualPrice()": "e25aa5fa",
					"removeLiquidity(uint256,uint256[3])": "d035862c",
					"removeLiquidityOneToken(uint256,uint256,uint256)": "7066b5b2",
					"swap(uint256,uint256,uint256,uint256)": "5673b02d",
					"tokens(uint256)": "4f64b2be",
					"totalSupply()": "18160ddd"
				}
			},
			"storageLayout": {
				"storage": [
					{
						"astId": 61,
						"contract": "SolidityByExample/4_DeFi/15_StableSwapAMM.sol:StableSwap",
						"label": "tokens",
						"offset": 0,
						"slot": "0",
						"type": "t_array(t_address)3_storage"
					},
					{
						"astId": 69,
						"contract": "SolidityByExample/4_DeFi/15_StableSwapAMM.sol:StableSwap",
						"label": "multipliers",
						"offset": 0,
						"slot": "3",
						"type": "t_array(t_uint256)3_storage"
					},
					{
						"astId": 73,
						"contract": "SolidityByExample/4_DeFi/15_StableSwapAMM.sol:StableSwap",
						"label": "balances",
						"offset": 0,
						"slot": "6",
						"type": "t_array(t_uint256)3_storage"
					},
					{
						"astId": 78,
						"contract": "SolidityByExample/4_DeFi/15_StableSwapAMM.sol:StableSwap",
						"label": "totalSupply",
						"offset": 0,
						"slot": "9",
						"type": "t_uint256"
					},
					{
						"astId": 82,
						"contract": "SolidityByExample/4_DeFi/15_StableSwapAMM.sol:StableSwap",
						"label": "balanceOf",
						"offset": 0,
						"slot": "10",
						"type": "t_mapping(t_address,t_uint256)"
					}
				],
				"types": {
					"t_address": {
						"encoding": "inplace",
						"label": "address",
						"numberOfBytes": "20"
					},
					"t_array(t_address)3_storage": {
						"base": "t_address",
						"encoding": "inplace",
						"label": "address[3]",
						"numberOfBytes": "96"
					},
					"t_array(t_uint256)3_storage": {
						"base": "t_uint256",
						"encoding": "inplace",
						"label": "uint256[3]",
						"numberOfBytes": "96"
					},
					"t_mapping(t_address,t_uint256)": {
						"encoding": "mapping",
						"key": "t_address",
						"label": "mapping(address => uint256)",
						"numberOfBytes": "32",
						"value": "t_uint256"
					},
					"t_uint256": {
						"encoding": "inplace",
						"label": "uint256",
						"numberOfBytes": "32"
					}
				}
			},
			"userdoc": {
				"kind": "user",
				"methods": {
					"removeLiquidityOneToken(uint256,uint256,uint256)": {
						"notice": "Withdraw liquidity in token i"
					},
					"swap(uint256,uint256,uint256,uint256)": {
						"notice": "Swap dx amount of token i for token j"
					}
				},
				"version": 1
			}
		}
	}
}