{
	"SolidityByExample/4_DeFi/14_ConstantProductAMM.sol": {
		"CPAMM": {
			"abi": [
				{
					"inputs": [
						{
							"internalType": "address",
							"name": "_token0",
							"type": "address"
						},
						{
							"internalType": "address",
							"name": "_token1",
							"type": "address"
						}
					],
					"stateMutability": "nonpayable",
					"type": "constructor"
				},
				{
					"inputs": [
						{
							"internalType": "uint256",
							"name": "_amount0",
							"type": "uint256"
						},
						{
							"internalType": "uint256",
							"name": "_amount1",
							"type": "uint256"
						}
					],
					"name": "addLiquidity",
					"outputs": [
						{
							"internalType": "uint256",
							"name": "shares",
							"type": "uint256"
						}
					],
					"stateMutability": "nonpayable",
					"type": "function"
				},
				{
					"inputs": [
						{
							"internalType": "address",
							"name": "",
							"type": "address"
						}
					],
					"name": "balanceOf",
					"outputs": [
						{
							"internalType": "uint256",
							"name": "",
							"type": "uint256"
						}
					],
					"stateMutability": "view",
					"type": "function"
				},
				{
					"inputs": [
						{
							"internalType": "uint256",
							"name": "_shares",
							"type": "uint256"
						}
					],
					"name": "removeLiquidity",
					"outputs": [
						{
							"internalType": "uint256",
							"name": "amount0",
							"type": "uint256"
						},
						{
							"internalType": "uint256",
							"name": "amount1",
							"type": "uint256"
						}
					],
					"stateMutability": "nonpayable",
					"type": "function"
				},
				{
					"inputs": [],
					"name": "reserve0",
					"outputs": [
						{
							"internalType": "uint256",
							"name": "",
							"type": "uint256"
						}
					],
					"stateMutability": "view",
					"type": "function"
				},
				{
					"inputs": [],
					"name": "reserve1",
					"outputs": [
						{
							"internalType": "uint256",
							"name": "",
							"type": "uint256"
						}
					],
					"stateMutability": "view",
					"type": "function"
				},
				{
					"inputs": [
						{
							"internalType": "address",
							"name": "_tokenIn",
							"type": "address"
						},
						{
							"internalType": "uint256",
							"name": "_amountIn",
							"type": "uint256"
						}
					],
					"name": "swap",
					"outputs": [
						{
							"internalType": "uint256",
							"name": "amountOut",
							"type": "uint256"
						}
					],
					"stateMutability": "nonpayable",
					"type": "function"
				},
				{
					"inputs": [],
					"name": "token0",
					"outputs": [
						{
							"internalType": "contract IERC20",
							"name": "",
							"type": "address"
						}
					],
					"stateMutability": "view",
					"type": "function"
				},
				{
					"inputs": [],
					"name": "token1",
					"outputs": [
						{
							"internalType": "contract IERC20",
							"name": "",
							"type": "address"
						}
					],
					"stateMutability": "view",
					"type": "function"
				},
				{
					"inputs": [],
					"name": "totalSupply",
					"outputs": [
						{
							"internalType": "uint256",
							"name": "",
							"type": "uint256"
						}
					],
					"stateMutability": "view",
					"type": "function"
				}
			],
			"devdoc": {
				"kind": "dev",
				"methods": {},
				"version": 1
			},
			"evm": {
				"assembly": "    /* \"SolidityByExample/4_DeFi/14_ConstantProductAMM.sol\":114:6251  contract CPAMM {... */\n  mstore(0x40, 0xc0)\n    /* \"SolidityByExample/4_DeFi/14_ConstantProductAMM.sol\":338:459  constructor(address _token0, address _token1) {... */\n  callvalue\n  dup1\n  iszero\n  tag_1\n  jumpi\n  0x00\n  dup1\n  revert\ntag_1:\n  pop\n  mload(0x40)\n  sub(codesize, bytecodeSize)\n  dup1\n  bytecodeSize\n  dup4\n  codecopy\n  dup2\n  dup2\n  add\n  0x40\n  mstore\n  dup2\n  add\n  swap1\n  tag_2\n  swap2\n  swap1\n  tag_3\n  jump\t// in\ntag_2:\n    /* \"SolidityByExample/4_DeFi/14_ConstantProductAMM.sol\":410:417  _token0 */\n  dup2\n    /* \"SolidityByExample/4_DeFi/14_ConstantProductAMM.sol\":394:418  token0 = IERC20(_token0) */\n  0xffffffffffffffffffffffffffffffffffffffff\n  and\n  0x80\n  dup2\n  0xffffffffffffffffffffffffffffffffffffffff\n  and\n  dup2\n  mstore\n  pop\n  pop\n    /* \"SolidityByExample/4_DeFi/14_ConstantProductAMM.sol\":444:451  _token1 */\n  dup1\n    /* \"SolidityByExample/4_DeFi/14_ConstantProductAMM.sol\":428:452  token1 = IERC20(_token1) */\n  0xffffffffffffffffffffffffffffffffffffffff\n  and\n  0xa0\n  dup2\n  0xffffffffffffffffffffffffffffffffffffffff\n  and\n  dup2\n  mstore\n  pop\n  pop\n    /* \"SolidityByExample/4_DeFi/14_ConstantProductAMM.sol\":338:459  constructor(address _token0, address _token1) {... */\n  pop\n  pop\n    /* \"SolidityByExample/4_DeFi/14_ConstantProductAMM.sol\":114:6251  contract CPAMM {... */\n  jump(tag_6)\n    /* \"#utility.yul\":88:205   */\ntag_8:\n    /* \"#utility.yul\":197:198   */\n  0x00\n    /* \"#utility.yul\":194:195   */\n  dup1\n    /* \"#utility.yul\":187:199   */\n  revert\n    /* \"#utility.yul\":334:460   */\ntag_10:\n    /* \"#utility.yul\":371:378   */\n  0x00\n    /* \"#utility.yul\":411:453   */\n  0xffffffffffffffffffffffffffffffffffffffff\n    /* \"#utility.yul\":404:409   */\n  dup3\n    /* \"#utility.yul\":400:454   */\n  and\n    /* \"#utility.yul\":389:454   */\n  swap1\n  pop\n    /* \"#utility.yul\":334:460   */\n  swap2\n  swap1\n  pop\n  jump\t// out\n    /* \"#utility.yul\":466:562   */\ntag_11:\n    /* \"#utility.yul\":503:510   */\n  0x00\n    /* \"#utility.yul\":532:556   */\n  tag_20\n    /* \"#utility.yul\":550:555   */\n  dup3\n    /* \"#utility.yul\":532:556   */\n  tag_10\n  jump\t// in\ntag_20:\n    /* \"#utility.yul\":521:556   */\n  swap1\n  pop\n    /* \"#utility.yul\":466:562   */\n  swap2\n  swap1\n  pop\n  jump\t// out\n    /* \"#utility.yul\":568:690   */\ntag_12:\n    /* \"#utility.yul\":641:665   */\n  tag_22\n    /* \"#utility.yul\":659:664   */\n  dup2\n    /* \"#utility.yul\":641:665   */\n  tag_11\n  jump\t// in\ntag_22:\n    /* \"#utility.yul\":634:639   */\n  dup2\n    /* \"#utility.yul\":631:666   */\n  eq\n    /* \"#utility.yul\":621:684   */\n  tag_23\n  jumpi\n    /* \"#utility.yul\":680:681   */\n  0x00\n    /* \"#utility.yul\":677:678   */\n  dup1\n    /* \"#utility.yul\":670:682   */\n  revert\n    /* \"#utility.yul\":621:684   */\ntag_23:\n    /* \"#utility.yul\":568:690   */\n  pop\n  jump\t// out\n    /* \"#utility.yul\":696:839   */\ntag_13:\n    /* \"#utility.yul\":753:758   */\n  0x00\n    /* \"#utility.yul\":784:790   */\n  dup2\n    /* \"#utility.yul\":778:791   */\n  mload\n    /* \"#utility.yul\":769:791   */\n  swap1\n  pop\n    /* \"#utility.yul\":800:833   */\n  tag_25\n    /* \"#utility.yul\":827:832   */\n  dup2\n    /* \"#utility.yul\":800:833   */\n  tag_12\n  jump\t// in\ntag_25:\n    /* \"#utility.yul\":696:839   */\n  swap3\n  swap2\n  pop\n  pop\n  jump\t// out\n    /* \"#utility.yul\":845:1352   */\ntag_3:\n    /* \"#utility.yul\":924:930   */\n  0x00\n    /* \"#utility.yul\":932:938   */\n  dup1\n    /* \"#utility.yul\":981:983   */\n  0x40\n    /* \"#utility.yul\":969:978   */\n  dup4\n    /* \"#utility.yul\":960:967   */\n  dup6\n    /* \"#utility.yul\":956:979   */\n  sub\n    /* \"#utility.yul\":952:984   */\n  slt\n    /* \"#utility.yul\":949:1068   */\n  iszero\n  tag_27\n  jumpi\n    /* \"#utility.yul\":987:1066   */\n  tag_28\n  tag_8\n  jump\t// in\ntag_28:\n    /* \"#utility.yul\":949:1068   */\ntag_27:\n    /* \"#utility.yul\":1107:1108   */\n  0x00\n    /* \"#utility.yul\":1132:1196   */\n  tag_29\n    /* \"#utility.yul\":1188:1195   */\n  dup6\n    /* \"#utility.yul\":1179:1185   */\n  dup3\n    /* \"#utility.yul\":1168:1177   */\n  dup7\n    /* \"#utility.yul\":1164:1186   */\n  add\n    /* \"#utility.yul\":1132:1196   */\n  tag_13\n  jump\t// in\ntag_29:\n    /* \"#utility.yul\":1122:1196   */\n  swap3\n  pop\n    /* \"#utility.yul\":1078:1206   */\n  pop\n    /* \"#utility.yul\":1245:1247   */\n  0x20\n    /* \"#utility.yul\":1271:1335   */\n  tag_30\n    /* \"#utility.yul\":1327:1334   */\n  dup6\n    /* \"#utility.yul\":1318:1324   */\n  dup3\n    /* \"#utility.yul\":1307:1316   */\n  dup7\n    /* \"#utility.yul\":1303:1325   */\n  add\n    /* \"#utility.yul\":1271:1335   */\n  tag_13\n  jump\t// in\ntag_30:\n    /* \"#utility.yul\":1261:1335   */\n  swap2\n  pop\n    /* \"#utility.yul\":1216:1345   */\n  pop\n    /* \"#utility.yul\":845:1352   */\n  swap3\n  pop\n  swap3\n  swap1\n  pop\n  jump\t// out\n    /* \"SolidityByExample/4_DeFi/14_ConstantProductAMM.sol\":114:6251  contract CPAMM {... */\ntag_6:\n  mload(0x80)\n  mload(0xa0)\n  codecopy(0x00, dataOffset(sub_0), dataSize(sub_0))\n  0x00\n  assignImmutable(\"0x52f1a9b320cab38e5da8a8f97989383aab0a49165fc91c737310e4f7e9821021\")\n  0x00\n  assignImmutable(\"0x13600b294191fc92924bb3ce4b969c1e7e2bab8f4c93c3fc6d0a51733df3c060\")\n  return(0x00, dataSize(sub_0))\nstop\n\nsub_0: assembly {\n        /* \"SolidityByExample/4_DeFi/14_ConstantProductAMM.sol\":114:6251  contract CPAMM {... */\n      mstore(0x40, 0x80)\n      callvalue\n      dup1\n      iszero\n      tag_1\n      jumpi\n      0x00\n      dup1\n      revert\n    tag_1:\n      pop\n      jumpi(tag_2, lt(calldatasize, 0x04))\n      shr(0xe0, calldataload(0x00))\n      dup1\n      0x70a08231\n      gt\n      tag_12\n      jumpi\n      dup1\n      0x70a08231\n      eq\n      tag_7\n      jumpi\n      dup1\n      0x9c8f9f23\n      eq\n      tag_8\n      jumpi\n      dup1\n      0x9cd441da\n      eq\n      tag_9\n      jumpi\n      dup1\n      0xd004f0f7\n      eq\n      tag_10\n      jumpi\n      dup1\n      0xd21220a7\n      eq\n      tag_11\n      jumpi\n      jump(tag_2)\n    tag_12:\n      dup1\n      0x0dfe1681\n      eq\n      tag_3\n      jumpi\n      dup1\n      0x18160ddd\n      eq\n      tag_4\n      jumpi\n      dup1\n      0x443cb4bc\n      eq\n      tag_5\n      jumpi\n      dup1\n      0x5a76f25e\n      eq\n      tag_6\n      jumpi\n    tag_2:\n      0x00\n      dup1\n      revert\n        /* \"SolidityByExample/4_DeFi/14_ConstantProductAMM.sol\":135:165  IERC20 public immutable token0 */\n    tag_3:\n      tag_13\n      tag_14\n      jump\t// in\n    tag_13:\n      mload(0x40)\n      tag_15\n      swap2\n      swap1\n      tag_16\n      jump\t// in\n    tag_15:\n      mload(0x40)\n      dup1\n      swap2\n      sub\n      swap1\n      return\n        /* \"SolidityByExample/4_DeFi/14_ConstantProductAMM.sol\":261:284  uint public totalSupply */\n    tag_4:\n      tag_17\n      tag_18\n      jump\t// in\n    tag_17:\n      mload(0x40)\n      tag_19\n      swap2\n      swap1\n      tag_20\n      jump\t// in\n    tag_19:\n      mload(0x40)\n      dup1\n      swap2\n      sub\n      swap1\n      return\n        /* \"SolidityByExample/4_DeFi/14_ConstantProductAMM.sol\":208:228  uint public reserve0 */\n    tag_5:\n      tag_21\n      tag_22\n      jump\t// in\n    tag_21:\n      mload(0x40)\n      tag_23\n      swap2\n      swap1\n      tag_20\n      jump\t// in\n    tag_23:\n      mload(0x40)\n      dup1\n      swap2\n      sub\n      swap1\n      return\n        /* \"SolidityByExample/4_DeFi/14_ConstantProductAMM.sol\":234:254  uint public reserve1 */\n    tag_6:\n      tag_24\n      tag_25\n      jump\t// in\n    tag_24:\n      mload(0x40)\n      tag_26\n      swap2\n      swap1\n      tag_20\n      jump\t// in\n    tag_26:\n      mload(0x40)\n      dup1\n      swap2\n      sub\n      swap1\n      return\n        /* \"SolidityByExample/4_DeFi/14_ConstantProductAMM.sol\":290:331  mapping(address => uint) public balanceOf */\n    tag_7:\n      tag_27\n      0x04\n      dup1\n      calldatasize\n      sub\n      dup2\n      add\n      swap1\n      tag_28\n      swap2\n      swap1\n      tag_29\n      jump\t// in\n    tag_28:\n      tag_30\n      jump\t// in\n    tag_27:\n      mload(0x40)\n      tag_31\n      swap2\n      swap1\n      tag_20\n      jump\t// in\n    tag_31:\n      mload(0x40)\n      dup1\n      swap2\n      sub\n      swap1\n      return\n        /* \"SolidityByExample/4_DeFi/14_ConstantProductAMM.sol\":4422:5849  function removeLiquidity(uint _shares)... */\n    tag_8:\n      tag_32\n      0x04\n      dup1\n      calldatasize\n      sub\n      dup2\n      add\n      swap1\n      tag_33\n      swap2\n      swap1\n      tag_34\n      jump\t// in\n    tag_33:\n      tag_35\n      jump\t// in\n    tag_32:\n      mload(0x40)\n      tag_36\n      swap3\n      swap2\n      swap1\n      tag_37\n      jump\t// in\n    tag_36:\n      mload(0x40)\n      dup1\n      swap2\n      sub\n      swap1\n      return\n        /* \"SolidityByExample/4_DeFi/14_ConstantProductAMM.sol\":1994:4416  function addLiquidity(uint _amount0, uint _amount1) external returns (uint shares) {... */\n    tag_9:\n      tag_38\n      0x04\n      dup1\n      calldatasize\n      sub\n      dup2\n      add\n      swap1\n      tag_39\n      swap2\n      swap1\n      tag_40\n      jump\t// in\n    tag_39:\n      tag_41\n      jump\t// in\n    tag_38:\n      mload(0x40)\n      tag_42\n      swap2\n      swap1\n      tag_20\n      jump\t// in\n    tag_42:\n      mload(0x40)\n      dup1\n      swap2\n      sub\n      swap1\n      return\n        /* \"SolidityByExample/4_DeFi/14_ConstantProductAMM.sol\":859:1988  function swap(address _tokenIn, uint _amountIn) external returns (uint amountOut) {... */\n    tag_10:\n      tag_43\n      0x04\n      dup1\n      calldatasize\n      sub\n      dup2\n      add\n      swap1\n      tag_44\n      swap2\n      swap1\n      tag_45\n      jump\t// in\n    tag_44:\n      tag_46\n      jump\t// in\n    tag_43:\n      mload(0x40)\n      tag_47\n      swap2\n      swap1\n      tag_20\n      jump\t// in\n    tag_47:\n      mload(0x40)\n      dup1\n      swap2\n      sub\n      swap1\n      return\n        /* \"SolidityByExample/4_DeFi/14_ConstantProductAMM.sol\":171:201  IERC20 public immutable token1 */\n    tag_11:\n      tag_48\n      tag_49\n      jump\t// in\n    tag_48:\n      mload(0x40)\n      tag_50\n      swap2\n      swap1\n      tag_16\n      jump\t// in\n    tag_50:\n      mload(0x40)\n      dup1\n      swap2\n      sub\n      swap1\n      return\n        /* \"SolidityByExample/4_DeFi/14_ConstantProductAMM.sol\":135:165  IERC20 public immutable token0 */\n    tag_14:\n      immutable(\"0x13600b294191fc92924bb3ce4b969c1e7e2bab8f4c93c3fc6d0a51733df3c060\")\n      dup2\n      jump\t// out\n        /* \"SolidityByExample/4_DeFi/14_ConstantProductAMM.sol\":261:284  uint public totalSupply */\n    tag_18:\n      sload(0x02)\n      dup2\n      jump\t// out\n        /* \"SolidityByExample/4_DeFi/14_ConstantProductAMM.sol\":208:228  uint public reserve0 */\n    tag_22:\n      sload(0x00)\n      dup2\n      jump\t// out\n        /* \"SolidityByExample/4_DeFi/14_ConstantProductAMM.sol\":234:254  uint public reserve1 */\n    tag_25:\n      sload(0x01)\n      dup2\n      jump\t// out\n        /* \"SolidityByExample/4_DeFi/14_ConstantProductAMM.sol\":290:331  mapping(address => uint) public balanceOf */\n    tag_30:\n      mstore(0x20, 0x03)\n      dup1\n      0x00\n      mstore\n      keccak256(0x00, 0x40)\n      0x00\n      swap2\n      pop\n      swap1\n      pop\n      sload\n      dup2\n      jump\t// out\n        /* \"SolidityByExample/4_DeFi/14_ConstantProductAMM.sol\":4422:5849  function removeLiquidity(uint _shares)... */\n    tag_35:\n        /* \"SolidityByExample/4_DeFi/14_ConstantProductAMM.sol\":4495:4507  uint amount0 */\n      0x00\n        /* \"SolidityByExample/4_DeFi/14_ConstantProductAMM.sol\":4509:4521  uint amount1 */\n      dup1\n        /* \"SolidityByExample/4_DeFi/14_ConstantProductAMM.sol\":5395:5404  uint bal0 */\n      0x00\n        /* \"SolidityByExample/4_DeFi/14_ConstantProductAMM.sol\":5407:5413  token0 */\n      immutable(\"0x13600b294191fc92924bb3ce4b969c1e7e2bab8f4c93c3fc6d0a51733df3c060\")\n        /* \"SolidityByExample/4_DeFi/14_ConstantProductAMM.sol\":5407:5423  token0.balanceOf */\n      0xffffffffffffffffffffffffffffffffffffffff\n      and\n      0x70a08231\n        /* \"SolidityByExample/4_DeFi/14_ConstantProductAMM.sol\":5432:5436  this */\n      address\n        /* \"SolidityByExample/4_DeFi/14_ConstantProductAMM.sol\":5407:5438  token0.balanceOf(address(this)) */\n      mload(0x40)\n      dup3\n      0xffffffff\n      and\n      0xe0\n      shl\n      dup2\n      mstore\n      0x04\n      add\n      tag_52\n      swap2\n      swap1\n      tag_53\n      jump\t// in\n    tag_52:\n      0x20\n      mload(0x40)\n      dup1\n      dup4\n      sub\n      dup2\n      dup7\n      gas\n      staticcall\n      iszero\n      dup1\n      iszero\n      tag_55\n      jumpi\n      returndatasize\n      0x00\n      dup1\n      returndatacopy\n      revert(0x00, returndatasize)\n    tag_55:\n      pop\n      pop\n      pop\n      pop\n      mload(0x40)\n      returndatasize\n      not(0x1f)\n      0x1f\n      dup3\n      add\n      and\n      dup3\n      add\n      dup1\n      0x40\n      mstore\n      pop\n      dup2\n      add\n      swap1\n      tag_56\n      swap2\n      swap1\n      tag_57\n      jump\t// in\n    tag_56:\n        /* \"SolidityByExample/4_DeFi/14_ConstantProductAMM.sol\":5395:5438  uint bal0 = token0.balanceOf(address(this)) */\n      swap1\n      pop\n        /* \"SolidityByExample/4_DeFi/14_ConstantProductAMM.sol\":5448:5457  uint bal1 */\n      0x00\n        /* \"SolidityByExample/4_DeFi/14_ConstantProductAMM.sol\":5460:5466  token1 */\n      immutable(\"0x52f1a9b320cab38e5da8a8f97989383aab0a49165fc91c737310e4f7e9821021\")\n        /* \"SolidityByExample/4_DeFi/14_ConstantProductAMM.sol\":5460:5476  token1.balanceOf */\n      0xffffffffffffffffffffffffffffffffffffffff\n      and\n      0x70a08231\n        /* \"SolidityByExample/4_DeFi/14_ConstantProductAMM.sol\":5485:5489  this */\n      address\n        /* \"SolidityByExample/4_DeFi/14_ConstantProductAMM.sol\":5460:5491  token1.balanceOf(address(this)) */\n      mload(0x40)\n      dup3\n      0xffffffff\n      and\n      0xe0\n      shl\n      dup2\n      mstore\n      0x04\n      add\n      tag_58\n      swap2\n      swap1\n      tag_53\n      jump\t// in\n    tag_58:\n      0x20\n      mload(0x40)\n      dup1\n      dup4\n      sub\n      dup2\n      dup7\n      gas\n      staticcall\n      iszero\n      dup1\n      iszero\n      tag_60\n      jumpi\n      returndatasize\n      0x00\n      dup1\n      returndatacopy\n      revert(0x00, returndatasize)\n    tag_60:\n      pop\n      pop\n      pop\n      pop\n      mload(0x40)\n      returndatasize\n      not(0x1f)\n      0x1f\n      dup3\n      add\n      and\n      dup3\n      add\n      dup1\n      0x40\n      mstore\n      pop\n      dup2\n      add\n      swap1\n      tag_61\n      swap2\n      swap1\n      tag_57\n      jump\t// in\n    tag_61:\n        /* \"SolidityByExample/4_DeFi/14_ConstantProductAMM.sol\":5448:5491  uint bal1 = token1.balanceOf(address(this)) */\n      swap1\n      pop\n        /* \"SolidityByExample/4_DeFi/14_ConstantProductAMM.sol\":5531:5542  totalSupply */\n      sload(0x02)\n        /* \"SolidityByExample/4_DeFi/14_ConstantProductAMM.sol\":5523:5527  bal0 */\n      dup3\n        /* \"SolidityByExample/4_DeFi/14_ConstantProductAMM.sol\":5513:5520  _shares */\n      dup7\n        /* \"SolidityByExample/4_DeFi/14_ConstantProductAMM.sol\":5513:5527  _shares * bal0 */\n      tag_62\n      swap2\n      swap1\n      tag_63\n      jump\t// in\n    tag_62:\n        /* \"SolidityByExample/4_DeFi/14_ConstantProductAMM.sol\":5512:5542  (_shares * bal0) / totalSupply */\n      tag_64\n      swap2\n      swap1\n      tag_65\n      jump\t// in\n    tag_64:\n        /* \"SolidityByExample/4_DeFi/14_ConstantProductAMM.sol\":5502:5542  amount0 = (_shares * bal0) / totalSupply */\n      swap4\n      pop\n        /* \"SolidityByExample/4_DeFi/14_ConstantProductAMM.sol\":5581:5592  totalSupply */\n      sload(0x02)\n        /* \"SolidityByExample/4_DeFi/14_ConstantProductAMM.sol\":5573:5577  bal1 */\n      dup2\n        /* \"SolidityByExample/4_DeFi/14_ConstantProductAMM.sol\":5563:5570  _shares */\n      dup7\n        /* \"SolidityByExample/4_DeFi/14_ConstantProductAMM.sol\":5563:5577  _shares * bal1 */\n      tag_66\n      swap2\n      swap1\n      tag_63\n      jump\t// in\n    tag_66:\n        /* \"SolidityByExample/4_DeFi/14_ConstantProductAMM.sol\":5562:5592  (_shares * bal1) / totalSupply */\n      tag_67\n      swap2\n      swap1\n      tag_65\n      jump\t// in\n    tag_67:\n        /* \"SolidityByExample/4_DeFi/14_ConstantProductAMM.sol\":5552:5592  amount1 = (_shares * bal1) / totalSupply */\n      swap3\n      pop\n        /* \"SolidityByExample/4_DeFi/14_ConstantProductAMM.sol\":5620:5621  0 */\n      0x00\n        /* \"SolidityByExample/4_DeFi/14_ConstantProductAMM.sol\":5610:5617  amount0 */\n      dup5\n        /* \"SolidityByExample/4_DeFi/14_ConstantProductAMM.sol\":5610:5621  amount0 > 0 */\n      gt\n        /* \"SolidityByExample/4_DeFi/14_ConstantProductAMM.sol\":5610:5636  amount0 > 0 && amount1 > 0 */\n      dup1\n      iszero\n      tag_68\n      jumpi\n      pop\n        /* \"SolidityByExample/4_DeFi/14_ConstantProductAMM.sol\":5635:5636  0 */\n      0x00\n        /* \"SolidityByExample/4_DeFi/14_ConstantProductAMM.sol\":5625:5632  amount1 */\n      dup4\n        /* \"SolidityByExample/4_DeFi/14_ConstantProductAMM.sol\":5625:5636  amount1 > 0 */\n      gt\n        /* \"SolidityByExample/4_DeFi/14_ConstantProductAMM.sol\":5610:5636  amount0 > 0 && amount1 > 0 */\n    tag_68:\n        /* \"SolidityByExample/4_DeFi/14_ConstantProductAMM.sol\":5602:5663  require(amount0 > 0 && amount1 > 0, \"amount0 or amount1 = 0\") */\n      tag_69\n      jumpi\n      mload(0x40)\n      0x08c379a000000000000000000000000000000000000000000000000000000000\n      dup2\n      mstore\n      0x04\n      add\n      tag_70\n      swap1\n      tag_71\n      jump\t// in\n    tag_70:\n      mload(0x40)\n      dup1\n      swap2\n      sub\n      swap1\n      revert\n    tag_69:\n        /* \"SolidityByExample/4_DeFi/14_ConstantProductAMM.sol\":5674:5700  _burn(msg.sender, _shares) */\n      tag_72\n        /* \"SolidityByExample/4_DeFi/14_ConstantProductAMM.sol\":5680:5690  msg.sender */\n      caller\n        /* \"SolidityByExample/4_DeFi/14_ConstantProductAMM.sol\":5692:5699  _shares */\n      dup7\n        /* \"SolidityByExample/4_DeFi/14_ConstantProductAMM.sol\":5674:5679  _burn */\n      tag_73\n        /* \"SolidityByExample/4_DeFi/14_ConstantProductAMM.sol\":5674:5700  _burn(msg.sender, _shares) */\n      jump\t// in\n    tag_72:\n        /* \"SolidityByExample/4_DeFi/14_ConstantProductAMM.sol\":5710:5749  _update(bal0 - amount0, bal1 - amount1) */\n      tag_74\n        /* \"SolidityByExample/4_DeFi/14_ConstantProductAMM.sol\":5725:5732  amount0 */\n      dup5\n        /* \"SolidityByExample/4_DeFi/14_ConstantProductAMM.sol\":5718:5722  bal0 */\n      dup4\n        /* \"SolidityByExample/4_DeFi/14_ConstantProductAMM.sol\":5718:5732  bal0 - amount0 */\n      tag_75\n      swap2\n      swap1\n      tag_76\n      jump\t// in\n    tag_75:\n        /* \"SolidityByExample/4_DeFi/14_ConstantProductAMM.sol\":5741:5748  amount1 */\n      dup5\n        /* \"SolidityByExample/4_DeFi/14_ConstantProductAMM.sol\":5734:5738  bal1 */\n      dup4\n        /* \"SolidityByExample/4_DeFi/14_ConstantProductAMM.sol\":5734:5748  bal1 - amount1 */\n      tag_77\n      swap2\n      swap1\n      tag_76\n      jump\t// in\n    tag_77:\n        /* \"SolidityByExample/4_DeFi/14_ConstantProductAMM.sol\":5710:5717  _update */\n      tag_78\n        /* \"SolidityByExample/4_DeFi/14_ConstantProductAMM.sol\":5710:5749  _update(bal0 - amount0, bal1 - amount1) */\n      jump\t// in\n    tag_74:\n        /* \"SolidityByExample/4_DeFi/14_ConstantProductAMM.sol\":5760:5766  token0 */\n      immutable(\"0x13600b294191fc92924bb3ce4b969c1e7e2bab8f4c93c3fc6d0a51733df3c060\")\n        /* \"SolidityByExample/4_DeFi/14_ConstantProductAMM.sol\":5760:5775  token0.transfer */\n      0xffffffffffffffffffffffffffffffffffffffff\n      and\n      0xa9059cbb\n        /* \"SolidityByExample/4_DeFi/14_ConstantProductAMM.sol\":5776:5786  msg.sender */\n      caller\n        /* \"SolidityByExample/4_DeFi/14_ConstantProductAMM.sol\":5788:5795  amount0 */\n      dup7\n        /* \"SolidityByExample/4_DeFi/14_ConstantProductAMM.sol\":5760:5796  token0.transfer(msg.sender, amount0) */\n      mload(0x40)\n      dup4\n      0xffffffff\n      and\n      0xe0\n      shl\n      dup2\n      mstore\n      0x04\n      add\n      tag_79\n      swap3\n      swap2\n      swap1\n      tag_80\n      jump\t// in\n    tag_79:\n      0x20\n      mload(0x40)\n      dup1\n      dup4\n      sub\n      dup2\n      0x00\n      dup8\n      gas\n      call\n      iszero\n      dup1\n      iszero\n      tag_82\n      jumpi\n      returndatasize\n      0x00\n      dup1\n      returndatacopy\n      revert(0x00, returndatasize)\n    tag_82:\n      pop\n      pop\n      pop\n      pop\n      mload(0x40)\n      returndatasize\n      not(0x1f)\n      0x1f\n      dup3\n      add\n      and\n      dup3\n      add\n      dup1\n      0x40\n      mstore\n      pop\n      dup2\n      add\n      swap1\n      tag_83\n      swap2\n      swap1\n      tag_84\n      jump\t// in\n    tag_83:\n      pop\n        /* \"SolidityByExample/4_DeFi/14_ConstantProductAMM.sol\":5806:5812  token1 */\n      immutable(\"0x52f1a9b320cab38e5da8a8f97989383aab0a49165fc91c737310e4f7e9821021\")\n        /* \"SolidityByExample/4_DeFi/14_ConstantProductAMM.sol\":5806:5821  token1.transfer */\n      0xffffffffffffffffffffffffffffffffffffffff\n      and\n      0xa9059cbb\n        /* \"SolidityByExample/4_DeFi/14_ConstantProductAMM.sol\":5822:5832  msg.sender */\n      caller\n        /* \"SolidityByExample/4_DeFi/14_ConstantProductAMM.sol\":5834:5841  amount1 */\n      dup6\n        /* \"SolidityByExample/4_DeFi/14_ConstantProductAMM.sol\":5806:5842  token1.transfer(msg.sender, amount1) */\n      mload(0x40)\n      dup4\n      0xffffffff\n      and\n      0xe0\n      shl\n      dup2\n      mstore\n      0x04\n      add\n      tag_85\n      swap3\n      swap2\n      swap1\n      tag_80\n      jump\t// in\n    tag_85:\n      0x20\n      mload(0x40)\n      dup1\n      dup4\n      sub\n      dup2\n      0x00\n      dup8\n      gas\n      call\n      iszero\n      dup1\n      iszero\n      tag_87\n      jumpi\n      returndatasize\n      0x00\n      dup1\n      returndatacopy\n      revert(0x00, returndatasize)\n    tag_87:\n      pop\n      pop\n      pop\n      pop\n      mload(0x40)\n      returndatasize\n      not(0x1f)\n      0x1f\n      dup3\n      add\n      and\n      dup3\n      add\n      dup1\n      0x40\n      mstore\n      pop\n      dup2\n      add\n      swap1\n      tag_88\n      swap2\n      swap1\n      tag_84\n      jump\t// in\n    tag_88:\n      pop\n        /* \"SolidityByExample/4_DeFi/14_ConstantProductAMM.sol\":4527:5849  {... */\n      pop\n      pop\n        /* \"SolidityByExample/4_DeFi/14_ConstantProductAMM.sol\":4422:5849  function removeLiquidity(uint _shares)... */\n      swap2\n      pop\n      swap2\n      jump\t// out\n        /* \"SolidityByExample/4_DeFi/14_ConstantProductAMM.sol\":1994:4416  function addLiquidity(uint _amount0, uint _amount1) external returns (uint shares) {... */\n    tag_41:\n        /* \"SolidityByExample/4_DeFi/14_ConstantProductAMM.sol\":2064:2075  uint shares */\n      0x00\n        /* \"SolidityByExample/4_DeFi/14_ConstantProductAMM.sol\":2087:2093  token0 */\n      immutable(\"0x13600b294191fc92924bb3ce4b969c1e7e2bab8f4c93c3fc6d0a51733df3c060\")\n        /* \"SolidityByExample/4_DeFi/14_ConstantProductAMM.sol\":2087:2106  token0.transferFrom */\n      0xffffffffffffffffffffffffffffffffffffffff\n      and\n      0x23b872dd\n        /* \"SolidityByExample/4_DeFi/14_ConstantProductAMM.sol\":2107:2117  msg.sender */\n      caller\n        /* \"SolidityByExample/4_DeFi/14_ConstantProductAMM.sol\":2127:2131  this */\n      address\n        /* \"SolidityByExample/4_DeFi/14_ConstantProductAMM.sol\":2134:2142  _amount0 */\n      dup7\n        /* \"SolidityByExample/4_DeFi/14_ConstantProductAMM.sol\":2087:2143  token0.transferFrom(msg.sender, address(this), _amount0) */\n      mload(0x40)\n      dup5\n      0xffffffff\n      and\n      0xe0\n      shl\n      dup2\n      mstore\n      0x04\n      add\n      tag_90\n      swap4\n      swap3\n      swap2\n      swap1\n      tag_91\n      jump\t// in\n    tag_90:\n      0x20\n      mload(0x40)\n      dup1\n      dup4\n      sub\n      dup2\n      0x00\n      dup8\n      gas\n      call\n      iszero\n      dup1\n      iszero\n      tag_93\n      jumpi\n      returndatasize\n      0x00\n      dup1\n      returndatacopy\n      revert(0x00, returndatasize)\n    tag_93:\n      pop\n      pop\n      pop\n      pop\n      mload(0x40)\n      returndatasize\n      not(0x1f)\n      0x1f\n      dup3\n      add\n      and\n      dup3\n      add\n      dup1\n      0x40\n      mstore\n      pop\n      dup2\n      add\n      swap1\n      tag_94\n      swap2\n      swap1\n      tag_84\n      jump\t// in\n    tag_94:\n      pop\n        /* \"SolidityByExample/4_DeFi/14_ConstantProductAMM.sol\":2153:2159  token1 */\n      immutable(\"0x52f1a9b320cab38e5da8a8f97989383aab0a49165fc91c737310e4f7e9821021\")\n        /* \"SolidityByExample/4_DeFi/14_ConstantProductAMM.sol\":2153:2172  token1.transferFrom */\n      0xffffffffffffffffffffffffffffffffffffffff\n      and\n      0x23b872dd\n        /* \"SolidityByExample/4_DeFi/14_ConstantProductAMM.sol\":2173:2183  msg.sender */\n      caller\n        /* \"SolidityByExample/4_DeFi/14_ConstantProductAMM.sol\":2193:2197  this */\n      address\n        /* \"SolidityByExample/4_DeFi/14_ConstantProductAMM.sol\":2200:2208  _amount1 */\n      dup6\n        /* \"SolidityByExample/4_DeFi/14_ConstantProductAMM.sol\":2153:2209  token1.transferFrom(msg.sender, address(this), _amount1) */\n      mload(0x40)\n      dup5\n      0xffffffff\n      and\n      0xe0\n      shl\n      dup2\n      mstore\n      0x04\n      add\n      tag_95\n      swap4\n      swap3\n      swap2\n      swap1\n      tag_91\n      jump\t// in\n    tag_95:\n      0x20\n      mload(0x40)\n      dup1\n      dup4\n      sub\n      dup2\n      0x00\n      dup8\n      gas\n      call\n      iszero\n      dup1\n      iszero\n      tag_97\n      jumpi\n      returndatasize\n      0x00\n      dup1\n      returndatacopy\n      revert(0x00, returndatasize)\n    tag_97:\n      pop\n      pop\n      pop\n      pop\n      mload(0x40)\n      returndatasize\n      not(0x1f)\n      0x1f\n      dup3\n      add\n      and\n      dup3\n      add\n      dup1\n      0x40\n      mstore\n      pop\n      dup2\n      add\n      swap1\n      tag_98\n      swap2\n      swap1\n      tag_84\n      jump\t// in\n    tag_98:\n      pop\n        /* \"SolidityByExample/4_DeFi/14_ConstantProductAMM.sol\":2535:2536  0 */\n      0x00\n        /* \"SolidityByExample/4_DeFi/14_ConstantProductAMM.sol\":2524:2532  reserve0 */\n      dup1\n      sload\n        /* \"SolidityByExample/4_DeFi/14_ConstantProductAMM.sol\":2524:2536  reserve0 > 0 */\n      gt\n        /* \"SolidityByExample/4_DeFi/14_ConstantProductAMM.sol\":2524:2552  reserve0 > 0 || reserve1 > 0 */\n      dup1\n      tag_99\n      jumpi\n      pop\n        /* \"SolidityByExample/4_DeFi/14_ConstantProductAMM.sol\":2551:2552  0 */\n      0x00\n        /* \"SolidityByExample/4_DeFi/14_ConstantProductAMM.sol\":2540:2548  reserve1 */\n      sload(0x01)\n        /* \"SolidityByExample/4_DeFi/14_ConstantProductAMM.sol\":2540:2552  reserve1 > 0 */\n      gt\n        /* \"SolidityByExample/4_DeFi/14_ConstantProductAMM.sol\":2524:2552  reserve0 > 0 || reserve1 > 0 */\n    tag_99:\n        /* \"SolidityByExample/4_DeFi/14_ConstantProductAMM.sol\":2520:2650  if (reserve0 > 0 || reserve1 > 0) {... */\n      iszero\n      tag_100\n      jumpi\n        /* \"SolidityByExample/4_DeFi/14_ConstantProductAMM.sol\":2610:2618  _amount0 */\n      dup3\n        /* \"SolidityByExample/4_DeFi/14_ConstantProductAMM.sol\":2599:2607  reserve1 */\n      sload(0x01)\n        /* \"SolidityByExample/4_DeFi/14_ConstantProductAMM.sol\":2599:2618  reserve1 * _amount0 */\n      tag_101\n      swap2\n      swap1\n      tag_63\n      jump\t// in\n    tag_101:\n        /* \"SolidityByExample/4_DeFi/14_ConstantProductAMM.sol\":2587:2595  _amount1 */\n      dup3\n        /* \"SolidityByExample/4_DeFi/14_ConstantProductAMM.sol\":2576:2584  reserve0 */\n      sload(0x00)\n        /* \"SolidityByExample/4_DeFi/14_ConstantProductAMM.sol\":2576:2595  reserve0 * _amount1 */\n      tag_102\n      swap2\n      swap1\n      tag_63\n      jump\t// in\n    tag_102:\n        /* \"SolidityByExample/4_DeFi/14_ConstantProductAMM.sol\":2576:2618  reserve0 * _amount1 == reserve1 * _amount0 */\n      eq\n        /* \"SolidityByExample/4_DeFi/14_ConstantProductAMM.sol\":2568:2639  require(reserve0 * _amount1 == reserve1 * _amount0, \"x / y != dx / dy\") */\n      tag_103\n      jumpi\n      mload(0x40)\n      0x08c379a000000000000000000000000000000000000000000000000000000000\n      dup2\n      mstore\n      0x04\n      add\n      tag_104\n      swap1\n      tag_105\n      jump\t// in\n    tag_104:\n      mload(0x40)\n      dup1\n      swap2\n      sub\n      swap1\n      revert\n    tag_103:\n        /* \"SolidityByExample/4_DeFi/14_ConstantProductAMM.sol\":2520:2650  if (reserve0 > 0 || reserve1 > 0) {... */\n    tag_100:\n        /* \"SolidityByExample/4_DeFi/14_ConstantProductAMM.sol\":4021:4022  0 */\n      0x00\n        /* \"SolidityByExample/4_DeFi/14_ConstantProductAMM.sol\":4006:4017  totalSupply */\n      sload(0x02)\n        /* \"SolidityByExample/4_DeFi/14_ConstantProductAMM.sol\":4006:4022  totalSupply == 0 */\n      sub\n        /* \"SolidityByExample/4_DeFi/14_ConstantProductAMM.sol\":4002:4248  if (totalSupply == 0) {... */\n      tag_106\n      jumpi\n        /* \"SolidityByExample/4_DeFi/14_ConstantProductAMM.sol\":4047:4073  _sqrt(_amount0 * _amount1) */\n      tag_107\n        /* \"SolidityByExample/4_DeFi/14_ConstantProductAMM.sol\":4064:4072  _amount1 */\n      dup3\n        /* \"SolidityByExample/4_DeFi/14_ConstantProductAMM.sol\":4053:4061  _amount0 */\n      dup5\n        /* \"SolidityByExample/4_DeFi/14_ConstantProductAMM.sol\":4053:4072  _amount0 * _amount1 */\n      tag_108\n      swap2\n      swap1\n      tag_63\n      jump\t// in\n    tag_108:\n        /* \"SolidityByExample/4_DeFi/14_ConstantProductAMM.sol\":4047:4052  _sqrt */\n      tag_109\n        /* \"SolidityByExample/4_DeFi/14_ConstantProductAMM.sol\":4047:4073  _sqrt(_amount0 * _amount1) */\n      jump\t// in\n    tag_107:\n        /* \"SolidityByExample/4_DeFi/14_ConstantProductAMM.sol\":4038:4073  shares = _sqrt(_amount0 * _amount1) */\n      swap1\n      pop\n        /* \"SolidityByExample/4_DeFi/14_ConstantProductAMM.sol\":4002:4248  if (totalSupply == 0) {... */\n      jump(tag_110)\n    tag_106:\n        /* \"SolidityByExample/4_DeFi/14_ConstantProductAMM.sol\":4113:4237  _min(... */\n      tag_111\n        /* \"SolidityByExample/4_DeFi/14_ConstantProductAMM.sol\":4162:4170  reserve0 */\n      sload(0x00)\n        /* \"SolidityByExample/4_DeFi/14_ConstantProductAMM.sol\":4147:4158  totalSupply */\n      sload(0x02)\n        /* \"SolidityByExample/4_DeFi/14_ConstantProductAMM.sol\":4136:4144  _amount0 */\n      dup6\n        /* \"SolidityByExample/4_DeFi/14_ConstantProductAMM.sol\":4136:4158  _amount0 * totalSupply */\n      tag_112\n      swap2\n      swap1\n      tag_63\n      jump\t// in\n    tag_112:\n        /* \"SolidityByExample/4_DeFi/14_ConstantProductAMM.sol\":4135:4170  (_amount0 * totalSupply) / reserve0 */\n      tag_113\n      swap2\n      swap1\n      tag_65\n      jump\t// in\n    tag_113:\n        /* \"SolidityByExample/4_DeFi/14_ConstantProductAMM.sol\":4215:4223  reserve1 */\n      sload(0x01)\n        /* \"SolidityByExample/4_DeFi/14_ConstantProductAMM.sol\":4200:4211  totalSupply */\n      sload(0x02)\n        /* \"SolidityByExample/4_DeFi/14_ConstantProductAMM.sol\":4189:4197  _amount1 */\n      dup6\n        /* \"SolidityByExample/4_DeFi/14_ConstantProductAMM.sol\":4189:4211  _amount1 * totalSupply */\n      tag_114\n      swap2\n      swap1\n      tag_63\n      jump\t// in\n    tag_114:\n        /* \"SolidityByExample/4_DeFi/14_ConstantProductAMM.sol\":4188:4223  (_amount1 * totalSupply) / reserve1 */\n      tag_115\n      swap2\n      swap1\n      tag_65\n      jump\t// in\n    tag_115:\n        /* \"SolidityByExample/4_DeFi/14_ConstantProductAMM.sol\":4113:4117  _min */\n      tag_116\n        /* \"SolidityByExample/4_DeFi/14_ConstantProductAMM.sol\":4113:4237  _min(... */\n      jump\t// in\n    tag_111:\n        /* \"SolidityByExample/4_DeFi/14_ConstantProductAMM.sol\":4104:4237  shares = _min(... */\n      swap1\n      pop\n        /* \"SolidityByExample/4_DeFi/14_ConstantProductAMM.sol\":4002:4248  if (totalSupply == 0) {... */\n    tag_110:\n        /* \"SolidityByExample/4_DeFi/14_ConstantProductAMM.sol\":4274:4275  0 */\n      0x00\n        /* \"SolidityByExample/4_DeFi/14_ConstantProductAMM.sol\":4265:4271  shares */\n      dup2\n        /* \"SolidityByExample/4_DeFi/14_ConstantProductAMM.sol\":4265:4275  shares > 0 */\n      gt\n        /* \"SolidityByExample/4_DeFi/14_ConstantProductAMM.sol\":4257:4290  require(shares > 0, \"shares = 0\") */\n      tag_117\n      jumpi\n      mload(0x40)\n      0x08c379a000000000000000000000000000000000000000000000000000000000\n      dup2\n      mstore\n      0x04\n      add\n      tag_118\n      swap1\n      tag_119\n      jump\t// in\n    tag_118:\n      mload(0x40)\n      dup1\n      swap2\n      sub\n      swap1\n      revert\n    tag_117:\n        /* \"SolidityByExample/4_DeFi/14_ConstantProductAMM.sol\":4300:4325  _mint(msg.sender, shares) */\n      tag_120\n        /* \"SolidityByExample/4_DeFi/14_ConstantProductAMM.sol\":4306:4316  msg.sender */\n      caller\n        /* \"SolidityByExample/4_DeFi/14_ConstantProductAMM.sol\":4318:4324  shares */\n      dup3\n        /* \"SolidityByExample/4_DeFi/14_ConstantProductAMM.sol\":4300:4305  _mint */\n      tag_121\n        /* \"SolidityByExample/4_DeFi/14_ConstantProductAMM.sol\":4300:4325  _mint(msg.sender, shares) */\n      jump\t// in\n    tag_120:\n        /* \"SolidityByExample/4_DeFi/14_ConstantProductAMM.sol\":4336:4409  _update(token0.balanceOf(address(this)), token1.balanceOf(address(this))) */\n      tag_122\n        /* \"SolidityByExample/4_DeFi/14_ConstantProductAMM.sol\":4344:4350  token0 */\n      immutable(\"0x13600b294191fc92924bb3ce4b969c1e7e2bab8f4c93c3fc6d0a51733df3c060\")\n        /* \"SolidityByExample/4_DeFi/14_ConstantProductAMM.sol\":4344:4360  token0.balanceOf */\n      0xffffffffffffffffffffffffffffffffffffffff\n      and\n      0x70a08231\n        /* \"SolidityByExample/4_DeFi/14_ConstantProductAMM.sol\":4369:4373  this */\n      address\n        /* \"SolidityByExample/4_DeFi/14_ConstantProductAMM.sol\":4344:4375  token0.balanceOf(address(this)) */\n      mload(0x40)\n      dup3\n      0xffffffff\n      and\n      0xe0\n      shl\n      dup2\n      mstore\n      0x04\n      add\n      tag_123\n      swap2\n      swap1\n      tag_53\n      jump\t// in\n    tag_123:\n      0x20\n      mload(0x40)\n      dup1\n      dup4\n      sub\n      dup2\n      dup7\n      gas\n      staticcall\n      iszero\n      dup1\n      iszero\n      tag_125\n      jumpi\n      returndatasize\n      0x00\n      dup1\n      returndatacopy\n      revert(0x00, returndatasize)\n    tag_125:\n      pop\n      pop\n      pop\n      pop\n      mload(0x40)\n      returndatasize\n      not(0x1f)\n      0x1f\n      dup3\n      add\n      and\n      dup3\n      add\n      dup1\n      0x40\n      mstore\n      pop\n      dup2\n      add\n      swap1\n      tag_126\n      swap2\n      swap1\n      tag_57\n      jump\t// in\n    tag_126:\n        /* \"SolidityByExample/4_DeFi/14_ConstantProductAMM.sol\":4377:4383  token1 */\n      immutable(\"0x52f1a9b320cab38e5da8a8f97989383aab0a49165fc91c737310e4f7e9821021\")\n        /* \"SolidityByExample/4_DeFi/14_ConstantProductAMM.sol\":4377:4393  token1.balanceOf */\n      0xffffffffffffffffffffffffffffffffffffffff\n      and\n      0x70a08231\n        /* \"SolidityByExample/4_DeFi/14_ConstantProductAMM.sol\":4402:4406  this */\n      address\n        /* \"SolidityByExample/4_DeFi/14_ConstantProductAMM.sol\":4377:4408  token1.balanceOf(address(this)) */\n      mload(0x40)\n      dup3\n      0xffffffff\n      and\n      0xe0\n      shl\n      dup2\n      mstore\n      0x04\n      add\n      tag_127\n      swap2\n      swap1\n      tag_53\n      jump\t// in\n    tag_127:\n      0x20\n      mload(0x40)\n      dup1\n      dup4\n      sub\n      dup2\n      dup7\n      gas\n      staticcall\n      iszero\n      dup1\n      iszero\n      tag_129\n      jumpi\n      returndatasize\n      0x00\n      dup1\n      returndatacopy\n      revert(0x00, returndatasize)\n    tag_129:\n      pop\n      pop\n      pop\n      pop\n      mload(0x40)\n      returndatasize\n      not(0x1f)\n      0x1f\n      dup3\n      add\n      and\n      dup3\n      add\n      dup1\n      0x40\n      mstore\n      pop\n      dup2\n      add\n      swap1\n      tag_130\n      swap2\n      swap1\n      tag_57\n      jump\t// in\n    tag_130:\n        /* \"SolidityByExample/4_DeFi/14_ConstantProductAMM.sol\":4336:4343  _update */\n      tag_78\n        /* \"SolidityByExample/4_DeFi/14_ConstantProductAMM.sol\":4336:4409  _update(token0.balanceOf(address(this)), token1.balanceOf(address(this))) */\n      jump\t// in\n    tag_122:\n        /* \"SolidityByExample/4_DeFi/14_ConstantProductAMM.sol\":1994:4416  function addLiquidity(uint _amount0, uint _amount1) external returns (uint shares) {... */\n      swap3\n      swap2\n      pop\n      pop\n      jump\t// out\n        /* \"SolidityByExample/4_DeFi/14_ConstantProductAMM.sol\":859:1988  function swap(address _tokenIn, uint _amountIn) external returns (uint amountOut) {... */\n    tag_46:\n        /* \"SolidityByExample/4_DeFi/14_ConstantProductAMM.sol\":925:939  uint amountOut */\n      0x00\n        /* \"SolidityByExample/4_DeFi/14_ConstantProductAMM.sol\":992:998  token0 */\n      immutable(\"0x13600b294191fc92924bb3ce4b969c1e7e2bab8f4c93c3fc6d0a51733df3c060\")\n        /* \"SolidityByExample/4_DeFi/14_ConstantProductAMM.sol\":972:999  _tokenIn == address(token0) */\n      0xffffffffffffffffffffffffffffffffffffffff\n      and\n        /* \"SolidityByExample/4_DeFi/14_ConstantProductAMM.sol\":972:980  _tokenIn */\n      dup4\n        /* \"SolidityByExample/4_DeFi/14_ConstantProductAMM.sol\":972:999  _tokenIn == address(token0) */\n      0xffffffffffffffffffffffffffffffffffffffff\n      and\n      eq\n        /* \"SolidityByExample/4_DeFi/14_ConstantProductAMM.sol\":972:1030  _tokenIn == address(token0) || _tokenIn == address(token1) */\n      dup1\n      tag_132\n      jumpi\n      pop\n        /* \"SolidityByExample/4_DeFi/14_ConstantProductAMM.sol\":1023:1029  token1 */\n      immutable(\"0x52f1a9b320cab38e5da8a8f97989383aab0a49165fc91c737310e4f7e9821021\")\n        /* \"SolidityByExample/4_DeFi/14_ConstantProductAMM.sol\":1003:1030  _tokenIn == address(token1) */\n      0xffffffffffffffffffffffffffffffffffffffff\n      and\n        /* \"SolidityByExample/4_DeFi/14_ConstantProductAMM.sol\":1003:1011  _tokenIn */\n      dup4\n        /* \"SolidityByExample/4_DeFi/14_ConstantProductAMM.sol\":1003:1030  _tokenIn == address(token1) */\n      0xffffffffffffffffffffffffffffffffffffffff\n      and\n      eq\n        /* \"SolidityByExample/4_DeFi/14_ConstantProductAMM.sol\":972:1030  _tokenIn == address(token0) || _tokenIn == address(token1) */\n    tag_132:\n        /* \"SolidityByExample/4_DeFi/14_ConstantProductAMM.sol\":951:1069  require(... */\n      tag_133\n      jumpi\n      mload(0x40)\n      0x08c379a000000000000000000000000000000000000000000000000000000000\n      dup2\n      mstore\n      0x04\n      add\n      tag_134\n      swap1\n      tag_135\n      jump\t// in\n    tag_134:\n      mload(0x40)\n      dup1\n      swap2\n      sub\n      swap1\n      revert\n    tag_133:\n        /* \"SolidityByExample/4_DeFi/14_ConstantProductAMM.sol\":1099:1100  0 */\n      0x00\n        /* \"SolidityByExample/4_DeFi/14_ConstantProductAMM.sol\":1087:1096  _amountIn */\n      dup3\n        /* \"SolidityByExample/4_DeFi/14_ConstantProductAMM.sol\":1087:1100  _amountIn > 0 */\n      gt\n        /* \"SolidityByExample/4_DeFi/14_ConstantProductAMM.sol\":1079:1118  require(_amountIn > 0, \"amount in = 0\") */\n      tag_136\n      jumpi\n      mload(0x40)\n      0x08c379a000000000000000000000000000000000000000000000000000000000\n      dup2\n      mstore\n      0x04\n      add\n      tag_137\n      swap1\n      tag_138\n      jump\t// in\n    tag_137:\n      mload(0x40)\n      dup1\n      swap2\n      sub\n      swap1\n      revert\n    tag_136:\n        /* \"SolidityByExample/4_DeFi/14_ConstantProductAMM.sol\":1129:1142  bool isToken0 */\n      0x00\n        /* \"SolidityByExample/4_DeFi/14_ConstantProductAMM.sol\":1165:1171  token0 */\n      immutable(\"0x13600b294191fc92924bb3ce4b969c1e7e2bab8f4c93c3fc6d0a51733df3c060\")\n        /* \"SolidityByExample/4_DeFi/14_ConstantProductAMM.sol\":1145:1172  _tokenIn == address(token0) */\n      0xffffffffffffffffffffffffffffffffffffffff\n      and\n        /* \"SolidityByExample/4_DeFi/14_ConstantProductAMM.sol\":1145:1153  _tokenIn */\n      dup5\n        /* \"SolidityByExample/4_DeFi/14_ConstantProductAMM.sol\":1145:1172  _tokenIn == address(token0) */\n      0xffffffffffffffffffffffffffffffffffffffff\n      and\n      eq\n        /* \"SolidityByExample/4_DeFi/14_ConstantProductAMM.sol\":1129:1172  bool isToken0 = _tokenIn == address(token0) */\n      swap1\n      pop\n        /* \"SolidityByExample/4_DeFi/14_ConstantProductAMM.sol\":1183:1197  IERC20 tokenIn */\n      0x00\n        /* \"SolidityByExample/4_DeFi/14_ConstantProductAMM.sol\":1199:1214  IERC20 tokenOut */\n      dup1\n        /* \"SolidityByExample/4_DeFi/14_ConstantProductAMM.sol\":1216:1230  uint reserveIn */\n      0x00\n        /* \"SolidityByExample/4_DeFi/14_ConstantProductAMM.sol\":1232:1247  uint reserveOut */\n      dup1\n        /* \"SolidityByExample/4_DeFi/14_ConstantProductAMM.sol\":1251:1259  isToken0 */\n      dup5\n        /* \"SolidityByExample/4_DeFi/14_ConstantProductAMM.sol\":1251:1361  isToken0... */\n      tag_139\n      jumpi\n        /* \"SolidityByExample/4_DeFi/14_ConstantProductAMM.sol\":1326:1332  token1 */\n      immutable(\"0x52f1a9b320cab38e5da8a8f97989383aab0a49165fc91c737310e4f7e9821021\")\n        /* \"SolidityByExample/4_DeFi/14_ConstantProductAMM.sol\":1334:1340  token0 */\n      immutable(\"0x13600b294191fc92924bb3ce4b969c1e7e2bab8f4c93c3fc6d0a51733df3c060\")\n        /* \"SolidityByExample/4_DeFi/14_ConstantProductAMM.sol\":1342:1350  reserve1 */\n      sload(0x01)\n        /* \"SolidityByExample/4_DeFi/14_ConstantProductAMM.sol\":1352:1360  reserve0 */\n      sload(0x00)\n        /* \"SolidityByExample/4_DeFi/14_ConstantProductAMM.sol\":1251:1361  isToken0... */\n      jump(tag_140)\n    tag_139:\n        /* \"SolidityByExample/4_DeFi/14_ConstantProductAMM.sol\":1275:1281  token0 */\n      immutable(\"0x13600b294191fc92924bb3ce4b969c1e7e2bab8f4c93c3fc6d0a51733df3c060\")\n        /* \"SolidityByExample/4_DeFi/14_ConstantProductAMM.sol\":1283:1289  token1 */\n      immutable(\"0x52f1a9b320cab38e5da8a8f97989383aab0a49165fc91c737310e4f7e9821021\")\n        /* \"SolidityByExample/4_DeFi/14_ConstantProductAMM.sol\":1291:1299  reserve0 */\n      sload(0x00)\n        /* \"SolidityByExample/4_DeFi/14_ConstantProductAMM.sol\":1301:1309  reserve1 */\n      sload(0x01)\n        /* \"SolidityByExample/4_DeFi/14_ConstantProductAMM.sol\":1251:1361  isToken0... */\n    tag_140:\n        /* \"SolidityByExample/4_DeFi/14_ConstantProductAMM.sol\":1182:1361  (IERC20 tokenIn, IERC20 tokenOut, uint reserveIn, uint reserveOut) = isToken0... */\n      swap4\n      pop\n      swap4\n      pop\n      swap4\n      pop\n      swap4\n      pop\n        /* \"SolidityByExample/4_DeFi/14_ConstantProductAMM.sol\":1372:1379  tokenIn */\n      dup4\n        /* \"SolidityByExample/4_DeFi/14_ConstantProductAMM.sol\":1372:1392  tokenIn.transferFrom */\n      0xffffffffffffffffffffffffffffffffffffffff\n      and\n      0x23b872dd\n        /* \"SolidityByExample/4_DeFi/14_ConstantProductAMM.sol\":1393:1403  msg.sender */\n      caller\n        /* \"SolidityByExample/4_DeFi/14_ConstantProductAMM.sol\":1413:1417  this */\n      address\n        /* \"SolidityByExample/4_DeFi/14_ConstantProductAMM.sol\":1420:1429  _amountIn */\n      dup11\n        /* \"SolidityByExample/4_DeFi/14_ConstantProductAMM.sol\":1372:1430  tokenIn.transferFrom(msg.sender, address(this), _amountIn) */\n      mload(0x40)\n      dup5\n      0xffffffff\n      and\n      0xe0\n      shl\n      dup2\n      mstore\n      0x04\n      add\n      tag_141\n      swap4\n      swap3\n      swap2\n      swap1\n      tag_91\n      jump\t// in\n    tag_141:\n      0x20\n      mload(0x40)\n      dup1\n      dup4\n      sub\n      dup2\n      0x00\n      dup8\n      gas\n      call\n      iszero\n      dup1\n      iszero\n      tag_143\n      jumpi\n      returndatasize\n      0x00\n      dup1\n      returndatacopy\n      revert(0x00, returndatasize)\n    tag_143:\n      pop\n      pop\n      pop\n      pop\n      mload(0x40)\n      returndatasize\n      not(0x1f)\n      0x1f\n      dup3\n      add\n      and\n      dup3\n      add\n      dup1\n      0x40\n      mstore\n      pop\n      dup2\n      add\n      swap1\n      tag_144\n      swap2\n      swap1\n      tag_84\n      jump\t// in\n    tag_144:\n      pop\n        /* \"SolidityByExample/4_DeFi/14_ConstantProductAMM.sol\":1715:1735  uint amountInWithFee */\n      0x00\n        /* \"SolidityByExample/4_DeFi/14_ConstantProductAMM.sol\":1758:1762  1000 */\n      0x03e8\n        /* \"SolidityByExample/4_DeFi/14_ConstantProductAMM.sol\":1751:1754  997 */\n      0x03e5\n        /* \"SolidityByExample/4_DeFi/14_ConstantProductAMM.sol\":1739:1748  _amountIn */\n      dup10\n        /* \"SolidityByExample/4_DeFi/14_ConstantProductAMM.sol\":1739:1754  _amountIn * 997 */\n      tag_145\n      swap2\n      swap1\n      tag_63\n      jump\t// in\n    tag_145:\n        /* \"SolidityByExample/4_DeFi/14_ConstantProductAMM.sol\":1738:1762  (_amountIn * 997) / 1000 */\n      tag_146\n      swap2\n      swap1\n      tag_65\n      jump\t// in\n    tag_146:\n        /* \"SolidityByExample/4_DeFi/14_ConstantProductAMM.sol\":1715:1762  uint amountInWithFee = (_amountIn * 997) / 1000 */\n      swap1\n      pop\n        /* \"SolidityByExample/4_DeFi/14_ConstantProductAMM.sol\":1830:1845  amountInWithFee */\n      dup1\n        /* \"SolidityByExample/4_DeFi/14_ConstantProductAMM.sol\":1818:1827  reserveIn */\n      dup4\n        /* \"SolidityByExample/4_DeFi/14_ConstantProductAMM.sol\":1818:1845  reserveIn + amountInWithFee */\n      tag_147\n      swap2\n      swap1\n      tag_148\n      jump\t// in\n    tag_147:\n        /* \"SolidityByExample/4_DeFi/14_ConstantProductAMM.sol\":1798:1813  amountInWithFee */\n      dup2\n        /* \"SolidityByExample/4_DeFi/14_ConstantProductAMM.sol\":1785:1795  reserveOut */\n      dup4\n        /* \"SolidityByExample/4_DeFi/14_ConstantProductAMM.sol\":1785:1813  reserveOut * amountInWithFee */\n      tag_149\n      swap2\n      swap1\n      tag_63\n      jump\t// in\n    tag_149:\n        /* \"SolidityByExample/4_DeFi/14_ConstantProductAMM.sol\":1784:1846  (reserveOut * amountInWithFee) / (reserveIn + amountInWithFee) */\n      tag_150\n      swap2\n      swap1\n      tag_65\n      jump\t// in\n    tag_150:\n        /* \"SolidityByExample/4_DeFi/14_ConstantProductAMM.sol\":1772:1846  amountOut = (reserveOut * amountInWithFee) / (reserveIn + amountInWithFee) */\n      swap7\n      pop\n        /* \"SolidityByExample/4_DeFi/14_ConstantProductAMM.sol\":1857:1865  tokenOut */\n      dup4\n        /* \"SolidityByExample/4_DeFi/14_ConstantProductAMM.sol\":1857:1874  tokenOut.transfer */\n      0xffffffffffffffffffffffffffffffffffffffff\n      and\n      0xa9059cbb\n        /* \"SolidityByExample/4_DeFi/14_ConstantProductAMM.sol\":1875:1885  msg.sender */\n      caller\n        /* \"SolidityByExample/4_DeFi/14_ConstantProductAMM.sol\":1887:1896  amountOut */\n      dup10\n        /* \"SolidityByExample/4_DeFi/14_ConstantProductAMM.sol\":1857:1897  tokenOut.transfer(msg.sender, amountOut) */\n      mload(0x40)\n      dup4\n      0xffffffff\n      and\n      0xe0\n      shl\n      dup2\n      mstore\n      0x04\n      add\n      tag_151\n      swap3\n      swap2\n      swap1\n      tag_80\n      jump\t// in\n    tag_151:\n      0x20\n      mload(0x40)\n      dup1\n      dup4\n      sub\n      dup2\n      0x00\n      dup8\n      gas\n      call\n      iszero\n      dup1\n      iszero\n      tag_153\n      jumpi\n      returndatasize\n      0x00\n      dup1\n      returndatacopy\n      revert(0x00, returndatasize)\n    tag_153:\n      pop\n      pop\n      pop\n      pop\n      mload(0x40)\n      returndatasize\n      not(0x1f)\n      0x1f\n      dup3\n      add\n      and\n      dup3\n      add\n      dup1\n      0x40\n      mstore\n      pop\n      dup2\n      add\n      swap1\n      tag_154\n      swap2\n      swap1\n      tag_84\n      jump\t// in\n    tag_154:\n      pop\n        /* \"SolidityByExample/4_DeFi/14_ConstantProductAMM.sol\":1908:1981  _update(token0.balanceOf(address(this)), token1.balanceOf(address(this))) */\n      tag_155\n        /* \"SolidityByExample/4_DeFi/14_ConstantProductAMM.sol\":1916:1922  token0 */\n      immutable(\"0x13600b294191fc92924bb3ce4b969c1e7e2bab8f4c93c3fc6d0a51733df3c060\")\n        /* \"SolidityByExample/4_DeFi/14_ConstantProductAMM.sol\":1916:1932  token0.balanceOf */\n      0xffffffffffffffffffffffffffffffffffffffff\n      and\n      0x70a08231\n        /* \"SolidityByExample/4_DeFi/14_ConstantProductAMM.sol\":1941:1945  this */\n      address\n        /* \"SolidityByExample/4_DeFi/14_ConstantProductAMM.sol\":1916:1947  token0.balanceOf(address(this)) */\n      mload(0x40)\n      dup3\n      0xffffffff\n      and\n      0xe0\n      shl\n      dup2\n      mstore\n      0x04\n      add\n      tag_156\n      swap2\n      swap1\n      tag_53\n      jump\t// in\n    tag_156:\n      0x20\n      mload(0x40)\n      dup1\n      dup4\n      sub\n      dup2\n      dup7\n      gas\n      staticcall\n      iszero\n      dup1\n      iszero\n      tag_158\n      jumpi\n      returndatasize\n      0x00\n      dup1\n      returndatacopy\n      revert(0x00, returndatasize)\n    tag_158:\n      pop\n      pop\n      pop\n      pop\n      mload(0x40)\n      returndatasize\n      not(0x1f)\n      0x1f\n      dup3\n      add\n      and\n      dup3\n      add\n      dup1\n      0x40\n      mstore\n      pop\n      dup2\n      add\n      swap1\n      tag_159\n      swap2\n      swap1\n      tag_57\n      jump\t// in\n    tag_159:\n        /* \"SolidityByExample/4_DeFi/14_ConstantProductAMM.sol\":1949:1955  token1 */\n      immutable(\"0x52f1a9b320cab38e5da8a8f97989383aab0a49165fc91c737310e4f7e9821021\")\n        /* \"SolidityByExample/4_DeFi/14_ConstantProductAMM.sol\":1949:1965  token1.balanceOf */\n      0xffffffffffffffffffffffffffffffffffffffff\n      and\n      0x70a08231\n        /* \"SolidityByExample/4_DeFi/14_ConstantProductAMM.sol\":1974:1978  this */\n      address\n        /* \"SolidityByExample/4_DeFi/14_ConstantProductAMM.sol\":1949:1980  token1.balanceOf(address(this)) */\n      mload(0x40)\n      dup3\n      0xffffffff\n      and\n      0xe0\n      shl\n      dup2\n      mstore\n      0x04\n      add\n      tag_160\n      swap2\n      swap1\n      tag_53\n      jump\t// in\n    tag_160:\n      0x20\n      mload(0x40)\n      dup1\n      dup4\n      sub\n      dup2\n      dup7\n      gas\n      staticcall\n      iszero\n      dup1\n      iszero\n      tag_162\n      jumpi\n      returndatasize\n      0x00\n      dup1\n      returndatacopy\n      revert(0x00, returndatasize)\n    tag_162:\n      pop\n      pop\n      pop\n      pop\n      mload(0x40)\n      returndatasize\n      not(0x1f)\n      0x1f\n      dup3\n      add\n      and\n      dup3\n      add\n      dup1\n      0x40\n      mstore\n      pop\n      dup2\n      add\n      swap1\n      tag_163\n      swap2\n      swap1\n      tag_57\n      jump\t// in\n    tag_163:\n        /* \"SolidityByExample/4_DeFi/14_ConstantProductAMM.sol\":1908:1915  _update */\n      tag_78\n        /* \"SolidityByExample/4_DeFi/14_ConstantProductAMM.sol\":1908:1981  _update(token0.balanceOf(address(this)), token1.balanceOf(address(this))) */\n      jump\t// in\n    tag_155:\n        /* \"SolidityByExample/4_DeFi/14_ConstantProductAMM.sol\":941:1988  {... */\n      pop\n      pop\n      pop\n      pop\n      pop\n      pop\n        /* \"SolidityByExample/4_DeFi/14_ConstantProductAMM.sol\":859:1988  function swap(address _tokenIn, uint _amountIn) external returns (uint amountOut) {... */\n      swap3\n      swap2\n      pop\n      pop\n      jump\t// out\n        /* \"SolidityByExample/4_DeFi/14_ConstantProductAMM.sol\":171:201  IERC20 public immutable token1 */\n    tag_49:\n      immutable(\"0x52f1a9b320cab38e5da8a8f97989383aab0a49165fc91c737310e4f7e9821021\")\n      dup2\n      jump\t// out\n        /* \"SolidityByExample/4_DeFi/14_ConstantProductAMM.sol\":595:723  function _burn(address _from, uint _amount) private {... */\n    tag_73:\n        /* \"SolidityByExample/4_DeFi/14_ConstantProductAMM.sol\":677:684  _amount */\n      dup1\n        /* \"SolidityByExample/4_DeFi/14_ConstantProductAMM.sol\":657:666  balanceOf */\n      0x03\n        /* \"SolidityByExample/4_DeFi/14_ConstantProductAMM.sol\":657:673  balanceOf[_from] */\n      0x00\n        /* \"SolidityByExample/4_DeFi/14_ConstantProductAMM.sol\":667:672  _from */\n      dup5\n        /* \"SolidityByExample/4_DeFi/14_ConstantProductAMM.sol\":657:673  balanceOf[_from] */\n      0xffffffffffffffffffffffffffffffffffffffff\n      and\n      0xffffffffffffffffffffffffffffffffffffffff\n      and\n      dup2\n      mstore\n      0x20\n      add\n      swap1\n      dup2\n      mstore\n      0x20\n      add\n      0x00\n      keccak256\n      0x00\n        /* \"SolidityByExample/4_DeFi/14_ConstantProductAMM.sol\":657:684  balanceOf[_from] -= _amount */\n      dup3\n      dup3\n      sload\n      tag_165\n      swap2\n      swap1\n      tag_76\n      jump\t// in\n    tag_165:\n      swap3\n      pop\n      pop\n      dup2\n      swap1\n      sstore\n      pop\n        /* \"SolidityByExample/4_DeFi/14_ConstantProductAMM.sol\":709:716  _amount */\n      dup1\n        /* \"SolidityByExample/4_DeFi/14_ConstantProductAMM.sol\":694:705  totalSupply */\n      0x02\n      0x00\n        /* \"SolidityByExample/4_DeFi/14_ConstantProductAMM.sol\":694:716  totalSupply -= _amount */\n      dup3\n      dup3\n      sload\n      tag_166\n      swap2\n      swap1\n      tag_76\n      jump\t// in\n    tag_166:\n      swap3\n      pop\n      pop\n      dup2\n      swap1\n      sstore\n      pop\n        /* \"SolidityByExample/4_DeFi/14_ConstantProductAMM.sol\":595:723  function _burn(address _from, uint _amount) private {... */\n      pop\n      pop\n      jump\t// out\n        /* \"SolidityByExample/4_DeFi/14_ConstantProductAMM.sol\":729:853  function _update(uint _reserve0, uint _reserve1) private {... */\n    tag_78:\n        /* \"SolidityByExample/4_DeFi/14_ConstantProductAMM.sol\":807:816  _reserve0 */\n      dup2\n        /* \"SolidityByExample/4_DeFi/14_ConstantProductAMM.sol\":796:804  reserve0 */\n      0x00\n        /* \"SolidityByExample/4_DeFi/14_ConstantProductAMM.sol\":796:816  reserve0 = _reserve0 */\n      dup2\n      swap1\n      sstore\n      pop\n        /* \"SolidityByExample/4_DeFi/14_ConstantProductAMM.sol\":837:846  _reserve1 */\n      dup1\n        /* \"SolidityByExample/4_DeFi/14_ConstantProductAMM.sol\":826:834  reserve1 */\n      0x01\n        /* \"SolidityByExample/4_DeFi/14_ConstantProductAMM.sol\":826:846  reserve1 = _reserve1 */\n      dup2\n      swap1\n      sstore\n      pop\n        /* \"SolidityByExample/4_DeFi/14_ConstantProductAMM.sol\":729:853  function _update(uint _reserve0, uint _reserve1) private {... */\n      pop\n      pop\n      jump\t// out\n        /* \"SolidityByExample/4_DeFi/14_ConstantProductAMM.sol\":5855:6147  function _sqrt(uint y) private pure returns (uint z) {... */\n    tag_109:\n        /* \"SolidityByExample/4_DeFi/14_ConstantProductAMM.sol\":5900:5906  uint z */\n      0x00\n        /* \"SolidityByExample/4_DeFi/14_ConstantProductAMM.sol\":5926:5927  3 */\n      0x03\n        /* \"SolidityByExample/4_DeFi/14_ConstantProductAMM.sol\":5922:5923  y */\n      dup3\n        /* \"SolidityByExample/4_DeFi/14_ConstantProductAMM.sol\":5922:5927  y > 3 */\n      gt\n        /* \"SolidityByExample/4_DeFi/14_ConstantProductAMM.sol\":5918:6141  if (y > 3) {... */\n      iszero\n      tag_169\n      jumpi\n        /* \"SolidityByExample/4_DeFi/14_ConstantProductAMM.sol\":5947:5948  y */\n      dup2\n        /* \"SolidityByExample/4_DeFi/14_ConstantProductAMM.sol\":5943:5948  z = y */\n      swap1\n      pop\n        /* \"SolidityByExample/4_DeFi/14_ConstantProductAMM.sol\":5962:5968  uint x */\n      0x00\n        /* \"SolidityByExample/4_DeFi/14_ConstantProductAMM.sol\":5979:5980  1 */\n      0x01\n        /* \"SolidityByExample/4_DeFi/14_ConstantProductAMM.sol\":5975:5976  2 */\n      0x02\n        /* \"SolidityByExample/4_DeFi/14_ConstantProductAMM.sol\":5971:5972  y */\n      dup5\n        /* \"SolidityByExample/4_DeFi/14_ConstantProductAMM.sol\":5971:5976  y / 2 */\n      tag_170\n      swap2\n      swap1\n      tag_65\n      jump\t// in\n    tag_170:\n        /* \"SolidityByExample/4_DeFi/14_ConstantProductAMM.sol\":5971:5980  y / 2 + 1 */\n      tag_171\n      swap2\n      swap1\n      tag_148\n      jump\t// in\n    tag_171:\n        /* \"SolidityByExample/4_DeFi/14_ConstantProductAMM.sol\":5962:5980  uint x = y / 2 + 1 */\n      swap1\n      pop\n        /* \"SolidityByExample/4_DeFi/14_ConstantProductAMM.sol\":5994:6083  while (x < z) {... */\n    tag_172:\n        /* \"SolidityByExample/4_DeFi/14_ConstantProductAMM.sol\":6005:6006  z */\n      dup2\n        /* \"SolidityByExample/4_DeFi/14_ConstantProductAMM.sol\":6001:6002  x */\n      dup2\n        /* \"SolidityByExample/4_DeFi/14_ConstantProductAMM.sol\":6001:6006  x < z */\n      lt\n        /* \"SolidityByExample/4_DeFi/14_ConstantProductAMM.sol\":5994:6083  while (x < z) {... */\n      iszero\n      tag_173\n      jumpi\n        /* \"SolidityByExample/4_DeFi/14_ConstantProductAMM.sol\":6030:6031  x */\n      dup1\n        /* \"SolidityByExample/4_DeFi/14_ConstantProductAMM.sol\":6026:6031  z = x */\n      swap2\n      pop\n        /* \"SolidityByExample/4_DeFi/14_ConstantProductAMM.sol\":6067:6068  2 */\n      0x02\n        /* \"SolidityByExample/4_DeFi/14_ConstantProductAMM.sol\":6062:6063  x */\n      dup2\n        /* \"SolidityByExample/4_DeFi/14_ConstantProductAMM.sol\":6058:6059  x */\n      dup3\n        /* \"SolidityByExample/4_DeFi/14_ConstantProductAMM.sol\":6054:6055  y */\n      dup6\n        /* \"SolidityByExample/4_DeFi/14_ConstantProductAMM.sol\":6054:6059  y / x */\n      tag_174\n      swap2\n      swap1\n      tag_65\n      jump\t// in\n    tag_174:\n        /* \"SolidityByExample/4_DeFi/14_ConstantProductAMM.sol\":6054:6063  y / x + x */\n      tag_175\n      swap2\n      swap1\n      tag_148\n      jump\t// in\n    tag_175:\n        /* \"SolidityByExample/4_DeFi/14_ConstantProductAMM.sol\":6053:6068  (y / x + x) / 2 */\n      tag_176\n      swap2\n      swap1\n      tag_65\n      jump\t// in\n    tag_176:\n        /* \"SolidityByExample/4_DeFi/14_ConstantProductAMM.sol\":6049:6068  x = (y / x + x) / 2 */\n      swap1\n      pop\n        /* \"SolidityByExample/4_DeFi/14_ConstantProductAMM.sol\":5994:6083  while (x < z) {... */\n      jump(tag_172)\n    tag_173:\n        /* \"SolidityByExample/4_DeFi/14_ConstantProductAMM.sol\":5929:6093  {... */\n      pop\n        /* \"SolidityByExample/4_DeFi/14_ConstantProductAMM.sol\":5918:6141  if (y > 3) {... */\n      jump(tag_177)\n    tag_169:\n        /* \"SolidityByExample/4_DeFi/14_ConstantProductAMM.sol\":6108:6109  0 */\n      0x00\n        /* \"SolidityByExample/4_DeFi/14_ConstantProductAMM.sol\":6103:6104  y */\n      dup3\n        /* \"SolidityByExample/4_DeFi/14_ConstantProductAMM.sol\":6103:6109  y != 0 */\n      eq\n        /* \"SolidityByExample/4_DeFi/14_ConstantProductAMM.sol\":6099:6141  if (y != 0) {... */\n      tag_178\n      jumpi\n        /* \"SolidityByExample/4_DeFi/14_ConstantProductAMM.sol\":6129:6130  1 */\n      0x01\n        /* \"SolidityByExample/4_DeFi/14_ConstantProductAMM.sol\":6125:6130  z = 1 */\n      swap1\n      pop\n        /* \"SolidityByExample/4_DeFi/14_ConstantProductAMM.sol\":6099:6141  if (y != 0) {... */\n    tag_178:\n        /* \"SolidityByExample/4_DeFi/14_ConstantProductAMM.sol\":5918:6141  if (y > 3) {... */\n    tag_177:\n        /* \"SolidityByExample/4_DeFi/14_ConstantProductAMM.sol\":5855:6147  function _sqrt(uint y) private pure returns (uint z) {... */\n      swap2\n      swap1\n      pop\n      jump\t// out\n        /* \"SolidityByExample/4_DeFi/14_ConstantProductAMM.sol\":6153:6249  function _min(uint x, uint y) private pure returns (uint) {... */\n    tag_116:\n        /* \"SolidityByExample/4_DeFi/14_ConstantProductAMM.sol\":6205:6209  uint */\n      0x00\n        /* \"SolidityByExample/4_DeFi/14_ConstantProductAMM.sol\":6233:6234  y */\n      dup2\n        /* \"SolidityByExample/4_DeFi/14_ConstantProductAMM.sol\":6228:6229  x */\n      dup4\n        /* \"SolidityByExample/4_DeFi/14_ConstantProductAMM.sol\":6228:6234  x <= y */\n      gt\n      iszero\n        /* \"SolidityByExample/4_DeFi/14_ConstantProductAMM.sol\":6228:6242  x <= y ? x : y */\n      tag_180\n      jumpi\n        /* \"SolidityByExample/4_DeFi/14_ConstantProductAMM.sol\":6241:6242  y */\n      dup2\n        /* \"SolidityByExample/4_DeFi/14_ConstantProductAMM.sol\":6228:6242  x <= y ? x : y */\n      jump(tag_181)\n    tag_180:\n        /* \"SolidityByExample/4_DeFi/14_ConstantProductAMM.sol\":6237:6238  x */\n      dup3\n        /* \"SolidityByExample/4_DeFi/14_ConstantProductAMM.sol\":6228:6242  x <= y ? x : y */\n    tag_181:\n        /* \"SolidityByExample/4_DeFi/14_ConstantProductAMM.sol\":6221:6242  return x <= y ? x : y */\n      swap1\n      pop\n        /* \"SolidityByExample/4_DeFi/14_ConstantProductAMM.sol\":6153:6249  function _min(uint x, uint y) private pure returns (uint) {... */\n      swap3\n      swap2\n      pop\n      pop\n      jump\t// out\n        /* \"SolidityByExample/4_DeFi/14_ConstantProductAMM.sol\":465:589  function _mint(address _to, uint _amount) private {... */\n    tag_121:\n        /* \"SolidityByExample/4_DeFi/14_ConstantProductAMM.sol\":543:550  _amount */\n      dup1\n        /* \"SolidityByExample/4_DeFi/14_ConstantProductAMM.sol\":525:534  balanceOf */\n      0x03\n        /* \"SolidityByExample/4_DeFi/14_ConstantProductAMM.sol\":525:539  balanceOf[_to] */\n      0x00\n        /* \"SolidityByExample/4_DeFi/14_ConstantProductAMM.sol\":535:538  _to */\n      dup5\n        /* \"SolidityByExample/4_DeFi/14_ConstantProductAMM.sol\":525:539  balanceOf[_to] */\n      0xffffffffffffffffffffffffffffffffffffffff\n      and\n      0xffffffffffffffffffffffffffffffffffffffff\n      and\n      dup2\n      mstore\n      0x20\n      add\n      swap1\n      dup2\n      mstore\n      0x20\n      add\n      0x00\n      keccak256\n      0x00\n        /* \"SolidityByExample/4_DeFi/14_ConstantProductAMM.sol\":525:550  balanceOf[_to] += _amount */\n      dup3\n      dup3\n      sload\n      tag_183\n      swap2\n      swap1\n      tag_148\n      jump\t// in\n    tag_183:\n      swap3\n      pop\n      pop\n      dup2\n      swap1\n      sstore\n      pop\n        /* \"SolidityByExample/4_DeFi/14_ConstantProductAMM.sol\":575:582  _amount */\n      dup1\n        /* \"SolidityByExample/4_DeFi/14_ConstantProductAMM.sol\":560:571  totalSupply */\n      0x02\n      0x00\n        /* \"SolidityByExample/4_DeFi/14_ConstantProductAMM.sol\":560:582  totalSupply += _amount */\n      dup3\n      dup3\n      sload\n      tag_184\n      swap2\n      swap1\n      tag_148\n      jump\t// in\n    tag_184:\n      swap3\n      pop\n      pop\n      dup2\n      swap1\n      sstore\n      pop\n        /* \"SolidityByExample/4_DeFi/14_ConstantProductAMM.sol\":465:589  function _mint(address _to, uint _amount) private {... */\n      pop\n      pop\n      jump\t// out\n        /* \"#utility.yul\":7:133   */\n    tag_185:\n        /* \"#utility.yul\":44:51   */\n      0x00\n        /* \"#utility.yul\":84:126   */\n      0xffffffffffffffffffffffffffffffffffffffff\n        /* \"#utility.yul\":77:82   */\n      dup3\n        /* \"#utility.yul\":73:127   */\n      and\n        /* \"#utility.yul\":62:127   */\n      swap1\n      pop\n        /* \"#utility.yul\":7:133   */\n      swap2\n      swap1\n      pop\n      jump\t// out\n        /* \"#utility.yul\":139:199   */\n    tag_186:\n        /* \"#utility.yul\":167:170   */\n      0x00\n        /* \"#utility.yul\":188:193   */\n      dup2\n        /* \"#utility.yul\":181:193   */\n      swap1\n      pop\n        /* \"#utility.yul\":139:199   */\n      swap2\n      swap1\n      pop\n      jump\t// out\n        /* \"#utility.yul\":205:347   */\n    tag_187:\n        /* \"#utility.yul\":255:264   */\n      0x00\n        /* \"#utility.yul\":288:341   */\n      tag_223\n        /* \"#utility.yul\":306:340   */\n      tag_224\n        /* \"#utility.yul\":315:339   */\n      tag_225\n        /* \"#utility.yul\":333:338   */\n      dup5\n        /* \"#utility.yul\":315:339   */\n      tag_185\n      jump\t// in\n    tag_225:\n        /* \"#utility.yul\":306:340   */\n      tag_186\n      jump\t// in\n    tag_224:\n        /* \"#utility.yul\":288:341   */\n      tag_185\n      jump\t// in\n    tag_223:\n        /* \"#utility.yul\":275:341   */\n      swap1\n      pop\n        /* \"#utility.yul\":205:347   */\n      swap2\n      swap1\n      pop\n      jump\t// out\n        /* \"#utility.yul\":353:479   */\n    tag_188:\n        /* \"#utility.yul\":403:412   */\n      0x00\n        /* \"#utility.yul\":436:473   */\n      tag_227\n        /* \"#utility.yul\":467:472   */\n      dup3\n        /* \"#utility.yul\":436:473   */\n      tag_187\n      jump\t// in\n    tag_227:\n        /* \"#utility.yul\":423:473   */\n      swap1\n      pop\n        /* \"#utility.yul\":353:479   */\n      swap2\n      swap1\n      pop\n      jump\t// out\n        /* \"#utility.yul\":485:625   */\n    tag_189:\n        /* \"#utility.yul\":549:558   */\n      0x00\n        /* \"#utility.yul\":582:619   */\n      tag_229\n        /* \"#utility.yul\":613:618   */\n      dup3\n        /* \"#utility.yul\":582:619   */\n      tag_188\n      jump\t// in\n    tag_229:\n        /* \"#utility.yul\":569:619   */\n      swap1\n      pop\n        /* \"#utility.yul\":485:625   */\n      swap2\n      swap1\n      pop\n      jump\t// out\n        /* \"#utility.yul\":631:790   */\n    tag_190:\n        /* \"#utility.yul\":732:783   */\n      tag_231\n        /* \"#utility.yul\":777:782   */\n      dup2\n        /* \"#utility.yul\":732:783   */\n      tag_189\n      jump\t// in\n    tag_231:\n        /* \"#utility.yul\":727:730   */\n      dup3\n        /* \"#utility.yul\":720:784   */\n      mstore\n        /* \"#utility.yul\":631:790   */\n      pop\n      pop\n      jump\t// out\n        /* \"#utility.yul\":796:1046   */\n    tag_16:\n        /* \"#utility.yul\":903:907   */\n      0x00\n        /* \"#utility.yul\":941:943   */\n      0x20\n        /* \"#utility.yul\":930:939   */\n      dup3\n        /* \"#utility.yul\":926:944   */\n      add\n        /* \"#utility.yul\":918:944   */\n      swap1\n      pop\n        /* \"#utility.yul\":954:1039   */\n      tag_233\n        /* \"#utility.yul\":1036:1037   */\n      0x00\n        /* \"#utility.yul\":1025:1034   */\n      dup4\n        /* \"#utility.yul\":1021:1038   */\n      add\n        /* \"#utility.yul\":1012:1018   */\n      dup5\n        /* \"#utility.yul\":954:1039   */\n      tag_190\n      jump\t// in\n    tag_233:\n        /* \"#utility.yul\":796:1046   */\n      swap3\n      swap2\n      pop\n      pop\n      jump\t// out\n        /* \"#utility.yul\":1052:1129   */\n    tag_191:\n        /* \"#utility.yul\":1089:1096   */\n      0x00\n        /* \"#utility.yul\":1118:1123   */\n      dup2\n        /* \"#utility.yul\":1107:1123   */\n      swap1\n      pop\n        /* \"#utility.yul\":1052:1129   */\n      swap2\n      swap1\n      pop\n      jump\t// out\n        /* \"#utility.yul\":1135:1253   */\n    tag_192:\n        /* \"#utility.yul\":1222:1246   */\n      tag_236\n        /* \"#utility.yul\":1240:1245   */\n      dup2\n        /* \"#utility.yul\":1222:1246   */\n      tag_191\n      jump\t// in\n    tag_236:\n        /* \"#utility.yul\":1217:1220   */\n      dup3\n        /* \"#utility.yul\":1210:1247   */\n      mstore\n        /* \"#utility.yul\":1135:1253   */\n      pop\n      pop\n      jump\t// out\n        /* \"#utility.yul\":1259:1481   */\n    tag_20:\n        /* \"#utility.yul\":1352:1356   */\n      0x00\n        /* \"#utility.yul\":1390:1392   */\n      0x20\n        /* \"#utility.yul\":1379:1388   */\n      dup3\n        /* \"#utility.yul\":1375:1393   */\n      add\n        /* \"#utility.yul\":1367:1393   */\n      swap1\n      pop\n        /* \"#utility.yul\":1403:1474   */\n      tag_238\n        /* \"#utility.yul\":1471:1472   */\n      0x00\n        /* \"#utility.yul\":1460:1469   */\n      dup4\n        /* \"#utility.yul\":1456:1473   */\n      add\n        /* \"#utility.yul\":1447:1453   */\n      dup5\n        /* \"#utility.yul\":1403:1474   */\n      tag_192\n      jump\t// in\n    tag_238:\n        /* \"#utility.yul\":1259:1481   */\n      swap3\n      swap2\n      pop\n      pop\n      jump\t// out\n        /* \"#utility.yul\":1568:1685   */\n    tag_194:\n        /* \"#utility.yul\":1677:1678   */\n      0x00\n        /* \"#utility.yul\":1674:1675   */\n      dup1\n        /* \"#utility.yul\":1667:1679   */\n      revert\n        /* \"#utility.yul\":1814:1910   */\n    tag_196:\n        /* \"#utility.yul\":1851:1858   */\n      0x00\n        /* \"#utility.yul\":1880:1904   */\n      tag_243\n        /* \"#utility.yul\":1898:1903   */\n      dup3\n        /* \"#utility.yul\":1880:1904   */\n      tag_185\n      jump\t// in\n    tag_243:\n        /* \"#utility.yul\":1869:1904   */\n      swap1\n      pop\n        /* \"#utility.yul\":1814:1910   */\n      swap2\n      swap1\n      pop\n      jump\t// out\n        /* \"#utility.yul\":1916:2038   */\n    tag_197:\n        /* \"#utility.yul\":1989:2013   */\n      tag_245\n        /* \"#utility.yul\":2007:2012   */\n      dup2\n        /* \"#utility.yul\":1989:2013   */\n      tag_196\n      jump\t// in\n    tag_245:\n        /* \"#utility.yul\":1982:1987   */\n      dup2\n        /* \"#utility.yul\":1979:2014   */\n      eq\n        /* \"#utility.yul\":1969:2032   */\n      tag_246\n      jumpi\n        /* \"#utility.yul\":2028:2029   */\n      0x00\n        /* \"#utility.yul\":2025:2026   */\n      dup1\n        /* \"#utility.yul\":2018:2030   */\n      revert\n        /* \"#utility.yul\":1969:2032   */\n    tag_246:\n        /* \"#utility.yul\":1916:2038   */\n      pop\n      jump\t// out\n        /* \"#utility.yul\":2044:2183   */\n    tag_198:\n        /* \"#utility.yul\":2090:2095   */\n      0x00\n        /* \"#utility.yul\":2128:2134   */\n      dup2\n        /* \"#utility.yul\":2115:2135   */\n      calldataload\n        /* \"#utility.yul\":2106:2135   */\n      swap1\n      pop\n        /* \"#utility.yul\":2144:2177   */\n      tag_248\n        /* \"#utility.yul\":2171:2176   */\n      dup2\n        /* \"#utility.yul\":2144:2177   */\n      tag_197\n      jump\t// in\n    tag_248:\n        /* \"#utility.yul\":2044:2183   */\n      swap3\n      swap2\n      pop\n      pop\n      jump\t// out\n        /* \"#utility.yul\":2189:2518   */\n    tag_29:\n        /* \"#utility.yul\":2248:2254   */\n      0x00\n        /* \"#utility.yul\":2297:2299   */\n      0x20\n        /* \"#utility.yul\":2285:2294   */\n      dup3\n        /* \"#utility.yul\":2276:2283   */\n      dup5\n        /* \"#utility.yul\":2272:2295   */\n      sub\n        /* \"#utility.yul\":2268:2300   */\n      slt\n        /* \"#utility.yul\":2265:2384   */\n      iszero\n      tag_250\n      jumpi\n        /* \"#utility.yul\":2303:2382   */\n      tag_251\n      tag_194\n      jump\t// in\n    tag_251:\n        /* \"#utility.yul\":2265:2384   */\n    tag_250:\n        /* \"#utility.yul\":2423:2424   */\n      0x00\n        /* \"#utility.yul\":2448:2501   */\n      tag_252\n        /* \"#utility.yul\":2493:2500   */\n      dup5\n        /* \"#utility.yul\":2484:2490   */\n      dup3\n        /* \"#utility.yul\":2473:2482   */\n      dup6\n        /* \"#utility.yul\":2469:2491   */\n      add\n        /* \"#utility.yul\":2448:2501   */\n      tag_198\n      jump\t// in\n    tag_252:\n        /* \"#utility.yul\":2438:2501   */\n      swap2\n      pop\n        /* \"#utility.yul\":2394:2511   */\n      pop\n        /* \"#utility.yul\":2189:2518   */\n      swap3\n      swap2\n      pop\n      pop\n      jump\t// out\n        /* \"#utility.yul\":2524:2646   */\n    tag_199:\n        /* \"#utility.yul\":2597:2621   */\n      tag_254\n        /* \"#utility.yul\":2615:2620   */\n      dup2\n        /* \"#utility.yul\":2597:2621   */\n      tag_191\n      jump\t// in\n    tag_254:\n        /* \"#utility.yul\":2590:2595   */\n      dup2\n        /* \"#utility.yul\":2587:2622   */\n      eq\n        /* \"#utility.yul\":2577:2640   */\n      tag_255\n      jumpi\n        /* \"#utility.yul\":2636:2637   */\n      0x00\n        /* \"#utility.yul\":2633:2634   */\n      dup1\n        /* \"#utility.yul\":2626:2638   */\n      revert\n        /* \"#utility.yul\":2577:2640   */\n    tag_255:\n        /* \"#utility.yul\":2524:2646   */\n      pop\n      jump\t// out\n        /* \"#utility.yul\":2652:2791   */\n    tag_200:\n        /* \"#utility.yul\":2698:2703   */\n      0x00\n        /* \"#utility.yul\":2736:2742   */\n      dup2\n        /* \"#utility.yul\":2723:2743   */\n      calldataload\n        /* \"#utility.yul\":2714:2743   */\n      swap1\n      pop\n        /* \"#utility.yul\":2752:2785   */\n      tag_257\n        /* \"#utility.yul\":2779:2784   */\n      dup2\n        /* \"#utility.yul\":2752:2785   */\n      tag_199\n      jump\t// in\n    tag_257:\n        /* \"#utility.yul\":2652:2791   */\n      swap3\n      swap2\n      pop\n      pop\n      jump\t// out\n        /* \"#utility.yul\":2797:3126   */\n    tag_34:\n        /* \"#utility.yul\":2856:2862   */\n      0x00\n        /* \"#utility.yul\":2905:2907   */\n      0x20\n        /* \"#utility.yul\":2893:2902   */\n      dup3\n        /* \"#utility.yul\":2884:2891   */\n      dup5\n        /* \"#utility.yul\":2880:2903   */\n      sub\n        /* \"#utility.yul\":2876:2908   */\n      slt\n        /* \"#utility.yul\":2873:2992   */\n      iszero\n      tag_259\n      jumpi\n        /* \"#utility.yul\":2911:2990   */\n      tag_260\n      tag_194\n      jump\t// in\n    tag_260:\n        /* \"#utility.yul\":2873:2992   */\n    tag_259:\n        /* \"#utility.yul\":3031:3032   */\n      0x00\n        /* \"#utility.yul\":3056:3109   */\n      tag_261\n        /* \"#utility.yul\":3101:3108   */\n      dup5\n        /* \"#utility.yul\":3092:3098   */\n      dup3\n        /* \"#utility.yul\":3081:3090   */\n      dup6\n        /* \"#utility.yul\":3077:3099   */\n      add\n        /* \"#utility.yul\":3056:3109   */\n      tag_200\n      jump\t// in\n    tag_261:\n        /* \"#utility.yul\":3046:3109   */\n      swap2\n      pop\n        /* \"#utility.yul\":3002:3119   */\n      pop\n        /* \"#utility.yul\":2797:3126   */\n      swap3\n      swap2\n      pop\n      pop\n      jump\t// out\n        /* \"#utility.yul\":3132:3464   */\n    tag_37:\n        /* \"#utility.yul\":3253:3257   */\n      0x00\n        /* \"#utility.yul\":3291:3293   */\n      0x40\n        /* \"#utility.yul\":3280:3289   */\n      dup3\n        /* \"#utility.yul\":3276:3294   */\n      add\n        /* \"#utility.yul\":3268:3294   */\n      swap1\n      pop\n        /* \"#utility.yul\":3304:3375   */\n      tag_263\n        /* \"#utility.yul\":3372:3373   */\n      0x00\n        /* \"#utility.yul\":3361:3370   */\n      dup4\n        /* \"#utility.yul\":3357:3374   */\n      add\n        /* \"#utility.yul\":3348:3354   */\n      dup6\n        /* \"#utility.yul\":3304:3375   */\n      tag_192\n      jump\t// in\n    tag_263:\n        /* \"#utility.yul\":3385:3457   */\n      tag_264\n        /* \"#utility.yul\":3453:3455   */\n      0x20\n        /* \"#utility.yul\":3442:3451   */\n      dup4\n        /* \"#utility.yul\":3438:3456   */\n      add\n        /* \"#utility.yul\":3429:3435   */\n      dup5\n        /* \"#utility.yul\":3385:3457   */\n      tag_192\n      jump\t// in\n    tag_264:\n        /* \"#utility.yul\":3132:3464   */\n      swap4\n      swap3\n      pop\n      pop\n      pop\n      jump\t// out\n        /* \"#utility.yul\":3470:3944   */\n    tag_40:\n        /* \"#utility.yul\":3538:3544   */\n      0x00\n        /* \"#utility.yul\":3546:3552   */\n      dup1\n        /* \"#utility.yul\":3595:3597   */\n      0x40\n        /* \"#utility.yul\":3583:3592   */\n      dup4\n        /* \"#utility.yul\":3574:3581   */\n      dup6\n        /* \"#utility.yul\":3570:3593   */\n      sub\n        /* \"#utility.yul\":3566:3598   */\n      slt\n        /* \"#utility.yul\":3563:3682   */\n      iszero\n      tag_266\n      jumpi\n        /* \"#utility.yul\":3601:3680   */\n      tag_267\n      tag_194\n      jump\t// in\n    tag_267:\n        /* \"#utility.yul\":3563:3682   */\n    tag_266:\n        /* \"#utility.yul\":3721:3722   */\n      0x00\n        /* \"#utility.yul\":3746:3799   */\n      tag_268\n        /* \"#utility.yul\":3791:3798   */\n      dup6\n        /* \"#utility.yul\":3782:3788   */\n      dup3\n        /* \"#utility.yul\":3771:3780   */\n      dup7\n        /* \"#utility.yul\":3767:3789   */\n      add\n        /* \"#utility.yul\":3746:3799   */\n      tag_200\n      jump\t// in\n    tag_268:\n        /* \"#utility.yul\":3736:3799   */\n      swap3\n      pop\n        /* \"#utility.yul\":3692:3809   */\n      pop\n        /* \"#utility.yul\":3848:3850   */\n      0x20\n        /* \"#utility.yul\":3874:3927   */\n      tag_269\n        /* \"#utility.yul\":3919:3926   */\n      dup6\n        /* \"#utility.yul\":3910:3916   */\n      dup3\n        /* \"#utility.yul\":3899:3908   */\n      dup7\n        /* \"#utility.yul\":3895:3917   */\n      add\n        /* \"#utility.yul\":3874:3927   */\n      tag_200\n      jump\t// in\n    tag_269:\n        /* \"#utility.yul\":3864:3927   */\n      swap2\n      pop\n        /* \"#utility.yul\":3819:3937   */\n      pop\n        /* \"#utility.yul\":3470:3944   */\n      swap3\n      pop\n      swap3\n      swap1\n      pop\n      jump\t// out\n        /* \"#utility.yul\":3950:4424   */\n    tag_45:\n        /* \"#utility.yul\":4018:4024   */\n      0x00\n        /* \"#utility.yul\":4026:4032   */\n      dup1\n        /* \"#utility.yul\":4075:4077   */\n      0x40\n        /* \"#utility.yul\":4063:4072   */\n      dup4\n        /* \"#utility.yul\":4054:4061   */\n      dup6\n        /* \"#utility.yul\":4050:4073   */\n      sub\n        /* \"#utility.yul\":4046:4078   */\n      slt\n        /* \"#utility.yul\":4043:4162   */\n      iszero\n      tag_271\n      jumpi\n        /* \"#utility.yul\":4081:4160   */\n      tag_272\n      tag_194\n      jump\t// in\n    tag_272:\n        /* \"#utility.yul\":4043:4162   */\n    tag_271:\n        /* \"#utility.yul\":4201:4202   */\n      0x00\n        /* \"#utility.yul\":4226:4279   */\n      tag_273\n        /* \"#utility.yul\":4271:4278   */\n      dup6\n        /* \"#utility.yul\":4262:4268   */\n      dup3\n        /* \"#utility.yul\":4251:4260   */\n      dup7\n        /* \"#utility.yul\":4247:4269   */\n      add\n        /* \"#utility.yul\":4226:4279   */\n      tag_198\n      jump\t// in\n    tag_273:\n        /* \"#utility.yul\":4216:4279   */\n      swap3\n      pop\n        /* \"#utility.yul\":4172:4289   */\n      pop\n        /* \"#utility.yul\":4328:4330   */\n      0x20\n        /* \"#utility.yul\":4354:4407   */\n      tag_274\n        /* \"#utility.yul\":4399:4406   */\n      dup6\n        /* \"#utility.yul\":4390:4396   */\n      dup3\n        /* \"#utility.yul\":4379:4388   */\n      dup7\n        /* \"#utility.yul\":4375:4397   */\n      add\n        /* \"#utility.yul\":4354:4407   */\n      tag_200\n      jump\t// in\n    tag_274:\n        /* \"#utility.yul\":4344:4407   */\n      swap2\n      pop\n        /* \"#utility.yul\":4299:4417   */\n      pop\n        /* \"#utility.yul\":3950:4424   */\n      swap3\n      pop\n      swap3\n      swap1\n      pop\n      jump\t// out\n        /* \"#utility.yul\":4430:4548   */\n    tag_201:\n        /* \"#utility.yul\":4517:4541   */\n      tag_276\n        /* \"#utility.yul\":4535:4540   */\n      dup2\n        /* \"#utility.yul\":4517:4541   */\n      tag_196\n      jump\t// in\n    tag_276:\n        /* \"#utility.yul\":4512:4515   */\n      dup3\n        /* \"#utility.yul\":4505:4542   */\n      mstore\n        /* \"#utility.yul\":4430:4548   */\n      pop\n      pop\n      jump\t// out\n        /* \"#utility.yul\":4554:4776   */\n    tag_53:\n        /* \"#utility.yul\":4647:4651   */\n      0x00\n        /* \"#utility.yul\":4685:4687   */\n      0x20\n        /* \"#utility.yul\":4674:4683   */\n      dup3\n        /* \"#utility.yul\":4670:4688   */\n      add\n        /* \"#utility.yul\":4662:4688   */\n      swap1\n      pop\n        /* \"#utility.yul\":4698:4769   */\n      tag_278\n        /* \"#utility.yul\":4766:4767   */\n      0x00\n        /* \"#utility.yul\":4755:4764   */\n      dup4\n        /* \"#utility.yul\":4751:4768   */\n      add\n        /* \"#utility.yul\":4742:4748   */\n      dup5\n        /* \"#utility.yul\":4698:4769   */\n      tag_201\n      jump\t// in\n    tag_278:\n        /* \"#utility.yul\":4554:4776   */\n      swap3\n      swap2\n      pop\n      pop\n      jump\t// out\n        /* \"#utility.yul\":4782:4925   */\n    tag_202:\n        /* \"#utility.yul\":4839:4844   */\n      0x00\n        /* \"#utility.yul\":4870:4876   */\n      dup2\n        /* \"#utility.yul\":4864:4877   */\n      mload\n        /* \"#utility.yul\":4855:4877   */\n      swap1\n      pop\n        /* \"#utility.yul\":4886:4919   */\n      tag_280\n        /* \"#utility.yul\":4913:4918   */\n      dup2\n        /* \"#utility.yul\":4886:4919   */\n      tag_199\n      jump\t// in\n    tag_280:\n        /* \"#utility.yul\":4782:4925   */\n      swap3\n      swap2\n      pop\n      pop\n      jump\t// out\n        /* \"#utility.yul\":4931:5282   */\n    tag_57:\n        /* \"#utility.yul\":5001:5007   */\n      0x00\n        /* \"#utility.yul\":5050:5052   */\n      0x20\n        /* \"#utility.yul\":5038:5047   */\n      dup3\n        /* \"#utility.yul\":5029:5036   */\n      dup5\n        /* \"#utility.yul\":5025:5048   */\n      sub\n        /* \"#utility.yul\":5021:5053   */\n      slt\n        /* \"#utility.yul\":5018:5137   */\n      iszero\n      tag_282\n      jumpi\n        /* \"#utility.yul\":5056:5135   */\n      tag_283\n      tag_194\n      jump\t// in\n    tag_283:\n        /* \"#utility.yul\":5018:5137   */\n    tag_282:\n        /* \"#utility.yul\":5176:5177   */\n      0x00\n        /* \"#utility.yul\":5201:5265   */\n      tag_284\n        /* \"#utility.yul\":5257:5264   */\n      dup5\n        /* \"#utility.yul\":5248:5254   */\n      dup3\n        /* \"#utility.yul\":5237:5246   */\n      dup6\n        /* \"#utility.yul\":5233:5255   */\n      add\n        /* \"#utility.yul\":5201:5265   */\n      tag_202\n      jump\t// in\n    tag_284:\n        /* \"#utility.yul\":5191:5265   */\n      swap2\n      pop\n        /* \"#utility.yul\":5147:5275   */\n      pop\n        /* \"#utility.yul\":4931:5282   */\n      swap3\n      swap2\n      pop\n      pop\n      jump\t// out\n        /* \"#utility.yul\":5288:5468   */\n    tag_203:\n        /* \"#utility.yul\":5336:5413   */\n      0x4e487b7100000000000000000000000000000000000000000000000000000000\n        /* \"#utility.yul\":5333:5334   */\n      0x00\n        /* \"#utility.yul\":5326:5414   */\n      mstore\n        /* \"#utility.yul\":5433:5437   */\n      0x11\n        /* \"#utility.yul\":5430:5431   */\n      0x04\n        /* \"#utility.yul\":5423:5438   */\n      mstore\n        /* \"#utility.yul\":5457:5461   */\n      0x24\n        /* \"#utility.yul\":5454:5455   */\n      0x00\n        /* \"#utility.yul\":5447:5462   */\n      revert\n        /* \"#utility.yul\":5474:5884   */\n    tag_63:\n        /* \"#utility.yul\":5514:5521   */\n      0x00\n        /* \"#utility.yul\":5537:5557   */\n      tag_287\n        /* \"#utility.yul\":5555:5556   */\n      dup3\n        /* \"#utility.yul\":5537:5557   */\n      tag_191\n      jump\t// in\n    tag_287:\n        /* \"#utility.yul\":5532:5557   */\n      swap2\n      pop\n        /* \"#utility.yul\":5571:5591   */\n      tag_288\n        /* \"#utility.yul\":5589:5590   */\n      dup4\n        /* \"#utility.yul\":5571:5591   */\n      tag_191\n      jump\t// in\n    tag_288:\n        /* \"#utility.yul\":5566:5591   */\n      swap3\n      pop\n        /* \"#utility.yul\":5626:5627   */\n      dup3\n        /* \"#utility.yul\":5623:5624   */\n      dup3\n        /* \"#utility.yul\":5619:5628   */\n      mul\n        /* \"#utility.yul\":5648:5678   */\n      tag_289\n        /* \"#utility.yul\":5666:5677   */\n      dup2\n        /* \"#utility.yul\":5648:5678   */\n      tag_191\n      jump\t// in\n    tag_289:\n        /* \"#utility.yul\":5637:5678   */\n      swap2\n      pop\n        /* \"#utility.yul\":5827:5828   */\n      dup3\n        /* \"#utility.yul\":5818:5825   */\n      dup3\n        /* \"#utility.yul\":5814:5829   */\n      div\n        /* \"#utility.yul\":5811:5812   */\n      dup5\n        /* \"#utility.yul\":5808:5830   */\n      eq\n        /* \"#utility.yul\":5788:5789   */\n      dup4\n        /* \"#utility.yul\":5781:5790   */\n      iszero\n        /* \"#utility.yul\":5761:5844   */\n      or\n        /* \"#utility.yul\":5738:5877   */\n      tag_290\n      jumpi\n        /* \"#utility.yul\":5857:5875   */\n      tag_291\n      tag_203\n      jump\t// in\n    tag_291:\n        /* \"#utility.yul\":5738:5877   */\n    tag_290:\n        /* \"#utility.yul\":5522:5884   */\n      pop\n        /* \"#utility.yul\":5474:5884   */\n      swap3\n      swap2\n      pop\n      pop\n      jump\t// out\n        /* \"#utility.yul\":5890:6070   */\n    tag_204:\n        /* \"#utility.yul\":5938:6015   */\n      0x4e487b7100000000000000000000000000000000000000000000000000000000\n        /* \"#utility.yul\":5935:5936   */\n      0x00\n        /* \"#utility.yul\":5928:6016   */\n      mstore\n        /* \"#utility.yul\":6035:6039   */\n      0x12\n        /* \"#utility.yul\":6032:6033   */\n      0x04\n        /* \"#utility.yul\":6025:6040   */\n      mstore\n        /* \"#utility.yul\":6059:6063   */\n      0x24\n        /* \"#utility.yul\":6056:6057   */\n      0x00\n        /* \"#utility.yul\":6049:6064   */\n      revert\n        /* \"#utility.yul\":6076:6261   */\n    tag_65:\n        /* \"#utility.yul\":6116:6117   */\n      0x00\n        /* \"#utility.yul\":6133:6153   */\n      tag_294\n        /* \"#utility.yul\":6151:6152   */\n      dup3\n        /* \"#utility.yul\":6133:6153   */\n      tag_191\n      jump\t// in\n    tag_294:\n        /* \"#utility.yul\":6128:6153   */\n      swap2\n      pop\n        /* \"#utility.yul\":6167:6187   */\n      tag_295\n        /* \"#utility.yul\":6185:6186   */\n      dup4\n        /* \"#utility.yul\":6167:6187   */\n      tag_191\n      jump\t// in\n    tag_295:\n        /* \"#utility.yul\":6162:6187   */\n      swap3\n      pop\n        /* \"#utility.yul\":6206:6207   */\n      dup3\n        /* \"#utility.yul\":6196:6231   */\n      tag_296\n      jumpi\n        /* \"#utility.yul\":6211:6229   */\n      tag_297\n      tag_204\n      jump\t// in\n    tag_297:\n        /* \"#utility.yul\":6196:6231   */\n    tag_296:\n        /* \"#utility.yul\":6253:6254   */\n      dup3\n        /* \"#utility.yul\":6250:6251   */\n      dup3\n        /* \"#utility.yul\":6246:6255   */\n      div\n        /* \"#utility.yul\":6241:6255   */\n      swap1\n      pop\n        /* \"#utility.yul\":6076:6261   */\n      swap3\n      swap2\n      pop\n      pop\n      jump\t// out\n        /* \"#utility.yul\":6267:6436   */\n    tag_205:\n        /* \"#utility.yul\":6351:6362   */\n      0x00\n        /* \"#utility.yul\":6385:6391   */\n      dup3\n        /* \"#utility.yul\":6380:6383   */\n      dup3\n        /* \"#utility.yul\":6373:6392   */\n      mstore\n        /* \"#utility.yul\":6425:6429   */\n      0x20\n        /* \"#utility.yul\":6420:6423   */\n      dup3\n        /* \"#utility.yul\":6416:6430   */\n      add\n        /* \"#utility.yul\":6401:6430   */\n      swap1\n      pop\n        /* \"#utility.yul\":6267:6436   */\n      swap3\n      swap2\n      pop\n      pop\n      jump\t// out\n        /* \"#utility.yul\":6442:6614   */\n    tag_206:\n        /* \"#utility.yul\":6582:6606   */\n      0x616d6f756e7430206f7220616d6f756e7431203d203000000000000000000000\n        /* \"#utility.yul\":6578:6579   */\n      0x00\n        /* \"#utility.yul\":6570:6576   */\n      dup3\n        /* \"#utility.yul\":6566:6580   */\n      add\n        /* \"#utility.yul\":6559:6607   */\n      mstore\n        /* \"#utility.yul\":6442:6614   */\n      pop\n      jump\t// out\n        /* \"#utility.yul\":6620:6986   */\n    tag_207:\n        /* \"#utility.yul\":6762:6765   */\n      0x00\n        /* \"#utility.yul\":6783:6850   */\n      tag_301\n        /* \"#utility.yul\":6847:6849   */\n      0x16\n        /* \"#utility.yul\":6842:6845   */\n      dup4\n        /* \"#utility.yul\":6783:6850   */\n      tag_205\n      jump\t// in\n    tag_301:\n        /* \"#utility.yul\":6776:6850   */\n      swap2\n      pop\n        /* \"#utility.yul\":6859:6952   */\n      tag_302\n        /* \"#utility.yul\":6948:6951   */\n      dup3\n        /* \"#utility.yul\":6859:6952   */\n      tag_206\n      jump\t// in\n    tag_302:\n        /* \"#utility.yul\":6977:6979   */\n      0x20\n        /* \"#utility.yul\":6972:6975   */\n      dup3\n        /* \"#utility.yul\":6968:6980   */\n      add\n        /* \"#utility.yul\":6961:6980   */\n      swap1\n      pop\n        /* \"#utility.yul\":6620:6986   */\n      swap2\n      swap1\n      pop\n      jump\t// out\n        /* \"#utility.yul\":6992:7411   */\n    tag_71:\n        /* \"#utility.yul\":7158:7162   */\n      0x00\n        /* \"#utility.yul\":7196:7198   */\n      0x20\n        /* \"#utility.yul\":7185:7194   */\n      dup3\n        /* \"#utility.yul\":7181:7199   */\n      add\n        /* \"#utility.yul\":7173:7199   */\n      swap1\n      pop\n        /* \"#utility.yul\":7245:7254   */\n      dup2\n        /* \"#utility.yul\":7239:7243   */\n      dup2\n        /* \"#utility.yul\":7235:7255   */\n      sub\n        /* \"#utility.yul\":7231:7232   */\n      0x00\n        /* \"#utility.yul\":7220:7229   */\n      dup4\n        /* \"#utility.yul\":7216:7233   */\n      add\n        /* \"#utility.yul\":7209:7256   */\n      mstore\n        /* \"#utility.yul\":7273:7404   */\n      tag_304\n        /* \"#utility.yul\":7399:7403   */\n      dup2\n        /* \"#utility.yul\":7273:7404   */\n      tag_207\n      jump\t// in\n    tag_304:\n        /* \"#utility.yul\":7265:7404   */\n      swap1\n      pop\n        /* \"#utility.yul\":6992:7411   */\n      swap2\n      swap1\n      pop\n      jump\t// out\n        /* \"#utility.yul\":7417:7611   */\n    tag_76:\n        /* \"#utility.yul\":7457:7461   */\n      0x00\n        /* \"#utility.yul\":7477:7497   */\n      tag_306\n        /* \"#utility.yul\":7495:7496   */\n      dup3\n        /* \"#utility.yul\":7477:7497   */\n      tag_191\n      jump\t// in\n    tag_306:\n        /* \"#utility.yul\":7472:7497   */\n      swap2\n      pop\n        /* \"#utility.yul\":7511:7531   */\n      tag_307\n        /* \"#utility.yul\":7529:7530   */\n      dup4\n        /* \"#utility.yul\":7511:7531   */\n      tag_191\n      jump\t// in\n    tag_307:\n        /* \"#utility.yul\":7506:7531   */\n      swap3\n      pop\n        /* \"#utility.yul\":7555:7556   */\n      dup3\n        /* \"#utility.yul\":7552:7553   */\n      dup3\n        /* \"#utility.yul\":7548:7557   */\n      sub\n        /* \"#utility.yul\":7540:7557   */\n      swap1\n      pop\n        /* \"#utility.yul\":7579:7580   */\n      dup2\n        /* \"#utility.yul\":7573:7577   */\n      dup2\n        /* \"#utility.yul\":7570:7581   */\n      gt\n        /* \"#utility.yul\":7567:7604   */\n      iszero\n      tag_308\n      jumpi\n        /* \"#utility.yul\":7584:7602   */\n      tag_309\n      tag_203\n      jump\t// in\n    tag_309:\n        /* \"#utility.yul\":7567:7604   */\n    tag_308:\n        /* \"#utility.yul\":7417:7611   */\n      swap3\n      swap2\n      pop\n      pop\n      jump\t// out\n        /* \"#utility.yul\":7617:7949   */\n    tag_80:\n        /* \"#utility.yul\":7738:7742   */\n      0x00\n        /* \"#utility.yul\":7776:7778   */\n      0x40\n        /* \"#utility.yul\":7765:7774   */\n      dup3\n        /* \"#utility.yul\":7761:7779   */\n      add\n        /* \"#utility.yul\":7753:7779   */\n      swap1\n      pop\n        /* \"#utility.yul\":7789:7860   */\n      tag_311\n        /* \"#utility.yul\":7857:7858   */\n      0x00\n        /* \"#utility.yul\":7846:7855   */\n      dup4\n        /* \"#utility.yul\":7842:7859   */\n      add\n        /* \"#utility.yul\":7833:7839   */\n      dup6\n        /* \"#utility.yul\":7789:7860   */\n      tag_201\n      jump\t// in\n    tag_311:\n        /* \"#utility.yul\":7870:7942   */\n      tag_312\n        /* \"#utility.yul\":7938:7940   */\n      0x20\n        /* \"#utility.yul\":7927:7936   */\n      dup4\n        /* \"#utility.yul\":7923:7941   */\n      add\n        /* \"#utility.yul\":7914:7920   */\n      dup5\n        /* \"#utility.yul\":7870:7942   */\n      tag_192\n      jump\t// in\n    tag_312:\n        /* \"#utility.yul\":7617:7949   */\n      swap4\n      swap3\n      pop\n      pop\n      pop\n      jump\t// out\n        /* \"#utility.yul\":7955:8045   */\n    tag_208:\n        /* \"#utility.yul\":7989:7996   */\n      0x00\n        /* \"#utility.yul\":8032:8037   */\n      dup2\n        /* \"#utility.yul\":8025:8038   */\n      iszero\n        /* \"#utility.yul\":8018:8039   */\n      iszero\n        /* \"#utility.yul\":8007:8039   */\n      swap1\n      pop\n        /* \"#utility.yul\":7955:8045   */\n      swap2\n      swap1\n      pop\n      jump\t// out\n        /* \"#utility.yul\":8051:8167   */\n    tag_209:\n        /* \"#utility.yul\":8121:8142   */\n      tag_315\n        /* \"#utility.yul\":8136:8141   */\n      dup2\n        /* \"#utility.yul\":8121:8142   */\n      tag_208\n      jump\t// in\n    tag_315:\n        /* \"#utility.yul\":8114:8119   */\n      dup2\n        /* \"#utility.yul\":8111:8143   */\n      eq\n        /* \"#utility.yul\":8101:8161   */\n      tag_316\n      jumpi\n        /* \"#utility.yul\":8157:8158   */\n      0x00\n        /* \"#utility.yul\":8154:8155   */\n      dup1\n        /* \"#utility.yul\":8147:8159   */\n      revert\n        /* \"#utility.yul\":8101:8161   */\n    tag_316:\n        /* \"#utility.yul\":8051:8167   */\n      pop\n      jump\t// out\n        /* \"#utility.yul\":8173:8310   */\n    tag_210:\n        /* \"#utility.yul\":8227:8232   */\n      0x00\n        /* \"#utility.yul\":8258:8264   */\n      dup2\n        /* \"#utility.yul\":8252:8265   */\n      mload\n        /* \"#utility.yul\":8243:8265   */\n      swap1\n      pop\n        /* \"#utility.yul\":8274:8304   */\n      tag_318\n        /* \"#utility.yul\":8298:8303   */\n      dup2\n        /* \"#utility.yul\":8274:8304   */\n      tag_209\n      jump\t// in\n    tag_318:\n        /* \"#utility.yul\":8173:8310   */\n      swap3\n      swap2\n      pop\n      pop\n      jump\t// out\n        /* \"#utility.yul\":8316:8661   */\n    tag_84:\n        /* \"#utility.yul\":8383:8389   */\n      0x00\n        /* \"#utility.yul\":8432:8434   */\n      0x20\n        /* \"#utility.yul\":8420:8429   */\n      dup3\n        /* \"#utility.yul\":8411:8418   */\n      dup5\n        /* \"#utility.yul\":8407:8430   */\n      sub\n        /* \"#utility.yul\":8403:8435   */\n      slt\n        /* \"#utility.yul\":8400:8519   */\n      iszero\n      tag_320\n      jumpi\n        /* \"#utility.yul\":8438:8517   */\n      tag_321\n      tag_194\n      jump\t// in\n    tag_321:\n        /* \"#utility.yul\":8400:8519   */\n    tag_320:\n        /* \"#utility.yul\":8558:8559   */\n      0x00\n        /* \"#utility.yul\":8583:8644   */\n      tag_322\n        /* \"#utility.yul\":8636:8643   */\n      dup5\n        /* \"#utility.yul\":8627:8633   */\n      dup3\n        /* \"#utility.yul\":8616:8625   */\n      dup6\n        /* \"#utility.yul\":8612:8634   */\n      add\n        /* \"#utility.yul\":8583:8644   */\n      tag_210\n      jump\t// in\n    tag_322:\n        /* \"#utility.yul\":8573:8644   */\n      swap2\n      pop\n        /* \"#utility.yul\":8529:8654   */\n      pop\n        /* \"#utility.yul\":8316:8661   */\n      swap3\n      swap2\n      pop\n      pop\n      jump\t// out\n        /* \"#utility.yul\":8667:9109   */\n    tag_91:\n        /* \"#utility.yul\":8816:8820   */\n      0x00\n        /* \"#utility.yul\":8854:8856   */\n      0x60\n        /* \"#utility.yul\":8843:8852   */\n      dup3\n        /* \"#utility.yul\":8839:8857   */\n      add\n        /* \"#utility.yul\":8831:8857   */\n      swap1\n      pop\n        /* \"#utility.yul\":8867:8938   */\n      tag_324\n        /* \"#utility.yul\":8935:8936   */\n      0x00\n        /* \"#utility.yul\":8924:8933   */\n      dup4\n        /* \"#utility.yul\":8920:8937   */\n      add\n        /* \"#utility.yul\":8911:8917   */\n      dup7\n        /* \"#utility.yul\":8867:8938   */\n      tag_201\n      jump\t// in\n    tag_324:\n        /* \"#utility.yul\":8948:9020   */\n      tag_325\n        /* \"#utility.yul\":9016:9018   */\n      0x20\n        /* \"#utility.yul\":9005:9014   */\n      dup4\n        /* \"#utility.yul\":9001:9019   */\n      add\n        /* \"#utility.yul\":8992:8998   */\n      dup6\n        /* \"#utility.yul\":8948:9020   */\n      tag_201\n      jump\t// in\n    tag_325:\n        /* \"#utility.yul\":9030:9102   */\n      tag_326\n        /* \"#utility.yul\":9098:9100   */\n      0x40\n        /* \"#utility.yul\":9087:9096   */\n      dup4\n        /* \"#utility.yul\":9083:9101   */\n      add\n        /* \"#utility.yul\":9074:9080   */\n      dup5\n        /* \"#utility.yul\":9030:9102   */\n      tag_192\n      jump\t// in\n    tag_326:\n        /* \"#utility.yul\":8667:9109   */\n      swap5\n      swap4\n      pop\n      pop\n      pop\n      pop\n      jump\t// out\n        /* \"#utility.yul\":9115:9281   */\n    tag_211:\n        /* \"#utility.yul\":9255:9273   */\n      0x78202f207920213d206478202f20647900000000000000000000000000000000\n        /* \"#utility.yul\":9251:9252   */\n      0x00\n        /* \"#utility.yul\":9243:9249   */\n      dup3\n        /* \"#utility.yul\":9239:9253   */\n      add\n        /* \"#utility.yul\":9232:9274   */\n      mstore\n        /* \"#utility.yul\":9115:9281   */\n      pop\n      jump\t// out\n        /* \"#utility.yul\":9287:9653   */\n    tag_212:\n        /* \"#utility.yul\":9429:9432   */\n      0x00\n        /* \"#utility.yul\":9450:9517   */\n      tag_329\n        /* \"#utility.yul\":9514:9516   */\n      0x10\n        /* \"#utility.yul\":9509:9512   */\n      dup4\n        /* \"#utility.yul\":9450:9517   */\n      tag_205\n      jump\t// in\n    tag_329:\n        /* \"#utility.yul\":9443:9517   */\n      swap2\n      pop\n        /* \"#utility.yul\":9526:9619   */\n      tag_330\n        /* \"#utility.yul\":9615:9618   */\n      dup3\n        /* \"#utility.yul\":9526:9619   */\n      tag_211\n      jump\t// in\n    tag_330:\n        /* \"#utility.yul\":9644:9646   */\n      0x20\n        /* \"#utility.yul\":9639:9642   */\n      dup3\n        /* \"#utility.yul\":9635:9647   */\n      add\n        /* \"#utility.yul\":9628:9647   */\n      swap1\n      pop\n        /* \"#utility.yul\":9287:9653   */\n      swap2\n      swap1\n      pop\n      jump\t// out\n        /* \"#utility.yul\":9659:10078   */\n    tag_105:\n        /* \"#utility.yul\":9825:9829   */\n      0x00\n        /* \"#utility.yul\":9863:9865   */\n      0x20\n        /* \"#utility.yul\":9852:9861   */\n      dup3\n        /* \"#utility.yul\":9848:9866   */\n      add\n        /* \"#utility.yul\":9840:9866   */\n      swap1\n      pop\n        /* \"#utility.yul\":9912:9921   */\n      dup2\n        /* \"#utility.yul\":9906:9910   */\n      dup2\n        /* \"#utility.yul\":9902:9922   */\n      sub\n        /* \"#utility.yul\":9898:9899   */\n      0x00\n        /* \"#utility.yul\":9887:9896   */\n      dup4\n        /* \"#utility.yul\":9883:9900   */\n      add\n        /* \"#utility.yul\":9876:9923   */\n      mstore\n        /* \"#utility.yul\":9940:10071   */\n      tag_332\n        /* \"#utility.yul\":10066:10070   */\n      dup2\n        /* \"#utility.yul\":9940:10071   */\n      tag_212\n      jump\t// in\n    tag_332:\n        /* \"#utility.yul\":9932:10071   */\n      swap1\n      pop\n        /* \"#utility.yul\":9659:10078   */\n      swap2\n      swap1\n      pop\n      jump\t// out\n        /* \"#utility.yul\":10084:10244   */\n    tag_213:\n        /* \"#utility.yul\":10224:10236   */\n      0x736861726573203d203000000000000000000000000000000000000000000000\n        /* \"#utility.yul\":10220:10221   */\n      0x00\n        /* \"#utility.yul\":10212:10218   */\n      dup3\n        /* \"#utility.yul\":10208:10222   */\n      add\n        /* \"#utility.yul\":10201:10237   */\n      mstore\n        /* \"#utility.yul\":10084:10244   */\n      pop\n      jump\t// out\n        /* \"#utility.yul\":10250:10616   */\n    tag_214:\n        /* \"#utility.yul\":10392:10395   */\n      0x00\n        /* \"#utility.yul\":10413:10480   */\n      tag_335\n        /* \"#utility.yul\":10477:10479   */\n      0x0a\n        /* \"#utility.yul\":10472:10475   */\n      dup4\n        /* \"#utility.yul\":10413:10480   */\n      tag_205\n      jump\t// in\n    tag_335:\n        /* \"#utility.yul\":10406:10480   */\n      swap2\n      pop\n        /* \"#utility.yul\":10489:10582   */\n      tag_336\n        /* \"#utility.yul\":10578:10581   */\n      dup3\n        /* \"#utility.yul\":10489:10582   */\n      tag_213\n      jump\t// in\n    tag_336:\n        /* \"#utility.yul\":10607:10609   */\n      0x20\n        /* \"#utility.yul\":10602:10605   */\n      dup3\n        /* \"#utility.yul\":10598:10610   */\n      add\n        /* \"#utility.yul\":10591:10610   */\n      swap1\n      pop\n        /* \"#utility.yul\":10250:10616   */\n      swap2\n      swap1\n      pop\n      jump\t// out\n        /* \"#utility.yul\":10622:11041   */\n    tag_119:\n        /* \"#utility.yul\":10788:10792   */\n      0x00\n        /* \"#utility.yul\":10826:10828   */\n      0x20\n        /* \"#utility.yul\":10815:10824   */\n      dup3\n        /* \"#utility.yul\":10811:10829   */\n      add\n        /* \"#utility.yul\":10803:10829   */\n      swap1\n      pop\n        /* \"#utility.yul\":10875:10884   */\n      dup2\n        /* \"#utility.yul\":10869:10873   */\n      dup2\n        /* \"#utility.yul\":10865:10885   */\n      sub\n        /* \"#utility.yul\":10861:10862   */\n      0x00\n        /* \"#utility.yul\":10850:10859   */\n      dup4\n        /* \"#utility.yul\":10846:10863   */\n      add\n        /* \"#utility.yul\":10839:10886   */\n      mstore\n        /* \"#utility.yul\":10903:11034   */\n      tag_338\n        /* \"#utility.yul\":11029:11033   */\n      dup2\n        /* \"#utility.yul\":10903:11034   */\n      tag_214\n      jump\t// in\n    tag_338:\n        /* \"#utility.yul\":10895:11034   */\n      swap1\n      pop\n        /* \"#utility.yul\":10622:11041   */\n      swap2\n      swap1\n      pop\n      jump\t// out\n        /* \"#utility.yul\":11047:11210   */\n    tag_215:\n        /* \"#utility.yul\":11187:11202   */\n      0x696e76616c696420746f6b656e00000000000000000000000000000000000000\n        /* \"#utility.yul\":11183:11184   */\n      0x00\n        /* \"#utility.yul\":11175:11181   */\n      dup3\n        /* \"#utility.yul\":11171:11185   */\n      add\n        /* \"#utility.yul\":11164:11203   */\n      mstore\n        /* \"#utility.yul\":11047:11210   */\n      pop\n      jump\t// out\n        /* \"#utility.yul\":11216:11582   */\n    tag_216:\n        /* \"#utility.yul\":11358:11361   */\n      0x00\n        /* \"#utility.yul\":11379:11446   */\n      tag_341\n        /* \"#utility.yul\":11443:11445   */\n      0x0d\n        /* \"#utility.yul\":11438:11441   */\n      dup4\n        /* \"#utility.yul\":11379:11446   */\n      tag_205\n      jump\t// in\n    tag_341:\n        /* \"#utility.yul\":11372:11446   */\n      swap2\n      pop\n        /* \"#utility.yul\":11455:11548   */\n      tag_342\n        /* \"#utility.yul\":11544:11547   */\n      dup3\n        /* \"#utility.yul\":11455:11548   */\n      tag_215\n      jump\t// in\n    tag_342:\n        /* \"#utility.yul\":11573:11575   */\n      0x20\n        /* \"#utility.yul\":11568:11571   */\n      dup3\n        /* \"#utility.yul\":11564:11576   */\n      add\n        /* \"#utility.yul\":11557:11576   */\n      swap1\n      pop\n        /* \"#utility.yul\":11216:11582   */\n      swap2\n      swap1\n      pop\n      jump\t// out\n        /* \"#utility.yul\":11588:12007   */\n    tag_135:\n        /* \"#utility.yul\":11754:11758   */\n      0x00\n        /* \"#utility.yul\":11792:11794   */\n      0x20\n        /* \"#utility.yul\":11781:11790   */\n      dup3\n        /* \"#utility.yul\":11777:11795   */\n      add\n        /* \"#utility.yul\":11769:11795   */\n      swap1\n      pop\n        /* \"#utility.yul\":11841:11850   */\n      dup2\n        /* \"#utility.yul\":11835:11839   */\n      dup2\n        /* \"#utility.yul\":11831:11851   */\n      sub\n        /* \"#utility.yul\":11827:11828   */\n      0x00\n        /* \"#utility.yul\":11816:11825   */\n      dup4\n        /* \"#utility.yul\":11812:11829   */\n      add\n        /* \"#utility.yul\":11805:11852   */\n      mstore\n        /* \"#utility.yul\":11869:12000   */\n      tag_344\n        /* \"#utility.yul\":11995:11999   */\n      dup2\n        /* \"#utility.yul\":11869:12000   */\n      tag_216\n      jump\t// in\n    tag_344:\n        /* \"#utility.yul\":11861:12000   */\n      swap1\n      pop\n        /* \"#utility.yul\":11588:12007   */\n      swap2\n      swap1\n      pop\n      jump\t// out\n        /* \"#utility.yul\":12013:12176   */\n    tag_217:\n        /* \"#utility.yul\":12153:12168   */\n      0x616d6f756e7420696e203d203000000000000000000000000000000000000000\n        /* \"#utility.yul\":12149:12150   */\n      0x00\n        /* \"#utility.yul\":12141:12147   */\n      dup3\n        /* \"#utility.yul\":12137:12151   */\n      add\n        /* \"#utility.yul\":12130:12169   */\n      mstore\n        /* \"#utility.yul\":12013:12176   */\n      pop\n      jump\t// out\n        /* \"#utility.yul\":12182:12548   */\n    tag_218:\n        /* \"#utility.yul\":12324:12327   */\n      0x00\n        /* \"#utility.yul\":12345:12412   */\n      tag_347\n        /* \"#utility.yul\":12409:12411   */\n      0x0d\n        /* \"#utility.yul\":12404:12407   */\n      dup4\n        /* \"#utility.yul\":12345:12412   */\n      tag_205\n      jump\t// in\n    tag_347:\n        /* \"#utility.yul\":12338:12412   */\n      swap2\n      pop\n        /* \"#utility.yul\":12421:12514   */\n      tag_348\n        /* \"#utility.yul\":12510:12513   */\n      dup3\n        /* \"#utility.yul\":12421:12514   */\n      tag_217\n      jump\t// in\n    tag_348:\n        /* \"#utility.yul\":12539:12541   */\n      0x20\n        /* \"#utility.yul\":12534:12537   */\n      dup3\n        /* \"#utility.yul\":12530:12542   */\n      add\n        /* \"#utility.yul\":12523:12542   */\n      swap1\n      pop\n        /* \"#utility.yul\":12182:12548   */\n      swap2\n      swap1\n      pop\n      jump\t// out\n        /* \"#utility.yul\":12554:12973   */\n    tag_138:\n        /* \"#utility.yul\":12720:12724   */\n      0x00\n        /* \"#utility.yul\":12758:12760   */\n      0x20\n        /* \"#utility.yul\":12747:12756   */\n      dup3\n        /* \"#utility.yul\":12743:12761   */\n      add\n        /* \"#utility.yul\":12735:12761   */\n      swap1\n      pop\n        /* \"#utility.yul\":12807:12816   */\n      dup2\n        /* \"#utility.yul\":12801:12805   */\n      dup2\n        /* \"#utility.yul\":12797:12817   */\n      sub\n        /* \"#utility.yul\":12793:12794   */\n      0x00\n        /* \"#utility.yul\":12782:12791   */\n      dup4\n        /* \"#utility.yul\":12778:12795   */\n      add\n        /* \"#utility.yul\":12771:12818   */\n      mstore\n        /* \"#utility.yul\":12835:12966   */\n      tag_350\n        /* \"#utility.yul\":12961:12965   */\n      dup2\n        /* \"#utility.yul\":12835:12966   */\n      tag_218\n      jump\t// in\n    tag_350:\n        /* \"#utility.yul\":12827:12966   */\n      swap1\n      pop\n        /* \"#utility.yul\":12554:12973   */\n      swap2\n      swap1\n      pop\n      jump\t// out\n        /* \"#utility.yul\":12979:13170   */\n    tag_148:\n        /* \"#utility.yul\":13019:13022   */\n      0x00\n        /* \"#utility.yul\":13038:13058   */\n      tag_352\n        /* \"#utility.yul\":13056:13057   */\n      dup3\n        /* \"#utility.yul\":13038:13058   */\n      tag_191\n      jump\t// in\n    tag_352:\n        /* \"#utility.yul\":13033:13058   */\n      swap2\n      pop\n        /* \"#utility.yul\":13072:13092   */\n      tag_353\n        /* \"#utility.yul\":13090:13091   */\n      dup4\n        /* \"#utility.yul\":13072:13092   */\n      tag_191\n      jump\t// in\n    tag_353:\n        /* \"#utility.yul\":13067:13092   */\n      swap3\n      pop\n        /* \"#utility.yul\":13115:13116   */\n      dup3\n        /* \"#utility.yul\":13112:13113   */\n      dup3\n        /* \"#utility.yul\":13108:13117   */\n      add\n        /* \"#utility.yul\":13101:13117   */\n      swap1\n      pop\n        /* \"#utility.yul\":13136:13139   */\n      dup1\n        /* \"#utility.yul\":13133:13134   */\n      dup3\n        /* \"#utility.yul\":13130:13140   */\n      gt\n        /* \"#utility.yul\":13127:13163   */\n      iszero\n      tag_354\n      jumpi\n        /* \"#utility.yul\":13143:13161   */\n      tag_355\n      tag_203\n      jump\t// in\n    tag_355:\n        /* \"#utility.yul\":13127:13163   */\n    tag_354:\n        /* \"#utility.yul\":12979:13170   */\n      swap3\n      swap2\n      pop\n      pop\n      jump\t// out\n\n    auxdata: 0xa264697066735822122045378d7fa4c7f96e9218b86eb448785b47d39dd7d3921e322d82b236f53b2a5364736f6c63430008110033\n}\n",
				"bytecode": {
					"linkReferences": {},
					"object": "60c06040523480156200001157600080fd5b506040516200187f3803806200187f833981810160405281019062000037919062000111565b8173ffffffffffffffffffffffffffffffffffffffff1660808173ffffffffffffffffffffffffffffffffffffffff16815250508073ffffffffffffffffffffffffffffffffffffffff1660a08173ffffffffffffffffffffffffffffffffffffffff1681525050505062000158565b600080fd5b600073ffffffffffffffffffffffffffffffffffffffff82169050919050565b6000620000d982620000ac565b9050919050565b620000eb81620000cc565b8114620000f757600080fd5b50565b6000815190506200010b81620000e0565b92915050565b600080604083850312156200012b576200012a620000a7565b5b60006200013b85828601620000fa565b92505060206200014e85828601620000fa565b9150509250929050565b60805160a05161168a620001f5600039600081816102e2015281816104cc015281816106150152818161087a0152818161097601528181610aa601528181610b1401528181610d240152610dcf0152600081816101f1015281816102440152818161042d01528181610574015281816107e00152818161092101528181610a4a01528181610ac701528181610af30152610c8a015261168a6000f3fe608060405234801561001057600080fd5b50600436106100935760003560e01c806370a082311161006657806370a08231146101105780639c8f9f23146101405780639cd441da14610171578063d004f0f7146101a1578063d21220a7146101d157610093565b80630dfe16811461009857806318160ddd146100b6578063443cb4bc146100d45780635a76f25e146100f2575b600080fd5b6100a06101ef565b6040516100ad9190610ffc565b60405180910390f35b6100be610213565b6040516100cb9190611030565b60405180910390f35b6100dc610219565b6040516100e99190611030565b60405180910390f35b6100fa61021f565b6040516101079190611030565b60405180910390f35b61012a6004803603810190610125919061108e565b610225565b6040516101379190611030565b60405180910390f35b61015a600480360381019061015591906110e7565b61023d565b604051610168929190611114565b60405180910390f35b61018b6004803603810190610186919061113d565b610570565b6040516101989190611030565b60405180910390f35b6101bb60048036038101906101b6919061117d565b61091d565b6040516101c89190611030565b60405180910390f35b6101d9610dcd565b6040516101e69190610ffc565b60405180910390f35b7f000000000000000000000000000000000000000000000000000000000000000081565b60025481565b60005481565b60015481565b60036020528060005260406000206000915090505481565b60008060007f000000000000000000000000000000000000000000000000000000000000000073ffffffffffffffffffffffffffffffffffffffff166370a08231306040518263ffffffff1660e01b815260040161029b91906111cc565b602060405180830381865afa1580156102b8573d6000803e3d6000fd5b505050506040513d601f19601f820116820180604052508101906102dc91906111fc565b905060007f000000000000000000000000000000000000000000000000000000000000000073ffffffffffffffffffffffffffffffffffffffff166370a08231306040518263ffffffff1660e01b815260040161033991906111cc565b602060405180830381865afa158015610356573d6000803e3d6000fd5b505050506040513d601f19601f8201168201806040525081019061037a91906111fc565b9050600254828661038b9190611258565b61039591906112c9565b935060025481866103a69190611258565b6103b091906112c9565b92506000841180156103c25750600083115b610401576040517f08c379a00000000000000000000000000000000000000000000000000000000081526004016103f890611357565b60405180910390fd5b61040b3386610df1565b61042b848361041a9190611377565b84836104269190611377565b610e64565b7f000000000000000000000000000000000000000000000000000000000000000073ffffffffffffffffffffffffffffffffffffffff1663a9059cbb33866040518363ffffffff1660e01b81526004016104869291906113ab565b6020604051808303816000875af11580156104a5573d6000803e3d6000fd5b505050506040513d601f19601f820116820180604052508101906104c9919061140c565b507f000000000000000000000000000000000000000000000000000000000000000073ffffffffffffffffffffffffffffffffffffffff1663a9059cbb33856040518363ffffffff1660e01b81526004016105259291906113ab565b6020604051808303816000875af1158015610544573d6000803e3d6000fd5b505050506040513d601f19601f82011682018060405250810190610568919061140c565b505050915091565b60007f000000000000000000000000000000000000000000000000000000000000000073ffffffffffffffffffffffffffffffffffffffff166323b872dd3330866040518463ffffffff1660e01b81526004016105cf93929190611439565b6020604051808303816000875af11580156105ee573d6000803e3d6000fd5b505050506040513d601f19601f82011682018060405250810190610612919061140c565b507f000000000000000000000000000000000000000000000000000000000000000073ffffffffffffffffffffffffffffffffffffffff166323b872dd3330856040518463ffffffff1660e01b815260040161067093929190611439565b6020604051808303816000875af115801561068f573d6000803e3d6000fd5b505050506040513d601f19601f820116820180604052508101906106b3919061140c565b506000805411806106c657506000600154115b1561072857826001546106d99190611258565b826000546106e79190611258565b14610727576040517f08c379a000000000000000000000000000000000000000000000000000000000815260040161071e906114bc565b60405180910390fd5b5b60006002540361074d5761074682846107419190611258565b610e76565b905061078e565b61078b600054600254856107619190611258565b61076b91906112c9565b6001546002548561077c9190611258565b61078691906112c9565b610ef0565b90505b600081116107d1576040517f08c379a00000000000000000000000000000000000000000000000000000000081526004016107c890611528565b60405180910390fd5b6107db3382610f0a565b6109177f000000000000000000000000000000000000000000000000000000000000000073ffffffffffffffffffffffffffffffffffffffff166370a08231306040518263ffffffff1660e01b815260040161083791906111cc565b602060405180830381865afa158015610854573d6000803e3d6000fd5b505050506040513d601f19601f8201168201806040525081019061087891906111fc565b7f000000000000000000000000000000000000000000000000000000000000000073ffffffffffffffffffffffffffffffffffffffff166370a08231306040518263ffffffff1660e01b81526004016108d191906111cc565b602060405180830381865afa1580156108ee573d6000803e3d6000fd5b505050506040513d601f19601f8201168201806040525081019061091291906111fc565b610e64565b92915050565b60007f000000000000000000000000000000000000000000000000000000000000000073ffffffffffffffffffffffffffffffffffffffff168373ffffffffffffffffffffffffffffffffffffffff1614806109c457507f000000000000000000000000000000000000000000000000000000000000000073ffffffffffffffffffffffffffffffffffffffff168373ffffffffffffffffffffffffffffffffffffffff16145b610a03576040517f08c379a00000000000000000000000000000000000000000000000000000000081526004016109fa90611594565b60405180910390fd5b60008211610a46576040517f08c379a0000000000000000000000000000000000000000000000000000000008152600401610a3d90611600565b60405180910390fd5b60007f000000000000000000000000000000000000000000000000000000000000000073ffffffffffffffffffffffffffffffffffffffff168473ffffffffffffffffffffffffffffffffffffffff1614905060008060008084610af1577f00000000000000000000000000000000000000000000000000000000000000007f0000000000000000000000000000000000000000000000000000000000000000600154600054610b3a565b7f00000000000000000000000000000000000000000000000000000000000000007f00000000000000000000000000000000000000000000000000000000000000006000546001545b93509350935093508373ffffffffffffffffffffffffffffffffffffffff166323b872dd33308a6040518463ffffffff1660e01b8152600401610b7f93929190611439565b6020604051808303816000875af1158015610b9e573d6000803e3d6000fd5b505050506040513d601f19601f82011682018060405250810190610bc2919061140c565b5060006103e86103e589610bd69190611258565b610be091906112c9565b90508083610bee9190611620565b8183610bfa9190611258565b610c0491906112c9565b96508373ffffffffffffffffffffffffffffffffffffffff1663a9059cbb33896040518363ffffffff1660e01b8152600401610c419291906113ab565b6020604051808303816000875af1158015610c60573d6000803e3d6000fd5b505050506040513d601f19601f82011682018060405250810190610c84919061140c565b50610dc17f000000000000000000000000000000000000000000000000000000000000000073ffffffffffffffffffffffffffffffffffffffff166370a08231306040518263ffffffff1660e01b8152600401610ce191906111cc565b602060405180830381865afa158015610cfe573d6000803e3d6000fd5b505050506040513d601f19601f82011682018060405250810190610d2291906111fc565b7f000000000000000000000000000000000000000000000000000000000000000073ffffffffffffffffffffffffffffffffffffffff166370a08231306040518263ffffffff1660e01b8152600401610d7b91906111cc565b602060405180830381865afa158015610d98573d6000803e3d6000fd5b505050506040513d601f19601f82011682018060405250810190610dbc91906111fc565b610e64565b50505050505092915050565b7f000000000000000000000000000000000000000000000000000000000000000081565b80600360008473ffffffffffffffffffffffffffffffffffffffff1673ffffffffffffffffffffffffffffffffffffffff1681526020019081526020016000206000828254610e409190611377565b925050819055508060026000828254610e599190611377565b925050819055505050565b81600081905550806001819055505050565b60006003821115610edd5781905060006001600284610e9591906112c9565b610e9f9190611620565b90505b81811015610ed7578091506002818285610ebc91906112c9565b610ec69190611620565b610ed091906112c9565b9050610ea2565b50610eeb565b60008214610eea57600190505b5b919050565b600081831115610f005781610f02565b825b905092915050565b80600360008473ffffffffffffffffffffffffffffffffffffffff1673ffffffffffffffffffffffffffffffffffffffff1681526020019081526020016000206000828254610f599190611620565b925050819055508060026000828254610f729190611620565b925050819055505050565b600073ffffffffffffffffffffffffffffffffffffffff82169050919050565b6000819050919050565b6000610fc2610fbd610fb884610f7d565b610f9d565b610f7d565b9050919050565b6000610fd482610fa7565b9050919050565b6000610fe682610fc9565b9050919050565b610ff681610fdb565b82525050565b60006020820190506110116000830184610fed565b92915050565b6000819050919050565b61102a81611017565b82525050565b60006020820190506110456000830184611021565b92915050565b600080fd5b600061105b82610f7d565b9050919050565b61106b81611050565b811461107657600080fd5b50565b60008135905061108881611062565b92915050565b6000602082840312156110a4576110a361104b565b5b60006110b284828501611079565b91505092915050565b6110c481611017565b81146110cf57600080fd5b50565b6000813590506110e1816110bb565b92915050565b6000602082840312156110fd576110fc61104b565b5b600061110b848285016110d2565b91505092915050565b60006040820190506111296000830185611021565b6111366020830184611021565b9392505050565b600080604083850312156111545761115361104b565b5b6000611162858286016110d2565b9250506020611173858286016110d2565b9150509250929050565b600080604083850312156111945761119361104b565b5b60006111a285828601611079565b92505060206111b3858286016110d2565b9150509250929050565b6111c681611050565b82525050565b60006020820190506111e160008301846111bd565b92915050565b6000815190506111f6816110bb565b92915050565b6000602082840312156112125761121161104b565b5b6000611220848285016111e7565b91505092915050565b7f4e487b7100000000000000000000000000000000000000000000000000000000600052601160045260246000fd5b600061126382611017565b915061126e83611017565b925082820261127c81611017565b9150828204841483151761129357611292611229565b5b5092915050565b7f4e487b7100000000000000000000000000000000000000000000000000000000600052601260045260246000fd5b60006112d482611017565b91506112df83611017565b9250826112ef576112ee61129a565b5b828204905092915050565b600082825260208201905092915050565b7f616d6f756e7430206f7220616d6f756e7431203d203000000000000000000000600082015250565b60006113416016836112fa565b915061134c8261130b565b602082019050919050565b6000602082019050818103600083015261137081611334565b9050919050565b600061138282611017565b915061138d83611017565b92508282039050818111156113a5576113a4611229565b5b92915050565b60006040820190506113c060008301856111bd565b6113cd6020830184611021565b9392505050565b60008115159050919050565b6113e9816113d4565b81146113f457600080fd5b50565b600081519050611406816113e0565b92915050565b6000602082840312156114225761142161104b565b5b6000611430848285016113f7565b91505092915050565b600060608201905061144e60008301866111bd565b61145b60208301856111bd565b6114686040830184611021565b949350505050565b7f78202f207920213d206478202f20647900000000000000000000000000000000600082015250565b60006114a66010836112fa565b91506114b182611470565b602082019050919050565b600060208201905081810360008301526114d581611499565b9050919050565b7f736861726573203d203000000000000000000000000000000000000000000000600082015250565b6000611512600a836112fa565b915061151d826114dc565b602082019050919050565b6000602082019050818103600083015261154181611505565b9050919050565b7f696e76616c696420746f6b656e00000000000000000000000000000000000000600082015250565b600061157e600d836112fa565b915061158982611548565b602082019050919050565b600060208201905081810360008301526115ad81611571565b9050919050565b7f616d6f756e7420696e203d203000000000000000000000000000000000000000600082015250565b60006115ea600d836112fa565b91506115f5826115b4565b602082019050919050565b60006020820190508181036000830152611619816115dd565b9050919050565b600061162b82611017565b915061163683611017565b925082820190508082111561164e5761164d611229565b5b9291505056fea264697066735822122045378d7fa4c7f96e9218b86eb448785b47d39dd7d3921e322d82b236f53b2a5364736f6c63430008110033",
					"opcodes": "PUSH1 0xC0 PUSH1 0x40 MSTORE CALLVALUE DUP1 ISZERO PUSH3 0x11 JUMPI PUSH1 0x0 DUP1 REVERT JUMPDEST POP PUSH1 0x40 MLOAD PUSH3 0x187F CODESIZE SUB DUP1 PUSH3 0x187F DUP4 CODECOPY DUP2 DUP2 ADD PUSH1 0x40 MSTORE DUP2 ADD SWAP1 PUSH3 0x37 SWAP2 SWAP1 PUSH3 0x111 JUMP JUMPDEST DUP2 PUSH20 0xFFFFFFFFFFFFFFFFFFFFFFFFFFFFFFFFFFFFFFFF AND PUSH1 0x80 DUP2 PUSH20 0xFFFFFFFFFFFFFFFFFFFFFFFFFFFFFFFFFFFFFFFF AND DUP2 MSTORE POP POP DUP1 PUSH20 0xFFFFFFFFFFFFFFFFFFFFFFFFFFFFFFFFFFFFFFFF AND PUSH1 0xA0 DUP2 PUSH20 0xFFFFFFFFFFFFFFFFFFFFFFFFFFFFFFFFFFFFFFFF AND DUP2 MSTORE POP POP POP POP PUSH3 0x158 JUMP JUMPDEST PUSH1 0x0 DUP1 REVERT JUMPDEST PUSH1 0x0 PUSH20 0xFFFFFFFFFFFFFFFFFFFFFFFFFFFFFFFFFFFFFFFF DUP3 AND SWAP1 POP SWAP2 SWAP1 POP JUMP JUMPDEST PUSH1 0x0 PUSH3 0xD9 DUP3 PUSH3 0xAC JUMP JUMPDEST SWAP1 POP SWAP2 SWAP1 POP JUMP JUMPDEST PUSH3 0xEB DUP2 PUSH3 0xCC JUMP JUMPDEST DUP2 EQ PUSH3 0xF7 JUMPI PUSH1 0x0 DUP1 REVERT JUMPDEST POP JUMP JUMPDEST PUSH1 0x0 DUP2 MLOAD SWAP1 POP PUSH3 0x10B DUP2 PUSH3 0xE0 JUMP JUMPDEST SWAP3 SWAP2 POP POP JUMP JUMPDEST PUSH1 0x0 DUP1 PUSH1 0x40 DUP4 DUP6 SUB SLT ISZERO PUSH3 0x12B JUMPI PUSH3 0x12A PUSH3 0xA7 JUMP JUMPDEST JUMPDEST PUSH1 0x0 PUSH3 0x13B DUP6 DUP3 DUP7 ADD PUSH3 0xFA JUMP JUMPDEST SWAP3 POP POP PUSH1 0x20 PUSH3 0x14E DUP6 DUP3 DUP7 ADD PUSH3 0xFA JUMP JUMPDEST SWAP2 POP POP SWAP3 POP SWAP3 SWAP1 POP JUMP JUMPDEST PUSH1 0x80 MLOAD PUSH1 0xA0 MLOAD PUSH2 0x168A PUSH3 0x1F5 PUSH1 0x0 CODECOPY PUSH1 0x0 DUP2 DUP2 PUSH2 0x2E2 ADD MSTORE DUP2 DUP2 PUSH2 0x4CC ADD MSTORE DUP2 DUP2 PUSH2 0x615 ADD MSTORE DUP2 DUP2 PUSH2 0x87A ADD MSTORE DUP2 DUP2 PUSH2 0x976 ADD MSTORE DUP2 DUP2 PUSH2 0xAA6 ADD MSTORE DUP2 DUP2 PUSH2 0xB14 ADD MSTORE DUP2 DUP2 PUSH2 0xD24 ADD MSTORE PUSH2 0xDCF ADD MSTORE PUSH1 0x0 DUP2 DUP2 PUSH2 0x1F1 ADD MSTORE DUP2 DUP2 PUSH2 0x244 ADD MSTORE DUP2 DUP2 PUSH2 0x42D ADD MSTORE DUP2 DUP2 PUSH2 0x574 ADD MSTORE DUP2 DUP2 PUSH2 0x7E0 ADD MSTORE DUP2 DUP2 PUSH2 0x921 ADD MSTORE DUP2 DUP2 PUSH2 0xA4A ADD MSTORE DUP2 DUP2 PUSH2 0xAC7 ADD MSTORE DUP2 DUP2 PUSH2 0xAF3 ADD MSTORE PUSH2 0xC8A ADD MSTORE PUSH2 0x168A PUSH1 0x0 RETURN INVALID PUSH1 0x80 PUSH1 0x40 MSTORE CALLVALUE DUP1 ISZERO PUSH2 0x10 JUMPI PUSH1 0x0 DUP1 REVERT JUMPDEST POP PUSH1 0x4 CALLDATASIZE LT PUSH2 0x93 JUMPI PUSH1 0x0 CALLDATALOAD PUSH1 0xE0 SHR DUP1 PUSH4 0x70A08231 GT PUSH2 0x66 JUMPI DUP1 PUSH4 0x70A08231 EQ PUSH2 0x110 JUMPI DUP1 PUSH4 0x9C8F9F23 EQ PUSH2 0x140 JUMPI DUP1 PUSH4 0x9CD441DA EQ PUSH2 0x171 JUMPI DUP1 PUSH4 0xD004F0F7 EQ PUSH2 0x1A1 JUMPI DUP1 PUSH4 0xD21220A7 EQ PUSH2 0x1D1 JUMPI PUSH2 0x93 JUMP JUMPDEST DUP1 PUSH4 0xDFE1681 EQ PUSH2 0x98 JUMPI DUP1 PUSH4 0x18160DDD EQ PUSH2 0xB6 JUMPI DUP1 PUSH4 0x443CB4BC EQ PUSH2 0xD4 JUMPI DUP1 PUSH4 0x5A76F25E EQ PUSH2 0xF2 JUMPI JUMPDEST PUSH1 0x0 DUP1 REVERT JUMPDEST PUSH2 0xA0 PUSH2 0x1EF JUMP JUMPDEST PUSH1 0x40 MLOAD PUSH2 0xAD SWAP2 SWAP1 PUSH2 0xFFC JUMP JUMPDEST PUSH1 0x40 MLOAD DUP1 SWAP2 SUB SWAP1 RETURN JUMPDEST PUSH2 0xBE PUSH2 0x213 JUMP JUMPDEST PUSH1 0x40 MLOAD PUSH2 0xCB SWAP2 SWAP1 PUSH2 0x1030 JUMP JUMPDEST PUSH1 0x40 MLOAD DUP1 SWAP2 SUB SWAP1 RETURN JUMPDEST PUSH2 0xDC PUSH2 0x219 JUMP JUMPDEST PUSH1 0x40 MLOAD PUSH2 0xE9 SWAP2 SWAP1 PUSH2 0x1030 JUMP JUMPDEST PUSH1 0x40 MLOAD DUP1 SWAP2 SUB SWAP1 RETURN JUMPDEST PUSH2 0xFA PUSH2 0x21F JUMP JUMPDEST PUSH1 0x40 MLOAD PUSH2 0x107 SWAP2 SWAP1 PUSH2 0x1030 JUMP JUMPDEST PUSH1 0x40 MLOAD DUP1 SWAP2 SUB SWAP1 RETURN JUMPDEST PUSH2 0x12A PUSH1 0x4 DUP1 CALLDATASIZE SUB DUP2 ADD SWAP1 PUSH2 0x125 SWAP2 SWAP1 PUSH2 0x108E JUMP JUMPDEST PUSH2 0x225 JUMP JUMPDEST PUSH1 0x40 MLOAD PUSH2 0x137 SWAP2 SWAP1 PUSH2 0x1030 JUMP JUMPDEST PUSH1 0x40 MLOAD DUP1 SWAP2 SUB SWAP1 RETURN JUMPDEST PUSH2 0x15A PUSH1 0x4 DUP1 CALLDATASIZE SUB DUP2 ADD SWAP1 PUSH2 0x155 SWAP2 SWAP1 PUSH2 0x10E7 JUMP JUMPDEST PUSH2 0x23D JUMP JUMPDEST PUSH1 0x40 MLOAD PUSH2 0x168 SWAP3 SWAP2 SWAP1 PUSH2 0x1114 JUMP JUMPDEST PUSH1 0x40 MLOAD DUP1 SWAP2 SUB SWAP1 RETURN JUMPDEST PUSH2 0x18B PUSH1 0x4 DUP1 CALLDATASIZE SUB DUP2 ADD SWAP1 PUSH2 0x186 SWAP2 SWAP1 PUSH2 0x113D JUMP JUMPDEST PUSH2 0x570 JUMP JUMPDEST PUSH1 0x40 MLOAD PUSH2 0x198 SWAP2 SWAP1 PUSH2 0x1030 JUMP JUMPDEST PUSH1 0x40 MLOAD DUP1 SWAP2 SUB SWAP1 RETURN JUMPDEST PUSH2 0x1BB PUSH1 0x4 DUP1 CALLDATASIZE SUB DUP2 ADD SWAP1 PUSH2 0x1B6 SWAP2 SWAP1 PUSH2 0x117D JUMP JUMPDEST PUSH2 0x91D JUMP JUMPDEST PUSH1 0x40 MLOAD PUSH2 0x1C8 SWAP2 SWAP1 PUSH2 0x1030 JUMP JUMPDEST PUSH1 0x40 MLOAD DUP1 SWAP2 SUB SWAP1 RETURN JUMPDEST PUSH2 0x1D9 PUSH2 0xDCD JUMP JUMPDEST PUSH1 0x40 MLOAD PUSH2 0x1E6 SWAP2 SWAP1 PUSH2 0xFFC JUMP JUMPDEST PUSH1 0x40 MLOAD DUP1 SWAP2 SUB SWAP1 RETURN JUMPDEST PUSH32 0x0 DUP2 JUMP JUMPDEST PUSH1 0x2 SLOAD DUP2 JUMP JUMPDEST PUSH1 0x0 SLOAD DUP2 JUMP JUMPDEST PUSH1 0x1 SLOAD DUP2 JUMP JUMPDEST PUSH1 0x3 PUSH1 0x20 MSTORE DUP1 PUSH1 0x0 MSTORE PUSH1 0x40 PUSH1 0x0 KECCAK256 PUSH1 0x0 SWAP2 POP SWAP1 POP SLOAD DUP2 JUMP JUMPDEST PUSH1 0x0 DUP1 PUSH1 0x0 PUSH32 0x0 PUSH20 0xFFFFFFFFFFFFFFFFFFFFFFFFFFFFFFFFFFFFFFFF AND PUSH4 0x70A08231 ADDRESS PUSH1 0x40 MLOAD DUP3 PUSH4 0xFFFFFFFF AND PUSH1 0xE0 SHL DUP2 MSTORE PUSH1 0x4 ADD PUSH2 0x29B SWAP2 SWAP1 PUSH2 0x11CC JUMP JUMPDEST PUSH1 0x20 PUSH1 0x40 MLOAD DUP1 DUP4 SUB DUP2 DUP7 GAS STATICCALL ISZERO DUP1 ISZERO PUSH2 0x2B8 JUMPI RETURNDATASIZE PUSH1 0x0 DUP1 RETURNDATACOPY RETURNDATASIZE PUSH1 0x0 REVERT JUMPDEST POP POP POP POP PUSH1 0x40 MLOAD RETURNDATASIZE PUSH1 0x1F NOT PUSH1 0x1F DUP3 ADD AND DUP3 ADD DUP1 PUSH1 0x40 MSTORE POP DUP2 ADD SWAP1 PUSH2 0x2DC SWAP2 SWAP1 PUSH2 0x11FC JUMP JUMPDEST SWAP1 POP PUSH1 0x0 PUSH32 0x0 PUSH20 0xFFFFFFFFFFFFFFFFFFFFFFFFFFFFFFFFFFFFFFFF AND PUSH4 0x70A08231 ADDRESS PUSH1 0x40 MLOAD DUP3 PUSH4 0xFFFFFFFF AND PUSH1 0xE0 SHL DUP2 MSTORE PUSH1 0x4 ADD PUSH2 0x339 SWAP2 SWAP1 PUSH2 0x11CC JUMP JUMPDEST PUSH1 0x20 PUSH1 0x40 MLOAD DUP1 DUP4 SUB DUP2 DUP7 GAS STATICCALL ISZERO DUP1 ISZERO PUSH2 0x356 JUMPI RETURNDATASIZE PUSH1 0x0 DUP1 RETURNDATACOPY RETURNDATASIZE PUSH1 0x0 REVERT JUMPDEST POP POP POP POP PUSH1 0x40 MLOAD RETURNDATASIZE PUSH1 0x1F NOT PUSH1 0x1F DUP3 ADD AND DUP3 ADD DUP1 PUSH1 0x40 MSTORE POP DUP2 ADD SWAP1 PUSH2 0x37A SWAP2 SWAP1 PUSH2 0x11FC JUMP JUMPDEST SWAP1 POP PUSH1 0x2 SLOAD DUP3 DUP7 PUSH2 0x38B SWAP2 SWAP1 PUSH2 0x1258 JUMP JUMPDEST PUSH2 0x395 SWAP2 SWAP1 PUSH2 0x12C9 JUMP JUMPDEST SWAP4 POP PUSH1 0x2 SLOAD DUP2 DUP7 PUSH2 0x3A6 SWAP2 SWAP1 PUSH2 0x1258 JUMP JUMPDEST PUSH2 0x3B0 SWAP2 SWAP1 PUSH2 0x12C9 JUMP JUMPDEST SWAP3 POP PUSH1 0x0 DUP5 GT DUP1 ISZERO PUSH2 0x3C2 JUMPI POP PUSH1 0x0 DUP4 GT JUMPDEST PUSH2 0x401 JUMPI PUSH1 0x40 MLOAD PUSH32 0x8C379A000000000000000000000000000000000000000000000000000000000 DUP2 MSTORE PUSH1 0x4 ADD PUSH2 0x3F8 SWAP1 PUSH2 0x1357 JUMP JUMPDEST PUSH1 0x40 MLOAD DUP1 SWAP2 SUB SWAP1 REVERT JUMPDEST PUSH2 0x40B CALLER DUP7 PUSH2 0xDF1 JUMP JUMPDEST PUSH2 0x42B DUP5 DUP4 PUSH2 0x41A SWAP2 SWAP1 PUSH2 0x1377 JUMP JUMPDEST DUP5 DUP4 PUSH2 0x426 SWAP2 SWAP1 PUSH2 0x1377 JUMP JUMPDEST PUSH2 0xE64 JUMP JUMPDEST PUSH32 0x0 PUSH20 0xFFFFFFFFFFFFFFFFFFFFFFFFFFFFFFFFFFFFFFFF AND PUSH4 0xA9059CBB CALLER DUP7 PUSH1 0x40 MLOAD DUP4 PUSH4 0xFFFFFFFF AND PUSH1 0xE0 SHL DUP2 MSTORE PUSH1 0x4 ADD PUSH2 0x486 SWAP3 SWAP2 SWAP1 PUSH2 0x13AB JUMP JUMPDEST PUSH1 0x20 PUSH1 0x40 MLOAD DUP1 DUP4 SUB DUP2 PUSH1 0x0 DUP8 GAS CALL ISZERO DUP1 ISZERO PUSH2 0x4A5 JUMPI RETURNDATASIZE PUSH1 0x0 DUP1 RETURNDATACOPY RETURNDATASIZE PUSH1 0x0 REVERT JUMPDEST POP POP POP POP PUSH1 0x40 MLOAD RETURNDATASIZE PUSH1 0x1F NOT PUSH1 0x1F DUP3 ADD AND DUP3 ADD DUP1 PUSH1 0x40 MSTORE POP DUP2 ADD SWAP1 PUSH2 0x4C9 SWAP2 SWAP1 PUSH2 0x140C JUMP JUMPDEST POP PUSH32 0x0 PUSH20 0xFFFFFFFFFFFFFFFFFFFFFFFFFFFFFFFFFFFFFFFF AND PUSH4 0xA9059CBB CALLER DUP6 PUSH1 0x40 MLOAD DUP4 PUSH4 0xFFFFFFFF AND PUSH1 0xE0 SHL DUP2 MSTORE PUSH1 0x4 ADD PUSH2 0x525 SWAP3 SWAP2 SWAP1 PUSH2 0x13AB JUMP JUMPDEST PUSH1 0x20 PUSH1 0x40 MLOAD DUP1 DUP4 SUB DUP2 PUSH1 0x0 DUP8 GAS CALL ISZERO DUP1 ISZERO PUSH2 0x544 JUMPI RETURNDATASIZE PUSH1 0x0 DUP1 RETURNDATACOPY RETURNDATASIZE PUSH1 0x0 REVERT JUMPDEST POP POP POP POP PUSH1 0x40 MLOAD RETURNDATASIZE PUSH1 0x1F NOT PUSH1 0x1F DUP3 ADD AND DUP3 ADD DUP1 PUSH1 0x40 MSTORE POP DUP2 ADD SWAP1 PUSH2 0x568 SWAP2 SWAP1 PUSH2 0x140C JUMP JUMPDEST POP POP POP SWAP2 POP SWAP2 JUMP JUMPDEST PUSH1 0x0 PUSH32 0x0 PUSH20 0xFFFFFFFFFFFFFFFFFFFFFFFFFFFFFFFFFFFFFFFF AND PUSH4 0x23B872DD CALLER ADDRESS DUP7 PUSH1 0x40 MLOAD DUP5 PUSH4 0xFFFFFFFF AND PUSH1 0xE0 SHL DUP2 MSTORE PUSH1 0x4 ADD PUSH2 0x5CF SWAP4 SWAP3 SWAP2 SWAP1 PUSH2 0x1439 JUMP JUMPDEST PUSH1 0x20 PUSH1 0x40 MLOAD DUP1 DUP4 SUB DUP2 PUSH1 0x0 DUP8 GAS CALL ISZERO DUP1 ISZERO PUSH2 0x5EE JUMPI RETURNDATASIZE PUSH1 0x0 DUP1 RETURNDATACOPY RETURNDATASIZE PUSH1 0x0 REVERT JUMPDEST POP POP POP POP PUSH1 0x40 MLOAD RETURNDATASIZE PUSH1 0x1F NOT PUSH1 0x1F DUP3 ADD AND DUP3 ADD DUP1 PUSH1 0x40 MSTORE POP DUP2 ADD SWAP1 PUSH2 0x612 SWAP2 SWAP1 PUSH2 0x140C JUMP JUMPDEST POP PUSH32 0x0 PUSH20 0xFFFFFFFFFFFFFFFFFFFFFFFFFFFFFFFFFFFFFFFF AND PUSH4 0x23B872DD CALLER ADDRESS DUP6 PUSH1 0x40 MLOAD DUP5 PUSH4 0xFFFFFFFF AND PUSH1 0xE0 SHL DUP2 MSTORE PUSH1 0x4 ADD PUSH2 0x670 SWAP4 SWAP3 SWAP2 SWAP1 PUSH2 0x1439 JUMP JUMPDEST PUSH1 0x20 PUSH1 0x40 MLOAD DUP1 DUP4 SUB DUP2 PUSH1 0x0 DUP8 GAS CALL ISZERO DUP1 ISZERO PUSH2 0x68F JUMPI RETURNDATASIZE PUSH1 0x0 DUP1 RETURNDATACOPY RETURNDATASIZE PUSH1 0x0 REVERT JUMPDEST POP POP POP POP PUSH1 0x40 MLOAD RETURNDATASIZE PUSH1 0x1F NOT PUSH1 0x1F DUP3 ADD AND DUP3 ADD DUP1 PUSH1 0x40 MSTORE POP DUP2 ADD SWAP1 PUSH2 0x6B3 SWAP2 SWAP1 PUSH2 0x140C JUMP JUMPDEST POP PUSH1 0x0 DUP1 SLOAD GT DUP1 PUSH2 0x6C6 JUMPI POP PUSH1 0x0 PUSH1 0x1 SLOAD GT JUMPDEST ISZERO PUSH2 0x728 JUMPI DUP3 PUSH1 0x1 SLOAD PUSH2 0x6D9 SWAP2 SWAP1 PUSH2 0x1258 JUMP JUMPDEST DUP3 PUSH1 0x0 SLOAD PUSH2 0x6E7 SWAP2 SWAP1 PUSH2 0x1258 JUMP JUMPDEST EQ PUSH2 0x727 JUMPI PUSH1 0x40 MLOAD PUSH32 0x8C379A000000000000000000000000000000000000000000000000000000000 DUP2 MSTORE PUSH1 0x4 ADD PUSH2 0x71E SWAP1 PUSH2 0x14BC JUMP JUMPDEST PUSH1 0x40 MLOAD DUP1 SWAP2 SUB SWAP1 REVERT JUMPDEST JUMPDEST PUSH1 0x0 PUSH1 0x2 SLOAD SUB PUSH2 0x74D JUMPI PUSH2 0x746 DUP3 DUP5 PUSH2 0x741 SWAP2 SWAP1 PUSH2 0x1258 JUMP JUMPDEST PUSH2 0xE76 JUMP JUMPDEST SWAP1 POP PUSH2 0x78E JUMP JUMPDEST PUSH2 0x78B PUSH1 0x0 SLOAD PUSH1 0x2 SLOAD DUP6 PUSH2 0x761 SWAP2 SWAP1 PUSH2 0x1258 JUMP JUMPDEST PUSH2 0x76B SWAP2 SWAP1 PUSH2 0x12C9 JUMP JUMPDEST PUSH1 0x1 SLOAD PUSH1 0x2 SLOAD DUP6 PUSH2 0x77C SWAP2 SWAP1 PUSH2 0x1258 JUMP JUMPDEST PUSH2 0x786 SWAP2 SWAP1 PUSH2 0x12C9 JUMP JUMPDEST PUSH2 0xEF0 JUMP JUMPDEST SWAP1 POP JUMPDEST PUSH1 0x0 DUP2 GT PUSH2 0x7D1 JUMPI PUSH1 0x40 MLOAD PUSH32 0x8C379A000000000000000000000000000000000000000000000000000000000 DUP2 MSTORE PUSH1 0x4 ADD PUSH2 0x7C8 SWAP1 PUSH2 0x1528 JUMP JUMPDEST PUSH1 0x40 MLOAD DUP1 SWAP2 SUB SWAP1 REVERT JUMPDEST PUSH2 0x7DB CALLER DUP3 PUSH2 0xF0A JUMP JUMPDEST PUSH2 0x917 PUSH32 0x0 PUSH20 0xFFFFFFFFFFFFFFFFFFFFFFFFFFFFFFFFFFFFFFFF AND PUSH4 0x70A08231 ADDRESS PUSH1 0x40 MLOAD DUP3 PUSH4 0xFFFFFFFF AND PUSH1 0xE0 SHL DUP2 MSTORE PUSH1 0x4 ADD PUSH2 0x837 SWAP2 SWAP1 PUSH2 0x11CC JUMP JUMPDEST PUSH1 0x20 PUSH1 0x40 MLOAD DUP1 DUP4 SUB DUP2 DUP7 GAS STATICCALL ISZERO DUP1 ISZERO PUSH2 0x854 JUMPI RETURNDATASIZE PUSH1 0x0 DUP1 RETURNDATACOPY RETURNDATASIZE PUSH1 0x0 REVERT JUMPDEST POP POP POP POP PUSH1 0x40 MLOAD RETURNDATASIZE PUSH1 0x1F NOT PUSH1 0x1F DUP3 ADD AND DUP3 ADD DUP1 PUSH1 0x40 MSTORE POP DUP2 ADD SWAP1 PUSH2 0x878 SWAP2 SWAP1 PUSH2 0x11FC JUMP JUMPDEST PUSH32 0x0 PUSH20 0xFFFFFFFFFFFFFFFFFFFFFFFFFFFFFFFFFFFFFFFF AND PUSH4 0x70A08231 ADDRESS PUSH1 0x40 MLOAD DUP3 PUSH4 0xFFFFFFFF AND PUSH1 0xE0 SHL DUP2 MSTORE PUSH1 0x4 ADD PUSH2 0x8D1 SWAP2 SWAP1 PUSH2 0x11CC JUMP JUMPDEST PUSH1 0x20 PUSH1 0x40 MLOAD DUP1 DUP4 SUB DUP2 DUP7 GAS STATICCALL ISZERO DUP1 ISZERO PUSH2 0x8EE JUMPI RETURNDATASIZE PUSH1 0x0 DUP1 RETURNDATACOPY RETURNDATASIZE PUSH1 0x0 REVERT JUMPDEST POP POP POP POP PUSH1 0x40 MLOAD RETURNDATASIZE PUSH1 0x1F NOT PUSH1 0x1F DUP3 ADD AND DUP3 ADD DUP1 PUSH1 0x40 MSTORE POP DUP2 ADD SWAP1 PUSH2 0x912 SWAP2 SWAP1 PUSH2 0x11FC JUMP JUMPDEST PUSH2 0xE64 JUMP JUMPDEST SWAP3 SWAP2 POP POP JUMP JUMPDEST PUSH1 0x0 PUSH32 0x0 PUSH20 0xFFFFFFFFFFFFFFFFFFFFFFFFFFFFFFFFFFFFFFFF AND DUP4 PUSH20 0xFFFFFFFFFFFFFFFFFFFFFFFFFFFFFFFFFFFFFFFF AND EQ DUP1 PUSH2 0x9C4 JUMPI POP PUSH32 0x0 PUSH20 0xFFFFFFFFFFFFFFFFFFFFFFFFFFFFFFFFFFFFFFFF AND DUP4 PUSH20 0xFFFFFFFFFFFFFFFFFFFFFFFFFFFFFFFFFFFFFFFF AND EQ JUMPDEST PUSH2 0xA03 JUMPI PUSH1 0x40 MLOAD PUSH32 0x8C379A000000000000000000000000000000000000000000000000000000000 DUP2 MSTORE PUSH1 0x4 ADD PUSH2 0x9FA SWAP1 PUSH2 0x1594 JUMP JUMPDEST PUSH1 0x40 MLOAD DUP1 SWAP2 SUB SWAP1 REVERT JUMPDEST PUSH1 0x0 DUP3 GT PUSH2 0xA46 JUMPI PUSH1 0x40 MLOAD PUSH32 0x8C379A000000000000000000000000000000000000000000000000000000000 DUP2 MSTORE PUSH1 0x4 ADD PUSH2 0xA3D SWAP1 PUSH2 0x1600 JUMP JUMPDEST PUSH1 0x40 MLOAD DUP1 SWAP2 SUB SWAP1 REVERT JUMPDEST PUSH1 0x0 PUSH32 0x0 PUSH20 0xFFFFFFFFFFFFFFFFFFFFFFFFFFFFFFFFFFFFFFFF AND DUP5 PUSH20 0xFFFFFFFFFFFFFFFFFFFFFFFFFFFFFFFFFFFFFFFF AND EQ SWAP1 POP PUSH1 0x0 DUP1 PUSH1 0x0 DUP1 DUP5 PUSH2 0xAF1 JUMPI PUSH32 0x0 PUSH32 0x0 PUSH1 0x1 SLOAD PUSH1 0x0 SLOAD PUSH2 0xB3A JUMP JUMPDEST PUSH32 0x0 PUSH32 0x0 PUSH1 0x0 SLOAD PUSH1 0x1 SLOAD JUMPDEST SWAP4 POP SWAP4 POP SWAP4 POP SWAP4 POP DUP4 PUSH20 0xFFFFFFFFFFFFFFFFFFFFFFFFFFFFFFFFFFFFFFFF AND PUSH4 0x23B872DD CALLER ADDRESS DUP11 PUSH1 0x40 MLOAD DUP5 PUSH4 0xFFFFFFFF AND PUSH1 0xE0 SHL DUP2 MSTORE PUSH1 0x4 ADD PUSH2 0xB7F SWAP4 SWAP3 SWAP2 SWAP1 PUSH2 0x1439 JUMP JUMPDEST PUSH1 0x20 PUSH1 0x40 MLOAD DUP1 DUP4 SUB DUP2 PUSH1 0x0 DUP8 GAS CALL ISZERO DUP1 ISZERO PUSH2 0xB9E JUMPI RETURNDATASIZE PUSH1 0x0 DUP1 RETURNDATACOPY RETURNDATASIZE PUSH1 0x0 REVERT JUMPDEST POP POP POP POP PUSH1 0x40 MLOAD RETURNDATASIZE PUSH1 0x1F NOT PUSH1 0x1F DUP3 ADD AND DUP3 ADD DUP1 PUSH1 0x40 MSTORE POP DUP2 ADD SWAP1 PUSH2 0xBC2 SWAP2 SWAP1 PUSH2 0x140C JUMP JUMPDEST POP PUSH1 0x0 PUSH2 0x3E8 PUSH2 0x3E5 DUP10 PUSH2 0xBD6 SWAP2 SWAP1 PUSH2 0x1258 JUMP JUMPDEST PUSH2 0xBE0 SWAP2 SWAP1 PUSH2 0x12C9 JUMP JUMPDEST SWAP1 POP DUP1 DUP4 PUSH2 0xBEE SWAP2 SWAP1 PUSH2 0x1620 JUMP JUMPDEST DUP2 DUP4 PUSH2 0xBFA SWAP2 SWAP1 PUSH2 0x1258 JUMP JUMPDEST PUSH2 0xC04 SWAP2 SWAP1 PUSH2 0x12C9 JUMP JUMPDEST SWAP7 POP DUP4 PUSH20 0xFFFFFFFFFFFFFFFFFFFFFFFFFFFFFFFFFFFFFFFF AND PUSH4 0xA9059CBB CALLER DUP10 PUSH1 0x40 MLOAD DUP4 PUSH4 0xFFFFFFFF AND PUSH1 0xE0 SHL DUP2 MSTORE PUSH1 0x4 ADD PUSH2 0xC41 SWAP3 SWAP2 SWAP1 PUSH2 0x13AB JUMP JUMPDEST PUSH1 0x20 PUSH1 0x40 MLOAD DUP1 DUP4 SUB DUP2 PUSH1 0x0 DUP8 GAS CALL ISZERO DUP1 ISZERO PUSH2 0xC60 JUMPI RETURNDATASIZE PUSH1 0x0 DUP1 RETURNDATACOPY RETURNDATASIZE PUSH1 0x0 REVERT JUMPDEST POP POP POP POP PUSH1 0x40 MLOAD RETURNDATASIZE PUSH1 0x1F NOT PUSH1 0x1F DUP3 ADD AND DUP3 ADD DUP1 PUSH1 0x40 MSTORE POP DUP2 ADD SWAP1 PUSH2 0xC84 SWAP2 SWAP1 PUSH2 0x140C JUMP JUMPDEST POP PUSH2 0xDC1 PUSH32 0x0 PUSH20 0xFFFFFFFFFFFFFFFFFFFFFFFFFFFFFFFFFFFFFFFF AND PUSH4 0x70A08231 ADDRESS PUSH1 0x40 MLOAD DUP3 PUSH4 0xFFFFFFFF AND PUSH1 0xE0 SHL DUP2 MSTORE PUSH1 0x4 ADD PUSH2 0xCE1 SWAP2 SWAP1 PUSH2 0x11CC JUMP JUMPDEST PUSH1 0x20 PUSH1 0x40 MLOAD DUP1 DUP4 SUB DUP2 DUP7 GAS STATICCALL ISZERO DUP1 ISZERO PUSH2 0xCFE JUMPI RETURNDATASIZE PUSH1 0x0 DUP1 RETURNDATACOPY RETURNDATASIZE PUSH1 0x0 REVERT JUMPDEST POP POP POP POP PUSH1 0x40 MLOAD RETURNDATASIZE PUSH1 0x1F NOT PUSH1 0x1F DUP3 ADD AND DUP3 ADD DUP1 PUSH1 0x40 MSTORE POP DUP2 ADD SWAP1 PUSH2 0xD22 SWAP2 SWAP1 PUSH2 0x11FC JUMP JUMPDEST PUSH32 0x0 PUSH20 0xFFFFFFFFFFFFFFFFFFFFFFFFFFFFFFFFFFFFFFFF AND PUSH4 0x70A08231 ADDRESS PUSH1 0x40 MLOAD DUP3 PUSH4 0xFFFFFFFF AND PUSH1 0xE0 SHL DUP2 MSTORE PUSH1 0x4 ADD PUSH2 0xD7B SWAP2 SWAP1 PUSH2 0x11CC JUMP JUMPDEST PUSH1 0x20 PUSH1 0x40 MLOAD DUP1 DUP4 SUB DUP2 DUP7 GAS STATICCALL ISZERO DUP1 ISZERO PUSH2 0xD98 JUMPI RETURNDATASIZE PUSH1 0x0 DUP1 RETURNDATACOPY RETURNDATASIZE PUSH1 0x0 REVERT JUMPDEST POP POP POP POP PUSH1 0x40 MLOAD RETURNDATASIZE PUSH1 0x1F NOT PUSH1 0x1F DUP3 ADD AND DUP3 ADD DUP1 PUSH1 0x40 MSTORE POP DUP2 ADD SWAP1 PUSH2 0xDBC SWAP2 SWAP1 PUSH2 0x11FC JUMP JUMPDEST PUSH2 0xE64 JUMP JUMPDEST POP POP POP POP POP POP SWAP3 SWAP2 POP POP JUMP JUMPDEST PUSH32 0x0 DUP2 JUMP JUMPDEST DUP1 PUSH1 0x3 PUSH1 0x0 DUP5 PUSH20 0xFFFFFFFFFFFFFFFFFFFFFFFFFFFFFFFFFFFFFFFF AND PUSH20 0xFFFFFFFFFFFFFFFFFFFFFFFFFFFFFFFFFFFFFFFF AND DUP2 MSTORE PUSH1 0x20 ADD SWAP1 DUP2 MSTORE PUSH1 0x20 ADD PUSH1 0x0 KECCAK256 PUSH1 0x0 DUP3 DUP3 SLOAD PUSH2 0xE40 SWAP2 SWAP1 PUSH2 0x1377 JUMP JUMPDEST SWAP3 POP POP DUP2 SWAP1 SSTORE POP DUP1 PUSH1 0x2 PUSH1 0x0 DUP3 DUP3 SLOAD PUSH2 0xE59 SWAP2 SWAP1 PUSH2 0x1377 JUMP JUMPDEST SWAP3 POP POP DUP2 SWAP1 SSTORE POP POP POP JUMP JUMPDEST DUP2 PUSH1 0x0 DUP2 SWAP1 SSTORE POP DUP1 PUSH1 0x1 DUP2 SWAP1 SSTORE POP POP POP JUMP JUMPDEST PUSH1 0x0 PUSH1 0x3 DUP3 GT ISZERO PUSH2 0xEDD JUMPI DUP2 SWAP1 POP PUSH1 0x0 PUSH1 0x1 PUSH1 0x2 DUP5 PUSH2 0xE95 SWAP2 SWAP1 PUSH2 0x12C9 JUMP JUMPDEST PUSH2 0xE9F SWAP2 SWAP1 PUSH2 0x1620 JUMP JUMPDEST SWAP1 POP JUMPDEST DUP2 DUP2 LT ISZERO PUSH2 0xED7 JUMPI DUP1 SWAP2 POP PUSH1 0x2 DUP2 DUP3 DUP6 PUSH2 0xEBC SWAP2 SWAP1 PUSH2 0x12C9 JUMP JUMPDEST PUSH2 0xEC6 SWAP2 SWAP1 PUSH2 0x1620 JUMP JUMPDEST PUSH2 0xED0 SWAP2 SWAP1 PUSH2 0x12C9 JUMP JUMPDEST SWAP1 POP PUSH2 0xEA2 JUMP JUMPDEST POP PUSH2 0xEEB JUMP JUMPDEST PUSH1 0x0 DUP3 EQ PUSH2 0xEEA JUMPI PUSH1 0x1 SWAP1 POP JUMPDEST JUMPDEST SWAP2 SWAP1 POP JUMP JUMPDEST PUSH1 0x0 DUP2 DUP4 GT ISZERO PUSH2 0xF00 JUMPI DUP2 PUSH2 0xF02 JUMP JUMPDEST DUP3 JUMPDEST SWAP1 POP SWAP3 SWAP2 POP POP JUMP JUMPDEST DUP1 PUSH1 0x3 PUSH1 0x0 DUP5 PUSH20 0xFFFFFFFFFFFFFFFFFFFFFFFFFFFFFFFFFFFFFFFF AND PUSH20 0xFFFFFFFFFFFFFFFFFFFFFFFFFFFFFFFFFFFFFFFF AND DUP2 MSTORE PUSH1 0x20 ADD SWAP1 DUP2 MSTORE PUSH1 0x20 ADD PUSH1 0x0 KECCAK256 PUSH1 0x0 DUP3 DUP3 SLOAD PUSH2 0xF59 SWAP2 SWAP1 PUSH2 0x1620 JUMP JUMPDEST SWAP3 POP POP DUP2 SWAP1 SSTORE POP DUP1 PUSH1 0x2 PUSH1 0x0 DUP3 DUP3 SLOAD PUSH2 0xF72 SWAP2 SWAP1 PUSH2 0x1620 JUMP JUMPDEST SWAP3 POP POP DUP2 SWAP1 SSTORE POP POP POP JUMP JUMPDEST PUSH1 0x0 PUSH20 0xFFFFFFFFFFFFFFFFFFFFFFFFFFFFFFFFFFFFFFFF DUP3 AND SWAP1 POP SWAP2 SWAP1 POP JUMP JUMPDEST PUSH1 0x0 DUP2 SWAP1 POP SWAP2 SWAP1 POP JUMP JUMPDEST PUSH1 0x0 PUSH2 0xFC2 PUSH2 0xFBD PUSH2 0xFB8 DUP5 PUSH2 0xF7D JUMP JUMPDEST PUSH2 0xF9D JUMP JUMPDEST PUSH2 0xF7D JUMP JUMPDEST SWAP1 POP SWAP2 SWAP1 POP JUMP JUMPDEST PUSH1 0x0 PUSH2 0xFD4 DUP3 PUSH2 0xFA7 JUMP JUMPDEST SWAP1 POP SWAP2 SWAP1 POP JUMP JUMPDEST PUSH1 0x0 PUSH2 0xFE6 DUP3 PUSH2 0xFC9 JUMP JUMPDEST SWAP1 POP SWAP2 SWAP1 POP JUMP JUMPDEST PUSH2 0xFF6 DUP2 PUSH2 0xFDB JUMP JUMPDEST DUP3 MSTORE POP POP JUMP JUMPDEST PUSH1 0x0 PUSH1 0x20 DUP3 ADD SWAP1 POP PUSH2 0x1011 PUSH1 0x0 DUP4 ADD DUP5 PUSH2 0xFED JUMP JUMPDEST SWAP3 SWAP2 POP POP JUMP JUMPDEST PUSH1 0x0 DUP2 SWAP1 POP SWAP2 SWAP1 POP JUMP JUMPDEST PUSH2 0x102A DUP2 PUSH2 0x1017 JUMP JUMPDEST DUP3 MSTORE POP POP JUMP JUMPDEST PUSH1 0x0 PUSH1 0x20 DUP3 ADD SWAP1 POP PUSH2 0x1045 PUSH1 0x0 DUP4 ADD DUP5 PUSH2 0x1021 JUMP JUMPDEST SWAP3 SWAP2 POP POP JUMP JUMPDEST PUSH1 0x0 DUP1 REVERT JUMPDEST PUSH1 0x0 PUSH2 0x105B DUP3 PUSH2 0xF7D JUMP JUMPDEST SWAP1 POP SWAP2 SWAP1 POP JUMP JUMPDEST PUSH2 0x106B DUP2 PUSH2 0x1050 JUMP JUMPDEST DUP2 EQ PUSH2 0x1076 JUMPI PUSH1 0x0 DUP1 REVERT JUMPDEST POP JUMP JUMPDEST PUSH1 0x0 DUP2 CALLDATALOAD SWAP1 POP PUSH2 0x1088 DUP2 PUSH2 0x1062 JUMP JUMPDEST SWAP3 SWAP2 POP POP JUMP JUMPDEST PUSH1 0x0 PUSH1 0x20 DUP3 DUP5 SUB SLT ISZERO PUSH2 0x10A4 JUMPI PUSH2 0x10A3 PUSH2 0x104B JUMP JUMPDEST JUMPDEST PUSH1 0x0 PUSH2 0x10B2 DUP5 DUP3 DUP6 ADD PUSH2 0x1079 JUMP JUMPDEST SWAP2 POP POP SWAP3 SWAP2 POP POP JUMP JUMPDEST PUSH2 0x10C4 DUP2 PUSH2 0x1017 JUMP JUMPDEST DUP2 EQ PUSH2 0x10CF JUMPI PUSH1 0x0 DUP1 REVERT JUMPDEST POP JUMP JUMPDEST PUSH1 0x0 DUP2 CALLDATALOAD SWAP1 POP PUSH2 0x10E1 DUP2 PUSH2 0x10BB JUMP JUMPDEST SWAP3 SWAP2 POP POP JUMP JUMPDEST PUSH1 0x0 PUSH1 0x20 DUP3 DUP5 SUB SLT ISZERO PUSH2 0x10FD JUMPI PUSH2 0x10FC PUSH2 0x104B JUMP JUMPDEST JUMPDEST PUSH1 0x0 PUSH2 0x110B DUP5 DUP3 DUP6 ADD PUSH2 0x10D2 JUMP JUMPDEST SWAP2 POP POP SWAP3 SWAP2 POP POP JUMP JUMPDEST PUSH1 0x0 PUSH1 0x40 DUP3 ADD SWAP1 POP PUSH2 0x1129 PUSH1 0x0 DUP4 ADD DUP6 PUSH2 0x1021 JUMP JUMPDEST PUSH2 0x1136 PUSH1 0x20 DUP4 ADD DUP5 PUSH2 0x1021 JUMP JUMPDEST SWAP4 SWAP3 POP POP POP JUMP JUMPDEST PUSH1 0x0 DUP1 PUSH1 0x40 DUP4 DUP6 SUB SLT ISZERO PUSH2 0x1154 JUMPI PUSH2 0x1153 PUSH2 0x104B JUMP JUMPDEST JUMPDEST PUSH1 0x0 PUSH2 0x1162 DUP6 DUP3 DUP7 ADD PUSH2 0x10D2 JUMP JUMPDEST SWAP3 POP POP PUSH1 0x20 PUSH2 0x1173 DUP6 DUP3 DUP7 ADD PUSH2 0x10D2 JUMP JUMPDEST SWAP2 POP POP SWAP3 POP SWAP3 SWAP1 POP JUMP JUMPDEST PUSH1 0x0 DUP1 PUSH1 0x40 DUP4 DUP6 SUB SLT ISZERO PUSH2 0x1194 JUMPI PUSH2 0x1193 PUSH2 0x104B JUMP JUMPDEST JUMPDEST PUSH1 0x0 PUSH2 0x11A2 DUP6 DUP3 DUP7 ADD PUSH2 0x1079 JUMP JUMPDEST SWAP3 POP POP PUSH1 0x20 PUSH2 0x11B3 DUP6 DUP3 DUP7 ADD PUSH2 0x10D2 JUMP JUMPDEST SWAP2 POP POP SWAP3 POP SWAP3 SWAP1 POP JUMP JUMPDEST PUSH2 0x11C6 DUP2 PUSH2 0x1050 JUMP JUMPDEST DUP3 MSTORE POP POP JUMP JUMPDEST PUSH1 0x0 PUSH1 0x20 DUP3 ADD SWAP1 POP PUSH2 0x11E1 PUSH1 0x0 DUP4 ADD DUP5 PUSH2 0x11BD JUMP JUMPDEST SWAP3 SWAP2 POP POP JUMP JUMPDEST PUSH1 0x0 DUP2 MLOAD SWAP1 POP PUSH2 0x11F6 DUP2 PUSH2 0x10BB JUMP JUMPDEST SWAP3 SWAP2 POP POP JUMP JUMPDEST PUSH1 0x0 PUSH1 0x20 DUP3 DUP5 SUB SLT ISZERO PUSH2 0x1212 JUMPI PUSH2 0x1211 PUSH2 0x104B JUMP JUMPDEST JUMPDEST PUSH1 0x0 PUSH2 0x1220 DUP5 DUP3 DUP6 ADD PUSH2 0x11E7 JUMP JUMPDEST SWAP2 POP POP SWAP3 SWAP2 POP POP JUMP JUMPDEST PUSH32 0x4E487B7100000000000000000000000000000000000000000000000000000000 PUSH1 0x0 MSTORE PUSH1 0x11 PUSH1 0x4 MSTORE PUSH1 0x24 PUSH1 0x0 REVERT JUMPDEST PUSH1 0x0 PUSH2 0x1263 DUP3 PUSH2 0x1017 JUMP JUMPDEST SWAP2 POP PUSH2 0x126E DUP4 PUSH2 0x1017 JUMP JUMPDEST SWAP3 POP DUP3 DUP3 MUL PUSH2 0x127C DUP2 PUSH2 0x1017 JUMP JUMPDEST SWAP2 POP DUP3 DUP3 DIV DUP5 EQ DUP4 ISZERO OR PUSH2 0x1293 JUMPI PUSH2 0x1292 PUSH2 0x1229 JUMP JUMPDEST JUMPDEST POP SWAP3 SWAP2 POP POP JUMP JUMPDEST PUSH32 0x4E487B7100000000000000000000000000000000000000000000000000000000 PUSH1 0x0 MSTORE PUSH1 0x12 PUSH1 0x4 MSTORE PUSH1 0x24 PUSH1 0x0 REVERT JUMPDEST PUSH1 0x0 PUSH2 0x12D4 DUP3 PUSH2 0x1017 JUMP JUMPDEST SWAP2 POP PUSH2 0x12DF DUP4 PUSH2 0x1017 JUMP JUMPDEST SWAP3 POP DUP3 PUSH2 0x12EF JUMPI PUSH2 0x12EE PUSH2 0x129A JUMP JUMPDEST JUMPDEST DUP3 DUP3 DIV SWAP1 POP SWAP3 SWAP2 POP POP JUMP JUMPDEST PUSH1 0x0 DUP3 DUP3 MSTORE PUSH1 0x20 DUP3 ADD SWAP1 POP SWAP3 SWAP2 POP POP JUMP JUMPDEST PUSH32 0x616D6F756E7430206F7220616D6F756E7431203D203000000000000000000000 PUSH1 0x0 DUP3 ADD MSTORE POP JUMP JUMPDEST PUSH1 0x0 PUSH2 0x1341 PUSH1 0x16 DUP4 PUSH2 0x12FA JUMP JUMPDEST SWAP2 POP PUSH2 0x134C DUP3 PUSH2 0x130B JUMP JUMPDEST PUSH1 0x20 DUP3 ADD SWAP1 POP SWAP2 SWAP1 POP JUMP JUMPDEST PUSH1 0x0 PUSH1 0x20 DUP3 ADD SWAP1 POP DUP2 DUP2 SUB PUSH1 0x0 DUP4 ADD MSTORE PUSH2 0x1370 DUP2 PUSH2 0x1334 JUMP JUMPDEST SWAP1 POP SWAP2 SWAP1 POP JUMP JUMPDEST PUSH1 0x0 PUSH2 0x1382 DUP3 PUSH2 0x1017 JUMP JUMPDEST SWAP2 POP PUSH2 0x138D DUP4 PUSH2 0x1017 JUMP JUMPDEST SWAP3 POP DUP3 DUP3 SUB SWAP1 POP DUP2 DUP2 GT ISZERO PUSH2 0x13A5 JUMPI PUSH2 0x13A4 PUSH2 0x1229 JUMP JUMPDEST JUMPDEST SWAP3 SWAP2 POP POP JUMP JUMPDEST PUSH1 0x0 PUSH1 0x40 DUP3 ADD SWAP1 POP PUSH2 0x13C0 PUSH1 0x0 DUP4 ADD DUP6 PUSH2 0x11BD JUMP JUMPDEST PUSH2 0x13CD PUSH1 0x20 DUP4 ADD DUP5 PUSH2 0x1021 JUMP JUMPDEST SWAP4 SWAP3 POP POP POP JUMP JUMPDEST PUSH1 0x0 DUP2 ISZERO ISZERO SWAP1 POP SWAP2 SWAP1 POP JUMP JUMPDEST PUSH2 0x13E9 DUP2 PUSH2 0x13D4 JUMP JUMPDEST DUP2 EQ PUSH2 0x13F4 JUMPI PUSH1 0x0 DUP1 REVERT JUMPDEST POP JUMP JUMPDEST PUSH1 0x0 DUP2 MLOAD SWAP1 POP PUSH2 0x1406 DUP2 PUSH2 0x13E0 JUMP JUMPDEST SWAP3 SWAP2 POP POP JUMP JUMPDEST PUSH1 0x0 PUSH1 0x20 DUP3 DUP5 SUB SLT ISZERO PUSH2 0x1422 JUMPI PUSH2 0x1421 PUSH2 0x104B JUMP JUMPDEST JUMPDEST PUSH1 0x0 PUSH2 0x1430 DUP5 DUP3 DUP6 ADD PUSH2 0x13F7 JUMP JUMPDEST SWAP2 POP POP SWAP3 SWAP2 POP POP JUMP JUMPDEST PUSH1 0x0 PUSH1 0x60 DUP3 ADD SWAP1 POP PUSH2 0x144E PUSH1 0x0 DUP4 ADD DUP7 PUSH2 0x11BD JUMP JUMPDEST PUSH2 0x145B PUSH1 0x20 DUP4 ADD DUP6 PUSH2 0x11BD JUMP JUMPDEST PUSH2 0x1468 PUSH1 0x40 DUP4 ADD DUP5 PUSH2 0x1021 JUMP JUMPDEST SWAP5 SWAP4 POP POP POP POP JUMP JUMPDEST PUSH32 0x78202F207920213D206478202F20647900000000000000000000000000000000 PUSH1 0x0 DUP3 ADD MSTORE POP JUMP JUMPDEST PUSH1 0x0 PUSH2 0x14A6 PUSH1 0x10 DUP4 PUSH2 0x12FA JUMP JUMPDEST SWAP2 POP PUSH2 0x14B1 DUP3 PUSH2 0x1470 JUMP JUMPDEST PUSH1 0x20 DUP3 ADD SWAP1 POP SWAP2 SWAP1 POP JUMP JUMPDEST PUSH1 0x0 PUSH1 0x20 DUP3 ADD SWAP1 POP DUP2 DUP2 SUB PUSH1 0x0 DUP4 ADD MSTORE PUSH2 0x14D5 DUP2 PUSH2 0x1499 JUMP JUMPDEST SWAP1 POP SWAP2 SWAP1 POP JUMP JUMPDEST PUSH32 0x736861726573203D203000000000000000000000000000000000000000000000 PUSH1 0x0 DUP3 ADD MSTORE POP JUMP JUMPDEST PUSH1 0x0 PUSH2 0x1512 PUSH1 0xA DUP4 PUSH2 0x12FA JUMP JUMPDEST SWAP2 POP PUSH2 0x151D DUP3 PUSH2 0x14DC JUMP JUMPDEST PUSH1 0x20 DUP3 ADD SWAP1 POP SWAP2 SWAP1 POP JUMP JUMPDEST PUSH1 0x0 PUSH1 0x20 DUP3 ADD SWAP1 POP DUP2 DUP2 SUB PUSH1 0x0 DUP4 ADD MSTORE PUSH2 0x1541 DUP2 PUSH2 0x1505 JUMP JUMPDEST SWAP1 POP SWAP2 SWAP1 POP JUMP JUMPDEST PUSH32 0x696E76616C696420746F6B656E00000000000000000000000000000000000000 PUSH1 0x0 DUP3 ADD MSTORE POP JUMP JUMPDEST PUSH1 0x0 PUSH2 0x157E PUSH1 0xD DUP4 PUSH2 0x12FA JUMP JUMPDEST SWAP2 POP PUSH2 0x1589 DUP3 PUSH2 0x1548 JUMP JUMPDEST PUSH1 0x20 DUP3 ADD SWAP1 POP SWAP2 SWAP1 POP JUMP JUMPDEST PUSH1 0x0 PUSH1 0x20 DUP3 ADD SWAP1 POP DUP2 DUP2 SUB PUSH1 0x0 DUP4 ADD MSTORE PUSH2 0x15AD DUP2 PUSH2 0x1571 JUMP JUMPDEST SWAP1 POP SWAP2 SWAP1 POP JUMP JUMPDEST PUSH32 0x616D6F756E7420696E203D203000000000000000000000000000000000000000 PUSH1 0x0 DUP3 ADD MSTORE POP JUMP JUMPDEST PUSH1 0x0 PUSH2 0x15EA PUSH1 0xD DUP4 PUSH2 0x12FA JUMP JUMPDEST SWAP2 POP PUSH2 0x15F5 DUP3 PUSH2 0x15B4 JUMP JUMPDEST PUSH1 0x20 DUP3 ADD SWAP1 POP SWAP2 SWAP1 POP JUMP JUMPDEST PUSH1 0x0 PUSH1 0x20 DUP3 ADD SWAP1 POP DUP2 DUP2 SUB PUSH1 0x0 DUP4 ADD MSTORE PUSH2 0x1619 DUP2 PUSH2 0x15DD JUMP JUMPDEST SWAP1 POP SWAP2 SWAP1 POP JUMP JUMPDEST PUSH1 0x0 PUSH2 0x162B DUP3 PUSH2 0x1017 JUMP JUMPDEST SWAP2 POP PUSH2 0x1636 DUP4 PUSH2 0x1017 JUMP JUMPDEST SWAP3 POP DUP3 DUP3 ADD SWAP1 POP DUP1 DUP3 GT ISZERO PUSH2 0x164E JUMPI PUSH2 0x164D PUSH2 0x1229 JUMP JUMPDEST JUMPDEST SWAP3 SWAP2 POP POP JUMP INVALID LOG2 PUSH5 0x6970667358 0x22 SLT KECCAK256 GASLIMIT CALLDATACOPY DUP14 PUSH32 0xA4C7F96E9218B86EB448785B47D39DD7D3921E322D82B236F53B2A5364736F6C PUSH4 0x43000811 STOP CALLER "
				},
				"gasEstimates": {
					"creation": {
						"codeDepositCost": "1154000",
						"executionCost": "infinite",
						"totalCost": "infinite"
					},
					"external": {
						"addLiquidity(uint256,uint256)": "infinite",
						"balanceOf(address)": "2814",
						"removeLiquidity(uint256)": "infinite",
						"reserve0()": "2474",
						"reserve1()": "2496",
						"swap(address,uint256)": "infinite",
						"token0()": "infinite",
						"token1()": "infinite",
						"totalSupply()": "2452"
					},
					"internal": {
						"_burn(address,uint256)": "infinite",
						"_min(uint256,uint256)": "67",
						"_mint(address,uint256)": "infinite",
						"_sqrt(uint256)": "infinite",
						"_update(uint256,uint256)": "44241"
					}
				},
				"methodIdentifiers": {
					"addLiquidity(uint256,uint256)": "9cd441da",
					"balanceOf(address)": "70a08231",
					"removeLiquidity(uint256)": "9c8f9f23",
					"reserve0()": "443cb4bc",
					"reserve1()": "5a76f25e",
					"swap(address,uint256)": "d004f0f7",
					"token0()": "0dfe1681",
					"token1()": "d21220a7",
					"totalSupply()": "18160ddd"
				}
			},
			"storageLayout": {
				"storage": [
					{
						"astId": 9,
						"contract": "SolidityByExample/4_DeFi/14_ConstantProductAMM.sol:CPAMM",
						"label": "reserve0",
						"offset": 0,
						"slot": "0",
						"type": "t_uint256"
					},
					{
						"astId": 11,
						"contract": "SolidityByExample/4_DeFi/14_ConstantProductAMM.sol:CPAMM",
						"label": "reserve1",
						"offset": 0,
						"slot": "1",
						"type": "t_uint256"
					},
					{
						"astId": 13,
						"contract": "SolidityByExample/4_DeFi/14_ConstantProductAMM.sol:CPAMM",
						"label": "totalSupply",
						"offset": 0,
						"slot": "2",
						"type": "t_uint256"
					},
					{
						"astId": 17,
						"contract": "SolidityByExample/4_DeFi/14_ConstantProductAMM.sol:CPAMM",
						"label": "balanceOf",
						"offset": 0,
						"slot": "3",
						"type": "t_mapping(t_address,t_uint256)"
					}
				],
				"types": {
					"t_address": {
						"encoding": "inplace",
						"label": "address",
						"numberOfBytes": "20"
					},
					"t_mapping(t_address,t_uint256)": {
						"encoding": "mapping",
						"key": "t_address",
						"label": "mapping(address => uint256)",
						"numberOfBytes": "32",
						"value": "t_uint256"
					},
					"t_uint256": {
						"encoding": "inplace",
						"label": "uint256",
						"numberOfBytes": "32"
					}
				}
			},
			"userdoc": {
				"kind": "user",
				"methods": {},
				"version": 1
			}
		}
	}
}