{
	"data": {
		"bytecode": {
			"linkReferences": {},
			"object": "608060405234801561001057600080fd5b506113f8806100206000396000f3fe608060405234801561001057600080fd5b50600436106100365760003560e01c8063368519f31461003b57806347ce3e691461006b575b600080fd5b61005560048036038101906100509190610a46565b610087565b6040516100629190610a95565b60405180910390f35b61008560048036038101906100809190610b0e565b6100f1565b005b60006107ca6107cd8461009a9190610b90565b6100d5623cda20856100ac9190610b90565b623cda29876100bb9190610b90565b6100c59190610bd2565b866100d09190610b90565b610448565b6100df9190610c06565b6100e99190610c69565b905092915050565b73c02aaa39b223fe8d0a0e5c4f27ead9083c756cc273ffffffffffffffffffffffffffffffffffffffff168373ffffffffffffffffffffffffffffffffffffffff16148061017e575073c02aaa39b223fe8d0a0e5c4f27ead9083c756cc273ffffffffffffffffffffffffffffffffffffffff168273ffffffffffffffffffffffffffffffffffffffff16145b6101bd576040517f08c379a00000000000000000000000000000000000000000000000000000000081526004016101b490610cf7565b60405180910390fd5b8273ffffffffffffffffffffffffffffffffffffffff166323b872dd3330846040518463ffffffff1660e01b81526004016101fa93929190610d26565b6020604051808303816000875af1158015610219573d6000803e3d6000fd5b505050506040513d601f19601f8201168201806040525081019061023d9190610d95565b506000735c69bee701ef814a2b6a3edd4b1652cb9cc5aa6f73ffffffffffffffffffffffffffffffffffffffff1663e6a4390585856040518363ffffffff1660e01b815260040161028f929190610dc2565b602060405180830381865afa1580156102ac573d6000803e3d6000fd5b505050506040513d601f19601f820116820180604052508101906102d09190610e00565b90506000808273ffffffffffffffffffffffffffffffffffffffff16630902f1ac6040518163ffffffff1660e01b8152600401606060405180830381865afa158015610320573d6000803e3d6000fd5b505050506040513d601f19601f820116820180604052508101906103449190610eaf565b506dffffffffffffffffffffffffffff1691506dffffffffffffffffffffffffffff16915060008673ffffffffffffffffffffffffffffffffffffffff168473ffffffffffffffffffffffffffffffffffffffff16630dfe16816040518163ffffffff1660e01b8152600401602060405180830381865afa1580156103cd573d6000803e3d6000fd5b505050506040513d601f19601f820116820180604052508101906103f19190610e00565b73ffffffffffffffffffffffffffffffffffffffff160361041d576104168386610087565b905061042a565b6104278286610087565b90505b6104358787836104c2565b61043f8787610732565b50505050505050565b600060038211156104af57819050600060016002846104679190610c69565b6104719190610bd2565b90505b818110156104a957809150600281828561048e9190610c69565b6104989190610bd2565b6104a29190610c69565b9050610474565b506104bd565b600082146104bc57600190505b5b919050565b8273ffffffffffffffffffffffffffffffffffffffff1663095ea7b3737a250d5630b4cf539739df2c5dacb4c659f2488d836040518363ffffffff1660e01b8152600401610511929190610f02565b6020604051808303816000875af1158015610530573d6000803e3d6000fd5b505050506040513d601f19601f820116820180604052508101906105549190610d95565b506000600267ffffffffffffffff81111561057257610571610f2b565b5b6040519080825280602002602001820160405280156105a05781602001602082028036833780820191505090505b509050600267ffffffffffffffff8111156105be576105bd610f2b565b5b6040519080825280602002602001820160405280156105ec5781602001602082028036833780820191505090505b509050838160008151811061060457610603610f5a565b5b602002602001019073ffffffffffffffffffffffffffffffffffffffff16908173ffffffffffffffffffffffffffffffffffffffff1681525050828160018151811061065357610652610f5a565b5b602002602001019073ffffffffffffffffffffffffffffffffffffffff16908173ffffffffffffffffffffffffffffffffffffffff1681525050737a250d5630b4cf539739df2c5dacb4c659f2488d73ffffffffffffffffffffffffffffffffffffffff166338ed17398360018430426040518663ffffffff1660e01b81526004016106e395949392919061108c565b6000604051808303816000875af1158015610702573d6000803e3d6000fd5b505050506040513d6000823e3d601f19601f8201168201806040525081019061072b9190611225565b5050505050565b60008273ffffffffffffffffffffffffffffffffffffffff166370a08231306040518263ffffffff1660e01b815260040161076d919061126e565b602060405180830381865afa15801561078a573d6000803e3d6000fd5b505050506040513d601f19601f820116820180604052508101906107ae9190611289565b905060008273ffffffffffffffffffffffffffffffffffffffff166370a08231306040518263ffffffff1660e01b81526004016107eb919061126e565b602060405180830381865afa158015610808573d6000803e3d6000fd5b505050506040513d601f19601f8201168201806040525081019061082c9190611289565b90508373ffffffffffffffffffffffffffffffffffffffff1663095ea7b3737a250d5630b4cf539739df2c5dacb4c659f2488d846040518363ffffffff1660e01b815260040161087d929190610f02565b6020604051808303816000875af115801561089c573d6000803e3d6000fd5b505050506040513d601f19601f820116820180604052508101906108c09190610d95565b508273ffffffffffffffffffffffffffffffffffffffff1663095ea7b3737a250d5630b4cf539739df2c5dacb4c659f2488d836040518363ffffffff1660e01b8152600401610910929190610f02565b6020604051808303816000875af115801561092f573d6000803e3d6000fd5b505050506040513d601f19601f820116820180604052508101906109539190610d95565b50737a250d5630b4cf539739df2c5dacb4c659f2488d73ffffffffffffffffffffffffffffffffffffffff1663e8e337008585858560008030426040518963ffffffff1660e01b81526004016109b09897969594939291906112f1565b6060604051808303816000875af11580156109cf573d6000803e3d6000fd5b505050506040513d601f19601f820116820180604052508101906109f3919061136f565b50505050505050565b6000604051905090565b600080fd5b600080fd5b6000819050919050565b610a2381610a10565b8114610a2e57600080fd5b50565b600081359050610a4081610a1a565b92915050565b60008060408385031215610a5d57610a5c610a06565b5b6000610a6b85828601610a31565b9250506020610a7c85828601610a31565b9150509250929050565b610a8f81610a10565b82525050565b6000602082019050610aaa6000830184610a86565b92915050565b600073ffffffffffffffffffffffffffffffffffffffff82169050919050565b6000610adb82610ab0565b9050919050565b610aeb81610ad0565b8114610af657600080fd5b50565b600081359050610b0881610ae2565b92915050565b600080600060608486031215610b2757610b26610a06565b5b6000610b3586828701610af9565b9350506020610b4686828701610af9565b9250506040610b5786828701610a31565b9150509250925092565b7f4e487b7100000000000000000000000000000000000000000000000000000000600052601160045260246000fd5b6000610b9b82610a10565b9150610ba683610a10565b9250828202610bb481610a10565b91508282048414831517610bcb57610bca610b61565b5b5092915050565b6000610bdd82610a10565b9150610be883610a10565b9250828201905080821115610c0057610bff610b61565b5b92915050565b6000610c1182610a10565b9150610c1c83610a10565b9250828203905081811115610c3457610c33610b61565b5b92915050565b7f4e487b7100000000000000000000000000000000000000000000000000000000600052601260045260246000fd5b6000610c7482610a10565b9150610c7f83610a10565b925082610c8f57610c8e610c3a565b5b828204905092915050565b600082825260208201905092915050565b7f2177657468000000000000000000000000000000000000000000000000000000600082015250565b6000610ce1600583610c9a565b9150610cec82610cab565b602082019050919050565b60006020820190508181036000830152610d1081610cd4565b9050919050565b610d2081610ad0565b82525050565b6000606082019050610d3b6000830186610d17565b610d486020830185610d17565b610d556040830184610a86565b949350505050565b60008115159050919050565b610d7281610d5d565b8114610d7d57600080fd5b50565b600081519050610d8f81610d69565b92915050565b600060208284031215610dab57610daa610a06565b5b6000610db984828501610d80565b91505092915050565b6000604082019050610dd76000830185610d17565b610de46020830184610d17565b9392505050565b600081519050610dfa81610ae2565b92915050565b600060208284031215610e1657610e15610a06565b5b6000610e2484828501610deb565b91505092915050565b60006dffffffffffffffffffffffffffff82169050919050565b610e5081610e2d565b8114610e5b57600080fd5b50565b600081519050610e6d81610e47565b92915050565b600063ffffffff82169050919050565b610e8c81610e73565b8114610e9757600080fd5b50565b600081519050610ea981610e83565b92915050565b600080600060608486031215610ec857610ec7610a06565b5b6000610ed686828701610e5e565b9350506020610ee786828701610e5e565b9250506040610ef886828701610e9a565b9150509250925092565b6000604082019050610f176000830185610d17565b610f246020830184610a86565b9392505050565b7f4e487b7100000000000000000000000000000000000000000000000000000000600052604160045260246000fd5b7f4e487b7100000000000000000000000000000000000000000000000000000000600052603260045260246000fd5b6000819050919050565b6000819050919050565b6000610fb8610fb3610fae84610f89565b610f93565b610a10565b9050919050565b610fc881610f9d565b82525050565b600081519050919050565b600082825260208201905092915050565b6000819050602082019050919050565b61100381610ad0565b82525050565b60006110158383610ffa565b60208301905092915050565b6000602082019050919050565b600061103982610fce565b6110438185610fd9565b935061104e83610fea565b8060005b8381101561107f5781516110668882611009565b975061107183611021565b925050600181019050611052565b5085935050505092915050565b600060a0820190506110a16000830188610a86565b6110ae6020830187610fbf565b81810360408301526110c0818661102e565b90506110cf6060830185610d17565b6110dc6080830184610a86565b9695505050505050565b600080fd5b6000601f19601f8301169050919050565b611105826110eb565b810181811067ffffffffffffffff8211171561112457611123610f2b565b5b80604052505050565b60006111376109fc565b905061114382826110fc565b919050565b600067ffffffffffffffff82111561116357611162610f2b565b5b602082029050602081019050919050565b600080fd5b60008151905061118881610a1a565b92915050565b60006111a161119c84611148565b61112d565b905080838252602082019050602084028301858111156111c4576111c3611174565b5b835b818110156111ed57806111d98882611179565b8452602084019350506020810190506111c6565b5050509392505050565b600082601f83011261120c5761120b6110e6565b5b815161121c84826020860161118e565b91505092915050565b60006020828403121561123b5761123a610a06565b5b600082015167ffffffffffffffff81111561125957611258610a0b565b5b611265848285016111f7565b91505092915050565b60006020820190506112836000830184610d17565b92915050565b60006020828403121561129f5761129e610a06565b5b60006112ad84828501611179565b91505092915050565b6000819050919050565b60006112db6112d66112d1846112b6565b610f93565b610a10565b9050919050565b6112eb816112c0565b82525050565b600061010082019050611307600083018b610d17565b611314602083018a610d17565b6113216040830189610a86565b61132e6060830188610a86565b61133b60808301876112e2565b61134860a08301866112e2565b61135560c0830185610d17565b61136260e0830184610a86565b9998505050505050505050565b60008060006060848603121561138857611387610a06565b5b600061139686828701611179565b93505060206113a786828701611179565b92505060406113b886828701611179565b915050925092509256fea264697066735822122089a0c0c98b43f2337797a0205e7e0449e3ca1a935d6714fa0fa93bb682d46bb564736f6c63430008110033",
			"opcodes": "PUSH1 0x80 PUSH1 0x40 MSTORE CALLVALUE DUP1 ISZERO PUSH2 0x10 JUMPI PUSH1 0x0 DUP1 REVERT JUMPDEST POP PUSH2 0x13F8 DUP1 PUSH2 0x20 PUSH1 0x0 CODECOPY PUSH1 0x0 RETURN INVALID PUSH1 0x80 PUSH1 0x40 MSTORE CALLVALUE DUP1 ISZERO PUSH2 0x10 JUMPI PUSH1 0x0 DUP1 REVERT JUMPDEST POP PUSH1 0x4 CALLDATASIZE LT PUSH2 0x36 JUMPI PUSH1 0x0 CALLDATALOAD PUSH1 0xE0 SHR DUP1 PUSH4 0x368519F3 EQ PUSH2 0x3B JUMPI DUP1 PUSH4 0x47CE3E69 EQ PUSH2 0x6B JUMPI JUMPDEST PUSH1 0x0 DUP1 REVERT JUMPDEST PUSH2 0x55 PUSH1 0x4 DUP1 CALLDATASIZE SUB DUP2 ADD SWAP1 PUSH2 0x50 SWAP2 SWAP1 PUSH2 0xA46 JUMP JUMPDEST PUSH2 0x87 JUMP JUMPDEST PUSH1 0x40 MLOAD PUSH2 0x62 SWAP2 SWAP1 PUSH2 0xA95 JUMP JUMPDEST PUSH1 0x40 MLOAD DUP1 SWAP2 SUB SWAP1 RETURN JUMPDEST PUSH2 0x85 PUSH1 0x4 DUP1 CALLDATASIZE SUB DUP2 ADD SWAP1 PUSH2 0x80 SWAP2 SWAP1 PUSH2 0xB0E JUMP JUMPDEST PUSH2 0xF1 JUMP JUMPDEST STOP JUMPDEST PUSH1 0x0 PUSH2 0x7CA PUSH2 0x7CD DUP5 PUSH2 0x9A SWAP2 SWAP1 PUSH2 0xB90 JUMP JUMPDEST PUSH2 0xD5 PUSH3 0x3CDA20 DUP6 PUSH2 0xAC SWAP2 SWAP1 PUSH2 0xB90 JUMP JUMPDEST PUSH3 0x3CDA29 DUP8 PUSH2 0xBB SWAP2 SWAP1 PUSH2 0xB90 JUMP JUMPDEST PUSH2 0xC5 SWAP2 SWAP1 PUSH2 0xBD2 JUMP JUMPDEST DUP7 PUSH2 0xD0 SWAP2 SWAP1 PUSH2 0xB90 JUMP JUMPDEST PUSH2 0x448 JUMP JUMPDEST PUSH2 0xDF SWAP2 SWAP1 PUSH2 0xC06 JUMP JUMPDEST PUSH2 0xE9 SWAP2 SWAP1 PUSH2 0xC69 JUMP JUMPDEST SWAP1 POP SWAP3 SWAP2 POP POP JUMP JUMPDEST PUSH20 0xC02AAA39B223FE8D0A0E5C4F27EAD9083C756CC2 PUSH20 0xFFFFFFFFFFFFFFFFFFFFFFFFFFFFFFFFFFFFFFFF AND DUP4 PUSH20 0xFFFFFFFFFFFFFFFFFFFFFFFFFFFFFFFFFFFFFFFF AND EQ DUP1 PUSH2 0x17E JUMPI POP PUSH20 0xC02AAA39B223FE8D0A0E5C4F27EAD9083C756CC2 PUSH20 0xFFFFFFFFFFFFFFFFFFFFFFFFFFFFFFFFFFFFFFFF AND DUP3 PUSH20 0xFFFFFFFFFFFFFFFFFFFFFFFFFFFFFFFFFFFFFFFF AND EQ JUMPDEST PUSH2 0x1BD JUMPI PUSH1 0x40 MLOAD PUSH32 0x8C379A000000000000000000000000000000000000000000000000000000000 DUP2 MSTORE PUSH1 0x4 ADD PUSH2 0x1B4 SWAP1 PUSH2 0xCF7 JUMP JUMPDEST PUSH1 0x40 MLOAD DUP1 SWAP2 SUB SWAP1 REVERT JUMPDEST DUP3 PUSH20 0xFFFFFFFFFFFFFFFFFFFFFFFFFFFFFFFFFFFFFFFF AND PUSH4 0x23B872DD CALLER ADDRESS DUP5 PUSH1 0x40 MLOAD DUP5 PUSH4 0xFFFFFFFF AND PUSH1 0xE0 SHL DUP2 MSTORE PUSH1 0x4 ADD PUSH2 0x1FA SWAP4 SWAP3 SWAP2 SWAP1 PUSH2 0xD26 JUMP JUMPDEST PUSH1 0x20 PUSH1 0x40 MLOAD DUP1 DUP4 SUB DUP2 PUSH1 0x0 DUP8 GAS CALL ISZERO DUP1 ISZERO PUSH2 0x219 JUMPI RETURNDATASIZE PUSH1 0x0 DUP1 RETURNDATACOPY RETURNDATASIZE PUSH1 0x0 REVERT JUMPDEST POP POP POP POP PUSH1 0x40 MLOAD RETURNDATASIZE PUSH1 0x1F NOT PUSH1 0x1F DUP3 ADD AND DUP3 ADD DUP1 PUSH1 0x40 MSTORE POP DUP2 ADD SWAP1 PUSH2 0x23D SWAP2 SWAP1 PUSH2 0xD95 JUMP JUMPDEST POP PUSH1 0x0 PUSH20 0x5C69BEE701EF814A2B6A3EDD4B1652CB9CC5AA6F PUSH20 0xFFFFFFFFFFFFFFFFFFFFFFFFFFFFFFFFFFFFFFFF AND PUSH4 0xE6A43905 DUP6 DUP6 PUSH1 0x40 MLOAD DUP4 PUSH4 0xFFFFFFFF AND PUSH1 0xE0 SHL DUP2 MSTORE PUSH1 0x4 ADD PUSH2 0x28F SWAP3 SWAP2 SWAP1 PUSH2 0xDC2 JUMP JUMPDEST PUSH1 0x20 PUSH1 0x40 MLOAD DUP1 DUP4 SUB DUP2 DUP7 GAS STATICCALL ISZERO DUP1 ISZERO PUSH2 0x2AC JUMPI RETURNDATASIZE PUSH1 0x0 DUP1 RETURNDATACOPY RETURNDATASIZE PUSH1 0x0 REVERT JUMPDEST POP POP POP POP PUSH1 0x40 MLOAD RETURNDATASIZE PUSH1 0x1F NOT PUSH1 0x1F DUP3 ADD AND DUP3 ADD DUP1 PUSH1 0x40 MSTORE POP DUP2 ADD SWAP1 PUSH2 0x2D0 SWAP2 SWAP1 PUSH2 0xE00 JUMP JUMPDEST SWAP1 POP PUSH1 0x0 DUP1 DUP3 PUSH20 0xFFFFFFFFFFFFFFFFFFFFFFFFFFFFFFFFFFFFFFFF AND PUSH4 0x902F1AC PUSH1 0x40 MLOAD DUP2 PUSH4 0xFFFFFFFF AND PUSH1 0xE0 SHL DUP2 MSTORE PUSH1 0x4 ADD PUSH1 0x60 PUSH1 0x40 MLOAD DUP1 DUP4 SUB DUP2 DUP7 GAS STATICCALL ISZERO DUP1 ISZERO PUSH2 0x320 JUMPI RETURNDATASIZE PUSH1 0x0 DUP1 RETURNDATACOPY RETURNDATASIZE PUSH1 0x0 REVERT JUMPDEST POP POP POP POP PUSH1 0x40 MLOAD RETURNDATASIZE PUSH1 0x1F NOT PUSH1 0x1F DUP3 ADD AND DUP3 ADD DUP1 PUSH1 0x40 MSTORE POP DUP2 ADD SWAP1 PUSH2 0x344 SWAP2 SWAP1 PUSH2 0xEAF JUMP JUMPDEST POP PUSH14 0xFFFFFFFFFFFFFFFFFFFFFFFFFFFF AND SWAP2 POP PUSH14 0xFFFFFFFFFFFFFFFFFFFFFFFFFFFF AND SWAP2 POP PUSH1 0x0 DUP7 PUSH20 0xFFFFFFFFFFFFFFFFFFFFFFFFFFFFFFFFFFFFFFFF AND DUP5 PUSH20 0xFFFFFFFFFFFFFFFFFFFFFFFFFFFFFFFFFFFFFFFF AND PUSH4 0xDFE1681 PUSH1 0x40 MLOAD DUP2 PUSH4 0xFFFFFFFF AND PUSH1 0xE0 SHL DUP2 MSTORE PUSH1 0x4 ADD PUSH1 0x20 PUSH1 0x40 MLOAD DUP1 DUP4 SUB DUP2 DUP7 GAS STATICCALL ISZERO DUP1 ISZERO PUSH2 0x3CD JUMPI RETURNDATASIZE PUSH1 0x0 DUP1 RETURNDATACOPY RETURNDATASIZE PUSH1 0x0 REVERT JUMPDEST POP POP POP POP PUSH1 0x40 MLOAD RETURNDATASIZE PUSH1 0x1F NOT PUSH1 0x1F DUP3 ADD AND DUP3 ADD DUP1 PUSH1 0x40 MSTORE POP DUP2 ADD SWAP1 PUSH2 0x3F1 SWAP2 SWAP1 PUSH2 0xE00 JUMP JUMPDEST PUSH20 0xFFFFFFFFFFFFFFFFFFFFFFFFFFFFFFFFFFFFFFFF AND SUB PUSH2 0x41D JUMPI PUSH2 0x416 DUP4 DUP7 PUSH2 0x87 JUMP JUMPDEST SWAP1 POP PUSH2 0x42A JUMP JUMPDEST PUSH2 0x427 DUP3 DUP7 PUSH2 0x87 JUMP JUMPDEST SWAP1 POP JUMPDEST PUSH2 0x435 DUP8 DUP8 DUP4 PUSH2 0x4C2 JUMP JUMPDEST PUSH2 0x43F DUP8 DUP8 PUSH2 0x732 JUMP JUMPDEST POP POP POP POP POP POP POP JUMP JUMPDEST PUSH1 0x0 PUSH1 0x3 DUP3 GT ISZERO PUSH2 0x4AF JUMPI DUP2 SWAP1 POP PUSH1 0x0 PUSH1 0x1 PUSH1 0x2 DUP5 PUSH2 0x467 SWAP2 SWAP1 PUSH2 0xC69 JUMP JUMPDEST PUSH2 0x471 SWAP2 SWAP1 PUSH2 0xBD2 JUMP JUMPDEST SWAP1 POP JUMPDEST DUP2 DUP2 LT ISZERO PUSH2 0x4A9 JUMPI DUP1 SWAP2 POP PUSH1 0x2 DUP2 DUP3 DUP6 PUSH2 0x48E SWAP2 SWAP1 PUSH2 0xC69 JUMP JUMPDEST PUSH2 0x498 SWAP2 SWAP1 PUSH2 0xBD2 JUMP JUMPDEST PUSH2 0x4A2 SWAP2 SWAP1 PUSH2 0xC69 JUMP JUMPDEST SWAP1 POP PUSH2 0x474 JUMP JUMPDEST POP PUSH2 0x4BD JUMP JUMPDEST PUSH1 0x0 DUP3 EQ PUSH2 0x4BC JUMPI PUSH1 0x1 SWAP1 POP JUMPDEST JUMPDEST SWAP2 SWAP1 POP JUMP JUMPDEST DUP3 PUSH20 0xFFFFFFFFFFFFFFFFFFFFFFFFFFFFFFFFFFFFFFFF AND PUSH4 0x95EA7B3 PUSH20 0x7A250D5630B4CF539739DF2C5DACB4C659F2488D DUP4 PUSH1 0x40 MLOAD DUP4 PUSH4 0xFFFFFFFF AND PUSH1 0xE0 SHL DUP2 MSTORE PUSH1 0x4 ADD PUSH2 0x511 SWAP3 SWAP2 SWAP1 PUSH2 0xF02 JUMP JUMPDEST PUSH1 0x20 PUSH1 0x40 MLOAD DUP1 DUP4 SUB DUP2 PUSH1 0x0 DUP8 GAS CALL ISZERO DUP1 ISZERO PUSH2 0x530 JUMPI RETURNDATASIZE PUSH1 0x0 DUP1 RETURNDATACOPY RETURNDATASIZE PUSH1 0x0 REVERT JUMPDEST POP POP POP POP PUSH1 0x40 MLOAD RETURNDATASIZE PUSH1 0x1F NOT PUSH1 0x1F DUP3 ADD AND DUP3 ADD DUP1 PUSH1 0x40 MSTORE POP DUP2 ADD SWAP1 PUSH2 0x554 SWAP2 SWAP1 PUSH2 0xD95 JUMP JUMPDEST POP PUSH1 0x0 PUSH1 0x2 PUSH8 0xFFFFFFFFFFFFFFFF DUP2 GT ISZERO PUSH2 0x572 JUMPI PUSH2 0x571 PUSH2 0xF2B JUMP JUMPDEST JUMPDEST PUSH1 0x40 MLOAD SWAP1 DUP1 DUP3 MSTORE DUP1 PUSH1 0x20 MUL PUSH1 0x20 ADD DUP3 ADD PUSH1 0x40 MSTORE DUP1 ISZERO PUSH2 0x5A0 JUMPI DUP2 PUSH1 0x20 ADD PUSH1 0x20 DUP3 MUL DUP1 CALLDATASIZE DUP4 CALLDATACOPY DUP1 DUP3 ADD SWAP2 POP POP SWAP1 POP JUMPDEST POP SWAP1 POP PUSH1 0x2 PUSH8 0xFFFFFFFFFFFFFFFF DUP2 GT ISZERO PUSH2 0x5BE JUMPI PUSH2 0x5BD PUSH2 0xF2B JUMP JUMPDEST JUMPDEST PUSH1 0x40 MLOAD SWAP1 DUP1 DUP3 MSTORE DUP1 PUSH1 0x20 MUL PUSH1 0x20 ADD DUP3 ADD PUSH1 0x40 MSTORE DUP1 ISZERO PUSH2 0x5EC JUMPI DUP2 PUSH1 0x20 ADD PUSH1 0x20 DUP3 MUL DUP1 CALLDATASIZE DUP4 CALLDATACOPY DUP1 DUP3 ADD SWAP2 POP POP SWAP1 POP JUMPDEST POP SWAP1 POP DUP4 DUP2 PUSH1 0x0 DUP2 MLOAD DUP2 LT PUSH2 0x604 JUMPI PUSH2 0x603 PUSH2 0xF5A JUMP JUMPDEST JUMPDEST PUSH1 0x20 MUL PUSH1 0x20 ADD ADD SWAP1 PUSH20 0xFFFFFFFFFFFFFFFFFFFFFFFFFFFFFFFFFFFFFFFF AND SWAP1 DUP2 PUSH20 0xFFFFFFFFFFFFFFFFFFFFFFFFFFFFFFFFFFFFFFFF AND DUP2 MSTORE POP POP DUP3 DUP2 PUSH1 0x1 DUP2 MLOAD DUP2 LT PUSH2 0x653 JUMPI PUSH2 0x652 PUSH2 0xF5A JUMP JUMPDEST JUMPDEST PUSH1 0x20 MUL PUSH1 0x20 ADD ADD SWAP1 PUSH20 0xFFFFFFFFFFFFFFFFFFFFFFFFFFFFFFFFFFFFFFFF AND SWAP1 DUP2 PUSH20 0xFFFFFFFFFFFFFFFFFFFFFFFFFFFFFFFFFFFFFFFF AND DUP2 MSTORE POP POP PUSH20 0x7A250D5630B4CF539739DF2C5DACB4C659F2488D PUSH20 0xFFFFFFFFFFFFFFFFFFFFFFFFFFFFFFFFFFFFFFFF AND PUSH4 0x38ED1739 DUP4 PUSH1 0x1 DUP5 ADDRESS TIMESTAMP PUSH1 0x40 MLOAD DUP7 PUSH4 0xFFFFFFFF AND PUSH1 0xE0 SHL DUP2 MSTORE PUSH1 0x4 ADD PUSH2 0x6E3 SWAP6 SWAP5 SWAP4 SWAP3 SWAP2 SWAP1 PUSH2 0x108C JUMP JUMPDEST PUSH1 0x0 PUSH1 0x40 MLOAD DUP1 DUP4 SUB DUP2 PUSH1 0x0 DUP8 GAS CALL ISZERO DUP1 ISZERO PUSH2 0x702 JUMPI RETURNDATASIZE PUSH1 0x0 DUP1 RETURNDATACOPY RETURNDATASIZE PUSH1 0x0 REVERT JUMPDEST POP POP POP POP PUSH1 0x40 MLOAD RETURNDATASIZE PUSH1 0x0 DUP3 RETURNDATACOPY RETURNDATASIZE PUSH1 0x1F NOT PUSH1 0x1F DUP3 ADD AND DUP3 ADD DUP1 PUSH1 0x40 MSTORE POP DUP2 ADD SWAP1 PUSH2 0x72B SWAP2 SWAP1 PUSH2 0x1225 JUMP JUMPDEST POP POP POP POP POP JUMP JUMPDEST PUSH1 0x0 DUP3 PUSH20 0xFFFFFFFFFFFFFFFFFFFFFFFFFFFFFFFFFFFFFFFF AND PUSH4 0x70A08231 ADDRESS PUSH1 0x40 MLOAD DUP3 PUSH4 0xFFFFFFFF AND PUSH1 0xE0 SHL DUP2 MSTORE PUSH1 0x4 ADD PUSH2 0x76D SWAP2 SWAP1 PUSH2 0x126E JUMP JUMPDEST PUSH1 0x20 PUSH1 0x40 MLOAD DUP1 DUP4 SUB DUP2 DUP7 GAS STATICCALL ISZERO DUP1 ISZERO PUSH2 0x78A JUMPI RETURNDATASIZE PUSH1 0x0 DUP1 RETURNDATACOPY RETURNDATASIZE PUSH1 0x0 REVERT JUMPDEST POP POP POP POP PUSH1 0x40 MLOAD RETURNDATASIZE PUSH1 0x1F NOT PUSH1 0x1F DUP3 ADD AND DUP3 ADD DUP1 PUSH1 0x40 MSTORE POP DUP2 ADD SWAP1 PUSH2 0x7AE SWAP2 SWAP1 PUSH2 0x1289 JUMP JUMPDEST SWAP1 POP PUSH1 0x0 DUP3 PUSH20 0xFFFFFFFFFFFFFFFFFFFFFFFFFFFFFFFFFFFFFFFF AND PUSH4 0x70A08231 ADDRESS PUSH1 0x40 MLOAD DUP3 PUSH4 0xFFFFFFFF AND PUSH1 0xE0 SHL DUP2 MSTORE PUSH1 0x4 ADD PUSH2 0x7EB SWAP2 SWAP1 PUSH2 0x126E JUMP JUMPDEST PUSH1 0x20 PUSH1 0x40 MLOAD DUP1 DUP4 SUB DUP2 DUP7 GAS STATICCALL ISZERO DUP1 ISZERO PUSH2 0x808 JUMPI RETURNDATASIZE PUSH1 0x0 DUP1 RETURNDATACOPY RETURNDATASIZE PUSH1 0x0 REVERT JUMPDEST POP POP POP POP PUSH1 0x40 MLOAD RETURNDATASIZE PUSH1 0x1F NOT PUSH1 0x1F DUP3 ADD AND DUP3 ADD DUP1 PUSH1 0x40 MSTORE POP DUP2 ADD SWAP1 PUSH2 0x82C SWAP2 SWAP1 PUSH2 0x1289 JUMP JUMPDEST SWAP1 POP DUP4 PUSH20 0xFFFFFFFFFFFFFFFFFFFFFFFFFFFFFFFFFFFFFFFF AND PUSH4 0x95EA7B3 PUSH20 0x7A250D5630B4CF539739DF2C5DACB4C659F2488D DUP5 PUSH1 0x40 MLOAD DUP4 PUSH4 0xFFFFFFFF AND PUSH1 0xE0 SHL DUP2 MSTORE PUSH1 0x4 ADD PUSH2 0x87D SWAP3 SWAP2 SWAP1 PUSH2 0xF02 JUMP JUMPDEST PUSH1 0x20 PUSH1 0x40 MLOAD DUP1 DUP4 SUB DUP2 PUSH1 0x0 DUP8 GAS CALL ISZERO DUP1 ISZERO PUSH2 0x89C JUMPI RETURNDATASIZE PUSH1 0x0 DUP1 RETURNDATACOPY RETURNDATASIZE PUSH1 0x0 REVERT JUMPDEST POP POP POP POP PUSH1 0x40 MLOAD RETURNDATASIZE PUSH1 0x1F NOT PUSH1 0x1F DUP3 ADD AND DUP3 ADD DUP1 PUSH1 0x40 MSTORE POP DUP2 ADD SWAP1 PUSH2 0x8C0 SWAP2 SWAP1 PUSH2 0xD95 JUMP JUMPDEST POP DUP3 PUSH20 0xFFFFFFFFFFFFFFFFFFFFFFFFFFFFFFFFFFFFFFFF AND PUSH4 0x95EA7B3 PUSH20 0x7A250D5630B4CF539739DF2C5DACB4C659F2488D DUP4 PUSH1 0x40 MLOAD DUP4 PUSH4 0xFFFFFFFF AND PUSH1 0xE0 SHL DUP2 MSTORE PUSH1 0x4 ADD PUSH2 0x910 SWAP3 SWAP2 SWAP1 PUSH2 0xF02 JUMP JUMPDEST PUSH1 0x20 PUSH1 0x40 MLOAD DUP1 DUP4 SUB DUP2 PUSH1 0x0 DUP8 GAS CALL ISZERO DUP1 ISZERO PUSH2 0x92F JUMPI RETURNDATASIZE PUSH1 0x0 DUP1 RETURNDATACOPY RETURNDATASIZE PUSH1 0x0 REVERT JUMPDEST POP POP POP POP PUSH1 0x40 MLOAD RETURNDATASIZE PUSH1 0x1F NOT PUSH1 0x1F DUP3 ADD AND DUP3 ADD DUP1 PUSH1 0x40 MSTORE POP DUP2 ADD SWAP1 PUSH2 0x953 SWAP2 SWAP1 PUSH2 0xD95 JUMP JUMPDEST POP PUSH20 0x7A250D5630B4CF539739DF2C5DACB4C659F2488D PUSH20 0xFFFFFFFFFFFFFFFFFFFFFFFFFFFFFFFFFFFFFFFF AND PUSH4 0xE8E33700 DUP6 DUP6 DUP6 DUP6 PUSH1 0x0 DUP1 ADDRESS TIMESTAMP PUSH1 0x40 MLOAD DUP10 PUSH4 0xFFFFFFFF AND PUSH1 0xE0 SHL DUP2 MSTORE PUSH1 0x4 ADD PUSH2 0x9B0 SWAP9 SWAP8 SWAP7 SWAP6 SWAP5 SWAP4 SWAP3 SWAP2 SWAP1 PUSH2 0x12F1 JUMP JUMPDEST PUSH1 0x60 PUSH1 0x40 MLOAD DUP1 DUP4 SUB DUP2 PUSH1 0x0 DUP8 GAS CALL ISZERO DUP1 ISZERO PUSH2 0x9CF JUMPI RETURNDATASIZE PUSH1 0x0 DUP1 RETURNDATACOPY RETURNDATASIZE PUSH1 0x0 REVERT JUMPDEST POP POP POP POP PUSH1 0x40 MLOAD RETURNDATASIZE PUSH1 0x1F NOT PUSH1 0x1F DUP3 ADD AND DUP3 ADD DUP1 PUSH1 0x40 MSTORE POP DUP2 ADD SWAP1 PUSH2 0x9F3 SWAP2 SWAP1 PUSH2 0x136F JUMP JUMPDEST POP POP POP POP POP POP POP JUMP JUMPDEST PUSH1 0x0 PUSH1 0x40 MLOAD SWAP1 POP SWAP1 JUMP JUMPDEST PUSH1 0x0 DUP1 REVERT JUMPDEST PUSH1 0x0 DUP1 REVERT JUMPDEST PUSH1 0x0 DUP2 SWAP1 POP SWAP2 SWAP1 POP JUMP JUMPDEST PUSH2 0xA23 DUP2 PUSH2 0xA10 JUMP JUMPDEST DUP2 EQ PUSH2 0xA2E JUMPI PUSH1 0x0 DUP1 REVERT JUMPDEST POP JUMP JUMPDEST PUSH1 0x0 DUP2 CALLDATALOAD SWAP1 POP PUSH2 0xA40 DUP2 PUSH2 0xA1A JUMP JUMPDEST SWAP3 SWAP2 POP POP JUMP JUMPDEST PUSH1 0x0 DUP1 PUSH1 0x40 DUP4 DUP6 SUB SLT ISZERO PUSH2 0xA5D JUMPI PUSH2 0xA5C PUSH2 0xA06 JUMP JUMPDEST JUMPDEST PUSH1 0x0 PUSH2 0xA6B DUP6 DUP3 DUP7 ADD PUSH2 0xA31 JUMP JUMPDEST SWAP3 POP POP PUSH1 0x20 PUSH2 0xA7C DUP6 DUP3 DUP7 ADD PUSH2 0xA31 JUMP JUMPDEST SWAP2 POP POP SWAP3 POP SWAP3 SWAP1 POP JUMP JUMPDEST PUSH2 0xA8F DUP2 PUSH2 0xA10 JUMP JUMPDEST DUP3 MSTORE POP POP JUMP JUMPDEST PUSH1 0x0 PUSH1 0x20 DUP3 ADD SWAP1 POP PUSH2 0xAAA PUSH1 0x0 DUP4 ADD DUP5 PUSH2 0xA86 JUMP JUMPDEST SWAP3 SWAP2 POP POP JUMP JUMPDEST PUSH1 0x0 PUSH20 0xFFFFFFFFFFFFFFFFFFFFFFFFFFFFFFFFFFFFFFFF DUP3 AND SWAP1 POP SWAP2 SWAP1 POP JUMP JUMPDEST PUSH1 0x0 PUSH2 0xADB DUP3 PUSH2 0xAB0 JUMP JUMPDEST SWAP1 POP SWAP2 SWAP1 POP JUMP JUMPDEST PUSH2 0xAEB DUP2 PUSH2 0xAD0 JUMP JUMPDEST DUP2 EQ PUSH2 0xAF6 JUMPI PUSH1 0x0 DUP1 REVERT JUMPDEST POP JUMP JUMPDEST PUSH1 0x0 DUP2 CALLDATALOAD SWAP1 POP PUSH2 0xB08 DUP2 PUSH2 0xAE2 JUMP JUMPDEST SWAP3 SWAP2 POP POP JUMP JUMPDEST PUSH1 0x0 DUP1 PUSH1 0x0 PUSH1 0x60 DUP5 DUP7 SUB SLT ISZERO PUSH2 0xB27 JUMPI PUSH2 0xB26 PUSH2 0xA06 JUMP JUMPDEST JUMPDEST PUSH1 0x0 PUSH2 0xB35 DUP7 DUP3 DUP8 ADD PUSH2 0xAF9 JUMP JUMPDEST SWAP4 POP POP PUSH1 0x20 PUSH2 0xB46 DUP7 DUP3 DUP8 ADD PUSH2 0xAF9 JUMP JUMPDEST SWAP3 POP POP PUSH1 0x40 PUSH2 0xB57 DUP7 DUP3 DUP8 ADD PUSH2 0xA31 JUMP JUMPDEST SWAP2 POP POP SWAP3 POP SWAP3 POP SWAP3 JUMP JUMPDEST PUSH32 0x4E487B7100000000000000000000000000000000000000000000000000000000 PUSH1 0x0 MSTORE PUSH1 0x11 PUSH1 0x4 MSTORE PUSH1 0x24 PUSH1 0x0 REVERT JUMPDEST PUSH1 0x0 PUSH2 0xB9B DUP3 PUSH2 0xA10 JUMP JUMPDEST SWAP2 POP PUSH2 0xBA6 DUP4 PUSH2 0xA10 JUMP JUMPDEST SWAP3 POP DUP3 DUP3 MUL PUSH2 0xBB4 DUP2 PUSH2 0xA10 JUMP JUMPDEST SWAP2 POP DUP3 DUP3 DIV DUP5 EQ DUP4 ISZERO OR PUSH2 0xBCB JUMPI PUSH2 0xBCA PUSH2 0xB61 JUMP JUMPDEST JUMPDEST POP SWAP3 SWAP2 POP POP JUMP JUMPDEST PUSH1 0x0 PUSH2 0xBDD DUP3 PUSH2 0xA10 JUMP JUMPDEST SWAP2 POP PUSH2 0xBE8 DUP4 PUSH2 0xA10 JUMP JUMPDEST SWAP3 POP DUP3 DUP3 ADD SWAP1 POP DUP1 DUP3 GT ISZERO PUSH2 0xC00 JUMPI PUSH2 0xBFF PUSH2 0xB61 JUMP JUMPDEST JUMPDEST SWAP3 SWAP2 POP POP JUMP JUMPDEST PUSH1 0x0 PUSH2 0xC11 DUP3 PUSH2 0xA10 JUMP JUMPDEST SWAP2 POP PUSH2 0xC1C DUP4 PUSH2 0xA10 JUMP JUMPDEST SWAP3 POP DUP3 DUP3 SUB SWAP1 POP DUP2 DUP2 GT ISZERO PUSH2 0xC34 JUMPI PUSH2 0xC33 PUSH2 0xB61 JUMP JUMPDEST JUMPDEST SWAP3 SWAP2 POP POP JUMP JUMPDEST PUSH32 0x4E487B7100000000000000000000000000000000000000000000000000000000 PUSH1 0x0 MSTORE PUSH1 0x12 PUSH1 0x4 MSTORE PUSH1 0x24 PUSH1 0x0 REVERT JUMPDEST PUSH1 0x0 PUSH2 0xC74 DUP3 PUSH2 0xA10 JUMP JUMPDEST SWAP2 POP PUSH2 0xC7F DUP4 PUSH2 0xA10 JUMP JUMPDEST SWAP3 POP DUP3 PUSH2 0xC8F JUMPI PUSH2 0xC8E PUSH2 0xC3A JUMP JUMPDEST JUMPDEST DUP3 DUP3 DIV SWAP1 POP SWAP3 SWAP2 POP POP JUMP JUMPDEST PUSH1 0x0 DUP3 DUP3 MSTORE PUSH1 0x20 DUP3 ADD SWAP1 POP SWAP3 SWAP2 POP POP JUMP JUMPDEST PUSH32 0x2177657468000000000000000000000000000000000000000000000000000000 PUSH1 0x0 DUP3 ADD MSTORE POP JUMP JUMPDEST PUSH1 0x0 PUSH2 0xCE1 PUSH1 0x5 DUP4 PUSH2 0xC9A JUMP JUMPDEST SWAP2 POP PUSH2 0xCEC DUP3 PUSH2 0xCAB JUMP JUMPDEST PUSH1 0x20 DUP3 ADD SWAP1 POP SWAP2 SWAP1 POP JUMP JUMPDEST PUSH1 0x0 PUSH1 0x20 DUP3 ADD SWAP1 POP DUP2 DUP2 SUB PUSH1 0x0 DUP4 ADD MSTORE PUSH2 0xD10 DUP2 PUSH2 0xCD4 JUMP JUMPDEST SWAP1 POP SWAP2 SWAP1 POP JUMP JUMPDEST PUSH2 0xD20 DUP2 PUSH2 0xAD0 JUMP JUMPDEST DUP3 MSTORE POP POP JUMP JUMPDEST PUSH1 0x0 PUSH1 0x60 DUP3 ADD SWAP1 POP PUSH2 0xD3B PUSH1 0x0 DUP4 ADD DUP7 PUSH2 0xD17 JUMP JUMPDEST PUSH2 0xD48 PUSH1 0x20 DUP4 ADD DUP6 PUSH2 0xD17 JUMP JUMPDEST PUSH2 0xD55 PUSH1 0x40 DUP4 ADD DUP5 PUSH2 0xA86 JUMP JUMPDEST SWAP5 SWAP4 POP POP POP POP JUMP JUMPDEST PUSH1 0x0 DUP2 ISZERO ISZERO SWAP1 POP SWAP2 SWAP1 POP JUMP JUMPDEST PUSH2 0xD72 DUP2 PUSH2 0xD5D JUMP JUMPDEST DUP2 EQ PUSH2 0xD7D JUMPI PUSH1 0x0 DUP1 REVERT JUMPDEST POP JUMP JUMPDEST PUSH1 0x0 DUP2 MLOAD SWAP1 POP PUSH2 0xD8F DUP2 PUSH2 0xD69 JUMP JUMPDEST SWAP3 SWAP2 POP POP JUMP JUMPDEST PUSH1 0x0 PUSH1 0x20 DUP3 DUP5 SUB SLT ISZERO PUSH2 0xDAB JUMPI PUSH2 0xDAA PUSH2 0xA06 JUMP JUMPDEST JUMPDEST PUSH1 0x0 PUSH2 0xDB9 DUP5 DUP3 DUP6 ADD PUSH2 0xD80 JUMP JUMPDEST SWAP2 POP POP SWAP3 SWAP2 POP POP JUMP JUMPDEST PUSH1 0x0 PUSH1 0x40 DUP3 ADD SWAP1 POP PUSH2 0xDD7 PUSH1 0x0 DUP4 ADD DUP6 PUSH2 0xD17 JUMP JUMPDEST PUSH2 0xDE4 PUSH1 0x20 DUP4 ADD DUP5 PUSH2 0xD17 JUMP JUMPDEST SWAP4 SWAP3 POP POP POP JUMP JUMPDEST PUSH1 0x0 DUP2 MLOAD SWAP1 POP PUSH2 0xDFA DUP2 PUSH2 0xAE2 JUMP JUMPDEST SWAP3 SWAP2 POP POP JUMP JUMPDEST PUSH1 0x0 PUSH1 0x20 DUP3 DUP5 SUB SLT ISZERO PUSH2 0xE16 JUMPI PUSH2 0xE15 PUSH2 0xA06 JUMP JUMPDEST JUMPDEST PUSH1 0x0 PUSH2 0xE24 DUP5 DUP3 DUP6 ADD PUSH2 0xDEB JUMP JUMPDEST SWAP2 POP POP SWAP3 SWAP2 POP POP JUMP JUMPDEST PUSH1 0x0 PUSH14 0xFFFFFFFFFFFFFFFFFFFFFFFFFFFF DUP3 AND SWAP1 POP SWAP2 SWAP1 POP JUMP JUMPDEST PUSH2 0xE50 DUP2 PUSH2 0xE2D JUMP JUMPDEST DUP2 EQ PUSH2 0xE5B JUMPI PUSH1 0x0 DUP1 REVERT JUMPDEST POP JUMP JUMPDEST PUSH1 0x0 DUP2 MLOAD SWAP1 POP PUSH2 0xE6D DUP2 PUSH2 0xE47 JUMP JUMPDEST SWAP3 SWAP2 POP POP JUMP JUMPDEST PUSH1 0x0 PUSH4 0xFFFFFFFF DUP3 AND SWAP1 POP SWAP2 SWAP1 POP JUMP JUMPDEST PUSH2 0xE8C DUP2 PUSH2 0xE73 JUMP JUMPDEST DUP2 EQ PUSH2 0xE97 JUMPI PUSH1 0x0 DUP1 REVERT JUMPDEST POP JUMP JUMPDEST PUSH1 0x0 DUP2 MLOAD SWAP1 POP PUSH2 0xEA9 DUP2 PUSH2 0xE83 JUMP JUMPDEST SWAP3 SWAP2 POP POP JUMP JUMPDEST PUSH1 0x0 DUP1 PUSH1 0x0 PUSH1 0x60 DUP5 DUP7 SUB SLT ISZERO PUSH2 0xEC8 JUMPI PUSH2 0xEC7 PUSH2 0xA06 JUMP JUMPDEST JUMPDEST PUSH1 0x0 PUSH2 0xED6 DUP7 DUP3 DUP8 ADD PUSH2 0xE5E JUMP JUMPDEST SWAP4 POP POP PUSH1 0x20 PUSH2 0xEE7 DUP7 DUP3 DUP8 ADD PUSH2 0xE5E JUMP JUMPDEST SWAP3 POP POP PUSH1 0x40 PUSH2 0xEF8 DUP7 DUP3 DUP8 ADD PUSH2 0xE9A JUMP JUMPDEST SWAP2 POP POP SWAP3 POP SWAP3 POP SWAP3 JUMP JUMPDEST PUSH1 0x0 PUSH1 0x40 DUP3 ADD SWAP1 POP PUSH2 0xF17 PUSH1 0x0 DUP4 ADD DUP6 PUSH2 0xD17 JUMP JUMPDEST PUSH2 0xF24 PUSH1 0x20 DUP4 ADD DUP5 PUSH2 0xA86 JUMP JUMPDEST SWAP4 SWAP3 POP POP POP JUMP JUMPDEST PUSH32 0x4E487B7100000000000000000000000000000000000000000000000000000000 PUSH1 0x0 MSTORE PUSH1 0x41 PUSH1 0x4 MSTORE PUSH1 0x24 PUSH1 0x0 REVERT JUMPDEST PUSH32 0x4E487B7100000000000000000000000000000000000000000000000000000000 PUSH1 0x0 MSTORE PUSH1 0x32 PUSH1 0x4 MSTORE PUSH1 0x24 PUSH1 0x0 REVERT JUMPDEST PUSH1 0x0 DUP2 SWAP1 POP SWAP2 SWAP1 POP JUMP JUMPDEST PUSH1 0x0 DUP2 SWAP1 POP SWAP2 SWAP1 POP JUMP JUMPDEST PUSH1 0x0 PUSH2 0xFB8 PUSH2 0xFB3 PUSH2 0xFAE DUP5 PUSH2 0xF89 JUMP JUMPDEST PUSH2 0xF93 JUMP JUMPDEST PUSH2 0xA10 JUMP JUMPDEST SWAP1 POP SWAP2 SWAP1 POP JUMP JUMPDEST PUSH2 0xFC8 DUP2 PUSH2 0xF9D JUMP JUMPDEST DUP3 MSTORE POP POP JUMP JUMPDEST PUSH1 0x0 DUP2 MLOAD SWAP1 POP SWAP2 SWAP1 POP JUMP JUMPDEST PUSH1 0x0 DUP3 DUP3 MSTORE PUSH1 0x20 DUP3 ADD SWAP1 POP SWAP3 SWAP2 POP POP JUMP JUMPDEST PUSH1 0x0 DUP2 SWAP1 POP PUSH1 0x20 DUP3 ADD SWAP1 POP SWAP2 SWAP1 POP JUMP JUMPDEST PUSH2 0x1003 DUP2 PUSH2 0xAD0 JUMP JUMPDEST DUP3 MSTORE POP POP JUMP JUMPDEST PUSH1 0x0 PUSH2 0x1015 DUP4 DUP4 PUSH2 0xFFA JUMP JUMPDEST PUSH1 0x20 DUP4 ADD SWAP1 POP SWAP3 SWAP2 POP POP JUMP JUMPDEST PUSH1 0x0 PUSH1 0x20 DUP3 ADD SWAP1 POP SWAP2 SWAP1 POP JUMP JUMPDEST PUSH1 0x0 PUSH2 0x1039 DUP3 PUSH2 0xFCE JUMP JUMPDEST PUSH2 0x1043 DUP2 DUP6 PUSH2 0xFD9 JUMP JUMPDEST SWAP4 POP PUSH2 0x104E DUP4 PUSH2 0xFEA JUMP JUMPDEST DUP1 PUSH1 0x0 JUMPDEST DUP4 DUP2 LT ISZERO PUSH2 0x107F JUMPI DUP2 MLOAD PUSH2 0x1066 DUP9 DUP3 PUSH2 0x1009 JUMP JUMPDEST SWAP8 POP PUSH2 0x1071 DUP4 PUSH2 0x1021 JUMP JUMPDEST SWAP3 POP POP PUSH1 0x1 DUP2 ADD SWAP1 POP PUSH2 0x1052 JUMP JUMPDEST POP DUP6 SWAP4 POP POP POP POP SWAP3 SWAP2 POP POP JUMP JUMPDEST PUSH1 0x0 PUSH1 0xA0 DUP3 ADD SWAP1 POP PUSH2 0x10A1 PUSH1 0x0 DUP4 ADD DUP9 PUSH2 0xA86 JUMP JUMPDEST PUSH2 0x10AE PUSH1 0x20 DUP4 ADD DUP8 PUSH2 0xFBF JUMP JUMPDEST DUP2 DUP2 SUB PUSH1 0x40 DUP4 ADD MSTORE PUSH2 0x10C0 DUP2 DUP7 PUSH2 0x102E JUMP JUMPDEST SWAP1 POP PUSH2 0x10CF PUSH1 0x60 DUP4 ADD DUP6 PUSH2 0xD17 JUMP JUMPDEST PUSH2 0x10DC PUSH1 0x80 DUP4 ADD DUP5 PUSH2 0xA86 JUMP JUMPDEST SWAP7 SWAP6 POP POP POP POP POP POP JUMP JUMPDEST PUSH1 0x0 DUP1 REVERT JUMPDEST PUSH1 0x0 PUSH1 0x1F NOT PUSH1 0x1F DUP4 ADD AND SWAP1 POP SWAP2 SWAP1 POP JUMP JUMPDEST PUSH2 0x1105 DUP3 PUSH2 0x10EB JUMP JUMPDEST DUP2 ADD DUP2 DUP2 LT PUSH8 0xFFFFFFFFFFFFFFFF DUP3 GT OR ISZERO PUSH2 0x1124 JUMPI PUSH2 0x1123 PUSH2 0xF2B JUMP JUMPDEST JUMPDEST DUP1 PUSH1 0x40 MSTORE POP POP POP JUMP JUMPDEST PUSH1 0x0 PUSH2 0x1137 PUSH2 0x9FC JUMP JUMPDEST SWAP1 POP PUSH2 0x1143 DUP3 DUP3 PUSH2 0x10FC JUMP JUMPDEST SWAP2 SWAP1 POP JUMP JUMPDEST PUSH1 0x0 PUSH8 0xFFFFFFFFFFFFFFFF DUP3 GT ISZERO PUSH2 0x1163 JUMPI PUSH2 0x1162 PUSH2 0xF2B JUMP JUMPDEST JUMPDEST PUSH1 0x20 DUP3 MUL SWAP1 POP PUSH1 0x20 DUP2 ADD SWAP1 POP SWAP2 SWAP1 POP JUMP JUMPDEST PUSH1 0x0 DUP1 REVERT JUMPDEST PUSH1 0x0 DUP2 MLOAD SWAP1 POP PUSH2 0x1188 DUP2 PUSH2 0xA1A JUMP JUMPDEST SWAP3 SWAP2 POP POP JUMP JUMPDEST PUSH1 0x0 PUSH2 0x11A1 PUSH2 0x119C DUP5 PUSH2 0x1148 JUMP JUMPDEST PUSH2 0x112D JUMP JUMPDEST SWAP1 POP DUP1 DUP4 DUP3 MSTORE PUSH1 0x20 DUP3 ADD SWAP1 POP PUSH1 0x20 DUP5 MUL DUP4 ADD DUP6 DUP2 GT ISZERO PUSH2 0x11C4 JUMPI PUSH2 0x11C3 PUSH2 0x1174 JUMP JUMPDEST JUMPDEST DUP4 JUMPDEST DUP2 DUP2 LT ISZERO PUSH2 0x11ED JUMPI DUP1 PUSH2 0x11D9 DUP9 DUP3 PUSH2 0x1179 JUMP JUMPDEST DUP5 MSTORE PUSH1 0x20 DUP5 ADD SWAP4 POP POP PUSH1 0x20 DUP2 ADD SWAP1 POP PUSH2 0x11C6 JUMP JUMPDEST POP POP POP SWAP4 SWAP3 POP POP POP JUMP JUMPDEST PUSH1 0x0 DUP3 PUSH1 0x1F DUP4 ADD SLT PUSH2 0x120C JUMPI PUSH2 0x120B PUSH2 0x10E6 JUMP JUMPDEST JUMPDEST DUP2 MLOAD PUSH2 0x121C DUP5 DUP3 PUSH1 0x20 DUP7 ADD PUSH2 0x118E JUMP JUMPDEST SWAP2 POP POP SWAP3 SWAP2 POP POP JUMP JUMPDEST PUSH1 0x0 PUSH1 0x20 DUP3 DUP5 SUB SLT ISZERO PUSH2 0x123B JUMPI PUSH2 0x123A PUSH2 0xA06 JUMP JUMPDEST JUMPDEST PUSH1 0x0 DUP3 ADD MLOAD PUSH8 0xFFFFFFFFFFFFFFFF DUP2 GT ISZERO PUSH2 0x1259 JUMPI PUSH2 0x1258 PUSH2 0xA0B JUMP JUMPDEST JUMPDEST PUSH2 0x1265 DUP5 DUP3 DUP6 ADD PUSH2 0x11F7 JUMP JUMPDEST SWAP2 POP POP SWAP3 SWAP2 POP POP JUMP JUMPDEST PUSH1 0x0 PUSH1 0x20 DUP3 ADD SWAP1 POP PUSH2 0x1283 PUSH1 0x0 DUP4 ADD DUP5 PUSH2 0xD17 JUMP JUMPDEST SWAP3 SWAP2 POP POP JUMP JUMPDEST PUSH1 0x0 PUSH1 0x20 DUP3 DUP5 SUB SLT ISZERO PUSH2 0x129F JUMPI PUSH2 0x129E PUSH2 0xA06 JUMP JUMPDEST JUMPDEST PUSH1 0x0 PUSH2 0x12AD DUP5 DUP3 DUP6 ADD PUSH2 0x1179 JUMP JUMPDEST SWAP2 POP POP SWAP3 SWAP2 POP POP JUMP JUMPDEST PUSH1 0x0 DUP2 SWAP1 POP SWAP2 SWAP1 POP JUMP JUMPDEST PUSH1 0x0 PUSH2 0x12DB PUSH2 0x12D6 PUSH2 0x12D1 DUP5 PUSH2 0x12B6 JUMP JUMPDEST PUSH2 0xF93 JUMP JUMPDEST PUSH2 0xA10 JUMP JUMPDEST SWAP1 POP SWAP2 SWAP1 POP JUMP JUMPDEST PUSH2 0x12EB DUP2 PUSH2 0x12C0 JUMP JUMPDEST DUP3 MSTORE POP POP JUMP JUMPDEST PUSH1 0x0 PUSH2 0x100 DUP3 ADD SWAP1 POP PUSH2 0x1307 PUSH1 0x0 DUP4 ADD DUP12 PUSH2 0xD17 JUMP JUMPDEST PUSH2 0x1314 PUSH1 0x20 DUP4 ADD DUP11 PUSH2 0xD17 JUMP JUMPDEST PUSH2 0x1321 PUSH1 0x40 DUP4 ADD DUP10 PUSH2 0xA86 JUMP JUMPDEST PUSH2 0x132E PUSH1 0x60 DUP4 ADD DUP9 PUSH2 0xA86 JUMP JUMPDEST PUSH2 0x133B PUSH1 0x80 DUP4 ADD DUP8 PUSH2 0x12E2 JUMP JUMPDEST PUSH2 0x1348 PUSH1 0xA0 DUP4 ADD DUP7 PUSH2 0x12E2 JUMP JUMPDEST PUSH2 0x1355 PUSH1 0xC0 DUP4 ADD DUP6 PUSH2 0xD17 JUMP JUMPDEST PUSH2 0x1362 PUSH1 0xE0 DUP4 ADD DUP5 PUSH2 0xA86 JUMP JUMPDEST SWAP10 SWAP9 POP POP POP POP POP POP POP POP POP JUMP JUMPDEST PUSH1 0x0 DUP1 PUSH1 0x0 PUSH1 0x60 DUP5 DUP7 SUB SLT ISZERO PUSH2 0x1388 JUMPI PUSH2 0x1387 PUSH2 0xA06 JUMP JUMPDEST JUMPDEST PUSH1 0x0 PUSH2 0x1396 DUP7 DUP3 DUP8 ADD PUSH2 0x1179 JUMP JUMPDEST SWAP4 POP POP PUSH1 0x20 PUSH2 0x13A7 DUP7 DUP3 DUP8 ADD PUSH2 0x1179 JUMP JUMPDEST SWAP3 POP POP PUSH1 0x40 PUSH2 0x13B8 DUP7 DUP3 DUP8 ADD PUSH2 0x1179 JUMP JUMPDEST SWAP2 POP POP SWAP3 POP SWAP3 POP SWAP3 JUMP INVALID LOG2 PUSH5 0x6970667358 0x22 SLT KECCAK256 DUP10 LOG0 0xC0 0xC9 DUP12 NUMBER CALLCODE CALLER PUSH24 0x97A0205E7E0449E3CA1A935D6714FA0FA93BB682D46BB564 PUSH20 0x6F6C634300081100330000000000000000000000 "
		},
		"gasEstimates": {
			"creation": {
				"codeDepositCost": "1022400",
				"executionCost": "1061",
				"totalCost": "1023461"
			},
			"external": {
				"getSwapAmount(uint256,uint256)": "infinite",
				"zap(address,address,uint256)": "infinite"
			},
			"internal": {
				"_addLiquidity(address,address)": "infinite",
				"_swap(address,address,uint256)": "infinite",
				"sqrt(uint256)": "infinite"
			}
		},
		"methodIdentifiers": {
			"getSwapAmount(uint256,uint256)": "368519f3",
			"zap(address,address,uint256)": "47ce3e69"
		}
	},
	"abi": [
		{
			"inputs": [
				{
					"internalType": "uint256",
					"name": "r",
					"type": "uint256"
				},
				{
					"internalType": "uint256",
					"name": "a",
					"type": "uint256"
				}
			],
			"name": "getSwapAmount",
			"outputs": [
				{
					"internalType": "uint256",
					"name": "",
					"type": "uint256"
				}
			],
			"stateMutability": "pure",
			"type": "function"
		},
		{
			"inputs": [
				{
					"internalType": "address",
					"name": "_tokenA",
					"type": "address"
				},
				{
					"internalType": "address",
					"name": "_tokenB",
					"type": "address"
				},
				{
					"internalType": "uint256",
					"name": "_amountA",
					"type": "uint256"
				}
			],
			"name": "zap",
			"outputs": [],
			"stateMutability": "nonpayable",
			"type": "function"
		}
	]
}