{
	"data": {
		"bytecode": {
			"linkReferences": {},
			"object": "60806040526040518060600160405280600164ffffffffff16815260200164e8d4a5100064ffffffffff16815260200164e8d4a5100064ffffffffff1681525060039060036200005192919062000066565b503480156200005f57600080fd5b50620000d3565b8260038101928215620000a1579160200282015b82811115620000a0578251829064ffffffffff169055916020019190600101906200007a565b5b509050620000b09190620000b4565b5090565b5b80821115620000cf576000816000905550600101620000b5565b5090565b61222480620000e36000396000f3fe608060405234801561001057600080fd5b506004361061009e5760003560e01c806370a082311161006657806370a0823114610181578063a4bf0446146101b1578063a60dc3b1146101e1578063d035862c14610212578063e25aa5fa146102425761009e565b806318160ddd146100a35780634903b0d1146100c15780634f64b2be146100f15780635673b02d146101215780637066b5b214610151575b600080fd5b6100ab610260565b6040516100b89190611738565b60405180910390f35b6100db60048036038101906100d69190611784565b610266565b6040516100e89190611738565b60405180910390f35b61010b60048036038101906101069190611784565b610281565b60405161011891906117f2565b60405180910390f35b61013b6004803603810190610136919061180d565b6102b7565b6040516101489190611738565b60405180910390f35b61016b60048036038101906101669190611874565b6105f4565b6040516101789190611738565b60405180910390f35b61019b600480360381019061019691906118f3565b610739565b6040516101a89190611738565b60405180910390f35b6101cb60048036038101906101c69190611947565b610751565b6040516101d89190611738565b60405180910390f35b6101fb60048036038101906101f69190611987565b610b61565b6040516102099291906119c7565b60405180910390f35b61022c600480360381019061022791906119f0565b610b79565b6040516102399190611adb565b60405180910390f35b61024a610d3f565b6040516102579190611738565b60405180910390f35b60095481565b6006816003811061027657600080fd5b016000915090505481565b6000816003811061029157600080fd5b016000915054906101000a900473ffffffffffffffffffffffffffffffffffffffff1681565b60008385036102fb576040517f08c379a00000000000000000000000000000000000000000000000000000000081526004016102f290611b53565b60405180910390fd5b6000856003811061030f5761030e611b73565b5b0160009054906101000a900473ffffffffffffffffffffffffffffffffffffffff1673ffffffffffffffffffffffffffffffffffffffff166323b872dd3330866040518463ffffffff1660e01b815260040161036d93929190611ba2565b6020604051808303816000875af115801561038c573d6000803e3d6000fd5b505050506040513d601f19601f820116820180604052508101906103b09190611c11565b5060006103bb610d9b565b90506000600387600381106103d3576103d2611b73565b5b0154856103e09190611c6d565b8288600381106103f3576103f2611b73565b5b60200201516104029190611caf565b9050600082876003811061041957610418611b73565b5b60200201519050600061042e89898587610e16565b90506003886003811061044457610443611b73565b5b0154600182846104549190611ce3565b61045e9190611ce3565b6104689190611d46565b94506000620f424061012c8761047e9190611c6d565b6104889190611d46565b905080866104969190611ce3565b9550868610156104db576040517f08c379a00000000000000000000000000000000000000000000000000000000081526004016104d290611dc3565b60405180910390fd5b8760068b600381106104f0576104ef611b73565b5b0160008282546105009190611caf565b925050819055508560068a6003811061051c5761051b611b73565b5b01600082825461052c9190611ce3565b925050819055506000896003811061054757610546611b73565b5b0160009054906101000a900473ffffffffffffffffffffffffffffffffffffffff1673ffffffffffffffffffffffffffffffffffffffff1663a9059cbb33886040518363ffffffff1660e01b81526004016105a3929190611de3565b6020604051808303816000875af11580156105c2573d6000803e3d6000fd5b505050506040513d601f19601f820116820180604052508101906105e69190611c11565b505050505050949350505050565b60006106008484610ff8565b508091505081811015610648576040517f08c379a000000000000000000000000000000000000000000000000000000000815260040161063f90611e58565b60405180910390fd5b806006846003811061065d5761065c611b73565b5b01600082825461066d9190611ce3565b9250508190555061067e3385611244565b6000836003811061069257610691611b73565b5b0160009054906101000a900473ffffffffffffffffffffffffffffffffffffffff1673ffffffffffffffffffffffffffffffffffffffff1663a9059cbb33836040518363ffffffff1660e01b81526004016106ee929190611de3565b6020604051808303816000875af115801561070d573d6000803e3d6000fd5b505050506040513d601f19601f820116820180604052508101906107319190611c11565b509392505050565b600a6020528060005260406000206000915090505481565b6000806009549050600080610764610d9b565b9050600083111561077b57610778816112b7565b91505b6107836116fd565b60005b60038110156109155760008882600381106107a4576107a3611b73565b5b6020020135905060008111156108ce57600082600381106107c8576107c7611b73565b5b0160009054906101000a900473ffffffffffffffffffffffffffffffffffffffff1673ffffffffffffffffffffffffffffffffffffffff166323b872dd3330846040518463ffffffff1660e01b815260040161082693929190611ba2565b6020604051808303816000875af1158015610845573d6000803e3d6000fd5b505050506040513d601f19601f820116820180604052508101906108699190611c11565b506003826003811061087e5761087d611b73565b5b01548161088b9190611c6d565b84836003811061089e5761089d611b73565b5b60200201516108ad9190611caf565b8383600381106108c0576108bf611b73565b5b602002018181525050610903565b8382600381106108e1576108e0611b73565b5b60200201518383600381106108f9576108f8611b73565b5b6020020181815250505b508061090e90611e78565b9050610786565b506000610921826112b7565b9050838111610965576040517f08c379a000000000000000000000000000000000000000000000000000000000815260040161095c90611f0c565b60405180910390fd5b600080861115610a6d5760005b6003811015610a5c576000868487846003811061099257610991611b73565b5b60200201516109a19190611c6d565b6109ab9190611d46565b905060006109d08684600381106109c5576109c4611b73565b5b60200201518361148e565b9050620f424081600160036109e59190611ce3565b60046109f19190611c6d565b600361012c610a009190611c6d565b610a0a9190611d46565b610a149190611c6d565b610a1e9190611d46565b868460038110610a3157610a30611b73565b5b60200201818151610a429190611ce3565b91508181525050505080610a5590611e78565b9050610972565b50610a66836112b7565b9050610a71565b8190505b60005b6003811015610ad157898160038110610a9057610a8f611b73565b5b602002013560068260038110610aa957610aa8611b73565b5b016000828254610ab99190611caf565b9250508190555080610aca90611e78565b9050610a74565b506000861115610b045784868683610ae99190611ce3565b610af39190611c6d565b610afd9190611d46565b9650610b08565b8096505b87871015610b4b576040517f08c379a0000000000000000000000000000000000000000000000000000000008152600401610b4290611f78565b60405180910390fd5b610b5533886114be565b50505050505092915050565b600080610b6e8484610ff8565b915091509250929050565b610b816116fd565b6000600954905060005b6003811015610d2d576000828660068460038110610bac57610bab611b73565b5b0154610bb89190611c6d565b610bc29190611d46565b9050848260038110610bd757610bd6611b73565b5b6020020135811015610c1e576040517f08c379a0000000000000000000000000000000000000000000000000000000008152600401610c1590611e58565b60405180910390fd5b8060068360038110610c3357610c32611b73565b5b016000828254610c439190611ce3565b9250508190555080848360038110610c5e57610c5d611b73565b5b60200201818152505060008260038110610c7b57610c7a611b73565b5b0160009054906101000a900473ffffffffffffffffffffffffffffffffffffffff1673ffffffffffffffffffffffffffffffffffffffff1663a9059cbb33836040518363ffffffff1660e01b8152600401610cd7929190611de3565b6020604051808303816000875af1158015610cf6573d6000803e3d6000fd5b505050506040513d601f19601f82011682018060405250810190610d1a9190611c11565b505080610d2690611e78565b9050610b8b565b50610d383385611244565b5092915050565b600080610d52610d4d610d9b565b6112b7565b9050600060095490506000811115610d9157806012600a610d7391906120cb565b83610d7e9190611c6d565b610d889190611d46565b92505050610d98565b6000925050505b90565b610da36116fd565b60005b6003811015610e125760038160038110610dc357610dc2611b73565b5b015460068260038110610dd957610dd8611b73565b5b0154610de59190611c6d565b828260038110610df857610df7611b73565b5b60200201818152505080610e0b90611e78565b9050610da6565b5090565b600080600360016003610e299190611ce3565b6003610e3591906120cb565b6103e8610e429190611c6d565b610e4c9190611c6d565b90506000610e59846112b7565b90506000808290506000805b6003811015610ee5578a8103610e7d57889150610ea0565b89810315610ed457878160038110610e9857610e97611b73565b5b602002015191505b8184610eac9190611caf565b9350816003610ebb9190611c6d565b8584610ec79190611c6d565b610ed19190611d46565b92505b80610ede90611e78565b9050610e65565b50846003610ef39190611c6d565b8483610eff9190611c6d565b610f099190611d46565b915060008585610f199190611d46565b84610f249190611caf565b905060008086905060005b60ff811015610fb4578192508784836002610f4a9190611c6d565b610f549190611caf565b610f5e9190611ce3565b868384610f6b9190611c6d565b610f759190611caf565b610f7f9190611d46565b91506001610f8d838561148e565b11610fa357819950505050505050505050610ff0565b80610fad90611e78565b9050610f2f565b506040517f08c379a0000000000000000000000000000000000000000000000000000000008152600401610fe790612162565b60405180910390fd5b949350505050565b60008060006009549050600061100c610d9b565b90506000611019826112b7565b9050600083888361102a9190611c6d565b6110349190611d46565b8261103f9190611ce3565b9050600061104e888584611531565b905060006003896003811061106657611065611b73565b5b015482868b6003811061107c5761107b611b73565b5b602002015161108b9190611ce3565b6110959190611d46565b90506000805b60038110156111c6578a81036110eb578386868984600381106110c1576110c0611b73565b5b60200201516110d09190611c6d565b6110da9190611d46565b6110e49190611ce3565b915061113e565b8585888360038110611100576110ff611b73565b5b602002015161110f9190611c6d565b6111199190611d46565b87826003811061112c5761112b611b73565b5b602002015161113b9190611ce3565b91505b620f424082600160036111519190611ce3565b600461115d9190611c6d565b600361012c61116c9190611c6d565b6111769190611d46565b6111809190611c6d565b61118a9190611d46565b87826003811061119d5761119c611b73565b5b602002018181516111ae9190611ce3565b91508181525050806111bf90611e78565b905061109b565b5060006111d48b8887611531565b905060038b600381106111ea576111e9611b73565b5b0154600182898e6003811061120257611201611b73565b5b60200201516112119190611ce3565b61121b9190611ce3565b6112259190611d46565b995089836112339190611ce3565b985050505050505050509250929050565b80600a60008473ffffffffffffffffffffffffffffffffffffffff1673ffffffffffffffffffffffffffffffffffffffff16815260200190815260200160002060008282546112939190611ce3565b9250508190555080600960008282546112ac9190611ce3565b925050819055505050565b6000806003600160036112ca9190611ce3565b60036112d691906120cb565b6103e86112e39190611c6d565b6112ed9190611c6d565b90506000805b60038110156113325784816003811061130f5761130e611b73565b5b60200201518261131f9190611caf565b91508061132b90611e78565b90506112f3565b5060008190506000805b60ff81101561144d57600083905060005b60038110156113a35788816003811061136957611368611b73565b5b6020020151600361137a9190611c6d565b85836113869190611c6d565b6113909190611d46565b91508061139c90611e78565b905061134d565b5083925080600160036113b69190611caf565b6113c09190611c6d565b846001886113ce9190611ce3565b6113d89190611c6d565b6113e29190611caf565b848260036113f09190611c6d565b87896113fc9190611c6d565b6114069190611caf565b6114109190611c6d565b61141a9190611d46565b93506001611428858561148e565b1161143b57839650505050505050611489565b508061144690611e78565b905061133c565b506040517f08c379a0000000000000000000000000000000000000000000000000000000008152600401611480906121ce565b60405180910390fd5b919050565b6000818310156114a95782826114a49190611ce3565b6114b6565b81836114b59190611ce3565b5b905092915050565b80600a60008473ffffffffffffffffffffffffffffffffffffffff1673ffffffffffffffffffffffffffffffffffffffff168152602001908152602001600020600082825461150d9190611caf565b9250508190555080600960008282546115269190611caf565b925050819055505050565b6000806003600160036115449190611ce3565b600361155091906120cb565b6103e861155d9190611c6d565b6115679190611c6d565b90506000808490506000805b60038110156115ec578881146115a25787816003811061159657611595611b73565b5b602002015191506115a7565b6115db565b81846115b39190611caf565b93508160036115c29190611c6d565b87846115ce9190611c6d565b6115d89190611d46565b92505b806115e590611e78565b9050611573565b508360036115fa9190611c6d565b86836116069190611c6d565b6116109190611d46565b9150600084876116209190611d46565b8461162b9190611caf565b905060008088905060005b60ff8110156116ba5781925089848360026116519190611c6d565b61165b9190611caf565b6116659190611ce3565b8683846116729190611c6d565b61167c9190611caf565b6116869190611d46565b91506001611694838561148e565b116116a95781985050505050505050506116f6565b806116b390611e78565b9050611636565b506040517f08c379a00000000000000000000000000000000000000000000000000000000081526004016116ed90612162565b60405180910390fd5b9392505050565b6040518060600160405280600390602082028036833780820191505090505090565b6000819050919050565b6117328161171f565b82525050565b600060208201905061174d6000830184611729565b92915050565b600080fd5b6117618161171f565b811461176c57600080fd5b50565b60008135905061177e81611758565b92915050565b60006020828403121561179a57611799611753565b5b60006117a88482850161176f565b91505092915050565b600073ffffffffffffffffffffffffffffffffffffffff82169050919050565b60006117dc826117b1565b9050919050565b6117ec816117d1565b82525050565b600060208201905061180760008301846117e3565b92915050565b6000806000806080858703121561182757611826611753565b5b60006118358782880161176f565b94505060206118468782880161176f565b93505060406118578782880161176f565b92505060606118688782880161176f565b91505092959194509250565b60008060006060848603121561188d5761188c611753565b5b600061189b8682870161176f565b93505060206118ac8682870161176f565b92505060406118bd8682870161176f565b9150509250925092565b6118d0816117d1565b81146118db57600080fd5b50565b6000813590506118ed816118c7565b92915050565b60006020828403121561190957611908611753565b5b6000611917848285016118de565b91505092915050565b600080fd5b60008190508260206003028201111561194157611940611920565b5b92915050565b6000806080838503121561195e5761195d611753565b5b600061196c85828601611925565b925050606061197d8582860161176f565b9150509250929050565b6000806040838503121561199e5761199d611753565b5b60006119ac8582860161176f565b92505060206119bd8582860161176f565b9150509250929050565b60006040820190506119dc6000830185611729565b6119e96020830184611729565b9392505050565b60008060808385031215611a0757611a06611753565b5b6000611a158582860161176f565b9250506020611a2685828601611925565b9150509250929050565b600060039050919050565b600081905092915050565b6000819050919050565b611a598161171f565b82525050565b6000611a6b8383611a50565b60208301905092915050565b6000602082019050919050565b611a8d81611a30565b611a978184611a3b565b9250611aa282611a46565b8060005b83811015611ad3578151611aba8782611a5f565b9650611ac583611a77565b925050600181019050611aa6565b505050505050565b6000606082019050611af06000830184611a84565b92915050565b600082825260208201905092915050565b7f69203d206a000000000000000000000000000000000000000000000000000000600082015250565b6000611b3d600583611af6565b9150611b4882611b07565b602082019050919050565b60006020820190508181036000830152611b6c81611b30565b9050919050565b7f4e487b7100000000000000000000000000000000000000000000000000000000600052603260045260246000fd5b6000606082019050611bb760008301866117e3565b611bc460208301856117e3565b611bd16040830184611729565b949350505050565b60008115159050919050565b611bee81611bd9565b8114611bf957600080fd5b50565b600081519050611c0b81611be5565b92915050565b600060208284031215611c2757611c26611753565b5b6000611c3584828501611bfc565b91505092915050565b7f4e487b7100000000000000000000000000000000000000000000000000000000600052601160045260246000fd5b6000611c788261171f565b9150611c838361171f565b9250828202611c918161171f565b91508282048414831517611ca857611ca7611c3e565b5b5092915050565b6000611cba8261171f565b9150611cc58361171f565b9250828201905080821115611cdd57611cdc611c3e565b5b92915050565b6000611cee8261171f565b9150611cf98361171f565b9250828203905081811115611d1157611d10611c3e565b5b92915050565b7f4e487b7100000000000000000000000000000000000000000000000000000000600052601260045260246000fd5b6000611d518261171f565b9150611d5c8361171f565b925082611d6c57611d6b611d17565b5b828204905092915050565b7f6479203c206d696e000000000000000000000000000000000000000000000000600082015250565b6000611dad600883611af6565b9150611db882611d77565b602082019050919050565b60006020820190508181036000830152611ddc81611da0565b9050919050565b6000604082019050611df860008301856117e3565b611e056020830184611729565b9392505050565b7f6f7574203c206d696e0000000000000000000000000000000000000000000000600082015250565b6000611e42600983611af6565b9150611e4d82611e0c565b602082019050919050565b60006020820190508181036000830152611e7181611e35565b9050919050565b6000611e838261171f565b91507fffffffffffffffffffffffffffffffffffffffffffffffffffffffffffffffff8203611eb557611eb4611c3e565b5b600182019050919050565b7f6c6971756964697479206469646e277420696e63726561736500000000000000600082015250565b6000611ef6601983611af6565b9150611f0182611ec0565b602082019050919050565b60006020820190508181036000830152611f2581611ee9565b9050919050565b7f736861726573203c206d696e0000000000000000000000000000000000000000600082015250565b6000611f62600c83611af6565b9150611f6d82611f2c565b602082019050919050565b60006020820190508181036000830152611f9181611f55565b9050919050565b60008160011c9050919050565b6000808291508390505b6001851115611fef57808604811115611fcb57611fca611c3e565b5b6001851615611fda5780820291505b8081029050611fe885611f98565b9450611faf565b94509492505050565b60008261200857600190506120c4565b8161201657600090506120c4565b816001811461202c576002811461203657612065565b60019150506120c4565b60ff84111561204857612047611c3e565b5b8360020a91508482111561205f5761205e611c3e565b5b506120c4565b5060208310610133831016604e8410600b841016171561209a5782820a90508381111561209557612094611c3e565b5b6120c4565b6120a78484846001611fa5565b925090508184048111156120be576120bd611c3e565b5b81810290505b9392505050565b60006120d68261171f565b91506120e18361171f565b925061210e7fffffffffffffffffffffffffffffffffffffffffffffffffffffffffffffffff8484611ff8565b905092915050565b7f79206469646e277420636f6e7665726765000000000000000000000000000000600082015250565b600061214c601183611af6565b915061215782612116565b602082019050919050565b6000602082019050818103600083015261217b8161213f565b9050919050565b7f44206469646e277420636f6e7665726765000000000000000000000000000000600082015250565b60006121b8601183611af6565b91506121c382612182565b602082019050919050565b600060208201905081810360008301526121e7816121ab565b905091905056fea2646970667358221220344626e5fd1c182c9325dfce1cbf4aaba2b4d865caa9f7b886c8aba366565e0e64736f6c63430008110033",
			"opcodes": "PUSH1 0x80 PUSH1 0x40 MSTORE PUSH1 0x40 MLOAD DUP1 PUSH1 0x60 ADD PUSH1 0x40 MSTORE DUP1 PUSH1 0x1 PUSH5 0xFFFFFFFFFF AND DUP2 MSTORE PUSH1 0x20 ADD PUSH5 0xE8D4A51000 PUSH5 0xFFFFFFFFFF AND DUP2 MSTORE PUSH1 0x20 ADD PUSH5 0xE8D4A51000 PUSH5 0xFFFFFFFFFF AND DUP2 MSTORE POP PUSH1 0x3 SWAP1 PUSH1 0x3 PUSH3 0x51 SWAP3 SWAP2 SWAP1 PUSH3 0x66 JUMP JUMPDEST POP CALLVALUE DUP1 ISZERO PUSH3 0x5F JUMPI PUSH1 0x0 DUP1 REVERT JUMPDEST POP PUSH3 0xD3 JUMP JUMPDEST DUP3 PUSH1 0x3 DUP2 ADD SWAP3 DUP3 ISZERO PUSH3 0xA1 JUMPI SWAP2 PUSH1 0x20 MUL DUP3 ADD JUMPDEST DUP3 DUP2 GT ISZERO PUSH3 0xA0 JUMPI DUP3 MLOAD DUP3 SWAP1 PUSH5 0xFFFFFFFFFF AND SWAP1 SSTORE SWAP2 PUSH1 0x20 ADD SWAP2 SWAP1 PUSH1 0x1 ADD SWAP1 PUSH3 0x7A JUMP JUMPDEST JUMPDEST POP SWAP1 POP PUSH3 0xB0 SWAP2 SWAP1 PUSH3 0xB4 JUMP JUMPDEST POP SWAP1 JUMP JUMPDEST JUMPDEST DUP1 DUP3 GT ISZERO PUSH3 0xCF JUMPI PUSH1 0x0 DUP2 PUSH1 0x0 SWAP1 SSTORE POP PUSH1 0x1 ADD PUSH3 0xB5 JUMP JUMPDEST POP SWAP1 JUMP JUMPDEST PUSH2 0x2224 DUP1 PUSH3 0xE3 PUSH1 0x0 CODECOPY PUSH1 0x0 RETURN INVALID PUSH1 0x80 PUSH1 0x40 MSTORE CALLVALUE DUP1 ISZERO PUSH2 0x10 JUMPI PUSH1 0x0 DUP1 REVERT JUMPDEST POP PUSH1 0x4 CALLDATASIZE LT PUSH2 0x9E JUMPI PUSH1 0x0 CALLDATALOAD PUSH1 0xE0 SHR DUP1 PUSH4 0x70A08231 GT PUSH2 0x66 JUMPI DUP1 PUSH4 0x70A08231 EQ PUSH2 0x181 JUMPI DUP1 PUSH4 0xA4BF0446 EQ PUSH2 0x1B1 JUMPI DUP1 PUSH4 0xA60DC3B1 EQ PUSH2 0x1E1 JUMPI DUP1 PUSH4 0xD035862C EQ PUSH2 0x212 JUMPI DUP1 PUSH4 0xE25AA5FA EQ PUSH2 0x242 JUMPI PUSH2 0x9E JUMP JUMPDEST DUP1 PUSH4 0x18160DDD EQ PUSH2 0xA3 JUMPI DUP1 PUSH4 0x4903B0D1 EQ PUSH2 0xC1 JUMPI DUP1 PUSH4 0x4F64B2BE EQ PUSH2 0xF1 JUMPI DUP1 PUSH4 0x5673B02D EQ PUSH2 0x121 JUMPI DUP1 PUSH4 0x7066B5B2 EQ PUSH2 0x151 JUMPI JUMPDEST PUSH1 0x0 DUP1 REVERT JUMPDEST PUSH2 0xAB PUSH2 0x260 JUMP JUMPDEST PUSH1 0x40 MLOAD PUSH2 0xB8 SWAP2 SWAP1 PUSH2 0x1738 JUMP JUMPDEST PUSH1 0x40 MLOAD DUP1 SWAP2 SUB SWAP1 RETURN JUMPDEST PUSH2 0xDB PUSH1 0x4 DUP1 CALLDATASIZE SUB DUP2 ADD SWAP1 PUSH2 0xD6 SWAP2 SWAP1 PUSH2 0x1784 JUMP JUMPDEST PUSH2 0x266 JUMP JUMPDEST PUSH1 0x40 MLOAD PUSH2 0xE8 SWAP2 SWAP1 PUSH2 0x1738 JUMP JUMPDEST PUSH1 0x40 MLOAD DUP1 SWAP2 SUB SWAP1 RETURN JUMPDEST PUSH2 0x10B PUSH1 0x4 DUP1 CALLDATASIZE SUB DUP2 ADD SWAP1 PUSH2 0x106 SWAP2 SWAP1 PUSH2 0x1784 JUMP JUMPDEST PUSH2 0x281 JUMP JUMPDEST PUSH1 0x40 MLOAD PUSH2 0x118 SWAP2 SWAP1 PUSH2 0x17F2 JUMP JUMPDEST PUSH1 0x40 MLOAD DUP1 SWAP2 SUB SWAP1 RETURN JUMPDEST PUSH2 0x13B PUSH1 0x4 DUP1 CALLDATASIZE SUB DUP2 ADD SWAP1 PUSH2 0x136 SWAP2 SWAP1 PUSH2 0x180D JUMP JUMPDEST PUSH2 0x2B7 JUMP JUMPDEST PUSH1 0x40 MLOAD PUSH2 0x148 SWAP2 SWAP1 PUSH2 0x1738 JUMP JUMPDEST PUSH1 0x40 MLOAD DUP1 SWAP2 SUB SWAP1 RETURN JUMPDEST PUSH2 0x16B PUSH1 0x4 DUP1 CALLDATASIZE SUB DUP2 ADD SWAP1 PUSH2 0x166 SWAP2 SWAP1 PUSH2 0x1874 JUMP JUMPDEST PUSH2 0x5F4 JUMP JUMPDEST PUSH1 0x40 MLOAD PUSH2 0x178 SWAP2 SWAP1 PUSH2 0x1738 JUMP JUMPDEST PUSH1 0x40 MLOAD DUP1 SWAP2 SUB SWAP1 RETURN JUMPDEST PUSH2 0x19B PUSH1 0x4 DUP1 CALLDATASIZE SUB DUP2 ADD SWAP1 PUSH2 0x196 SWAP2 SWAP1 PUSH2 0x18F3 JUMP JUMPDEST PUSH2 0x739 JUMP JUMPDEST PUSH1 0x40 MLOAD PUSH2 0x1A8 SWAP2 SWAP1 PUSH2 0x1738 JUMP JUMPDEST PUSH1 0x40 MLOAD DUP1 SWAP2 SUB SWAP1 RETURN JUMPDEST PUSH2 0x1CB PUSH1 0x4 DUP1 CALLDATASIZE SUB DUP2 ADD SWAP1 PUSH2 0x1C6 SWAP2 SWAP1 PUSH2 0x1947 JUMP JUMPDEST PUSH2 0x751 JUMP JUMPDEST PUSH1 0x40 MLOAD PUSH2 0x1D8 SWAP2 SWAP1 PUSH2 0x1738 JUMP JUMPDEST PUSH1 0x40 MLOAD DUP1 SWAP2 SUB SWAP1 RETURN JUMPDEST PUSH2 0x1FB PUSH1 0x4 DUP1 CALLDATASIZE SUB DUP2 ADD SWAP1 PUSH2 0x1F6 SWAP2 SWAP1 PUSH2 0x1987 JUMP JUMPDEST PUSH2 0xB61 JUMP JUMPDEST PUSH1 0x40 MLOAD PUSH2 0x209 SWAP3 SWAP2 SWAP1 PUSH2 0x19C7 JUMP JUMPDEST PUSH1 0x40 MLOAD DUP1 SWAP2 SUB SWAP1 RETURN JUMPDEST PUSH2 0x22C PUSH1 0x4 DUP1 CALLDATASIZE SUB DUP2 ADD SWAP1 PUSH2 0x227 SWAP2 SWAP1 PUSH2 0x19F0 JUMP JUMPDEST PUSH2 0xB79 JUMP JUMPDEST PUSH1 0x40 MLOAD PUSH2 0x239 SWAP2 SWAP1 PUSH2 0x1ADB JUMP JUMPDEST PUSH1 0x40 MLOAD DUP1 SWAP2 SUB SWAP1 RETURN JUMPDEST PUSH2 0x24A PUSH2 0xD3F JUMP JUMPDEST PUSH1 0x40 MLOAD PUSH2 0x257 SWAP2 SWAP1 PUSH2 0x1738 JUMP JUMPDEST PUSH1 0x40 MLOAD DUP1 SWAP2 SUB SWAP1 RETURN JUMPDEST PUSH1 0x9 SLOAD DUP2 JUMP JUMPDEST PUSH1 0x6 DUP2 PUSH1 0x3 DUP2 LT PUSH2 0x276 JUMPI PUSH1 0x0 DUP1 REVERT JUMPDEST ADD PUSH1 0x0 SWAP2 POP SWAP1 POP SLOAD DUP2 JUMP JUMPDEST PUSH1 0x0 DUP2 PUSH1 0x3 DUP2 LT PUSH2 0x291 JUMPI PUSH1 0x0 DUP1 REVERT JUMPDEST ADD PUSH1 0x0 SWAP2 POP SLOAD SWAP1 PUSH2 0x100 EXP SWAP1 DIV PUSH20 0xFFFFFFFFFFFFFFFFFFFFFFFFFFFFFFFFFFFFFFFF AND DUP2 JUMP JUMPDEST PUSH1 0x0 DUP4 DUP6 SUB PUSH2 0x2FB JUMPI PUSH1 0x40 MLOAD PUSH32 0x8C379A000000000000000000000000000000000000000000000000000000000 DUP2 MSTORE PUSH1 0x4 ADD PUSH2 0x2F2 SWAP1 PUSH2 0x1B53 JUMP JUMPDEST PUSH1 0x40 MLOAD DUP1 SWAP2 SUB SWAP1 REVERT JUMPDEST PUSH1 0x0 DUP6 PUSH1 0x3 DUP2 LT PUSH2 0x30F JUMPI PUSH2 0x30E PUSH2 0x1B73 JUMP JUMPDEST JUMPDEST ADD PUSH1 0x0 SWAP1 SLOAD SWAP1 PUSH2 0x100 EXP SWAP1 DIV PUSH20 0xFFFFFFFFFFFFFFFFFFFFFFFFFFFFFFFFFFFFFFFF AND PUSH20 0xFFFFFFFFFFFFFFFFFFFFFFFFFFFFFFFFFFFFFFFF AND PUSH4 0x23B872DD CALLER ADDRESS DUP7 PUSH1 0x40 MLOAD DUP5 PUSH4 0xFFFFFFFF AND PUSH1 0xE0 SHL DUP2 MSTORE PUSH1 0x4 ADD PUSH2 0x36D SWAP4 SWAP3 SWAP2 SWAP1 PUSH2 0x1BA2 JUMP JUMPDEST PUSH1 0x20 PUSH1 0x40 MLOAD DUP1 DUP4 SUB DUP2 PUSH1 0x0 DUP8 GAS CALL ISZERO DUP1 ISZERO PUSH2 0x38C JUMPI RETURNDATASIZE PUSH1 0x0 DUP1 RETURNDATACOPY RETURNDATASIZE PUSH1 0x0 REVERT JUMPDEST POP POP POP POP PUSH1 0x40 MLOAD RETURNDATASIZE PUSH1 0x1F NOT PUSH1 0x1F DUP3 ADD AND DUP3 ADD DUP1 PUSH1 0x40 MSTORE POP DUP2 ADD SWAP1 PUSH2 0x3B0 SWAP2 SWAP1 PUSH2 0x1C11 JUMP JUMPDEST POP PUSH1 0x0 PUSH2 0x3BB PUSH2 0xD9B JUMP JUMPDEST SWAP1 POP PUSH1 0x0 PUSH1 0x3 DUP8 PUSH1 0x3 DUP2 LT PUSH2 0x3D3 JUMPI PUSH2 0x3D2 PUSH2 0x1B73 JUMP JUMPDEST JUMPDEST ADD SLOAD DUP6 PUSH2 0x3E0 SWAP2 SWAP1 PUSH2 0x1C6D JUMP JUMPDEST DUP3 DUP9 PUSH1 0x3 DUP2 LT PUSH2 0x3F3 JUMPI PUSH2 0x3F2 PUSH2 0x1B73 JUMP JUMPDEST JUMPDEST PUSH1 0x20 MUL ADD MLOAD PUSH2 0x402 SWAP2 SWAP1 PUSH2 0x1CAF JUMP JUMPDEST SWAP1 POP PUSH1 0x0 DUP3 DUP8 PUSH1 0x3 DUP2 LT PUSH2 0x419 JUMPI PUSH2 0x418 PUSH2 0x1B73 JUMP JUMPDEST JUMPDEST PUSH1 0x20 MUL ADD MLOAD SWAP1 POP PUSH1 0x0 PUSH2 0x42E DUP10 DUP10 DUP6 DUP8 PUSH2 0xE16 JUMP JUMPDEST SWAP1 POP PUSH1 0x3 DUP9 PUSH1 0x3 DUP2 LT PUSH2 0x444 JUMPI PUSH2 0x443 PUSH2 0x1B73 JUMP JUMPDEST JUMPDEST ADD SLOAD PUSH1 0x1 DUP3 DUP5 PUSH2 0x454 SWAP2 SWAP1 PUSH2 0x1CE3 JUMP JUMPDEST PUSH2 0x45E SWAP2 SWAP1 PUSH2 0x1CE3 JUMP JUMPDEST PUSH2 0x468 SWAP2 SWAP1 PUSH2 0x1D46 JUMP JUMPDEST SWAP5 POP PUSH1 0x0 PUSH3 0xF4240 PUSH2 0x12C DUP8 PUSH2 0x47E SWAP2 SWAP1 PUSH2 0x1C6D JUMP JUMPDEST PUSH2 0x488 SWAP2 SWAP1 PUSH2 0x1D46 JUMP JUMPDEST SWAP1 POP DUP1 DUP7 PUSH2 0x496 SWAP2 SWAP1 PUSH2 0x1CE3 JUMP JUMPDEST SWAP6 POP DUP7 DUP7 LT ISZERO PUSH2 0x4DB JUMPI PUSH1 0x40 MLOAD PUSH32 0x8C379A000000000000000000000000000000000000000000000000000000000 DUP2 MSTORE PUSH1 0x4 ADD PUSH2 0x4D2 SWAP1 PUSH2 0x1DC3 JUMP JUMPDEST PUSH1 0x40 MLOAD DUP1 SWAP2 SUB SWAP1 REVERT JUMPDEST DUP8 PUSH1 0x6 DUP12 PUSH1 0x3 DUP2 LT PUSH2 0x4F0 JUMPI PUSH2 0x4EF PUSH2 0x1B73 JUMP JUMPDEST JUMPDEST ADD PUSH1 0x0 DUP3 DUP3 SLOAD PUSH2 0x500 SWAP2 SWAP1 PUSH2 0x1CAF JUMP JUMPDEST SWAP3 POP POP DUP2 SWAP1 SSTORE POP DUP6 PUSH1 0x6 DUP11 PUSH1 0x3 DUP2 LT PUSH2 0x51C JUMPI PUSH2 0x51B PUSH2 0x1B73 JUMP JUMPDEST JUMPDEST ADD PUSH1 0x0 DUP3 DUP3 SLOAD PUSH2 0x52C SWAP2 SWAP1 PUSH2 0x1CE3 JUMP JUMPDEST SWAP3 POP POP DUP2 SWAP1 SSTORE POP PUSH1 0x0 DUP10 PUSH1 0x3 DUP2 LT PUSH2 0x547 JUMPI PUSH2 0x546 PUSH2 0x1B73 JUMP JUMPDEST JUMPDEST ADD PUSH1 0x0 SWAP1 SLOAD SWAP1 PUSH2 0x100 EXP SWAP1 DIV PUSH20 0xFFFFFFFFFFFFFFFFFFFFFFFFFFFFFFFFFFFFFFFF AND PUSH20 0xFFFFFFFFFFFFFFFFFFFFFFFFFFFFFFFFFFFFFFFF AND PUSH4 0xA9059CBB CALLER DUP9 PUSH1 0x40 MLOAD DUP4 PUSH4 0xFFFFFFFF AND PUSH1 0xE0 SHL DUP2 MSTORE PUSH1 0x4 ADD PUSH2 0x5A3 SWAP3 SWAP2 SWAP1 PUSH2 0x1DE3 JUMP JUMPDEST PUSH1 0x20 PUSH1 0x40 MLOAD DUP1 DUP4 SUB DUP2 PUSH1 0x0 DUP8 GAS CALL ISZERO DUP1 ISZERO PUSH2 0x5C2 JUMPI RETURNDATASIZE PUSH1 0x0 DUP1 RETURNDATACOPY RETURNDATASIZE PUSH1 0x0 REVERT JUMPDEST POP POP POP POP PUSH1 0x40 MLOAD RETURNDATASIZE PUSH1 0x1F NOT PUSH1 0x1F DUP3 ADD AND DUP3 ADD DUP1 PUSH1 0x40 MSTORE POP DUP2 ADD SWAP1 PUSH2 0x5E6 SWAP2 SWAP1 PUSH2 0x1C11 JUMP JUMPDEST POP POP POP POP POP POP SWAP5 SWAP4 POP POP POP POP JUMP JUMPDEST PUSH1 0x0 PUSH2 0x600 DUP5 DUP5 PUSH2 0xFF8 JUMP JUMPDEST POP DUP1 SWAP2 POP POP DUP2 DUP2 LT ISZERO PUSH2 0x648 JUMPI PUSH1 0x40 MLOAD PUSH32 0x8C379A000000000000000000000000000000000000000000000000000000000 DUP2 MSTORE PUSH1 0x4 ADD PUSH2 0x63F SWAP1 PUSH2 0x1E58 JUMP JUMPDEST PUSH1 0x40 MLOAD DUP1 SWAP2 SUB SWAP1 REVERT JUMPDEST DUP1 PUSH1 0x6 DUP5 PUSH1 0x3 DUP2 LT PUSH2 0x65D JUMPI PUSH2 0x65C PUSH2 0x1B73 JUMP JUMPDEST JUMPDEST ADD PUSH1 0x0 DUP3 DUP3 SLOAD PUSH2 0x66D SWAP2 SWAP1 PUSH2 0x1CE3 JUMP JUMPDEST SWAP3 POP POP DUP2 SWAP1 SSTORE POP PUSH2 0x67E CALLER DUP6 PUSH2 0x1244 JUMP JUMPDEST PUSH1 0x0 DUP4 PUSH1 0x3 DUP2 LT PUSH2 0x692 JUMPI PUSH2 0x691 PUSH2 0x1B73 JUMP JUMPDEST JUMPDEST ADD PUSH1 0x0 SWAP1 SLOAD SWAP1 PUSH2 0x100 EXP SWAP1 DIV PUSH20 0xFFFFFFFFFFFFFFFFFFFFFFFFFFFFFFFFFFFFFFFF AND PUSH20 0xFFFFFFFFFFFFFFFFFFFFFFFFFFFFFFFFFFFFFFFF AND PUSH4 0xA9059CBB CALLER DUP4 PUSH1 0x40 MLOAD DUP4 PUSH4 0xFFFFFFFF AND PUSH1 0xE0 SHL DUP2 MSTORE PUSH1 0x4 ADD PUSH2 0x6EE SWAP3 SWAP2 SWAP1 PUSH2 0x1DE3 JUMP JUMPDEST PUSH1 0x20 PUSH1 0x40 MLOAD DUP1 DUP4 SUB DUP2 PUSH1 0x0 DUP8 GAS CALL ISZERO DUP1 ISZERO PUSH2 0x70D JUMPI RETURNDATASIZE PUSH1 0x0 DUP1 RETURNDATACOPY RETURNDATASIZE PUSH1 0x0 REVERT JUMPDEST POP POP POP POP PUSH1 0x40 MLOAD RETURNDATASIZE PUSH1 0x1F NOT PUSH1 0x1F DUP3 ADD AND DUP3 ADD DUP1 PUSH1 0x40 MSTORE POP DUP2 ADD SWAP1 PUSH2 0x731 SWAP2 SWAP1 PUSH2 0x1C11 JUMP JUMPDEST POP SWAP4 SWAP3 POP POP POP JUMP JUMPDEST PUSH1 0xA PUSH1 0x20 MSTORE DUP1 PUSH1 0x0 MSTORE PUSH1 0x40 PUSH1 0x0 KECCAK256 PUSH1 0x0 SWAP2 POP SWAP1 POP SLOAD DUP2 JUMP JUMPDEST PUSH1 0x0 DUP1 PUSH1 0x9 SLOAD SWAP1 POP PUSH1 0x0 DUP1 PUSH2 0x764 PUSH2 0xD9B JUMP JUMPDEST SWAP1 POP PUSH1 0x0 DUP4 GT ISZERO PUSH2 0x77B JUMPI PUSH2 0x778 DUP2 PUSH2 0x12B7 JUMP JUMPDEST SWAP2 POP JUMPDEST PUSH2 0x783 PUSH2 0x16FD JUMP JUMPDEST PUSH1 0x0 JUMPDEST PUSH1 0x3 DUP2 LT ISZERO PUSH2 0x915 JUMPI PUSH1 0x0 DUP9 DUP3 PUSH1 0x3 DUP2 LT PUSH2 0x7A4 JUMPI PUSH2 0x7A3 PUSH2 0x1B73 JUMP JUMPDEST JUMPDEST PUSH1 0x20 MUL ADD CALLDATALOAD SWAP1 POP PUSH1 0x0 DUP2 GT ISZERO PUSH2 0x8CE JUMPI PUSH1 0x0 DUP3 PUSH1 0x3 DUP2 LT PUSH2 0x7C8 JUMPI PUSH2 0x7C7 PUSH2 0x1B73 JUMP JUMPDEST JUMPDEST ADD PUSH1 0x0 SWAP1 SLOAD SWAP1 PUSH2 0x100 EXP SWAP1 DIV PUSH20 0xFFFFFFFFFFFFFFFFFFFFFFFFFFFFFFFFFFFFFFFF AND PUSH20 0xFFFFFFFFFFFFFFFFFFFFFFFFFFFFFFFFFFFFFFFF AND PUSH4 0x23B872DD CALLER ADDRESS DUP5 PUSH1 0x40 MLOAD DUP5 PUSH4 0xFFFFFFFF AND PUSH1 0xE0 SHL DUP2 MSTORE PUSH1 0x4 ADD PUSH2 0x826 SWAP4 SWAP3 SWAP2 SWAP1 PUSH2 0x1BA2 JUMP JUMPDEST PUSH1 0x20 PUSH1 0x40 MLOAD DUP1 DUP4 SUB DUP2 PUSH1 0x0 DUP8 GAS CALL ISZERO DUP1 ISZERO PUSH2 0x845 JUMPI RETURNDATASIZE PUSH1 0x0 DUP1 RETURNDATACOPY RETURNDATASIZE PUSH1 0x0 REVERT JUMPDEST POP POP POP POP PUSH1 0x40 MLOAD RETURNDATASIZE PUSH1 0x1F NOT PUSH1 0x1F DUP3 ADD AND DUP3 ADD DUP1 PUSH1 0x40 MSTORE POP DUP2 ADD SWAP1 PUSH2 0x869 SWAP2 SWAP1 PUSH2 0x1C11 JUMP JUMPDEST POP PUSH1 0x3 DUP3 PUSH1 0x3 DUP2 LT PUSH2 0x87E JUMPI PUSH2 0x87D PUSH2 0x1B73 JUMP JUMPDEST JUMPDEST ADD SLOAD DUP2 PUSH2 0x88B SWAP2 SWAP1 PUSH2 0x1C6D JUMP JUMPDEST DUP5 DUP4 PUSH1 0x3 DUP2 LT PUSH2 0x89E JUMPI PUSH2 0x89D PUSH2 0x1B73 JUMP JUMPDEST JUMPDEST PUSH1 0x20 MUL ADD MLOAD PUSH2 0x8AD SWAP2 SWAP1 PUSH2 0x1CAF JUMP JUMPDEST DUP4 DUP4 PUSH1 0x3 DUP2 LT PUSH2 0x8C0 JUMPI PUSH2 0x8BF PUSH2 0x1B73 JUMP JUMPDEST JUMPDEST PUSH1 0x20 MUL ADD DUP2 DUP2 MSTORE POP POP PUSH2 0x903 JUMP JUMPDEST DUP4 DUP3 PUSH1 0x3 DUP2 LT PUSH2 0x8E1 JUMPI PUSH2 0x8E0 PUSH2 0x1B73 JUMP JUMPDEST JUMPDEST PUSH1 0x20 MUL ADD MLOAD DUP4 DUP4 PUSH1 0x3 DUP2 LT PUSH2 0x8F9 JUMPI PUSH2 0x8F8 PUSH2 0x1B73 JUMP JUMPDEST JUMPDEST PUSH1 0x20 MUL ADD DUP2 DUP2 MSTORE POP POP JUMPDEST POP DUP1 PUSH2 0x90E SWAP1 PUSH2 0x1E78 JUMP JUMPDEST SWAP1 POP PUSH2 0x786 JUMP JUMPDEST POP PUSH1 0x0 PUSH2 0x921 DUP3 PUSH2 0x12B7 JUMP JUMPDEST SWAP1 POP DUP4 DUP2 GT PUSH2 0x965 JUMPI PUSH1 0x40 MLOAD PUSH32 0x8C379A000000000000000000000000000000000000000000000000000000000 DUP2 MSTORE PUSH1 0x4 ADD PUSH2 0x95C SWAP1 PUSH2 0x1F0C JUMP JUMPDEST PUSH1 0x40 MLOAD DUP1 SWAP2 SUB SWAP1 REVERT JUMPDEST PUSH1 0x0 DUP1 DUP7 GT ISZERO PUSH2 0xA6D JUMPI PUSH1 0x0 JUMPDEST PUSH1 0x3 DUP2 LT ISZERO PUSH2 0xA5C JUMPI PUSH1 0x0 DUP7 DUP5 DUP8 DUP5 PUSH1 0x3 DUP2 LT PUSH2 0x992 JUMPI PUSH2 0x991 PUSH2 0x1B73 JUMP JUMPDEST JUMPDEST PUSH1 0x20 MUL ADD MLOAD PUSH2 0x9A1 SWAP2 SWAP1 PUSH2 0x1C6D JUMP JUMPDEST PUSH2 0x9AB SWAP2 SWAP1 PUSH2 0x1D46 JUMP JUMPDEST SWAP1 POP PUSH1 0x0 PUSH2 0x9D0 DUP7 DUP5 PUSH1 0x3 DUP2 LT PUSH2 0x9C5 JUMPI PUSH2 0x9C4 PUSH2 0x1B73 JUMP JUMPDEST JUMPDEST PUSH1 0x20 MUL ADD MLOAD DUP4 PUSH2 0x148E JUMP JUMPDEST SWAP1 POP PUSH3 0xF4240 DUP2 PUSH1 0x1 PUSH1 0x3 PUSH2 0x9E5 SWAP2 SWAP1 PUSH2 0x1CE3 JUMP JUMPDEST PUSH1 0x4 PUSH2 0x9F1 SWAP2 SWAP1 PUSH2 0x1C6D JUMP JUMPDEST PUSH1 0x3 PUSH2 0x12C PUSH2 0xA00 SWAP2 SWAP1 PUSH2 0x1C6D JUMP JUMPDEST PUSH2 0xA0A SWAP2 SWAP1 PUSH2 0x1D46 JUMP JUMPDEST PUSH2 0xA14 SWAP2 SWAP1 PUSH2 0x1C6D JUMP JUMPDEST PUSH2 0xA1E SWAP2 SWAP1 PUSH2 0x1D46 JUMP JUMPDEST DUP7 DUP5 PUSH1 0x3 DUP2 LT PUSH2 0xA31 JUMPI PUSH2 0xA30 PUSH2 0x1B73 JUMP JUMPDEST JUMPDEST PUSH1 0x20 MUL ADD DUP2 DUP2 MLOAD PUSH2 0xA42 SWAP2 SWAP1 PUSH2 0x1CE3 JUMP JUMPDEST SWAP2 POP DUP2 DUP2 MSTORE POP POP POP POP DUP1 PUSH2 0xA55 SWAP1 PUSH2 0x1E78 JUMP JUMPDEST SWAP1 POP PUSH2 0x972 JUMP JUMPDEST POP PUSH2 0xA66 DUP4 PUSH2 0x12B7 JUMP JUMPDEST SWAP1 POP PUSH2 0xA71 JUMP JUMPDEST DUP2 SWAP1 POP JUMPDEST PUSH1 0x0 JUMPDEST PUSH1 0x3 DUP2 LT ISZERO PUSH2 0xAD1 JUMPI DUP10 DUP2 PUSH1 0x3 DUP2 LT PUSH2 0xA90 JUMPI PUSH2 0xA8F PUSH2 0x1B73 JUMP JUMPDEST JUMPDEST PUSH1 0x20 MUL ADD CALLDATALOAD PUSH1 0x6 DUP3 PUSH1 0x3 DUP2 LT PUSH2 0xAA9 JUMPI PUSH2 0xAA8 PUSH2 0x1B73 JUMP JUMPDEST JUMPDEST ADD PUSH1 0x0 DUP3 DUP3 SLOAD PUSH2 0xAB9 SWAP2 SWAP1 PUSH2 0x1CAF JUMP JUMPDEST SWAP3 POP POP DUP2 SWAP1 SSTORE POP DUP1 PUSH2 0xACA SWAP1 PUSH2 0x1E78 JUMP JUMPDEST SWAP1 POP PUSH2 0xA74 JUMP JUMPDEST POP PUSH1 0x0 DUP7 GT ISZERO PUSH2 0xB04 JUMPI DUP5 DUP7 DUP7 DUP4 PUSH2 0xAE9 SWAP2 SWAP1 PUSH2 0x1CE3 JUMP JUMPDEST PUSH2 0xAF3 SWAP2 SWAP1 PUSH2 0x1C6D JUMP JUMPDEST PUSH2 0xAFD SWAP2 SWAP1 PUSH2 0x1D46 JUMP JUMPDEST SWAP7 POP PUSH2 0xB08 JUMP JUMPDEST DUP1 SWAP7 POP JUMPDEST DUP8 DUP8 LT ISZERO PUSH2 0xB4B JUMPI PUSH1 0x40 MLOAD PUSH32 0x8C379A000000000000000000000000000000000000000000000000000000000 DUP2 MSTORE PUSH1 0x4 ADD PUSH2 0xB42 SWAP1 PUSH2 0x1F78 JUMP JUMPDEST PUSH1 0x40 MLOAD DUP1 SWAP2 SUB SWAP1 REVERT JUMPDEST PUSH2 0xB55 CALLER DUP9 PUSH2 0x14BE JUMP JUMPDEST POP POP POP POP POP POP SWAP3 SWAP2 POP POP JUMP JUMPDEST PUSH1 0x0 DUP1 PUSH2 0xB6E DUP5 DUP5 PUSH2 0xFF8 JUMP JUMPDEST SWAP2 POP SWAP2 POP SWAP3 POP SWAP3 SWAP1 POP JUMP JUMPDEST PUSH2 0xB81 PUSH2 0x16FD JUMP JUMPDEST PUSH1 0x0 PUSH1 0x9 SLOAD SWAP1 POP PUSH1 0x0 JUMPDEST PUSH1 0x3 DUP2 LT ISZERO PUSH2 0xD2D JUMPI PUSH1 0x0 DUP3 DUP7 PUSH1 0x6 DUP5 PUSH1 0x3 DUP2 LT PUSH2 0xBAC JUMPI PUSH2 0xBAB PUSH2 0x1B73 JUMP JUMPDEST JUMPDEST ADD SLOAD PUSH2 0xBB8 SWAP2 SWAP1 PUSH2 0x1C6D JUMP JUMPDEST PUSH2 0xBC2 SWAP2 SWAP1 PUSH2 0x1D46 JUMP JUMPDEST SWAP1 POP DUP5 DUP3 PUSH1 0x3 DUP2 LT PUSH2 0xBD7 JUMPI PUSH2 0xBD6 PUSH2 0x1B73 JUMP JUMPDEST JUMPDEST PUSH1 0x20 MUL ADD CALLDATALOAD DUP2 LT ISZERO PUSH2 0xC1E JUMPI PUSH1 0x40 MLOAD PUSH32 0x8C379A000000000000000000000000000000000000000000000000000000000 DUP2 MSTORE PUSH1 0x4 ADD PUSH2 0xC15 SWAP1 PUSH2 0x1E58 JUMP JUMPDEST PUSH1 0x40 MLOAD DUP1 SWAP2 SUB SWAP1 REVERT JUMPDEST DUP1 PUSH1 0x6 DUP4 PUSH1 0x3 DUP2 LT PUSH2 0xC33 JUMPI PUSH2 0xC32 PUSH2 0x1B73 JUMP JUMPDEST JUMPDEST ADD PUSH1 0x0 DUP3 DUP3 SLOAD PUSH2 0xC43 SWAP2 SWAP1 PUSH2 0x1CE3 JUMP JUMPDEST SWAP3 POP POP DUP2 SWAP1 SSTORE POP DUP1 DUP5 DUP4 PUSH1 0x3 DUP2 LT PUSH2 0xC5E JUMPI PUSH2 0xC5D PUSH2 0x1B73 JUMP JUMPDEST JUMPDEST PUSH1 0x20 MUL ADD DUP2 DUP2 MSTORE POP POP PUSH1 0x0 DUP3 PUSH1 0x3 DUP2 LT PUSH2 0xC7B JUMPI PUSH2 0xC7A PUSH2 0x1B73 JUMP JUMPDEST JUMPDEST ADD PUSH1 0x0 SWAP1 SLOAD SWAP1 PUSH2 0x100 EXP SWAP1 DIV PUSH20 0xFFFFFFFFFFFFFFFFFFFFFFFFFFFFFFFFFFFFFFFF AND PUSH20 0xFFFFFFFFFFFFFFFFFFFFFFFFFFFFFFFFFFFFFFFF AND PUSH4 0xA9059CBB CALLER DUP4 PUSH1 0x40 MLOAD DUP4 PUSH4 0xFFFFFFFF AND PUSH1 0xE0 SHL DUP2 MSTORE PUSH1 0x4 ADD PUSH2 0xCD7 SWAP3 SWAP2 SWAP1 PUSH2 0x1DE3 JUMP JUMPDEST PUSH1 0x20 PUSH1 0x40 MLOAD DUP1 DUP4 SUB DUP2 PUSH1 0x0 DUP8 GAS CALL ISZERO DUP1 ISZERO PUSH2 0xCF6 JUMPI RETURNDATASIZE PUSH1 0x0 DUP1 RETURNDATACOPY RETURNDATASIZE PUSH1 0x0 REVERT JUMPDEST POP POP POP POP PUSH1 0x40 MLOAD RETURNDATASIZE PUSH1 0x1F NOT PUSH1 0x1F DUP3 ADD AND DUP3 ADD DUP1 PUSH1 0x40 MSTORE POP DUP2 ADD SWAP1 PUSH2 0xD1A SWAP2 SWAP1 PUSH2 0x1C11 JUMP JUMPDEST POP POP DUP1 PUSH2 0xD26 SWAP1 PUSH2 0x1E78 JUMP JUMPDEST SWAP1 POP PUSH2 0xB8B JUMP JUMPDEST POP PUSH2 0xD38 CALLER DUP6 PUSH2 0x1244 JUMP JUMPDEST POP SWAP3 SWAP2 POP POP JUMP JUMPDEST PUSH1 0x0 DUP1 PUSH2 0xD52 PUSH2 0xD4D PUSH2 0xD9B JUMP JUMPDEST PUSH2 0x12B7 JUMP JUMPDEST SWAP1 POP PUSH1 0x0 PUSH1 0x9 SLOAD SWAP1 POP PUSH1 0x0 DUP2 GT ISZERO PUSH2 0xD91 JUMPI DUP1 PUSH1 0x12 PUSH1 0xA PUSH2 0xD73 SWAP2 SWAP1 PUSH2 0x20CB JUMP JUMPDEST DUP4 PUSH2 0xD7E SWAP2 SWAP1 PUSH2 0x1C6D JUMP JUMPDEST PUSH2 0xD88 SWAP2 SWAP1 PUSH2 0x1D46 JUMP JUMPDEST SWAP3 POP POP POP PUSH2 0xD98 JUMP JUMPDEST PUSH1 0x0 SWAP3 POP POP POP JUMPDEST SWAP1 JUMP JUMPDEST PUSH2 0xDA3 PUSH2 0x16FD JUMP JUMPDEST PUSH1 0x0 JUMPDEST PUSH1 0x3 DUP2 LT ISZERO PUSH2 0xE12 JUMPI PUSH1 0x3 DUP2 PUSH1 0x3 DUP2 LT PUSH2 0xDC3 JUMPI PUSH2 0xDC2 PUSH2 0x1B73 JUMP JUMPDEST JUMPDEST ADD SLOAD PUSH1 0x6 DUP3 PUSH1 0x3 DUP2 LT PUSH2 0xDD9 JUMPI PUSH2 0xDD8 PUSH2 0x1B73 JUMP JUMPDEST JUMPDEST ADD SLOAD PUSH2 0xDE5 SWAP2 SWAP1 PUSH2 0x1C6D JUMP JUMPDEST DUP3 DUP3 PUSH1 0x3 DUP2 LT PUSH2 0xDF8 JUMPI PUSH2 0xDF7 PUSH2 0x1B73 JUMP JUMPDEST JUMPDEST PUSH1 0x20 MUL ADD DUP2 DUP2 MSTORE POP POP DUP1 PUSH2 0xE0B SWAP1 PUSH2 0x1E78 JUMP JUMPDEST SWAP1 POP PUSH2 0xDA6 JUMP JUMPDEST POP SWAP1 JUMP JUMPDEST PUSH1 0x0 DUP1 PUSH1 0x3 PUSH1 0x1 PUSH1 0x3 PUSH2 0xE29 SWAP2 SWAP1 PUSH2 0x1CE3 JUMP JUMPDEST PUSH1 0x3 PUSH2 0xE35 SWAP2 SWAP1 PUSH2 0x20CB JUMP JUMPDEST PUSH2 0x3E8 PUSH2 0xE42 SWAP2 SWAP1 PUSH2 0x1C6D JUMP JUMPDEST PUSH2 0xE4C SWAP2 SWAP1 PUSH2 0x1C6D JUMP JUMPDEST SWAP1 POP PUSH1 0x0 PUSH2 0xE59 DUP5 PUSH2 0x12B7 JUMP JUMPDEST SWAP1 POP PUSH1 0x0 DUP1 DUP3 SWAP1 POP PUSH1 0x0 DUP1 JUMPDEST PUSH1 0x3 DUP2 LT ISZERO PUSH2 0xEE5 JUMPI DUP11 DUP2 SUB PUSH2 0xE7D JUMPI DUP9 SWAP2 POP PUSH2 0xEA0 JUMP JUMPDEST DUP10 DUP2 SUB ISZERO PUSH2 0xED4 JUMPI DUP8 DUP2 PUSH1 0x3 DUP2 LT PUSH2 0xE98 JUMPI PUSH2 0xE97 PUSH2 0x1B73 JUMP JUMPDEST JUMPDEST PUSH1 0x20 MUL ADD MLOAD SWAP2 POP JUMPDEST DUP2 DUP5 PUSH2 0xEAC SWAP2 SWAP1 PUSH2 0x1CAF JUMP JUMPDEST SWAP4 POP DUP2 PUSH1 0x3 PUSH2 0xEBB SWAP2 SWAP1 PUSH2 0x1C6D JUMP JUMPDEST DUP6 DUP5 PUSH2 0xEC7 SWAP2 SWAP1 PUSH2 0x1C6D JUMP JUMPDEST PUSH2 0xED1 SWAP2 SWAP1 PUSH2 0x1D46 JUMP JUMPDEST SWAP3 POP JUMPDEST DUP1 PUSH2 0xEDE SWAP1 PUSH2 0x1E78 JUMP JUMPDEST SWAP1 POP PUSH2 0xE65 JUMP JUMPDEST POP DUP5 PUSH1 0x3 PUSH2 0xEF3 SWAP2 SWAP1 PUSH2 0x1C6D JUMP JUMPDEST DUP5 DUP4 PUSH2 0xEFF SWAP2 SWAP1 PUSH2 0x1C6D JUMP JUMPDEST PUSH2 0xF09 SWAP2 SWAP1 PUSH2 0x1D46 JUMP JUMPDEST SWAP2 POP PUSH1 0x0 DUP6 DUP6 PUSH2 0xF19 SWAP2 SWAP1 PUSH2 0x1D46 JUMP JUMPDEST DUP5 PUSH2 0xF24 SWAP2 SWAP1 PUSH2 0x1CAF JUMP JUMPDEST SWAP1 POP PUSH1 0x0 DUP1 DUP7 SWAP1 POP PUSH1 0x0 JUMPDEST PUSH1 0xFF DUP2 LT ISZERO PUSH2 0xFB4 JUMPI DUP2 SWAP3 POP DUP8 DUP5 DUP4 PUSH1 0x2 PUSH2 0xF4A SWAP2 SWAP1 PUSH2 0x1C6D JUMP JUMPDEST PUSH2 0xF54 SWAP2 SWAP1 PUSH2 0x1CAF JUMP JUMPDEST PUSH2 0xF5E SWAP2 SWAP1 PUSH2 0x1CE3 JUMP JUMPDEST DUP7 DUP4 DUP5 PUSH2 0xF6B SWAP2 SWAP1 PUSH2 0x1C6D JUMP JUMPDEST PUSH2 0xF75 SWAP2 SWAP1 PUSH2 0x1CAF JUMP JUMPDEST PUSH2 0xF7F SWAP2 SWAP1 PUSH2 0x1D46 JUMP JUMPDEST SWAP2 POP PUSH1 0x1 PUSH2 0xF8D DUP4 DUP6 PUSH2 0x148E JUMP JUMPDEST GT PUSH2 0xFA3 JUMPI DUP2 SWAP10 POP POP POP POP POP POP POP POP POP POP PUSH2 0xFF0 JUMP JUMPDEST DUP1 PUSH2 0xFAD SWAP1 PUSH2 0x1E78 JUMP JUMPDEST SWAP1 POP PUSH2 0xF2F JUMP JUMPDEST POP PUSH1 0x40 MLOAD PUSH32 0x8C379A000000000000000000000000000000000000000000000000000000000 DUP2 MSTORE PUSH1 0x4 ADD PUSH2 0xFE7 SWAP1 PUSH2 0x2162 JUMP JUMPDEST PUSH1 0x40 MLOAD DUP1 SWAP2 SUB SWAP1 REVERT JUMPDEST SWAP5 SWAP4 POP POP POP POP JUMP JUMPDEST PUSH1 0x0 DUP1 PUSH1 0x0 PUSH1 0x9 SLOAD SWAP1 POP PUSH1 0x0 PUSH2 0x100C PUSH2 0xD9B JUMP JUMPDEST SWAP1 POP PUSH1 0x0 PUSH2 0x1019 DUP3 PUSH2 0x12B7 JUMP JUMPDEST SWAP1 POP PUSH1 0x0 DUP4 DUP9 DUP4 PUSH2 0x102A SWAP2 SWAP1 PUSH2 0x1C6D JUMP JUMPDEST PUSH2 0x1034 SWAP2 SWAP1 PUSH2 0x1D46 JUMP JUMPDEST DUP3 PUSH2 0x103F SWAP2 SWAP1 PUSH2 0x1CE3 JUMP JUMPDEST SWAP1 POP PUSH1 0x0 PUSH2 0x104E DUP9 DUP6 DUP5 PUSH2 0x1531 JUMP JUMPDEST SWAP1 POP PUSH1 0x0 PUSH1 0x3 DUP10 PUSH1 0x3 DUP2 LT PUSH2 0x1066 JUMPI PUSH2 0x1065 PUSH2 0x1B73 JUMP JUMPDEST JUMPDEST ADD SLOAD DUP3 DUP7 DUP12 PUSH1 0x3 DUP2 LT PUSH2 0x107C JUMPI PUSH2 0x107B PUSH2 0x1B73 JUMP JUMPDEST JUMPDEST PUSH1 0x20 MUL ADD MLOAD PUSH2 0x108B SWAP2 SWAP1 PUSH2 0x1CE3 JUMP JUMPDEST PUSH2 0x1095 SWAP2 SWAP1 PUSH2 0x1D46 JUMP JUMPDEST SWAP1 POP PUSH1 0x0 DUP1 JUMPDEST PUSH1 0x3 DUP2 LT ISZERO PUSH2 0x11C6 JUMPI DUP11 DUP2 SUB PUSH2 0x10EB JUMPI DUP4 DUP7 DUP7 DUP10 DUP5 PUSH1 0x3 DUP2 LT PUSH2 0x10C1 JUMPI PUSH2 0x10C0 PUSH2 0x1B73 JUMP JUMPDEST JUMPDEST PUSH1 0x20 MUL ADD MLOAD PUSH2 0x10D0 SWAP2 SWAP1 PUSH2 0x1C6D JUMP JUMPDEST PUSH2 0x10DA SWAP2 SWAP1 PUSH2 0x1D46 JUMP JUMPDEST PUSH2 0x10E4 SWAP2 SWAP1 PUSH2 0x1CE3 JUMP JUMPDEST SWAP2 POP PUSH2 0x113E JUMP JUMPDEST DUP6 DUP6 DUP9 DUP4 PUSH1 0x3 DUP2 LT PUSH2 0x1100 JUMPI PUSH2 0x10FF PUSH2 0x1B73 JUMP JUMPDEST JUMPDEST PUSH1 0x20 MUL ADD MLOAD PUSH2 0x110F SWAP2 SWAP1 PUSH2 0x1C6D JUMP JUMPDEST PUSH2 0x1119 SWAP2 SWAP1 PUSH2 0x1D46 JUMP JUMPDEST DUP8 DUP3 PUSH1 0x3 DUP2 LT PUSH2 0x112C JUMPI PUSH2 0x112B PUSH2 0x1B73 JUMP JUMPDEST JUMPDEST PUSH1 0x20 MUL ADD MLOAD PUSH2 0x113B SWAP2 SWAP1 PUSH2 0x1CE3 JUMP JUMPDEST SWAP2 POP JUMPDEST PUSH3 0xF4240 DUP3 PUSH1 0x1 PUSH1 0x3 PUSH2 0x1151 SWAP2 SWAP1 PUSH2 0x1CE3 JUMP JUMPDEST PUSH1 0x4 PUSH2 0x115D SWAP2 SWAP1 PUSH2 0x1C6D JUMP JUMPDEST PUSH1 0x3 PUSH2 0x12C PUSH2 0x116C SWAP2 SWAP1 PUSH2 0x1C6D JUMP JUMPDEST PUSH2 0x1176 SWAP2 SWAP1 PUSH2 0x1D46 JUMP JUMPDEST PUSH2 0x1180 SWAP2 SWAP1 PUSH2 0x1C6D JUMP JUMPDEST PUSH2 0x118A SWAP2 SWAP1 PUSH2 0x1D46 JUMP JUMPDEST DUP8 DUP3 PUSH1 0x3 DUP2 LT PUSH2 0x119D JUMPI PUSH2 0x119C PUSH2 0x1B73 JUMP JUMPDEST JUMPDEST PUSH1 0x20 MUL ADD DUP2 DUP2 MLOAD PUSH2 0x11AE SWAP2 SWAP1 PUSH2 0x1CE3 JUMP JUMPDEST SWAP2 POP DUP2 DUP2 MSTORE POP POP DUP1 PUSH2 0x11BF SWAP1 PUSH2 0x1E78 JUMP JUMPDEST SWAP1 POP PUSH2 0x109B JUMP JUMPDEST POP PUSH1 0x0 PUSH2 0x11D4 DUP12 DUP9 DUP8 PUSH2 0x1531 JUMP JUMPDEST SWAP1 POP PUSH1 0x3 DUP12 PUSH1 0x3 DUP2 LT PUSH2 0x11EA JUMPI PUSH2 0x11E9 PUSH2 0x1B73 JUMP JUMPDEST JUMPDEST ADD SLOAD PUSH1 0x1 DUP3 DUP10 DUP15 PUSH1 0x3 DUP2 LT PUSH2 0x1202 JUMPI PUSH2 0x1201 PUSH2 0x1B73 JUMP JUMPDEST JUMPDEST PUSH1 0x20 MUL ADD MLOAD PUSH2 0x1211 SWAP2 SWAP1 PUSH2 0x1CE3 JUMP JUMPDEST PUSH2 0x121B SWAP2 SWAP1 PUSH2 0x1CE3 JUMP JUMPDEST PUSH2 0x1225 SWAP2 SWAP1 PUSH2 0x1D46 JUMP JUMPDEST SWAP10 POP DUP10 DUP4 PUSH2 0x1233 SWAP2 SWAP1 PUSH2 0x1CE3 JUMP JUMPDEST SWAP9 POP POP POP POP POP POP POP POP POP SWAP3 POP SWAP3 SWAP1 POP JUMP JUMPDEST DUP1 PUSH1 0xA PUSH1 0x0 DUP5 PUSH20 0xFFFFFFFFFFFFFFFFFFFFFFFFFFFFFFFFFFFFFFFF AND PUSH20 0xFFFFFFFFFFFFFFFFFFFFFFFFFFFFFFFFFFFFFFFF AND DUP2 MSTORE PUSH1 0x20 ADD SWAP1 DUP2 MSTORE PUSH1 0x20 ADD PUSH1 0x0 KECCAK256 PUSH1 0x0 DUP3 DUP3 SLOAD PUSH2 0x1293 SWAP2 SWAP1 PUSH2 0x1CE3 JUMP JUMPDEST SWAP3 POP POP DUP2 SWAP1 SSTORE POP DUP1 PUSH1 0x9 PUSH1 0x0 DUP3 DUP3 SLOAD PUSH2 0x12AC SWAP2 SWAP1 PUSH2 0x1CE3 JUMP JUMPDEST SWAP3 POP POP DUP2 SWAP1 SSTORE POP POP POP JUMP JUMPDEST PUSH1 0x0 DUP1 PUSH1 0x3 PUSH1 0x1 PUSH1 0x3 PUSH2 0x12CA SWAP2 SWAP1 PUSH2 0x1CE3 JUMP JUMPDEST PUSH1 0x3 PUSH2 0x12D6 SWAP2 SWAP1 PUSH2 0x20CB JUMP JUMPDEST PUSH2 0x3E8 PUSH2 0x12E3 SWAP2 SWAP1 PUSH2 0x1C6D JUMP JUMPDEST PUSH2 0x12ED SWAP2 SWAP1 PUSH2 0x1C6D JUMP JUMPDEST SWAP1 POP PUSH1 0x0 DUP1 JUMPDEST PUSH1 0x3 DUP2 LT ISZERO PUSH2 0x1332 JUMPI DUP5 DUP2 PUSH1 0x3 DUP2 LT PUSH2 0x130F JUMPI PUSH2 0x130E PUSH2 0x1B73 JUMP JUMPDEST JUMPDEST PUSH1 0x20 MUL ADD MLOAD DUP3 PUSH2 0x131F SWAP2 SWAP1 PUSH2 0x1CAF JUMP JUMPDEST SWAP2 POP DUP1 PUSH2 0x132B SWAP1 PUSH2 0x1E78 JUMP JUMPDEST SWAP1 POP PUSH2 0x12F3 JUMP JUMPDEST POP PUSH1 0x0 DUP2 SWAP1 POP PUSH1 0x0 DUP1 JUMPDEST PUSH1 0xFF DUP2 LT ISZERO PUSH2 0x144D JUMPI PUSH1 0x0 DUP4 SWAP1 POP PUSH1 0x0 JUMPDEST PUSH1 0x3 DUP2 LT ISZERO PUSH2 0x13A3 JUMPI DUP9 DUP2 PUSH1 0x3 DUP2 LT PUSH2 0x1369 JUMPI PUSH2 0x1368 PUSH2 0x1B73 JUMP JUMPDEST JUMPDEST PUSH1 0x20 MUL ADD MLOAD PUSH1 0x3 PUSH2 0x137A SWAP2 SWAP1 PUSH2 0x1C6D JUMP JUMPDEST DUP6 DUP4 PUSH2 0x1386 SWAP2 SWAP1 PUSH2 0x1C6D JUMP JUMPDEST PUSH2 0x1390 SWAP2 SWAP1 PUSH2 0x1D46 JUMP JUMPDEST SWAP2 POP DUP1 PUSH2 0x139C SWAP1 PUSH2 0x1E78 JUMP JUMPDEST SWAP1 POP PUSH2 0x134D JUMP JUMPDEST POP DUP4 SWAP3 POP DUP1 PUSH1 0x1 PUSH1 0x3 PUSH2 0x13B6 SWAP2 SWAP1 PUSH2 0x1CAF JUMP JUMPDEST PUSH2 0x13C0 SWAP2 SWAP1 PUSH2 0x1C6D JUMP JUMPDEST DUP5 PUSH1 0x1 DUP9 PUSH2 0x13CE SWAP2 SWAP1 PUSH2 0x1CE3 JUMP JUMPDEST PUSH2 0x13D8 SWAP2 SWAP1 PUSH2 0x1C6D JUMP JUMPDEST PUSH2 0x13E2 SWAP2 SWAP1 PUSH2 0x1CAF JUMP JUMPDEST DUP5 DUP3 PUSH1 0x3 PUSH2 0x13F0 SWAP2 SWAP1 PUSH2 0x1C6D JUMP JUMPDEST DUP8 DUP10 PUSH2 0x13FC SWAP2 SWAP1 PUSH2 0x1C6D JUMP JUMPDEST PUSH2 0x1406 SWAP2 SWAP1 PUSH2 0x1CAF JUMP JUMPDEST PUSH2 0x1410 SWAP2 SWAP1 PUSH2 0x1C6D JUMP JUMPDEST PUSH2 0x141A SWAP2 SWAP1 PUSH2 0x1D46 JUMP JUMPDEST SWAP4 POP PUSH1 0x1 PUSH2 0x1428 DUP6 DUP6 PUSH2 0x148E JUMP JUMPDEST GT PUSH2 0x143B JUMPI DUP4 SWAP7 POP POP POP POP POP POP POP PUSH2 0x1489 JUMP JUMPDEST POP DUP1 PUSH2 0x1446 SWAP1 PUSH2 0x1E78 JUMP JUMPDEST SWAP1 POP PUSH2 0x133C JUMP JUMPDEST POP PUSH1 0x40 MLOAD PUSH32 0x8C379A000000000000000000000000000000000000000000000000000000000 DUP2 MSTORE PUSH1 0x4 ADD PUSH2 0x1480 SWAP1 PUSH2 0x21CE JUMP JUMPDEST PUSH1 0x40 MLOAD DUP1 SWAP2 SUB SWAP1 REVERT JUMPDEST SWAP2 SWAP1 POP JUMP JUMPDEST PUSH1 0x0 DUP2 DUP4 LT ISZERO PUSH2 0x14A9 JUMPI DUP3 DUP3 PUSH2 0x14A4 SWAP2 SWAP1 PUSH2 0x1CE3 JUMP JUMPDEST PUSH2 0x14B6 JUMP JUMPDEST DUP2 DUP4 PUSH2 0x14B5 SWAP2 SWAP1 PUSH2 0x1CE3 JUMP JUMPDEST JUMPDEST SWAP1 POP SWAP3 SWAP2 POP POP JUMP JUMPDEST DUP1 PUSH1 0xA PUSH1 0x0 DUP5 PUSH20 0xFFFFFFFFFFFFFFFFFFFFFFFFFFFFFFFFFFFFFFFF AND PUSH20 0xFFFFFFFFFFFFFFFFFFFFFFFFFFFFFFFFFFFFFFFF AND DUP2 MSTORE PUSH1 0x20 ADD SWAP1 DUP2 MSTORE PUSH1 0x20 ADD PUSH1 0x0 KECCAK256 PUSH1 0x0 DUP3 DUP3 SLOAD PUSH2 0x150D SWAP2 SWAP1 PUSH2 0x1CAF JUMP JUMPDEST SWAP3 POP POP DUP2 SWAP1 SSTORE POP DUP1 PUSH1 0x9 PUSH1 0x0 DUP3 DUP3 SLOAD PUSH2 0x1526 SWAP2 SWAP1 PUSH2 0x1CAF JUMP JUMPDEST SWAP3 POP POP DUP2 SWAP1 SSTORE POP POP POP JUMP JUMPDEST PUSH1 0x0 DUP1 PUSH1 0x3 PUSH1 0x1 PUSH1 0x3 PUSH2 0x1544 SWAP2 SWAP1 PUSH2 0x1CE3 JUMP JUMPDEST PUSH1 0x3 PUSH2 0x1550 SWAP2 SWAP1 PUSH2 0x20CB JUMP JUMPDEST PUSH2 0x3E8 PUSH2 0x155D SWAP2 SWAP1 PUSH2 0x1C6D JUMP JUMPDEST PUSH2 0x1567 SWAP2 SWAP1 PUSH2 0x1C6D JUMP JUMPDEST SWAP1 POP PUSH1 0x0 DUP1 DUP5 SWAP1 POP PUSH1 0x0 DUP1 JUMPDEST PUSH1 0x3 DUP2 LT ISZERO PUSH2 0x15EC JUMPI DUP9 DUP2 EQ PUSH2 0x15A2 JUMPI DUP8 DUP2 PUSH1 0x3 DUP2 LT PUSH2 0x1596 JUMPI PUSH2 0x1595 PUSH2 0x1B73 JUMP JUMPDEST JUMPDEST PUSH1 0x20 MUL ADD MLOAD SWAP2 POP PUSH2 0x15A7 JUMP JUMPDEST PUSH2 0x15DB JUMP JUMPDEST DUP2 DUP5 PUSH2 0x15B3 SWAP2 SWAP1 PUSH2 0x1CAF JUMP JUMPDEST SWAP4 POP DUP2 PUSH1 0x3 PUSH2 0x15C2 SWAP2 SWAP1 PUSH2 0x1C6D JUMP JUMPDEST DUP8 DUP5 PUSH2 0x15CE SWAP2 SWAP1 PUSH2 0x1C6D JUMP JUMPDEST PUSH2 0x15D8 SWAP2 SWAP1 PUSH2 0x1D46 JUMP JUMPDEST SWAP3 POP JUMPDEST DUP1 PUSH2 0x15E5 SWAP1 PUSH2 0x1E78 JUMP JUMPDEST SWAP1 POP PUSH2 0x1573 JUMP JUMPDEST POP DUP4 PUSH1 0x3 PUSH2 0x15FA SWAP2 SWAP1 PUSH2 0x1C6D JUMP JUMPDEST DUP7 DUP4 PUSH2 0x1606 SWAP2 SWAP1 PUSH2 0x1C6D JUMP JUMPDEST PUSH2 0x1610 SWAP2 SWAP1 PUSH2 0x1D46 JUMP JUMPDEST SWAP2 POP PUSH1 0x0 DUP5 DUP8 PUSH2 0x1620 SWAP2 SWAP1 PUSH2 0x1D46 JUMP JUMPDEST DUP5 PUSH2 0x162B SWAP2 SWAP1 PUSH2 0x1CAF JUMP JUMPDEST SWAP1 POP PUSH1 0x0 DUP1 DUP9 SWAP1 POP PUSH1 0x0 JUMPDEST PUSH1 0xFF DUP2 LT ISZERO PUSH2 0x16BA JUMPI DUP2 SWAP3 POP DUP10 DUP5 DUP4 PUSH1 0x2 PUSH2 0x1651 SWAP2 SWAP1 PUSH2 0x1C6D JUMP JUMPDEST PUSH2 0x165B SWAP2 SWAP1 PUSH2 0x1CAF JUMP JUMPDEST PUSH2 0x1665 SWAP2 SWAP1 PUSH2 0x1CE3 JUMP JUMPDEST DUP7 DUP4 DUP5 PUSH2 0x1672 SWAP2 SWAP1 PUSH2 0x1C6D JUMP JUMPDEST PUSH2 0x167C SWAP2 SWAP1 PUSH2 0x1CAF JUMP JUMPDEST PUSH2 0x1686 SWAP2 SWAP1 PUSH2 0x1D46 JUMP JUMPDEST SWAP2 POP PUSH1 0x1 PUSH2 0x1694 DUP4 DUP6 PUSH2 0x148E JUMP JUMPDEST GT PUSH2 0x16A9 JUMPI DUP2 SWAP9 POP POP POP POP POP POP POP POP POP PUSH2 0x16F6 JUMP JUMPDEST DUP1 PUSH2 0x16B3 SWAP1 PUSH2 0x1E78 JUMP JUMPDEST SWAP1 POP PUSH2 0x1636 JUMP JUMPDEST POP PUSH1 0x40 MLOAD PUSH32 0x8C379A000000000000000000000000000000000000000000000000000000000 DUP2 MSTORE PUSH1 0x4 ADD PUSH2 0x16ED SWAP1 PUSH2 0x2162 JUMP JUMPDEST PUSH1 0x40 MLOAD DUP1 SWAP2 SUB SWAP1 REVERT JUMPDEST SWAP4 SWAP3 POP POP POP JUMP JUMPDEST PUSH1 0x40 MLOAD DUP1 PUSH1 0x60 ADD PUSH1 0x40 MSTORE DUP1 PUSH1 0x3 SWAP1 PUSH1 0x20 DUP3 MUL DUP1 CALLDATASIZE DUP4 CALLDATACOPY DUP1 DUP3 ADD SWAP2 POP POP SWAP1 POP POP SWAP1 JUMP JUMPDEST PUSH1 0x0 DUP2 SWAP1 POP SWAP2 SWAP1 POP JUMP JUMPDEST PUSH2 0x1732 DUP2 PUSH2 0x171F JUMP JUMPDEST DUP3 MSTORE POP POP JUMP JUMPDEST PUSH1 0x0 PUSH1 0x20 DUP3 ADD SWAP1 POP PUSH2 0x174D PUSH1 0x0 DUP4 ADD DUP5 PUSH2 0x1729 JUMP JUMPDEST SWAP3 SWAP2 POP POP JUMP JUMPDEST PUSH1 0x0 DUP1 REVERT JUMPDEST PUSH2 0x1761 DUP2 PUSH2 0x171F JUMP JUMPDEST DUP2 EQ PUSH2 0x176C JUMPI PUSH1 0x0 DUP1 REVERT JUMPDEST POP JUMP JUMPDEST PUSH1 0x0 DUP2 CALLDATALOAD SWAP1 POP PUSH2 0x177E DUP2 PUSH2 0x1758 JUMP JUMPDEST SWAP3 SWAP2 POP POP JUMP JUMPDEST PUSH1 0x0 PUSH1 0x20 DUP3 DUP5 SUB SLT ISZERO PUSH2 0x179A JUMPI PUSH2 0x1799 PUSH2 0x1753 JUMP JUMPDEST JUMPDEST PUSH1 0x0 PUSH2 0x17A8 DUP5 DUP3 DUP6 ADD PUSH2 0x176F JUMP JUMPDEST SWAP2 POP POP SWAP3 SWAP2 POP POP JUMP JUMPDEST PUSH1 0x0 PUSH20 0xFFFFFFFFFFFFFFFFFFFFFFFFFFFFFFFFFFFFFFFF DUP3 AND SWAP1 POP SWAP2 SWAP1 POP JUMP JUMPDEST PUSH1 0x0 PUSH2 0x17DC DUP3 PUSH2 0x17B1 JUMP JUMPDEST SWAP1 POP SWAP2 SWAP1 POP JUMP JUMPDEST PUSH2 0x17EC DUP2 PUSH2 0x17D1 JUMP JUMPDEST DUP3 MSTORE POP POP JUMP JUMPDEST PUSH1 0x0 PUSH1 0x20 DUP3 ADD SWAP1 POP PUSH2 0x1807 PUSH1 0x0 DUP4 ADD DUP5 PUSH2 0x17E3 JUMP JUMPDEST SWAP3 SWAP2 POP POP JUMP JUMPDEST PUSH1 0x0 DUP1 PUSH1 0x0 DUP1 PUSH1 0x80 DUP6 DUP8 SUB SLT ISZERO PUSH2 0x1827 JUMPI PUSH2 0x1826 PUSH2 0x1753 JUMP JUMPDEST JUMPDEST PUSH1 0x0 PUSH2 0x1835 DUP8 DUP3 DUP9 ADD PUSH2 0x176F JUMP JUMPDEST SWAP5 POP POP PUSH1 0x20 PUSH2 0x1846 DUP8 DUP3 DUP9 ADD PUSH2 0x176F JUMP JUMPDEST SWAP4 POP POP PUSH1 0x40 PUSH2 0x1857 DUP8 DUP3 DUP9 ADD PUSH2 0x176F JUMP JUMPDEST SWAP3 POP POP PUSH1 0x60 PUSH2 0x1868 DUP8 DUP3 DUP9 ADD PUSH2 0x176F JUMP JUMPDEST SWAP2 POP POP SWAP3 SWAP6 SWAP2 SWAP5 POP SWAP3 POP JUMP JUMPDEST PUSH1 0x0 DUP1 PUSH1 0x0 PUSH1 0x60 DUP5 DUP7 SUB SLT ISZERO PUSH2 0x188D JUMPI PUSH2 0x188C PUSH2 0x1753 JUMP JUMPDEST JUMPDEST PUSH1 0x0 PUSH2 0x189B DUP7 DUP3 DUP8 ADD PUSH2 0x176F JUMP JUMPDEST SWAP4 POP POP PUSH1 0x20 PUSH2 0x18AC DUP7 DUP3 DUP8 ADD PUSH2 0x176F JUMP JUMPDEST SWAP3 POP POP PUSH1 0x40 PUSH2 0x18BD DUP7 DUP3 DUP8 ADD PUSH2 0x176F JUMP JUMPDEST SWAP2 POP POP SWAP3 POP SWAP3 POP SWAP3 JUMP JUMPDEST PUSH2 0x18D0 DUP2 PUSH2 0x17D1 JUMP JUMPDEST DUP2 EQ PUSH2 0x18DB JUMPI PUSH1 0x0 DUP1 REVERT JUMPDEST POP JUMP JUMPDEST PUSH1 0x0 DUP2 CALLDATALOAD SWAP1 POP PUSH2 0x18ED DUP2 PUSH2 0x18C7 JUMP JUMPDEST SWAP3 SWAP2 POP POP JUMP JUMPDEST PUSH1 0x0 PUSH1 0x20 DUP3 DUP5 SUB SLT ISZERO PUSH2 0x1909 JUMPI PUSH2 0x1908 PUSH2 0x1753 JUMP JUMPDEST JUMPDEST PUSH1 0x0 PUSH2 0x1917 DUP5 DUP3 DUP6 ADD PUSH2 0x18DE JUMP JUMPDEST SWAP2 POP POP SWAP3 SWAP2 POP POP JUMP JUMPDEST PUSH1 0x0 DUP1 REVERT JUMPDEST PUSH1 0x0 DUP2 SWAP1 POP DUP3 PUSH1 0x20 PUSH1 0x3 MUL DUP3 ADD GT ISZERO PUSH2 0x1941 JUMPI PUSH2 0x1940 PUSH2 0x1920 JUMP JUMPDEST JUMPDEST SWAP3 SWAP2 POP POP JUMP JUMPDEST PUSH1 0x0 DUP1 PUSH1 0x80 DUP4 DUP6 SUB SLT ISZERO PUSH2 0x195E JUMPI PUSH2 0x195D PUSH2 0x1753 JUMP JUMPDEST JUMPDEST PUSH1 0x0 PUSH2 0x196C DUP6 DUP3 DUP7 ADD PUSH2 0x1925 JUMP JUMPDEST SWAP3 POP POP PUSH1 0x60 PUSH2 0x197D DUP6 DUP3 DUP7 ADD PUSH2 0x176F JUMP JUMPDEST SWAP2 POP POP SWAP3 POP SWAP3 SWAP1 POP JUMP JUMPDEST PUSH1 0x0 DUP1 PUSH1 0x40 DUP4 DUP6 SUB SLT ISZERO PUSH2 0x199E JUMPI PUSH2 0x199D PUSH2 0x1753 JUMP JUMPDEST JUMPDEST PUSH1 0x0 PUSH2 0x19AC DUP6 DUP3 DUP7 ADD PUSH2 0x176F JUMP JUMPDEST SWAP3 POP POP PUSH1 0x20 PUSH2 0x19BD DUP6 DUP3 DUP7 ADD PUSH2 0x176F JUMP JUMPDEST SWAP2 POP POP SWAP3 POP SWAP3 SWAP1 POP JUMP JUMPDEST PUSH1 0x0 PUSH1 0x40 DUP3 ADD SWAP1 POP PUSH2 0x19DC PUSH1 0x0 DUP4 ADD DUP6 PUSH2 0x1729 JUMP JUMPDEST PUSH2 0x19E9 PUSH1 0x20 DUP4 ADD DUP5 PUSH2 0x1729 JUMP JUMPDEST SWAP4 SWAP3 POP POP POP JUMP JUMPDEST PUSH1 0x0 DUP1 PUSH1 0x80 DUP4 DUP6 SUB SLT ISZERO PUSH2 0x1A07 JUMPI PUSH2 0x1A06 PUSH2 0x1753 JUMP JUMPDEST JUMPDEST PUSH1 0x0 PUSH2 0x1A15 DUP6 DUP3 DUP7 ADD PUSH2 0x176F JUMP JUMPDEST SWAP3 POP POP PUSH1 0x20 PUSH2 0x1A26 DUP6 DUP3 DUP7 ADD PUSH2 0x1925 JUMP JUMPDEST SWAP2 POP POP SWAP3 POP SWAP3 SWAP1 POP JUMP JUMPDEST PUSH1 0x0 PUSH1 0x3 SWAP1 POP SWAP2 SWAP1 POP JUMP JUMPDEST PUSH1 0x0 DUP2 SWAP1 POP SWAP3 SWAP2 POP POP JUMP JUMPDEST PUSH1 0x0 DUP2 SWAP1 POP SWAP2 SWAP1 POP JUMP JUMPDEST PUSH2 0x1A59 DUP2 PUSH2 0x171F JUMP JUMPDEST DUP3 MSTORE POP POP JUMP JUMPDEST PUSH1 0x0 PUSH2 0x1A6B DUP4 DUP4 PUSH2 0x1A50 JUMP JUMPDEST PUSH1 0x20 DUP4 ADD SWAP1 POP SWAP3 SWAP2 POP POP JUMP JUMPDEST PUSH1 0x0 PUSH1 0x20 DUP3 ADD SWAP1 POP SWAP2 SWAP1 POP JUMP JUMPDEST PUSH2 0x1A8D DUP2 PUSH2 0x1A30 JUMP JUMPDEST PUSH2 0x1A97 DUP2 DUP5 PUSH2 0x1A3B JUMP JUMPDEST SWAP3 POP PUSH2 0x1AA2 DUP3 PUSH2 0x1A46 JUMP JUMPDEST DUP1 PUSH1 0x0 JUMPDEST DUP4 DUP2 LT ISZERO PUSH2 0x1AD3 JUMPI DUP2 MLOAD PUSH2 0x1ABA DUP8 DUP3 PUSH2 0x1A5F JUMP JUMPDEST SWAP7 POP PUSH2 0x1AC5 DUP4 PUSH2 0x1A77 JUMP JUMPDEST SWAP3 POP POP PUSH1 0x1 DUP2 ADD SWAP1 POP PUSH2 0x1AA6 JUMP JUMPDEST POP POP POP POP POP POP JUMP JUMPDEST PUSH1 0x0 PUSH1 0x60 DUP3 ADD SWAP1 POP PUSH2 0x1AF0 PUSH1 0x0 DUP4 ADD DUP5 PUSH2 0x1A84 JUMP JUMPDEST SWAP3 SWAP2 POP POP JUMP JUMPDEST PUSH1 0x0 DUP3 DUP3 MSTORE PUSH1 0x20 DUP3 ADD SWAP1 POP SWAP3 SWAP2 POP POP JUMP JUMPDEST PUSH32 0x69203D206A000000000000000000000000000000000000000000000000000000 PUSH1 0x0 DUP3 ADD MSTORE POP JUMP JUMPDEST PUSH1 0x0 PUSH2 0x1B3D PUSH1 0x5 DUP4 PUSH2 0x1AF6 JUMP JUMPDEST SWAP2 POP PUSH2 0x1B48 DUP3 PUSH2 0x1B07 JUMP JUMPDEST PUSH1 0x20 DUP3 ADD SWAP1 POP SWAP2 SWAP1 POP JUMP JUMPDEST PUSH1 0x0 PUSH1 0x20 DUP3 ADD SWAP1 POP DUP2 DUP2 SUB PUSH1 0x0 DUP4 ADD MSTORE PUSH2 0x1B6C DUP2 PUSH2 0x1B30 JUMP JUMPDEST SWAP1 POP SWAP2 SWAP1 POP JUMP JUMPDEST PUSH32 0x4E487B7100000000000000000000000000000000000000000000000000000000 PUSH1 0x0 MSTORE PUSH1 0x32 PUSH1 0x4 MSTORE PUSH1 0x24 PUSH1 0x0 REVERT JUMPDEST PUSH1 0x0 PUSH1 0x60 DUP3 ADD SWAP1 POP PUSH2 0x1BB7 PUSH1 0x0 DUP4 ADD DUP7 PUSH2 0x17E3 JUMP JUMPDEST PUSH2 0x1BC4 PUSH1 0x20 DUP4 ADD DUP6 PUSH2 0x17E3 JUMP JUMPDEST PUSH2 0x1BD1 PUSH1 0x40 DUP4 ADD DUP5 PUSH2 0x1729 JUMP JUMPDEST SWAP5 SWAP4 POP POP POP POP JUMP JUMPDEST PUSH1 0x0 DUP2 ISZERO ISZERO SWAP1 POP SWAP2 SWAP1 POP JUMP JUMPDEST PUSH2 0x1BEE DUP2 PUSH2 0x1BD9 JUMP JUMPDEST DUP2 EQ PUSH2 0x1BF9 JUMPI PUSH1 0x0 DUP1 REVERT JUMPDEST POP JUMP JUMPDEST PUSH1 0x0 DUP2 MLOAD SWAP1 POP PUSH2 0x1C0B DUP2 PUSH2 0x1BE5 JUMP JUMPDEST SWAP3 SWAP2 POP POP JUMP JUMPDEST PUSH1 0x0 PUSH1 0x20 DUP3 DUP5 SUB SLT ISZERO PUSH2 0x1C27 JUMPI PUSH2 0x1C26 PUSH2 0x1753 JUMP JUMPDEST JUMPDEST PUSH1 0x0 PUSH2 0x1C35 DUP5 DUP3 DUP6 ADD PUSH2 0x1BFC JUMP JUMPDEST SWAP2 POP POP SWAP3 SWAP2 POP POP JUMP JUMPDEST PUSH32 0x4E487B7100000000000000000000000000000000000000000000000000000000 PUSH1 0x0 MSTORE PUSH1 0x11 PUSH1 0x4 MSTORE PUSH1 0x24 PUSH1 0x0 REVERT JUMPDEST PUSH1 0x0 PUSH2 0x1C78 DUP3 PUSH2 0x171F JUMP JUMPDEST SWAP2 POP PUSH2 0x1C83 DUP4 PUSH2 0x171F JUMP JUMPDEST SWAP3 POP DUP3 DUP3 MUL PUSH2 0x1C91 DUP2 PUSH2 0x171F JUMP JUMPDEST SWAP2 POP DUP3 DUP3 DIV DUP5 EQ DUP4 ISZERO OR PUSH2 0x1CA8 JUMPI PUSH2 0x1CA7 PUSH2 0x1C3E JUMP JUMPDEST JUMPDEST POP SWAP3 SWAP2 POP POP JUMP JUMPDEST PUSH1 0x0 PUSH2 0x1CBA DUP3 PUSH2 0x171F JUMP JUMPDEST SWAP2 POP PUSH2 0x1CC5 DUP4 PUSH2 0x171F JUMP JUMPDEST SWAP3 POP DUP3 DUP3 ADD SWAP1 POP DUP1 DUP3 GT ISZERO PUSH2 0x1CDD JUMPI PUSH2 0x1CDC PUSH2 0x1C3E JUMP JUMPDEST JUMPDEST SWAP3 SWAP2 POP POP JUMP JUMPDEST PUSH1 0x0 PUSH2 0x1CEE DUP3 PUSH2 0x171F JUMP JUMPDEST SWAP2 POP PUSH2 0x1CF9 DUP4 PUSH2 0x171F JUMP JUMPDEST SWAP3 POP DUP3 DUP3 SUB SWAP1 POP DUP2 DUP2 GT ISZERO PUSH2 0x1D11 JUMPI PUSH2 0x1D10 PUSH2 0x1C3E JUMP JUMPDEST JUMPDEST SWAP3 SWAP2 POP POP JUMP JUMPDEST PUSH32 0x4E487B7100000000000000000000000000000000000000000000000000000000 PUSH1 0x0 MSTORE PUSH1 0x12 PUSH1 0x4 MSTORE PUSH1 0x24 PUSH1 0x0 REVERT JUMPDEST PUSH1 0x0 PUSH2 0x1D51 DUP3 PUSH2 0x171F JUMP JUMPDEST SWAP2 POP PUSH2 0x1D5C DUP4 PUSH2 0x171F JUMP JUMPDEST SWAP3 POP DUP3 PUSH2 0x1D6C JUMPI PUSH2 0x1D6B PUSH2 0x1D17 JUMP JUMPDEST JUMPDEST DUP3 DUP3 DIV SWAP1 POP SWAP3 SWAP2 POP POP JUMP JUMPDEST PUSH32 0x6479203C206D696E000000000000000000000000000000000000000000000000 PUSH1 0x0 DUP3 ADD MSTORE POP JUMP JUMPDEST PUSH1 0x0 PUSH2 0x1DAD PUSH1 0x8 DUP4 PUSH2 0x1AF6 JUMP JUMPDEST SWAP2 POP PUSH2 0x1DB8 DUP3 PUSH2 0x1D77 JUMP JUMPDEST PUSH1 0x20 DUP3 ADD SWAP1 POP SWAP2 SWAP1 POP JUMP JUMPDEST PUSH1 0x0 PUSH1 0x20 DUP3 ADD SWAP1 POP DUP2 DUP2 SUB PUSH1 0x0 DUP4 ADD MSTORE PUSH2 0x1DDC DUP2 PUSH2 0x1DA0 JUMP JUMPDEST SWAP1 POP SWAP2 SWAP1 POP JUMP JUMPDEST PUSH1 0x0 PUSH1 0x40 DUP3 ADD SWAP1 POP PUSH2 0x1DF8 PUSH1 0x0 DUP4 ADD DUP6 PUSH2 0x17E3 JUMP JUMPDEST PUSH2 0x1E05 PUSH1 0x20 DUP4 ADD DUP5 PUSH2 0x1729 JUMP JUMPDEST SWAP4 SWAP3 POP POP POP JUMP JUMPDEST PUSH32 0x6F7574203C206D696E0000000000000000000000000000000000000000000000 PUSH1 0x0 DUP3 ADD MSTORE POP JUMP JUMPDEST PUSH1 0x0 PUSH2 0x1E42 PUSH1 0x9 DUP4 PUSH2 0x1AF6 JUMP JUMPDEST SWAP2 POP PUSH2 0x1E4D DUP3 PUSH2 0x1E0C JUMP JUMPDEST PUSH1 0x20 DUP3 ADD SWAP1 POP SWAP2 SWAP1 POP JUMP JUMPDEST PUSH1 0x0 PUSH1 0x20 DUP3 ADD SWAP1 POP DUP2 DUP2 SUB PUSH1 0x0 DUP4 ADD MSTORE PUSH2 0x1E71 DUP2 PUSH2 0x1E35 JUMP JUMPDEST SWAP1 POP SWAP2 SWAP1 POP JUMP JUMPDEST PUSH1 0x0 PUSH2 0x1E83 DUP3 PUSH2 0x171F JUMP JUMPDEST SWAP2 POP PUSH32 0xFFFFFFFFFFFFFFFFFFFFFFFFFFFFFFFFFFFFFFFFFFFFFFFFFFFFFFFFFFFFFFFF DUP3 SUB PUSH2 0x1EB5 JUMPI PUSH2 0x1EB4 PUSH2 0x1C3E JUMP JUMPDEST JUMPDEST PUSH1 0x1 DUP3 ADD SWAP1 POP SWAP2 SWAP1 POP JUMP JUMPDEST PUSH32 0x6C6971756964697479206469646E277420696E63726561736500000000000000 PUSH1 0x0 DUP3 ADD MSTORE POP JUMP JUMPDEST PUSH1 0x0 PUSH2 0x1EF6 PUSH1 0x19 DUP4 PUSH2 0x1AF6 JUMP JUMPDEST SWAP2 POP PUSH2 0x1F01 DUP3 PUSH2 0x1EC0 JUMP JUMPDEST PUSH1 0x20 DUP3 ADD SWAP1 POP SWAP2 SWAP1 POP JUMP JUMPDEST PUSH1 0x0 PUSH1 0x20 DUP3 ADD SWAP1 POP DUP2 DUP2 SUB PUSH1 0x0 DUP4 ADD MSTORE PUSH2 0x1F25 DUP2 PUSH2 0x1EE9 JUMP JUMPDEST SWAP1 POP SWAP2 SWAP1 POP JUMP JUMPDEST PUSH32 0x736861726573203C206D696E0000000000000000000000000000000000000000 PUSH1 0x0 DUP3 ADD MSTORE POP JUMP JUMPDEST PUSH1 0x0 PUSH2 0x1F62 PUSH1 0xC DUP4 PUSH2 0x1AF6 JUMP JUMPDEST SWAP2 POP PUSH2 0x1F6D DUP3 PUSH2 0x1F2C JUMP JUMPDEST PUSH1 0x20 DUP3 ADD SWAP1 POP SWAP2 SWAP1 POP JUMP JUMPDEST PUSH1 0x0 PUSH1 0x20 DUP3 ADD SWAP1 POP DUP2 DUP2 SUB PUSH1 0x0 DUP4 ADD MSTORE PUSH2 0x1F91 DUP2 PUSH2 0x1F55 JUMP JUMPDEST SWAP1 POP SWAP2 SWAP1 POP JUMP JUMPDEST PUSH1 0x0 DUP2 PUSH1 0x1 SHR SWAP1 POP SWAP2 SWAP1 POP JUMP JUMPDEST PUSH1 0x0 DUP1 DUP3 SWAP2 POP DUP4 SWAP1 POP JUMPDEST PUSH1 0x1 DUP6 GT ISZERO PUSH2 0x1FEF JUMPI DUP1 DUP7 DIV DUP2 GT ISZERO PUSH2 0x1FCB JUMPI PUSH2 0x1FCA PUSH2 0x1C3E JUMP JUMPDEST JUMPDEST PUSH1 0x1 DUP6 AND ISZERO PUSH2 0x1FDA JUMPI DUP1 DUP3 MUL SWAP2 POP JUMPDEST DUP1 DUP2 MUL SWAP1 POP PUSH2 0x1FE8 DUP6 PUSH2 0x1F98 JUMP JUMPDEST SWAP5 POP PUSH2 0x1FAF JUMP JUMPDEST SWAP5 POP SWAP5 SWAP3 POP POP POP JUMP JUMPDEST PUSH1 0x0 DUP3 PUSH2 0x2008 JUMPI PUSH1 0x1 SWAP1 POP PUSH2 0x20C4 JUMP JUMPDEST DUP2 PUSH2 0x2016 JUMPI PUSH1 0x0 SWAP1 POP PUSH2 0x20C4 JUMP JUMPDEST DUP2 PUSH1 0x1 DUP2 EQ PUSH2 0x202C JUMPI PUSH1 0x2 DUP2 EQ PUSH2 0x2036 JUMPI PUSH2 0x2065 JUMP JUMPDEST PUSH1 0x1 SWAP2 POP POP PUSH2 0x20C4 JUMP JUMPDEST PUSH1 0xFF DUP5 GT ISZERO PUSH2 0x2048 JUMPI PUSH2 0x2047 PUSH2 0x1C3E JUMP JUMPDEST JUMPDEST DUP4 PUSH1 0x2 EXP SWAP2 POP DUP5 DUP3 GT ISZERO PUSH2 0x205F JUMPI PUSH2 0x205E PUSH2 0x1C3E JUMP JUMPDEST JUMPDEST POP PUSH2 0x20C4 JUMP JUMPDEST POP PUSH1 0x20 DUP4 LT PUSH2 0x133 DUP4 LT AND PUSH1 0x4E DUP5 LT PUSH1 0xB DUP5 LT AND OR ISZERO PUSH2 0x209A JUMPI DUP3 DUP3 EXP SWAP1 POP DUP4 DUP2 GT ISZERO PUSH2 0x2095 JUMPI PUSH2 0x2094 PUSH2 0x1C3E JUMP JUMPDEST JUMPDEST PUSH2 0x20C4 JUMP JUMPDEST PUSH2 0x20A7 DUP5 DUP5 DUP5 PUSH1 0x1 PUSH2 0x1FA5 JUMP JUMPDEST SWAP3 POP SWAP1 POP DUP2 DUP5 DIV DUP2 GT ISZERO PUSH2 0x20BE JUMPI PUSH2 0x20BD PUSH2 0x1C3E JUMP JUMPDEST JUMPDEST DUP2 DUP2 MUL SWAP1 POP JUMPDEST SWAP4 SWAP3 POP POP POP JUMP JUMPDEST PUSH1 0x0 PUSH2 0x20D6 DUP3 PUSH2 0x171F JUMP JUMPDEST SWAP2 POP PUSH2 0x20E1 DUP4 PUSH2 0x171F JUMP JUMPDEST SWAP3 POP PUSH2 0x210E PUSH32 0xFFFFFFFFFFFFFFFFFFFFFFFFFFFFFFFFFFFFFFFFFFFFFFFFFFFFFFFFFFFFFFFF DUP5 DUP5 PUSH2 0x1FF8 JUMP JUMPDEST SWAP1 POP SWAP3 SWAP2 POP POP JUMP JUMPDEST PUSH32 0x79206469646E277420636F6E7665726765000000000000000000000000000000 PUSH1 0x0 DUP3 ADD MSTORE POP JUMP JUMPDEST PUSH1 0x0 PUSH2 0x214C PUSH1 0x11 DUP4 PUSH2 0x1AF6 JUMP JUMPDEST SWAP2 POP PUSH2 0x2157 DUP3 PUSH2 0x2116 JUMP JUMPDEST PUSH1 0x20 DUP3 ADD SWAP1 POP SWAP2 SWAP1 POP JUMP JUMPDEST PUSH1 0x0 PUSH1 0x20 DUP3 ADD SWAP1 POP DUP2 DUP2 SUB PUSH1 0x0 DUP4 ADD MSTORE PUSH2 0x217B DUP2 PUSH2 0x213F JUMP JUMPDEST SWAP1 POP SWAP2 SWAP1 POP JUMP JUMPDEST PUSH32 0x44206469646E277420636F6E7665726765000000000000000000000000000000 PUSH1 0x0 DUP3 ADD MSTORE POP JUMP JUMPDEST PUSH1 0x0 PUSH2 0x21B8 PUSH1 0x11 DUP4 PUSH2 0x1AF6 JUMP JUMPDEST SWAP2 POP PUSH2 0x21C3 DUP3 PUSH2 0x2182 JUMP JUMPDEST PUSH1 0x20 DUP3 ADD SWAP1 POP SWAP2 SWAP1 POP JUMP JUMPDEST PUSH1 0x0 PUSH1 0x20 DUP3 ADD SWAP1 POP DUP2 DUP2 SUB PUSH1 0x0 DUP4 ADD MSTORE PUSH2 0x21E7 DUP2 PUSH2 0x21AB JUMP JUMPDEST SWAP1 POP SWAP2 SWAP1 POP JUMP INVALID LOG2 PUSH5 0x6970667358 0x22 SLT KECCAK256 CALLVALUE CHAINID 0x26 0xE5 REVERT SHR XOR 0x2C SWAP4 0x25 0xDF 0xCE SHR 0xBF 0x4A 0xAB LOG2 0xB4 0xD8 PUSH6 0xCAA9F7B886C8 0xAB LOG3 PUSH7 0x565E0E64736F6C PUSH4 0x43000811 STOP CALLER "
		},
		"gasEstimates": {
			"creation": {
				"codeDepositCost": "1748000",
				"executionCost": "infinite",
				"totalCost": "infinite"
			},
			"external": {
				"addLiquidity(uint256[3],uint256)": "infinite",
				"balanceOf(address)": "2814",
				"balances(uint256)": "infinite",
				"calcWithdrawOneToken(uint256,uint256)": "infinite",
				"getVirtualPrice()": "infinite",
				"removeLiquidity(uint256,uint256[3])": "infinite",
				"removeLiquidityOneToken(uint256,uint256,uint256)": "infinite",
				"swap(uint256,uint256,uint256,uint256)": "infinite",
				"tokens(uint256)": "2850",
				"totalSupply()": "2430"
			},
			"internal": {
				"_burn(address,uint256)": "infinite",
				"_calcWithdrawOneToken(uint256,uint256)": "infinite",
				"_getD(uint256[3] memory)": "infinite",
				"_getY(uint256,uint256,uint256,uint256[3] memory)": "infinite",
				"_getYD(uint256,uint256[3] memory,uint256)": "infinite",
				"_mint(address,uint256)": "infinite",
				"_xp()": "infinite"
			}
		},
		"methodIdentifiers": {
			"addLiquidity(uint256[3],uint256)": "a4bf0446",
			"balanceOf(address)": "70a08231",
			"balances(uint256)": "4903b0d1",
			"calcWithdrawOneToken(uint256,uint256)": "a60dc3b1",
			"getVirtualPrice()": "e25aa5fa",
			"removeLiquidity(uint256,uint256[3])": "d035862c",
			"removeLiquidityOneToken(uint256,uint256,uint256)": "7066b5b2",
			"swap(uint256,uint256,uint256,uint256)": "5673b02d",
			"tokens(uint256)": "4f64b2be",
			"totalSupply()": "18160ddd"
		}
	},
	"abi": [
		{
			"inputs": [
				{
					"internalType": "uint256[3]",
					"name": "amounts",
					"type": "uint256[3]"
				},
				{
					"internalType": "uint256",
					"name": "minShares",
					"type": "uint256"
				}
			],
			"name": "addLiquidity",
			"outputs": [
				{
					"internalType": "uint256",
					"name": "shares",
					"type": "uint256"
				}
			],
			"stateMutability": "nonpayable",
			"type": "function"
		},
		{
			"inputs": [
				{
					"internalType": "address",
					"name": "",
					"type": "address"
				}
			],
			"name": "balanceOf",
			"outputs": [
				{
					"internalType": "uint256",
					"name": "",
					"type": "uint256"
				}
			],
			"stateMutability": "view",
			"type": "function"
		},
		{
			"inputs": [
				{
					"internalType": "uint256",
					"name": "",
					"type": "uint256"
				}
			],
			"name": "balances",
			"outputs": [
				{
					"internalType": "uint256",
					"name": "",
					"type": "uint256"
				}
			],
			"stateMutability": "view",
			"type": "function"
		},
		{
			"inputs": [
				{
					"internalType": "uint256",
					"name": "shares",
					"type": "uint256"
				},
				{
					"internalType": "uint256",
					"name": "i",
					"type": "uint256"
				}
			],
			"name": "calcWithdrawOneToken",
			"outputs": [
				{
					"internalType": "uint256",
					"name": "dy",
					"type": "uint256"
				},
				{
					"internalType": "uint256",
					"name": "fee",
					"type": "uint256"
				}
			],
			"stateMutability": "view",
			"type": "function"
		},
		{
			"inputs": [],
			"name": "getVirtualPrice",
			"outputs": [
				{
					"internalType": "uint256",
					"name": "",
					"type": "uint256"
				}
			],
			"stateMutability": "view",
			"type": "function"
		},
		{
			"inputs": [
				{
					"internalType": "uint256",
					"name": "shares",
					"type": "uint256"
				},
				{
					"internalType": "uint256[3]",
					"name": "minAmountsOut",
					"type": "uint256[3]"
				}
			],
			"name": "removeLiquidity",
			"outputs": [
				{
					"internalType": "uint256[3]",
					"name": "amountsOut",
					"type": "uint256[3]"
				}
			],
			"stateMutability": "nonpayable",
			"type": "function"
		},
		{
			"inputs": [
				{
					"internalType": "uint256",
					"name": "shares",
					"type": "uint256"
				},
				{
					"internalType": "uint256",
					"name": "i",
					"type": "uint256"
				},
				{
					"internalType": "uint256",
					"name": "minAmountOut",
					"type": "uint256"
				}
			],
			"name": "removeLiquidityOneToken",
			"outputs": [
				{
					"internalType": "uint256",
					"name": "amountOut",
					"type": "uint256"
				}
			],
			"stateMutability": "nonpayable",
			"type": "function"
		},
		{
			"inputs": [
				{
					"internalType": "uint256",
					"name": "i",
					"type": "uint256"
				},
				{
					"internalType": "uint256",
					"name": "j",
					"type": "uint256"
				},
				{
					"internalType": "uint256",
					"name": "dx",
					"type": "uint256"
				},
				{
					"internalType": "uint256",
					"name": "minDy",
					"type": "uint256"
				}
			],
			"name": "swap",
			"outputs": [
				{
					"internalType": "uint256",
					"name": "dy",
					"type": "uint256"
				}
			],
			"stateMutability": "nonpayable",
			"type": "function"
		},
		{
			"inputs": [
				{
					"internalType": "uint256",
					"name": "",
					"type": "uint256"
				}
			],
			"name": "tokens",
			"outputs": [
				{
					"internalType": "address",
					"name": "",
					"type": "address"
				}
			],
			"stateMutability": "view",
			"type": "function"
		},
		{
			"inputs": [],
			"name": "totalSupply",
			"outputs": [
				{
					"internalType": "uint256",
					"name": "",
					"type": "uint256"
				}
			],
			"stateMutability": "view",
			"type": "function"
		}
	]
}