{
	"data": {
		"bytecode": {
			"linkReferences": {},
			"object": "60806040527f800000000000000000000000000000000000000000000000000000000000000060045534801561003457600080fd5b506000808190555061082d8061004b6000396000f3fe608060405234801561001057600080fd5b50600436106100a85760003560e01c80638475c028116100715780638475c028146101415780638c74ddb01461015f578063a68ebe8814610169578063b15c128e14610173578063e6f334d71461018f578063f852be69146101ad576100a8565b806281fe1a146100ad57806304ac3f91146100b75780633fa21806146100e75780635ac947cb146101055780635d06228b14610123575b600080fd5b6100b56101cb565b005b6100d160048036038101906100cc91906105cf565b610240565b6040516100de919061063f565b60405180910390f35b6100ef610302565b6040516100fc919061065a565b60405180910390f35b61010d610308565b60405161011a919061065a565b60405180910390f35b61012b61030e565b604051610138919061063f565b60405180910390f35b6101496103e5565b604051610156919061063f565b60405180910390f35b6101676103f8565b005b610171610405565b005b61018d600480360381019061018891906105a6565b61045d565b005b61019761055b565b6040516101a4919061065a565b60405180910390f35b6101b5610561565b6040516101c2919061065a565b60405180910390f35b6001436101d891906106a6565b4060001c6003819055506004546003546101f29190610675565b60028190555060016002541461020957600061020c565b60015b600560006101000a81548160ff02191690831515021790555061023d600560009054906101000a900460ff16610240565b50565b600060014361024f91906106a6565b4060001c600381905550600354600154141561026a57600080fd5b6003546001819055506004546003546102839190610675565b60028190555060016002541461029a57600061029d565b60015b600560006101000a81548160ff021916908315150217905550811515600560009054906101000a900460ff16151514156102f1576000808154809291906102e390610722565b9190505550600190506102fd565b60008081905550600090505b919050565b60015481565b60025481565b600060014361031d91906106a6565b4060001c6003819055506003546001819055506004546003546103409190610675565b60028190555060016002541461035757600061035a565b60015b600560006101000a81548160ff021916908315150217905550600560009054906101000a900460ff16156103b7576103926001610240565b506000600560006101000a81548160ff021916908315150217905550600190506103e2565b6103c16001610240565b506001600560006101000a81548160ff021916908315150217905550600090505b90565b600560009054906101000a900460ff1681565b6104026001610240565b50565b60014361041291906106a6565b4060001c6003819055506003546001819055506004546003546104359190610675565b60028190555060016002541015610456576104506000610240565b5061045b565b600080fd5b565b600081905060014361046f91906106a6565b4060001c6003819055506004546003546104899190610675565b6002819055506001600254146104a05760006104a3565b60015b600560006101000a81548160ff0219169083151502179055508073ffffffffffffffffffffffffffffffffffffffff16631d263f67600560009054906101000a900460ff166040518263ffffffff1660e01b8152600401610504919061063f565b602060405180830381600087803b15801561051e57600080fd5b505af1158015610532573d6000803e3d6000fd5b505050506040513d601f19601f8201168201806040525081019061055691906105f8565b505050565b60005481565b60035481565b600081359050610576816107c9565b92915050565b60008135905061058b816107e0565b92915050565b6000815190506105a0816107e0565b92915050565b6000602082840312156105b857600080fd5b60006105c684828501610567565b91505092915050565b6000602082840312156105e157600080fd5b60006105ef8482850161057c565b91505092915050565b60006020828403121561060a57600080fd5b600061061884828501610591565b91505092915050565b61062a816106ec565b82525050565b61063981610718565b82525050565b60006020820190506106546000830184610621565b92915050565b600060208201905061066f6000830184610630565b92915050565b600061068082610718565b915061068b83610718565b92508261069b5761069a61079a565b5b828204905092915050565b60006106b182610718565b91506106bc83610718565b9250828210156106cf576106ce61076b565b5b828203905092915050565b60006106e5826106f8565b9050919050565b60008115159050919050565b600073ffffffffffffffffffffffffffffffffffffffff82169050919050565b6000819050919050565b600061072d82610718565b91507fffffffffffffffffffffffffffffffffffffffffffffffffffffffffffffffff8214156107605761075f61076b565b5b600182019050919050565b7f4e487b7100000000000000000000000000000000000000000000000000000000600052601160045260246000fd5b7f4e487b7100000000000000000000000000000000000000000000000000000000600052601260045260246000fd5b6107d2816106da565b81146107dd57600080fd5b50565b6107e9816106ec565b81146107f457600080fd5b5056fea26469706673582212202fef686017010533fe37d0fa9d09bef310fe1e141487712faa5d9d93ee6cafb264736f6c63430008000033",
			"opcodes": "PUSH1 0x80 PUSH1 0x40 MSTORE PUSH32 0x8000000000000000000000000000000000000000000000000000000000000000 PUSH1 0x4 SSTORE CALLVALUE DUP1 ISZERO PUSH2 0x34 JUMPI PUSH1 0x0 DUP1 REVERT JUMPDEST POP PUSH1 0x0 DUP1 DUP2 SWAP1 SSTORE POP PUSH2 0x82D DUP1 PUSH2 0x4B PUSH1 0x0 CODECOPY PUSH1 0x0 RETURN INVALID PUSH1 0x80 PUSH1 0x40 MSTORE CALLVALUE DUP1 ISZERO PUSH2 0x10 JUMPI PUSH1 0x0 DUP1 REVERT JUMPDEST POP PUSH1 0x4 CALLDATASIZE LT PUSH2 0xA8 JUMPI PUSH1 0x0 CALLDATALOAD PUSH1 0xE0 SHR DUP1 PUSH4 0x8475C028 GT PUSH2 0x71 JUMPI DUP1 PUSH4 0x8475C028 EQ PUSH2 0x141 JUMPI DUP1 PUSH4 0x8C74DDB0 EQ PUSH2 0x15F JUMPI DUP1 PUSH4 0xA68EBE88 EQ PUSH2 0x169 JUMPI DUP1 PUSH4 0xB15C128E EQ PUSH2 0x173 JUMPI DUP1 PUSH4 0xE6F334D7 EQ PUSH2 0x18F JUMPI DUP1 PUSH4 0xF852BE69 EQ PUSH2 0x1AD JUMPI PUSH2 0xA8 JUMP JUMPDEST DUP1 PUSH3 0x81FE1A EQ PUSH2 0xAD JUMPI DUP1 PUSH4 0x4AC3F91 EQ PUSH2 0xB7 JUMPI DUP1 PUSH4 0x3FA21806 EQ PUSH2 0xE7 JUMPI DUP1 PUSH4 0x5AC947CB EQ PUSH2 0x105 JUMPI DUP1 PUSH4 0x5D06228B EQ PUSH2 0x123 JUMPI JUMPDEST PUSH1 0x0 DUP1 REVERT JUMPDEST PUSH2 0xB5 PUSH2 0x1CB JUMP JUMPDEST STOP JUMPDEST PUSH2 0xD1 PUSH1 0x4 DUP1 CALLDATASIZE SUB DUP2 ADD SWAP1 PUSH2 0xCC SWAP2 SWAP1 PUSH2 0x5CF JUMP JUMPDEST PUSH2 0x240 JUMP JUMPDEST PUSH1 0x40 MLOAD PUSH2 0xDE SWAP2 SWAP1 PUSH2 0x63F JUMP JUMPDEST PUSH1 0x40 MLOAD DUP1 SWAP2 SUB SWAP1 RETURN JUMPDEST PUSH2 0xEF PUSH2 0x302 JUMP JUMPDEST PUSH1 0x40 MLOAD PUSH2 0xFC SWAP2 SWAP1 PUSH2 0x65A JUMP JUMPDEST PUSH1 0x40 MLOAD DUP1 SWAP2 SUB SWAP1 RETURN JUMPDEST PUSH2 0x10D PUSH2 0x308 JUMP JUMPDEST PUSH1 0x40 MLOAD PUSH2 0x11A SWAP2 SWAP1 PUSH2 0x65A JUMP JUMPDEST PUSH1 0x40 MLOAD DUP1 SWAP2 SUB SWAP1 RETURN JUMPDEST PUSH2 0x12B PUSH2 0x30E JUMP JUMPDEST PUSH1 0x40 MLOAD PUSH2 0x138 SWAP2 SWAP1 PUSH2 0x63F JUMP JUMPDEST PUSH1 0x40 MLOAD DUP1 SWAP2 SUB SWAP1 RETURN JUMPDEST PUSH2 0x149 PUSH2 0x3E5 JUMP JUMPDEST PUSH1 0x40 MLOAD PUSH2 0x156 SWAP2 SWAP1 PUSH2 0x63F JUMP JUMPDEST PUSH1 0x40 MLOAD DUP1 SWAP2 SUB SWAP1 RETURN JUMPDEST PUSH2 0x167 PUSH2 0x3F8 JUMP JUMPDEST STOP JUMPDEST PUSH2 0x171 PUSH2 0x405 JUMP JUMPDEST STOP JUMPDEST PUSH2 0x18D PUSH1 0x4 DUP1 CALLDATASIZE SUB DUP2 ADD SWAP1 PUSH2 0x188 SWAP2 SWAP1 PUSH2 0x5A6 JUMP JUMPDEST PUSH2 0x45D JUMP JUMPDEST STOP JUMPDEST PUSH2 0x197 PUSH2 0x55B JUMP JUMPDEST PUSH1 0x40 MLOAD PUSH2 0x1A4 SWAP2 SWAP1 PUSH2 0x65A JUMP JUMPDEST PUSH1 0x40 MLOAD DUP1 SWAP2 SUB SWAP1 RETURN JUMPDEST PUSH2 0x1B5 PUSH2 0x561 JUMP JUMPDEST PUSH1 0x40 MLOAD PUSH2 0x1C2 SWAP2 SWAP1 PUSH2 0x65A JUMP JUMPDEST PUSH1 0x40 MLOAD DUP1 SWAP2 SUB SWAP1 RETURN JUMPDEST PUSH1 0x1 NUMBER PUSH2 0x1D8 SWAP2 SWAP1 PUSH2 0x6A6 JUMP JUMPDEST BLOCKHASH PUSH1 0x0 SHR PUSH1 0x3 DUP2 SWAP1 SSTORE POP PUSH1 0x4 SLOAD PUSH1 0x3 SLOAD PUSH2 0x1F2 SWAP2 SWAP1 PUSH2 0x675 JUMP JUMPDEST PUSH1 0x2 DUP2 SWAP1 SSTORE POP PUSH1 0x1 PUSH1 0x2 SLOAD EQ PUSH2 0x209 JUMPI PUSH1 0x0 PUSH2 0x20C JUMP JUMPDEST PUSH1 0x1 JUMPDEST PUSH1 0x5 PUSH1 0x0 PUSH2 0x100 EXP DUP2 SLOAD DUP2 PUSH1 0xFF MUL NOT AND SWAP1 DUP4 ISZERO ISZERO MUL OR SWAP1 SSTORE POP PUSH2 0x23D PUSH1 0x5 PUSH1 0x0 SWAP1 SLOAD SWAP1 PUSH2 0x100 EXP SWAP1 DIV PUSH1 0xFF AND PUSH2 0x240 JUMP JUMPDEST POP JUMP JUMPDEST PUSH1 0x0 PUSH1 0x1 NUMBER PUSH2 0x24F SWAP2 SWAP1 PUSH2 0x6A6 JUMP JUMPDEST BLOCKHASH PUSH1 0x0 SHR PUSH1 0x3 DUP2 SWAP1 SSTORE POP PUSH1 0x3 SLOAD PUSH1 0x1 SLOAD EQ ISZERO PUSH2 0x26A JUMPI PUSH1 0x0 DUP1 REVERT JUMPDEST PUSH1 0x3 SLOAD PUSH1 0x1 DUP2 SWAP1 SSTORE POP PUSH1 0x4 SLOAD PUSH1 0x3 SLOAD PUSH2 0x283 SWAP2 SWAP1 PUSH2 0x675 JUMP JUMPDEST PUSH1 0x2 DUP2 SWAP1 SSTORE POP PUSH1 0x1 PUSH1 0x2 SLOAD EQ PUSH2 0x29A JUMPI PUSH1 0x0 PUSH2 0x29D JUMP JUMPDEST PUSH1 0x1 JUMPDEST PUSH1 0x5 PUSH1 0x0 PUSH2 0x100 EXP DUP2 SLOAD DUP2 PUSH1 0xFF MUL NOT AND SWAP1 DUP4 ISZERO ISZERO MUL OR SWAP1 SSTORE POP DUP2 ISZERO ISZERO PUSH1 0x5 PUSH1 0x0 SWAP1 SLOAD SWAP1 PUSH2 0x100 EXP SWAP1 DIV PUSH1 0xFF AND ISZERO ISZERO EQ ISZERO PUSH2 0x2F1 JUMPI PUSH1 0x0 DUP1 DUP2 SLOAD DUP1 SWAP3 SWAP2 SWAP1 PUSH2 0x2E3 SWAP1 PUSH2 0x722 JUMP JUMPDEST SWAP2 SWAP1 POP SSTORE POP PUSH1 0x1 SWAP1 POP PUSH2 0x2FD JUMP JUMPDEST PUSH1 0x0 DUP1 DUP2 SWAP1 SSTORE POP PUSH1 0x0 SWAP1 POP JUMPDEST SWAP2 SWAP1 POP JUMP JUMPDEST PUSH1 0x1 SLOAD DUP2 JUMP JUMPDEST PUSH1 0x2 SLOAD DUP2 JUMP JUMPDEST PUSH1 0x0 PUSH1 0x1 NUMBER PUSH2 0x31D SWAP2 SWAP1 PUSH2 0x6A6 JUMP JUMPDEST BLOCKHASH PUSH1 0x0 SHR PUSH1 0x3 DUP2 SWAP1 SSTORE POP PUSH1 0x3 SLOAD PUSH1 0x1 DUP2 SWAP1 SSTORE POP PUSH1 0x4 SLOAD PUSH1 0x3 SLOAD PUSH2 0x340 SWAP2 SWAP1 PUSH2 0x675 JUMP JUMPDEST PUSH1 0x2 DUP2 SWAP1 SSTORE POP PUSH1 0x1 PUSH1 0x2 SLOAD EQ PUSH2 0x357 JUMPI PUSH1 0x0 PUSH2 0x35A JUMP JUMPDEST PUSH1 0x1 JUMPDEST PUSH1 0x5 PUSH1 0x0 PUSH2 0x100 EXP DUP2 SLOAD DUP2 PUSH1 0xFF MUL NOT AND SWAP1 DUP4 ISZERO ISZERO MUL OR SWAP1 SSTORE POP PUSH1 0x5 PUSH1 0x0 SWAP1 SLOAD SWAP1 PUSH2 0x100 EXP SWAP1 DIV PUSH1 0xFF AND ISZERO PUSH2 0x3B7 JUMPI PUSH2 0x392 PUSH1 0x1 PUSH2 0x240 JUMP JUMPDEST POP PUSH1 0x0 PUSH1 0x5 PUSH1 0x0 PUSH2 0x100 EXP DUP2 SLOAD DUP2 PUSH1 0xFF MUL NOT AND SWAP1 DUP4 ISZERO ISZERO MUL OR SWAP1 SSTORE POP PUSH1 0x1 SWAP1 POP PUSH2 0x3E2 JUMP JUMPDEST PUSH2 0x3C1 PUSH1 0x1 PUSH2 0x240 JUMP JUMPDEST POP PUSH1 0x1 PUSH1 0x5 PUSH1 0x0 PUSH2 0x100 EXP DUP2 SLOAD DUP2 PUSH1 0xFF MUL NOT AND SWAP1 DUP4 ISZERO ISZERO MUL OR SWAP1 SSTORE POP PUSH1 0x0 SWAP1 POP JUMPDEST SWAP1 JUMP JUMPDEST PUSH1 0x5 PUSH1 0x0 SWAP1 SLOAD SWAP1 PUSH2 0x100 EXP SWAP1 DIV PUSH1 0xFF AND DUP2 JUMP JUMPDEST PUSH2 0x402 PUSH1 0x1 PUSH2 0x240 JUMP JUMPDEST POP JUMP JUMPDEST PUSH1 0x1 NUMBER PUSH2 0x412 SWAP2 SWAP1 PUSH2 0x6A6 JUMP JUMPDEST BLOCKHASH PUSH1 0x0 SHR PUSH1 0x3 DUP2 SWAP1 SSTORE POP PUSH1 0x3 SLOAD PUSH1 0x1 DUP2 SWAP1 SSTORE POP PUSH1 0x4 SLOAD PUSH1 0x3 SLOAD PUSH2 0x435 SWAP2 SWAP1 PUSH2 0x675 JUMP JUMPDEST PUSH1 0x2 DUP2 SWAP1 SSTORE POP PUSH1 0x1 PUSH1 0x2 SLOAD LT ISZERO PUSH2 0x456 JUMPI PUSH2 0x450 PUSH1 0x0 PUSH2 0x240 JUMP JUMPDEST POP PUSH2 0x45B JUMP JUMPDEST PUSH1 0x0 DUP1 REVERT JUMPDEST JUMP JUMPDEST PUSH1 0x0 DUP2 SWAP1 POP PUSH1 0x1 NUMBER PUSH2 0x46F SWAP2 SWAP1 PUSH2 0x6A6 JUMP JUMPDEST BLOCKHASH PUSH1 0x0 SHR PUSH1 0x3 DUP2 SWAP1 SSTORE POP PUSH1 0x4 SLOAD PUSH1 0x3 SLOAD PUSH2 0x489 SWAP2 SWAP1 PUSH2 0x675 JUMP JUMPDEST PUSH1 0x2 DUP2 SWAP1 SSTORE POP PUSH1 0x1 PUSH1 0x2 SLOAD EQ PUSH2 0x4A0 JUMPI PUSH1 0x0 PUSH2 0x4A3 JUMP JUMPDEST PUSH1 0x1 JUMPDEST PUSH1 0x5 PUSH1 0x0 PUSH2 0x100 EXP DUP2 SLOAD DUP2 PUSH1 0xFF MUL NOT AND SWAP1 DUP4 ISZERO ISZERO MUL OR SWAP1 SSTORE POP DUP1 PUSH20 0xFFFFFFFFFFFFFFFFFFFFFFFFFFFFFFFFFFFFFFFF AND PUSH4 0x1D263F67 PUSH1 0x5 PUSH1 0x0 SWAP1 SLOAD SWAP1 PUSH2 0x100 EXP SWAP1 DIV PUSH1 0xFF AND PUSH1 0x40 MLOAD DUP3 PUSH4 0xFFFFFFFF AND PUSH1 0xE0 SHL DUP2 MSTORE PUSH1 0x4 ADD PUSH2 0x504 SWAP2 SWAP1 PUSH2 0x63F JUMP JUMPDEST PUSH1 0x20 PUSH1 0x40 MLOAD DUP1 DUP4 SUB DUP2 PUSH1 0x0 DUP8 DUP1 EXTCODESIZE ISZERO DUP1 ISZERO PUSH2 0x51E JUMPI PUSH1 0x0 DUP1 REVERT JUMPDEST POP GAS CALL ISZERO DUP1 ISZERO PUSH2 0x532 JUMPI RETURNDATASIZE PUSH1 0x0 DUP1 RETURNDATACOPY RETURNDATASIZE PUSH1 0x0 REVERT JUMPDEST POP POP POP POP PUSH1 0x40 MLOAD RETURNDATASIZE PUSH1 0x1F NOT PUSH1 0x1F DUP3 ADD AND DUP3 ADD DUP1 PUSH1 0x40 MSTORE POP DUP2 ADD SWAP1 PUSH2 0x556 SWAP2 SWAP1 PUSH2 0x5F8 JUMP JUMPDEST POP POP POP JUMP JUMPDEST PUSH1 0x0 SLOAD DUP2 JUMP JUMPDEST PUSH1 0x3 SLOAD DUP2 JUMP JUMPDEST PUSH1 0x0 DUP2 CALLDATALOAD SWAP1 POP PUSH2 0x576 DUP2 PUSH2 0x7C9 JUMP JUMPDEST SWAP3 SWAP2 POP POP JUMP JUMPDEST PUSH1 0x0 DUP2 CALLDATALOAD SWAP1 POP PUSH2 0x58B DUP2 PUSH2 0x7E0 JUMP JUMPDEST SWAP3 SWAP2 POP POP JUMP JUMPDEST PUSH1 0x0 DUP2 MLOAD SWAP1 POP PUSH2 0x5A0 DUP2 PUSH2 0x7E0 JUMP JUMPDEST SWAP3 SWAP2 POP POP JUMP JUMPDEST PUSH1 0x0 PUSH1 0x20 DUP3 DUP5 SUB SLT ISZERO PUSH2 0x5B8 JUMPI PUSH1 0x0 DUP1 REVERT JUMPDEST PUSH1 0x0 PUSH2 0x5C6 DUP5 DUP3 DUP6 ADD PUSH2 0x567 JUMP JUMPDEST SWAP2 POP POP SWAP3 SWAP2 POP POP JUMP JUMPDEST PUSH1 0x0 PUSH1 0x20 DUP3 DUP5 SUB SLT ISZERO PUSH2 0x5E1 JUMPI PUSH1 0x0 DUP1 REVERT JUMPDEST PUSH1 0x0 PUSH2 0x5EF DUP5 DUP3 DUP6 ADD PUSH2 0x57C JUMP JUMPDEST SWAP2 POP POP SWAP3 SWAP2 POP POP JUMP JUMPDEST PUSH1 0x0 PUSH1 0x20 DUP3 DUP5 SUB SLT ISZERO PUSH2 0x60A JUMPI PUSH1 0x0 DUP1 REVERT JUMPDEST PUSH1 0x0 PUSH2 0x618 DUP5 DUP3 DUP6 ADD PUSH2 0x591 JUMP JUMPDEST SWAP2 POP POP SWAP3 SWAP2 POP POP JUMP JUMPDEST PUSH2 0x62A DUP2 PUSH2 0x6EC JUMP JUMPDEST DUP3 MSTORE POP POP JUMP JUMPDEST PUSH2 0x639 DUP2 PUSH2 0x718 JUMP JUMPDEST DUP3 MSTORE POP POP JUMP JUMPDEST PUSH1 0x0 PUSH1 0x20 DUP3 ADD SWAP1 POP PUSH2 0x654 PUSH1 0x0 DUP4 ADD DUP5 PUSH2 0x621 JUMP JUMPDEST SWAP3 SWAP2 POP POP JUMP JUMPDEST PUSH1 0x0 PUSH1 0x20 DUP3 ADD SWAP1 POP PUSH2 0x66F PUSH1 0x0 DUP4 ADD DUP5 PUSH2 0x630 JUMP JUMPDEST SWAP3 SWAP2 POP POP JUMP JUMPDEST PUSH1 0x0 PUSH2 0x680 DUP3 PUSH2 0x718 JUMP JUMPDEST SWAP2 POP PUSH2 0x68B DUP4 PUSH2 0x718 JUMP JUMPDEST SWAP3 POP DUP3 PUSH2 0x69B JUMPI PUSH2 0x69A PUSH2 0x79A JUMP JUMPDEST JUMPDEST DUP3 DUP3 DIV SWAP1 POP SWAP3 SWAP2 POP POP JUMP JUMPDEST PUSH1 0x0 PUSH2 0x6B1 DUP3 PUSH2 0x718 JUMP JUMPDEST SWAP2 POP PUSH2 0x6BC DUP4 PUSH2 0x718 JUMP JUMPDEST SWAP3 POP DUP3 DUP3 LT ISZERO PUSH2 0x6CF JUMPI PUSH2 0x6CE PUSH2 0x76B JUMP JUMPDEST JUMPDEST DUP3 DUP3 SUB SWAP1 POP SWAP3 SWAP2 POP POP JUMP JUMPDEST PUSH1 0x0 PUSH2 0x6E5 DUP3 PUSH2 0x6F8 JUMP JUMPDEST SWAP1 POP SWAP2 SWAP1 POP JUMP JUMPDEST PUSH1 0x0 DUP2 ISZERO ISZERO SWAP1 POP SWAP2 SWAP1 POP JUMP JUMPDEST PUSH1 0x0 PUSH20 0xFFFFFFFFFFFFFFFFFFFFFFFFFFFFFFFFFFFFFFFF DUP3 AND SWAP1 POP SWAP2 SWAP1 POP JUMP JUMPDEST PUSH1 0x0 DUP2 SWAP1 POP SWAP2 SWAP1 POP JUMP JUMPDEST PUSH1 0x0 PUSH2 0x72D DUP3 PUSH2 0x718 JUMP JUMPDEST SWAP2 POP PUSH32 0xFFFFFFFFFFFFFFFFFFFFFFFFFFFFFFFFFFFFFFFFFFFFFFFFFFFFFFFFFFFFFFFF DUP3 EQ ISZERO PUSH2 0x760 JUMPI PUSH2 0x75F PUSH2 0x76B JUMP JUMPDEST JUMPDEST PUSH1 0x1 DUP3 ADD SWAP1 POP SWAP2 SWAP1 POP JUMP JUMPDEST PUSH32 0x4E487B7100000000000000000000000000000000000000000000000000000000 PUSH1 0x0 MSTORE PUSH1 0x11 PUSH1 0x4 MSTORE PUSH1 0x24 PUSH1 0x0 REVERT JUMPDEST PUSH32 0x4E487B7100000000000000000000000000000000000000000000000000000000 PUSH1 0x0 MSTORE PUSH1 0x12 PUSH1 0x4 MSTORE PUSH1 0x24 PUSH1 0x0 REVERT JUMPDEST PUSH2 0x7D2 DUP2 PUSH2 0x6DA JUMP JUMPDEST DUP2 EQ PUSH2 0x7DD JUMPI PUSH1 0x0 DUP1 REVERT JUMPDEST POP JUMP JUMPDEST PUSH2 0x7E9 DUP2 PUSH2 0x6EC JUMP JUMPDEST DUP2 EQ PUSH2 0x7F4 JUMPI PUSH1 0x0 DUP1 REVERT JUMPDEST POP JUMP INVALID LOG2 PUSH5 0x6970667358 0x22 SLT KECCAK256 0x2F 0xEF PUSH9 0x6017010533FE37D0FA SWAP14 MULMOD 0xBE RETURN LT INVALID 0x1E EQ EQ DUP8 PUSH18 0x2FAA5D9D93EE6CAFB264736F6C6343000800 STOP CALLER "
		},
		"gasEstimates": {
			"creation": {
				"codeDepositCost": "418600",
				"executionCost": "25475",
				"totalCost": "444075"
			},
			"external": {
				"blankFlip()": "infinite",
				"blockValue()": "1239",
				"coinFlip()": "1196",
				"consecutiveWins()": "1217",
				"lastHash()": "1174",
				"localFlip(bool)": "infinite",
				"localPsychicFlip()": "infinite",
				"positiveFlip()": "infinite",
				"remotePsychicFlip(address)": "infinite",
				"setCoinFlip()": "infinite",
				"side()": "1171"
			}
		},
		"methodIdentifiers": {
			"blankFlip()": "5d06228b",
			"blockValue()": "f852be69",
			"coinFlip()": "5ac947cb",
			"consecutiveWins()": "e6f334d7",
			"lastHash()": "3fa21806",
			"localFlip(bool)": "04ac3f91",
			"localPsychicFlip()": "0081fe1a",
			"positiveFlip()": "8c74ddb0",
			"remotePsychicFlip(address)": "b15c128e",
			"setCoinFlip()": "a68ebe88",
			"side()": "8475c028"
		}
	},
	"abi": [
		{
			"inputs": [],
			"stateMutability": "nonpayable",
			"type": "constructor"
		},
		{
			"inputs": [],
			"name": "blankFlip",
			"outputs": [
				{
					"internalType": "bool",
					"name": "",
					"type": "bool"
				}
			],
			"stateMutability": "nonpayable",
			"type": "function"
		},
		{
			"inputs": [],
			"name": "blockValue",
			"outputs": [
				{
					"internalType": "uint256",
					"name": "",
					"type": "uint256"
				}
			],
			"stateMutability": "view",
			"type": "function"
		},
		{
			"inputs": [],
			"name": "coinFlip",
			"outputs": [
				{
					"internalType": "uint256",
					"name": "",
					"type": "uint256"
				}
			],
			"stateMutability": "view",
			"type": "function"
		},
		{
			"inputs": [],
			"name": "consecutiveWins",
			"outputs": [
				{
					"internalType": "uint256",
					"name": "",
					"type": "uint256"
				}
			],
			"stateMutability": "view",
			"type": "function"
		},
		{
			"inputs": [],
			"name": "lastHash",
			"outputs": [
				{
					"internalType": "uint256",
					"name": "",
					"type": "uint256"
				}
			],
			"stateMutability": "view",
			"type": "function"
		},
		{
			"inputs": [
				{
					"internalType": "bool",
					"name": "_guess",
					"type": "bool"
				}
			],
			"name": "localFlip",
			"outputs": [
				{
					"internalType": "bool",
					"name": "",
					"type": "bool"
				}
			],
			"stateMutability": "nonpayable",
			"type": "function"
		},
		{
			"inputs": [],
			"name": "localPsychicFlip",
			"outputs": [],
			"stateMutability": "nonpayable",
			"type": "function"
		},
		{
			"inputs": [],
			"name": "positiveFlip",
			"outputs": [],
			"stateMutability": "nonpayable",
			"type": "function"
		},
		{
			"inputs": [
				{
					"internalType": "address",
					"name": "_addr",
					"type": "address"
				}
			],
			"name": "remotePsychicFlip",
			"outputs": [],
			"stateMutability": "nonpayable",
			"type": "function"
		},
		{
			"inputs": [],
			"name": "setCoinFlip",
			"outputs": [],
			"stateMutability": "nonpayable",
			"type": "function"
		},
		{
			"inputs": [],
			"name": "side",
			"outputs": [
				{
					"internalType": "bool",
					"name": "",
					"type": "bool"
				}
			],
			"stateMutability": "view",
			"type": "function"
		}
	]
}